H081777997014  001000001000000000061058700000000000020200111                                                                                                                       *
D081777997014  00160978805       2017/78231405  AYALA HUACHO  ALEXIA00000000640000000000000000000000000000000000000000000027462019033120200111120100500700031PENSION MAR 2019 COL  *
D081777997014  00160978805       2017/78232620  AYALA HUACHO  ALEXIA00000000640000000000000000000000000000000000000000000024582019043020200111120100500700031PENSION ABR 2019 COL  *
D081777997014  00160978805       2017/78233976  AYALA HUACHO  ALEXIA00000000640000000000000000000000000000000000000000000021602019053120200111120100500700031PENSION MAY 2019 COL  *
D081777997014  00172865798       2017/160469    VASQUEZ INGA  CAMILA00000000540000000000000000000000000000000000000000000001702019122120200111120550500700001PENSION DIC 2019 SJL  *
D081777997014  00171335916       2017/78242346  BLOISA JAICO  ARIANA00000000640000000000000000000000000000000000000000000002022019122120200111120700500700041PENSION DIC 2019 COL  *
D081777997014  00170531126       2017/78240452  ANCHAYHUA CAPCHA  GI00000000640000000000000000000000000000000000000000000006912019103120200111122540500700036PENSION OCT 2019 COL  *
D081777997014  00170531126       2017/78240982  ANCHAYHUA CAPCHA  GI00000000640000000000000000000000000000000000000000000004032019113020200111122540500700036PENSION NOV 2019 COL  *
D081777997014  00171012481       2017/157199    PORTELLA VERGARAY  D00000000540000000000000000000000000000000000000000000008342019093020200111126860500700001PENSION SEP 2019 SJL  *
D081777997014  00171012481       2017/158221    PORTELLA VERGARAY  D00000000540000000000000000000000000000000000000000000005832019103120200111126860500700001PENSION OCT 2019 SJL  *
D081777997014  00171012481       2017/159403    PORTELLA VERGARAY  D00000000540000000000000000000000000000000000000000000003402019113020200111126860500700001PENSION NOV 2019 SJL  *
T081777997014  00101PENSION                       081777997014  000000000392660                                                                                                    *
T081777997014  00102PENSION SAN JUAN              081777997014  000000000217927                                                                                                    *
H081777997014  003000000800000000040450000000000000020200111                                                                                                                       *
D081777997014  00381694173       2017/161691    GUZMAN POMALAZA  MIA00000000175000000000000000000000000000000000000000000000002020013120200111220110500700063INSCRIPCION SJL       *
D081777997014  00381694173       2017/161684    GUZMAN POMALAZA  MIA00000000570000000000000000000000000000000000000000000000002020013120200111220110500700063MATRICULA SJL         *
D081777997014  00377397697       2017/161680    GUZMAN POMALAZA  NIC00000000570000000000000000000000000000000000000000000000002020013120200111220110500700064INSCRIPCION SJL       *
D081777997014  00377594575       2017/78244281  VENTURA MILLA  UGO Y00000000670000000000000000000000000000000000000000000000002020013120200111222540500700029MATRICULA COL         *
D081777997014  00379801458       2017/78244327  VENTURA MILLA  ILLAR00000000570000000000000000000000000000000000000000000000002020013120200111222540500700030MATRICULA COL         *
D081777997014  00379801458       2017/78244328  VENTURA MILLA  ILLAR00000000350000000000000000000000000000000000000000000000002020013120200111222540500700030INSCRIPCION COL       *
D081777997014  00361332603       2017/161683    ORELLANA JUSTINIANO 00000000570000000000000000000000000000000000000000000000002020013120200111126860500700002INSCRIPCION SJL       *
D081777997014  00362600555       2017/161692    LEON HUANCA  MATEO F00000000570000000000000000000000000000000000000000000000002020013120200111126910500700011INSCRIPCION SJL       *
T081777997014  00304MATRICULA                     081777997014  000000000124000                                                                                                    *
T081777997014  00305DERECHO DE INGRESO LIM 2018   081777997014  000000000035000                                                                                                    *
T081777997014  00306MATRICULA SJL - PREMATRICULA  081777997014  000000000228000                                                                                                    *
T081777997014  00307DERECHO DE INGRESO SJL 2019   081777997014  000000000017500                                                                                                    *
H081777997014  009000000100000000000600000000000000020200111                                                                                                                       *
D081777997014  00971183123       FF20/74        ORBEGOSO GUTIERREZ  00000000060000000000000000000000000000000000000000000000002020013120200111120700500700010CERT ESTUDIO COL ENE  *
T081777997014  00929CERT ESTUDIO-COL              081777997014  000000000006000                                                                                                    *
