H081777997014  001000004600000000280215800000000000020200214                                                                                                                       *
D081777997014  00161906583       2017/78231852  ESTEBAN VERAMENDI  A00000000640000000000000000000000000000000000000000000030722019033120200214120140500700012PENSION MAR 2019 COL  *
D081777997014  00161906583       2017/78233071  ESTEBAN VERAMENDI  A00000000640000000000000000000000000000000000000000000027842019043020200214120140500700012PENSION ABR 2019 COL  *
D081777997014  00161906583       2017/78234386  ESTEBAN VERAMENDI  A00000000640000000000000000000000000000000000000000000024862019053120200214120140500700012PENSION MAY 2019 COL  *
D081777997014  00161906583       2017/78235175  ESTEBAN VERAMENDI  A00000000640000000000000000000000000000000000000000000021982019063020200214120140500700012PENSION JUN 2019 COL  *
D081777997014  00161906583       2017/78236712  ESTEBAN VERAMENDI  A00000000640000000000000000000000000000000000000000000019012019073120200214120140500700012PENSION JUL 2019 COL  *
D081777997014  00161906583       2017/78237985  ESTEBAN VERAMENDI  A00000000640000000000000000000000000000000000000000000016032019083120200214120140500700012PENSION AGO 2019 COL  *
D081777997014  00161906583       2017/78239142  ESTEBAN VERAMENDI  A00000000640000000000000000000000000000000000000000000013152019093020200214120140500700012PENSION SEP 2019 COL  *
D081777997014  00161906583       2017/78239787  ESTEBAN VERAMENDI  A00000000640000000000000000000000000000000000000000000010182019103120200214120140500700012PENSION OCT 2019 COL  *
D081777997014  00161906583       2017/78241569  ESTEBAN VERAMENDI  A00000000640000000000000000000000000000000000000000000007302019113020200214120140500700012PENSION NOV 2019 COL  *
D081777997014  00161906583       2017/78242787  ESTEBAN VERAMENDI  A00000000640000000000000000000000000000000000000000000005282019122120200214120140500700012PENSION DIC 2019 COL  *
D081777997014  00171405959       2017/78231181  COAQUERA CALISAYA  A00000000640000000000000000000000000000000000000000000030722019033120200214120140500700055PENSION MAR 2019 COL  *
D081777997014  00171405959       2017/78232395  COAQUERA CALISAYA  A00000000640000000000000000000000000000000000000000000027842019043020200214120140500700055PENSION ABR 2019 COL  *
D081777997014  00171405959       2017/78233763  COAQUERA CALISAYA  A00000000640000000000000000000000000000000000000000000024862019053120200214120140500700055PENSION MAY 2019 COL  *
D081777997014  00171405959       2017/78234494  COAQUERA CALISAYA  A00000000640000000000000000000000000000000000000000000021982019063020200214120140500700055PENSION JUN 2019 COL  *
D081777997014  00171405959       2017/78236007  COAQUERA CALISAYA  A00000000640000000000000000000000000000000000000000000019012019073120200214120140500700055PENSION JUL 2019 COL  *
D081777997014  00171405959       2017/78237328  COAQUERA CALISAYA  A00000000640000000000000000000000000000000000000000000016032019083120200214120140500700055PENSION AGO 2019 COL  *
D081777997014  00171405959       2017/78238470  COAQUERA CALISAYA  A00000000640000000000000000000000000000000000000000000013152019093020200214120140500700055PENSION SEP 2019 COL  *
D081777997014  00171405959       2017/78240330  COAQUERA CALISAYA  A00000000640000000000000000000000000000000000000000000010182019103120200214120140500700055PENSION OCT 2019 COL  *
D081777997014  00171405959       2017/78240933  COAQUERA CALISAYA  A00000000640000000000000000000000000000000000000000000007302019113020200214120140500700055PENSION NOV 2019 COL  *
D081777997014  00171405959       2017/78242042  COAQUERA CALISAYA  A00000000640000000000000000000000000000000000000000000005282019122120200214120140500700055PENSION DIC 2019 COL  *
D081777997014  00178694823       2017/159504    FELIX SANTILLAN  BRI00000000504000000000000000000000000000000000000000000004162019122120200214120160500700081PENSION DIC 2019 SJL  *
D081777997014  00177300593       2017/158962    FELIX SANTILLAN  GHE00000000495000000000000000000000000000000000000000000005642019113020200214120160500700082PENSION NOV 2019 SJL  *
D081777997014  00161140583       2017/78241189  GUARDIA ESPINOZA  EM00000000640000000000000000000000000000000000000000000007302019113020200214122160500700008PENSION NOV 2019 COL  *
D081777997014  00161140583       2017/78242404  GUARDIA ESPINOZA  EM00000000640000000000000000000000000000000000000000000005282019122120200214122160500700008PENSION DIC 2019 COL  *
D081777997014  00177121552       2017/150555    JIMENEZ MAMANI  VANI00000000550000000000000000000000000000000000000000000026402019033120200214122470500700007PENSION MAR 2019 SJL  *
D081777997014  00177121552       2017/151562    JIMENEZ MAMANI  VANI00000000550000000000000000000000000000000000000000000023932019043020200214122470500700007PENSION ABR 2019 SJL  *
D081777997014  00177121552       2017/152616    JIMENEZ MAMANI  VANI00000000550000000000000000000000000000000000000000000021372019053120200214122470500700007PENSION MAY 2019 SJL  *
D081777997014  00177121552       2017/153654    JIMENEZ MAMANI  VANI00000000550000000000000000000000000000000000000000000018892019063020200214122470500700007PENSION JUN 2019 SJL  *
D081777997014  00177121552       2017/155323    JIMENEZ MAMANI  VANI00000000550000000000000000000000000000000000000000000016342019073120200214122470500700007PENSION JUL 2019 SJL  *
D081777997014  00174850191       2017/78237543  ROBLES VELEZ  SEBAST00000000640000000000000000000000000000000000000000000016032019083120200214124280500700080PENSION AGO 2019 COL  *
D081777997014  00174850191       2017/78238679  ROBLES VELEZ  SEBAST00000000640000000000000000000000000000000000000000000013152019093020200214124280500700080PENSION SEP 2019 COL  *
D081777997014  00174850191       2017/78239324  ROBLES VELEZ  SEBAST00000000640000000000000000000000000000000000000000000010182019103120200214124280500700080PENSION OCT 2019 COL  *
D081777997014  00174850191       2017/78241137  ROBLES VELEZ  SEBAST00000000640000000000000000000000000000000000000000000007302019113020200214124280500700080PENSION NOV 2019 COL  *
D081777997014  00174850191       2017/78242324  ROBLES VELEZ  SEBAST00000000640000000000000000000000000000000000000000000005282019122120200214124280500700080PENSION DIC 2019 COL  *
D081777997014  00173640160       2017/78242130  SANCHEZ SANTIANI  JO00000000480000000000000000000000000000000000000000000003962019122120200214126610500700108PENSION DIC 2019 COL  *
D081777997014  00173537662       2017/157257    PIZZINO CUBAS  DAPHN00000000540000000000000000000000000000000000000000000011102019093020200214126860500700002PENSION SEP 2019 SJL  *
D081777997014  00173537662       2017/158279    PIZZINO CUBAS  DAPHN00000000540000000000000000000000000000000000000000000008592019103120200214126860500700002PENSION OCT 2019 SJL  *
D081777997014  00173537662       2017/159461    PIZZINO CUBAS  DAPHN00000000540000000000000000000000000000000000000000000006162019113020200214126860500700002PENSION NOV 2019 SJL  *
D081777997014  00173537662       2017/160323    PIZZINO CUBAS  DAPHN00000000540000000000000000000000000000000000000000000004462019122120200214126860500700003PENSION DIC 2019 SJL  *
D081777997014  00179617838       2017/157617    REANO EVANGELISTA  E00000000560000000000000000000000000000000000000000000008902019103120200214126910500700008PENSION OCT 2019 SJL  *
D081777997014  00179617838       2017/158839    REANO EVANGELISTA  E00000000560000000000000000000000000000000000000000000006382019113020200214126910500700008PENSION NOV 2019 SJL  *
D081777997014  00179617838       2017/159792    REANO EVANGELISTA  E00000000560000000000000000000000000000000000000000000004622019122120200214126910500700008PENSION DIC 2019 SJL  *
D081777997014  00178512036       2017/157462    REANO EVANGELISTA  N00000000504000000000000000000000000000000000000000000008012019103120200214126910500700011PENSION OCT 2019 SJL  *
D081777997014  00178512036       2017/158712    REANO EVANGELISTA  N00000000504000000000000000000000000000000000000000000005752019113020200214126910500700011PENSION NOV 2019 SJL  *
D081777997014  00178512036       2017/159486    REANO EVANGELISTA  N00000000504000000000000000000000000000000000000000000004162019122120200214126910500700011PENSION DIC 2019 SJL  *
D081777997014  00161883862       2017/159787    NISHIKY PEREZ  KAZUK00000000550000000000000000000000000000000000000000000004542019122120200214226910500700023PENSION DIC 2019 SJL  *
T081777997014  00101PENSION                       081777997014  000000001818118                                                                                                    *
T081777997014  00102PENSION SAN JUAN              081777997014  000000000984040                                                                                                    *
H081777997014  003000001200000000075100000000000000020200214                                                                                                                       *
D081777997014  00372061644       2017/80016351  GUERRERO LAUREANO  C00000000560000000000000000000000000000000000000000000000002020022820200214120580500700085INSCRIPCION CAR       *
D081777997014  00360826924       2017/78244762  GAMARRA CARRASCO  JI00000000670000000000000000000000000000000000000000000000002020022820200214120700500700074MATRICULA COL         *
D081777997014  00377399215       2017/78244763  GAMARRA CARRASCO  NA00000000670000000000000000000000000000000000000000000000002020022820200214120700500700075MATRICULA COL         *
D081777997014  00374742232       2017/78244760  CRESPO COTRINA  DANI00000000670000000000000000000000000000000000000000000000002020022820200214120810500700073MATRICULA COL         *
D081777997014  00371146729       2017/78244748  CHERO SEDANO  JOSUE 00000000670000000000000000000000000000000000000000000000002020022820200214222500500700056MATRICULA COL         *
D081777997014  00378343746       2017/78244749  CHERO SEDANO  RODRIG00000000580000000000000000000000000000000000000000000000002020022820200214222500500700057MATRICULA COL         *
D081777997014  00361383921       2017/78244750  SILVA AEDO  PEDRO MA00000000670000000000000000000000000000000000000000000000002020022820200214122540500700041MATRICULA COL         *
D081777997014  00379454600       2017/162025    SALAZAR VARGAS  MIGU00000000570000000000000000000000000000000000000000000000002020022820200214122640500700096MATRICULA SJL         *
D081777997014  00370522884       2017/78244718  MENDIVEL RIVERA  MAT00000000670000000000000000000000000000000000000000000000002020022820200214123000500700001MATRICULA COL         *
D081777997014  00373155351       2017/78244732  HERNANDEZ VALLADOLID00000000670000000000000000000000000000000000000000000000002020022820200214124140500700019MATRICULA COL         *
D081777997014  00361211586       2017/80016377  JULON CUBAS  PATRICK00000000550000000000000000000000000000000000000000000000002020022820200214127020500700019MATRICULA CAR         *
D081777997014  00361773933       2017/80016378  JULON CUBAS  NELLY E00000000560000000000000000000000000000000000000000000000002020022820200214127020500700020MATRICULA CAR         *
T081777997014  00304MATRICULA                     081777997014  000000000527000                                                                                                    *
T081777997014  00306MATRICULA SJL 2020            081777997014  000000000057000                                                                                                    *
T081777997014  00308MATRICULA 2020 CARABAYLLO     081777997014  000000000167000                                                                                                    *
H081777997014  007000000100000000000250000000000000020200214                                                                                                                       *
D081777997014  00774898081       FF20/502       ESPINOZA TRUYENQUE  00000000025000000000000000000000000000000000000000000000002020022820200214126860500700001EXCELENCIA ACAD SJL   *
T081777997014  00761EXCELENCIA ACAD SJL           081777997014  000000000002500                                                                                                    *
H081777997014  009000001000000000006000000000000000020200214                                                                                                                       *
D081777997014  00961184469       FF20/510       HERNANDEZ MEZA  CHRI00000000060000000000000000000000000000000000000000000000002020022820200214120140500700047CERT ESTUDIO COL FEB  *
D081777997014  00970813669       FF20/513       ALEJOS CORONADO  ALE00000000060000000000000000000000000000000000000000000000002020022820200214120910500700095CERT ESTUDIO COL FEB  *
D081777997014  00973844183       FF20/516       MERINO LAUREANO  VAL00000000060000000000000000000000000000000000000000000000002020022820200214122540500700049CERT ESTUDIO COL FEB  *
D081777997014  00973007650       FF20/454       AREVALO CHOQUE  LUIS00000000060000000000000000000000000000000000000000000000002020022820200214224450500700001CERT ESTUDIO COL FEB  *
D081777997014  00974898081       FF20/501       ESPINOZA TRUYENQUE  00000000060000000000000000000000000000000000000000000000002020022820200214126860500700001CERT ESTUDIOS SJL FE  *
D081777997014  00971355128       FF20/470       SANCHEZ CADILLO  ROD00000000060000000000000000000000000000000000000000000000002020022820200214126910500700003CERT ESTUDIOS SJL FE  *
D081777997014  00974022435       FF20/489       LAGUNA GARCIA  BRAYA00000000060000000000000000000000000000000000000000000000002020022820200214126910500700051CERT ESTUDIOS SJL FE  *
D081777997014  00973283676       FF20/479       GUIA VASQUEZ  LAURA 00000000060000000000000000000000000000000000000000000000002020022820200214127020500700021CERT ESTUDIOS CAR FE  *
D081777997014  00970961016       FF20/503       MELGAREJO DELGADO  A00000000060000000000000000000000000000000000000000000000002020022820200214127420500700052CERT ESTUDIOS SJL FE  *
D081777997014  00970961016       FF20/506       MELGAREJO DELGADO  A00000000060000000000000000000000000000000000000000000000002020022820200214127420500700053CERT ESTUDIOS SJL FE  *
T081777997014  00929CERT ESTUDIO-COL              081777997014  000000000024000                                                                                                    *
T081777997014  00963CERT ESTUDIOS SJL             081777997014  000000000030000                                                                                                    *
T081777997014  00999CERT ESTUDIOS-CAR             081777997014  000000000006000                                                                                                    *
H081777997014  010000000100000000000300000000000000020200214                                                                                                                       *
D081777997014  01061184469       FF20/509       HERNANDEZ MEZA  CHRI00000000030000000000000000000000000000000000000000000000002020022820200214120140500700047CCIA NO ADEUDO COL F  *
T081777997014  01028CCIA NO ADEUDO COL            081777997014  000000000003000                                                                                                    *
