H081777997014  001000002900000000185502800000000000020200303                                                                                                                       *
D081777997014  00177122117       2017/78231491  CAMARENA ESPINOZA  J00000000640000000000000000000000000000000000000000000032452019033120200303120630500700033PENSION MAR 2019 COL  *
D081777997014  00177122117       2017/78232706  CAMARENA ESPINOZA  J00000000640000000000000000000000000000000000000000000029572019043020200303120630500700033PENSION ABR 2019 COL  *
D081777997014  00177122117       2017/78234041  CAMARENA ESPINOZA  J00000000640000000000000000000000000000000000000000000026592019053120200303120630500700033PENSION MAY 2019 COL  *
D081777997014  00177122117       2017/78234814  CAMARENA ESPINOZA  J00000000640000000000000000000000000000000000000000000023712019063020200303120630500700033PENSION JUN 2019 COL  *
D081777997014  00177122117       2017/78236351  CAMARENA ESPINOZA  J00000000640000000000000000000000000000000000000000000020742019073120200303120630500700033PENSION JUL 2019 COL  *
D081777997014  00177122117       2017/78237639  CAMARENA ESPINOZA  J00000000640000000000000000000000000000000000000000000017762019083120200303120630500700033PENSION AGO 2019 COL  *
D081777997014  00177122117       2017/78238783  CAMARENA ESPINOZA  J00000000640000000000000000000000000000000000000000000014882019093020200303120630500700033PENSION SEP 2019 COL  *
D081777997014  00162720036       2017/78245094  VILLAVICENCIO PORTUG00000000670000000000000000000000000000000000000000000000002020033120200303220670500700081PENSION MAR 2020 COL  *
D081777997014  00162720036       2017/78245095  VILLAVICENCIO PORTUG00000000670000000000000000000000000000000000000000000000002020043020200303220670500700081PENSION ABR 2020 COL  *
D081777997014  00162720036       2017/78245096  VILLAVICENCIO PORTUG00000000670000000000000000000000000000000000000000000000002020053120200303220670500700081PENSION MAY 2020 COL  *
D081777997014  00162720036       2017/78245097  VILLAVICENCIO PORTUG00000000670000000000000000000000000000000000000000000000002020063020200303220670500700081PENSION JUN 2020 COL  *
D081777997014  00162720036       2017/78245098  VILLAVICENCIO PORTUG00000000670000000000000000000000000000000000000000000000002020073120200303220670500700081PENSION JUL 2020 COL  *
D081777997014  00162720036       2017/78245099  VILLAVICENCIO PORTUG00000000670000000000000000000000000000000000000000000000002020083120200303220670500700081PENSION AGO 2020 COL  *
D081777997014  00162720036       2017/78245100  VILLAVICENCIO PORTUG00000000670000000000000000000000000000000000000000000000002020093020200303220670500700081PENSION SEP 2020 COL  *
D081777997014  00162720036       2017/78245101  VILLAVICENCIO PORTUG00000000670000000000000000000000000000000000000000000000002020103120200303220670500700081PENSION OCT 2020 COL  *
D081777997014  00162720036       2017/78245102  VILLAVICENCIO PORTUG00000000670000000000000000000000000000000000000000000000002020113020200303220670500700081PENSION NOV 2020 COL  *
D081777997014  00162720036       2017/78245103  VILLAVICENCIO PORTUG00000000335000000000000000000000000000000000000000000000002020121920200303220670500700081PENSION DIC 2020 COL  *
D081777997014  00173741440       2017/78227942  VILLA MANCHAY  JOSE 00000000520000000000000000000000000000000000000000000034162018122120200303122540500700042PENSION DIC 2018 COL  *
D081777997014  00173843727       2017/78241606  CHAVEZ PALACIOS  LUA00000000640000000000000000000000000000000000000000000009022019113020200303122540500700072PENSION NOV 2019 COL  *
D081777997014  00173843727       2017/78242821  CHAVEZ PALACIOS  LUA00000000640000000000000000000000000000000000000000000007012019122120200303122540500700072PENSION DIC 2019 COL  *
D081777997014  00162628983       2017/78236707  SALAS CAPCHA  NICOLA00000000640000000000000000000000000000000000000000000020742019073120200303126610500700045PENSION JUL 2019 COL  *
D081777997014  00162628983       2017/78237980  SALAS CAPCHA  NICOLA00000000640000000000000000000000000000000000000000000017762019083120200303126610500700047PENSION AGO 2019 COL  *
D081777997014  00162628983       2017/78239137  SALAS CAPCHA  NICOLA00000000640000000000000000000000000000000000000000000014882019093020200303126610500700048PENSION SEP 2019 COL  *
D081777997014  00162628983       2017/78239782  SALAS CAPCHA  NICOLA00000000640000000000000000000000000000000000000000000011902019103120200303126610500700049PENSION OCT 2019 COL  *
D081777997014  00162628983       2017/78241564  SALAS CAPCHA  NICOLA00000000640000000000000000000000000000000000000000000009022019113020200303126610500700050PENSION NOV 2019 COL  *
D081777997014  00162628983       2017/78242782  SALAS CAPCHA  NICOLA00000000640000000000000000000000000000000000000000000007012019122120200303126610500700051PENSION DIC 2019 COL  *
D081777997014  00172188041       2017/78237255  ROCHA PANDURO  JUAN 00000000576000000000000000000000000000000000000000000015982019083120200303126610500700081PENSION AGO 2019 COL  *
D081777997014  00172188041       2017/78238340  ROCHA PANDURO  JUAN 00000000576000000000000000000000000000000000000000000013392019093020200303126610500700081PENSION SEP 2019 COL  *
D081777997014  00172188041       2017/78240257  ROCHA PANDURO  JUAN 00000000576000000000000000000000000000000000000000000010712019103120200303126610500700081PENSION OCT 2019 COL  *
T081777997014  00101PENSION                       081777997014  000000001855028                                                                                                    *
H081777997014  003000001500000000081439000000000000020200303                                                                                                                       *
D081777997014  00379779177       2017/78245145  GOICOCHEA SILVA  AXE00000000570000000000000000000000000000000000000000000000002020033120200303120140500700095MATRICULA COL         *
D081777997014  00379779177       2017/78245146  GOICOCHEA SILVA  AXE00000000350000000000000000000000000000000000000000000000002020033120200303120140500700095INSCRIPCION COL       *
D081777997014  00377454257       2017/80016557  MARMOLEJO HERRERA  M00000000560000000000000000000000000000000000000000000000002020033120200303120210500700117INSCRIPCION CAR       *
D081777997014  00372055795       2017/80016611  YAURI MEDINA  ELEANO00000000560000000000000000000000000000000000000000000000002020033120200303120920500700244MATRICULA CAR         *
D081777997014  00372055795       2017/80016612  YAURI MEDINA  ELEANO00000000350000000000000000000000000000000000000000000000002020033120200303120920500700244INSCRIPCION CAR       *
D081777997014  00361313540       2017/162161    VEGA TELLEZ  ANGEL F00000000570000000000000000000000000000000000000000000000002020033120200303121350500700046MATRICULA SJL         *
D081777997014  00377983634       2017/162171    VEGA TELLEZ  STEPHAN00000000570000000000000000000000000000000000000000000000002020033120200303121350500700047MATRICULA SJL         *
D081777997014  00371181520       2017/78245143  GARCIA TELLO  EDUARD00000000670000000000000000000000000000000000000000000000002020033120200303122160500700121MATRICULA COL         *
D081777997014  00375150008       2017/78245142  GARCIA TELLO  LEONAR00000000670000000000000000000000000000000000000000000000002020033120200303122160500700122MATRICULA COL         *
D081777997014  00376888627       2017/78245144  MORA JAIMES  BRIHANN00000000670000000000000000000000000000000000000000000000002020033120200303122540500700108MATRICULA COL         *
D081777997014  00379056968       FF20/703       SANCHEZ LUNA  AARON 00000000143900000000000000000000000000000000000000000000002020033120200303122640500700157INSCRIPCION CAR       *
D081777997014  00371679046       2017/78245131  ROCHA PANDURO  FRANC00000000670000000000000000000000000000000000000000000000002020033120200303126610500700079MATRICULA COL         *
D081777997014  00378508595       2017/162127    YALLE MORENO  NIKOLA00000000570000000000000000000000000000000000000000000000002020033120200303127420500700096MATRICULA SJL         *
D081777997014  00373272732       2017/78245129  NAIZA ALVILDO  FLAVI00000000670000000000000000000000000000000000000000000000002020033120200303227844651007368MATRICULA COL         *
D081777997014  00372799310       2017/80016608  ARCONDO CARRERA  ISI00000000550000000000000000000000000000000000000000000000002020033120200303227844651009320INSCRIPCION CAR       *
T081777997014  00304MATRICULA                     081777997014  000000000392000                                                                                                    *
T081777997014  00305DERECHO DE INGRESO COL        081777997014  000000000035000                                                                                                    *
T081777997014  00306MATRICULA SJL 2020            081777997014  000000000171000                                                                                                    *
T081777997014  00308MATRICULA 2020 CARABAYLLO     081777997014  000000000181390                                                                                                    *
T081777997014  00309DERECHO DE INGRESO 2020 CARABA081777997014  000000000035000                                                                                                    *
H081777997014  009000000500000000003000000000000000020200303                                                                                                                       *
D081777997014  00974952217       FF20/697       HUAYRA TRUJILLO  LEO00000000060000000000000000000000000000000000000000000000002020033120200303120100500700084CERT ESTUDIO COL MAR  *
D081777997014  00972639198       FF20/626       LI ASALDE  FRIDA SOF00000000060000000000000000000000000000000000000000000000002020022820200303120920500700187CERT ESTUDIOS CAR FE  *
D081777997014  00970598602       FF20/692       SANDMANN CASTILLO  C00000000060000000000000000000000000000000000000000000000002020033120200303122240500700022CERT ESTUDIO COL MAR  *
D081777997014  00971478710       FF20/695       BENITES YACTAYO  VAL00000000060000000000000000000000000000000000000000000000002020033120200303123850500700001CERT ESTUDIOS SJL MA  *
D081777997014  00974054644       FF20/702       ESTRADA DAVILA  JOSE00000000060000000000000000000000000000000000000000000000002020033120200303127420500700071CERT ESTUDIOS SJL MA  *
T081777997014  00929CERT ESTUDIO-COL              081777997014  000000000012000                                                                                                    *
T081777997014  00963CERT ESTUDIOS SJL             081777997014  000000000012000                                                                                                    *
T081777997014  00999CERT ESTUDIOS-CAR             081777997014  000000000006000                                                                                                    *
