H081777997014  001000007400000000424042600000000000020200107                                                                                                                       *
D081777997014  00170519300       2017/80014393  GARCIA RODRIGUEZ  WI00000000540000000000000000000000000000000000000000000003082019113020200107120100500700090PENSION NOV 2019 CAR  *
D081777997014  00170519300       2017/80014788  GARCIA RODRIGUEZ  WI00000000540000000000000000000000000000000000000000000001382019122120200107120100500700090PENSION DIC 2019 CAR  *
D081777997014  00173213899       2017/78242242  GOMEZ OCHANTE  ADRIA00000000640000000000000000000000000000000000000000000001632019122120200107120130500700103PENSION DIC 2019 COL  *
D081777997014  00180998915       2017/78239255  IBARRA APONTE  LIAM 00000000560000000000000000000000000000000000000000000008322019093020200107120130500700114PENSION SEP 2019 COL  *
D081777997014  00180998915       2017/78239900  IBARRA APONTE  LIAM 00000000560000000000000000000000000000000000000000000005712019103120200107120130500700114PENSION OCT 2019 COL  *
D081777997014  00177982612       2017/78242848  CALDERON CALDERON  M00000000560000000000000000000000000000000000000000000001432019122120200107120130500700133PENSION DIC 2019 COL  *
D081777997014  00172223388       2017/78241824  SALAZAR ARANIBAR  DA00000000640000000000000000000000000000000000000000000001632019122120200107120400500700071PENSION DIC 2019 COL  *
D081777997014  00181551464       2017/158624    VILCA PORTILLA  SOL 00000000560000000000000000000000000000000000000000000003192019113020200107120580500700048PENSION NOV 2019 SJL  *
D081777997014  00181551464       2017/159589    VILCA PORTILLA  SOL 00000000560000000000000000000000000000000000000000000001432019122120200107120580500700049PENSION DIC 2019 SJL  *
D081777997014  00173564106       2017/156883    TOLENTINO FAJARDO  F00000000495000000000000000000000000000000000000000000007352019093020200107121440500700001PENSION SEP 2019 SJL  *
D081777997014  00173564106       2017/157888    TOLENTINO FAJARDO  F00000000495000000000000000000000000000000000000000000005052019103120200107121440500700001PENSION OCT 2019 SJL  *
D081777997014  00173564106       2017/159070    TOLENTINO FAJARDO  F00000000495000000000000000000000000000000000000000000002822019113020200107121440500700001PENSION NOV 2019 SJL  *
D081777997014  00173564106       2017/159932    TOLENTINO FAJARDO  F00000000495000000000000000000000000000000000000000000001262019122120200107121440500700001PENSION DIC 2019 SJL  *
D081777997014  00177545603       2017/155384    TOLENTINO FAJARDO  A00000000550000000000000000000000000000000000000000000013202019073120200107121440500700002PENSION JUL 2019 SJL  *
D081777997014  00177545603       2017/155700    TOLENTINO FAJARDO  A00000000550000000000000000000000000000000000000000000010642019083120200107121440500700004PENSION AGO 2019 SJL  *
D081777997014  00177545603       2017/156733    TOLENTINO FAJARDO  A00000000550000000000000000000000000000000000000000000008172019093020200107121440500700004PENSION SEP 2019 SJL  *
D081777997014  00177545603       2017/157760    TOLENTINO FAJARDO  A00000000550000000000000000000000000000000000000000000005612019103120200107121440500700004PENSION OCT 2019 SJL  *
D081777997014  00177545603       2017/158975    TOLENTINO FAJARDO  A00000000550000000000000000000000000000000000000000000003142019113020200107121440500700004PENSION NOV 2019 SJL  *
D081777997014  00177545603       2017/159785    TOLENTINO FAJARDO  A00000000550000000000000000000000000000000000000000000001402019122120200107121440500700004PENSION DIC 2019 SJL  *
D081777997014  00179126904       2017/78239269  PORTILLA MILLARES  A00000000560000000000000000000000000000000000000000000008322019093020200107121770500700041PENSION SEP 2019 COL  *
D081777997014  00179126904       2017/78239914  PORTILLA MILLARES  A00000000560000000000000000000000000000000000000000000005712019103120200107121770500700041PENSION OCT 2019 COL  *
D081777997014  00179126904       2017/78241699  PORTILLA MILLARES  A00000000560000000000000000000000000000000000000000000003192019113020200107121770500700041PENSION NOV 2019 COL  *
D081777997014  00179126904       2017/78242914  PORTILLA MILLARES  A00000000560000000000000000000000000000000000000000000001432019122120200107121770500700041PENSION DIC 2019 COL  *
D081777997014  00177408063       2017/78239666  TISOC CABANILLAS  SA00000000560000000000000000000000000000000000000000000005712019103120200107122100500700007PENSION OCT 2019 COL  *
D081777997014  00177408063       2017/78241451  TISOC CABANILLAS  SA00000000560000000000000000000000000000000000000000000003192019113020200107122100500700007PENSION NOV 2019 COL  *
D081777997014  00177408063       2017/78242671  TISOC CABANILLAS  SA00000000560000000000000000000000000000000000000000000001432019122120200107122100500700007PENSION DIC 2019 COL  *
D081777997014  00174064792       2017/78242073  PADILLA MORON  PATRI00000000640000000000000000000000000000000000000000000001632019122120200107122160500700066PENSION DIC 2019 COL  *
D081777997014  00179233850       2017/78237017  OBESO MENDIZABAL  JA00000000560000000000000000000000000000000000000000000010842019083120200107122160500700145PENSION AGO 2019 COL  *
D081777997014  00179233850       2017/78238223  OBESO MENDIZABAL  JA00000000560000000000000000000000000000000000000000000008322019093020200107122160500700145PENSION SEP 2019 COL  *
D081777997014  00179233850       2017/78240015  OBESO MENDIZABAL  JA00000000560000000000000000000000000000000000000000000005712019103120200107122160500700145PENSION OCT 2019 COL  *
D081777997014  00179233850       2017/78240587  OBESO MENDIZABAL  JA00000000560000000000000000000000000000000000000000000003192019113020200107122160500700145PENSION NOV 2019 COL  *
D081777997014  00179233850       2017/78241935  OBESO MENDIZABAL  JA00000000560000000000000000000000000000000000000000000001432019122120200107122160500700145PENSION DIC 2019 COL  *
D081777997014  00171737362       2017/78242019  CHAVEZ DEZA  NICOLE 00000000640000000000000000000000000000000000000000000001632019122120200107122160500700164PENSION DIC 2019 COL  *
D081777997014  00160890657       2017/78240929  CAMPOS TOVAR  ARIANA00000000576000000000000000000000000000000000000000000003282019113020200107122390500700007PENSION NOV 2019 COL  *
D081777997014  00173558056       2017/78241541  CAMPOS TOVAR  BIANCA00000000640000000000000000000000000000000000000000000003652019113020200107122390500700008PENSION NOV 2019 COL  *
D081777997014  00181657822       2017/78235433  ARROYO ROJAS  AITHAN00000000560000000000000000000000000000000000000000000016042019063020200107122540500700009PENSION JUN 2019 COL  *
D081777997014  00181657822       2017/78235755  ARROYO ROJAS  AITHAN00000000560000000000000000000000000000000000000000000013442019073120200107122540500700009PENSION JUL 2019 COL  *
D081777997014  00181657822       2017/78237037  ARROYO ROJAS  AITHAN00000000560000000000000000000000000000000000000000000010842019083120200107122540500700009PENSION AGO 2019 COL  *
D081777997014  00181657822       2017/78238243  ARROYO ROJAS  AITHAN00000000560000000000000000000000000000000000000000000008322019093020200107122540500700009PENSION SEP 2019 COL  *
D081777997014  00181657822       2017/78240053  ARROYO ROJAS  AITHAN00000000560000000000000000000000000000000000000000000005712019103120200107122540500700009PENSION OCT 2019 COL  *
D081777997014  00181657822       2017/78240607  ARROYO ROJAS  AITHAN00000000560000000000000000000000000000000000000000000003192019113020200107122540500700009PENSION NOV 2019 COL  *
D081777997014  00181657822       2017/78241955  ARROYO ROJAS  AITHAN00000000560000000000000000000000000000000000000000000001432019122120200107122540500700009PENSION DIC 2019 COL  *
D081777997014  00170720798       2017/78242400  ALCARRAZ MUNAYCO  MA00000000640000000000000000000000000000000000000000000001632019122120200107122540500700035PENSION DIC 2019 COL  *
D081777997014  00176109797       2017/78242497  OBREGON CONDORI  DAN00000000576000000000000000000000000000000000000000000001472019122120200107122540500700036PENSION DIC 2019 COL  *
D081777997014  00179529648       2017/78241965  OBREGON CONDORI  JOS00000000560000000000000000000000000000000000000000000001432019122120200107122540500700037PENSION DIC 2019 COL  *
D081777997014  00179195602       2017/78238193  LOPEZ MECHAN  VALENT00000000560000000000000000000000000000000000000000000008322019093020200107122540500700055PENSION SEP 2019 COL  *
D081777997014  00179195602       2017/78240228  LOPEZ MECHAN  VALENT00000000560000000000000000000000000000000000000000000005712019103120200107122540500700055PENSION OCT 2019 COL  *
D081777997014  00179195602       2017/78240557  LOPEZ MECHAN  VALENT00000000560000000000000000000000000000000000000000000003192019113020200107122540500700055PENSION NOV 2019 COL  *
D081777997014  00179195602       2017/78241905  LOPEZ MECHAN  VALENT00000000560000000000000000000000000000000000000000000001432019122120200107122540500700055PENSION DIC 2019 COL  *
D081777997014  00161809042       2017/78241532  SAROLI QUISPE  LUCIE00000000640000000000000000000000000000000000000000000003652019113020200107122540500700072PENSION NOV 2019 COL  *
D081777997014  00161809042       2017/78242747  SAROLI QUISPE  LUCIE00000000640000000000000000000000000000000000000000000001632019122120200107122540500700072PENSION DIC 2019 COL  *
D081777997014  00171357550       2017/78242409  INGA TICONA  DIEGO A00000000576000000000000000000000000000000000000000000001472019122120200107122540500700087PENSION DIC 2019 COL  *
D081777997014  00179158320       2017/78241979  INGA TICONA  STEVEN 00000000560000000000000000000000000000000000000000000001432019122120200107122540500700088PENSION DIC 2019 COL  *
D081777997014  00173373158       2017/78238629  DOMINGUEZ FLORES  AR00000000640000000000000000000000000000000000000000000009502019093020200107123720500700067PENSION SEP 2019 COL  *
D081777997014  00173373158       2017/78240509  DOMINGUEZ FLORES  AR00000000640000000000000000000000000000000000000000000006532019103120200107123720500700067PENSION OCT 2019 COL  *
D081777997014  00173373158       2017/78241079  DOMINGUEZ FLORES  AR00000000640000000000000000000000000000000000000000000003652019113020200107123720500700067PENSION NOV 2019 COL  *
D081777997014  00173373158       2017/78242294  DOMINGUEZ FLORES  AR00000000640000000000000000000000000000000000000000000001632019122120200107123720500700073PENSION DIC 2019 COL  *
D081777997014  00161883862       2017/156734    NISHIKY PEREZ  KAZUK00000000550000000000000000000000000000000000000000000008172019093020200107226910500700013PENSION SEP 2019 SJL  *
D081777997014  00161883862       2017/157761    NISHIKY PEREZ  KAZUK00000000550000000000000000000000000000000000000000000005612019103120200107226910500700013PENSION OCT 2019 SJL  *
D081777997014  00161883862       2017/158976    NISHIKY PEREZ  KAZUK00000000550000000000000000000000000000000000000000000003142019113020200107226910500700013PENSION NOV 2019 SJL  *
D081777997014  00176313661       2017/159420    KOJIRA LOJA  MIGUEL 00000000540000000000000000000000000000000000000000000003082019113020200107126910500700062PENSION NOV 2019 SJL  *
D081777997014  00176313661       2017/160282    KOJIRA LOJA  MIGUEL 00000000540000000000000000000000000000000000000000000001382019122120200107126910500700062PENSION DIC 2019 SJL  *
D081777997014  00175634205       2017/160869    ANDRADE HUACHO  LUCI00000000550000000000000000000000000000000000000000000001402019122120200107126910500700095PENSION DIC 2019 SJL  *
D081777997014  00176892540       2017/150779    SOLIS CRUZ  NICOLAS 00000000550000000000000000000000000000000000000000000023272019033120200107127490500700078PENSION MAR 2019 SJL  *
D081777997014  00176892540       2017/151801    SOLIS CRUZ  NICOLAS 00000000550000000000000000000000000000000000000000000020792019043020200107127490500700078PENSION ABR 2019 SJL  *
D081777997014  00176892540       2017/152823    SOLIS CRUZ  NICOLAS 00000000550000000000000000000000000000000000000000000018232019053120200107127490500700078PENSION MAY 2019 SJL  *
D081777997014  00176892540       2017/153864    SOLIS CRUZ  NICOLAS 00000000550000000000000000000000000000000000000000000015762019063020200107127490500700078PENSION JUN 2019 SJL  *
D081777997014  00176892540       2017/154521    SOLIS CRUZ  NICOLAS 00000000550000000000000000000000000000000000000000000013202019073120200107127490500700078PENSION JUL 2019 SJL  *
D081777997014  00176892540       2017/155900    SOLIS CRUZ  NICOLAS 00000000550000000000000000000000000000000000000000000010642019083120200107127490500700078PENSION AGO 2019 SJL  *
D081777997014  00176892540       2017/156840    SOLIS CRUZ  NICOLAS 00000000550000000000000000000000000000000000000000000008172019093020200107127490500700078PENSION SEP 2019 SJL  *
D081777997014  00176892540       2017/157933    SOLIS CRUZ  NICOLAS 00000000550000000000000000000000000000000000000000000005612019103120200107127490500700078PENSION OCT 2019 SJL  *
D081777997014  00176892540       2017/159115    SOLIS CRUZ  NICOLAS 00000000550000000000000000000000000000000000000000000003142019113020200107127490500700078PENSION NOV 2019 SJL  *
D081777997014  00176892540       2017/159977    SOLIS CRUZ  NICOLAS 00000000550000000000000000000000000000000000000000000001402019122120200107127490500700078PENSION DIC 2019 SJL  *
D081777997014  00171732622       2017/78240046  CORTEZ ESCARATE  MAR00000000640000000000000000000000000000000000000000000006532019103120200107227844651005206PENSION OCT 2019 COL  *
T081777997014  00101PENSION                       081777997014  000000002593355                                                                                                    *
T081777997014  00102PENSION SAN JUAN              081777997014  000000001538625                                                                                                    *
T081777997014  00103PENSION                       081777997014  000000000108446                                                                                                    *
H081777997014  003000006800000000362990000000000000020200107                                                                                                                       *
D081777997014  00370716613       2017/161555    ROJAS SUAREZ  ANGIE 00000000513000000000000000000000000000000000000000000000002020013120200107120110500700003INSCRIPCION SJL       *
D081777997014  00378349422       2017/78244101  CAUTE PEREZ  MISKY H00000000580000000000000000000000000000000000000000000000002019122120200107120110500700105MATRICULA COL         *
D081777997014  00378349422       2017/78244102  CAUTE PEREZ  MISKY H00000000350000000000000000000000000000000000000000000000002019122120200107120110500700105INSCRIPCION COL       *
D081777997014  00360444113       2017/78244195  CHAUCA TICONA  DANIE00000000603000000000000000000000000000000000000000000000002020013120200107220140500700026MATRICULA COL         *
D081777997014  00361825931       2017/78244196  CHAUCA TICONA  STHEF00000000603000000000000000000000000000000000000000000000002020013120200107220140500700028MATRICULA COL         *
D081777997014  00361264613       2017/78244216  CARRASCO ESCOBAR  AN00000000603000000000000000000000000000000000000000000000002020013120200107120140500700108MATRICULA COL         *
D081777997014  00373239442       2017/78244244  DAVILA GUILLEN  FABR00000000603000000000000000000000000000000000000000000000002020013120200107120190500700109MATRICULA COL         *
D081777997014  00377981769       2017/78244217  GOMEZ CAMPOS  ISAAC 00000000522000000000000000000000000000000000000000000000002020013120200107120190500700178MATRICULA COL         *
D081777997014  00361862735       2017/161571    ORTEGA GOMERO  MATIA00000000513000000000000000000000000000000000000000000000002020013120200107120580500700035INSCRIPCION SJL       *
D081777997014  00373182703       2017/161601    GIRALDO LUJAN  RODRI00000000570000000000000000000000000000000000000000000000002020013120200107120580500700072MATRICULA SJL         *
D081777997014  00373182703       2017/161602    GIRALDO LUJAN  RODRI00000000350000000000000000000000000000000000000000000000002020013120200107120580500700073INSCRIPCION SJL       *
D081777997014  00372179086       2017/78244205  LLERENA CANALES  ADR00000000603000000000000000000000000000000000000000000000002020013120200107120700500700069MATRICULA COL         *
D081777997014  00373030340       2017/78244247  RAZZETO DAVILA  ANGE00000000603000000000000000000000000000000000000000000000002020013120200107220700500700136MATRICULA COL         *
D081777997014  00375243326       2017/78244228  CHAVEZ RUIZ  LUIS AD00000000603000000000000000000000000000000000000000000000002020013120200107120700500700186MATRICULA COL         *
D081777997014  00379279294       2017/78244232  SERNA BRAVO  DASHA S00000000513000000000000000000000000000000000000000000000002020013120200107121350500700087MATRICULA COL         *
D081777997014  00361755101       2017/161620    BACA ALVAREZ  LIA MA00000000513000000000000000000000000000000000000000000000002020013120200107121930500700044INSCRIPCION SJL       *
D081777997014  00377882445       2017/78244202  ALVARADO GAMARRA  NI00000000522000000000000000000000000000000000000000000000002020013120200107122160500700217MATRICULA COL         *
D081777997014  00370641136       2017/78244239  AYMAR AGUADO  STEFAN00000000603000000000000000000000000000000000000000000000002020013120200107122160500700226MATRICULA COL         *
D081777997014  00372204598       2017/78244238  AYMAR AGUADO  VALENT00000000603000000000000000000000000000000000000000000000002020013120200107122160500700228MATRICULA COL         *
D081777997014  00373847900       2017/78244207  MONTERO GONZALES  AB00000000603000000000000000000000000000000000000000000000002020013120200107122240500700072MATRICULA COL         *
D081777997014  00377655119       2017/78244206  FERNANDEZ VARGAS  SA00000000522000000000000000000000000000000000000000000000002020013120200107122310500700106MATRICULA COL         *
D081777997014  00362377323       2017/161621    SANCHEZ CONTRERAS  I00000000513000000000000000000000000000000000000000000000002020013120200107122470500700091INSCRIPCION SJL       *
D081777997014  00361330105       2017/161594    HUARACHA ORTEGA  FAB00000000513000000000000000000000000000000000000000000000002020013120200107122470500700115INSCRIPCION SJL       *
D081777997014  00361424680       2017/78244143  PICHI ROJAS  NICOLAS00000000603000000000000000000000000000000000000000000000002020013120200107122540500700015MATRICULA COL         *
D081777997014  00374330377       2017/78244187  ALVINO VILCHEZ  CAMI00000000603000000000000000000000000000000000000000000000002020013120200107122540500700019MATRICULA COL         *
D081777997014  00377277367       2017/78244212  ALTEZ ROMANI  RENZO 00000000603000000000000000000000000000000000000000000000002020013120200107122540500700058MATRICULA COL         *
D081777997014  00378188938       2017/78244180  BALTAZAR CHAUCA  KAR00000000580000000000000000000000000000000000000000000000002020013120200107122540500700069MATRICULA COL         *
D081777997014  00378188938       2017/78244181  BALTAZAR CHAUCA  KAR00000000350000000000000000000000000000000000000000000000002020013120200107122540500700069INSCRIPCION COL       *
D081777997014  00361961474       2017/78244227  CALIZAYA RAMIREZ  AN00000000603000000000000000000000000000000000000000000000002020013120200107122540500700104MATRICULA COL         *
D081777997014  00379474954       2017/78244240  LOAIZA BARZOLA  MICA00000000513000000000000000000000000000000000000000000000002020013120200107122540500700115MATRICULA COL         *
D081777997014  00370597584       2017/78244250  SUNCION PRADO  EMILY00000000603000000000000000000000000000000000000000000000002020013120200107122540500700117MATRICULA COL         *
D081777997014  00373409198       2017/78244251  SUNCION PRADO  MATHI00000000603000000000000000000000000000000000000000000000002020013120200107122540500700118MATRICULA COL         *
D081777997014  00379588413       2017/78244203  MORAN SOSA  BRUNELLA00000000513000000000000000000000000000000000000000000000002020013120200107122540500700119MATRICULA COL         *
D081777997014  00377409110       2017/78244204  MORAN SOSA  RAFAELLA00000000603000000000000000000000000000000000000000000000002020013120200107122540500700120MATRICULA COL         *
D081777997014  00373910503       2017/78244249  FAUSTOR QUEVEDO  MAR00000000603000000000000000000000000000000000000000000000002020013120200107122640500700116MATRICULA COL         *
D081777997014  00378636388       2017/78244248  FAUSTOR QUEVEDO  MAR00000000513000000000000000000000000000000000000000000000002020013120200107122640500700117MATRICULA COL         *
D081777997014  00381657822       2017/78244241  ARROYO ROJAS  AITHAN00000000513000000000000000000000000000000000000000000000002020013120200107122640500700133MATRICULA COL         *
D081777997014  00377249539       2017/161543    ROJAS VIVAS  EMMY VA00000000513000000000000000000000000000000000000000000000002020013120200107122660500700058INSCRIPCION SJL       *
D081777997014  00378721702       2017/78244245  CUTIPA MIRANDA  RICA00000000513000000000000000000000000000000000000000000000002020013120200107124280500700086MATRICULA COL         *
D081777997014  00370864394       2017/78244254  SALAS BERROSPI  IAN 00000000603000000000000000000000000000000000000000000000002020013120200107126610500700117MATRICULA COL         *
D081777997014  00378273074       2017/161570    MUEDAS DUENAS  ABIGA00000000513000000000000000000000000000000000000000000000002020013120200107126790500700024INSCRIPCION SJL       *
D081777997014  00372001710       2017/161617    CHIRINOS CHAVEZ  SEB00000000513000000000000000000000000000000000000000000000002020013120200107126910500700041INSCRIPCION SJL       *
D081777997014  00374684123       2017/161563    MAMANI PENA  DANNA L00000000513000000000000000000000000000000000000000000000002020013120200107126910500700063INSCRIPCION SJL       *
D081777997014  00372896320       2017/161582    TEODOR TASARA  YADHI00000000513000000000000000000000000000000000000000000000002020013120200107126910500700073INSCRIPCION SJL       *
D081777997014  00361912561       2017/161581    TEODOR TASARA  GAEL 00000000513000000000000000000000000000000000000000000000002020013120200107126910500700074INSCRIPCION SJL       *
D081777997014  00362644469       2017/161577    RODRIGUEZ SANCHEZ  R00000000513000000000000000000000000000000000000000000000002020013120200107126910500700077INSCRIPCION SJL       *
D081777997014  00361035491       2017/161593    JIMENEZ TORRES  JARE00000000513000000000000000000000000000000000000000000000002020013120200107126910500700086INSCRIPCION SJL       *
D081777997014  00374071708       2017/161603    SALAS RODRIGUEZ  ANN00000000513000000000000000000000000000000000000000000000002020013120200107126910500700107INSCRIPCION SJL       *
D081777997014  00360979943       2017/161568    PALLIN GUTIERREZ  SI00000000513000000000000000000000000000000000000000000000002020013120200107126910500700114INSCRIPCION SJL       *
D081777997014  00379917327       2017/80016158  OCAS AGUILAR  ANGELA00000000350000000000000000000000000000000000000000000000002020010420200107127020500700109INSCRIPCION CAR       *
D081777997014  00379917327       2017/80016159  OCAS AGUILAR  ANGELA00000000570000000000000000000000000000000000000000000000002020010420200107127020500700109MATRICULA CAR         *
D081777997014  00372976757       2017/161604    FELIX RODRIGUEZ  KAR00000000513000000000000000000000000000000000000000000000002020013120200107127420500700018INSCRIPCION SJL       *
D081777997014  00378674265       2017/161605    MAMANI TICONA  ANDRE00000000513000000000000000000000000000000000000000000000002020013120200107127420500700056INSCRIPCION SJL       *
D081777997014  00376024526       2017/161622    ABAD PINAN  MIA YOSS00000000513000000000000000000000000000000000000000000000002020013120200107127420500700064INSCRIPCION SJL       *
D081777997014  00375635175       2017/161583    HUAMAN PAJAR  YAMILA00000000513000000000000000000000000000000000000000000000002020013120200107127420500700067INSCRIPCION SJL       *
D081777997014  00377847735       2017/161623    NAPAN PAUCAR  VALENT00000000513000000000000000000000000000000000000000000000002020013120200107127420500700093INSCRIPCION SJL       *
D081777997014  00378618154       2017/161627    CHAVEZ HUAMAN  VALEN00000000513000000000000000000000000000000000000000000000002020013120200107127420500700100INSCRIPCION SJL       *
D081777997014  00370702043       2017/78244154  BONATTO CHAVEZ  YELI00000000670000000000000000000000000000000000000000000000002020013120200107227844651001142MATRICULA COL         *
D081777997014  00370702043       2017/78244155  BONATTO CHAVEZ  YELI00000000350000000000000000000000000000000000000000000000002020013120200107227844651001143INSCRIPCION COL       *
D081777997014  00377744287       2017/78244220  CASTILLO MUNOZ  ATIK00000000522000000000000000000000000000000000000000000000002020013120200107227844651005394MATRICULA COL         *
D081777997014  00371686007       2017/78244199  CIPRIAN FLORES  ENGI00000000603000000000000000000000000000000000000000000000002020013120200107227844651006286MATRICULA COL         *
D081777997014  00361840819       2017/161579    ALTAMIRANO APAZA  LE00000000513000000000000000000000000000000000000000000000002020013120200107227844651008219INSCRIPCION SJL       *
D081777997014  00379620553       2017/161590    ALTAMIRANO APAZA  AL00000000570000000000000000000000000000000000000000000000002020013120200107227844651008783MATRICULA SJL         *
D081777997014  00379620553       2017/161613    ALTAMIRANO APAZA  AL00000000175000000000000000000000000000000000000000000000002020013120200107227844651008784INSCRIPCION SJL       *
D081777997014  00361402519       2017/78244215  BULLON GUTIERREZ  JO00000000603000000000000000000000000000000000000000000000002020013120200107227844651009742MATRICULA COL         *
D081777997014  00362663702       2017/161634    MIRANDA FARIAS  FABI00000000513000000000000000000000000000000000000000000000002020013120200107227844651010113INSCRIPCION SJL       *
D081777997014  00371179784       2017/78244211  PERALTA ROJAS  ARIAN00000000603000000000000000000000000000000000000000000000002020013120200107227844651013939MATRICULA COL         *
D081777997014  00370643340       2017/78244119  ROMERO SULCA  CAMILA00000000603000000000000000000000000000000000000000000000002020013120200107128390500700024MATRICULA COL         *
T081777997014  00304MATRICULA                     081777997014  000000002086500                                                                                                    *
T081777997014  00305DERECHO DE INGRESO LIM 2018   081777997014  000000000105000                                                                                                    *
T081777997014  00306MATRICULA SJL - PREMATRICULA  081777997014  000000001293900                                                                                                    *
T081777997014  00307DERECHO DE INGRESO SJL 2019   081777997014  000000000052500                                                                                                    *
T081777997014  00308MATRICULA CAR 2019            081777997014  000000000057000                                                                                                    *
T081777997014  00309DERECHO DE INGRESO 2020 CARABA081777997014  000000000035000                                                                                                    *
H081777997014  009000000400000000002400000000000000020200107                                                                                                                       *
D081777997014  00976691223       FF20/21        BALDEON FLORES  MICH00000000060000000000000000000000000000000000000000000000002020013120200107122030500700068CERT ESTUDIO COL ENE  *
D081777997014  00976979609       FF20/63        LOPEZ JAUREGUI  ROBE00000000060000000000000000000000000000000000000000000000002020013120200107122250500700119CERT ESTUDIOS SJL EN  *
D081777997014  00974183026       FF20/61        FLORES CUETO  LUCIAN00000000060000000000000000000000000000000000000000000000002020013120200107122470500700113CERT ESTUDIOS SJL EN  *
D081777997014  00971282292       FF19/2366      GUTIERREZ FLOREZ  GI00000000060000000000000000000000000000000000000000000000002019122120200107122660500700103CERT ESTUDIOS SJL DI  *
T081777997014  00929CERT ESTUDIO-COL              081777997014  000000000006000                                                                                                    *
T081777997014  00954CERT ESTUDIOS SJL             081777997014  000000000006000                                                                                                    *
T081777997014  00963CERT ESTUDIOS SJL             081777997014  000000000012000                                                                                                    *
H081777997014  012000000100000000000300000000000000020200107                                                                                                                       *
D081777997014  01260575096       FF20/62        BUSTILLOS QUISPE  AL00000000030000000000000000000000000000000000000000000000002020013120200107120600500700094PRA ACAD COLONIAL EN  *
T081777997014  01230PRA ACAD COLONIAL             081777997014  000000000003000                                                                                                    *
