H081777997014  001000002600000000131114800000000000020200207                                                                                                                       *
D081777997014  00171962903       2017/79995398  LA ROSA CAMPOS  CHRI00000000470000000000000000000000000000000000000000000000002020063020200207120210500700119PENSION JUN 2017 CAR  *
D081777997014  00171962903       2017/79995399  LA ROSA CAMPOS  CHRI00000000470000000000000000000000000000000000000000000000002020073120200207120210500700119PENSION JUL 2017 CAR  *
D081777997014  00171962903       2017/79995400  LA ROSA CAMPOS  CHRI00000000470000000000000000000000000000000000000000000000002020083120200207120210500700119PENSION AGO 2017 CAR  *
D081777997014  00171962903       2017/79995401  LA ROSA CAMPOS  CHRI00000000470000000000000000000000000000000000000000000000002020093020200207120210500700119PENSION SEP 2017 CAR  *
D081777997014  00171962903       2017/79995402  LA ROSA CAMPOS  CHRI00000000470000000000000000000000000000000000000000000000002020103120200207120210500700119PENSION OCT 2017 CAR  *
D081777997014  00171962903       2017/79995403  LA ROSA CAMPOS  CHRI00000000470000000000000000000000000000000000000000000000002020113020200207120210500700119PENSION NOV 2017 CAR  *
D081777997014  00171962903       2017/79995404  LA ROSA CAMPOS  CHRI00000000470000000000000000000000000000000000000000000000002020122120200207120210500700119PENSION DIC 2017 CAR  *
D081777997014  00162025300       2017/159943    QUEZADA PAREDES  CLA00000000385000000000000000000000000000000000000000000002772019122120200207121950500700119PENSION DIC 2019 SJL  *
D081777997014  00172077440       2017/160399    ANGOSTO MALPARTIDA  00000000540000000000000000000000000000000000000000000003892019122120200207122390500700022PENSION DIC 2019 SJL  *
D081777997014  00177244876       2017/78233878  ARANIBAR GUTIERREZ  00000000640000000000000000000000000000000000000000000024192019053120200207122540500700146PENSION MAY 2019 COL  *
D081777997014  00177244876       2017/78234632  ARANIBAR GUTIERREZ  00000000640000000000000000000000000000000000000000000021312019063020200207122540500700146PENSION JUN 2019 COL  *
D081777997014  00177244876       2017/78236201  ARANIBAR GUTIERREZ  00000000640000000000000000000000000000000000000000000018342019073120200207122540500700146PENSION JUL 2019 COL  *
D081777997014  00177244876       2017/78237476  ARANIBAR GUTIERREZ  00000000640000000000000000000000000000000000000000000015362019083120200207122540500700146PENSION AGO 2019 COL  *
D081777997014  00178677628       2017/80015308  ARELLANO JARA  SILVA00000000392000000000000000000000000000000000000000000005822019103120200207127020500700053PENSION OCT 2019 CAR  *
D081777997014  00178677628       2017/80015310  ARELLANO JARA  SILVA00000000392000000000000000000000000000000000000000000004062019113020200207127020500700053PENSION NOV 2019 CAR  *
D081777997014  00178677628       2017/80015311  ARELLANO JARA  SILVA00000000392000000000000000000000000000000000000000000002822019122120200207127020500700053PENSION DIC 2019 CAR  *
D081777997014  00160938307       2017/80015298  ARELLANO JARA  ALIZ 00000000378000000000000000000000000000000000000000000005612019103120200207127020500700055PENSION OCT 2019 CAR  *
D081777997014  00160938307       2017/80015299  ARELLANO JARA  ALIZ 00000000378000000000000000000000000000000000000000000003912019113020200207127020500700055PENSION NOV 2019 CAR  *
D081777997014  00160938307       2017/80015300  ARELLANO JARA  ALIZ 00000000378000000000000000000000000000000000000000000002722019122120200207127020500700055PENSION DIC 2019 CAR  *
D081777997014  00171162336       2017/154462    SOTO CCOICCA  MARIA 00000000550000000000000000000000000000000000000000000015762019073120200207227844651000483PENSION JUL 2019 SJL  *
D081777997014  00171162336       2017/155852    SOTO CCOICCA  MARIA 00000000550000000000000000000000000000000000000000000013202019083120200207227844651000484PENSION AGO 2019 SJL  *
D081777997014  00171162336       2017/156880    SOTO CCOICCA  MARIA 00000000550000000000000000000000000000000000000000000010732019093020200207227844651000485PENSION SEP 2019 SJL  *
D081777997014  00171162336       2017/157885    SOTO CCOICCA  MARIA 00000000550000000000000000000000000000000000000000000008172019103120200207227844651000486PENSION OCT 2019 SJL  *
D081777997014  00171355128       2017/157950    SANCHEZ CADILLO  ROD00000000550000000000000000000000000000000000000000000008172019103120200207227844651011600PENSION OCT 2019 SJL  *
D081777997014  00171355128       2017/159132    SANCHEZ CADILLO  ROD00000000550000000000000000000000000000000000000000000005692019113020200207227844651011601PENSION NOV 2019 SJL  *
D081777997014  00171355128       2017/159994    SANCHEZ CADILLO  ROD00000000550000000000000000000000000000000000000000000003962019122120200207227844651011602PENSION DIC 2019 SJL  *
T081777997014  00101PENSION                       081777997014  000000000263920                                                                                                    *
T081777997014  00102PENSION SAN JUAN              081777997014  000000000484734                                                                                                    *
T081777997014  00103PENSION                       081777997014  000000000562494                                                                                                    *
H081777997014  003000001700000000096600000000000000020200207                                                                                                                       *
D081777997014  00373403077       2017/78244598  RAFAEL ALVAREZ  GABR00000000670000000000000000000000000000000000000000000000002020022820200207120380500700023MATRICULA COL         *
D081777997014  00373403077       2017/78244599  RAFAEL ALVAREZ  GABR00000000350000000000000000000000000000000000000000000000002020022820200207120380500700023INSCRIPCION COL       *
D081777997014  00377520016       2017/80016317  AZNARAN KOU  ANTONIO00000000560000000000000000000000000000000000000000000000002020022820200207120550500700081INSCRIPCION CAR       *
D081777997014  00373610363       2017/161969    TUCTO ANICAMA  JHARE00000000570000000000000000000000000000000000000000000000002020022820200207121930500700037MATRICULA SJL         *
D081777997014  00361907673       2017/161970    TUCTO ANICAMA  JHOST00000000570000000000000000000000000000000000000000000000002020022820200207121930500700038MATRICULA SJL         *
D081777997014  00377674580       2017/161968    TUCTO ANICAMA  JHAIR00000000570000000000000000000000000000000000000000000000002020022820200207121930500700039MATRICULA SJL         *
D081777997014  00378228548       2017/162007    LEIVA CANDIA  RODRIG00000000570000000000000000000000000000000000000000000000002020022820200207122470500700130MATRICULA SJL         *
D081777997014  00372869314       2017/78244645  VALLE CAMPOS  ANDRE 00000000670000000000000000000000000000000000000000000000002020022820200207122540500700085MATRICULA COL         *
D081777997014  00379769483       2017/78244665  ROJAS JUAREZ  DARLEN00000000570000000000000000000000000000000000000000000000002020022820200207122540500700102MATRICULA COL         *
D081777997014  00379769483       2017/78244666  ROJAS JUAREZ  DARLEN00000000350000000000000000000000000000000000000000000000002020022820200207122540500700102INSCRIPCION COL       *
D081777997014  00377401205       2017/78244646  ALOR RUIZ  LUHANA FR00000000670000000000000000000000000000000000000000000000002020022820200207122540500700128MATRICULA COL         *
D081777997014  00377963570       2017/78244648  AVILA CHIROQUE  YEIR00000000580000000000000000000000000000000000000000000000002020022820200207123860500700061MATRICULA COL         *
D081777997014  00370717456       2017/78244647  AVILA CHIROQUE  VIAN00000000670000000000000000000000000000000000000000000000002020022820200207123860500700062MATRICULA COL         *
D081777997014  00376396289       2017/162004    BARRAZA PEREZ  CESAR00000000570000000000000000000000000000000000000000000000002020022820200207126910500700019MATRICULA SJL         *
D081777997014  00379533450       2017/161990    VILLAFANI NEYRA  STE00000000570000000000000000000000000000000000000000000000002020022820200207226910500700032MATRICULA SJL         *
D081777997014  00377738440       2017/78244673  HERENCIA CONTRERAS  00000000580000000000000000000000000000000000000000000000002020022820200207227844651008877MATRICULA COL         *
D081777997014  00378918894       2017/78244670  SAURI VILCHEZ  NAYLA00000000570000000000000000000000000000000000000000000000002020022820200207227844651010746MATRICULA COL         *
T081777997014  00304MATRICULA                     081777997014  000000000498000                                                                                                    *
T081777997014  00305DERECHO DE INGRESO COL        081777997014  000000000070000                                                                                                    *
T081777997014  00306MATRICULA SJL 2020            081777997014  000000000342000                                                                                                    *
T081777997014  00308MATRICULA 2020 CARABAYLLO     081777997014  000000000056000                                                                                                    *
H081777997014  006000000300000000000600000000000000020200207                                                                                                                       *
D081777997014  00662375839       FF20/437       CORDOVA OLAZA  ALESS00000000020000000000000000000000000000000000000000000000002020022820200207121350500700079CCIA ESTUDIOS SJL FE  *
D081777997014  00671701235       FF20/438       CORDOVA OLAZA  JAZMI00000000020000000000000000000000000000000000000000000000002020022820200207121350500700080CCIA ESTUDIOS SJL FE  *
D081777997014  00679461056       FF20/436       CORDOVA OLAZA  VALLO00000000020000000000000000000000000000000000000000000000002020022820200207121350500700081CCIA ESTUDIOS SJL FE  *
T081777997014  00660CCIA ESTUDIOS SJL             081777997014  000000000006000                                                                                                    *
H081777997014  009000000700000000004200000000000000020200207                                                                                                                       *
D081777997014  00971962903       FF20/372       LA ROSA CAMPOS  CHRI00000000060000000000000000000000000000000000000000000000002020022820200207120210500700119CERT ESTUDIOS CAR FE  *
D081777997014  00970737654       FF20/377       OCAMPO FABIAN  JEAN 00000000060000000000000000000000000000000000000000000000002020022820200207120580500700021CERT ESTUDIOS SJL FE  *
D081777997014  00961294582       FF20/433       SARMIENTO SOLIS  GEN00000000060000000000000000000000000000000000000000000000002020022820200207121490500700007CERT ESTUDIOS SJL FE  *
D081777997014  00977747726       FF20/389       REYES ALVARADO  DAYR00000000060000000000000000000000000000000000000000000000002020022820200207122540500700104CERT ESTUDIOS CAR FE  *
D081777997014  00972094301       FF20/432       GAMARRA MEDINA  PAOL00000000060000000000000000000000000000000000000000000000002020022820200207122540500700155CERT ESTUDIO COL FEB  *
D081777997014  00972305547       FF20/439       CHAVEZ ACUNA  MADELE00000000060000000000000000000000000000000000000000000000002020022820200207227844651009599CERT ESTUDIOS SJL FE  *
D081777997014  00974893883       FF20/440       LINO COTRINA  DANIEL00000000060000000000000000000000000000000000000000000000002020022820200207227844651010953CERT ESTUDIOS SJL FE  *
T081777997014  00929CERT ESTUDIO-COL              081777997014  000000000006000                                                                                                    *
T081777997014  00963CERT ESTUDIOS SJL             081777997014  000000000024000                                                                                                    *
T081777997014  00999CERT ESTUDIOS-CAR             081777997014  000000000012000                                                                                                    *
