H081777997014  001000002100000000120784000000000000020200125                                                                                                                       *
D081777997014  00171181520       2017/78236398  GARCIA TELLO  EDUARD00000000640000000000000000000000000000000000000000000017092019073120200125122160500700047PENSION JUL 2019 COL  *
D081777997014  00175150008       2017/78236074  GARCIA TELLO  LEONAR00000000576000000000000000000000000000000000000000000015382019073120200125122160500700048PENSION JUL 2019 COL  *
D081777997014  00160785336       2017/78231182  MORANTE ALTUNA  ALES00000000576000000000000000000000000000000000000000000025922019033120200125124050500700009PENSION MAR 2019 COL  *
D081777997014  00160785336       2017/78232518  MORANTE ALTUNA  ALES00000000576000000000000000000000000000000000000000000023332019043020200125124050500700009PENSION ABR 2019 COL  *
D081777997014  00160785336       2017/78233742  MORANTE ALTUNA  ALES00000000576000000000000000000000000000000000000000000020652019053120200125124050500700009PENSION MAY 2019 COL  *
D081777997014  00160785336       FF19/1697      MORANTE ALTUNA  ALES00000000640000000000000000000000000000000000000000000020062019063020200125124050500700009PENSION JUN 2019 COL  *
D081777997014  00160785336       FF19/1698      MORANTE ALTUNA  ALES00000000640000000000000000000000000000000000000000000017092019073120200125124050500700009PENSION JUL 2019 COL  *
D081777997014  00174840278       2017/158312    BLANCO VICTORIO  JOA00000000540000000000000000000000000000000000000000000006972019103120200125126350500700017PENSION OCT 2019 SJL  *
D081777997014  00174840278       2017/158472    BLANCO VICTORIO  JOA00000000540000000000000000000000000000000000000000000004542019113020200125126350500700017PENSION NOV 2019 SJL  *
D081777997014  00174840278       2017/160356    BLANCO VICTORIO  JOA00000000540000000000000000000000000000000000000000000002842019122120200125126350500700017PENSION DIC 2019 SJL  *
D081777997014  00161433190       2017/153777    ARONES TEJADA  KIARA00000000550000000000000000000000000000000000000000000017242019063020200125126590500700001PENSION JUN 2019 SJL  *
D081777997014  00161433190       2017/154442    ARONES TEJADA  KIARA00000000550000000000000000000000000000000000000000000014692019073120200125126590500700001PENSION JUL 2019 SJL  *
D081777997014  00161433190       2017/155832    ARONES TEJADA  KIARA00000000550000000000000000000000000000000000000000000012132019083120200125126590500700001PENSION AGO 2019 SJL  *
D081777997014  00161433190       2017/156860    ARONES TEJADA  KIARA00000000550000000000000000000000000000000000000000000009652019093020200125126590500700001PENSION SEP 2019 SJL  *
D081777997014  00161433190       2017/157865    ARONES TEJADA  KIARA00000000550000000000000000000000000000000000000000000007102019103120200125126590500700001PENSION OCT 2019 SJL  *
D081777997014  00161433190       2017/159047    ARONES TEJADA  KIARA00000000550000000000000000000000000000000000000000000004622019113020200125126590500700001PENSION NOV 2019 SJL  *
D081777997014  00161433190       2017/159900    ARONES TEJADA  KIARA00000000550000000000000000000000000000000000000000000002892019122120200125126590500700001PENSION DIC 2019 SJL  *
D081777997014  00172827893       2017/157946    RIEGA GERBACIO  GABR00000000550000000000000000000000000000000000000000000007102019103120200125126860500700001PENSION OCT 2019 SJL  *
D081777997014  00172827893       2017/159128    RIEGA GERBACIO  GABR00000000550000000000000000000000000000000000000000000004622019113020200125126860500700001PENSION NOV 2019 SJL  *
D081777997014  00172827893       2017/159990    RIEGA GERBACIO  GABR00000000550000000000000000000000000000000000000000000002892019122120200125126860500700001PENSION DIC 2019 SJL  *
D081777997014  00173551258       2017/159947    HERNANDEZ QUISPE  TA00000000495000000000000000000000000000000000000000000002602019122120200125126910500700013PENSION DIC 2019 SJL  *
T081777997014  00101PENSION                       081777997014  000000000436352                                                                                                    *
T081777997014  00102PENSION SAN JUAN              081777997014  000000000771488                                                                                                    *
H081777997014  003000000700000000041900000000000000020200125                                                                                                                       *
D081777997014  00375027704       2017/78244452  HUAPAYA OYARCE  RENZ00000000670000000000000000000000000000000000000000000000002020013120200125120140500700037MATRICULA COL         *
D081777997014  00372825667       2017/78244453  HUAPAYA OYARCE  RODR00000000670000000000000000000000000000000000000000000000002020013120200125120140500700038MATRICULA COL         *
D081777997014  00360853917       2017/161858    MALLMA VALENCIA  GRA00000000570000000000000000000000000000000000000000000000002020013120200125122470500700014MATRICULA SJL         *
D081777997014  00374787902       2017/161802    DIAZ AUCA  SEBASTIAN00000000570000000000000000000000000000000000000000000000002020013120200125122470500700040MATRICULA SJL         *
D081777997014  00377965898       2017/161839    HERNANDEZ QUISPE  AL00000000570000000000000000000000000000000000000000000000002020013120200125126910500700012MATRICULA SJL         *
D081777997014  00373371815       2017/161818    MARQUEZ PEREZ  ANGEL00000000570000000000000000000000000000000000000000000000002020013120200125226910500700023MATRICULA SJL         *
D081777997014  00374868057       2017/161834    HERMENEGILDO SANTA C00000000570000000000000000000000000000000000000000000000002020013120200125127420500700006MATRICULA SJL         *
T081777997014  00304MATRICULA                     081777997014  000000000134000                                                                                                    *
T081777997014  00306MATRICULA SJL 2020            081777997014  000000000285000                                                                                                    *
H081777997014  009000000100000000000600000000000000020200125                                                                                                                       *
D081777997014  00977586354       FF20/275       ANASTACIO YANEZ  MAR00000000060000000000000000000000000000000000000000000000002020013120200125121770500700001CERT ESTUDIO COL ENE  *
T081777997014  00929CERT ESTUDIO-COL              081777997014  000000000006000                                                                                                    *
H081777997014  010000000100000000000300000000000000020200125                                                                                                                       *
D081777997014  01077586354       FF20/274       ANASTACIO YANEZ  MAR00000000030000000000000000000000000000000000000000000000002020013120200125121770500700001CCIA NO ADEUDO COL E  *
T081777997014  01028CCIA NO ADEUDO COL            081777997014  000000000003000                                                                                                    *
