H081777997014  001000005100000000285865000000000000020200302                                                                                                                       *
D081777997014  00162604890       2017/155924    ANCCAS AYALA  RODRIG00000000550000000000000000000000000000000000000000000015182019083120200302120100500700055PENSION AGO 2019 SJL  *
D081777997014  00162604890       2017/156946    ANCCAS AYALA  RODRIG00000000550000000000000000000000000000000000000000000012712019093020200302120100500700055PENSION SEP 2019 SJL  *
D081777997014  00162604890       2017/157968    ANCCAS AYALA  RODRIG00000000550000000000000000000000000000000000000000000010152019103120200302120100500700055PENSION OCT 2019 SJL  *
D081777997014  00162604890       2017/159150    ANCCAS AYALA  RODRIG00000000550000000000000000000000000000000000000000000007672019113020200302120100500700055PENSION NOV 2019 SJL  *
D081777997014  00162604890       2017/160071    ANCCAS AYALA  RODRIG00000000550000000000000000000000000000000000000000000005942019122120200302120100500700055PENSION DIC 2019 SJL  *
D081777997014  00161139178       2017/80010614  LOPEZ JARA  NAJELY I00000000540000000000000000000000000000000000000000000027302019033120200302120190500700175PENSION MAR 2019 CAR  *
D081777997014  00161139178       2017/80011094  LOPEZ JARA  NAJELY I00000000540000000000000000000000000000000000000000000024872019043020200302120190500700176PENSION ABR 2019 CAR  *
D081777997014  00161139178       2017/80011657  LOPEZ JARA  NAJELY I00000000540000000000000000000000000000000000000000000022362019053120200302120190500700177PENSION MAY 2019 CAR  *
D081777997014  00161139178       2017/80011994  LOPEZ JARA  NAJELY I00000000540000000000000000000000000000000000000000000019932019063020200302120190500700178PENSION JUN 2019 CAR  *
D081777997014  00161139178       2017/80012613  LOPEZ JARA  NAJELY I00000000540000000000000000000000000000000000000000000017422019073120200302120190500700179PENSION JUL 2019 CAR  *
D081777997014  00161139178       2017/80012903  LOPEZ JARA  NAJELY I00000000540000000000000000000000000000000000000000000014902019083120200302120190500700180PENSION AGO 2019 CAR  *
D081777997014  00161139178       2017/80013547  LOPEZ JARA  NAJELY I00000000540000000000000000000000000000000000000000000012472019093020200302120190500700181PENSION SEP 2019 CAR  *
D081777997014  00174524503       2017/80015132  NIVIN BADA  SANTIAGO00000000550000000000000000000000000000000000000000000005942019122120200302120200500700084PENSION DIC 2019 CAR  *
D081777997014  00170997726       2017/80014992  BARROS BLAS  NICOLE 00000000540000000000000000000000000000000000000000000005832019122120200302120360500700048PENSION DIC 2019 CAR  *
D081777997014  00177983634       2017/150816    VEGA TELLEZ  STEPHAN00000000550000000000000000000000000000000000000000000027802019033120200302121350500700024PENSION MAR 2019 SJL  *
D081777997014  00177983634       2017/151838    VEGA TELLEZ  STEPHAN00000000550000000000000000000000000000000000000000000025332019043020200302121350500700024PENSION ABR 2019 SJL  *
D081777997014  00177983634       2017/152860    VEGA TELLEZ  STEPHAN00000000550000000000000000000000000000000000000000000022772019053120200302121350500700024PENSION MAY 2019 SJL  *
D081777997014  00177983634       2017/153901    VEGA TELLEZ  STEPHAN00000000550000000000000000000000000000000000000000000020302019063020200302121350500700024PENSION JUN 2019 SJL  *
D081777997014  00177983634       2017/154481    VEGA TELLEZ  STEPHAN00000000550000000000000000000000000000000000000000000017742019073120200302121350500700024PENSION JUL 2019 SJL  *
D081777997014  00177983634       2017/155926    VEGA TELLEZ  STEPHAN00000000550000000000000000000000000000000000000000000015182019083120200302121350500700024PENSION AGO 2019 SJL  *
D081777997014  00177983634       2017/156948    VEGA TELLEZ  STEPHAN00000000550000000000000000000000000000000000000000000012712019093020200302121350500700024PENSION SEP 2019 SJL  *
D081777997014  00177983634       2017/157970    VEGA TELLEZ  STEPHAN00000000550000000000000000000000000000000000000000000010152019103120200302121350500700024PENSION OCT 2019 SJL  *
D081777997014  00177983634       2017/159152    VEGA TELLEZ  STEPHAN00000000550000000000000000000000000000000000000000000007672019113020200302121350500700024PENSION NOV 2019 SJL  *
D081777997014  00177983634       2017/160073    VEGA TELLEZ  STEPHAN00000000550000000000000000000000000000000000000000000005942019122120200302121350500700036PENSION DIC 2019 SJL  *
D081777997014  00177111063       2017/157428    FIGUEROA QUINTANILLA00000000540000000000000000000000000000000000000000000012472019093020200302121490500700008PENSION SEP 2019 SJL  *
D081777997014  00177111063       2017/158425    FIGUEROA QUINTANILLA00000000540000000000000000000000000000000000000000000009962019103120200302121490500700008PENSION OCT 2019 SJL  *
D081777997014  00177111063       2017/158610    FIGUEROA QUINTANILLA00000000540000000000000000000000000000000000000000000007532019113020200302121490500700008PENSION NOV 2019 SJL  *
D081777997014  00177111063       2017/160494    FIGUEROA QUINTANILLA00000000540000000000000000000000000000000000000000000005832019122120200302121490500700008PENSION DIC 2019 SJL  *
D081777997014  00173741440       2017/78224962  VILLA MANCHAY  JOSE 00000000520000000000000000000000000000000000000000000035722018113020200302121930500700043PENSION NOV 2018 COL  *
D081777997014  00175150008       2017/78240833  GARCIA TELLO  LEONAR00000000576000000000000000000000000000000000000000000008042019113020200302122160500700068PENSION NOV 2019 COL  *
D081777997014  00175150008       2017/78242003  GARCIA TELLO  LEONAR00000000576000000000000000000000000000000000000000000006222019122120200302122160500700068PENSION DIC 2019 COL  *
D081777997014  00171181520       2017/78241256  GARCIA TELLO  EDUARD00000000640000000000000000000000000000000000000000000008932019113020200302122160500700069PENSION NOV 2019 COL  *
D081777997014  00171181520       2017/78242468  GARCIA TELLO  EDUARD00000000640000000000000000000000000000000000000000000006912019122120200302122160500700069PENSION DIC 2019 COL  *
D081777997014  00174016614       2017/160097    DUENAS MERINO  DIEGO00000000550000000000000000000000000000000000000000000005942019122120200302122300500700071PENSION DIC 2019 SJL  *
D081777997014  00161844750       2017/160661    DULCE OSTOS  LUHANNA00000000137500000000000000000000000000000000000000000006952019033120200302122470500700084PENSION MAR 2019 SJL  *
D081777997014  00161844750       2017/160606    DULCE OSTOS  LUHANNA00000000495000000000000000000000000000000000000000000022792019043020200302122470500700084PENSION ABR 2019 SJL  *
D081777997014  00161844750       2017/160607    DULCE OSTOS  LUHANNA00000000495000000000000000000000000000000000000000000020492019053120200302122470500700084PENSION MAY 2019 SJL  *
D081777997014  00161844750       2017/160608    DULCE OSTOS  LUHANNA00000000495000000000000000000000000000000000000000000018272019063020200302122470500700084PENSION JUN 2019 SJL  *
D081777997014  00174129862       2017/78236055  CAMPODONICO ALCALDE 00000000640000000000000000000000000000000000000000000020642019073120200302122540500700051PENSION JUL 2019 COL  *
D081777997014  00174129862       2017/78237353  CAMPODONICO ALCALDE 00000000640000000000000000000000000000000000000000000017662019083120200302122540500700051PENSION AGO 2019 COL  *
D081777997014  00174129862       2017/78238518  CAMPODONICO ALCALDE 00000000640000000000000000000000000000000000000000000014782019093020200302122540500700051PENSION SEP 2019 COL  *
D081777997014  00174129862       2017/78240418  CAMPODONICO ALCALDE 00000000640000000000000000000000000000000000000000000011812019103120200302122540500700051PENSION OCT 2019 COL  *
D081777997014  00176888627       2017/78239699  MORA JAIMES  BRIHANN00000000560000000000000000000000000000000000000000000010332019103120200302122540500700106PENSION OCT 2019 COL  *
D081777997014  00176888627       2017/78241484  MORA JAIMES  BRIHANN00000000560000000000000000000000000000000000000000000007812019113020200302122540500700106PENSION NOV 2019 COL  *
D081777997014  00176888627       2017/78242699  MORA JAIMES  BRIHANN00000000560000000000000000000000000000000000000000000006052019122120200302122540500700106PENSION DIC 2019 COL  *
D081777997014  00170620083       2017/160714    ESTRADA LITANO  NAYD00000000540000000000000000000000000000000000000000000005832019122120200302126910500700011PENSION DIC 2019 SJL  *
D081777997014  00173272732       2017/78242186  NAIZA ALVILDO  FLAVI00000000640000000000000000000000000000000000000000000006912019122120200302227844651016043PENSION DIC 2019 COL  *
D081777997014  00174100898       2017/158682    PEREZ FUENTES  CESAR00000000495000000000000000000000000000000000000000000006912019113020200302227844651027684PENSION NOV 2019 SJL  *
D081777997014  00177882742       2017/159034    PEREZ FUENTES  LUCAS00000000550000000000000000000000000000000000000000000007672019113020200302227844651027686PENSION NOV 2019 SJL  *
D081777997014  00174100898       2017/159647    PEREZ FUENTES  CESAR00000000495000000000000000000000000000000000000000000005352019122120200302227844651027700PENSION DIC 2019 SJL  *
D081777997014  00177882742       2017/159887    PEREZ FUENTES  LUCAS00000000550000000000000000000000000000000000000000000005942019122120200302227844651027702PENSION DIC 2019 SJL  *
T081777997014  00101PENSION                       081777997014  000000000799381                                                                                                    *
T081777997014  00102PENSION SAN JUAN              081777997014  000000001557167                                                                                                    *
T081777997014  00103PENSION                       081777997014  000000000502102                                                                                                    *
H081777997014  003000002000000000110145000000000000020200302                                                                                                                       *
D081777997014  00377928736       2017/78245025  MIRANDA BRICENO  GUS00000000580000000000000000000000000000000000000000000000002020033120200302120140500700028MATRICULA COL         *
D081777997014  00377623283       2017/80016548  DAGA GONZALES  MOISE00000000560000000000000000000000000000000000000000000000002020033120200302120200500700006INSCRIPCION CAR       *
D081777997014  00361106643       2017/80016549  DAGA GONZALES  NICOL00000000550000000000000000000000000000000000000000000000002020033120200302120200500700007INSCRIPCION CAR       *
D081777997014  00362018661       2017/162159    SOTO LEZAMA  ROBERT 00000000570000000000000000000000000000000000000000000000002020033120200302120480500700015MATRICULA SJL         *
D081777997014  00375027753       2017/162160    SOTO LEZAMA  RODRIGO00000000570000000000000000000000000000000000000000000000002020033120200302120480500700016MATRICULA SJL         *
D081777997014  00378221819       2017/80016586  VERA MUNOZ  IAN ALEJ00000000560000000000000000000000000000000000000000000000002020033120200302120920500700112MATRICULA CAR         *
D081777997014  00378221819       2017/80016589  VERA MUNOZ  IAN ALEJ00000000350000000000000000000000000000000000000000000000002020033120200302120920500700112INSCRIPCION CAR       *
D081777997014  00360915418       2017/80016607  SANCA RAMOS  YURIKO 00000000550000000000000000000000000000000000000000000000002020033120200302121910500700005MATRICULA CAR         *
D081777997014  00376588645       2017/78245074  BARRIOS RAMIREZ  ALE00000000350000000000000000000000000000000000000000000000002020033120200302122160500700002INSCRIPCION COL       *
D081777997014  00372595757       2017/78245089  DAVILA HUAMANI  RODO00000000670000000000000000000000000000000000000000000000002020033120200302122510500700054MATRICULA COL         *
D081777997014  00377786695       2017/78245092  TERAN TEJADA  MARIAF00000000580000000000000000000000000000000000000000000000002020033120200302122540500700136MATRICULA COL         *
D081777997014  00373396288       2017/78245088  MEDRANO LIMAS  LUCIA00000000670000000000000000000000000000000000000000000000002020033120200302124300500700007MATRICULA COL         *
D081777997014  00375647080       2017/162135    ARIAS MELENDEZ  IVAN00000000570000000000000000000000000000000000000000000000002020033120200302126910500700003MATRICULA SJL         *
D081777997014  00377826988       2017/162114    CCASANI ESCALERA  NA00000000570000000000000000000000000000000000000000000000002020033120200302226910500700118MATRICULA SJL         *
D081777997014  00361840905       2017/162153    BUSTILLOS AGUILAR  S00000000570000000000000000000000000000000000000000000000002020033120200302127420500700049MATRICULA SJL         *
D081777997014  00378854250       2017/162136    DE LA TORRE CONDORE 00000000570000000000000000000000000000000000000000000000002020033120200302127420500700119MATRICULA SJL         *
D081777997014  00375032229       2017/162158    ARIAS CORCUERA  PATR00000000484500000000000000000000000000000000000000000000002020033120200302127420500700121MATRICULA SJL         *
D081777997014  00363721635       2017/78245086  PENA VIERA  RODRIGO 00000000670000000000000000000000000000000000000000000000002020033120200302227844651009297MATRICULA COL         *
D081777997014  00363721635       2017/78245087  PENA VIERA  RODRIGO 00000000350000000000000000000000000000000000000000000000002020033120200302227844651009298INSCRIPCION COL       *
D081777997014  00376921546       2017/78245093  DE LA CRUZ VILCHEZ  00000000670000000000000000000000000000000000000000000000002020033120200302227844651028659MATRICULA COL         *
T081777997014  00304MATRICULA                     081777997014  000000000384000                                                                                                    *
T081777997014  00305DERECHO DE INGRESO COL        081777997014  000000000070000                                                                                                    *
T081777997014  00306MATRICULA SJL 2020            081777997014  000000000390450                                                                                                    *
T081777997014  00308MATRICULA 2020 CARABAYLLO     081777997014  000000000222000                                                                                                    *
T081777997014  00309DERECHO DE INGRESO 2020 CARABA081777997014  000000000035000                                                                                                    *
H081777997014  009000000500000000003000000000000000020200302                                                                                                                       *
D081777997014  00976922387       FF20/534       NAVARRO GUIZADO  GRE00000000060000000000000000000000000000000000000000000000002020022820200302222030500700085CERT ESTUDIO COL FEB  *
D081777997014  00960780790       FF20/670       POMIANO UZURIAGA  AN00000000060000000000000000000000000000000000000000000000002020022820200302122470500700017CERT ESTUDIOS SJL FE  *
D081777997014  00976742772       FF20/686       COJAL SOLIS  GERARDO00000000060000000000000000000000000000000000000000000000002020022820200302122470500700068CERT ESTUDIOS SJL FE  *
D081777997014  00972896454       FF20/668       VELASQUEZ MOSCOSO  L00000000060000000000000000000000000000000000000000000000002020022820200302124280500700043CERT ESTUDIO COL FEB  *
D081777997014  00970592473       FF20/290       SANTE NOBLEJAS  SOFI00000000060000000000000000000000000000000000000000000000002020013120200302227844651013875CERT ESTUDIOS SJL EN  *
T081777997014  00929CERT ESTUDIO-COL              081777997014  000000000012000                                                                                                    *
T081777997014  00963CERT ESTUDIOS SJL             081777997014  000000000018000                                                                                                    *
