H081777997014  001000003400000000169001900000000000020200130                                                                                                                       *
D081777997014  00174885127       2016/99960     YSIDRO EGAS  ANDREA 00000000378000000000000000000000000000000000000000000077682016043020200130120190500700108PENSION ABR 2016 CAR  *
D081777997014  00174885127       2016/31027     YSIDRO EGAS  ANDREA 00000000378000000000000000000000000000000000000000000075922016053120200130120190500700108PENSION MAY 2016 CAR  *
D081777997014  00174885127       2016/97180     YSIDRO EGAS  ANDREA 00000000378000000000000000000000000000000000000000000074222016063020200130120190500700108PENSION JUN 2016 CAR  *
D081777997014  00174885127       2016/73447     YSIDRO EGAS  ANDREA 00000000378000000000000000000000000000000000000000000072462016073120200130120190500700108PENSION JUL 2016 CAR  *
D081777997014  00174885127       2016/96509     YSIDRO EGAS  ANDREA 00000000420000000000000000000000000000000000000000000078562016083120200130120190500700108PENSION AGO 2016 CAR  *
D081777997014  00174885127       2016/22571     YSIDRO EGAS  ANDREA 00000000420000000000000000000000000000000000000000000076672016093020200130120190500700108PENSION SEP 2016 CAR  *
D081777997014  00174885127       2016/1092      YSIDRO EGAS  ANDREA 00000000420000000000000000000000000000000000000000000074722016103120200130120190500700108PENSION OCT 2016 CAR  *
D081777997014  00174885127       2016/15948     YSIDRO EGAS  ANDREA 00000000420000000000000000000000000000000000000000000072832016113020200130120190500700108PENSION NOV 2016 CAR  *
D081777997014  00174885127       2016/54271     YSIDRO EGAS  ANDREA 00000000420000000000000000000000000000000000000000000071822016121620200130120190500700108PENSION DIC 2016 CAR  *
D081777997014  00174517031       2017/78234129  ROJAS QUISPE  STEVE 00000000640000000000000000000000000000000000000000000023422019053120200130121770500700039PENSION MAY 2019 COL  *
D081777997014  00176495547       2017/159405    ALLENDE HUAMAN  JOSE00000000540000000000000000000000000000000000000000000004942019113020200130121930500700007PENSION NOV 2019 SJL  *
D081777997014  00176495547       2017/160267    ALLENDE HUAMAN  JOSE00000000540000000000000000000000000000000000000000000003242019122120200130121930500700008PENSION DIC 2019 SJL  *
D081777997014  00160194553       2017/158099    HIDALGO CASTILLO  CA00000000540000000000000000000000000000000000000000000007372019103120200130122140500700016PENSION OCT 2019 SJL  *
D081777997014  00160194553       2017/159281    HIDALGO CASTILLO  CA00000000540000000000000000000000000000000000000000000004942019113020200130122140500700016PENSION NOV 2019 SJL  *
D081777997014  00178170198       2017/158797    TELLO TOCON  SOFIA V00000000560000000000000000000000000000000000000000000005122019113020200130122640500700046PENSION NOV 2019 SJL  *
D081777997014  00178170198       2017/159545    TELLO TOCON  SOFIA V00000000560000000000000000000000000000000000000000000003362019122120200130122640500700046PENSION DIC 2019 SJL  *
D081777997014  00172869314       2017/78242345  VALLE CAMPOS  ANDRE 00000000640000000000000000000000000000000000000000000003842019122120200130124450500700039PENSION DIC 2019 COL  *
D081777997014  00174022436       2017/160430    LAGUNA GARCIA  CAMIL00000000540000000000000000000000000000000000000000000003242019122120200130126910500700012PENSION DIC 2019 SJL  *
D081777997014  00170955707       2017/160059    ESPIRME CASTRO  YOSU00000000550000000000000000000000000000000000000000000003302019122120200130126910500700016PENSION DIC 2019 SJL  *
D081777997014  00173046385       2017/153268    INGA JIMENEZ  JAZMIN00000000378000000000000000000000000000000000000000000013832019053120200130226910500700040PENSION MAY 2019 SJL  *
D081777997014  00173046385       2017/154285    INGA JIMENEZ  JAZMIN00000000378000000000000000000000000000000000000000000012132019063020200130226910500700040PENSION JUN 2019 SJL  *
D081777997014  00173046385       2017/154948    INGA JIMENEZ  JAZMIN00000000378000000000000000000000000000000000000000000010382019073120200130226910500700040PENSION JUL 2019 SJL  *
D081777997014  00173046385       2017/156328    INGA JIMENEZ  JAZMIN00000000378000000000000000000000000000000000000000000008622019083120200130226910500700040PENSION AGO 2019 SJL  *
D081777997014  00173046385       2017/157350    INGA JIMENEZ  JAZMIN00000000378000000000000000000000000000000000000000000006922019093020200130226910500700040PENSION SEP 2019 SJL  *
D081777997014  00173046385       2017/158372    INGA JIMENEZ  JAZMIN00000000378000000000000000000000000000000000000000000005162019103120200130226910500700040PENSION OCT 2019 SJL  *
D081777997014  00173046385       2017/158532    INGA JIMENEZ  JAZMIN00000000378000000000000000000000000000000000000000000003462019113020200130226910500700040PENSION NOV 2019 SJL  *
D081777997014  00173046385       2017/160401    INGA JIMENEZ  JAZMIN00000000378000000000000000000000000000000000000000000002272019122120200130226910500700040PENSION DIC 2019 SJL  *
D081777997014  00171669975       2017/159009    PARRA TORRES  GIOMAR00000000495000000000000000000000000000000000000000000004532019113020200130127420500700023PENSION NOV 2019 SJL  *
D081777997014  00171669975       2017/159862    PARRA TORRES  GIOMAR00000000495000000000000000000000000000000000000000000002972019122120200130127420500700024PENSION DIC 2019 SJL  *
D081777997014  00173927797       2017/159202    PARRA TORRES  LEONAR00000000550000000000000000000000000000000000000000000005032019113020200130127420500700025PENSION NOV 2019 SJL  *
D081777997014  00173927797       2017/160058    PARRA TORRES  LEONAR00000000550000000000000000000000000000000000000000000003302019122120200130127420500700026PENSION DIC 2019 SJL  *
D081777997014  00161436077       2017/78242442  VALDIVIEZO MOSCOL  M00000000576000000000000000000000000000000000000000000003462019122120200130227844651004297PENSION DIC 2019 COL  *
D081777997014  00177522487       2017/78241454  VALDIVIEZO MOSCOL  J00000000560000000000000000000000000000000000000000000005122019113020200130227844651004375PENSION NOV 2019 COL  *
D081777997014  00177522487       2017/78242674  VALDIVIEZO MOSCOL  J00000000560000000000000000000000000000000000000000000003362019122120200130227844651004376PENSION DIC 2019 COL  *
T081777997014  00101PENSION                       081777997014  000000000301520                                                                                                    *
T081777997014  00102PENSION SAN JUAN              081777997014  000000000959811                                                                                                    *
T081777997014  00103PENSION                       081777997014  000000000428688                                                                                                    *
H081777997014  003000001400000000079600000000000000020200130                                                                                                                       *
D081777997014  00370635987       2017/78244548  VALENCIA GUERRA  AND00000000670000000000000000000000000000000000000000000000002020013120200130220630500700045MATRICULA COL         *
D081777997014  00370635987       2017/78244549  VALENCIA GUERRA  AND00000000350000000000000000000000000000000000000000000000002020013120200130220630500700045INSCRIPCION COL       *
D081777997014  00377514902       2017/78244559  CARPIO PANIBRA  EDWA00000000670000000000000000000000000000000000000000000000002020013120200130121350500700067MATRICULA COL         *
D081777997014  00361225870       2017/78244560  CARPIO PANIBRA  GABR00000000670000000000000000000000000000000000000000000000002020013120200130121350500700068MATRICULA COL         *
D081777997014  00363792374       2017/161805    PAUCAR OYOLA  GABRIE00000000570000000000000000000000000000000000000000000000002020013120200130122020500700111MATRICULA SJL         *
D081777997014  00377523266       2017/78244543  GONZALES CASTILLO  K00000000670000000000000000000000000000000000000000000000002020013120200130122100500700012MATRICULA COL         *
D081777997014  00379229221       2017/161803    MAMANI AUQUES  JOAQU00000000350000000000000000000000000000000000000000000000002020013120200130122100500700024INSCRIPCION SJL       *
D081777997014  00379229221       2017/161804    MAMANI AUQUES  JOAQU00000000570000000000000000000000000000000000000000000000002020013120200130122100500700024MATRICULA SJL         *
D081777997014  00378050459       2017/78244323  QUISPE CASTILLO  LUC00000000580000000000000000000000000000000000000000000000002020013120200130122160500700024MATRICULA COL         *
D081777997014  00378033018       2017/78244542  CARDENAS TAFUR  CARL00000000580000000000000000000000000000000000000000000000002020013120200130122540500700013MATRICULA COL         *
D081777997014  00360767789       2017/161916    ZUMAETA MARAVI  ROLA00000000570000000000000000000000000000000000000000000000002020013120200130126910500700004MATRICULA SJL         *
D081777997014  00378904219       2017/80016256  NICHO GARAY  AMY ALI00000000570000000000000000000000000000000000000000000000002020013120200130227844651008012INSCRIPCION CAR       *
D081777997014  00360772939       2017/161897    LEON REATEGUI  ADRIA00000000570000000000000000000000000000000000000000000000002020013120200130227844651012299MATRICULA SJL         *
D081777997014  00370484675       2017/161781    SOLLER MERCADO  ALDO00000000570000000000000000000000000000000000000000000000002020013120200130129240500700004MATRICULA SJL         *
T081777997014  00304MATRICULA                     081777997014  000000000384000                                                                                                    *
T081777997014  00305DERECHO DE INGRESO COL        081777997014  000000000035000                                                                                                    *
T081777997014  00306MATRICULA SJL 2020            081777997014  000000000285000                                                                                                    *
T081777997014  00307DERECHO DE INGRESO SJL 2018   081777997014  000000000035000                                                                                                    *
T081777997014  00308MATRICULA 2020 CARABAYLLO     081777997014  000000000057000                                                                                                    *
H081777997014  009000000300000000001800000000000000020200130                                                                                                                       *
D081777997014  00948398875       FF20/328       CASTILLO SANCHEZ  JE00000000060000000000000000000000000000000000000000000000002020013120200130120740500700021CERT ESTUDIO COL ENE  *
D081777997014  00970957335       FF20/172       VILCHEZ FUENTES  VAL00000000060000000000000000000000000000000000000000000000002020013120200130125350500700015CERT ESTUDIOS CAR EN  *
D081777997014  00976498748       FF20/314       GUERRERO RUBINA  DAY00000000060000000000000000000000000000000000000000000000002020013120200130126910500700085CERT ESTUDIOS SJL EN  *
T081777997014  00929CERT ESTUDIO-COL              081777997014  000000000006000                                                                                                    *
T081777997014  00963CERT ESTUDIOS SJL             081777997014  000000000006000                                                                                                    *
T081777997014  00999CERT ESTUDIOS-CAR             081777997014  000000000006000                                                                                                    *
