H081777997014  001000004000000000218166800000000000020200115                                                                                                                       *
D081777997014  00175125644       2016/68021     GARCIA MUNOZ  DAVOR 00000000420000000000000000000000000000000000000000000085372016043020200115120210500700008PENSION ABR 2016 CAR  *
D081777997014  00175125644       2016/43343     GARCIA MUNOZ  DAVOR 00000000420000000000000000000000000000000000000000000083412016053120200115120210500700008PENSION MAY 2016 CAR  *
D081777997014  00175125644       2016/13476     GARCIA MUNOZ  DAVOR 00000000420000000000000000000000000000000000000000000081522016063020200115120210500700008PENSION JUN 2016 CAR  *
D081777997014  00175125644       2016/54780     GARCIA MUNOZ  DAVOR 00000000420000000000000000000000000000000000000000000079572016073120200115120210500700008PENSION JUL 2016 CAR  *
D081777997014  00175125644       2016/53177     GARCIA MUNOZ  DAVOR 00000000420000000000000000000000000000000000000000000077622016083120200115120210500700008PENSION AGO 2016 CAR  *
D081777997014  00175125644       2016/8780      GARCIA MUNOZ  DAVOR 00000000420000000000000000000000000000000000000000000075732016093020200115120210500700008PENSION SEP 2016 CAR  *
D081777997014  00175125644       2016/96088     GARCIA MUNOZ  DAVOR 00000000420000000000000000000000000000000000000000000073772016103120200115120210500700008PENSION OCT 2016 CAR  *
D081777997014  00175125644       2016/23241     GARCIA MUNOZ  DAVOR 00000000420000000000000000000000000000000000000000000071882016113020200115120210500700015PENSION NOV 2016 CAR  *
D081777997014  00172525347       2017/160216    ARIAS ROJAS  SAMUEL 00000000540000000000000000000000000000000000000000000002032019122120200115120250500700070PENSION DIC 2019 SJL  *
D081777997014  00177400015       2017/80015125  GUERRERO LAUREANO  V00000000495000000000000000000000000000000000000000000001862019122120200115120580500700004PENSION DIC 2019 CAR  *
D081777997014  00175125644       2016/84405     GARCIA MUNOZ  DAVOR 00000000420000000000000000000000000000000000000000000070882016121620200115120920500700049PENSION DIC 2016 CAR  *
D081777997014  00172459229       2017/160149    PEDRAZA PADILLA  JEN00000000540000000000000000000000000000000000000000000002032019122120200115122250500700145PENSION DIC 2019 SJL  *
D081777997014  00162051059       2017/78241395  MARCA VALLADARES  AZ00000000640000000000000000000000000000000000000000000004422019113020200115122310500700024PENSION NOV 2019 COL  *
D081777997014  00162051059       2017/78242610  MARCA VALLADARES  AZ00000000640000000000000000000000000000000000000000000002402019122120200115122310500700024PENSION DIC 2019 COL  *
D081777997014  00178517115       2017/159799    CASTRO FARRO  ARIADN00000000560000000000000000000000000000000000000000000002102019122120200115122470500700003PENSION DIC 2019 SJL  *
D081777997014  00176888627       2017/78235082  MORA JAIMES  BRIHANN00000000560000000000000000000000000000000000000000000016722019063020200115122540500700048PENSION JUN 2019 COL  *
D081777997014  00176888627       2017/78236625  MORA JAIMES  BRIHANN00000000560000000000000000000000000000000000000000000014112019073120200115122540500700048PENSION JUL 2019 COL  *
D081777997014  00172826278       2017/80015183  DIAZ QUIROZ  LUANA F00000000550000000000000000000000000000000000000000000002062019122120200115222630500700045PENSION DIC 2019 CAR  *
D081777997014  00178527888       2017/80010519  LEAL PINEDA  SAYEN A00000000560000000000000000000000000000000000000000000024362019033120200115123720500700001PENSION MAR 2019 CAR  *
D081777997014  00178527888       2017/80011002  LEAL PINEDA  SAYEN A00000000560000000000000000000000000000000000000000000021842019043020200115123720500700001PENSION ABR 2019 CAR  *
D081777997014  00178527888       2017/80011475  LEAL PINEDA  SAYEN A00000000560000000000000000000000000000000000000000000019242019053120200115123720500700001PENSION MAY 2019 CAR  *
D081777997014  00178527888       2017/80012105  LEAL PINEDA  SAYEN A00000000560000000000000000000000000000000000000000000016722019063020200115123720500700001PENSION JUN 2019 CAR  *
D081777997014  00178527888       2017/80012430  LEAL PINEDA  SAYEN A00000000560000000000000000000000000000000000000000000014112019073120200115123720500700001PENSION JUL 2019 CAR  *
D081777997014  00178527888       2017/80013045  LEAL PINEDA  SAYEN A00000000560000000000000000000000000000000000000000000011512019083120200115123720500700001PENSION AGO 2019 CAR  *
D081777997014  00178527888       2017/80013434  LEAL PINEDA  SAYEN A00000000560000000000000000000000000000000000000000000008992019093020200115123720500700001PENSION SEP 2019 CAR  *
D081777997014  00178527888       2017/80014005  LEAL PINEDA  SAYEN A00000000560000000000000000000000000000000000000000000006382019103120200115123720500700001PENSION OCT 2019 CAR  *
D081777997014  00176501993       2017/78243742  SISNIEGAS SEMINARIO 00000000480000000000000000000000000000000000000000000001802019122120200115126610500700058PENSION DIC 2019 COL  *
D081777997014  00171573308       2017/78241747  CORREA PEREZ  JOSE L00000000640000000000000000000000000000000000000000000002402019122120200115126610500700072PENSION DIC 2019 COL  *
D081777997014  00175674455       2017/158419    SIMPE VENTURA  CARLA00000000486000000000000000000000000000000000000000000005542019103120200115126910500700007PENSION OCT 2019 SJL  *
D081777997014  00175674455       2017/158579    SIMPE VENTURA  CARLA00000000486000000000000000000000000000000000000000000003352019113020200115126910500700007PENSION NOV 2019 SJL  *
D081777997014  00175674455       2017/160463    SIMPE VENTURA  CARLA00000000486000000000000000000000000000000000000000000001822019122120200115126910500700007PENSION DIC 2019 SJL  *
D081777997014  00177967179       2017/156877    SIMPE VENTURA  PEDRO00000000550000000000000000000000000000000000000000000008832019093020200115126910500700008PENSION SEP 2019 SJL  *
D081777997014  00177967179       2017/157882    SIMPE VENTURA  PEDRO00000000550000000000000000000000000000000000000000000006272019103120200115126910500700008PENSION OCT 2019 SJL  *
D081777997014  00177967179       2017/159064    SIMPE VENTURA  PEDRO00000000550000000000000000000000000000000000000000000003802019113020200115126910500700008PENSION NOV 2019 SJL  *
D081777997014  00177967179       2017/159917    SIMPE VENTURA  PEDRO00000000550000000000000000000000000000000000000000000002062019122120200115126910500700008PENSION DIC 2019 SJL  *
D081777997014  00171056075       2017/160184    CORREA SUAREZ  ERICK00000000540000000000000000000000000000000000000000000002032019122120200115126910500700013PENSION DIC 2019 SJL  *
D081777997014  00178609144       2017/78240594  REANO AGUILAR  ALMEN00000000560000000000000000000000000000000000000000000003862019113020200115126910500700030PENSION NOV 2019 COL  *
D081777997014  00170596427       2017/160400    ROBLES RAMIREZ  GABR00000000540000000000000000000000000000000000000000000002032019122120200115126910500700099PENSION DIC 2019 SJL  *
D081777997014  00173684564       2017/78241795  VARILLAS MARRUJO  LU00000000640000000000000000000000000000000000000000000002402019122120200115227844651003236PENSION DIC 2019 COL  *
D081777997014  00171683473       2017/160104    SANTE NOBLEJAS  MAXI00000000495000000000000000000000000000000000000000000001862019122120200115227844651014477PENSION DIC 2019 SJL  *
T081777997014  00101PENSION                       081777997014  000000000476811                                                                                                    *
T081777997014  00102PENSION SAN JUAN              081777997014  000000000691675                                                                                                    *
T081777997014  00103PENSION                       081777997014  000000001013182                                                                                                    *
H081777997014  003000000700000000036500000000000000020200115                                                                                                                       *
D081777997014  00379420214       2017/161515    AGUILAR FERNANDEZ  J00000000350000000000000000000000000000000000000000000000002020013120200115122470500700023INSCRIPCION SJL       *
D081777997014  00378424753       2017/161731    RAMOS BURGOS  MATEO 00000000570000000000000000000000000000000000000000000000002020013120200115122470500700083MATRICULA SJL         *
D081777997014  00379712422       2017/78244372  PAZ SOLDAN CUETO  YA00000000570000000000000000000000000000000000000000000000002020013120200115123010500700010MATRICULA COL         *
D081777997014  00371342893       2017/78244365  ASMAT WONG  FABIANA 00000000670000000000000000000000000000000000000000000000002020013120200115126610500700070MATRICULA COL         *
D081777997014  00371342893       2017/78244366  ASMAT WONG  FABIANA 00000000350000000000000000000000000000000000000000000000002020013120200115126610500700070INSCRIPCION COL       *
D081777997014  00372599321       2017/161750    RAMIREZ FERNANDEZ  M00000000570000000000000000000000000000000000000000000000002020013120200115126910500700063MATRICULA SJL         *
D081777997014  00379139896       2017/161747    RODRIGUEZ FLORES  MA00000000570000000000000000000000000000000000000000000000002020013120200115126910500700086MATRICULA SJL         *
T081777997014  00304MATRICULA                     081777997014  000000000124000                                                                                                    *
T081777997014  00305DERECHO DE INGRESO COL        081777997014  000000000035000                                                                                                    *
T081777997014  00306MATRICULA SJL 2020            081777997014  000000000171000                                                                                                    *
T081777997014  00307DERECHO DE INGRESO SJL 2018   081777997014  000000000035000                                                                                                    *
H081777997014  009000000400000000002400000000000000020200115                                                                                                                       *
D081777997014  00972138304       FF20/134       LOPEZ CAMPOMANES  RO00000000060000000000000000000000000000000000000000000000002020013120200115122540500700007CERT ESTUDIO COL ENE  *
D081777997014  00960939262       FF20/139       VALERA OVIEDO  MARCE00000000060000000000000000000000000000000000000000000000002020013120200115127420500700005CERT ESTUDIOS SJL EN  *
D081777997014  00981653133       FF20/142       HURTADO ZAMORA  ANGE00000000060000000000000000000000000000000000000000000000002020013120200115127420500700023CERT ESTUDIOS SJL EN  *
D081777997014  00978175614       FF20/143       HURTADO ZAMORA  LIAM00000000060000000000000000000000000000000000000000000000002020013120200115127420500700024CERT ESTUDIOS SJL EN  *
T081777997014  00929CERT ESTUDIO-COL              081777997014  000000000006000                                                                                                    *
T081777997014  00963CERT ESTUDIOS SJL             081777997014  000000000018000                                                                                                    *
