H081777997014  001000002600000000149230700000000000020200204                                                                                                                       *
D081777997014  00174092346       2017/78241997  BARRIOS CHAVEZ  LEON00000000640000000000000000000000000000000000000000000004322019122120200204120140500700081PENSION DIC 2019 COL  *
D081777997014  00178666089       2017/78241840  NOVOA JIMENEZ  GEORG00000000560000000000000000000000000000000000000000000003782019122120200204120190500700188PENSION DIC 2019 COL  *
D081777997014  00174241721       FF19/1541      DAVALOS ARTEAGA  JAI00000000640000000000000000000000000000000000000000000018052019073120200204120600500700011PENSION JUL 2019 COL  *
D081777997014  00177754112       2017/159094    BUSTILLOS TERAN  JOA00000000550000000000000000000000000000000000000000000005452019113020200204121440500700002PENSION NOV 2019 SJL  *
D081777997014  00177754112       2017/159956    BUSTILLOS TERAN  JOA00000000550000000000000000000000000000000000000000000003712019122120200204121440500700002PENSION DIC 2019 SJL  *
D081777997014  00174878087       2017/135507    QUILLAS LEON  LUIS D00000000510000000000000000000000000000000000000000000032972018113020200204122470500700058PENSION NOV 2018 SJL  *
D081777997014  00174878087       2017/137819    QUILLAS LEON  LUIS D00000000510000000000000000000000000000000000000000000031372018122120200204122470500700060PENSION DIC 2018 SJL  *
D081777997014  00174007968       2017/78241533  RAMIREZ RODRIGUEZ  F00000000640000000000000000000000000000000000000000000006342019113020200204122540500700050PENSION NOV 2019 COL  *
D081777997014  00174007968       2017/78242748  RAMIREZ RODRIGUEZ  F00000000640000000000000000000000000000000000000000000004322019122120200204122540500700050PENSION DIC 2019 COL  *
D081777997014  00177963570       2017/78239266  AVILA CHIROQUE  YEIR00000000560000000000000000000000000000000000000000000010672019093020200204123860500700080PENSION SEP 2019 COL  *
D081777997014  00177963570       2017/78239911  AVILA CHIROQUE  YEIR00000000560000000000000000000000000000000000000000000008062019103120200204123860500700080PENSION OCT 2019 COL  *
D081777997014  00177963570       2017/78241696  AVILA CHIROQUE  YEIR00000000560000000000000000000000000000000000000000000005542019113020200204123860500700080PENSION NOV 2019 COL  *
D081777997014  00177963570       2017/78242911  AVILA CHIROQUE  YEIR00000000560000000000000000000000000000000000000000000003782019122120200204123860500700080PENSION DIC 2019 COL  *
D081777997014  00177544268       2017/154879    VEGA MARTINEZ  MARIA00000000540000000000000000000000000000000000000000000015232019073120200204126910500700041PENSION JUL 2019 SJL  *
D081777997014  00177544268       2017/156258    VEGA MARTINEZ  MARIA00000000540000000000000000000000000000000000000000000012722019083120200204126910500700041PENSION AGO 2019 SJL  *
D081777997014  00177544268       2017/157314    VEGA MARTINEZ  MARIA00000000540000000000000000000000000000000000000000000010292019093020200204126910500700041PENSION SEP 2019 SJL  *
D081777997014  00177544268       2017/158302    VEGA MARTINEZ  MARIA00000000540000000000000000000000000000000000000000000007782019103120200204126910500700041PENSION OCT 2019 SJL  *
D081777997014  00177544268       2017/158462    VEGA MARTINEZ  MARIA00000000540000000000000000000000000000000000000000000005352019113020200204126910500700041PENSION NOV 2019 SJL  *
D081777997014  00177544268       2017/160346    VEGA MARTINEZ  MARIA00000000540000000000000000000000000000000000000000000003652019122120200204126910500700041PENSION DIC 2019 SJL  *
D081777997014  00170731127       2017/157873    ROJAS CANALES  JAIR 00000000550000000000000000000000000000000000000000000007922019103120200204126910500700067PENSION OCT 2019 SJL  *
D081777997014  00170731127       2017/159055    ROJAS CANALES  JAIR 00000000550000000000000000000000000000000000000000000005452019113020200204126910500700067PENSION NOV 2019 SJL  *
D081777997014  00170731127       2017/159908    ROJAS CANALES  JAIR 00000000550000000000000000000000000000000000000000000003712019122120200204126910500700067PENSION DIC 2019 SJL  *
D081777997014  00161141988       2017/156695    TORRES ALVARADO  SOP00000000550000000000000000000000000000000000000000000010482019093020200204129470500700039PENSION SEP 2019 SJL  *
D081777997014  00173246625       2017/78242128  LEON GARCES  CINTHYA00000000576000000000000000000000000000000000000000000003892019122120200204129470500700116PENSION DIC 2019 COL  *
D081777997014  00160854017       2017/78241755  LEON GARCES  DANA SH00000000640000000000000000000000000000000000000000000004322019122120200204129470500700117PENSION DIC 2019 COL  *
D081777997014  00173402985       2017/157938    AGUADO TUCTO  TIRZA 00000000550000000000000000000000000000000000000000000007922019103120200204129470500700186PENSION OCT 2019 SJL  *
T081777997014  00101PENSION                       081777997014  000000000664907                                                                                                    *
T081777997014  00102PENSION SAN JUAN              081777997014  000000000827400                                                                                                    *
H081777997014  003000002400000000136140000000000000020200204                                                                                                                       *
D081777997014  00371752746       2017/78244592  CCANTO VILLANUEVA  J00000000670000000000000000000000000000000000000000000000002020022820200204120140500700086MATRICULA COL         *
D081777997014  00373926346       2017/78244588  PECEROS CASQUIN  ADR00000000670000000000000000000000000000000000000000000000002020022820200204120140500700121MATRICULA COL         *
D081777997014  00378257092       2017/80016182  ALLEMANT MARAVI  THI00000000504000000000000000000000000000000000000000000000002020010420200204120210500700111INSCRIPCION CAR       *
D081777997014  00377780768       2017/78244611  FRANCO VASQUEZ  ANAH00000000580000000000000000000000000000000000000000000000002020022820200204120350500700078MATRICULA COL         *
D081777997014  00370705100       2017/78244610  FRANCO VASQUEZ  MARY00000000670000000000000000000000000000000000000000000000002020022820200204120350500700079MATRICULA COL         *
D081777997014  00374609527       2017/161965    AYALA CUTIPA  GONZAL00000000570000000000000000000000000000000000000000000000002020013120200204120400500700039MATRICULA SJL         *
D081777997014  00373401041       2017/78244594  OLARTE ALLER  YUMARA00000000670000000000000000000000000000000000000000000000002020022820200204120600500700071MATRICULA COL         *
D081777997014  00377405881       2017/78244595  SANCHEZ CUTTI  MATTI00000000670000000000000000000000000000000000000000000000002020022820200204121770500700045MATRICULA COL         *
D081777997014  00377405881       2017/78244596  SANCHEZ CUTTI  MATTI00000000350000000000000000000000000000000000000000000000002020022820200204121770500700045INSCRIPCION COL       *
D081777997014  00362640506       2017/78244569  ARIAS ACUNA  AXL AND00000000670000000000000000000000000000000000000000000000002020013120200204122290500700080MATRICULA COL         *
D081777997014  00362640506       2017/78244570  ARIAS ACUNA  AXL AND00000000350000000000000000000000000000000000000000000000002020013120200204122290500700081INSCRIPCION COL       *
D081777997014  00372925579       2017/161948    TAMAYO NAUCA  LEONAR00000000570000000000000000000000000000000000000000000000002020013120200204122390500700094MATRICULA SJL         *
D081777997014  00371182563       2017/78244586  RIVERA VALDIVIA  NIC00000000670000000000000000000000000000000000000000000000002020022820200204122410500700062MATRICULA COL         *
D081777997014  00371182563       2017/78244587  RIVERA VALDIVIA  NIC00000000350000000000000000000000000000000000000000000000002020022820200204122410500700062INSCRIPCION COL       *
D081777997014  00377190249       2017/161793    CAMPOS VALLADOLID  A00000000570000000000000000000000000000000000000000000000002020013120200204122470500700008MATRICULA SJL         *
D081777997014  00375035258       2017/78244577  PEREZ HIDALGO  MARCO00000000670000000000000000000000000000000000000000000000002020013120200204122570500700070MATRICULA COL         *
D081777997014  00377411417       2017/80016280  BRAVO MENDOZA  EDUAR00000000560000000000000000000000000000000000000000000000002020022820200204122660500700174INSCRIPCION CAR       *
D081777997014  00390026441       2017/161848    PILLACA CASTRO  SANT00000000350000000000000000000000000000000000000000000000002020013120200204126910500700010INSCRIPCION SJL       *
D081777997014  00371149256       2017/161883    JULCAMORO RAMOS  JOH00000000570000000000000000000000000000000000000000000000002020013120200204126910500700024MATRICULA SJL         *
D081777997014  00361139347       2017/161882    JULCAMORO RAMOS  FAB00000000570000000000000000000000000000000000000000000000002020013120200204126910500700027MATRICULA SJL         *
D081777997014  00379214201       2017/161743    ORTEGA TOROBEO  RAYS00000000570000000000000000000000000000000000000000000000002020013120200204126910500700124MATRICULA SJL         *
D081777997014  00378089294       2017/161927    VIRGILIO CALLE  GIAN00000000570000000000000000000000000000000000000000000000002020013120200204127420500700026MATRICULA SJL         *
D081777997014  00377376028       2017/78244589  MAGALLANES FAILOC  S00000000670000000000000000000000000000000000000000000000002020022920200204227844671000886MATRICULA COL         *
D081777997014  00374712130       2017/80016246  ALVEAR HUAMAN  ARIAN00000000550000000000000000000000000000000000000000000000002020013120200204129470500700182INSCRIPCION CAR       *
T081777997014  00304MATRICULA                     081777997014  000000000661000                                                                                                    *
T081777997014  00305DERECHO DE INGRESO COL        081777997014  000000000105000                                                                                                    *
T081777997014  00306MATRICULA SJL 2020            081777997014  000000000399000                                                                                                    *
T081777997014  00307DERECHO DE INGRESO SJL 2018   081777997014  000000000035000                                                                                                    *
T081777997014  00308MATRICULA 2020 CARABAYLLO     081777997014  000000000161400                                                                                                    *
H081777997014  006000000100000000000200000000000000020200204                                                                                                                       *
D081777997014  00672177686       FF20/388       JESUSI QUISPE  ALONS00000000020000000000000000000000000000000000000000000000002020022820200204122210500700067CCIA ESTUDIOS COL FE  *
T081777997014  00624CCIA ESTUDIOS COL             081777997014  000000000002000                                                                                                    *
H081777997014  009000000700000000004200000000000000020200204                                                                                                                       *
D081777997014  00976850032       FF20/370       FLORES APCHO  JORGE 00000000060000000000000000000000000000000000000000000000002020022820200204120140500700013CERT ESTUDIO COL FEB  *
D081777997014  00960978601       FF20/367       MEDINA VICUNA  ROMIN00000000060000000000000000000000000000000000000000000000002020022820200204120200500700037CERT ESTUDIOS CAR FE  *
D081777997014  00961356156       FF20/360       ARGUELLES AYALA  JUL00000000060000000000000000000000000000000000000000000000002020013120200204121350500700094CERT ESTUDIO COL ENE  *
D081777997014  00974878087       FF20/378       QUILLAS LEON  LUIS D00000000060000000000000000000000000000000000000000000000002020022820200204122470500700061CERT ESTUDIOS SJL FE  *
D081777997014  00975107787       FF20/368       GUERRERO JIMENEZ  NA00000000060000000000000000000000000000000000000000000000002020022820200204126910500700029CERT ESTUDIOS SJL FE  *
D081777997014  00975107787       FF20/369       GUERRERO JIMENEZ  NA00000000060000000000000000000000000000000000000000000000002020022820200204126910500700029CERT ESTUDIOS SJL FE  *
D081777997014  00970836603       FF20/380       TORRES QUINTEROS  DA00000000060000000000000000000000000000000000000000000000002020022820200204126910500700071CERT ESTUDIOS SJL FE  *
T081777997014  00929CERT ESTUDIO-COL              081777997014  000000000012000                                                                                                    *
T081777997014  00963CERT ESTUDIOS SJL             081777997014  000000000024000                                                                                                    *
T081777997014  00999CERT ESTUDIOS-CAR             081777997014  000000000006000                                                                                                    *
H081777997014  012000000600000000002100000000000000020200204                                                                                                                       *
D081777997014  01271407091       FF20/31        AVILA AGUAYO  FRANCI00000000030000000000000000000000000000000000000000000000002020013120200204120640500700010PRA ACAD COLONIAL EN  *
D081777997014  01272138304       FF20/207       LOPEZ CAMPOMANES  RO00000000030000000000000000000000000000000000000000000000002020013120200204122240500700001PRA ACAD COLONIAL EN  *
D081777997014  01276163599       FF20/322       ASCOY CUADROS  ARIAN00000000060000000000000000000000000000000000000000000000002020013120200204122240500700021PRA ACAD COLONIAL EN  *
D081777997014  01273295757       FF20/272       MORALES ORE  GIANFRA00000000030000000000000000000000000000000000000000000000002020013120200204122540500700004PRA ACAD COLONIAL EN  *
D081777997014  01274563215       FF20/125       FERNANDEZ ENCISO  SE00000000030000000000000000000000000000000000000000000000002020013120200204122540500700077PRA ACAD COLONIAL EN  *
D081777997014  01273772618       FF20/35        BECERRA ACOSTA  MELA00000000030000000000000000000000000000000000000000000000002020013120200204227844671000194PRA ACAD COLONIAL EN  *
T081777997014  01230PRA ACAD COLONIAL             081777997014  000000000021000                                                                                                    *
