H081777997014  001000002000000000100588200000000000020200116                                                                                                                       *
D081777997014  00172767229       2017/78238663  RONDON TORRES  ROBER00000000640000000000000000000000000000000000000000000010372019093020200116220110500700146PENSION SEP 2019 COL  *
D081777997014  00172372528       2017/80011956  NUNEZ CASTRO  JOAQUI00000000378000000000000000000000000000000000000000000011342019063020200116120340500700069PENSION JUN 2019 CAR  *
D081777997014  00172372528       2017/80012575  NUNEZ CASTRO  JOAQUI00000000378000000000000000000000000000000000000000000009582019073120200116120340500700072PENSION JUL 2019 CAR  *
D081777997014  00172372528       2017/80012865  NUNEZ CASTRO  JOAQUI00000000378000000000000000000000000000000000000000000007822019083120200116120340500700073PENSION AGO 2019 CAR  *
D081777997014  00172372528       2017/80013509  NUNEZ CASTRO  JOAQUI00000000378000000000000000000000000000000000000000000006122019093020200116120340500700074PENSION SEP 2019 CAR  *
D081777997014  00172372528       2017/80013859  NUNEZ CASTRO  JOAQUI00000000378000000000000000000000000000000000000000000004372019103120200116120340500700075PENSION OCT 2019 CAR  *
D081777997014  00172372528       2017/80014536  NUNEZ CASTRO  JOAQUI00000000378000000000000000000000000000000000000000000002662019113020200116120340500700076PENSION NOV 2019 CAR  *
D081777997014  00172372528       2017/80014790  NUNEZ CASTRO  JOAQUI00000000378000000000000000000000000000000000000000000001472019122120200116120340500700078PENSION DIC 2019 CAR  *
D081777997014  00173650378       2017/78242368  LOZANO JAMIS  FARID 00000000640000000000000000000000000000000000000000000002502019122120200116120400500700039PENSION DIC 2019 COL  *
D081777997014  00177550854       2017/78239750  COLAN LEONARDO  ALLI00000000640000000000000000000000000000000000000000000007392019103120200116124800500700015PENSION OCT 2019 COL  *
D081777997014  00172317852       2017/78242370  PANANA ZAPATA  CARLO00000000640000000000000000000000000000000000000000000002502019122120200116126610500700028PENSION DIC 2019 COL  *
D081777997014  00178678946       2017/78238219  CHAU BALDWIN  YAGO A00000000504000000000000000000000000000000000000000000008162019093020200116227844651001877PENSION SEP 2019 COL  *
D081777997014  00178678946       2017/78240008  CHAU BALDWIN  YAGO A00000000504000000000000000000000000000000000000000000005822019103120200116227844651001878PENSION OCT 2019 COL  *
D081777997014  00179251764       2017/78241957  ROJAS TALAVERA  LEON00000000560000000000000000000000000000000000000000000002182019122120200116227844651007004PENSION DIC 2019 COL  *
D081777997014  00170736586       2017/78227892  CLAVIJO CEDILLO  JUA00000000600000000000000000000000000000000000000000000035192018122120200116227844651011909PENSION DIC 2018 COL  *
D081777997014  00171184947       2017/80015521  CASTANEDA RODRIGUEZ 00000000385000000000000000000000000000000000000000000001442019122120200116227844671000931PENSION DIC 2019 CAR  *
D081777997014  00170484675       2017/157085    SOLLER MERCADO  ALDO00000000540000000000000000000000000000000000000000000008752019093020200116129240500700009PENSION SEP 2019 SJL  *
D081777997014  00170484675       2017/158107    SOLLER MERCADO  ALDO00000000540000000000000000000000000000000000000000000006242019103120200116129240500700009PENSION OCT 2019 SJL  *
D081777997014  00170484675       2017/159289    SOLLER MERCADO  ALDO00000000540000000000000000000000000000000000000000000003812019113020200116129240500700010PENSION NOV 2019 SJL  *
D081777997014  00170484675       2017/160151    SOLLER MERCADO  ALDO00000000540000000000000000000000000000000000000000000002112019122120200116129240500700010PENSION DIC 2019 SJL  *
T081777997014  00101PENSION                       081777997014  000000000480211                                                                                                    *
T081777997014  00102PENSION SAN JUAN              081777997014  000000000218091                                                                                                    *
T081777997014  00103PENSION                       081777997014  000000000307580                                                                                                    *
H081777997014  003000001500000000083900000000000000020200116                                                                                                                       *
D081777997014  00360697967       2017/161752    POZO GARCIA  ANGIE C00000000570000000000000000000000000000000000000000000000002020013120200116121350500700068MATRICULA SJL         *
D081777997014  00360916325       2017/78244362  SANCHEZ GOMEZ  DAPHN00000000670000000000000000000000000000000000000000000000002020013120200116121770500700044MATRICULA COL         *
D081777997014  00377605076       2017/78244377  GAMARRA RAMIREZ  SOF00000000670000000000000000000000000000000000000000000000002020013120200116121930500700018MATRICULA COL         *
D081777997014  00361292125       2017/161734    LOZANO ASTETE  LEONA00000000570000000000000000000000000000000000000000000000002020013120200116222040500700067MATRICULA SJL         *
D081777997014  00378253896       2017/161748    MUNOZ TARRILLO  DENZ00000000570000000000000000000000000000000000000000000000002020013120200116122390500700104MATRICULA SJL         *
D081777997014  00378253896       2017/161749    MUNOZ TARRILLO  DENZ00000000350000000000000000000000000000000000000000000000002020013120200116122390500700104INSCRIPCION SJL       *
D081777997014  00375083785       2017/78244396  HERNANDEZ MENDOZA  A00000000670000000000000000000000000000000000000000000000002020013120200116122430500700070MATRICULA COL         *
D081777997014  00374664987       2017/161742    YARLEQUE LARA  MAGGI00000000570000000000000000000000000000000000000000000000002020013120200116122470500700056MATRICULA SJL         *
D081777997014  00361876929       2017/78244376  CAM BACA  GABRIEL CR00000000670000000000000000000000000000000000000000000000002020013120200116122540500700047MATRICULA COL         *
D081777997014  00371335916       2017/78244390  BLOISA JAICO  ARIANA00000000670000000000000000000000000000000000000000000000002020013120200116122640500700111MATRICULA COL         *
D081777997014  00379712422       2017/78244373  PAZ SOLDAN CUETO  YA00000000350000000000000000000000000000000000000000000000002020013120200116123010500700026INSCRIPCION COL       *
D081777997014  00374929728       2017/161746    OLIVITOS VILLANUEVA 00000000570000000000000000000000000000000000000000000000002020013120200116126910500700004MATRICULA SJL         *
D081777997014  00362874946       2017/161744    CCOPA CRUZ  DOMINIC 00000000570000000000000000000000000000000000000000000000002020013120200116127420500700004MATRICULA SJL         *
D081777997014  00378421789       2017/161740    ASCONA GUEVARA  JADE00000000570000000000000000000000000000000000000000000000002020013120200116127420500700036MATRICULA SJL         *
D081777997014  00378421789       2017/161741    ASCONA GUEVARA  JADE00000000350000000000000000000000000000000000000000000000002020013120200116127420500700036INSCRIPCION SJL       *
T081777997014  00304MATRICULA                     081777997014  000000000335000                                                                                                    *
T081777997014  00305DERECHO DE INGRESO COL        081777997014  000000000035000                                                                                                    *
T081777997014  00306MATRICULA SJL 2020            081777997014  000000000399000                                                                                                    *
T081777997014  00307DERECHO DE INGRESO SJL 2018   081777997014  000000000070000                                                                                                    *
H081777997014  007000000100000000000250000000000000020200116                                                                                                                       *
D081777997014  00775869760       FF20/131       MEREGILDO VELASQUEZ 00000000025000000000000000000000000000000000000000000000002020013120200116126910500700005EXCELENCIA ACAD SJL   *
T081777997014  00761EXCELENCIA ACAD SJL           081777997014  000000000002500                                                                                                    *
H081777997014  009000000600000000003600000000000000020200116                                                                                                                       *
D081777997014  00960755822       FF20/170       TELLO EGOAVIL  BRUNO00000000060000000000000000000000000000000000000000000000002020013120200116121350500700051CERT ESTUDIO COL ENE  *
D081777997014  00970454661       FF20/165       CESPEDES AMEZQUITA  00000000060000000000000000000000000000000000000000000000002020013120200116222410500700069CERT ESTUDIO COL ENE  *
D081777997014  00970458108       FF20/169       MANRIQUE CARAVANTES 00000000060000000000000000000000000000000000000000000000002020013120200116126860500700002CERT ESTUDIOS SJL EN  *
D081777997014  00975869760       FF20/132       MEREGILDO VELASQUEZ 00000000060000000000000000000000000000000000000000000000002020013120200116126910500700005CERT ESTUDIOS SJL EN  *
D081777997014  00972446009       FF20/157       MEZA ZARZOSA  JAIME 00000000060000000000000000000000000000000000000000000000002020013120200116127420500700001CERT ESTUDIOS SJL EN  *
D081777997014  00977049043       FF20/153       REANO CCOSCCO  CRIST00000000060000000000000000000000000000000000000000000000002020013120200116127420500700015CERT ESTUDIOS SJL EN  *
T081777997014  00929CERT ESTUDIO-COL              081777997014  000000000012000                                                                                                    *
T081777997014  00963CERT ESTUDIOS SJL             081777997014  000000000024000                                                                                                    *
H081777997014  012000000100000000000300000000000000020200116                                                                                                                       *
D081777997014  01277230001       FF20/49        VALENZUELA MENDOZA  00000000030000000000000000000000000000000000000000000000002020013120200116120810500700016PRA ACAD SJL ENE 202  *
T081777997014  01266PRA ACAD SJL                  081777997014  000000000003000                                                                                                    *
