H081777997014  001000003800000000205551100000000000020200110                                                                                                                       *
D081777997014  00178868121       2017/157660    SUAREZ AGUIRRE  OSWA00000000560000000000000000000000000000000000000000000005962019103120200110121350500700105PENSION OCT 2019 SJL  *
D081777997014  00178868121       2017/158632    SUAREZ AGUIRRE  OSWA00000000560000000000000000000000000000000000000000000003442019113020200110121350500700105PENSION NOV 2019 SJL  *
D081777997014  00178868121       2017/159597    SUAREZ AGUIRRE  OSWA00000000560000000000000000000000000000000000000000000001682019122120200110121350500700106PENSION DIC 2019 SJL  *
D081777997014  00173929195       2017/158560    DELGADO PEREZ  ANDRE00000000270000000000000000000000000000000000000000000001662019113020200110122030500700005PENSION NOV 2019 SJL  *
D081777997014  00173929195       2017/160408    DELGADO PEREZ  ANDRE00000000270000000000000000000000000000000000000000000000812019122120200110122030500700005PENSION DIC 2019 SJL  *
D081777997014  00173291380       2017/78242805  LOPEZ MERINO  BRENDA00000000640000000000000000000000000000000000000000000001922019122120200110122240500700033PENSION DIC 2019 COL  *
D081777997014  00176498748       2017/159959    GUERRERO RUBINA  DAY00000000550000000000000000000000000000000000000000000001652019122120200110122470500700148PENSION DIC 2019 SJL  *
D081777997014  00161842178       2017/78241605  ALVARADO VASQUEZ  AN00000000640000000000000000000000000000000000000000000003942019113020200110122540500700075PENSION NOV 2019 COL  *
D081777997014  00161842178       2017/78242820  ALVARADO VASQUEZ  AN00000000640000000000000000000000000000000000000000000001922019122120200110122540500700075PENSION DIC 2019 COL  *
D081777997014  00161052039       2017/78241025  ALVARADO VASQUEZ  KE00000000576000000000000000000000000000000000000000000003542019113020200110122540500700076PENSION NOV 2019 COL  *
D081777997014  00161052039       2017/78242267  ALVARADO VASQUEZ  KE00000000576000000000000000000000000000000000000000000001732019122120200110122540500700076PENSION DIC 2019 COL  *
D081777997014  00173146820       2017/78237303  CUTISACA SALDARRIAGA00000000576000000000000000000000000000000000000000000011402019083120200110122540500700081PENSION AGO 2019 COL  *
D081777997014  00173146820       2017/78238388  CUTISACA SALDARRIAGA00000000576000000000000000000000000000000000000000000008812019093020200110122540500700081PENSION SEP 2019 COL  *
D081777997014  00177855942       2017/78236874  CUTISACA SALDARRIAGA00000000504000000000000000000000000000000000000000000009982019083120200110122540500700083PENSION AGO 2019 COL  *
D081777997014  00177855942       2017/78239216  CUTISACA SALDARRIAGA00000000504000000000000000000000000000000000000000000007712019093020200110122540500700083PENSION SEP 2019 COL  *
D081777997014  00173845051       2017/78238022  CUTISACA SALDARRIAGA00000000576000000000000000000000000000000000000000000011402019083120200110122540500700084PENSION AGO 2019 COL  *
D081777997014  00173845051       2017/78239164  CUTISACA SALDARRIAGA00000000576000000000000000000000000000000000000000000008812019093020200110122540500700084PENSION SEP 2019 COL  *
D081777997014  00177403005       2017/159840    DIAZ RIVERO  ALEJAND00000000550000000000000000000000000000000000000000000001652019122120200110126910500700009PENSION DIC 2019 SJL  *
D081777997014  00178435018       2017/156505    ARENAS URQUIA  KATHE00000000560000000000000000000000000000000000000000000008572019093020200110126910500700015PENSION SEP 2019 SJL  *
D081777997014  00178435018       2017/157659    ARENAS URQUIA  KATHE00000000560000000000000000000000000000000000000000000005962019103120200110126910500700015PENSION OCT 2019 SJL  *
D081777997014  00178435018       2017/158631    ARENAS URQUIA  KATHE00000000560000000000000000000000000000000000000000000003442019113020200110126910500700015PENSION NOV 2019 SJL  *
D081777997014  00178435018       2017/159596    ARENAS URQUIA  KATHE00000000560000000000000000000000000000000000000000000001682019122120200110126910500700015PENSION DIC 2019 SJL  *
D081777997014  00177411561       2017/154588    MALDONADO CASTILLO  00000000495000000000000000000000000000000000000000000012102019073120200110126910500700055PENSION JUL 2019 SJL  *
D081777997014  00177411561       2017/155967    MALDONADO CASTILLO  00000000495000000000000000000000000000000000000000000009802019083120200110126910500700055PENSION AGO 2019 SJL  *
D081777997014  00177411561       2017/156989    MALDONADO CASTILLO  00000000495000000000000000000000000000000000000000000007572019093020200110126910500700055PENSION SEP 2019 SJL  *
D081777997014  00177411561       2017/158011    MALDONADO CASTILLO  00000000495000000000000000000000000000000000000000000005272019103120200110126910500700055PENSION OCT 2019 SJL  *
D081777997014  00177411561       2017/159190    MALDONADO CASTILLO  00000000495000000000000000000000000000000000000000000003042019113020200110126910500700055PENSION NOV 2019 SJL  *
D081777997014  00177411561       2017/160046    MALDONADO CASTILLO  00000000495000000000000000000000000000000000000000000001492019122120200110126910500700055PENSION DIC 2019 SJL  *
D081777997014  00173772618       2017/78242009  BECERRA ACOSTA  MELA00000000640000000000000000000000000000000000000000000001922019122120200110227844651001104PENSION DIC 2019 COL  *
D081777997014  00173601298       2017/159480    GRANDEZ TORRES  EVEN00000000540000000000000000000000000000000000000000000003322019113020200110227844651001412PENSION NOV 2019 SJL  *
D081777997014  00173601298       2017/160342    GRANDEZ TORRES  EVEN00000000540000000000000000000000000000000000000000000001622019122120200110227844651001424PENSION DIC 2019 SJL  *
D081777997014  00175301231       2017/78242520  PUICON VILLALOBOS  M00000000576000000000000000000000000000000000000000000001732019122120200110227844651008430PENSION DIC 2019 COL  *
D081777997014  00177739998       2017/78242882  PUICON VILLALOBOS  D00000000560000000000000000000000000000000000000000000001682019122120200110227844651008431PENSION DIC 2019 COL  *
D081777997014  00170484675       2017/156063    SOLLER MERCADO  ALDO00000000540000000000000000000000000000000000000000000010692019083120200110129240500700003PENSION AGO 2019 SJL  *
D081777997014  00174103697       2017/159696    VILCAPUMA GARCIA  SA00000000550000000000000000000000000000000000000000000001652019122120200110129340500700002PENSION DIC 2019 SJL  *
D081777997014  00177240365       2017/160420    VILCAPUMA GARCIA  AN00000000486000000000000000000000000000000000000000000001462019122120200110129340500700003PENSION DIC 2019 SJL  *
D081777997014  00177642560       2017/159868    VALENCIA GALVEZ  KIA00000000495000000000000000000000000000000000000000000001492019122120200110129470500700085PENSION DIC 2019 SJL  *
D081777997014  00174712130       2017/80014965  ALVEAR HUAMAN  ARIAN00000000540000000000000000000000000000000000000000000001622019122120200110129470500700086PENSION DIC 2019 CAR  *
T081777997014  00101PENSION                       081777997014  000000000823649                                                                                                    *
T081777997014  00102PENSION SAN JUAN              081777997014  000000001177700                                                                                                    *
T081777997014  00103PENSION                       081777997014  000000000054162                                                                                                    *
H081777997014  003000001800000000102880000000000000020200110                                                                                                                       *
D081777997014  00379158320       2017/78244316  INGA TICONA  STEVEN 00000000570000000000000000000000000000000000000000000000002020013120200110122540500700011MATRICULA COL         *
D081777997014  00371357550       2017/78244315  INGA TICONA  DIEGO A00000000670000000000000000000000000000000000000000000000002020013120200110122540500700012MATRICULA COL         *
D081777997014  00372782774       2017/78244255  VERA MORI  CAMILA AL00000000670000000000000000000000000000000000000000000000002020013120200110122540500700020MATRICULA COL         *
D081777997014  00372779973       2017/78244256  VERA MORI  GEORGETTE00000000670000000000000000000000000000000000000000000000002020013120200110122540500700021MATRICULA COL         *
D081777997014  00379366729       2017/78244306  IZAGUIRRE CCOYCCA  G00000000570000000000000000000000000000000000000000000000002020013120200110122540500700098MATRICULA COL         *
D081777997014  00373407305       2017/78244307  IZAGUIRRE CCOYCCA  M00000000670000000000000000000000000000000000000000000000002020013120200110122540500700101MATRICULA COL         *
D081777997014  00361046105       2017/78244322  RODRIGUEZ YLLESCAS  00000000670000000000000000000000000000000000000000000000002020013120200110122540500700103MATRICULA COL         *
D081777997014  00370964289       2017/161664    MIRAVAL SANCHEZ  JUL00000000570000000000000000000000000000000000000000000000002020013120200110126860500700005INSCRIPCION SJL       *
D081777997014  00378442273       2017/161670    ROJAS TINEO  VALERIA00000000175000000000000000000000000000000000000000000000002020013120200110127420500700041INSCRIPCION SJL       *
D081777997014  00378442273       2017/161671    ROJAS TINEO  VALERIA00000000570000000000000000000000000000000000000000000000002020013120200110127420500700041INSCRIPCION SJL       *
D081777997014  00381551464       2017/161651    VILCA PORTILLA  SOL 00000000570000000000000000000000000000000000000000000000002020013120200110127420500700092INSCRIPCION SJL       *
D081777997014  00378437619       2017/161681    SIMEON IZQUIERDO  RE00000000570000000000000000000000000000000000000000000000002020013120200110127420500700119INSCRIPCION SJL       *
D081777997014  00361360492       2017/161682    SIMEON IZQUIERDO  RO00000000570000000000000000000000000000000000000000000000002020013120200110127420500700121INSCRIPCION SJL       *
D081777997014  00373262180       2017/78244313  COTILLO URIBE  TIFFA00000000603000000000000000000000000000000000000000000000002020013120200110227844651006229MATRICULA COL         *
D081777997014  00378497721       2017/78244310  MEJIA CANTARO  SALVA00000000350000000000000000000000000000000000000000000000002020013120200110227844651006571INSCRIPCION COL       *
D081777997014  00378497721       2017/78244311  MEJIA CANTARO  SALVA00000000580000000000000000000000000000000000000000000000002020013120200110227844651006572MATRICULA COL         *
D081777997014  00370528500       2017/161668    MONTORO CONDORI  JUL00000000570000000000000000000000000000000000000000000000002020013120200110227844651010354INSCRIPCION SJL       *
D081777997014  00362571889       2017/78244324  MORALES SANDOVAL  JO00000000670000000000000000000000000000000000000000000000002020013120200110227844651011821MATRICULA COL         *
T081777997014  00304MATRICULA                     081777997014  000000000634300                                                                                                    *
T081777997014  00305DERECHO DE INGRESO LIM 2018   081777997014  000000000035000                                                                                                    *
T081777997014  00306MATRICULA SJL - PREMATRICULA  081777997014  000000000342000                                                                                                    *
T081777997014  00307DERECHO DE INGRESO SJL 2019   081777997014  000000000017500                                                                                                    *
H081777997014  007000000100000000000250000000000000020200110                                                                                                                       *
D081777997014  00771696971       FF20/87        CARREAL GOMEZ  MILEN00000000025000000000000000000000000000000000000000000000002020013120200110121830500700004EXCELENCIA ACAD SJL   *
T081777997014  00761EXCELENCIA ACAD SJL           081777997014  000000000002500                                                                                                    *
H081777997014  008000000100000000000250000000000000020200110                                                                                                                       *
D081777997014  00860917954       FF20/111       PULIDO MANRIQUE  ALV00000000025000000000000000000000000000000000000000000000002020013120200110122470500700160CERT CONDUCTA SJL EN  *
T081777997014  00862CERT CONDUCTA SJL             081777997014  000000000002500                                                                                                    *
H081777997014  009000000600000000003600000000000000020200110                                                                                                                       *
D081777997014  00972557903       FF20/86        CAYLLAHUA SOTO  OMAR00000000060000000000000000000000000000000000000000000000002020013120200110120140500700040CERT ESTUDIO COL ENE  *
D081777997014  00971696971       FF20/88        CARREAL GOMEZ  MILEN00000000060000000000000000000000000000000000000000000000002020013120200110121830500700004CERT ESTUDIOS SJL EN  *
D081777997014  00975999525       FF20/109       CONTRERAS ESPINOZA  00000000060000000000000000000000000000000000000000000000002020013120200110122130500700143CERT ESTUDIOS SJL EN  *
D081777997014  00960917954       FF20/110       PULIDO MANRIQUE  ALV00000000060000000000000000000000000000000000000000000000002020013120200110122470500700161CERT ESTUDIOS SJL EN  *
D081777997014  00971246524       FF20/89        ALARCON GUTIERREZ  M00000000060000000000000000000000000000000000000000000000002020013120200110126610500700007CERT ESTUDIO COL ENE  *
D081777997014  00977877003       FF20/72        MEDINA CUSIHUAMAN  A00000000060000000000000000000000000000000000000000000000002020013120200110127420500700061CERT ESTUDIOS SJL EN  *
T081777997014  00929CERT ESTUDIO-COL              081777997014  000000000012000                                                                                                    *
T081777997014  00963CERT ESTUDIOS SJL             081777997014  000000000024000                                                                                                    *
H081777997014  012000000100000000000300000000000000020200110                                                                                                                       *
D081777997014  01276313661       FF20/70        KOJIRA LOJA  MIGUEL 00000000030000000000000000000000000000000000000000000000002020013120200110127420500700012PRA ACAD SJL ENE 202  *
T081777997014  01266PRA ACAD SJL                  081777997014  000000000003000                                                                                                    *
