H081777997014  001000003000000000188372400000000000020200309                                                                                                                       *
D081777997014  00172811125       2017/78231255  LIMAY ROJAS  DANIELA00000000576000000000000000000000000000000000000000000029722019033120200309120140500700001PENSION MAR 2019 COL  *
D081777997014  00172811125       2017/78232513  LIMAY ROJAS  DANIELA00000000576000000000000000000000000000000000000000000027132019043020200309120140500700001PENSION ABR 2019 COL  *
D081777997014  00172811125       2017/78233737  LIMAY ROJAS  DANIELA00000000576000000000000000000000000000000000000000000024452019053120200309120140500700001PENSION MAY 2019 COL  *
D081777997014  00172811125       FF19/1618      LIMAY ROJAS  DANIELA00000000640000000000000000000000000000000000000000000024292019063020200309120140500700001PENSION JUN 2019 COL  *
D081777997014  00172811125       FF19/1619      LIMAY ROJAS  DANIELA00000000640000000000000000000000000000000000000000000021312019073120200309120140500700001PENSION JUL 2019 COL  *
D081777997014  00172811125       FF19/1620      LIMAY ROJAS  DANIELA00000000640000000000000000000000000000000000000000000018342019083120200309120140500700001PENSION AGO 2019 COL  *
D081777997014  00172811125       FF19/1621      LIMAY ROJAS  DANIELA00000000640000000000000000000000000000000000000000000015462019093020200309120140500700001PENSION SEP 2019 COL  *
D081777997014  00172811125       FF19/1622      LIMAY ROJAS  DANIELA00000000640000000000000000000000000000000000000000000012482019103120200309120140500700001PENSION OCT 2019 COL  *
D081777997014  00172811125       FF19/1623      LIMAY ROJAS  DANIELA00000000640000000000000000000000000000000000000000000009602019113020200309120140500700001PENSION NOV 2019 COL  *
D081777997014  00172811125       FF19/1624      LIMAY ROJAS  DANIELA00000000640000000000000000000000000000000000000000000007582019122120200309120140500700001PENSION DIC 2019 COL  *
D081777997014  00172811116       2017/78231031  LIMAY ROJAS  ARIANNA00000000576000000000000000000000000000000000000000000029722019033120200309120140500700005PENSION MAR 2019 COL  *
D081777997014  00172811116       2017/78232216  LIMAY ROJAS  ARIANNA00000000576000000000000000000000000000000000000000000027132019043020200309120140500700005PENSION ABR 2019 COL  *
D081777997014  00172811116       2017/78233539  LIMAY ROJAS  ARIANNA00000000576000000000000000000000000000000000000000000024452019053120200309120140500700005PENSION MAY 2019 COL  *
D081777997014  00172811116       FF19/1611      LIMAY ROJAS  ARIANNA00000000640000000000000000000000000000000000000000000024292019063020200309120140500700005PENSION JUN 2019 COL  *
D081777997014  00172811116       FF19/1612      LIMAY ROJAS  ARIANNA00000000640000000000000000000000000000000000000000000021312019073120200309120140500700005PENSION JUL 2019 COL  *
D081777997014  00172811116       FF19/1613      LIMAY ROJAS  ARIANNA00000000640000000000000000000000000000000000000000000018342019083120200309120140500700005PENSION AGO 2019 COL  *
D081777997014  00172811116       FF19/1614      LIMAY ROJAS  ARIANNA00000000640000000000000000000000000000000000000000000015462019093020200309120140500700005PENSION SEP 2019 COL  *
D081777997014  00172811116       FF19/1615      LIMAY ROJAS  ARIANNA00000000640000000000000000000000000000000000000000000012482019103120200309120140500700005PENSION OCT 2019 COL  *
D081777997014  00172811116       FF19/1616      LIMAY ROJAS  ARIANNA00000000640000000000000000000000000000000000000000000009602019113020200309120140500700005PENSION NOV 2019 COL  *
D081777997014  00172811116       FF19/1617      LIMAY ROJAS  ARIANNA00000000640000000000000000000000000000000000000000000007582019122120200309120140500700005PENSION DIC 2019 COL  *
D081777997014  00174517031       2017/78234902  ROJAS QUISPE  STEVE 00000000640000000000000000000000000000000000000000000024292019063020200309121770500700007PENSION JUN 2019 COL  *
D081777997014  00174517031       2017/78236439  ROJAS QUISPE  STEVE 00000000640000000000000000000000000000000000000000000021312019073120200309121770500700007PENSION JUL 2019 COL  *
D081777997014  00174517031       2017/78237727  ROJAS QUISPE  STEVE 00000000640000000000000000000000000000000000000000000018342019083120200309121770500700007PENSION AGO 2019 COL  *
D081777997014  00174517031       2017/78238869  ROJAS QUISPE  STEVE 00000000640000000000000000000000000000000000000000000015462019093020200309121770500700007PENSION SEP 2019 COL  *
D081777997014  00176568335       2017/160762    QUILLAS LEON  LIZ AN00000000540000000000000000000000000000000000000000000015472019083120200309122470500700071PENSION AGO 2019 SJL  *
D081777997014  00176568335       2017/160761    QUILLAS LEON  LIZ AN00000000540000000000000000000000000000000000000000000013042019093020200309122470500700071PENSION SEP 2019 SJL  *
D081777997014  00176568335       2017/160763    QUILLAS LEON  LIZ AN00000000540000000000000000000000000000000000000000000010532019103120200309122470500700071PENSION OCT 2019 SJL  *
D081777997014  00176568335       2017/160764    QUILLAS LEON  LIZ AN00000000540000000000000000000000000000000000000000000008102019113020200309122470500700071PENSION NOV 2019 SJL  *
D081777997014  00176568335       2017/160765    QUILLAS LEON  LIZ AN00000000540000000000000000000000000000000000000000000006402019122120200309122470500700071PENSION DIC 2019 SJL  *
D081777997014  00174935652       2017/78242122  FONSECA SALAZAR  MAR00000000640000000000000000000000000000000000000000000007582019122120200309122540500700017PENSION DIC 2019 COL  *
T081777997014  00101PENSION                       081777997014  000000001608370                                                                                                    *
T081777997014  00102PENSION SAN JUAN              081777997014  000000000275354                                                                                                    *
H081777997014  003000000600000000034900000000000000020200309                                                                                                                       *
D081777997014  00374345955       2017/80016636  CABANILLAS ESPINOZA 00000000560000000000000000000000000000000000000000000000002020033120200309122030500700025INSCRIPCION CAR       *
D081777997014  00374086574       2017/80016637  CABANILLAS ESPINOZA 00000000550000000000000000000000000000000000000000000000002020033120200309122030500700026INSCRIPCION CAR       *
D081777997014  00374129862       2017/78245193  CAMPODONICO ALCALDE 00000000670000000000000000000000000000000000000000000000002020033120200309122540500700087MATRICULA COL         *
D081777997014  00374186327       2017/162299    RAMOS LEANDRO  SHIOR00000000570000000000000000000000000000000000000000000000002020033120200309126910500700008MATRICULA SJL         *
D081777997014  00377365842       2017/162301    AGUERO ERQUINIO  JEA00000000570000000000000000000000000000000000000000000000002020033120200309126910500700040MATRICULA SJL         *
D081777997014  00361494306       2017/162300    AGUERO ERQUINIO  RON00000000570000000000000000000000000000000000000000000000002020033120200309126910500700041MATRICULA SJL         *
T081777997014  00304MATRICULA                     081777997014  000000000067000                                                                                                    *
T081777997014  00306MATRICULA SJL 2020            081777997014  000000000171000                                                                                                    *
T081777997014  00308MATRICULA 2020 CARABAYLLO     081777997014  000000000111000                                                                                                    *
