H081777997014  001000004700000000258602800000000000020200123                                                                                                                       *
D081777997014  00172911352       2017/78242957  VENEGAS VENEGAS  ADO00000000576000000000000000000000000000000000000000000009942019093020200123220140500700014PENSION SEP 2019 COL  *
D081777997014  00172911352       2017/78242958  VENEGAS VENEGAS  ADO00000000576000000000000000000000000000000000000000000007262019103120200123220140500700014PENSION OCT 2019 COL  *
D081777997014  00172911352       2017/78242959  VENEGAS VENEGAS  ADO00000000576000000000000000000000000000000000000000000004672019113020200123220140500700014PENSION NOV 2019 COL  *
D081777997014  00172911352       2017/78242960  VENEGAS VENEGAS  ADO00000000288000000000000000000000000000000000000000000001432019122120200123220140500700014PENSION DIC 2019 COL  *
D081777997014  00175852646       2017/80011985  PULACHE CRUZ  STEFAN00000000540000000000000000000000000000000000000000000016772019063020200123120160500700060PENSION JUN 2019 CAR  *
D081777997014  00175852646       2017/80012604  PULACHE CRUZ  STEFAN00000000540000000000000000000000000000000000000000000014262019073120200123120160500700060PENSION JUL 2019 CAR  *
D081777997014  00175852646       2017/80012894  PULACHE CRUZ  STEFAN00000000540000000000000000000000000000000000000000000011752019083120200123120160500700060PENSION AGO 2019 CAR  *
D081777997014  00175852646       2017/80013538  PULACHE CRUZ  STEFAN00000000540000000000000000000000000000000000000000000009322019093020200123120160500700060PENSION SEP 2019 CAR  *
D081777997014  00175852646       2017/80013888  PULACHE CRUZ  STEFAN00000000540000000000000000000000000000000000000000000006802019103120200123120160500700060PENSION OCT 2019 CAR  *
D081777997014  00175852646       2017/80014565  PULACHE CRUZ  STEFAN00000000540000000000000000000000000000000000000000000004372019113020200123120160500700060PENSION NOV 2019 CAR  *
D081777997014  00175852646       2017/80014931  PULACHE CRUZ  STEFAN00000000540000000000000000000000000000000000000000000002672019122120200123120160500700060PENSION DIC 2019 CAR  *
D081777997014  00170955590       2017/80013236  ORTIZ ESQUIVEL  GABR00000000550000000000000000000000000000000000000000000011962019083120200123120190500700132PENSION AGO 2019 CAR  *
D081777997014  00170955590       2017/80013713  ORTIZ ESQUIVEL  GABR00000000550000000000000000000000000000000000000000000009492019093020200123120190500700132PENSION SEP 2019 CAR  *
D081777997014  00170955590       2017/80014190  ORTIZ ESQUIVEL  GABR00000000550000000000000000000000000000000000000000000006932019103120200123120190500700132PENSION OCT 2019 CAR  *
D081777997014  00170955590       2017/80014612  ORTIZ ESQUIVEL  GABR00000000550000000000000000000000000000000000000000000004462019113020200123120190500700133PENSION NOV 2019 CAR  *
D081777997014  00178891665       2017/80015487  CASTANEDA RODRIGUEZ 00000000392000000000000000000000000000000000000000000008532019083120200123220210500700016PENSION AGO 2019 CAR  *
D081777997014  00178891665       2017/80015488  CASTANEDA RODRIGUEZ 00000000392000000000000000000000000000000000000000000006762019093020200123220210500700016PENSION SEP 2019 CAR  *
D081777997014  00178891665       2017/80015489  CASTANEDA RODRIGUEZ 00000000392000000000000000000000000000000000000000000004942019103120200123220210500700017PENSION OCT 2019 CAR  *
D081777997014  00160853917       2017/158504    MALLMA VALENCIA  GRA00000000540000000000000000000000000000000000000000000004372019113020200123122470500700016PENSION NOV 2019 SJL  *
D081777997014  00160853917       2017/160388    MALLMA VALENCIA  GRA00000000540000000000000000000000000000000000000000000002672019122120200123122470500700017PENSION DIC 2019 SJL  *
D081777997014  00170531126       2017/78242197  ANCHAYHUA CAPCHA  GI00000000640000000000000000000000000000000000000000000003172019122120200123122540500700068PENSION DIC 2019 COL  *
D081777997014  00176199402       2017/78237459  RAMIREZ SILVA  ALEXA00000000640000000000000000000000000000000000000000000013922019083120200123122540500700091PENSION AGO 2019 COL  *
D081777997014  00176199402       2017/78238581  RAMIREZ SILVA  ALEXA00000000640000000000000000000000000000000000000000000011042019093020200123122540500700091PENSION SEP 2019 COL  *
D081777997014  00176199402       2017/78240461  RAMIREZ SILVA  ALEXA00000000640000000000000000000000000000000000000000000008062019103120200123122540500700091PENSION OCT 2019 COL  *
D081777997014  00176199402       2017/78241031  RAMIREZ SILVA  ALEXA00000000640000000000000000000000000000000000000000000005182019113020200123122540500700091PENSION NOV 2019 COL  *
D081777997014  00170595931       2017/80013889  CUEVA CHUMBIRAY  ROM00000000459000000000000000000000000000000000000000000005782019103120200123122640500700016PENSION OCT 2019 CAR  *
D081777997014  00170595931       2017/80014566  CUEVA CHUMBIRAY  ROM00000000459000000000000000000000000000000000000000000003722019113020200123122640500700016PENSION NOV 2019 CAR  *
D081777997014  00170595931       2017/80014932  CUEVA CHUMBIRAY  ROM00000000459000000000000000000000000000000000000000000002272019122120200123122640500700016PENSION DIC 2019 CAR  *
D081777997014  00170831871       2017/160326    VILLAFUERTE HUAMAN  00000000540000000000000000000000000000000000000000000002672019122120200123122660500700096PENSION DIC 2019 SJL  *
D081777997014  00177550854       2017/78241535  COLAN LEONARDO  ALLI00000000640000000000000000000000000000000000000000000005182019113020200123123040500700004PENSION NOV 2019 COL  *
D081777997014  00175637983       2017/78237711  ZARATE SANTAMARIA  T00000000640000000000000000000000000000000000000000000013922019083120200123126610500700008PENSION AGO 2019 COL  *
D081777997014  00175637983       2017/78238853  ZARATE SANTAMARIA  T00000000640000000000000000000000000000000000000000000011042019093020200123126610500700008PENSION SEP 2019 COL  *
D081777997014  00170630676       2017/78242102  ECHE BANCAYAN  CRIST00000000640000000000000000000000000000000000000000000003172019122120200123126610500700099PENSION DIC 2019 COL  *
D081777997014  00176470498       2017/156366    MORI CASTILLO  GADIE00000000540000000000000000000000000000000000000000000011752019083120200123126860500700004PENSION AGO 2019 SJL  *
D081777997014  00176470498       2017/157388    MORI CASTILLO  GADIE00000000540000000000000000000000000000000000000000000009322019093020200123126860500700004PENSION SEP 2019 SJL  *
D081777997014  00161423315       2017/153978    CORILLA SAIRITUPAC  00000000550000000000000000000000000000000000000000000017082019063020200123126860500700007PENSION JUN 2019 SJL  *
D081777997014  00161423315       2017/154643    CORILLA SAIRITUPAC  00000000550000000000000000000000000000000000000000000014522019073120200123126860500700007PENSION JUL 2019 SJL  *
D081777997014  00161423315       2017/156022    CORILLA SAIRITUPAC  00000000550000000000000000000000000000000000000000000011962019083120200123126860500700007PENSION AGO 2019 SJL  *
D081777997014  00173105479       2017/133869    RAVICHAGUA SANTOS  G00000000510000000000000000000000000000000000000000000034352018103120200123127420500700042PENSION OCT 2018 SJL  *
D081777997014  00173105479       2017/135380    RAVICHAGUA SANTOS  G00000000510000000000000000000000000000000000000000000032052018113020200123127420500700042PENSION NOV 2018 SJL  *
D081777997014  00173105479       2017/137501    RAVICHAGUA SANTOS  G00000000510000000000000000000000000000000000000000000030452018122120200123127420500700042PENSION DIC 2018 SJL  *
D081777997014  00177774645       2017/78242922  SAYAN BENAVENTE  SAN00000000560000000000000000000000000000000000000000000002772019122120200123227844651001598PENSION DIC 2019 COL  *
D081777997014  00172999215       2017/78242650  CANO QUITO  KIARA VA00000000640000000000000000000000000000000000000000000003172019122120200123227844651009310PENSION DIC 2019 COL  *
D081777997014  00172215224       2017/159367    CORTEZ URRUTIA  ALEJ00000000486000000000000000000000000000000000000000000003942019113020200123227844651011337PENSION NOV 2019 SJL  *
D081777997014  00172215224       2017/160199    CORTEZ URRUTIA  ALEJ00000000486000000000000000000000000000000000000000000002412019122120200123227844651011338PENSION DIC 2019 SJL  *
D081777997014  00172215232       2017/159325    CORTEZ URRUTIA  AIDA00000000540000000000000000000000000000000000000000000004372019113020200123227844651011779PENSION NOV 2019 SJL  *
D081777997014  00172215232       2017/160203    CORTEZ URRUTIA  AIDA00000000540000000000000000000000000000000000000000000002672019122120200123227844651011780PENSION DIC 2019 SJL  *
T081777997014  00101PENSION                       081777997014  000000000907992                                                                                                    *
T081777997014  00102PENSION SAN JUAN              081777997014  000000000811658                                                                                                    *
T081777997014  00103PENSION                       081777997014  000000000866378                                                                                                    *
H081777997014  003000001900000000105600000000000000020200123                                                                                                                       *
D081777997014  00378089328       2017/78244483  TORPOCO BENDEZU  MAT00000000580000000000000000000000000000000000000000000000002020013120200123120140500700003MATRICULA COL         *
D081777997014  00378154080       2017/161828    RIVERA DAGA  MARIEL 00000000570000000000000000000000000000000000000000000000002020013120200123120580500700022MATRICULA SJL         *
D081777997014  00378154080       2017/161829    RIVERA DAGA  MARIEL 00000000350000000000000000000000000000000000000000000000002020013120200123120580500700022INSCRIPCION SJL       *
D081777997014  00377364786       2017/161846    MONTALVAN ORELLANA  00000000570000000000000000000000000000000000000000000000002020013120200123121350500700093MATRICULA SJL         *
D081777997014  00360917742       2017/78244458  MALPICA AGUILAR  ANT00000000670000000000000000000000000000000000000000000000002020013120200123121770500700001MATRICULA COL         *
D081777997014  00372834813       2017/78244459  MALPICA AGUILAR  MAD00000000670000000000000000000000000000000000000000000000002020013120200123121770500700003MATRICULA COL         *
D081777997014  00374873103       2017/78244494  ELESCANO CAMPOS  JAR00000000670000000000000000000000000000000000000000000000002020013120200123122160500700119MATRICULA COL         *
D081777997014  00371319761       2017/78244338  ACUNA BARZOLA  ALEXI00000000670000000000000000000000000000000000000000000000002020013120200123222540500700013MATRICULA COL         *
D081777997014  00372976399       2017/78244495  LIVIA VALDEZ  ANEL V00000000670000000000000000000000000000000000000000000000002020013120200123122540500700034MATRICULA COL         *
D081777997014  00378341472       2017/78244457  GARAVITO BALTODANO  00000000350000000000000000000000000000000000000000000000002020013120200123122540500700084INSCRIPCION COL       *
D081777997014  00378599234       2017/161787    GUEVARA CABREJOS  AI00000000570000000000000000000000000000000000000000000000002020013120200123126910500700017MATRICULA SJL         *
D081777997014  00371271582       2017/161788    GUEVARA CABREJOS  LU00000000570000000000000000000000000000000000000000000000002020013120200123126910500700019MATRICULA SJL         *
D081777997014  00390026441       2017/161849    PILLACA CASTRO  SANT00000000570000000000000000000000000000000000000000000000002020013120200123126910500700053MATRICULA SJL         *
D081777997014  00361333448       2017/161819    HURTADO MADUENO  NIL00000000570000000000000000000000000000000000000000000000002020013120200123127420500700028MATRICULA SJL         *
D081777997014  00361333448       2017/161820    HURTADO MADUENO  NIL00000000350000000000000000000000000000000000000000000000002020013120200123127420500700029INSCRIPCION SJL       *
D081777997014  00378482518       2017/161832    VILCHEZ GRANADOS  FA00000000350000000000000000000000000000000000000000000000002020013120200123127420500700038INSCRIPCION SJL       *
D081777997014  00378482518       2017/161833    VILCHEZ GRANADOS  FA00000000570000000000000000000000000000000000000000000000002020013120200123127420500700039MATRICULA SJL         *
D081777997014  00372988690       2017/78244456  RAMOS ARCE  JOHN FIT00000000670000000000000000000000000000000000000000000000002020013120200123227844651009004MATRICULA COL         *
D081777997014  00361044423       2017/161798    ROSALES ALARCON  ALE00000000570000000000000000000000000000000000000000000000002020013120200123129470500700115MATRICULA SJL         *
T081777997014  00304MATRICULA                     081777997014  000000000460000                                                                                                    *
T081777997014  00305DERECHO DE INGRESO COL        081777997014  000000000035000                                                                                                    *
T081777997014  00306MATRICULA SJL 2020            081777997014  000000000456000                                                                                                    *
T081777997014  00307DERECHO DE INGRESO SJL 2018   081777997014  000000000105000                                                                                                    *
H081777997014  009000000800000000004800000000000000020200123                                                                                                                       *
D081777997014  00975890061       FF20/255       TORPOCO BENDEZU  ABI00000000060000000000000000000000000000000000000000000000002020013120200123120140500700001CERT ESTUDIO COL ENE  *
D081777997014  00975638335       FF20/254       TORPOCO BENDEZU  HAR00000000060000000000000000000000000000000000000000000000002020013120200123120140500700002CERT ESTUDIO COL ENE  *
D081777997014  00977751712       FF20/250       CALIZAYA LOPEZ  AARO00000000060000000000000000000000000000000000000000000000002020013120200123120700500700083CERT ESTUDIOS SJL EN  *
D081777997014  00970719486       FF20/243       ROCHA CALDERON  IVAN00000000060000000000000000000000000000000000000000000000002020013120200123126610500700031CERT ESTUDIO COL ENE  *
D081777997014  00975341271       FF20/262       PEREZ MEDINA  ANA CA00000000060000000000000000000000000000000000000000000000002020013120200123127420500700048CERT ESTUDIOS SJL EN  *
D081777997014  00975198779       FF20/246       PANTIGOSO RIVERA  CA00000000060000000000000000000000000000000000000000000000002020013120200123227844651003212CERT ESTUDIO COL ENE  *
D081777997014  00971154878       FF20/263       ROSALES ESPINOZA  FA00000000060000000000000000000000000000000000000000000000002020013120200123227844651009431CERT ESTUDIOS CAR EN  *
D081777997014  00976497732       FF20/264       ROSALES ESPINOZA  LU00000000060000000000000000000000000000000000000000000000002020013120200123227844651009463CERT ESTUDIOS CAR EN  *
T081777997014  00929CERT ESTUDIO-COL              081777997014  000000000024000                                                                                                    *
T081777997014  00963CERT ESTUDIOS SJL             081777997014  000000000012000                                                                                                    *
T081777997014  00999CERT ESTUDIOS-CAR             081777997014  000000000012000                                                                                                    *
H081777997014  010000000100000000000300000000000000020200123                                                                                                                       *
D081777997014  01070719486       FF20/242       ROCHA CALDERON  IVAN00000000030000000000000000000000000000000000000000000000002020013120200123126610500700031CCIA NO ADEUDO COL E  *
T081777997014  01028CCIA NO ADEUDO COL            081777997014  000000000003000                                                                                                    *
H081777997014  012000000400000000001500000000000000020200123                                                                                                                       *
D081777997014  01274870945       FF20/19        GARCIA DIAZ  CARLOS 00000000060000000000000000000000000000000000000000000000002020013120200123122240500700017PRA ACAD COLONIAL EN  *
D081777997014  01274870959       FF20/20        GARCIA DIAZ  ARIANA 00000000030000000000000000000000000000000000000000000000002020013120200123122240500700018PRA ACAD COLONIAL EN  *
D081777997014  01261422182       FF20/249       APARCO SAAVEDRA  MAU00000000030000000000000000000000000000000000000000000000002020013120200123122470500700023PRA ACAD SJL ENE 202  *
D081777997014  01272587000       FF20/247       PANTIGOSO RIVERA  MA00000000030000000000000000000000000000000000000000000000002020013120200123227844651003254PRA ACAD COLONIAL EN  *
T081777997014  01230PRA ACAD COLONIAL             081777997014  000000000012000                                                                                                    *
T081777997014  01266PRA ACAD SJL                  081777997014  000000000003000                                                                                                    *
