H081777997014  001000001400000000069559200000000000020200311                                                                                                                       *
D081777997014  00161471663       2017/78245218  GUTIERREZ COLACHAHUA00000000335000000000000000000000000000000000000000000000002020121920200311120340500700041PENSION DIC 2020 COL  *
D081777997014  00173282870       2017/80015365  HUBY HUILLCA  ARIANN00000000385000000000000000000000000000000000000000000000002020063020200311122030500700055PENSION JUN 2019 CAR  *
D081777997014  00173282870       2017/80015366  HUBY HUILLCA  ARIANN00000000385000000000000000000000000000000000000000000000002020073120200311122030500700055PENSION JUL 2019 CAR  *
D081777997014  00173282870       2017/80015367  HUBY HUILLCA  ARIANN00000000385000000000000000000000000000000000000000000000002020083120200311122030500700055PENSION AGO 2019 CAR  *
D081777997014  00173282870       2017/80015368  HUBY HUILLCA  ARIANN00000000385000000000000000000000000000000000000000000000002020093020200311122030500700055PENSION SEP 2019 CAR  *
D081777997014  00173282870       2017/80015369  HUBY HUILLCA  ARIANN00000000385000000000000000000000000000000000000000000000002020103120200311122030500700055PENSION OCT 2019 CAR  *
D081777997014  00173282870       2017/80015370  HUBY HUILLCA  ARIANN00000000385000000000000000000000000000000000000000000000002020113020200311122030500700055PENSION NOV 2019 CAR  *
D081777997014  00173282870       2017/80015371  HUBY HUILLCA  ARIANN00000000385000000000000000000000000000000000000000000000002020122120200311122030500700055PENSION DIC 2019 CAR  *
D081777997014  00170592623       2017/78235845  OLORTEGUI ANAYA  ART00000000640000000000000000000000000000000000000000000021502019073120200311222240500700002PENSION JUL 2019 COL  *
D081777997014  00170592623       2017/78237215  OLORTEGUI ANAYA  ART00000000640000000000000000000000000000000000000000000018532019083120200311222240500700002PENSION AGO 2019 COL  *
D081777997014  00170592623       2017/78238275  OLORTEGUI ANAYA  ART00000000640000000000000000000000000000000000000000000015652019093020200311222240500700002PENSION SEP 2019 COL  *
D081777997014  00170592623       2017/78240143  OLORTEGUI ANAYA  ART00000000640000000000000000000000000000000000000000000012672019103120200311222240500700002PENSION OCT 2019 COL  *
D081777997014  00170592623       2017/78240697  OLORTEGUI ANAYA  ART00000000640000000000000000000000000000000000000000000009792019113020200311222240500700002PENSION NOV 2019 COL  *
D081777997014  00170592623       2017/78241793  OLORTEGUI ANAYA  ART00000000640000000000000000000000000000000000000000000007782019122120200311222240500700002PENSION DIC 2019 COL  *
T081777997014  00101PENSION                       081777997014  000000000426092                                                                                                    *
T081777997014  00103PENSION                       081777997014  000000000269500                                                                                                    *
H081777997014  003000000500000000027000000000000000020200311                                                                                                                       *
D081777997014  00378696404       2017/78245195  TEMOCHE RIOS  DASHA 00000000570000000000000000000000000000000000000000000000002020033120200311120630500700076MATRICULA COL         *
D081777997014  00373282870       2017/80016643  HUBY HUILLCA  ARIANN00000000560000000000000000000000000000000000000000000000002020033120200311122030500700055INSCRIPCION CAR       *
D081777997014  00377360323       2017/78245196  MOTTA AGUILAR  THIAG00000000670000000000000000000000000000000000000000000000002020033120200311122100500700010MATRICULA COL         *
D081777997014  00370968047       2017/80016639  TORRES TORRES  ALEXI00000000550000000000000000000000000000000000000000000000002020033120200311124450500700032MATRICULA CAR         *
D081777997014  00370968047       2017/80016640  TORRES TORRES  ALEXI00000000350000000000000000000000000000000000000000000000002020033120200311124450500700032INSCRIPCION CAR       *
T081777997014  00304MATRICULA                     081777997014  000000000124000                                                                                                    *
T081777997014  00308MATRICULA 2020 CARABAYLLO     081777997014  000000000111000                                                                                                    *
T081777997014  00309DERECHO DE INGRESO 2020 CARABA081777997014  000000000035000                                                                                                    *
H081777997014  009000000500000000003000000000000000020200311                                                                                                                       *
D081777997014  00972792619       FF20/751       RAMOS QUISPE  JOSEPH00000000060000000000000000000000000000000000000000000000002020033120200311120170500700021CERT ESTUDIO COL MAR  *
D081777997014  00974636964       FF20/720       AQUINO LUNA  MISHELL00000000060000000000000000000000000000000000000000000000002020033120200311120950500700007CERT ESTUDIOS CAR MA  *
D081777997014  00975985399       FF20/738       CONDOR CALLUPE  JHOS00000000060000000000000000000000000000000000000000000000002020033120200311122470500700007CERT ESTUDIOS SJL MA  *
D081777997014  00972485725       FF20/749       QUEVEDO  BELTRAN   J00000000060000000000000000000000000000000000000000000000002020033120200311122540500700067CERT ESTUDIO COL MAR  *
D081777997014  00970947156       FF20/737       CHAMORRO YAURICASA  00000000060000000000000000000000000000000000000000000000002020033120200311126910500700015CERT ESTUDIOS SJL MA  *
T081777997014  00929CERT ESTUDIO-COL              081777997014  000000000012000                                                                                                    *
T081777997014  00963CERT ESTUDIOS SJL             081777997014  000000000012000                                                                                                    *
T081777997014  00999CERT ESTUDIOS-CAR             081777997014  000000000006000                                                                                                    *
