H081777997014  001000005800000000329893500000000000020200203                                                                                                                       *
D081777997014  00174136779       2017/78243092  PEREZ TENORIO  LEAND00000000640000000000000000000000000000000000000000000009122019103120200203120140500700025PENSION OCT 2019 COL  *
D081777997014  00177871044       2017/78242864  SULCA PEREZ PALMA  D00000000560000000000000000000000000000000000000000000003702019122120200203220260500700084PENSION DIC 2019 COL  *
D081777997014  00175667223       2017/154813    PINTO POCOHUANCA  PA00000000540000000000000000000000000000000000000000000015152019073120200203120360500700041PENSION JUL 2019 SJL  *
D081777997014  00175667223       2017/156192    PINTO POCOHUANCA  PA00000000540000000000000000000000000000000000000000000012642019083120200203120360500700041PENSION AGO 2019 SJL  *
D081777997014  00173368316       2017/80012576  REYES DIAZ  SEBASTIA00000000540000000000000000000000000000000000000000000015152019073120200203120920500700075PENSION JUL 2019 CAR  *
D081777997014  00173368316       2017/80012866  REYES DIAZ  SEBASTIA00000000540000000000000000000000000000000000000000000012642019083120200203120920500700075PENSION AGO 2019 CAR  *
D081777997014  00173368316       2017/80013510  REYES DIAZ  SEBASTIA00000000540000000000000000000000000000000000000000000010212019093020200203120920500700075PENSION SEP 2019 CAR  *
D081777997014  00173368316       2017/80013860  REYES DIAZ  SEBASTIA00000000540000000000000000000000000000000000000000000007702019103120200203120920500700075PENSION OCT 2019 CAR  *
D081777997014  00173368316       2017/80014537  REYES DIAZ  SEBASTIA00000000540000000000000000000000000000000000000000000005272019113020200203120920500700075PENSION NOV 2019 CAR  *
D081777997014  00173368316       2017/80014791  REYES DIAZ  SEBASTIA00000000540000000000000000000000000000000000000000000003562019122120200203120920500700075PENSION DIC 2019 CAR  *
D081777997014  00172422978       2017/78241773  FELIPE TINEO  LUCIA 00000000640000000000000000000000000000000000000000000004222019122120200203122160500700113PENSION DIC 2019 COL  *
D081777997014  00174878087       2017/126656    QUILLAS LEON  LUIS D00000000510000000000000000000000000000000000000000000051562018033120200203122470500700065PENSION MAR 2018 SJL  *
D081777997014  00174878087       2017/127590    QUILLAS LEON  LUIS D00000000510000000000000000000000000000000000000000000049272018043020200203122470500700065PENSION ABR 2018 SJL  *
D081777997014  00174878087       2017/129203    QUILLAS LEON  LUIS D00000000510000000000000000000000000000000000000000000046892018053120200203122470500700065PENSION MAY 2018 SJL  *
D081777997014  00174878087       2017/129634    QUILLAS LEON  LUIS D00000000510000000000000000000000000000000000000000000044602018063020200203122470500700065PENSION JUN 2018 SJL  *
D081777997014  00174878087       2017/130911    QUILLAS LEON  LUIS D00000000510000000000000000000000000000000000000000000042232018073120200203122470500700065PENSION JUL 2018 SJL  *
D081777997014  00174878087       2017/131843    QUILLAS LEON  LUIS D00000000510000000000000000000000000000000000000000000039862018083120200203122470500700065PENSION AGO 2018 SJL  *
D081777997014  00174878087       2017/133036    QUILLAS LEON  LUIS D00000000510000000000000000000000000000000000000000000037562018093020200203122470500700065PENSION SEP 2018 SJL  *
D081777997014  00174878087       2017/134195    QUILLAS LEON  LUIS D00000000510000000000000000000000000000000000000000000035192018103120200203122470500700065PENSION OCT 2018 SJL  *
D081777997014  00179222697       2017/159600    REYNA HUAJACHI  GHIA00000000560000000000000000000000000000000000000000000003702019122120200203122470500700088PENSION DIC 2019 SJL  *
D081777997014  00171146729       2017/78236336  CHERO SEDANO  JOSUE 00000000576000000000000000000000000000000000000000000016162019073120200203122500500700007PENSION JUL 2019 COL  *
D081777997014  00171146729       2017/78237624  CHERO SEDANO  JOSUE 00000000576000000000000000000000000000000000000000000013482019083120200203122500500700007PENSION AGO 2019 COL  *
D081777997014  00178343746       2017/78235724  CHERO SEDANO  RODRIG00000000560000000000000000000000000000000000000000000015712019073120200203122500500700008PENSION JUL 2019 COL  *
D081777997014  00178343746       2017/78237006  CHERO SEDANO  RODRIG00000000560000000000000000000000000000000000000000000013102019083120200203122500500700008PENSION AGO 2019 COL  *
D081777997014  00172595757       2017/78242630  DAVILA HUAMANI  RODO00000000640000000000000000000000000000000000000000000004222019122120200203122510500700035PENSION DIC 2019 COL  *
D081777997014  00160981789       2017/78238361  QUISPE TORRES  HUGO 00000000640000000000000000000000000000000000000000000012102019093020200203122540500700144PENSION SEP 2019 COL  *
D081777997014  00160981789       2017/78240278  QUISPE TORRES  HUGO 00000000640000000000000000000000000000000000000000000009122019103120200203122540500700144PENSION OCT 2019 COL  *
D081777997014  00160981789       2017/78240820  QUISPE TORRES  HUGO 00000000640000000000000000000000000000000000000000000006242019113020200203122540500700144PENSION NOV 2019 COL  *
D081777997014  00160981789       2017/78241990  QUISPE TORRES  HUGO 00000000640000000000000000000000000000000000000000000004222019122120200203122540500700152PENSION DIC 2019 COL  *
D081777997014  00178694823       2017/158747    FELIX SANTILLAN  BRI00000000504000000000000000000000000000000000000000000004912019113020200203122660500700027PENSION NOV 2019 SJL  *
D081777997014  00161932690       2017/78242758  BERETTA COZ  THIAGO 00000000640000000000000000000000000000000000000000000004222019122120200203123980500700020PENSION DIC 2019 COL  *
D081777997014  00177511250       2017/78239094  CHIPANA LAMA  GIANLU00000000560000000000000000000000000000000000000000000010582019093020200203124450500700037PENSION SEP 2019 COL  *
D081777997014  00177511250       2017/78239739  CHIPANA LAMA  GIANLU00000000560000000000000000000000000000000000000000000007982019103120200203124450500700037PENSION OCT 2019 COL  *
D081777997014  00177511250       2017/78241524  CHIPANA LAMA  GIANLU00000000560000000000000000000000000000000000000000000005462019113020200203124450500700038PENSION NOV 2019 COL  *
D081777997014  00177511250       2017/78242739  CHIPANA LAMA  GIANLU00000000560000000000000000000000000000000000000000000003702019122120200203124450500700038PENSION DIC 2019 COL  *
D081777997014  00178065178       2017/78232300  CHOQUE SANCHEZ  ANIB00000000504000000000000000000000000000000000000000000021092019043020200203124670500700013PENSION ABR 2019 COL  *
D081777997014  00178065178       2017/78233374  CHOQUE SANCHEZ  ANIB00000000504000000000000000000000000000000000000000000018752019053120200203124670500700013PENSION MAY 2019 COL  *
D081777997014  00178065178       2017/78235372  CHOQUE SANCHEZ  ANIB00000000504000000000000000000000000000000000000000000016482019063020200203124670500700013PENSION JUN 2019 COL  *
D081777997014  00178065178       2017/78235694  CHOQUE SANCHEZ  ANIB00000000504000000000000000000000000000000000000000000014142019073120200203124670500700013PENSION JUL 2019 COL  *
D081777997014  00178065178       FF19/1946      CHOQUE SANCHEZ  ANIB00000000560000000000000000000000000000000000000000000013102019083120200203124670500700013PENSION AGO 2019 COL  *
D081777997014  00178065178       FF19/1947      CHOQUE SANCHEZ  ANIB00000000560000000000000000000000000000000000000000000010582019093020200203124670500700013PENSION SEP 2019 COL  *
D081777997014  00178065178       FF19/1948      CHOQUE SANCHEZ  ANIB00000000560000000000000000000000000000000000000000000007982019103120200203124670500700013PENSION OCT 2019 COL  *
D081777997014  00178065178       FF19/1949      CHOQUE SANCHEZ  ANIB00000000560000000000000000000000000000000000000000000005462019113020200203124670500700013PENSION NOV 2019 COL  *
D081777997014  00178065178       FF19/1950      CHOQUE SANCHEZ  ANIB00000000560000000000000000000000000000000000000000000003702019122120200203124670500700013PENSION DIC 2019 COL  *
D081777997014  00162578024       2017/80015070  ZAPATA VIDAL  MARIA 00000000495000000000000000000000000000000000000000000003272019122120200203126570500700054PENSION DIC 2019 CAR  *
D081777997014  00178636542       2017/80014847  ZAPATA VIDAL  RODRIG00000000560000000000000000000000000000000000000000000003702019122120200203126570500700055PENSION DIC 2019 CAR  *
D081777997014  00175107787       2017/160271    GUERRERO JIMENEZ  NA00000000540000000000000000000000000000000000000000000003562019122120200203126910500700017PENSION DIC 2019 SJL  *
D081777997014  00160194553       2017/160143    HIDALGO CASTILLO  CA00000000540000000000000000000000000000000000000000000003562019122120200203126910500700033PENSION DIC 2019 SJL  *
D081777997014  00174186327       2017/157682    RAMOS LEANDRO  SHIOR00000000550000000000000000000000000000000000000000000007842019103120200203126910500700046PENSION OCT 2019 SJL  *
D081777997014  00174186327       2017/158654    RAMOS LEANDRO  SHIOR00000000550000000000000000000000000000000000000000000005362019113020200203126910500700046PENSION NOV 2019 SJL  *
D081777997014  00178678946       2017/78240583  CHAU BALDWIN  YAGO A00000000504000000000000000000000000000000000000000000004912019113020200203227844651000835PENSION NOV 2019 COL  *
D081777997014  00178678946       2017/78241931  CHAU BALDWIN  YAGO A00000000504000000000000000000000000000000000000000000003332019122120200203227844651000836PENSION DIC 2019 COL  *
D081777997014  00175307579       2017/80015163  GRANADOS BALDEON  MA00000000550000000000000000000000000000000000000000000003632019122120200203227844651017493PENSION DIC 2019 CAR  *
D081777997014  00170699143       2017/80015691  GRANADOS CHIROQUE  I00000000486000000000000000000000000000000000000000000003212019122120200203227844651017538PENSION DIC 2019 CAR  *
D081777997014  00178918894       2017/78241974  SAURI VILCHEZ  NAYLA00000000560000000000000000000000000000000000000000000003702019122120200203227844651020610PENSION DIC 2019 COL  *
D081777997014  00101496510       2017/78239427  HURTADO ANTELO  ANGE00000000640000000000000000000000000000000000000000000009122019103120200203129470500700226PENSION OCT 2019 COL  *
D081777997014  00101496510       2017/78241212  HURTADO ANTELO  ANGE00000000640000000000000000000000000000000000000000000006242019113020200203129470500700226PENSION NOV 2019 COL  *
D081777997014  00101496510       2017/78242427  HURTADO ANTELO  ANGE00000000640000000000000000000000000000000000000000000004222019122120200203129470500700244PENSION DIC 2019 COL  *
T081777997014  00101PENSION                       081777997014  000000001878213                                                                                                    *
T081777997014  00102PENSION SAN JUAN              081777997014  000000000880788                                                                                                    *
T081777997014  00103PENSION                       081777997014  000000000539934                                                                                                    *
H081777997014  003000001500000000087830000000000000020200203                                                                                                                       *
D081777997014  00373405796       2017/80016275  DEL AGUILA GOMEZ  SE00000000560000000000000000000000000000000000000000000000002020013120200203120210500700094INSCRIPCION CAR       *
D081777997014  00372343410       2017/78244585  COTRINA SALINAS  LUC00000000670000000000000000000000000000000000000000000000002020022920200203120700500700113MATRICULA COL         *
D081777997014  00376495547       2017/161946    ALLENDE HUAMAN  JOSE00000000570000000000000000000000000000000000000000000000002020013120200203121930500700067MATRICULA SJL         *
D081777997014  00378341472       2017/78244572  GARAVITO BALTODANO  00000000580000000000000000000000000000000000000000000000002020013120200203122140500700060MATRICULA COL         *
D081777997014  00373851990       2017/78244563  HERCILLA USQUIANO  L00000000670000000000000000000000000000000000000000000000002020013120200203222240500700073MATRICULA COL         *
D081777997014  00374022436       2017/161954    LAGUNA GARCIA  CAMIL00000000570000000000000000000000000000000000000000000000002020013120200203122390500700040MATRICULA SJL         *
D081777997014  00361421458       2017/161908    PARRA ALVIS  SEBASTI00000000570000000000000000000000000000000000000000000000002020013120200203122390500700097MATRICULA SJL         *
D081777997014  00361422182       2017/161911    APARCO SAAVEDRA  MAU00000000570000000000000000000000000000000000000000000000002020013120200203122470500700118MATRICULA SJL         *
D081777997014  00373146820       2017/78244528  CUTISACA SALDARRIAGA00000000670000000000000000000000000000000000000000000000002020013120200203122540500700031MATRICULA COL         *
D081777997014  00377855942       2017/78244529  CUTISACA SALDARRIAGA00000000580000000000000000000000000000000000000000000000002020013120200203122540500700033MATRICULA COL         *
D081777997014  00373845051       2017/78244530  CUTISACA SALDARRIAGA00000000670000000000000000000000000000000000000000000000002020013120200203122540500700034MATRICULA COL         *
D081777997014  00370588717       2017/78244493  VASQUEZ ANGELES  ARI00000000670000000000000000000000000000000000000000000000002020013120200203122540500700049MATRICULA COL         *
D081777997014  00376852831       2017/161434    DIAZ ARATA  SULEYKA 00000000513000000000000000000000000000000000000000000000002019122120200203126910500700077MATRICULA SJL         *
D081777997014  00379456328       2017/161921    ESPINOZA PINEDO  RAF00000000350000000000000000000000000000000000000000000000002020013120200203127420500700081INSCRIPCION SJL       *
D081777997014  00379456328       2017/161922    ESPINOZA PINEDO  RAF00000000570000000000000000000000000000000000000000000000002020013120200203127420500700081MATRICULA SJL         *
T081777997014  00304MATRICULA                     081777997014  000000000451000                                                                                                    *
T081777997014  00306MATRICULA SJL 2020            081777997014  000000000336300                                                                                                    *
T081777997014  00307DERECHO DE INGRESO SJL 2018   081777997014  000000000035000                                                                                                    *
T081777997014  00308MATRICULA 2020 CARABAYLLO     081777997014  000000000056000                                                                                                    *
H081777997014  009000000600000000003600000000000000020200203                                                                                                                       *
D081777997014  00960771720       FF20/338       DIAZ BRICENO  GABRIE00000000060000000000000000000000000000000000000000000000002020013120200203120260500700064CERT ESTUDIO COL ENE  *
D081777997014  00977642740       FF20/364       MARTINEZ ZAVALETA  L00000000060000000000000000000000000000000000000000000000002020022920200203222540500700130CERT ESTUDIO COL FEB  *
D081777997014  00976199402       FF20/313       RAMIREZ SILVA  ALEXA00000000060000000000000000000000000000000000000000000000002020013120200203122540500700142CERT ESTUDIO COL ENE  *
D081777997014  00977522487       FF20/357       VALDIVIEZO MOSCOL  J00000000060000000000000000000000000000000000000000000000002020013120200203227844651021966CERT ESTUDIO COL ENE  *
D081777997014  00961436077       FF20/359       VALDIVIEZO MOSCOL  M00000000060000000000000000000000000000000000000000000000002020013120200203227844651022179CERT ESTUDIO COL ENE  *
D081777997014  00978065908       FF20/325       VILLACORTA LOZADA  C00000000060000000000000000000000000000000000000000000000002020013120200203129470500700125CERT ESTUDIOS CAR EN  *
T081777997014  00929CERT ESTUDIO-COL              081777997014  000000000030000                                                                                                    *
T081777997014  00999CERT ESTUDIOS-CAR             081777997014  000000000006000                                                                                                    *
H081777997014  010000000300000000000900000000000000020200203                                                                                                                       *
D081777997014  01060771720       FF20/337       DIAZ BRICENO  GABRIE00000000030000000000000000000000000000000000000000000000002020013120200203120260500700064CCIA NO ADEUDO COL E  *
D081777997014  01077522487       FF20/356       VALDIVIEZO MOSCOL  J00000000030000000000000000000000000000000000000000000000002020013120200203227844651022030CCIA NO ADEUDO COL E  *
D081777997014  01061436077       FF20/358       VALDIVIEZO MOSCOL  M00000000030000000000000000000000000000000000000000000000002020013120200203227844651022081CCIA NO ADEUDO COL E  *
T081777997014  01028CCIA NO ADEUDO COL            081777997014  000000000009000                                                                                                    *
H081777997014  012000000200000000000600000000000000020200203                                                                                                                       *
D081777997014  01270957158       FF20/178       GALLEGOS MARQUINA  M00000000030000000000000000000000000000000000000000000000002020013120200203126610500700087PRA ACAD COLONIAL EN  *
D081777997014  01275083773       FF20/233       ESCURRA AGUIRRE  JOH00000000030000000000000000000000000000000000000000000000002020013120200203126610500700172PRA ACAD COLONIAL EN  *
T081777997014  01230PRA ACAD COLONIAL             081777997014  000000000006000                                                                                                    *
