H081777997014  001000003700000000225708400000000000020200213                                                                                                                       *
D081777997014  00160826924       2017/78231026  GAMARRA CARRASCO  JI00000000576000000000000000000000000000000000000000000027562019033120200213120700500700036PENSION MAR 2019 COL  *
D081777997014  00160826924       2017/78232211  GAMARRA CARRASCO  JI00000000576000000000000000000000000000000000000000000024972019043020200213120700500700036PENSION ABR 2019 COL  *
D081777997014  00160826924       2017/78233534  GAMARRA CARRASCO  JI00000000576000000000000000000000000000000000000000000022292019053120200213120700500700036PENSION MAY 2019 COL  *
D081777997014  00160826924       FF19/1582      GAMARRA CARRASCO  JI00000000640000000000000000000000000000000000000000000021892019063020200213120700500700036PENSION JUN 2019 COL  *
D081777997014  00160826924       FF19/1583      GAMARRA CARRASCO  JI00000000640000000000000000000000000000000000000000000018912019073120200213120700500700036PENSION JUL 2019 COL  *
D081777997014  00160826924       FF19/1584      GAMARRA CARRASCO  JI00000000640000000000000000000000000000000000000000000015942019083120200213120700500700036PENSION AGO 2019 COL  *
D081777997014  00160826924       FF19/1585      GAMARRA CARRASCO  JI00000000640000000000000000000000000000000000000000000013062019093020200213120700500700036PENSION SEP 2019 COL  *
D081777997014  00160826924       FF19/1586      GAMARRA CARRASCO  JI00000000640000000000000000000000000000000000000000000010082019103120200213120700500700036PENSION OCT 2019 COL  *
D081777997014  00160826924       FF19/1587      GAMARRA CARRASCO  JI00000000640000000000000000000000000000000000000000000007202019113020200213120700500700036PENSION NOV 2019 COL  *
D081777997014  00160826924       FF19/1588      GAMARRA CARRASCO  JI00000000640000000000000000000000000000000000000000000005182019122120200213120700500700036PENSION DIC 2019 COL  *
D081777997014  00177399215       2017/78231758  GAMARRA CARRASCO  NA00000000560000000000000000000000000000000000000000000026802019033120200213120700500700039PENSION MAR 2019 COL  *
D081777997014  00177399215       2017/78232973  GAMARRA CARRASCO  NA00000000560000000000000000000000000000000000000000000024282019043020200213120700500700039PENSION ABR 2019 COL  *
D081777997014  00177399215       2017/78234308  GAMARRA CARRASCO  NA00000000560000000000000000000000000000000000000000000021672019053120200213120700500700039PENSION MAY 2019 COL  *
D081777997014  00177399215       2017/78235076  GAMARRA CARRASCO  NA00000000560000000000000000000000000000000000000000000019152019063020200213120700500700039PENSION JUN 2019 COL  *
D081777997014  00177399215       2017/78236619  GAMARRA CARRASCO  NA00000000560000000000000000000000000000000000000000000016552019073120200213120700500700039PENSION JUL 2019 COL  *
D081777997014  00177399215       2017/78237906  GAMARRA CARRASCO  NA00000000560000000000000000000000000000000000000000000013942019083120200213120700500700039PENSION AGO 2019 COL  *
D081777997014  00177399215       2017/78239048  GAMARRA CARRASCO  NA00000000560000000000000000000000000000000000000000000011422019093020200213120700500700039PENSION SEP 2019 COL  *
D081777997014  00177399215       2017/78239693  GAMARRA CARRASCO  NA00000000560000000000000000000000000000000000000000000008822019103120200213120700500700039PENSION OCT 2019 COL  *
D081777997014  00177399215       2017/78241478  GAMARRA CARRASCO  NA00000000560000000000000000000000000000000000000000000006302019113020200213120700500700039PENSION NOV 2019 COL  *
D081777997014  00177399215       2017/78242693  GAMARRA CARRASCO  NA00000000560000000000000000000000000000000000000000000004542019122120200213120700500700039PENSION DIC 2019 COL  *
D081777997014  00170456563       2017/80013373  GRANADINO ANTUNEZ  O00000000540000000000000000000000000000000000000000000011022019093020200213120810500700051PENSION SEP 2019 CAR  *
D081777997014  00170456563       2017/80013965  GRANADINO ANTUNEZ  O00000000540000000000000000000000000000000000000000000008512019103120200213120810500700051PENSION OCT 2019 CAR  *
D081777997014  00170456563       2017/80014467  GRANADINO ANTUNEZ  O00000000540000000000000000000000000000000000000000000006082019113020200213120810500700051PENSION NOV 2019 CAR  *
D081777997014  00170456563       2017/80015008  GRANADINO ANTUNEZ  O00000000540000000000000000000000000000000000000000000004372019122120200213120810500700051PENSION DIC 2019 CAR  *
D081777997014  00161140583       2017/78232666  GUARDIA ESPINOZA  EM00000000640000000000000000000000000000000000000000000027742019043020200213122160500700078PENSION ABR 2019 COL  *
D081777997014  00161140583       2017/78234019  GUARDIA ESPINOZA  EM00000000640000000000000000000000000000000000000000000024772019053120200213122160500700078PENSION MAY 2019 COL  *
D081777997014  00161140583       2017/78234792  GUARDIA ESPINOZA  EM00000000640000000000000000000000000000000000000000000021892019063020200213122160500700078PENSION JUN 2019 COL  *
D081777997014  00161140583       2017/78236329  GUARDIA ESPINOZA  EM00000000640000000000000000000000000000000000000000000018912019073120200213122160500700078PENSION JUL 2019 COL  *
D081777997014  00161140583       2017/78237617  GUARDIA ESPINOZA  EM00000000640000000000000000000000000000000000000000000015942019083120200213122160500700078PENSION AGO 2019 COL  *
D081777997014  00161140583       2017/78238761  GUARDIA ESPINOZA  EM00000000640000000000000000000000000000000000000000000013062019093020200213122160500700078PENSION SEP 2019 COL  *
D081777997014  00161140583       2017/78239363  GUARDIA ESPINOZA  EM00000000640000000000000000000000000000000000000000000010082019103120200213122160500700078PENSION OCT 2019 COL  *
D081777997014  00176732694       2017/160136    QUIJAHUAMAN TENORIO 00000000486000000000000000000000000000000000000000000003942019122120200213122470500700052PENSION DIC 2019 SJL  *
D081777997014  00161923584       2017/160026    QUIJAHUAMAN TENORIO 00000000550000000000000000000000000000000000000000000004462019122120200213122470500700053PENSION DIC 2019 SJL  *
D081777997014  00170956112       2017/78238472  ZICIA CHUNA  ROSA JA00000000640000000000000000000000000000000000000000000013062019093020200213123880500700049PENSION SEP 2019 COL  *
D081777997014  00170956112       2017/78240332  ZICIA CHUNA  ROSA JA00000000640000000000000000000000000000000000000000000010082019103120200213123880500700049PENSION OCT 2019 COL  *
D081777997014  00170956112       2017/78240935  ZICIA CHUNA  ROSA JA00000000640000000000000000000000000000000000000000000007202019113020200213123880500700049PENSION NOV 2019 COL  *
D081777997014  00172709915       2017/78241763  ROJAS LAURA  SEBASTI00000000640000000000000000000000000000000000000000000005182019122120200213126610500700017PENSION DIC 2019 COL  *
T081777997014  00101PENSION                       081777997014  000000001933646                                                                                                    *
T081777997014  00102PENSION SAN JUAN              081777997014  000000000104440                                                                                                    *
T081777997014  00103PENSION                       081777997014  000000000218998                                                                                                    *
H081777997014  003000001500000000082800000000000000020200213                                                                                                                       *
D081777997014  00376857428       2017/162010    JANAMPA MENDOZA  YAM00000000570000000000000000000000000000000000000000000000002020022820200213120100500700074MATRICULA SJL         *
D081777997014  00361529966       2017/162018    ZAVALETA BETETA  MAR00000000570000000000000000000000000000000000000000000000002020022820200213121350500700049MATRICULA SJL         *
D081777997014  00372601127       2017/80016368  MORALES CASTRO  ALEX00000000560000000000000000000000000000000000000000000000002020022820200213121910500700004INSCRIPCION CAR       *
D081777997014  00372601137       2017/80016369  MORALES CASTRO  GABR00000000560000000000000000000000000000000000000000000000002020022820200213121910500700005INSCRIPCION CAR       *
D081777997014  00377381617       2017/78244728  ZEVALLOS SILVA  GABR00000000670000000000000000000000000000000000000000000000002020022820200213222030500700033MATRICULA COL         *
D081777997014  00371160753       2017/162030    COHAGUILA ROJAS  IOR00000000570000000000000000000000000000000000000000000000002020022820200213122140500700057MATRICULA SJL         *
D081777997014  00371160753       2017/162031    COHAGUILA ROJAS  IOR00000000350000000000000000000000000000000000000000000000002020022820200213122140500700057INSCRIPCION SJL       *
D081777997014  00378666089       2017/78244683  NOVOA JIMENEZ  GEORG00000000570000000000000000000000000000000000000000000000002020022820200213122160500700023MATRICULA COL         *
D081777997014  00361293671       2017/78244740  IPARRAGUIRRE BALAREZ00000000670000000000000000000000000000000000000000000000002020022820200213122240500700046MATRICULA COL         *
D081777997014  00361141988       2017/162001    TORRES ALVARADO  SOP00000000570000000000000000000000000000000000000000000000002020022820200213122470500700010MATRICULA SJL         *
D081777997014  00361290917       2017/162034    TANTARUNA PINEDA  NA00000000350000000000000000000000000000000000000000000000002020022820200213122470500700016INSCRIPCION SJL       *
D081777997014  00361852181       2017/162006    SILVA FLORES  YESIL 00000000570000000000000000000000000000000000000000000000002020022820200213122470500700018MATRICULA SJL         *
D081777997014  00362578024       2017/80016300  ZAPATA VIDAL  MARIA 00000000560000000000000000000000000000000000000000000000002020022820200213126570500700019INSCRIPCION CAR       *
D081777997014  00378636542       2017/80016301  ZAPATA VIDAL  RODRIG00000000570000000000000000000000000000000000000000000000002020022820200213126570500700020INSCRIPCION CAR       *
D081777997014  00379126197       2017/162035    VALENCIA GALVEZ  AMI00000000570000000000000000000000000000000000000000000000002020022820200213129470500700101MATRICULA SJL         *
T081777997014  00304MATRICULA                     081777997014  000000000191000                                                                                                    *
T081777997014  00306MATRICULA SJL 2020            081777997014  000000000342000                                                                                                    *
T081777997014  00307DERECHO DE INGRESO SJL 2018   081777997014  000000000070000                                                                                                    *
T081777997014  00308MATRICULA 2020 CARABAYLLO     081777997014  000000000225000                                                                                                    *
H081777997014  009000000700000000004200000000000000020200213                                                                                                                       *
D081777997014  00976775472       FF20/491       VARGAS GONZALES  SER00000000060000000000000000000000000000000000000000000000002020022820200213120100500700057CERT ESTUDIOS SJL FE  *
D081777997014  00971490105       FF20/483       JULCA MENDOZA  ANDER00000000060000000000000000000000000000000000000000000000002020022820200213120210500700072CERT ESTUDIOS CAR FE  *
D081777997014  00975138976       FF20/474       COROPUNA BLAS  ESTEF00000000060000000000000000000000000000000000000000000000002020022820200213121830500700033CERT ESTUDIOS SJL FE  *
D081777997014  00978040042       FF20/497       SAN MIGUEL VAL  IGNA00000000060000000000000000000000000000000000000000000000002020022820200213122300500700082CERT ESTUDIO COL FEB  *
D081777997014  00971618626       FF20/490       CARDENAS LUQUE  MARI00000000060000000000000000000000000000000000000000000000002020022820200213122540500700094CERT ESTUDIO COL FEB  *
D081777997014  00975504245       FF20/407       FALLA PAREDES  JORGE00000000060000000000000000000000000000000000000000000000002020022820200213123720500700031CERT ESTUDIO COL FEB  *
D081777997014  00972423922       FF20/484       PASTOR VERA  LEONARD00000000060000000000000000000000000000000000000000000000002020022820200213227844651001713CERT ESTUDIO COL FEB  *
T081777997014  00929CERT ESTUDIO-COL              081777997014  000000000024000                                                                                                    *
T081777997014  00963CERT ESTUDIOS SJL             081777997014  000000000012000                                                                                                    *
T081777997014  00999CERT ESTUDIOS-CAR             081777997014  000000000006000                                                                                                    *
H081777997014  010000000100000000000300000000000000020200213                                                                                                                       *
D081777997014  01078040042       FF20/496       SAN MIGUEL VAL  IGNA00000000030000000000000000000000000000000000000000000000002020022820200213122300500700082CCIA NO ADEUDO COL F  *
T081777997014  01028CCIA NO ADEUDO COL            081777997014  000000000003000                                                                                                    *
