H081777997014  001000001400000000077612700000000000020200108                                                                                                                       *
D081777997014  00171282249       2017/80014943  ORTIZ ENRIQUEZ  FRED00000000540000000000000000000000000000000000000000000001462019122120200108120210500700015PENSION DIC 2019 CAR  *
D081777997014  00160697967       2017/160379    POZO GARCIA  ANGIE C00000000540000000000000000000000000000000000000000000001462019122120200108121350500700078PENSION DIC 2019 SJL  *
D081777997014  00176491664       2017/80015181  GOMEZ CHAVEZ  VALERI00000000550000000000000000000000000000000000000000000001492019122120200108121910500700003PENSION DIC 2019 CAR  *
D081777997014  00176496843       2017/159031    NAVARRO ORTIZ  MATTE00000000495000000000000000000000000000000000000000000002902019113020200108122470500700138PENSION NOV 2019 SJL  *
D081777997014  00176496843       2017/159884    NAVARRO ORTIZ  MATTE00000000495000000000000000000000000000000000000000000001342019122120200108122470500700138PENSION DIC 2019 SJL  *
D081777997014  00178955246       2017/158832    NAVARRO ORTIZ  EMILI00000000560000000000000000000000000000000000000000000003282019113020200108122470500700139PENSION NOV 2019 SJL  *
D081777997014  00178955246       2017/159779    NAVARRO ORTIZ  EMILI00000000560000000000000000000000000000000000000000000001512019122120200108122470500700139PENSION DIC 2019 SJL  *
D081777997014  00175361010       2017/78242251  BENAVIDES VIVANCO  M00000000640000000000000000000000000000000000000000000001732019122120200108122540500700057PENSION DIC 2019 COL  *
D081777997014  00170706055       2017/78242478  AYCA REYES  PIERO ED00000000640000000000000000000000000000000000000000000001732019122120200108125350500700073PENSION DIC 2019 COL  *
D081777997014  00175599853       2017/160365    MIRAVAL ESPINOZA  TA00000000540000000000000000000000000000000000000000000001462019122120200108126860500700003PENSION DIC 2019 SJL  *
D081777997014  00177642560       2017/157838    VALENCIA GALVEZ  KIA00000000495000000000000000000000000000000000000000000005122019103120200108126860500700004PENSION OCT 2019 SJL  *
D081777997014  00177642560       2017/159015    VALENCIA GALVEZ  KIA00000000495000000000000000000000000000000000000000000002902019113020200108126860500700004PENSION NOV 2019 SJL  *
D081777997014  00170512631       2017/80014443  STEIN VENEGAS  CARLO00000000540000000000000000000000000000000000000000000003162019113020200108127020500700094PENSION NOV 2019 CAR  *
D081777997014  00174102896       2017/78242745  CERRILLO DE LOS SANT00000000640000000000000000000000000000000000000000000001732019122120200108227844651002080PENSION DIC 2019 COL  *
T081777997014  00101PENSION                       081777997014  000000000192519                                                                                                    *
T081777997014  00102PENSION SAN JUAN              081777997014  000000000419997                                                                                                    *
T081777997014  00103PENSION                       081777997014  000000000163611                                                                                                    *
H081777997014  003000004200000000227910000000000000020200108                                                                                                                       *
D081777997014  00373181650       2017/78244266  CORDOVA PANDURO  DIE00000000603000000000000000000000000000000000000000000000002020013120200108120100500700245MATRICULA COL         *
D081777997014  00361528287       2017/161556    ESPINOZA LLICA  AXEE00000000513000000000000000000000000000000000000000000000002020013120200108120110500700058INSCRIPCION SJL       *
D081777997014  00370647388       2017/78244271  ALFARO SOLORZANO  AB00000000603000000000000000000000000000000000000000000000002020013120200108120130500700119MATRICULA COL         *
D081777997014  00375039625       2017/80016163  CASTRO PARRA  SOFIA 00000000504000000000000000000000000000000000000000000000002020010420200108120210500700088INSCRIPCION CAR       *
D081777997014  00376892540       2017/161646    SOLIS CRUZ  NICOLAS 00000000570000000000000000000000000000000000000000000000002020013120200108120440500700066INSCRIPCION SJL       *
D081777997014  00373185751       2017/78244253  GAMBOA CABANILLAS  C00000000603000000000000000000000000000000000000000000000002020013120200108120700500700204MATRICULA COL         *
D081777997014  00373281889       2017/161591    LOPEZ LARICO  SOPHIE00000000513000000000000000000000000000000000000000000000002020013120200108121000500700187INSCRIPCION SJL       *
D081777997014  00361362553       2017/78244278  CHUPAN YANCE  MARIAN00000000603000000000000000000000000000000000000000000000002020013120200108121770500700052MATRICULA COL         *
D081777997014  00374207288       2017/80016172  VILLA ALVARADO  BREN00000000495000000000000000000000000000000000000000000000002020010420200108122140500700127INSCRIPCION CAR       *
D081777997014  00375167619       2017/78244260  OLIVOS PELAEZ  JOAQU00000000603000000000000000000000000000000000000000000000002020013120200108122270500700096MATRICULA COL         *
D081777997014  00373847095       2017/78244235  PRIMO GRADOS  FERNAN00000000603000000000000000000000000000000000000000000000002020013120200108122310500700017MATRICULA COL         *
D081777997014  00380998867       2017/161628    GARCIA SANCHEZ  KEYL00000000513000000000000000000000000000000000000000000000002020013120200108122410500700052INSCRIPCION SJL       *
D081777997014  00360189854       2017/161630    LUIS MANUEL  VALERIA00000000513000000000000000000000000000000000000000000000002020013120200108122470500700065INSCRIPCION SJL       *
D081777997014  00379195602       2017/78244288  LOPEZ MECHAN  VALENT00000000513000000000000000000000000000000000000000000000002020013120200108122540500700121MATRICULA COL         *
D081777997014  00370720798       2017/78244290  ALCARRAZ MUNAYCO  MA00000000603000000000000000000000000000000000000000000000002020013120200108122540500700124MATRICULA COL         *
D081777997014  00379529648       2017/78244270  OBREGON CONDORI  JOS00000000513000000000000000000000000000000000000000000000002020013120200108122540500700132MATRICULA COL         *
D081777997014  00372820195       2017/78244268  CALLUPE KIMURA  NICO00000000603000000000000000000000000000000000000000000000002020013120200108122540500700134MATRICULA COL         *
D081777997014  00377104318       2017/78244267  CALLUPE KIMURA  SERG00000000603000000000000000000000000000000000000000000000002020013120200108122540500700135MATRICULA COL         *
D081777997014  00373287442       2017/78244274  ROMAN CASTILLO  BRIA00000000603000000000000000000000000000000000000000000000002020013120200108122540500700140MATRICULA COL         *
D081777997014  00377879019       2017/78244273  ROMAN CASTILLO  LEO 00000000522000000000000000000000000000000000000000000000002020013120200108122540500700141MATRICULA COL         *
D081777997014  00360796097       2017/78244276  BERTO AQUINO  RONALD00000000603000000000000000000000000000000000000000000000002020013120200108126610500700084MATRICULA COL         *
D081777997014  00377856766       2017/78244272  ORE FLORES  RODRIGO 00000000522000000000000000000000000000000000000000000000002020013120200108126610500700107MATRICULA COL         *
D081777997014  00378003001       2017/161633    MELGAREJO ARANDA  PA00000000513000000000000000000000000000000000000000000000002020013120200108126860500700002INSCRIPCION SJL       *
D081777997014  00372068596       2017/161574    ESTRADA HUARCAYA  ED00000000513000000000000000000000000000000000000000000000002020013120200108126860500700005INSCRIPCION SJL       *
D081777997014  00361139781       2017/161589    ARIAS MORA  LEONARDO00000000513000000000000000000000000000000000000000000000002020013120200108126910500700026INSCRIPCION SJL       *
D081777997014  00381242104       2017/161655    DIAZ MEGO  CAMILA   00000000513000000000000000000000000000000000000000000000002020013120200108126910500700068INSCRIPCION SJL       *
D081777997014  00378476711       2017/161631    MELGAREJO CHUMACERO 00000000513000000000000000000000000000000000000000000000002020013120200108127420500700092INSCRIPCION SJL       *
D081777997014  00377994120       2017/161641    ESPINOZA PINEDO  JOR00000000513000000000000000000000000000000000000000000000002020013120200108127420500700093INSCRIPCION SJL       *
D081777997014  00378731801       2017/161642    ESPINOZA PINEDO  MIA00000000513000000000000000000000000000000000000000000000002020013120200108127420500700094INSCRIPCION SJL       *
D081777997014  00374681303       2017/161647    UCHUPE VASQUEZ  AMEL00000000570000000000000000000000000000000000000000000000002020013120200108127420500700099INSCRIPCION SJL       *
D081777997014  00373174366       2017/78244252  ROJAS VILLA  JEAN SE00000000603000000000000000000000000000000000000000000000002020013120200108227844651000513MATRICULA COL         *
D081777997014  00377545603       2017/161648    TOLENTINO FAJARDO  A00000000570000000000000000000000000000000000000000000000002020013120200108227844651005171INSCRIPCION SJL       *
D081777997014  00373564106       2017/161649    TOLENTINO FAJARDO  F00000000570000000000000000000000000000000000000000000000002020013120200108227844651005239INSCRIPCION SJL       *
D081777997014  00370733059       2017/80016162  AGURTO ROMERO  ROGGE00000000495000000000000000000000000000000000000000000000002020010420200108227844671000133INSCRIPCION CAR       *
D081777997014  00374335266       2017/80016160  AGURTO ROMERO  FERNA00000000504000000000000000000000000000000000000000000000002020010420200108227844671000134INSCRIPCION CAR       *
D081777997014  00377719265       2017/80016161  AGURTO ROMERO  YSABE00000000504000000000000000000000000000000000000000000000002020010420200108227844671000135INSCRIPCION CAR       *
D081777997014  00378537772       2017/80016155  VILCHEZ BALDEON  FER00000000513000000000000000000000000000000000000000000000002020010420200108227844671000383INSCRIPCION CAR       *
D081777997014  00361046235       2017/80016156  VILCHEZ BALDEON  JUL00000000495000000000000000000000000000000000000000000000002020010420200108227844671000411INSCRIPCION CAR       *
D081777997014  00377996771       2017/161624    HUAMAN PAULLO  DANIE00000000513000000000000000000000000000000000000000000000002020013120200108227844671000462INSCRIPCION SJL       *
D081777997014  00378939280       2017/78244246  YUPANQUI JARAMILLO  00000000513000000000000000000000000000000000000000000000002020013120200108227844671001150MATRICULA COL         *
D081777997014  00378194303       2017/161618    QUICANO ALARCON  GIN00000000513000000000000000000000000000000000000000000000002020013120200108129340500700001INSCRIPCION SJL       *
D081777997014  00374866044       2017/161619    QUICANO ALARCON  MIL00000000513000000000000000000000000000000000000000000000002020013120200108129340500700002INSCRIPCION SJL       *
T081777997014  00304MATRICULA                     081777997014  000000000981900                                                                                                    *
T081777997014  00306MATRICULA SJL - PREMATRICULA  081777997014  000000000946200                                                                                                    *
T081777997014  00308MATRICULA CAR 2019            081777997014  000000000351000                                                                                                    *
H081777997014  009000000800000000005400000000000000020200108                                                                                                                       *
D081777997014  00975150368       FF19/2348      AGUIRRE ENCISO  JHON00000000060000000000000000000000000000000000000000000000002019122120200108120210500700072CERT ESTUDIOS CAR DI  *
D081777997014  00974303248       FF20/77        DE LA CRUZ DAVIRAN  00000000060000000000000000000000000000000000000000000000002020013120200108120580500700058CERT ESTUDIOS SJL EN  *
D081777997014  00974609610       FF20/69        MAURTUA ZAVALA  ATEN00000000120000000000000000000000000000000000000000000000002020013120200108222030500700086CERT ESTUDIO COL ENE  *
D081777997014  00962677706       FF20/55        CARRILLO BARRIENTOS 00000000060000000000000000000000000000000000000000000000002020013120200108122540500700075CERT ESTUDIO COL ENE  *
D081777997014  00962677707       FF20/53        CARRILLO BARRIENTOS 00000000060000000000000000000000000000000000000000000000002020013120200108122540500700077CERT ESTUDIO COL ENE  *
D081777997014  00974298779       FF20/68        KONG TARAZONA  JOSEP00000000060000000000000000000000000000000000000000000000002020013120200108122540500700149CERT ESTUDIO COL ENE  *
D081777997014  00970731773       FF20/59        MAMANI CRISTOBAL  ED00000000060000000000000000000000000000000000000000000000002020013120200108126610500700120CERT ESTUDIO COL ENE  *
D081777997014  00973701761       FF20/75        CANDELA MACA  KEVIN 00000000060000000000000000000000000000000000000000000000002020013120200108127420500700058CERT ESTUDIOS SJL EN  *
T081777997014  00929CERT ESTUDIO-COL              081777997014  000000000036000                                                                                                    *
T081777997014  00963CERT ESTUDIOS SJL             081777997014  000000000012000                                                                                                    *
T081777997014  00985CERT ESTUDIOS-CAR             081777997014  000000000006000                                                                                                    *
H081777997014  010000000200000000000600000000000000020200108                                                                                                                       *
D081777997014  01062677706       FF20/54        CARRILLO BARRIENTOS 00000000030000000000000000000000000000000000000000000000002020013120200108122540500700076CCIA NO ADEUDO COL E  *
D081777997014  01062677707       FF20/52        CARRILLO BARRIENTOS 00000000030000000000000000000000000000000000000000000000002020013120200108122540500700078CCIA NO ADEUDO COL E  *
T081777997014  01028CCIA NO ADEUDO COL            081777997014  000000000006000                                                                                                    *
H081777997014  012000000200000000000600000000000000020200108                                                                                                                       *
D081777997014  01260771720       FF20/51        DIAZ BRICENO  GABRIE00000000030000000000000000000000000000000000000000000000002020013120200108122130500700146PRA ACAD COLONIAL EN  *
D081777997014  01277414809       FF20/78        MERCADO HUAMAN  MATI00000000030000000000000000000000000000000000000000000000002020013120200108227844651008048PRA ACAD COLONIAL EN  *
T081777997014  01230PRA ACAD COLONIAL             081777997014  000000000006000                                                                                                    *
