H081777997014  001000001400000000083669700000000000020200215                                                                                                                       *
D081777997014  00160978805       2017/78234728  AYALA HUACHO  ALEXIA00000000640000000000000000000000000000000000000000000022082019063020200215120100500700013PENSION JUN 2019 COL  *
D081777997014  00160978805       2017/78236265  AYALA HUACHO  ALEXIA00000000640000000000000000000000000000000000000000000019102019073120200215120100500700013PENSION JUL 2019 COL  *
D081777997014  00160978805       2017/78237559  AYALA HUACHO  ALEXIA00000000640000000000000000000000000000000000000000000016132019083120200215120100500700013PENSION AGO 2019 COL  *
D081777997014  00160978805       2017/78238695  AYALA HUACHO  ALEXIA00000000640000000000000000000000000000000000000000000013252019093020200215120100500700013PENSION SEP 2019 COL  *
D081777997014  00160978805       2017/78239340  AYALA HUACHO  ALEXIA00000000640000000000000000000000000000000000000000000010272019103120200215120100500700013PENSION OCT 2019 COL  *
D081777997014  00160978805       2017/78241153  AYALA HUACHO  ALEXIA00000000640000000000000000000000000000000000000000000007392019113020200215120100500700013PENSION NOV 2019 COL  *
D081777997014  00160978805       2017/78242340  AYALA HUACHO  ALEXIA00000000640000000000000000000000000000000000000000000005382019122120200215120100500700013PENSION DIC 2019 COL  *
D081777997014  00177875608       2017/159714    FELIX SANTILLAN  ANT00000000495000000000000000000000000000000000000000000004162019122120200215120670500700026PENSION DIC 2019 SJL  *
D081777997014  00177300593       2017/159757    FELIX SANTILLAN  GHE00000000495000000000000000000000000000000000000000000004162019122120200215120670500700027PENSION DIC 2019 SJL  *
D081777997014  00177121552       2017/155606    JIMENEZ MAMANI  VANI00000000550000000000000000000000000000000000000000000013862019083120200215126910500700022PENSION AGO 2019 SJL  *
D081777997014  00177121552       2017/156649    JIMENEZ MAMANI  VANI00000000550000000000000000000000000000000000000000000011392019093020200215126910500700022PENSION SEP 2019 SJL  *
D081777997014  00177121552       2017/157525    JIMENEZ MAMANI  VANI00000000550000000000000000000000000000000000000000000008832019103120200215126910500700022PENSION OCT 2019 SJL  *
D081777997014  00177121552       2017/158914    JIMENEZ MAMANI  VANI00000000550000000000000000000000000000000000000000000006352019113020200215126910500700022PENSION NOV 2019 SJL  *
D081777997014  00177121552       2017/159705    JIMENEZ MAMANI  VANI00000000550000000000000000000000000000000000000000000004622019122120200215126910500700022PENSION DIC 2019 SJL  *
T081777997014  00101PENSION                       081777997014  000000000457360                                                                                                    *
T081777997014  00102PENSION SAN JUAN              081777997014  000000000379337                                                                                                    *
H081777997014  003000000900000000042800000000000000020200215                                                                                                                       *
D081777997014  00374761231       2017/80016370  SALAZAR QUIJANO  MEL00000000550000000000000000000000000000000000000000000000002020022820200215121830500700034INSCRIPCION CAR       *
D081777997014  00372215525       2017/78244759  COLLAZO TOLEDO  ELSA00000000670000000000000000000000000000000000000000000000002020022820200215122240500700018MATRICULA COL         *
D081777997014  00373586276       2017/78244651  SULCA FLORES  JOSHUA00000000670000000000000000000000000000000000000000000000002020022820200215222240500700021MATRICULA COL         *
D081777997014  00373723142       2017/80016372  FERNANDEZ ARZAPALO  00000000560000000000000000000000000000000000000000000000002020022820200215122290500700074MATRICULA CAR         *
D081777997014  00373723142       2017/80016380  FERNANDEZ ARZAPALO  00000000175000000000000000000000000000000000000000000000002020022820200215122290500700074INSCRIPCION CAR       *
D081777997014  00378409674       2017/80016374  GUERRERO ARZAPALO  F00000000560000000000000000000000000000000000000000000000002020022820200215122290500700075MATRICULA CAR         *
D081777997014  00378409674       2017/80016381  GUERRERO ARZAPALO  F00000000175000000000000000000000000000000000000000000000002020022820200215122290500700075INSCRIPCION CAR       *
D081777997014  00361140400       2017/162013    RUBINA GARRO  STEFAN00000000350000000000000000000000000000000000000000000000002020022820200215126910500700028INSCRIPCION SJL       *
D081777997014  00361140400       2017/162014    RUBINA GARRO  STEFAN00000000570000000000000000000000000000000000000000000000002020022820200215126910500700028MATRICULA SJL         *
T081777997014  00304MATRICULA                     081777997014  000000000134000                                                                                                    *
T081777997014  00306MATRICULA SJL 2020            081777997014  000000000057000                                                                                                    *
T081777997014  00307DERECHO DE INGRESO SJL 2018   081777997014  000000000035000                                                                                                    *
T081777997014  00308MATRICULA 2020 CARABAYLLO     081777997014  000000000167000                                                                                                    *
T081777997014  00309DERECHO DE INGRESO 2020 CARABA081777997014  000000000035000                                                                                                    *
