H081777997014  001000006700000000394905800000000000020200228                                                                                                                       *
D081777997014  00174136779       2017/78243093  PEREZ TENORIO  LEAND00000000640000000000000000000000000000000000000000000008642019113020200228120140500700086PENSION NOV 2019 COL  *
D081777997014  00171679046       2017/78242438  ROCHA PANDURO  FRANC00000000640000000000000000000000000000000000000000000006622019122120200228120140500700098PENSION DIC 2019 COL  *
D081777997014  00172188041       2017/78235967  ROCHA PANDURO  JUAN 00000000576000000000000000000000000000000000000000000018322019073120200228120140500700100PENSION JUL 2019 COL  *
D081777997014  00174136779       2017/78243094  PEREZ TENORIO  LEAND00000000640000000000000000000000000000000000000000000006622019122120200228120140500700103PENSION DIC 2019 COL  *
D081777997014  00175667223       2017/160280    PINTO POCOHUANCA  PA00000000540000000000000000000000000000000000000000000005592019122120200228120360500700022PENSION DIC 2019 SJL  *
D081777997014  00174682637       2017/80014232  COPARA MEJIA  JOAQUI00000000550000000000000000000000000000000000000000000009902019103120200228121910500700008PENSION OCT 2019 CAR  *
D081777997014  00173842220       2017/80015867  COPARA MEJIA  ALEJAN00000000550000000000000000000000000000000000000000000009902019103120200228121910500700009PENSION OCT 2019 CAR  *
D081777997014  00173842220       2017/80015868  COPARA MEJIA  ALEJAN00000000550000000000000000000000000000000000000000000007432019113020200228121910500700013PENSION NOV 2019 CAR  *
D081777997014  00173842220       2017/80015869  COPARA MEJIA  ALEJAN00000000550000000000000000000000000000000000000000000005692019122120200228121910500700013PENSION DIC 2019 CAR  *
D081777997014  00174682637       2017/80014709  COPARA MEJIA  JOAQUI00000000550000000000000000000000000000000000000000000007432019113020200228121910500700014PENSION NOV 2019 CAR  *
D081777997014  00174682637       2017/80015190  COPARA MEJIA  JOAQUI00000000550000000000000000000000000000000000000000000005692019122120200228121910500700014PENSION DIC 2019 CAR  *
D081777997014  00173842220       2017/80015865  COPARA MEJIA  ALEJAN00000000550000000000000000000000000000000000000000000014932019083120200228122130500700114PENSION AGO 2019 CAR  *
D081777997014  00173842220       2017/80015866  COPARA MEJIA  ALEJAN00000000550000000000000000000000000000000000000000000012462019093020200228122130500700114PENSION SEP 2019 CAR  *
D081777997014  00174682637       2017/80013278  COPARA MEJIA  JOAQUI00000000550000000000000000000000000000000000000000000014932019083120200228122130500700115PENSION AGO 2019 CAR  *
D081777997014  00174682637       2017/80013753  COPARA MEJIA  JOAQUI00000000550000000000000000000000000000000000000000000012462019093020200228122130500700115PENSION SEP 2019 CAR  *
D081777997014  00171186902       2017/78231531  GONAS CALDERON  ADRI00000000640000000000000000000000000000000000000000000032062019033120200228122540500700047PENSION MAR 2019 COL  *
D081777997014  00171186902       2017/78232746  GONAS CALDERON  ADRI00000000640000000000000000000000000000000000000000000029182019043020200228122540500700047PENSION ABR 2019 COL  *
D081777997014  00171186902       2017/78234081  GONAS CALDERON  ADRI00000000640000000000000000000000000000000000000000000026212019053120200228122540500700047PENSION MAY 2019 COL  *
D081777997014  00171186902       2017/78234853  GONAS CALDERON  ADRI00000000640000000000000000000000000000000000000000000023332019063020200228122540500700047PENSION JUN 2019 COL  *
D081777997014  00171186902       2017/78236393  GONAS CALDERON  ADRI00000000640000000000000000000000000000000000000000000020352019073120200228122540500700047PENSION JUL 2019 COL  *
D081777997014  00171186902       2017/78237679  GONAS CALDERON  ADRI00000000640000000000000000000000000000000000000000000017382019083120200228122540500700047PENSION AGO 2019 COL  *
D081777997014  00178724052       2017/78240564  PASTOR LLANOS  LEONA00000000560000000000000000000000000000000000000000000007562019113020200228222540500700049PENSION NOV 2019 COL  *
D081777997014  00178724052       2017/78241912  PASTOR LLANOS  LEONA00000000560000000000000000000000000000000000000000000005802019122120200228222540500700049PENSION DIC 2019 COL  *
D081777997014  00171186902       2017/78238821  GONAS CALDERON  ADRI00000000640000000000000000000000000000000000000000000014502019093020200228122540500700060PENSION SEP 2019 COL  *
D081777997014  00171186902       2017/78239466  GONAS CALDERON  ADRI00000000640000000000000000000000000000000000000000000011522019103120200228122540500700060PENSION OCT 2019 COL  *
D081777997014  00171186902       2017/78241251  GONAS CALDERON  ADRI00000000640000000000000000000000000000000000000000000008642019113020200228122540500700060PENSION NOV 2019 COL  *
D081777997014  00171186902       2017/78242463  GONAS CALDERON  ADRI00000000640000000000000000000000000000000000000000000006622019122120200228122540500700060PENSION DIC 2019 COL  *
D081777997014  00161043929       2017/78236413  HUACAYCHUCO MELENDEZ00000000640000000000000000000000000000000000000000000020352019073120200228124280500700080PENSION JUL 2019 COL  *
D081777997014  00161043929       2017/78243427  HUACAYCHUCO MELENDEZ00000000448000000000000000000000000000000000000000000012162019083120200228124280500700080PENSION AGO 2019 COL  *
D081777997014  00161043929       2017/78243428  HUACAYCHUCO MELENDEZ00000000448000000000000000000000000000000000000000000010152019093020200228124280500700080PENSION SEP 2019 COL  *
D081777997014  00161043929       2017/78243429  HUACAYCHUCO MELENDEZ00000000448000000000000000000000000000000000000000000008062019103120200228124280500700080PENSION OCT 2019 COL  *
D081777997014  00161043929       2017/78243430  HUACAYCHUCO MELENDEZ00000000448000000000000000000000000000000000000000000006052019113020200228124280500700080PENSION NOV 2019 COL  *
D081777997014  00171962516       2017/78235485  DURAN CARRANZA  LIND00000000576000000000000000000000000000000000000000000021002019063020200228126570500700062PENSION JUN 2019 COL  *
D081777997014  00171962516       2017/78235810  DURAN CARRANZA  LIND00000000576000000000000000000000000000000000000000000018322019073120200228126570500700062PENSION JUL 2019 COL  *
D081777997014  00171962516       2017/78237180  DURAN CARRANZA  LIND00000000576000000000000000000000000000000000000000000015642019083120200228126570500700062PENSION AGO 2019 COL  *
D081777997014  00171962516       2017/78238143  DURAN CARRANZA  LIND00000000576000000000000000000000000000000000000000000013052019093020200228126570500700062PENSION SEP 2019 COL  *
D081777997014  00171962516       2017/78240108  DURAN CARRANZA  LIND00000000576000000000000000000000000000000000000000000010372019103120200228126570500700062PENSION OCT 2019 COL  *
D081777997014  00171962516       2017/78240662  DURAN CARRANZA  LIND00000000576000000000000000000000000000000000000000000007782019113020200228126570500700062PENSION NOV 2019 COL  *
D081777997014  00171962516       2017/78241758  DURAN CARRANZA  LIND00000000576000000000000000000000000000000000000000000005962019122120200228126570500700062PENSION DIC 2019 COL  *
D081777997014  00172599482       2017/78234967  DURAN CARRANZA  WILL00000000640000000000000000000000000000000000000000000023332019063020200228126570500700063PENSION JUN 2019 COL  *
D081777997014  00172599482       2017/78236504  DURAN CARRANZA  WILL00000000640000000000000000000000000000000000000000000020352019073120200228126570500700063PENSION JUL 2019 COL  *
D081777997014  00172599482       2017/78237792  DURAN CARRANZA  WILL00000000640000000000000000000000000000000000000000000017382019083120200228126570500700063PENSION AGO 2019 COL  *
D081777997014  00172599482       2017/78238934  DURAN CARRANZA  WILL00000000640000000000000000000000000000000000000000000014502019093020200228126570500700063PENSION SEP 2019 COL  *
D081777997014  00172599482       2017/78239579  DURAN CARRANZA  WILL00000000640000000000000000000000000000000000000000000011522019103120200228126570500700063PENSION OCT 2019 COL  *
D081777997014  00172599482       2017/78241364  DURAN CARRANZA  WILL00000000640000000000000000000000000000000000000000000008642019113020200228126570500700063PENSION NOV 2019 COL  *
D081777997014  00172599482       2017/78242579  DURAN CARRANZA  WILL00000000640000000000000000000000000000000000000000000006622019122120200228126570500700063PENSION DIC 2019 COL  *
D081777997014  00173560442       2017/160112    ARONI VARGAS  BIANCA00000000550000000000000000000000000000000000000000000005692019122120200228126860500700007PENSION DIC 2019 SJL  *
D081777997014  00173846768       2017/152578    DELGADO PEREZ  CAMIL00000000550000000000000000000000000000000000000000000022522019053120200228126910500700053PENSION MAY 2019 SJL  *
D081777997014  00173846768       2017/153619    DELGADO PEREZ  CAMIL00000000550000000000000000000000000000000000000000000020052019063020200228126910500700053PENSION JUN 2019 SJL  *
D081777997014  00173846768       2017/154388    DELGADO PEREZ  CAMIL00000000550000000000000000000000000000000000000000000017492019073120200228126910500700053PENSION JUL 2019 SJL  *
D081777997014  00173846768       2017/155756    DELGADO PEREZ  CAMIL00000000550000000000000000000000000000000000000000000014932019083120200228126910500700053PENSION AGO 2019 SJL  *
D081777997014  00173846768       2017/156789    DELGADO PEREZ  CAMIL00000000550000000000000000000000000000000000000000000012462019093020200228126910500700053PENSION SEP 2019 SJL  *
D081777997014  00173846768       2017/157816    DELGADO PEREZ  CAMIL00000000550000000000000000000000000000000000000000000009902019103120200228126910500700053PENSION OCT 2019 SJL  *
D081777997014  00173846768       2017/158894    DELGADO PEREZ  CAMIL00000000550000000000000000000000000000000000000000000007432019113020200228126910500700053PENSION NOV 2019 SJL  *
D081777997014  00173846768       2017/159846    DELGADO PEREZ  CAMIL00000000550000000000000000000000000000000000000000000005692019122120200228126910500700053PENSION DIC 2019 SJL  *
D081777997014  00175507547       2017/78242287  DE LOS SANTOS PEQUEN00000000576000000000000000000000000000000000000000000005962019122120200228227844651003750PENSION DIC 2019 COL  *
D081777997014  00178724052       2017/78235390  PASTOR LLANOS  LEONA00000000560000000000000000000000000000000000000000000020412019063020200228227844651005103PENSION JUN 2019 COL  *
D081777997014  00178724052       2017/78235712  PASTOR LLANOS  LEONA00000000560000000000000000000000000000000000000000000017812019073120200228227844651005110PENSION JUL 2019 COL  *
D081777997014  00178724052       2017/78236994  PASTOR LLANOS  LEONA00000000560000000000000000000000000000000000000000000015202019083120200228227844651005113PENSION AGO 2019 COL  *
D081777997014  00178724052       2017/78238200  PASTOR LLANOS  LEONA00000000560000000000000000000000000000000000000000000012682019093020200228227844651005118PENSION SEP 2019 COL  *
D081777997014  00178724052       2017/78240240  PASTOR LLANOS  LEONA00000000560000000000000000000000000000000000000000000010082019103120200228227844651005122PENSION OCT 2019 COL  *
D081777997014  00177111063       2017/151287    FIGUEROA QUINTANILLA00000000540000000000000000000000000000000000000000000027052019033120200228129340500700003PENSION MAR 2019 SJL  *
D081777997014  00177111063       2017/152318    FIGUEROA QUINTANILLA00000000540000000000000000000000000000000000000000000024622019043020200228129340500700003PENSION ABR 2019 SJL  *
D081777997014  00177111063       2017/153340    FIGUEROA QUINTANILLA00000000540000000000000000000000000000000000000000000022112019053120200228129340500700003PENSION MAY 2019 SJL  *
D081777997014  00177111063       2017/154362    FIGUEROA QUINTANILLA00000000540000000000000000000000000000000000000000000019682019063020200228129340500700003PENSION JUN 2019 SJL  *
D081777997014  00177111063       2017/155027    FIGUEROA QUINTANILLA00000000540000000000000000000000000000000000000000000017172019073120200228129340500700003PENSION JUL 2019 SJL  *
D081777997014  00177111063       2017/156406    FIGUEROA QUINTANILLA00000000540000000000000000000000000000000000000000000014662019083120200228129340500700003PENSION AGO 2019 SJL  *
T081777997014  00101PENSION                       081777997014  000000002491272                                                                                                    *
T081777997014  00102PENSION SAN JUAN              081777997014  000000000897704                                                                                                    *
T081777997014  00103PENSION                       081777997014  000000000560082                                                                                                    *
H081777997014  003000004400000000259450000000000000020200228                                                                                                                       *
D081777997014  00378609144       2017/78245017  REANO AGUILAR  ALMEN00000000570000000000000000000000000000000000000000000000002020033120200228120100500700111MATRICULA COL         *
D081777997014  00371969798       2017/78245036  BECERRA URRUTIA  JAN00000000670000000000000000000000000000000000000000000000002020033120200228120130500700073MATRICULA COL         *
D081777997014  00381071086       2017/78244990  ROMAN SEGURA  KARLO 00000000580000000000000000000000000000000000000000000000002020022820200228120210500700097MATRICULA COL         *
D081777997014  00381071086       2017/78244991  ROMAN SEGURA  KARLO 00000000350000000000000000000000000000000000000000000000002020022820200228120210500700098INSCRIPCION COL       *
D081777997014  00360733496       2017/78245040  CARHUANCHO COURT  BE00000000670000000000000000000000000000000000000000000000002020033120200228120250500700076MATRICULA COL         *
D081777997014  00362047364       2017/162081    SOLARI TINEO  FAIRUS00000000570000000000000000000000000000000000000000000000002020022820200228120580500700131MATRICULA SJL         *
D081777997014  00360822542       2017/78244987  LIRA CULLAS  LAURA N00000000670000000000000000000000000000000000000000000000002020022820200228220630500700043MATRICULA COL         *
D081777997014  00372413770       2017/78244988  LIRA CULLAS  LUIS DA00000000670000000000000000000000000000000000000000000000002020022820200228220630500700044MATRICULA COL         *
D081777997014  00373730539       2017/80016320  ROJAS HUAMANI  EVIGH00000000560000000000000000000000000000000000000000000000002020022820200228120920500700189INSCRIPCION CAR       *
D081777997014  00360427933       2017/78245050  SANCHEZ CLAROS  JAIR00000000670000000000000000000000000000000000000000000000002020033120200228121770500700058MATRICULA COL         *
D081777997014  00378319382       2017/78244985  CORTABRAZO MINAYA  J00000000580000000000000000000000000000000000000000000000002020022820200228122030500700058MATRICULA COL         *
D081777997014  00374335880       2017/78244932  SEMPERTEGUI CHINCHAY00000000670000000000000000000000000000000000000000000000002020022820200228122130500700032MATRICULA COL         *
D081777997014  00361058114       2017/78244955  GARAVITO BALTODANO  00000000670000000000000000000000000000000000000000000000002020022820200228122160500700013MATRICULA COL         *
D081777997014  00361530250       2017/78244936  REYES RODRIGUEZ  ALL00000000670000000000000000000000000000000000000000000000002020022820200228122240500700068MATRICULA COL         *
D081777997014  00361530250       2017/78244937  REYES RODRIGUEZ  ALL00000000350000000000000000000000000000000000000000000000002020022820200228122240500700068INSCRIPCION COL       *
D081777997014  00372930267       2017/78244940  REYES RODRIGUEZ  ARI00000000670000000000000000000000000000000000000000000000002020022820200228122240500700069MATRICULA COL         *
D081777997014  00372930267       2017/78244941  REYES RODRIGUEZ  ARI00000000350000000000000000000000000000000000000000000000002020022820200228122240500700069INSCRIPCION COL       *
D081777997014  00377615515       2017/162098    OLIVA TOMAS  SAID BE00000000570000000000000000000000000000000000000000000000002020022820200228122470500700025MATRICULA SJL         *
D081777997014  00377615515       2017/162099    OLIVA TOMAS  SAID BE00000000350000000000000000000000000000000000000000000000002020022820200228122470500700025INSCRIPCION SJL       *
D081777997014  00373927797       2017/162052    PARRA TORRES  LEONAR00000000570000000000000000000000000000000000000000000000002020022820200228122470500700088MATRICULA SJL         *
D081777997014  00371669975       2017/162051    PARRA TORRES  GIOMAR00000000570000000000000000000000000000000000000000000000002020022820200228122470500700089MATRICULA SJL         *
D081777997014  00374066750       2017/78244903  RAMIREZ PACHECO  ANA00000000670000000000000000000000000000000000000000000000002020022820200228122540500700006MATRICULA COL         *
D081777997014  00372105238       2017/78244998  CANCINO JUNCO  VALER00000000670000000000000000000000000000000000000000000000002020022820200228122540500700013MATRICULA COL         *
D081777997014  00375521868       2017/78244925  CHAVEZ AVALOS  WILLA00000000670000000000000000000000000000000000000000000000002020022820200228222540500700022MATRICULA COL         *
D081777997014  00360905038       2017/78245027  PASTRANA PISCOYA  MI00000000670000000000000000000000000000000000000000000000002020033120200228122540500700071MATRICULA COL         *
D081777997014  00377785559       2017/78245003  SANDOVAL SEGURA  DAN00000000670000000000000000000000000000000000000000000000002020033120200228122540500700075MATRICULA COL         *
D081777997014  00375346354       2017/78245005  SANDOVAL SEGURA  LEO00000000335000000000000000000000000000000000000000000000002020033120200228122540500700076MATRICULA COL         *
D081777997014  00373833606       2017/78245034  SARANGO ALDANA  FABR00000000670000000000000000000000000000000000000000000000002020033120200228123720500700106MATRICULA COL         *
D081777997014  00374850191       2017/78245011  ROBLES VELEZ  SEBAST00000000670000000000000000000000000000000000000000000000002020033120200228124280500700063MATRICULA COL         *
D081777997014  00377875608       2017/162058    FELIX SANTILLAN  ANT00000000570000000000000000000000000000000000000000000000002020022820200228126570500700008MATRICULA SJL         *
D081777997014  00377300593       2017/162057    FELIX SANTILLAN  GHE00000000570000000000000000000000000000000000000000000000002020022820200228126570500700009MATRICULA SJL         *
D081777997014  00378694823       2017/162059    FELIX SANTILLAN  BRI00000000570000000000000000000000000000000000000000000000002020022820200228126570500700017MATRICULA SJL         *
D081777997014  00379249015       2017/80016473  CESPEDES RISCO  JESU00000000560000000000000000000000000000000000000000000000002020022820200228226570500700074MATRICULA CAR         *
D081777997014  00370630676       2017/78244820  ECHE BANCAYAN  CRIST00000000670000000000000000000000000000000000000000000000002020022820200228126610500700048MATRICULA COL         *
D081777997014  00376501993       2017/78245046  SISNIEGAS SEMINARIO 00000000670000000000000000000000000000000000000000000000002020033120200228126610500700146MATRICULA COL         *
D081777997014  00373429600       2017/162106    SANTOS BUENO  MARCIO00000000570000000000000000000000000000000000000000000000002020033120200228126860500700008MATRICULA SJL         *
D081777997014  00374117621       2017/162029    INGA JIMENEZ  SAMIR 00000000570000000000000000000000000000000000000000000000002020022820200228126910500700064MATRICULA SJL         *
D081777997014  00362025300       2017/162096    QUEZADA PAREDES  CLA00000000570000000000000000000000000000000000000000000000002020022820200228226910500700073MATRICULA SJL         *
D081777997014  00374898092       2017/162075    RONQUILLO ALVAREZ  A00000000570000000000000000000000000000000000000000000000002020022820200228126910500700105MATRICULA SJL         *
D081777997014  00378733417       2017/162107    MORI CRUZ  REDDY MAT00000000570000000000000000000000000000000000000000000000002020033120200228126910500700125MATRICULA SJL         *
D081777997014  00370727435       2017/80016509  ALEJOS FELIX  SAILE 00000000550000000000000000000000000000000000000000000000002020022820200228227844651004440INSCRIPCION CAR       *
D081777997014  00376569707       2017/78245047  ESPINOZA BOBBIO  ANG00000000670000000000000000000000000000000000000000000000002020033120200228227844651011554MATRICULA COL         *
D081777997014  00371364075       2017/78245048  ESPINOZA BOBBIO  MEL00000000670000000000000000000000000000000000000000000000002020033120200228227844651011699MATRICULA COL         *
D081777997014  00378624752       2017/78244962  DOMINGUEZ BENAVIDES 00000000570000000000000000000000000000000000000000000000002020022820200228227844671000573MATRICULA COL         *
T081777997014  00304MATRICULA                     081777997014  000000001603500                                                                                                    *
T081777997014  00305DERECHO DE INGRESO COL        081777997014  000000000105000                                                                                                    *
T081777997014  00306MATRICULA SJL 2020            081777997014  000000000684000                                                                                                    *
T081777997014  00307DERECHO DE INGRESO SJL 2018   081777997014  000000000035000                                                                                                    *
T081777997014  00308MATRICULA 2020 CARABAYLLO     081777997014  000000000167000                                                                                                    *
H081777997014  008000000100000000000250000000000000020200228                                                                                                                       *
D081777997014  00871737362       FF20/661       CHAVEZ DEZA  NICOLE 00000000025000000000000000000000000000000000000000000000002020022820200228122160500700151CERT CONDUCTA COL FE  *
T081777997014  00826CERT CONDUCTA COL             081777997014  000000000002500                                                                                                    *
H081777997014  009000000600000000003600000000000000020200228                                                                                                                       *
D081777997014  00974520479       FF20/640       FUSTER ROJAS  TAKIRY00000000060000000000000000000000000000000000000000000000002020022820200228120220500700131CERT ESTUDIOS SJL FE  *
D081777997014  00978527888       FF20/665       LEAL PINEDA  SAYEN A00000000060000000000000000000000000000000000000000000000002020022820200228120670500700002CERT ESTUDIOS CAR FE  *
D081777997014  00971737362       FF20/662       CHAVEZ DEZA  NICOLE 00000000060000000000000000000000000000000000000000000000002020022820200228122160500700151CERT ESTUDIO COL FEB  *
D081777997014  00945341305       FF20/669       GOMEZ GUILLEN  HENRY00000000060000000000000000000000000000000000000000000000002020022820200228122470500700102CERT ESTUDIOS SJL FE  *
D081777997014  00974812572       FF20/611       FLORES SALAS  ARIANA00000000060000000000000000000000000000000000000000000000002020022820200228124450500700165CERT ESTUDIOS CAR FE  *
D081777997014  00975330650       FF20/658       CARHUACUSMA MENDOZA 00000000060000000000000000000000000000000000000000000000002020022820200228126910500700037CERT ESTUDIOS SJL FE  *
T081777997014  00929CERT ESTUDIO-COL              081777997014  000000000006000                                                                                                    *
T081777997014  00963CERT ESTUDIOS SJL             081777997014  000000000018000                                                                                                    *
T081777997014  00999CERT ESTUDIOS-CAR             081777997014  000000000012000                                                                                                    *
