H081777997014  001000004300000000243296500000000000020200122                                                                                                                       *
D081777997014  00177364786       2017/150382    MONTALVAN ORELLANA  00000000550000000000000000000000000000000000000000000024502019033120200122120580500700048PENSION MAR 2019 SJL  *
D081777997014  00177364786       2017/151549    MONTALVAN ORELLANA  00000000550000000000000000000000000000000000000000000022032019043020200122120580500700048PENSION ABR 2019 SJL  *
D081777997014  00177364786       2017/152603    MONTALVAN ORELLANA  00000000550000000000000000000000000000000000000000000019472019053120200122120580500700048PENSION MAY 2019 SJL  *
D081777997014  00177364786       2017/153641    MONTALVAN ORELLANA  00000000550000000000000000000000000000000000000000000017002019063020200122120580500700048PENSION JUN 2019 SJL  *
D081777997014  00177364786       2017/155310    MONTALVAN ORELLANA  00000000550000000000000000000000000000000000000000000014442019073120200122120580500700048PENSION JUL 2019 SJL  *
D081777997014  00177364786       2017/155580    MONTALVAN ORELLANA  00000000550000000000000000000000000000000000000000000011882019083120200122120580500700048PENSION AGO 2019 SJL  *
D081777997014  00177364786       2017/156623    MONTALVAN ORELLANA  00000000550000000000000000000000000000000000000000000009412019093020200122120580500700048PENSION SEP 2019 SJL  *
D081777997014  00177364786       2017/157499    MONTALVAN ORELLANA  00000000550000000000000000000000000000000000000000000006852019103120200122120580500700048PENSION OCT 2019 SJL  *
D081777997014  00177364786       2017/158749    MONTALVAN ORELLANA  00000000550000000000000000000000000000000000000000000004372019113020200122120580500700048PENSION NOV 2019 SJL  *
D081777997014  00177364786       2017/159692    MONTALVAN ORELLANA  00000000550000000000000000000000000000000000000000000002642019122120200122120580500700048PENSION DIC 2019 SJL  *
D081777997014  00177605862       2017/160011    BARNECHEA PUSCAN  GU00000000550000000000000000000000000000000000000000000002642019122120200122120900500700075PENSION DIC 2019 SJL  *
D081777997014  00179527272       2017/158847    CARRION ALLCCA  LEAN00000000560000000000000000000000000000000000000000000004452019113020200122122470500700005PENSION NOV 2019 SJL  *
D081777997014  00179527272       2017/159801    CARRION ALLCCA  LEAN00000000560000000000000000000000000000000000000000000002692019122120200122122470500700005PENSION DIC 2019 SJL  *
D081777997014  00170853227       2017/160135    ASTOLA BEJAR  MARICI00000000540000000000000000000000000000000000000000000002592019122120200122122470500700008PENSION DIC 2019 SJL  *
D081777997014  00173158299       2017/78239634  CUENCA ROJAS  HILLAR00000000640000000000000000000000000000000000000000000007972019103120200122122540500700117PENSION OCT 2019 COL  *
D081777997014  00173158299       2017/78241385  CUENCA ROJAS  HILLAR00000000640000000000000000000000000000000000000000000005092019113020200122122540500700117PENSION NOV 2019 COL  *
D081777997014  00173158299       2017/78242600  CUENCA ROJAS  HILLAR00000000640000000000000000000000000000000000000000000003072019122120200122122540500700117PENSION DIC 2019 COL  *
D081777997014  00160771720       2017/78238304  DIAZ BRICENO  GABRIE00000000640000000000000000000000000000000000000000000010942019093020200122223880500700040PENSION SEP 2019 COL  *
D081777997014  00160771720       2017/78240172  DIAZ BRICENO  GABRIE00000000640000000000000000000000000000000000000000000007972019103120200122223880500700040PENSION OCT 2019 COL  *
D081777997014  00160771720       2017/78240865  DIAZ BRICENO  GABRIE00000000640000000000000000000000000000000000000000000005092019113020200122223880500700040PENSION NOV 2019 COL  *
D081777997014  00160771720       2017/78241822  DIAZ BRICENO  GABRIE00000000640000000000000000000000000000000000000000000003072019122120200122223880500700040PENSION DIC 2019 COL  *
D081777997014  00170512631       2017/80014984  STEIN VENEGAS  CARLO00000000540000000000000000000000000000000000000000000002592019122120200122124450500700039PENSION DIC 2019 CAR  *
D081777997014  00171370039       2017/155555    TORRES DAMIANO  CARL00000000550000000000000000000000000000000000000000000011882019083120200122126860500700002PENSION AGO 2019 SJL  *
D081777997014  00171370039       2017/156598    TORRES DAMIANO  CARL00000000550000000000000000000000000000000000000000000009412019093020200122126860500700002PENSION SEP 2019 SJL  *
D081777997014  00171370039       2017/157474    TORRES DAMIANO  CARL00000000550000000000000000000000000000000000000000000006852019103120200122126860500700002PENSION OCT 2019 SJL  *
D081777997014  00171167400       2017/159736    CORONADO CANALES  MI00000000550000000000000000000000000000000000000000000002642019122120200122126910500700038PENSION DIC 2019 SJL  *
D081777997014  00171370039       2017/158724    TORRES DAMIANO  CARL00000000550000000000000000000000000000000000000000000004372019113020200122126910500700061PENSION NOV 2019 SJL  *
D081777997014  00171370039       2017/159680    TORRES DAMIANO  CARL00000000550000000000000000000000000000000000000000000002642019122120200122126910500700061PENSION DIC 2019 SJL  *
D081777997014  00177545912       2017/152419    YALLE MORENO  NAOMI 00000000495000000000000000000000000000000000000000000017522019053120200122127420500700038PENSION MAY 2019 SJL  *
D081777997014  00177545912       2017/153449    YALLE MORENO  NAOMI 00000000495000000000000000000000000000000000000000000015302019063020200122127420500700038PENSION JUN 2019 SJL  *
D081777997014  00177545912       2017/155289    YALLE MORENO  NAOMI 00000000495000000000000000000000000000000000000000000012992019073120200122127420500700038PENSION JUL 2019 SJL  *
D081777997014  00177545912       2017/155537    YALLE MORENO  NAOMI 00000000495000000000000000000000000000000000000000000010692019083120200122127420500700038PENSION AGO 2019 SJL  *
D081777997014  00177545912       2017/156580    YALLE MORENO  NAOMI 00000000495000000000000000000000000000000000000000000008462019093020200122127420500700038PENSION SEP 2019 SJL  *
D081777997014  00177545912       2017/157456    YALLE MORENO  NAOMI 00000000495000000000000000000000000000000000000000000006162019103120200122127420500700038PENSION OCT 2019 SJL  *
D081777997014  00174893883       2017/158193    LINO COTRINA  DANIEL00000000540000000000000000000000000000000000000000000006722019103120200122227844651001948PENSION OCT 2019 SJL  *
D081777997014  00174893883       2017/159375    LINO COTRINA  DANIEL00000000540000000000000000000000000000000000000000000004292019113020200122227844651001950PENSION NOV 2019 SJL  *
D081777997014  00174893883       2017/160237    LINO COTRINA  DANIEL00000000540000000000000000000000000000000000000000000002592019122120200122227844651001951PENSION DIC 2019 SJL  *
D081777997014  00161106643       2017/80014636  DAGA GONZALES  NICOL00000000495000000000000000000000000000000000000000000003942019113020200122227844651009138PENSION NOV 2019 CAR  *
D081777997014  00161106643       2017/80015058  DAGA GONZALES  NICOL00000000495000000000000000000000000000000000000000000002382019122120200122227844651009190PENSION DIC 2019 CAR  *
D081777997014  00177623283       2017/80014654  DAGA GONZALES  MOISE00000000550000000000000000000000000000000000000000000004372019113020200122227844651009354PENSION NOV 2019 CAR  *
D081777997014  00177623283       2017/80015076  DAGA GONZALES  MOISE00000000550000000000000000000000000000000000000000000002642019122120200122227844651009389PENSION DIC 2019 CAR  *
D081777997014  00172999215       2017/78239645  CANO QUITO  KIARA VA00000000640000000000000000000000000000000000000000000007972019103120200122227844651012723PENSION OCT 2019 COL  *
D081777997014  00172999215       2017/78241430  CANO QUITO  KIARA VA00000000640000000000000000000000000000000000000000000005092019113020200122227844651012725PENSION NOV 2019 COL  *
T081777997014  00101PENSION                       081777997014  000000000581626                                                                                                    *
T081777997014  00102PENSION SAN JUAN              081777997014  000000001586747                                                                                                    *
T081777997014  00103PENSION                       081777997014  000000000264592                                                                                                    *
H081777997014  003000002100000000123900000000000000020200122                                                                                                                       *
D081777997014  00372826278       2017/80016209  DIAZ QUIROZ  LUANA F00000000560000000000000000000000000000000000000000000000002020013120200122220210500700040INSCRIPCION CAR       *
D081777997014  00378517115       2017/161760    CASTRO FARRO  ARIADN00000000570000000000000000000000000000000000000000000000002020013120200122120920500700091MATRICULA SJL         *
D081777997014  00374103697       2017/161810    VILCAPUMA GARCIA  SA00000000570000000000000000000000000000000000000000000000002020013120200122121490500700013MATRICULA SJL         *
D081777997014  00377240365       2017/161811    VILCAPUMA GARCIA  AN00000000570000000000000000000000000000000000000000000000002020013120200122121490500700014MATRICULA SJL         *
D081777997014  00371839001       2017/78244461  GUERRA TEVEZ  DIANA 00000000670000000000000000000000000000000000000000000000002020013120200122122100500700061MATRICULA COL         *
D081777997014  00374337057       2017/78244438  ALCANTARA SAMANEZ  D00000000670000000000000000000000000000000000000000000000002020013120200122122160500700054MATRICULA COL         *
D081777997014  00370697816       2017/78244437  ALCANTARA SAMANEZ  M00000000670000000000000000000000000000000000000000000000002020013120200122122160500700055MATRICULA COL         *
D081777997014  00362945512       2017/78244487  SILVA MOROCHO  LUANA00000000670000000000000000000000000000000000000000000000002020013120200122122160500700145MATRICULA COL         *
D081777997014  00362578839       2017/161797    GAMBOA BUSTAMANTE  A00000000570000000000000000000000000000000000000000000000002020013120200122122470500700075MATRICULA SJL         *
D081777997014  00374141669       2017/161816    OCHOA GIRALDO  RAFAE00000000570000000000000000000000000000000000000000000000002020013120200122122470500700077MATRICULA SJL         *
D081777997014  00372459229       2017/161777    PEDRAZA PADILLA  JEN00000000570000000000000000000000000000000000000000000000002020013120200122122470500700079MATRICULA SJL         *
D081777997014  00373013031       2017/78244411  MUNDACA PACHECO  BRA00000000670000000000000000000000000000000000000000000000002020013120200122222540500700014MATRICULA COL         *
D081777997014  00373173372       2017/78244449  IGLESIAS LLERENA  FA00000000670000000000000000000000000000000000000000000000002020013120200122122660500700042MATRICULA COL         *
D081777997014  00373734592       2017/78244451  IGLESIAS LLERENA  FA00000000670000000000000000000000000000000000000000000000002020013120200122122660500700043MATRICULA COL         *
D081777997014  00377119882       2017/78244450  IGLESIAS LLERENA  LU00000000670000000000000000000000000000000000000000000000002020013120200122122660500700044MATRICULA COL         *
D081777997014  00390327471       2017/78244454  SANCHEZ SIFUENTES  L00000000670000000000000000000000000000000000000000000000002020013120200122126610500700053MATRICULA COL         *
D081777997014  00378056785       2017/161821    MAZA CORDOVA  CIELO 00000000570000000000000000000000000000000000000000000000002020013120200122226910500700039MATRICULA SJL         *
D081777997014  00378056785       2017/161822    MAZA CORDOVA  CIELO 00000000350000000000000000000000000000000000000000000000002020013120200122226910500700039INSCRIPCION SJL       *
D081777997014  00376899834       2017/80016222  ROMERO LOZANO  OCTAV00000000560000000000000000000000000000000000000000000000002020013120200122127020500700035INSCRIPCION CAR       *
D081777997014  00370633615       2017/80016214  MORY CRUZ DEL CASTIL00000000550000000000000000000000000000000000000000000000002020013120200122227844651005054MATRICULA CAR         *
D081777997014  00370633615       2017/80016215  MORY CRUZ DEL CASTIL00000000350000000000000000000000000000000000000000000000002020013120200122227844651005055INSCRIPCION CAR       *
T081777997014  00304MATRICULA                     081777997014  000000000603000                                                                                                    *
T081777997014  00306MATRICULA SJL 2020            081777997014  000000000399000                                                                                                    *
T081777997014  00307DERECHO DE INGRESO SJL 2018   081777997014  000000000035000                                                                                                    *
T081777997014  00308MATRICULA 2020 CARABAYLLO     081777997014  000000000167000                                                                                                    *
T081777997014  00309DERECHO DE INGRESO 2020 CARABA081777997014  000000000035000                                                                                                    *
H081777997014  009000000700000000004200000000000000020200122                                                                                                                       *
D081777997014  00972756030       FF20/221       PAULETT QUISPE  ELIZ00000000060000000000000000000000000000000000000000000000002020013120200122120210500700024CERT ESTUDIOS CAR EN  *
D081777997014  00970736394       FF20/202       MALDONADO BACA  LEON00000000060000000000000000000000000000000000000000000000002020013120200122122470500700022CERT ESTUDIOS SJL EN  *
D081777997014  00976013581       FF20/252       RUIZ  HUAMAN  ANGIE 00000000060000000000000000000000000000000000000000000000002020013120200122122470500700093CERT ESTUDIOS SJL EN  *
D081777997014  00976324553       FF20/118       CARBAJAL SALCEDO  FI00000000060000000000000000000000000000000000000000000000002020013120200122122480500700009CERT ESTUDIO COL ENE  *
D081777997014  00973442668       FF20/241       PALOMINO DE LA CRUZ 00000000060000000000000000000000000000000000000000000000002020013120200122123690500700049CERT ESTUDIOS SJL EN  *
D081777997014  00973601298       FF20/230       GRANDEZ TORRES  EVEN00000000060000000000000000000000000000000000000000000000002020013120200122227844651008458CERT ESTUDIOS SJL EN  *
D081777997014  00973836300       FF20/245       SANCHEZ CHAVEZ  ERIC00000000060000000000000000000000000000000000000000000000002020013120200122227844651010542CERT ESTUDIO COL ENE  *
T081777997014  00929CERT ESTUDIO-COL              081777997014  000000000012000                                                                                                    *
T081777997014  00963CERT ESTUDIOS SJL             081777997014  000000000024000                                                                                                    *
T081777997014  00999CERT ESTUDIOS-CAR             081777997014  000000000006000                                                                                                    *
H081777997014  010000000100000000000300000000000000020200122                                                                                                                       *
D081777997014  01073836300       FF20/244       SANCHEZ CHAVEZ  ERIC00000000030000000000000000000000000000000000000000000000002020013120200122227844651010646CCIA NO ADEUDO COL E  *
T081777997014  01028CCIA NO ADEUDO COL            081777997014  000000000003000                                                                                                    *
H081777997014  012000000200000000000600000000000000020200122                                                                                                                       *
D081777997014  01261332377       FF20/248       HILARIO HUAMAN  SEBA00000000030000000000000000000000000000000000000000000000002020013120200122120400500700031PRA ACAD SJL ENE 202  *
D081777997014  01260788044       FF19/2416      ARIAS TRELLES  ADRIA00000000030000000000000000000000000000000000000000000000002019122120200122127420500700062PRA ACAD SJL DIC 201  *
T081777997014  01257PRA ACAD SJL                  081777997014  000000000003000                                                                                                    *
T081777997014  01266PRA ACAD SJL                  081777997014  000000000003000                                                                                                    *
