H081777997014  001000003800000000226144400000000000020200310                                                                                                                       *
D081777997014  00179259341       2017/78233412  TANTA MANNUCCI  ZOE 00000000560000000000000000000000000000000000000000000023862019053120200310120190500700187PENSION MAY 2019 COL  *
D081777997014  00179259341       2017/78235410  TANTA MANNUCCI  ZOE 00000000560000000000000000000000000000000000000000000021342019063020200310120190500700187PENSION JUN 2019 COL  *
D081777997014  00179259341       2017/78235732  TANTA MANNUCCI  ZOE 00000000560000000000000000000000000000000000000000000018732019073120200310120190500700187PENSION JUL 2019 COL  *
D081777997014  00179259341       2017/78237014  TANTA MANNUCCI  ZOE 00000000560000000000000000000000000000000000000000000016132019083120200310120190500700187PENSION AGO 2019 COL  *
D081777997014  00179259341       2017/78238220  TANTA MANNUCCI  ZOE 00000000560000000000000000000000000000000000000000000013612019093020200310120190500700187PENSION SEP 2019 COL  *
D081777997014  00179259341       2017/78240010  TANTA MANNUCCI  ZOE 00000000560000000000000000000000000000000000000000000011002019103120200310120190500700187PENSION OCT 2019 COL  *
D081777997014  00179259341       2017/78240584  TANTA MANNUCCI  ZOE 00000000560000000000000000000000000000000000000000000008482019113020200310120190500700187PENSION NOV 2019 COL  *
D081777997014  00179259341       2017/78241932  TANTA MANNUCCI  ZOE 00000000560000000000000000000000000000000000000000000006722019122120200310120190500700187PENSION DIC 2019 COL  *
D081777997014  00170956523       2017/162247    QUINTO REYES  ROBESP00000000570000000000000000000000000000000000000000000000002020033120200310120530500700001PENSION MAR 2020 SJL  *
D081777997014  00170956523       2017/162248    QUINTO REYES  ROBESP00000000570000000000000000000000000000000000000000000000002020043020200310120530500700001PENSION ABR 2020 SJL  *
D081777997014  00170956523       2017/162249    QUINTO REYES  ROBESP00000000570000000000000000000000000000000000000000000000002020053120200310120530500700001PENSION MAY 2020 SJL  *
D081777997014  00170956523       2017/162250    QUINTO REYES  ROBESP00000000570000000000000000000000000000000000000000000000002020063020200310120530500700001PENSION JUN 2020 SJL  *
D081777997014  00170956523       2017/162251    QUINTO REYES  ROBESP00000000570000000000000000000000000000000000000000000000002020073120200310120530500700001PENSION JUL 2020 SJL  *
D081777997014  00170956523       2017/162252    QUINTO REYES  ROBESP00000000570000000000000000000000000000000000000000000000002020083120200310120530500700001PENSION AGO 2020 SJL  *
D081777997014  00170956523       2017/162253    QUINTO REYES  ROBESP00000000570000000000000000000000000000000000000000000000002020093020200310120530500700001PENSION SEP 2020 SJL  *
D081777997014  00170956523       2017/162254    QUINTO REYES  ROBESP00000000570000000000000000000000000000000000000000000000002020103120200310120530500700001PENSION OCT 2020 SJL  *
D081777997014  00170956523       2017/162255    QUINTO REYES  ROBESP00000000570000000000000000000000000000000000000000000000002020113020200310120530500700001PENSION NOV 2020 SJL  *
D081777997014  00170956523       2017/162256    QUINTO REYES  ROBESP00000000285000000000000000000000000000000000000000000000002020121920200310120530500700001PENSION DIC 2020 SJL  *
D081777997014  00174517031       2017/78239514  ROJAS QUISPE  STEVE 00000000640000000000000000000000000000000000000000000012582019103120200310121770500700003PENSION OCT 2019 COL  *
D081777997014  00174517031       2017/78241299  ROJAS QUISPE  STEVE 00000000640000000000000000000000000000000000000000000009702019113020200310121770500700003PENSION NOV 2019 COL  *
D081777997014  00174517031       2017/78242514  ROJAS QUISPE  STEVE 00000000640000000000000000000000000000000000000000000007682019122120200310121770500700003PENSION DIC 2019 COL  *
D081777997014  00177872775       2017/78243027  VASQUEZ LLANQUE  VAL00000000560000000000000000000000000000000000000000000026462019043020200310125350500700092PENSION ABR 2019 COL  *
D081777997014  00177872775       2017/78243028  VASQUEZ LLANQUE  VAL00000000560000000000000000000000000000000000000000000023862019053120200310125350500700092PENSION MAY 2019 COL  *
D081777997014  00177872775       2017/78243029  VASQUEZ LLANQUE  VAL00000000560000000000000000000000000000000000000000000021342019063020200310125350500700092PENSION JUN 2019 COL  *
D081777997014  00177872775       2017/78243030  VASQUEZ LLANQUE  VAL00000000560000000000000000000000000000000000000000000018732019073120200310125350500700092PENSION JUL 2019 COL  *
D081777997014  00177872775       2017/78243031  VASQUEZ LLANQUE  VAL00000000560000000000000000000000000000000000000000000016132019083120200310125350500700092PENSION AGO 2019 COL  *
D081777997014  00177872775       2017/78243032  VASQUEZ LLANQUE  VAL00000000560000000000000000000000000000000000000000000013612019093020200310125350500700092PENSION SEP 2019 COL  *
D081777997014  00177872775       2017/78243033  VASQUEZ LLANQUE  VAL00000000560000000000000000000000000000000000000000000011002019103120200310125350500700092PENSION OCT 2019 COL  *
D081777997014  00177872775       2017/78243034  VASQUEZ LLANQUE  VAL00000000560000000000000000000000000000000000000000000008482019113020200310125350500700101PENSION NOV 2019 COL  *
D081777997014  00161471663       2017/78245209  GUTIERREZ COLACHAHUA00000000670000000000000000000000000000000000000000000000002020033120200310227844651011364PENSION MAR 2020 COL  *
D081777997014  00161471663       2017/78245210  GUTIERREZ COLACHAHUA00000000670000000000000000000000000000000000000000000000002020043020200310227844651011366PENSION ABR 2020 COL  *
D081777997014  00161471663       2017/78245211  GUTIERREZ COLACHAHUA00000000670000000000000000000000000000000000000000000000002020053120200310227844651011368PENSION MAY 2020 COL  *
D081777997014  00161471663       2017/78245212  GUTIERREZ COLACHAHUA00000000670000000000000000000000000000000000000000000000002020063020200310227844651011370PENSION JUN 2020 COL  *
D081777997014  00161471663       2017/78245213  GUTIERREZ COLACHAHUA00000000670000000000000000000000000000000000000000000000002020073120200310227844651011371PENSION JUL 2020 COL  *
D081777997014  00161471663       2017/78245214  GUTIERREZ COLACHAHUA00000000670000000000000000000000000000000000000000000000002020083120200310227844651011372PENSION AGO 2020 COL  *
D081777997014  00161471663       2017/78245215  GUTIERREZ COLACHAHUA00000000670000000000000000000000000000000000000000000000002020093020200310227844651011373PENSION SEP 2020 COL  *
D081777997014  00161471663       2017/78245216  GUTIERREZ COLACHAHUA00000000670000000000000000000000000000000000000000000000002020103120200310227844651011374PENSION OCT 2020 COL  *
D081777997014  00161471663       2017/78245217  GUTIERREZ COLACHAHUA00000000670000000000000000000000000000000000000000000000002020113020200310227844651011375PENSION NOV 2020 COL  *
T081777997014  00101PENSION                       081777997014  000000001719944                                                                                                    *
T081777997014  00102PENSION SAN JUAN              081777997014  000000000541500                                                                                                    *
H081777997014  003000000600000000035000000000000000020200310                                                                                                                       *
D081777997014  00376101060       2017/78245197  NINANYA CHAVEZ  KENA00000000670000000000000000000000000000000000000000000000002020033120200310121770500700026MATRICULA COL         *
D081777997014  00376101060       2017/78245198  NINANYA CHAVEZ  KENA00000000350000000000000000000000000000000000000000000000002020033120200310121770500700026INSCRIPCION COL       *
D081777997014  00376568335       2017/162304    QUILLAS LEON  LIZ AN00000000570000000000000000000000000000000000000000000000002020033120200310122470500700096MATRICULA SJL         *
D081777997014  00374517031       2017/78245220  ROJAS QUISPE  STEVE 00000000670000000000000000000000000000000000000000000000002020033120200310122540500700078MATRICULA COL         *
D081777997014  00372188041       2017/78245194  ROCHA PANDURO  JUAN 00000000670000000000000000000000000000000000000000000000002020033120200310126610500700009MATRICULA COL         *
D081777997014  00361844750       2017/162303    DULCE OSTOS  LUHANNA00000000570000000000000000000000000000000000000000000000002020033120200310127420500700037MATRICULA SJL         *
T081777997014  00304MATRICULA                     081777997014  000000000201000                                                                                                    *
T081777997014  00305DERECHO DE INGRESO COL        081777997014  000000000035000                                                                                                    *
T081777997014  00306MATRICULA SJL 2020            081777997014  000000000114000                                                                                                    *
H081777997014  009000000100000000000600000000000000020200310                                                                                                                       *
D081777997014  00970786642       FF20/743       PENALOZA  VELLANO  B00000000060000000000000000000000000000000000000000000000002020033120200310120950500700009CERT ESTUDIO COL MAR  *
T081777997014  00929CERT ESTUDIO-COL              081777997014  000000000006000                                                                                                    *
