H081777997014  001000001400000000078207700000000000020200113                                                                                                                       *
D081777997014  00172529036       2017/80014382  PURIZACA HUARACA  MI00000000540000000000000000000000000000000000000000000003562019113020200113120210500700112PENSION NOV 2019 CAR  *
D081777997014  00172330349       2017/159904    SANCHEZ SANTILLAN  L00000000495000000000000000000000000000000000000000000001712019122120200113121280500700005PENSION DIC 2019 SJL  *
D081777997014  00173926346       2017/78239179  PECEROS CASQUIN  ADR00000000640000000000000000000000000000000000000000000010082019093020200113121350500700058PENSION SEP 2019 COL  *
D081777997014  00174004425       2017/80015072  ZEVALLOS CAPCHA  CAM00000000550000000000000000000000000000000000000000000001902019122120200113121910500700005PENSION DIC 2019 CAR  *
D081777997014  00160771762       2017/160285    ESCOBEDO ECHEVERRIA 00000000486000000000000000000000000000000000000000000001682019122120200113221930500700033PENSION DIC 2019 SJL  *
D081777997014  00174263228       2017/159729    ESCOBEDO ECHEVERRIA 00000000550000000000000000000000000000000000000000000001902019122120200113121930500700038PENSION DIC 2019 SJL  *
D081777997014  00172184984       2017/158611    SAAVEDRA AYBAR  CAMI00000000540000000000000000000000000000000000000000000003562019113020200113122270500700045PENSION NOV 2019 SJL  *
D081777997014  00174664987       2017/159054    YARLEQUE LARA  MAGGI00000000550000000000000000000000000000000000000000000003632019113020200113122470500700117PENSION NOV 2019 SJL  *
D081777997014  00176199402       2017/78236171  RAMIREZ SILVA  ALEXA00000000640000000000000000000000000000000000000000000015942019073120200113122540500700102PENSION JUL 2019 COL  *
D081777997014  00174929728       2017/160343    OLIVITOS VILLANUEVA 00000000540000000000000000000000000000000000000000000001862019122120200113126910500700009PENSION DIC 2019 SJL  *
D081777997014  00174241721       2017/78232379  DAVALOS ARTEAGA  JAI00000000576000000000000000000000000000000000000000000022292019043020200113227844651004090PENSION ABR 2019 COL  *
D081777997014  00162579405       2017/160025    MOSCOSO REVILLA  SAC00000000550000000000000000000000000000000000000000000001902019122120200113227844651007774PENSION DIC 2019 SJL  *
D081777997014  00174676631       2017/80015162  CASTANEDA BARZOLA  A00000000550000000000000000000000000000000000000000000001902019122120200113227844651009588PENSION DIC 2019 CAR  *
D081777997014  00175170376       2017/160407    JAICO ARIAS  GRISELL00000000540000000000000000000000000000000000000000000001862019122120200113129320500700001PENSION DIC 2019 SJL  *
T081777997014  00101PENSION                       081777997014  000000000190431                                                                                                    *
T081777997014  00102PENSION SAN JUAN              081777997014  000000000426910                                                                                                    *
T081777997014  00103PENSION                       081777997014  000000000164736                                                                                                    *
H081777997014  003000001500000000080630000000000000020200113                                                                                                                       *
D081777997014  00371471855       2017/161629    VILCA SANCHEZ  FABRI00000000513000000000000000000000000000000000000000000000002020013120200113121040500700051INSCRIPCION SJL       *
D081777997014  00374906394       2017/161672    DA SILVA YAYA  JHAIR00000000570000000000000000000000000000000000000000000000002020013120200113121350500700068MATRICULA SJL         *
D081777997014  00374906394       2017/161673    DA SILVA YAYA  JHAIR00000000350000000000000000000000000000000000000000000000002020013120200113121350500700068INSCRIPCION SJL       *
D081777997014  00379233850       2017/78244350  OBESO MENDIZABAL  JA00000000570000000000000000000000000000000000000000000000002020013120200113122160500700164MATRICULA COL         *
D081777997014  00376496843       2017/161701    NAVARRO ORTIZ  MATTE00000000570000000000000000000000000000000000000000000000002020013120200113122470500700070INSCRIPCION SJL       *
D081777997014  00378955246       2017/161700    NAVARRO ORTIZ  EMILI00000000570000000000000000000000000000000000000000000000002020013120200113122470500700071INSCRIPCION SJL       *
D081777997014  00376491388       2017/78244333  ROJAS MILLAN  PABLO 00000000670000000000000000000000000000000000000000000000002020013120200113122540500700018MATRICULA COL         *
D081777997014  00378452893       2017/78244342  ORTEGA QUISPE  HARRY00000000580000000000000000000000000000000000000000000000002020013120200113122540500700042MATRICULA COL         *
D081777997014  00378045287       2017/78244341  FLORES DE LA CRUZ  A00000000580000000000000000000000000000000000000000000000002020013120200113122540500700052MATRICULA COL         *
D081777997014  00377631820       2017/78244347  REYNA MAUTINO  MATIA00000000580000000000000000000000000000000000000000000000002020013120200113122540500700083MATRICULA COL         *
D081777997014  00377631820       2017/78244348  REYNA MAUTINO  MATIA00000000350000000000000000000000000000000000000000000000002020013120200113122540500700083INSCRIPCION COL       *
D081777997014  00361010126       2017/78244337  FLORES MEDINA  BRISA00000000670000000000000000000000000000000000000000000000002020013120200113122540500700088MATRICULA COL         *
D081777997014  00379735113       2017/78244158  DE LA CRUZ VEINZAGA 00000000570000000000000000000000000000000000000000000000002020013120200113126610500700137MATRICULA COL         *
D081777997014  00379735113       2017/78244159  DE LA CRUZ VEINZAGA 00000000350000000000000000000000000000000000000000000000002020013120200113126610500700139INSCRIPCION COL       *
D081777997014  00373565975       2017/161652    RIVERA SOTO  XIOMARA00000000570000000000000000000000000000000000000000000000002020013120200113126910500700054INSCRIPCION SJL       *
T081777997014  00304MATRICULA                     081777997014  000000000422000                                                                                                    *
T081777997014  00305DERECHO DE INGRESO LIM 2018   081777997014  000000000070000                                                                                                    *
T081777997014  00306MATRICULA SJL - PREMATRICULA  081777997014  000000000279300                                                                                                    *
T081777997014  00307DERECHO DE INGRESO SJL 2019   081777997014  000000000035000                                                                                                    *
H081777997014  009000001000000000006600000000000000020200113                                                                                                                       *
D081777997014  00971165871       FF20/107       SEMORILE JORAHUA  LU00000000060000000000000000000000000000000000000000000000002020013120200113120340500700060CERT ESTUDIO COL ENE  *
D081777997014  00975862652       FF20/60        MARTINEZ RIOS  SLENK00000000060000000000000000000000000000000000000000000000002020013120200113121350500700010CERT ESTUDIOS SJL EN  *
D081777997014  00972107528       FF20/122       LOPEZ GUTIERREZ  NAT00000000060000000000000000000000000000000000000000000000002020013120200113221350500700041CERT ESTUDIOS SJL EN  *
D081777997014  00972107530       FF20/123       LOPEZ GUTIERREZ  PAO00000000060000000000000000000000000000000000000000000000002020013120200113221350500700042CERT ESTUDIOS SJL EN  *
D081777997014  00973291380       FF20/130       LOPEZ MERINO  BRENDA00000000060000000000000000000000000000000000000000000000002020013120200113122240500700078CERT ESTUDIO COL ENE  *
D081777997014  00976924402       FF20/117       BAMBAREN MANRIQUE  J00000000120000000000000000000000000000000000000000000000002020013120200113122540500700058CERT ESTUDIO COL ENE  *
D081777997014  00972190946       FF20/119       MEZA CHAHUA  JESUS L00000000060000000000000000000000000000000000000000000000002020013120200113126910500700031CERT ESTUDIOS SJL EN  *
D081777997014  00972744695       FF20/97        YUPANQUI JARAMILLO  00000000060000000000000000000000000000000000000000000000002020013120200113227844651002071CERT ESTUDIO COL ENE  *
D081777997014  00972785901       FF20/28        VILLAR MACIZO  FLAVI00000000060000000000000000000000000000000000000000000000002020013120200113227844651004757CERT ESTUDIOS SJL EN  *
D081777997014  00972785901       FF20/50        VILLAR MACIZO  FLAVI00000000060000000000000000000000000000000000000000000000002020013120200113227844651004758CERT ESTUDIOS SJL EN  *
T081777997014  00929CERT ESTUDIO-COL              081777997014  000000000030000                                                                                                    *
T081777997014  00963CERT ESTUDIOS SJL             081777997014  000000000036000                                                                                                    *
H081777997014  010000000100000000000300000000000000020200113                                                                                                                       *
D081777997014  01072744695       FF20/96        YUPANQUI JARAMILLO  00000000030000000000000000000000000000000000000000000000002020013120200113227844651002080CCIA NO ADEUDO COL E  *
T081777997014  01028CCIA NO ADEUDO COL            081777997014  000000000003000                                                                                                    *
