H081777997014  001000001000000000055931000000000000020200307                                                                                                                       *
D081777997014  00160482843       2017/80015631  VASQUEZ PINO  ALEXAN00000000540000000000000000000000000000000000000000000025272019043020200307223980500700001PENSION ABR 2019 CAR  *
D081777997014  00160482843       2017/80015632  VASQUEZ PINO  ALEXAN00000000540000000000000000000000000000000000000000000022762019053120200307223980500700001PENSION MAY 2019 CAR  *
D081777997014  00160482843       2017/80015633  VASQUEZ PINO  ALEXAN00000000540000000000000000000000000000000000000000000020332019063020200307223980500700001PENSION JUN 2019 CAR  *
D081777997014  00160482843       2017/80015634  VASQUEZ PINO  ALEXAN00000000540000000000000000000000000000000000000000000017822019073120200307223980500700001PENSION JUL 2019 CAR  *
D081777997014  00160482843       2017/80015635  VASQUEZ PINO  ALEXAN00000000540000000000000000000000000000000000000000000015312019083120200307223980500700001PENSION AGO 2019 CAR  *
D081777997014  00160482843       2017/80015636  VASQUEZ PINO  ALEXAN00000000540000000000000000000000000000000000000000000012882019093020200307223980500700001PENSION SEP 2019 CAR  *
D081777997014  00160482843       2017/80015637  VASQUEZ PINO  ALEXAN00000000540000000000000000000000000000000000000000000010372019103120200307223980500700001PENSION OCT 2019 CAR  *
D081777997014  00176729364       2017/80015660  MIRANDA MARIN  ANDRE00000000540000000000000000000000000000000000000000000025272019043020200307127020500700004PENSION ABR 2019 CAR  *
D081777997014  00176729364       2017/80015661  MIRANDA MARIN  ANDRE00000000540000000000000000000000000000000000000000000022762019053120200307127020500700004PENSION MAY 2019 CAR  *
D081777997014  00176729364       2017/80015662  MIRANDA MARIN  ANDRE00000000540000000000000000000000000000000000000000000020332019063020200307127020500700004PENSION JUN 2019 CAR  *
T081777997014  00103PENSION                       081777997014  000000000559310                                                                                                    *
