H081777997014  001000008400000000473881200000000000020190820                                                                                                                       *
D081777997014  00173214672       2017/78236075  VILLAVICENCIO GUILLE00000000576000000000000000000000000000000000000000000001732019073120190820120600500700028PENSION JUL 2019 COL  *
D081777997014  00174712523       2017/150946    SOLORZANO CHIONG  NA00000000540000000000000000000000000000000000000000000011502019033120190820120110500700052PENSION MAR 2019 SJL  *
D081777997014  00173044657       2017/78235961  LANDA ARENAS  CHRIST00000000640000000000000000000000000000000000000000000001922019073120190820220130500700006PENSION JUL 2019 COL  *
D081777997014  00174119903       2017/78233638  CHAVEZ AREVALO  NICO00000000640000000000000000000000000000000000000000000007782019053120190820120190500700068PENSION MAY 2019 COL  *
D081777997014  00174119903       2017/78235638  CHAVEZ AREVALO  NICO00000000640000000000000000000000000000000000000000000004902019063020190820120190500700068PENSION JUN 2019 COL  *
D081777997014  00174119903       2017/78235963  CHAVEZ AREVALO  NICO00000000640000000000000000000000000000000000000000000001922019073120190820120190500700068PENSION JUL 2019 COL  *
D081777997014  00170598602       2017/78235528  SANDMANN CASTILLO  C00000000640000000000000000000000000000000000000000000004902019063020190820120340500700052PENSION JUN 2019 COL  *
D081777997014  00179088636       2017/155059    OSORIO OSORIO  VICTO00000000560000000000000000000000000000000000000000000001682019073120190820120360500700050PENSION JUL 2019 SJL  *
D081777997014  00175204051       2017/78237498  CORDOVA RUBIANES  LO00000000480000000000000000000000000000000000000000000000002019083120190820220600500700005PENSION AGO 2019 COL  *
D081777997014  00174609610       2017/78238433  MAURTUA ZAVALA  ATEN00000000640000000000000000000000000000000000000000000000002019093020190820120600500700006PENSION SEP 2019 COL  *
D081777997014  00177751828       2017/78236806  VILLAVICENCIO GUILLE00000000560000000000000000000000000000000000000000000001682019073120190820120600500700029PENSION JUL 2019 COL  *
D081777997014  00173158086       2017/78236506  TRUJILLO CLAVIJO  AL00000000576000000000000000000000000000000000000000000001732019073120190820120900500700053PENSION JUL 2019 COL  *
D081777997014  00179578363       2017/78235349  TRUJILLO CLAVIJO  AN00000000504000000000000000000000000000000000000000000003862019063020190820120900500700054PENSION JUN 2019 COL  *
D081777997014  00179578363       2017/78235671  TRUJILLO CLAVIJO  AN00000000504000000000000000000000000000000000000000000001512019073120190820120900500700054PENSION JUL 2019 COL  *
D081777997014  00174678711       2017/78234901  TRUJILLO CLAVIJO  AV00000000576000000000000000000000000000000000000000000004412019063020190820120900500700056PENSION JUN 2019 COL  *
D081777997014  00174678711       2017/78236438  TRUJILLO CLAVIJO  AV00000000576000000000000000000000000000000000000000000001732019073120190820120900500700057PENSION JUL 2019 COL  *
D081777997014  00171471855       2017/160590    VILCA SANCHEZ  FABRI00000000486000000000000000000000000000000000000000000001462019073120190820121420500700001PENSION JUL 2019 SJL  *
D081777997014  00177731354       2017/78236777  FLORES VELASQUEZ  KA00000000560000000000000000000000000000000000000000000001682019073120190820121770500700024PENSION JUL 2019 COL  *
D081777997014  00177731354       2017/78238065  FLORES VELASQUEZ  KA00000000560000000000000000000000000000000000000000000000002019083120190820121770500700025PENSION AGO 2019 COL  *
D081777997014  00161136713       2017/153694    INGA TELLO  DIANA  I00000000550000000000000000000000000000000000000000000004212019063020190820121830500700029PENSION JUN 2019 SJL  *
D081777997014  00161136713       2017/155363    INGA TELLO  DIANA  I00000000550000000000000000000000000000000000000000000001652019073120190820121830500700029PENSION JUL 2019 SJL  *
D081777997014  00175540746       2017/156057    CANTORAL PAREDES  DI00000000540000000000000000000000000000000000000000000000002019083120190820122030500700019PENSION AGO 2019 SJL  *
D081777997014  00178666089       2017/78235667  NOVOA JIMENEZ  GEORG00000000560000000000000000000000000000000000000000000001682019073120190820122160500700134PENSION JUL 2019 COL  *
D081777997014  00170531028       2017/80012872  CALDERON CASTRO  FIO00000000540000000000000000000000000000000000000000000000002019083120190820222200500700060PENSION AGO 2019 CAR  *
D081777997014  00173146820       2017/78234469  CUTISACA SALDARRIAGA00000000576000000000000000000000000000000000000000000004412019063020190820122240500700057PENSION JUN 2019 COL  *
D081777997014  00173845051       2017/78235197  CUTISACA SALDARRIAGA00000000576000000000000000000000000000000000000000000004412019063020190820122240500700058PENSION JUN 2019 COL  *
D081777997014  00180998867       2017/152968    GARCIA SANCHEZ  KEYL00000000550000000000000000000000000000000000000000000006682019053120190820122410500700002PENSION MAY 2019 SJL  *
D081777997014  00180998867       2017/153990    GARCIA SANCHEZ  KEYL00000000550000000000000000000000000000000000000000000004212019063020190820122410500700002PENSION JUN 2019 SJL  *
D081777997014  00180998867       2017/154655    GARCIA SANCHEZ  KEYL00000000550000000000000000000000000000000000000000000001652019073120190820122410500700002PENSION JUL 2019 SJL  *
D081777997014  00173701761       2017/156214    CANDELA MACA  KEVIN 00000000486000000000000000000000000000000000000000000000002019083120190820122500500700024PENSION AGO 2019 SJL  *
D081777997014  00178236328       2017/78233383  PANTOJA FERNANDEZ  D00000000560000000000000000000000000000000000000000000006802019053120190820122540500700035PENSION MAY 2019 COL  *
D081777997014  00178236328       2017/78235381  PANTOJA FERNANDEZ  D00000000560000000000000000000000000000000000000000000004282019063020190820122540500700035PENSION JUN 2019 COL  *
D081777997014  00161424680       2017/78234262  PICHI ROJAS  NICOLAS00000000640000000000000000000000000000000000000000000007782019053120190820122540500700038PENSION MAY 2019 COL  *
D081777997014  00161424680       2017/78235035  PICHI ROJAS  NICOLAS00000000640000000000000000000000000000000000000000000004902019063020190820122540500700038PENSION JUN 2019 COL  *
D081777997014  00161184469       2017/78234038  HERNANDEZ MEZA  CHRI00000000640000000000000000000000000000000000000000000007782019053120190820122540500700040PENSION MAY 2019 COL  *
D081777997014  00161184469       2017/78234811  HERNANDEZ MEZA  CHRI00000000640000000000000000000000000000000000000000000004902019063020190820122540500700040PENSION JUN 2019 COL  *
D081777997014  00161184469       2017/78236348  HERNANDEZ MEZA  CHRI00000000640000000000000000000000000000000000000000000001922019073120190820122540500700040PENSION JUL 2019 COL  *
D081777997014  00173570315       2017/78233504  PADILLA ZEGARRA  ANG00000000576000000000000000000000000000000000000000000007002019053120190820122540500700055PENSION MAY 2019 COL  *
D081777997014  00173570315       2017/78235499  PADILLA ZEGARRA  ANG00000000576000000000000000000000000000000000000000000004412019063020190820122540500700055PENSION JUN 2019 COL  *
D081777997014  00173570315       2017/78235824  PADILLA ZEGARRA  ANG00000000576000000000000000000000000000000000000000000001732019073120190820122540500700055PENSION JUL 2019 COL  *
D081777997014  00161795069       2017/78234425  PADILLA ZEGARRA  DAY00000000640000000000000000000000000000000000000000000007782019053120190820122540500700056PENSION MAY 2019 COL  *
D081777997014  00161795069       2017/78235198  PADILLA ZEGARRA  DAY00000000640000000000000000000000000000000000000000000004902019063020190820122540500700056PENSION JUN 2019 COL  *
D081777997014  00161795069       2017/78236735  PADILLA ZEGARRA  DAY00000000640000000000000000000000000000000000000000000001922019073120190820122540500700056PENSION JUL 2019 COL  *
D081777997014  00171169649       2016/72826     GUZMAN ZAMORA  PIERO00000000420000000000000000000000000000000000000000000077932016033120190820122640500700132PENSION MAR 2016 SJL  *
D081777997014  00171169649       2016/19860     GUZMAN ZAMORA  PIERO00000000420000000000000000000000000000000000000000000076042016043020190820122640500700132PENSION ABR 2016 SJL  *
D081777997014  00171169649       2016/82984     GUZMAN ZAMORA  PIERO00000000420000000000000000000000000000000000000000000074092016053120190820122640500700132PENSION MAY 2016 SJL  *
D081777997014  00171169649       2016/86738     GUZMAN ZAMORA  PIERO00000000420000000000000000000000000000000000000000000072202016063020190820122640500700132PENSION JUN 2016 SJL  *
D081777997014  00171169649       2016/11110     GUZMAN ZAMORA  PIERO00000000420000000000000000000000000000000000000000000070252016073120190820122640500700132PENSION JUL 2016 SJL  *
D081777997014  00171169649       2016/48571     GUZMAN ZAMORA  PIERO00000000420000000000000000000000000000000000000000000068292016083120190820122640500700132PENSION AGO 2016 SJL  *
D081777997014  00171169649       2016/70907     GUZMAN ZAMORA  PIERO00000000420000000000000000000000000000000000000000000066402016093020190820122640500700132PENSION SEP 2016 SJL  *
D081777997014  00171169649       2016/98236     GUZMAN ZAMORA  PIERO00000000420000000000000000000000000000000000000000000064452016103120190820122640500700132PENSION OCT 2016 SJL  *
D081777997014  00171169649       2016/32656     GUZMAN ZAMORA  PIERO00000000420000000000000000000000000000000000000000000062562016113020190820122640500700132PENSION NOV 2016 SJL  *
D081777997014  00171169649       2016/97094     GUZMAN ZAMORA  PIERO00000000420000000000000000000000000000000000000000000061552016121620190820122640500700132PENSION DIC 2016 SJL  *
D081777997014  00177824035       2017/155708    GARCIA MORA  CAMILA 00000000550000000000000000000000000000000000000000000000002019083120190820226610500700091PENSION AGO 2019 SJL  *
D081777997014  00170628554       2017/156379    GARCIA MORA  MARIANO00000000486000000000000000000000000000000000000000000000002019083120190820226610500700093PENSION AGO 2019 SJL  *
D081777997014  00170951580       2017/154485    SUAREZ AGUIRRE  ROLA00000000495000000000000000000000000000000000000000000001492019073120190820126860500700016PENSION JUL 2019 SJL  *
D081777997014  00178868121       2017/153375    SUAREZ AGUIRRE  OSWA00000000560000000000000000000000000000000000000000000004282019063020190820126860500700017PENSION JUN 2019 SJL  *
D081777997014  00160851565       2017/156162    ARRIAGA PEREZ  RICAR00000000540000000000000000000000000000000000000000000000002019083120190820126910500700004PENSION AGO 2019 SJL  *
D081777997014  00170947156       2017/154920    CHAMORRO YAURICASA  00000000540000000000000000000000000000000000000000000001622019073120190820126910500700065PENSION JUL 2019 SJL  *
D081777997014  00162644469       2017/151494    RODRIGUEZ SANCHEZ  R00000000550000000000000000000000000000000000000000000009242019043020190820126910500700115PENSION ABR 2019 SJL  *
D081777997014  00162644469       2017/152355    RODRIGUEZ SANCHEZ  R00000000550000000000000000000000000000000000000000000006682019053120190820126910500700116PENSION MAY 2019 SJL  *
D081777997014  00162644469       2017/153385    RODRIGUEZ SANCHEZ  R00000000550000000000000000000000000000000000000000000004212019063020190820126910500700117PENSION JUN 2019 SJL  *
D081777997014  00160780878       2017/151173    BRAVO DAVILA  MILAGR00000000540000000000000000000000000000000000000000000011502019033120190820127420500700012PENSION MAR 2019 SJL  *
D081777997014  00160780878       2017/152195    BRAVO DAVILA  MILAGR00000000540000000000000000000000000000000000000000000009072019043020190820127420500700013PENSION ABR 2019 SJL  *
D081777997014  00160780878       2017/153217    BRAVO DAVILA  MILAGR00000000540000000000000000000000000000000000000000000006562019053120190820127420500700015PENSION MAY 2019 SJL  *
D081777997014  00160780878       2017/154239    BRAVO DAVILA  MILAGR00000000540000000000000000000000000000000000000000000004132019063020190820127420500700016PENSION JUN 2019 SJL  *
D081777997014  00160780878       2017/154904    BRAVO DAVILA  MILAGR00000000540000000000000000000000000000000000000000000001622019073120190820127420500700017PENSION JUL 2019 SJL  *
D081777997014  00160780878       2017/156296    BRAVO DAVILA  MILAGR00000000540000000000000000000000000000000000000000000000002019083120190820127420500700018PENSION AGO 2019 SJL  *
D081777997014  00177743992       2017/155767    ANDRADE AREVALO  XIM00000000550000000000000000000000000000000000000000000000002019083120190820127420500700060PENSION AGO 2019 SJL  *
D081777997014  00177545912       2017/150340    YALLE MORENO  NAOMI 00000000495000000000000000000000000000000000000000000010542019033120190820127420500700063PENSION MAR 2019 SJL  *
D081777997014  00177545912       2017/151528    YALLE MORENO  NAOMI 00000000495000000000000000000000000000000000000000000008322019043020190820127420500700063PENSION ABR 2019 SJL  *
D081777997014  00174815258       2017/80012982  LEY CALDERON  FABIO 00000000540000000000000000000000000000000000000000000000002019083120190820227844651000667PENSION AGO 2019 CAR  *
D081777997014  00179533450       2017/152429    VILLAFANI NEYRA  STE00000000560000000000000000000000000000000000000000000006802019053120190820227844651006462PENSION MAY 2019 SJL  *
D081777997014  00173217741       2017/78237369  LOPEZ GONZALES  KELL00000000640000000000000000000000000000000000000000000000002019083120190820227844651006637PENSION AGO 2019 COL  *
D081777997014  00178452893       2017/78233443  ORTEGA QUISPE  HARRY00000000560000000000000000000000000000000000000000000006802019053120190820227844651007259PENSION MAY 2019 COL  *
D081777997014  00178452893       2017/78235441  ORTEGA QUISPE  HARRY00000000560000000000000000000000000000000000000000000004282019063020190820227844651007260PENSION JUN 2019 COL  *
D081777997014  00178452893       2017/78235763  ORTEGA QUISPE  HARRY00000000560000000000000000000000000000000000000000000001682019073120190820227844651007261PENSION JUL 2019 COL  *
D081777997014  00171179784       2017/78234878  PERALTA ROJAS  ARIAN00000000640000000000000000000000000000000000000000000004902019063020190820227844651008774PENSION JUN 2019 COL  *
D081777997014  00172053088       2017/78234207  LARA MARROQUIN  SEBA00000000640000000000000000000000000000000000000000000007782019053120190820227844671000791PENSION MAY 2019 COL  *
D081777997014  00172053088       2017/78234980  LARA MARROQUIN  SEBA00000000640000000000000000000000000000000000000000000004902019063020190820227844671000792PENSION JUN 2019 COL  *
D081777997014  00172053088       2017/78236517  LARA MARROQUIN  SEBA00000000640000000000000000000000000000000000000000000001922019073120190820227844671000793PENSION JUL 2019 COL  *
D081777997014  00172053088       2017/78237805  LARA MARROQUIN  SEBA00000000640000000000000000000000000000000000000000000000002019083120190820227844671000794PENSION AGO 2019 COL  *
D081777997014  00177521123       2017/78237953  AVILA ALVAREZ  LUANA00000000560000000000000000000000000000000000000000000000002019083120190820128600500700024PENSION AGO 2019 COL  *
D081777997014  00160309379       2017/154565    SANCHEZ MONDRAGON  V00000000550000000000000000000000000000000000000000000001652019073120190820129470500700079PENSION JUL 2019 SJL  *
T081777997014  00101PENSION                       081777997014  000000002522061                                                                                                    *
T081777997014  00102PENSION SAN JUAN              081777997014  000000002108751                                                                                                    *
T081777997014  00103PENSION CARABAYLLO            081777997014  000000000108000                                                                                                    *
H081777997014  003000000200000000009100000000000000020190820                                                                                                                       *
D081777997014  00378504625       2017/80015828  BUSTINZA ALARCON  LU00000000560000000000000000000000000000000000000000000000002019083120190820122490500700040MATRICULA CAR         *
D081777997014  00378504625       2017/80015829  BUSTINZA ALARCON  LU00000000350000000000000000000000000000000000000000000000002019083120190820122490500700040INSCRIPCION CAR       *
T081777997014  00308MATRICULA CAR 2018            081777997014  000000000056000                                                                                                    *
T081777997014  00309DERECHO DE INGRESO 2020 CARABA081777997014  000000000035000                                                                                                    *
H081777997014  005000000100000000001400000000000000020190820                                                                                                                       *
D081777997014  00577545912       FF19/1928      YALLE MORENO  NAOMI 00000000140000000000000000000000000000000000000000000000002019083120190820127420500700064TALLERES AGO 2019 SJ  *
T081777997014  00510TALLERES                      081777997014  000000000014000                                                                                                    *
H081777997014  009000000100000000000600000000000000020190820                                                                                                                       *
D081777997014  00973061849       FF19/1980      FLORES JAIMES  SUMYK00000000060000000000000000000000000000000000000000000000002019083120190820126790500700060CERT ESTUDIOS SJL AG  *
T081777997014  00954CERT ESTUDIOS SJL             081777997014  000000000006000                                                                                                    *
