H081777997014  001000004400000000258937200000000000020200127                                                                                                                       *
D081777997014  00173926346       2017/78242824  PECEROS CASQUIN  ADR00000000640000000000000000000000000000000000000000000003552019122120200127120130500700028PENSION DIC 2019 COL  *
D081777997014  00174524503       2017/80012754  NIVIN BADA  SANTIAGO00000000550000000000000000000000000000000000000000000014852019073120200127120200500700022PENSION JUL 2019 CAR  *
D081777997014  00178033018       2017/78233143  CARDENAS TAFUR  CARL00000000560000000000000000000000000000000000000000000022852019043020200127120600500700086PENSION ABR 2019 COL  *
D081777997014  00178033018       2017/78233263  CARDENAS TAFUR  CARL00000000560000000000000000000000000000000000000000000020242019053120200127120600500700086PENSION MAY 2019 COL  *
D081777997014  00178033018       2017/78235251  CARDENAS TAFUR  CARL00000000560000000000000000000000000000000000000000000017722019063020200127120600500700086PENSION JUN 2019 COL  *
D081777997014  00178033018       2017/78236788  CARDENAS TAFUR  CARL00000000560000000000000000000000000000000000000000000015122019073120200127120600500700086PENSION JUL 2019 COL  *
D081777997014  00178033018       2017/78238076  CARDENAS TAFUR  CARL00000000560000000000000000000000000000000000000000000012522019083120200127120600500700086PENSION AGO 2019 COL  *
D081777997014  00178033018       2017/78239203  CARDENAS TAFUR  CARL00000000560000000000000000000000000000000000000000000010002019093020200127120600500700086PENSION SEP 2019 COL  *
D081777997014  00178033018       2017/78239863  CARDENAS TAFUR  CARL00000000560000000000000000000000000000000000000000000007392019103120200127120600500700086PENSION OCT 2019 COL  *
D081777997014  00178033018       2017/78241648  CARDENAS TAFUR  CARL00000000560000000000000000000000000000000000000000000004872019113020200127120600500700086PENSION NOV 2019 COL  *
D081777997014  00178033018       2017/78242868  CARDENAS TAFUR  CARL00000000560000000000000000000000000000000000000000000003112019122120200127120600500700086PENSION DIC 2019 COL  *
D081777997014  00175534417       2017/78235990  OLIVARES VELASQUEZ  00000000640000000000000000000000000000000000000000000017282019073120200127120630500700046PENSION JUL 2019 COL  *
D081777997014  00175534417       2017/78237278  OLIVARES VELASQUEZ  00000000640000000000000000000000000000000000000000000014302019083120200127120630500700046PENSION AGO 2019 COL  *
D081777997014  00175534417       2017/78238363  OLIVARES VELASQUEZ  00000000640000000000000000000000000000000000000000000011422019093020200127120630500700046PENSION SEP 2019 COL  *
D081777997014  00175534417       2017/78240280  OLIVARES VELASQUEZ  00000000640000000000000000000000000000000000000000000008452019103120200127120630500700046PENSION OCT 2019 COL  *
D081777997014  00175534417       2017/78240822  OLIVARES VELASQUEZ  00000000640000000000000000000000000000000000000000000005572019113020200127120630500700046PENSION NOV 2019 COL  *
D081777997014  00175534417       2017/78241992  OLIVARES VELASQUEZ  00000000640000000000000000000000000000000000000000000003552019122120200127120630500700046PENSION DIC 2019 COL  *
D081777997014  00170850140       2017/78242006  PUCHO ZAVALETA  GAVI00000000640000000000000000000000000000000000000000000003552019122120200127120700500700092PENSION DIC 2019 COL  *
D081777997014  00161421458       2017/155903    PARRA ALVIS  SEBASTI00000000550000000000000000000000000000000000000000000012292019083120200127122390500700062PENSION AGO 2019 SJL  *
D081777997014  00161421458       2017/156843    PARRA ALVIS  SEBASTI00000000550000000000000000000000000000000000000000000009822019093020200127122390500700062PENSION SEP 2019 SJL  *
D081777997014  00161421458       2017/157936    PARRA ALVIS  SEBASTI00000000550000000000000000000000000000000000000000000007262019103120200127122390500700062PENSION OCT 2019 SJL  *
D081777997014  00161421458       2017/159118    PARRA ALVIS  SEBASTI00000000550000000000000000000000000000000000000000000004792019113020200127122390500700062PENSION NOV 2019 SJL  *
D081777997014  00161421458       2017/159980    PARRA ALVIS  SEBASTI00000000550000000000000000000000000000000000000000000003052019122120200127122390500700062PENSION DIC 2019 SJL  *
D081777997014  00161292327       2017/156530    ROSADO VILCHEZ  VALE00000000550000000000000000000000000000000000000000000009822019093020200127122470500700053PENSION SEP 2019 SJL  *
D081777997014  00161292327       2017/157684    ROSADO VILCHEZ  VALE00000000550000000000000000000000000000000000000000000007262019103120200127122470500700055PENSION OCT 2019 SJL  *
D081777997014  00160890657       2017/78242038  CAMPOS TOVAR  ARIANA00000000576000000000000000000000000000000000000000000003202019122120200127122540500700016PENSION DIC 2019 COL  *
D081777997014  00173558056       2017/78242756  CAMPOS TOVAR  BIANCA00000000640000000000000000000000000000000000000000000003552019122120200127122540500700017PENSION DIC 2019 COL  *
D081777997014  00177550854       2017/78242750  COLAN LEONARDO  ALLI00000000640000000000000000000000000000000000000000000003552019122120200127124800500700003PENSION DIC 2019 COL  *
D081777997014  00176987677       2017/159408    CHAVEZ VILLAVICENCIO00000000540000000000000000000000000000000000000000000004702019113020200127126860500700005PENSION NOV 2019 SJL  *
D081777997014  00176987677       2017/160270    CHAVEZ VILLAVICENCIO00000000540000000000000000000000000000000000000000000003002019122120200127126860500700005PENSION DIC 2019 SJL  *
D081777997014  00175647080       2017/150908    ARIAS MELENDEZ  IVAN00000000550000000000000000000000000000000000000000000024922019033120200127126910500700030PENSION MAR 2019 SJL  *
D081777997014  00175647080       2017/151930    ARIAS MELENDEZ  IVAN00000000550000000000000000000000000000000000000000000022442019043020200127126910500700030PENSION ABR 2019 SJL  *
D081777997014  00175647080       2017/152952    ARIAS MELENDEZ  IVAN00000000550000000000000000000000000000000000000000000019882019053120200127126910500700030PENSION MAY 2019 SJL  *
D081777997014  00175647080       2017/153974    ARIAS MELENDEZ  IVAN00000000550000000000000000000000000000000000000000000017412019063020200127126910500700030PENSION JUN 2019 SJL  *
D081777997014  00175647080       2017/154639    ARIAS MELENDEZ  IVAN00000000550000000000000000000000000000000000000000000014852019073120200127126910500700030PENSION JUL 2019 SJL  *
D081777997014  00175647080       2017/156018    ARIAS MELENDEZ  IVAN00000000550000000000000000000000000000000000000000000012292019083120200127126910500700030PENSION AGO 2019 SJL  *
D081777997014  00175647080       2017/157040    ARIAS MELENDEZ  IVAN00000000550000000000000000000000000000000000000000000009822019093020200127126910500700030PENSION SEP 2019 SJL  *
D081777997014  00175647080       2017/158027    ARIAS MELENDEZ  IVAN00000000550000000000000000000000000000000000000000000007262019103120200127126910500700030PENSION OCT 2019 SJL  *
D081777997014  00175647080       2017/159244    ARIAS MELENDEZ  IVAN00000000550000000000000000000000000000000000000000000004792019113020200127126910500700030PENSION NOV 2019 SJL  *
D081777997014  00175647080       2017/160106    ARIAS MELENDEZ  IVAN00000000550000000000000000000000000000000000000000000003052019122120200127126910500700030PENSION DIC 2019 SJL  *
D081777997014  00174241721       FF19/1540      DAVALOS ARTEAGA  JAI00000000640000000000000000000000000000000000000000000020262019063020200127227844651001948PENSION JUN 2019 COL  *
D081777997014  00172094301       2017/78240987  GAMARRA MEDINA  PAOL00000000640000000000000000000000000000000000000000000005572019113020200127227844651015840PENSION NOV 2019 COL  *
D081777997014  00172094301       2017/78242202  GAMARRA MEDINA  PAOL00000000640000000000000000000000000000000000000000000003552019122120200127227844651015841PENSION DIC 2019 COL  *
D081777997014  00172529036       2017/80014777  PURIZACA HUARACA  MI00000000540000000000000000000000000000000000000000000003002019122120200127227844651017342PENSION DIC 2019 CAR  *
T081777997014  00101PENSION                       081777997014  000000001415717                                                                                                    *
T081777997014  00102PENSION SAN JUAN              081777997014  000000001062870                                                                                                    *
T081777997014  00103PENSION                       081777997014  000000000110785                                                                                                    *
H081777997014  003000001800000000095700000000000000020200127                                                                                                                       *
D081777997014  00374610127       2017/161868    GUADALUPE PEREZ  MIR00000000570000000000000000000000000000000000000000000000002020013120200127120110500700025MATRICULA SJL         *
D081777997014  00379160261       2017/80016238  VENTURA GOMEZ  MILEN00000000350000000000000000000000000000000000000000000000002020013120200127220920500700147INSCRIPCION CAR       *
D081777997014  00379160261       2017/80016237  VENTURA GOMEZ  MILEN00000000570000000000000000000000000000000000000000000000002020013120200127220920500700148MATRICULA CAR         *
D081777997014  00374758952       2017/161877    MORENO MINCHAN  BERE00000000570000000000000000000000000000000000000000000000002020013120200127121490500700004MATRICULA SJL         *
D081777997014  00361714679       2017/161859    ANGLAS VALERIO  ALVI00000000570000000000000000000000000000000000000000000000002020013120200127121860500700001MATRICULA SJL         *
D081777997014  00378725693       2017/78244505  YSAGUIRRE GALINDO  J00000000570000000000000000000000000000000000000000000000002020013120200127122140500700046MATRICULA COL         *
D081777997014  00374168673       2017/161869    JORGE GARAY  FIORELA00000000570000000000000000000000000000000000000000000000002020013120200127122140500700053MATRICULA SJL         *
D081777997014  00378524996       2017/161852    ROBLES CHOQUE  ALESS00000000570000000000000000000000000000000000000000000000002020013120200127122470500700026MATRICULA SJL         *
D081777997014  00378524996       2017/161853    ROBLES CHOQUE  ALESS00000000350000000000000000000000000000000000000000000000002020013120200127122470500700027INSCRIPCION SJL       *
D081777997014  00370831871       2017/161860    VILLAFUERTE HUAMAN  00000000570000000000000000000000000000000000000000000000002020013120200127122470500700157MATRICULA SJL         *
D081777997014  00374906032       2017/161861    ZUMAETA MARAVI  MIGU00000000570000000000000000000000000000000000000000000000002020013120200127126910500700032MATRICULA SJL         *
D081777997014  00377791851       2017/161889    OSORIO DE LA CRUZ  A00000000570000000000000000000000000000000000000000000000002020013120200127126910500700069MATRICULA SJL         *
D081777997014  00377898292       2017/161733    SANTOS SILVA  FABRIZ00000000570000000000000000000000000000000000000000000000002020013120200127127420500700047MATRICULA SJL         *
D081777997014  00361253169       2017/80016242  ASHTU LOPEZ  SEBASTI00000000550000000000000000000000000000000000000000000000002020013120200127227844651020722INSCRIPCION CAR       *
D081777997014  00377627532       2017/80016243  ASHTU LOPEZ  ADRIAN 00000000560000000000000000000000000000000000000000000000002020013120200127227844651020763INSCRIPCION CAR       *
D081777997014  00379646200       2017/78244513  ELIAS DIAZ  FELIPE D00000000570000000000000000000000000000000000000000000000002020013120200127128600500700052MATRICULA COL         *
D081777997014  00379646200       2017/78244514  ELIAS DIAZ  FELIPE D00000000350000000000000000000000000000000000000000000000002020013120200127128600500700052INSCRIPCION COL       *
D081777997014  00375170376       2017/161887    JAICO ARIAS  GRISELL00000000570000000000000000000000000000000000000000000000002020013120200127129320500700002MATRICULA SJL         *
T081777997014  00304MATRICULA                     081777997014  000000000114000                                                                                                    *
T081777997014  00305DERECHO DE INGRESO COL        081777997014  000000000035000                                                                                                    *
T081777997014  00306MATRICULA SJL 2020            081777997014  000000000570000                                                                                                    *
T081777997014  00307DERECHO DE INGRESO SJL 2018   081777997014  000000000035000                                                                                                    *
T081777997014  00308MATRICULA 2020 CARABAYLLO     081777997014  000000000168000                                                                                                    *
T081777997014  00309DERECHO DE INGRESO 2020 CARABA081777997014  000000000035000                                                                                                    *
H081777997014  009000000900000000005400000000000000020200127                                                                                                                       *
D081777997014  00974610111       FF20/298       GUADALUPE PEREZ  NIG00000000060000000000000000000000000000000000000000000000002020013120200127120110500700038CERT ESTUDIOS SJL EN  *
D081777997014  00970838917       FF20/296       NUNEZ COSCO  ELIAS E00000000060000000000000000000000000000000000000000000000002020013120200127120350500700131CERT ESTUDIO COL ENE  *
D081777997014  00978311774       FF20/288       DE LA CRUZ TOMASTO  00000000060000000000000000000000000000000000000000000000002020013120200127120810500700049CERT ESTUDIOS CAR EN  *
D081777997014  00976601863       FF20/282       MOLINA RONCAL  DIEGO00000000060000000000000000000000000000000000000000000000002020013120200127122390500700032CERT ESTUDIOS SJL EN  *
D081777997014  00961253420       FF20/261       YACTAYO RUIZ  YADHIR00000000060000000000000000000000000000000000000000000000002020013120200127122470500700031CERT ESTUDIOS SJL EN  *
D081777997014  00977517834       FF20/273       PASTOR PINTO  PEYTON00000000060000000000000000000000000000000000000000000000002020013120200127122540500700113CERT ESTUDIO COL ENE  *
D081777997014  00970869964       FF20/291       GUILLEN CERNA  RAPHA00000000060000000000000000000000000000000000000000000000002020013120200127126910500700005CERT ESTUDIOS SJL EN  *
D081777997014  00970733870       FF20/270       CESPEDES PASAPERA  S00000000060000000000000000000000000000000000000000000000002020013120200127227844651000744CERT ESTUDIO COL ENE  *
D081777997014  00974186154       FF20/287       MONCADA MOLINA  MAYU00000000060000000000000000000000000000000000000000000000002020013120200127227844651015049CERT ESTUDIOS SJL EN  *
T081777997014  00929CERT ESTUDIO-COL              081777997014  000000000018000                                                                                                    *
T081777997014  00963CERT ESTUDIOS SJL             081777997014  000000000030000                                                                                                    *
T081777997014  00999CERT ESTUDIOS-CAR             081777997014  000000000006000                                                                                                    *
H081777997014  010000000200000000000600000000000000020200127                                                                                                                       *
D081777997014  01070838917       FF20/295       NUNEZ COSCO  ELIAS E00000000030000000000000000000000000000000000000000000000002020013120200127120350500700131CCIA NO ADEUDO COL E  *
D081777997014  01070733870       FF20/269       CESPEDES PASAPERA  S00000000030000000000000000000000000000000000000000000000002020013120200127227844651000735CCIA NO ADEUDO COL E  *
T081777997014  01028CCIA NO ADEUDO COL            081777997014  000000000006000                                                                                                    *
