H081777997014  001000005400000000313886700000000000020200217                                                                                                                       *
D081777997014  00177933831       2017/80010676  ENRIQUEZ CORDOVA  SO00000000550000000000000000000000000000000000000000000026652019033120200217120100500700082PENSION MAR 2019 CAR  *
D081777997014  00177933831       2017/80011176  ENRIQUEZ CORDOVA  SO00000000550000000000000000000000000000000000000000000024172019043020200217120100500700082PENSION ABR 2019 CAR  *
D081777997014  00177933831       2017/80011520  ENRIQUEZ CORDOVA  SO00000000550000000000000000000000000000000000000000000021622019053120200217120100500700082PENSION MAY 2019 CAR  *
D081777997014  00177933831       2017/80012076  ENRIQUEZ CORDOVA  SO00000000550000000000000000000000000000000000000000000019142019063020200217120100500700082PENSION JUN 2019 CAR  *
D081777997014  00177933831       2017/80012485  ENRIQUEZ CORDOVA  SO00000000550000000000000000000000000000000000000000000016582019073120200217120100500700082PENSION JUL 2019 CAR  *
D081777997014  00177933831       2017/80013156  ENRIQUEZ CORDOVA  SO00000000550000000000000000000000000000000000000000000014032019083120200217120100500700082PENSION AGO 2019 CAR  *
D081777997014  00177933831       2017/80013395  ENRIQUEZ CORDOVA  SO00000000550000000000000000000000000000000000000000000011552019093020200217120100500700082PENSION SEP 2019 CAR  *
D081777997014  00177193745       2017/78242665  SALGUERO MOLINA  ABR00000000560000000000000000000000000000000000000000000004872019122120200217120140500700033PENSION DIC 2019 COL  *
D081777997014  00172431250       2017/78242349  SALGUERO MOLINA  ADR00000000576000000000000000000000000000000000000000000005012019122120200217120140500700034PENSION DIC 2019 COL  *
D081777997014  00174847407       2017/78240658  SANCHEZ AREVALO  JEA00000000640000000000000000000000000000000000000000000007582019113020200217120140500700102PENSION NOV 2019 COL  *
D081777997014  00174847407       2017/78241754  SANCHEZ AREVALO  JEA00000000640000000000000000000000000000000000000000000005572019122120200217120140500700102PENSION DIC 2019 COL  *
D081777997014  00177252153       2017/78239674  MENDOZA RIVERA  MIGU00000000560000000000000000000000000000000000000000000009162019103120200217122540500700052PENSION OCT 2019 COL  *
D081777997014  00177252153       2017/78241459  MENDOZA RIVERA  MIGU00000000560000000000000000000000000000000000000000000006642019113020200217122540500700052PENSION NOV 2019 COL  *
D081777997014  00177252153       2017/78242636  MENDOZA RIVERA  MIGU00000000560000000000000000000000000000000000000000000004872019122120200217122540500700052PENSION DIC 2019 COL  *
D081777997014  00172105238       2017/78233972  CANCINO JUNCO  VALER00000000640000000000000000000000000000000000000000000025152019053120200217122540500700055PENSION MAY 2019 COL  *
D081777997014  00172105238       2017/78234724  CANCINO JUNCO  VALER00000000640000000000000000000000000000000000000000000022272019063020200217122540500700055PENSION JUN 2019 COL  *
D081777997014  00172105238       2017/78236261  CANCINO JUNCO  VALER00000000640000000000000000000000000000000000000000000019302019073120200217122540500700055PENSION JUL 2019 COL  *
D081777997014  00172105238       2017/78237555  CANCINO JUNCO  VALER00000000640000000000000000000000000000000000000000000016322019083120200217122540500700055PENSION AGO 2019 COL  *
D081777997014  00174129862       2017/78232498  CAMPODONICO ALCALDE 00000000640000000000000000000000000000000000000000000028132019043020200217122540500700062PENSION ABR 2019 COL  *
D081777997014  00174129862       2017/78233722  CAMPODONICO ALCALDE 00000000640000000000000000000000000000000000000000000025152019053120200217122540500700062PENSION MAY 2019 COL  *
D081777997014  00174129862       2017/78234551  CAMPODONICO ALCALDE 00000000640000000000000000000000000000000000000000000022272019063020200217122540500700062PENSION JUN 2019 COL  *
D081777997014  00161787165       2017/78235183  RABANAL SUMARAN  SAI00000000640000000000000000000000000000000000000000000022272019063020200217123220500700003PENSION JUN 2019 COL  *
D081777997014  00161787165       2017/78236720  RABANAL SUMARAN  SAI00000000640000000000000000000000000000000000000000000019302019073120200217123220500700003PENSION JUL 2019 COL  *
D081777997014  00161787165       2017/78238008  RABANAL SUMARAN  SAI00000000640000000000000000000000000000000000000000000016322019083120200217123220500700003PENSION AGO 2019 COL  *
D081777997014  00161787165       2017/78239150  RABANAL SUMARAN  SAI00000000640000000000000000000000000000000000000000000013442019093020200217123220500700003PENSION SEP 2019 COL  *
D081777997014  00161787165       2017/78239795  RABANAL SUMARAN  SAI00000000640000000000000000000000000000000000000000000010462019103120200217123220500700003PENSION OCT 2019 COL  *
D081777997014  00161787165       2017/78241577  RABANAL SUMARAN  SAI00000000640000000000000000000000000000000000000000000007582019113020200217123220500700003PENSION NOV 2019 COL  *
D081777997014  00161787165       2017/78242795  RABANAL SUMARAN  SAI00000000640000000000000000000000000000000000000000000005572019122120200217123220500700003PENSION DIC 2019 COL  *
D081777997014  00160785336       FF19/1699      MORANTE ALTUNA  ALES00000000640000000000000000000000000000000000000000000016322019083120200217124050500700007PENSION AGO 2019 COL  *
D081777997014  00160785336       FF19/1700      MORANTE ALTUNA  ALES00000000640000000000000000000000000000000000000000000013442019093020200217124050500700007PENSION SEP 2019 COL  *
D081777997014  00160785336       FF19/1701      MORANTE ALTUNA  ALES00000000640000000000000000000000000000000000000000000010462019103120200217124050500700007PENSION OCT 2019 COL  *
D081777997014  00160785336       FF19/1702      MORANTE ALTUNA  ALES00000000640000000000000000000000000000000000000000000007582019113020200217124050500700008PENSION NOV 2019 COL  *
D081777997014  00170483204       2017/80010545  GORBALAN BARTOLO  DI00000000540000000000000000000000000000000000000000000026162019033120200217124610500700008PENSION MAR 2019 CAR  *
D081777997014  00171404927       2017/78236115  AGUEDO CIRILO  RICAR00000000448000000000000000000000000000000000000000000013512019073120200217126610500700121PENSION JUL 2019 COL  *
D081777997014  00171404927       2017/78237380  AGUEDO CIRILO  RICAR00000000448000000000000000000000000000000000000000000011422019083120200217126610500700121PENSION AGO 2019 COL  *
D081777997014  00171404927       2017/78238545  AGUEDO CIRILO  RICAR00000000448000000000000000000000000000000000000000000009412019093020200217126610500700121PENSION SEP 2019 COL  *
D081777997014  00171404927       2017/78240445  AGUEDO CIRILO  RICAR00000000448000000000000000000000000000000000000000000007322019103120200217126610500700121PENSION OCT 2019 COL  *
D081777997014  00171404927       2017/78240975  AGUEDO CIRILO  RICAR00000000448000000000000000000000000000000000000000000005312019113020200217126610500700121PENSION NOV 2019 COL  *
D081777997014  00171404927       FF19/2292      AGUEDO CIRILO  RICAR00000000640000000000000000000000000000000000000000000005572019122120200217126610500700121PENSION DIC 2019 COL  *
D081777997014  00171160885       2017/78236321  AGUEDO CIRILO  RODRI00000000448000000000000000000000000000000000000000000013512019073120200217126610500700122PENSION JUL 2019 COL  *
D081777997014  00171160885       2017/78237609  AGUEDO CIRILO  RODRI00000000448000000000000000000000000000000000000000000011422019083120200217126610500700122PENSION AGO 2019 COL  *
D081777997014  00171160885       2017/78238753  AGUEDO CIRILO  RODRI00000000448000000000000000000000000000000000000000000009412019093020200217126610500700122PENSION SEP 2019 COL  *
D081777997014  00171160885       2017/78239409  AGUEDO CIRILO  RODRI00000000448000000000000000000000000000000000000000000007322019103120200217126610500700122PENSION OCT 2019 COL  *
D081777997014  00171160885       2017/78241181  AGUEDO CIRILO  RODRI00000000448000000000000000000000000000000000000000000005312019113020200217126610500700122PENSION NOV 2019 COL  *
D081777997014  00171160885       2017/78243685  AGUEDO CIRILO  RODRI00000000640000000000000000000000000000000000000000000005572019122120200217126610500700122PENSION DIC 2019 COL  *
D081777997014  00176470498       2017/160454    MORI CASTILLO  GADIE00000000540000000000000000000000000000000000000000000004702019122120200217126860500700006PENSION DIC 2019 SJL  *
D081777997014  00179806685       2017/155146    BARBA CASTILLO  CESA00000000560000000000000000000000000000000000000000000016882019073120200217126910500700079PENSION JUL 2019 SJL  *
D081777997014  00179806685       2017/155626    BARBA CASTILLO  CESA00000000560000000000000000000000000000000000000000000014282019083120200217126910500700079PENSION AGO 2019 SJL  *
D081777997014  00179806685       2017/156669    BARBA CASTILLO  CESA00000000560000000000000000000000000000000000000000000011762019093020200217126910500700079PENSION SEP 2019 SJL  *
D081777997014  00172493531       2017/156267    ROJAS RIVERA  CLAUDI00000000540000000000000000000000000000000000000000000013772019083120200217127420500700025PENSION AGO 2019 SJL  *
D081777997014  00172493531       2017/157298    ROJAS RIVERA  CLAUDI00000000540000000000000000000000000000000000000000000011342019093020200217127420500700026PENSION SEP 2019 SJL  *
D081777997014  00172493531       2017/158341    ROJAS RIVERA  CLAUDI00000000540000000000000000000000000000000000000000000008832019103120200217127420500700027PENSION OCT 2019 SJL  *
D081777997014  00172493531       2017/158501    ROJAS RIVERA  CLAUDI00000000540000000000000000000000000000000000000000000006402019113020200217127420500700028PENSION NOV 2019 SJL  *
D081777997014  00172493531       2017/160385    ROJAS RIVERA  CLAUDI00000000540000000000000000000000000000000000000000000004702019122120200217127420500700029PENSION DIC 2019 SJL  *
T081777997014  00101PENSION                       081777997014  000000002182611                                                                                                    *
T081777997014  00102PENSION SAN JUAN              081777997014  000000000501266                                                                                                    *
T081777997014  00103PENSION                       081777997014  000000000454990                                                                                                    *
H081777997014  003000000900000000051400000000000000020200217                                                                                                                       *
D081777997014  00377104697       2017/161993    SILVA ENRIQUE  CIELO00000000570000000000000000000000000000000000000000000000002020022820200217120100500700144MATRICULA SJL         *
D081777997014  00362047873       2017/161994    SILVA ENRIQUE  MIA A00000000570000000000000000000000000000000000000000000000002020022820200217120100500700145MATRICULA SJL         *
D081777997014  00378851552       2017/78244765  PISKUNOV TORIBIO  NO00000000570000000000000000000000000000000000000000000000002020022820200217120140500700007MATRICULA COL         *
D081777997014  00370595931       2017/80016334  CUEVA CHUMBIRAY  ROM00000000550000000000000000000000000000000000000000000000002020022820200217120210500700032INSCRIPCION CAR       *
D081777997014  00374735683       2017/80016398  QUISPE BUSTAMANTE  M00000000550000000000000000000000000000000000000000000000002020022820200217121770500700079INSCRIPCION CAR       *
D081777997014  00360850991       2017/80016379  ORTIZ VEGA  MARIEL S00000000550000000000000000000000000000000000000000000000002020022820200217126570500700023INSCRIPCION CAR       *
D081777997014  00378557068       2017/80016344  QUISPE GALINDO  CAMI00000000560000000000000000000000000000000000000000000000002020022820200217227844651015082INSCRIPCION CAR       *
D081777997014  00370740694       2017/80016365  BERROCAL CASTRO  ALE00000000550000000000000000000000000000000000000000000000002020022820200217227844651019011INSCRIPCION CAR       *
D081777997014  00372587000       2017/78244764  PANTIGOSO RIVERA  MA00000000670000000000000000000000000000000000000000000000002020022820200217227844651020828MATRICULA COL         *
T081777997014  00304MATRICULA                     081777997014  000000000124000                                                                                                    *
T081777997014  00306MATRICULA SJL 2020            081777997014  000000000114000                                                                                                    *
T081777997014  00308MATRICULA 2020 CARABAYLLO     081777997014  000000000276000                                                                                                    *
H081777997014  009000000100000000000600000000000000020200217                                                                                                                       *
D081777997014  00973742125       FF20/441       ESTRADA HUARCAYA  VA00000000060000000000000000000000000000000000000000000000002020022820200217126860500700008CERT ESTUDIOS SJL FE  *
T081777997014  00963CERT ESTUDIOS SJL             081777997014  000000000006000                                                                                                    *
