H081777997014  001000003600000000208584200000000000020200118                                                                                                                       *
D081777997014  00160853917       2017/157301    MALLMA VALENCIA  GRA00000000540000000000000000000000000000000000000000000008912019093020200118120100500700029PENSION SEP 2019 SJL  *
D081777997014  00160853917       2017/158344    MALLMA VALENCIA  GRA00000000540000000000000000000000000000000000000000000006402019103120200118120100500700029PENSION OCT 2019 SJL  *
D081777997014  00175027704       2017/78236473  HUAPAYA OYARCE  RENZ00000000640000000000000000000000000000000000000000000016422019073120200118120140500700001PENSION JUL 2019 COL  *
D081777997014  00175027704       2017/78237761  HUAPAYA OYARCE  RENZ00000000640000000000000000000000000000000000000000000013442019083120200118120140500700001PENSION AGO 2019 COL  *
D081777997014  00175027704       2017/78238903  HUAPAYA OYARCE  RENZ00000000640000000000000000000000000000000000000000000010562019093020200118120140500700001PENSION SEP 2019 COL  *
D081777997014  00175027704       2017/78239548  HUAPAYA OYARCE  RENZ00000000640000000000000000000000000000000000000000000007582019103120200118120140500700001PENSION OCT 2019 COL  *
D081777997014  00175027704       2017/78241344  HUAPAYA OYARCE  RENZ00000000640000000000000000000000000000000000000000000004702019113020200118120140500700001PENSION NOV 2019 COL  *
D081777997014  00175027704       2017/78242548  HUAPAYA OYARCE  RENZ00000000640000000000000000000000000000000000000000000002692019122120200118120140500700001PENSION DIC 2019 COL  *
D081777997014  00172825667       FF19/1591      HUAPAYA OYARCE  RODR00000000640000000000000000000000000000000000000000000016422019073120200118120140500700002PENSION JUL 2019 COL  *
D081777997014  00172825667       FF19/1592      HUAPAYA OYARCE  RODR00000000640000000000000000000000000000000000000000000013442019083120200118120140500700002PENSION AGO 2019 COL  *
D081777997014  00172825667       FF19/1593      HUAPAYA OYARCE  RODR00000000640000000000000000000000000000000000000000000010562019093020200118120140500700002PENSION SEP 2019 COL  *
D081777997014  00172825667       FF19/1594      HUAPAYA OYARCE  RODR00000000640000000000000000000000000000000000000000000007582019103120200118120140500700002PENSION OCT 2019 COL  *
D081777997014  00172825667       FF19/1595      HUAPAYA OYARCE  RODR00000000640000000000000000000000000000000000000000000004702019113020200118120140500700002PENSION NOV 2019 COL  *
D081777997014  00172825667       FF19/1596      HUAPAYA OYARCE  RODR00000000640000000000000000000000000000000000000000000002692019122120200118120140500700002PENSION DIC 2019 COL  *
D081777997014  00174524503       2017/80012249  NIVIN BADA  SANTIAGO00000000550000000000000000000000000000000000000000000016672019063020200118120200500700029PENSION JUN 2019 CAR  *
D081777997014  00170951580       2017/159156    SUAREZ AGUIRRE  ROLA00000000495000000000000000000000000000000000000000000003642019113020200118120440500700010PENSION NOV 2019 SJL  *
D081777997014  00170529087       2017/159422    FERNANDEZ FERNANDEZ 00000000540000000000000000000000000000000000000000000003972019113020200118220580500700017PENSION NOV 2019 SJL  *
D081777997014  00170529087       2017/160284    FERNANDEZ FERNANDEZ 00000000540000000000000000000000000000000000000000000002272019122120200118220580500700019PENSION DIC 2019 SJL  *
D081777997014  00173146820       2017/78240305  CUTISACA SALDARRIAGA00000000576000000000000000000000000000000000000000000006832019103120200118120890500700013PENSION OCT 2019 COL  *
D081777997014  00173146820       2017/78240908  CUTISACA SALDARRIAGA00000000576000000000000000000000000000000000000000000004232019113020200118120890500700013PENSION NOV 2019 COL  *
D081777997014  00173845051       2017/78239814  CUTISACA SALDARRIAGA00000000576000000000000000000000000000000000000000000006832019103120200118120890500700014PENSION OCT 2019 COL  *
D081777997014  00173845051       2017/78241591  CUTISACA SALDARRIAGA00000000576000000000000000000000000000000000000000000004232019113020200118120890500700014PENSION NOV 2019 COL  *
D081777997014  00177855942       2017/78239876  CUTISACA SALDARRIAGA00000000504000000000000000000000000000000000000000000005972019103120200118120890500700016PENSION OCT 2019 COL  *
D081777997014  00178982479       2017/158765    CRIALES ROJAS  ADRIA00000000560000000000000000000000000000000000000000000004122019113020200118121350500700003PENSION NOV 2019 SJL  *
D081777997014  00178982479       2017/159513    CRIALES ROJAS  ADRIA00000000560000000000000000000000000000000000000000000002352019122120200118121350500700003PENSION DIC 2019 SJL  *
D081777997014  00175042157       2017/159142    CRIALES ROJAS  NICOL00000000495000000000000000000000000000000000000000000003642019113020200118121350500700005PENSION NOV 2019 SJL  *
D081777997014  00175042157       2017/160004    CRIALES ROJAS  NICOL00000000495000000000000000000000000000000000000000000002082019122120200118121350500700005PENSION DIC 2019 SJL  *
D081777997014  00160194553       2017/157077    HIDALGO CASTILLO  CA00000000540000000000000000000000000000000000000000000008912019093020200118122140500700008PENSION SEP 2019 SJL  *
D081777997014  00174928462       2017/158149    PALOMINO DE LA CRUZ 00000000540000000000000000000000000000000000000000000006402019103120200118126860500700001PENSION OCT 2019 SJL  *
D081777997014  00174928462       2017/159331    PALOMINO DE LA CRUZ 00000000540000000000000000000000000000000000000000000003972019113020200118126860500700001PENSION NOV 2019 SJL  *
D081777997014  00178599234       2017/159796    GUEVARA CABREJOS  AI00000000504000000000000000000000000000000000000000000002122019122120200118126910500700022PENSION DIC 2019 SJL  *
D081777997014  00171271582       2017/160393    GUEVARA CABREJOS  LU00000000540000000000000000000000000000000000000000000002272019122120200118126910500700023PENSION DIC 2019 SJL  *
D081777997014  00163792374       2017/159690    PAUCAR OYOLA  GABRIE00000000550000000000000000000000000000000000000000000002312019122120200118127420500700027PENSION DIC 2019 SJL  *
D081777997014  00172783600       2017/160644    PAUCAR MONTELLANOS  00000000486000000000000000000000000000000000000000000005762019103120200118127420500700029PENSION OCT 2019 SJL  *
D081777997014  00178918894       2017/78240072  SAURI VILCHEZ  NAYLA00000000560000000000000000000000000000000000000000000006642019103120200118227844671000908PENSION OCT 2019 COL  *
D081777997014  00178918894       2017/78240626  SAURI VILCHEZ  NAYLA00000000560000000000000000000000000000000000000000000004122019113020200118227844671000909PENSION NOV 2019 COL  *
T081777997014  00101PENSION                       081777997014  000000001175763                                                                                                    *
T081777997014  00102PENSION SAN JUAN              081777997014  000000000853412                                                                                                    *
T081777997014  00103PENSION                       081777997014  000000000056667                                                                                                    *
H081777997014  003000000400000000020700000000000000020200118                                                                                                                       *
D081777997014  00378868121       2017/161727    SUAREZ AGUIRRE  OSWA00000000570000000000000000000000000000000000000000000000002020013120200118120440500700008MATRICULA SJL         *
D081777997014  00378491362       2017/78244405  ROMERO RODRIGUEZ  MA00000000580000000000000000000000000000000000000000000000002020013120200118122540500700046MATRICULA COL         *
D081777997014  00378491362       2017/78244406  ROMERO RODRIGUEZ  MA00000000350000000000000000000000000000000000000000000000002020013120200118122540500700046INSCRIPCION COL       *
D081777997014  00374268240       2017/161732    IZAGUIRRE ESCOBEDO  00000000570000000000000000000000000000000000000000000000002020013120200118226910500700013MATRICULA SJL         *
T081777997014  00304MATRICULA                     081777997014  000000000058000                                                                                                    *
T081777997014  00305DERECHO DE INGRESO COL        081777997014  000000000035000                                                                                                    *
T081777997014  00306MATRICULA SJL 2020            081777997014  000000000114000                                                                                                    *
H081777997014  007000000100000000000250000000000000020200118                                                                                                                       *
D081777997014  00773102800       FF20/168       GRIJALVA SANCHEZ  KA00000000025000000000000000000000000000000000000000000000002020013120200118122470500700015EXCELENCIA ACAD SJL   *
T081777997014  00761EXCELENCIA ACAD SJL           081777997014  000000000002500                                                                                                    *
H081777997014  009000000300000000001800000000000000020200118                                                                                                                       *
D081777997014  00973102800       FF20/167       GRIJALVA SANCHEZ  KA00000000060000000000000000000000000000000000000000000000002020013120200118122470500700015CERT ESTUDIOS SJL EN  *
D081777997014  00925807141       FF20/186       PARIONA HUAMANCHA  G00000000060000000000000000000000000000000000000000000000002020013120200118124450500700006CERT ESTUDIO COL ENE  *
D081777997014  00974241971       FF20/196       SALDANA HUARIPATA  N00000000060000000000000000000000000000000000000000000000002020013120200118127420500700014CERT ESTUDIOS SJL EN  *
T081777997014  00929CERT ESTUDIO-COL              081777997014  000000000006000                                                                                                    *
T081777997014  00963CERT ESTUDIOS SJL             081777997014  000000000012000                                                                                                    *
H081777997014  010000000100000000000300000000000000020200118                                                                                                                       *
D081777997014  01060797726       FF20/166       CACERES ELIZALDE  KI00000000030000000000000000000000000000000000000000000000002020013120200118120700500700038CCIA NO ADEUDO COL E  *
T081777997014  01028CCIA NO ADEUDO COL            081777997014  000000000003000                                                                                                    *
H081777997014  012000000200000000000600000000000000020200118                                                                                                                       *
D081777997014  01261463648       FF20/22        ROQUE MACALUPU  ARON00000000030000000000000000000000000000000000000000000000002020013120200118120230500700005PRA ACAD SJL ENE 202  *
D081777997014  01261463648       FF20/23        ROQUE MACALUPU  ARON00000000030000000000000000000000000000000000000000000000002020013120200118120230500700005PRA ACAD SJL ENE 202  *
T081777997014  01266PRA ACAD SJL                  081777997014  000000000006000                                                                                                    *
