H081777997014  001000002500000000152047300000000000020200304                                                                                                                       *
D081777997014  00175886674       2017/78231408  GARRIDO CALLE  FABIA00000000640000000000000000000000000000000000000000000032542019033120200304122030500700118PENSION MAR 2019 COL  *
D081777997014  00175886674       2017/78232623  GARRIDO CALLE  FABIA00000000640000000000000000000000000000000000000000000029662019043020200304122030500700118PENSION ABR 2019 COL  *
D081777997014  00175886674       2017/78233979  GARRIDO CALLE  FABIA00000000640000000000000000000000000000000000000000000026692019053120200304122030500700118PENSION MAY 2019 COL  *
D081777997014  00175886674       2017/78234731  GARRIDO CALLE  FABIA00000000640000000000000000000000000000000000000000000023812019063020200304122030500700118PENSION JUN 2019 COL  *
D081777997014  00175886674       2017/78236268  GARRIDO CALLE  FABIA00000000640000000000000000000000000000000000000000000020832019073120200304122030500700118PENSION JUL 2019 COL  *
D081777997014  00175886674       2017/78237562  GARRIDO CALLE  FABIA00000000640000000000000000000000000000000000000000000017862019083120200304122030500700118PENSION AGO 2019 COL  *
D081777997014  00174132550       2017/78231276  VELASCO CHAVEZ  ALEX00000000640000000000000000000000000000000000000000000032542019033120200304122100500700048PENSION MAR 2019 COL  *
D081777997014  00176633458       2017/78240263  TORRES HURTADO  SEBA00000000640000000000000000000000000000000000000000000012002019103120200304122160500700005PENSION OCT 2019 COL  *
D081777997014  00176633458       2017/78240805  TORRES HURTADO  SEBA00000000640000000000000000000000000000000000000000000009122019113020200304122160500700005PENSION NOV 2019 COL  *
D081777997014  00176633458       2017/78242110  TORRES HURTADO  SEBA00000000640000000000000000000000000000000000000000000007102019122120200304122160500700005PENSION DIC 2019 COL  *
D081777997014  00162373011       2017/78235154  TERAN TEJADA  TOMMY 00000000576000000000000000000000000000000000000000000021432019063020200304122540500700081PENSION JUN 2019 COL  *
D081777997014  00162373011       2017/78236691  TERAN TEJADA  TOMMY 00000000576000000000000000000000000000000000000000000018752019073120200304122540500700081PENSION JUL 2019 COL  *
D081777997014  00162373011       2017/78237993  TERAN TEJADA  TOMMY 00000000576000000000000000000000000000000000000000000016072019083120200304122540500700081PENSION AGO 2019 COL  *
D081777997014  00162373011       2017/78239121  TERAN TEJADA  TOMMY 00000000576000000000000000000000000000000000000000000013482019093020200304122540500700081PENSION SEP 2019 COL  *
D081777997014  00162373011       2017/78239766  TERAN TEJADA  TOMMY 00000000576000000000000000000000000000000000000000000010802019103120200304122540500700081PENSION OCT 2019 COL  *
D081777997014  00162373011       2017/78241551  TERAN TEJADA  TOMMY 00000000576000000000000000000000000000000000000000000008212019113020200304122540500700081PENSION NOV 2019 COL  *
D081777997014  00162373011       2017/78242766  TERAN TEJADA  TOMMY 00000000576000000000000000000000000000000000000000000006392019122120200304122540500700081PENSION DIC 2019 COL  *
D081777997014  00161043929       2017/78243431  HUACAYCHUCO MELENDEZ00000000448000000000000000000000000000000000000000000004972019122120200304124280500700009PENSION DIC 2019 COL  *
D081777997014  00178443341       2017/153546    GALINDO SANTOS  MARK00000000560000000000000000000000000000000000000000000020832019063020200304127420500700079PENSION JUN 2019 SJL  *
D081777997014  00178443341       2017/155186    GALINDO SANTOS  MARK00000000560000000000000000000000000000000000000000000018232019073120200304127420500700079PENSION JUL 2019 SJL  *
D081777997014  00178443341       2017/155401    GALINDO SANTOS  MARK00000000560000000000000000000000000000000000000000000015622019083120200304127420500700079PENSION AGO 2019 SJL  *
D081777997014  00178443341       2017/156444    GALINDO SANTOS  MARK00000000560000000000000000000000000000000000000000000013102019093020200304127420500700079PENSION SEP 2019 SJL  *
D081777997014  00178443341       2017/157598    GALINDO SANTOS  MARK00000000560000000000000000000000000000000000000000000010502019103120200304127420500700079PENSION OCT 2019 SJL  *
D081777997014  00178443341       2017/158820    GALINDO SANTOS  MARK00000000560000000000000000000000000000000000000000000007982019113020200304127420500700079PENSION NOV 2019 SJL  *
D081777997014  00178443341       2017/159756    GALINDO SANTOS  MARK00000000560000000000000000000000000000000000000000000006222019122120200304127420500700079PENSION DIC 2019 SJL  *
T081777997014  00101PENSION                       081777997014  000000001119225                                                                                                    *
T081777997014  00102PENSION SAN JUAN              081777997014  000000000401248                                                                                                    *
H081777997014  003000000800000000042990000000000000020200304                                                                                                                       *
D081777997014  00361528433       2017/162163    CASTILLO ARI  KEISI 00000000570000000000000000000000000000000000000000000000002020033120200304120100500700097MATRICULA SJL         *
D081777997014  00372826903       2017/80016542  HURTADO ALATRISTA  D00000000560000000000000000000000000000000000000000000000002020033120200304120210500700015INSCRIPCION CAR       *
D081777997014  00371144107       2017/80016618  ALLEMANT MARAVI  VAN00000000550000000000000000000000000000000000000000000000002020033120200304120210500700149INSCRIPCION CAR       *
D081777997014  00370592926       2017/80016553  SALINAS OCANA  LUDWI00000000550000000000000000000000000000000000000000000000002020033120200304120210500700172INSCRIPCION CAR       *
D081777997014  00370527355       2017/162167    LLANOS ALARCON  AXEL00000000484500000000000000000000000000000000000000000000002020033120200304126860500700013MATRICULA SJL         *
D081777997014  00374868050       2017/162166    ALARCON MERINO  GRAZ00000000484500000000000000000000000000000000000000000000002020033120200304126860500700014MATRICULA SJL         *
D081777997014  00361123037       2017/80016617  LUGO JARA  ESTRELLA 00000000550000000000000000000000000000000000000000000000002020033120200304127020500700059INSCRIPCION CAR       *
D081777997014  00374342055       2017/80016615  QUISPE GALINDO  MELI00000000550000000000000000000000000000000000000000000000002020033120200304227844651008354MATRICULA CAR         *
T081777997014  00306MATRICULA SJL 2020            081777997014  000000000153900                                                                                                    *
T081777997014  00308MATRICULA 2020 CARABAYLLO     081777997014  000000000276000                                                                                                    *
H081777997014  006000000200000000000400000000000000020200304                                                                                                                       *
D081777997014  00672206949       FF20/701       MAGUINA MILLAN  NADI00000000020000000000000000000000000000000000000000000000002020033120200304120210500700004CCIA ESTUDIOS CAR MA  *
D081777997014  00671731824       FF20/715       DEL PINO MIRANDA  LE00000000020000000000000000000000000000000000000000000000002020033120200304120240500700055CCIA ESTUDIOS COL MA  *
T081777997014  00624CCIA ESTUDIOS COL             081777997014  000000000002000                                                                                                    *
T081777997014  00696CCIA ESTUDIOS CAR             081777997014  000000000002000                                                                                                    *
H081777997014  009000000700000000004200000000000000020200304                                                                                                                       *
D081777997014  00971012481       FF20/674       PORTELLA VERGARAY  D00000000060000000000000000000000000000000000000000000000002020022820200304120100500700031CERT ESTUDIOS SJL FE  *
D081777997014  00976588240       FF20/711       TORRES AGUILAR  AARO00000000060000000000000000000000000000000000000000000000002020033120200304120110500700122CERT ESTUDIO COL MAR  *
D081777997014  00974712125       FF20/714       ALVEAR HUAMAN  ANTHU00000000060000000000000000000000000000000000000000000000002020033120200304120210500700173CERT ESTUDIOS CAR MA  *
D081777997014  00972452540       FF20/698         CERTIFICADO DE EST00000000060000000000000000000000000000000000000000000000002020033120200304121700500700115CERT ESTUDIOS SJL MA  *
D081777997014  00973741440       FF20/706       VILLA MANCHAY  JOSE 00000000060000000000000000000000000000000000000000000000002020033120200304121930500700029CERT ESTUDIO COL MAR  *
D081777997014  00974016614       FF20/707       DUENAS MERINO  DIEGO00000000060000000000000000000000000000000000000000000000002020033120200304122300500700033CERT ESTUDIOS SJL MA  *
D081777997014  00976251822       FF20/713       SALVATIERRA BRIONES 00000000060000000000000000000000000000000000000000000000002020033120200304126790500700100CERT ESTUDIOS CAR MA  *
T081777997014  00929CERT ESTUDIO-COL              081777997014  000000000012000                                                                                                    *
T081777997014  00963CERT ESTUDIOS SJL             081777997014  000000000018000                                                                                                    *
T081777997014  00999CERT ESTUDIOS-CAR             081777997014  000000000012000                                                                                                    *
