H081777997014  001000004900000000274956400000000000020200225                                                                                                                       *
D081777997014  00177150029       2017/151295    CUCHO JULCA  BECKER 00000000540000000000000000000000000000000000000000000026812019033120200225120360500700038PENSION MAR 2019 SJL  *
D081777997014  00177150029       2017/152307    CUCHO JULCA  BECKER 00000000540000000000000000000000000000000000000000000024382019043020200225120360500700038PENSION ABR 2019 SJL  *
D081777997014  00177150029       2017/153304    CUCHO JULCA  BECKER 00000000540000000000000000000000000000000000000000000021872019053120200225120360500700038PENSION MAY 2019 SJL  *
D081777997014  00177150029       2017/154326    CUCHO JULCA  BECKER 00000000540000000000000000000000000000000000000000000019442019063020200225120360500700038PENSION JUN 2019 SJL  *
D081777997014  00177150029       2017/154991    CUCHO JULCA  BECKER 00000000540000000000000000000000000000000000000000000016932019073120200225120360500700038PENSION JUL 2019 SJL  *
D081777997014  00177150029       2017/156370    CUCHO JULCA  BECKER 00000000540000000000000000000000000000000000000000000014422019083120200225120360500700038PENSION AGO 2019 SJL  *
D081777997014  00177150029       2017/157392    CUCHO JULCA  BECKER 00000000540000000000000000000000000000000000000000000011992019093020200225120360500700038PENSION SEP 2019 SJL  *
D081777997014  00177150029       2017/158414    CUCHO JULCA  BECKER 00000000540000000000000000000000000000000000000000000009482019103120200225120360500700038PENSION OCT 2019 SJL  *
D081777997014  00177150029       2017/158574    CUCHO JULCA  BECKER 00000000540000000000000000000000000000000000000000000007052019113020200225120360500700038PENSION NOV 2019 SJL  *
D081777997014  00177150029       2017/160458    CUCHO JULCA  BECKER 00000000540000000000000000000000000000000000000000000005352019122120200225120360500700038PENSION DIC 2019 SJL  *
D081777997014  00174241721       FF19/1545      DAVALOS ARTEAGA  JAI00000000640000000000000000000000000000000000000000000008352019113020200225120600500700056PENSION NOV 2019 COL  *
D081777997014  00177396948       2017/80013412  RODRIGUEZ SOCUALAYA 00000000550000000000000000000000000000000000000000000012212019093020200225121910500700001PENSION SEP 2019 CAR  *
D081777997014  00177396948       2017/80013988  RODRIGUEZ SOCUALAYA 00000000550000000000000000000000000000000000000000000009652019103120200225121910500700001PENSION OCT 2019 CAR  *
D081777997014  00177396948       2017/80014490  RODRIGUEZ SOCUALAYA 00000000550000000000000000000000000000000000000000000007182019113020200225121910500700001PENSION NOV 2019 CAR  *
D081777997014  00177396948       2017/80015031  RODRIGUEZ SOCUALAYA 00000000550000000000000000000000000000000000000000000005452019122120200225121910500700001PENSION DIC 2019 CAR  *
D081777997014  00174086574       2017/80010594  CABANILLAS ESPINOZA 00000000486000000000000000000000000000000000000000000024132019033120200225122030500700036PENSION MAR 2019 CAR  *
D081777997014  00174086574       2017/80011074  CABANILLAS ESPINOZA 00000000486000000000000000000000000000000000000000000021942019043020200225122030500700036PENSION ABR 2019 CAR  *
D081777997014  00174086574       2017/80011637  CABANILLAS ESPINOZA 00000000486000000000000000000000000000000000000000000019682019053120200225122030500700036PENSION MAY 2019 CAR  *
D081777997014  00174086574       2017/80011974  CABANILLAS ESPINOZA 00000000486000000000000000000000000000000000000000000017502019063020200225122030500700036PENSION JUN 2019 CAR  *
D081777997014  00174086574       2017/80012593  CABANILLAS ESPINOZA 00000000486000000000000000000000000000000000000000000015242019073120200225122030500700036PENSION JUL 2019 CAR  *
D081777997014  00174086574       2017/80015875  CABANILLAS ESPINOZA 00000000540000000000000000000000000000000000000000000014422019083120200225122030500700036PENSION AGO 2019 CAR  *
D081777997014  00174086574       2017/80015876  CABANILLAS ESPINOZA 00000000540000000000000000000000000000000000000000000011992019093020200225122030500700036PENSION SEP 2019 CAR  *
D081777997014  00174086574       2017/80015877  CABANILLAS ESPINOZA 00000000540000000000000000000000000000000000000000000009482019103120200225122030500700036PENSION OCT 2019 CAR  *
D081777997014  00174086574       2017/80015878  CABANILLAS ESPINOZA 00000000540000000000000000000000000000000000000000000007052019113020200225122030500700036PENSION NOV 2019 CAR  *
D081777997014  00174086574       2017/80015879  CABANILLAS ESPINOZA 00000000540000000000000000000000000000000000000000000005352019122120200225122030500700036PENSION DIC 2019 CAR  *
D081777997014  00176633458       2017/78237261  TORRES HURTADO  SEBA00000000640000000000000000000000000000000000000000000017092019083120200225122160500700001PENSION AGO 2019 COL  *
D081777997014  00176633458       2017/78238346  TORRES HURTADO  SEBA00000000640000000000000000000000000000000000000000000014212019093020200225122160500700001PENSION SEP 2019 COL  *
D081777997014  00161454243       2017/155891    MONROY ESTEBAN  ADRI00000000550000000000000000000000000000000000000000000014692019083120200225122390500700024PENSION AGO 2019 SJL  *
D081777997014  00161454243       2017/156919    MONROY ESTEBAN  ADRI00000000550000000000000000000000000000000000000000000012212019093020200225122390500700024PENSION SEP 2019 SJL  *
D081777997014  00173843727       2017/78236746  CHAVEZ PALACIOS  LUA00000000640000000000000000000000000000000000000000000020062019073120200225124450500700012PENSION JUL 2019 COL  *
D081777997014  00173843727       2017/78238034  CHAVEZ PALACIOS  LUA00000000640000000000000000000000000000000000000000000017092019083120200225124450500700012PENSION AGO 2019 COL  *
D081777997014  00176282296       2017/160701    ASIPALI PIZANGO  JUN00000000540000000000000000000000000000000000000000000016932019073120200225126910500700004PENSION JUL 2019 SJL  *
D081777997014  00176282296       2017/160702    ASIPALI PIZANGO  JUN00000000540000000000000000000000000000000000000000000014422019083120200225126910500700004PENSION AGO 2019 SJL  *
D081777997014  00176282296       2017/160703    ASIPALI PIZANGO  JUN00000000540000000000000000000000000000000000000000000011992019093020200225126910500700004PENSION SEP 2019 SJL  *
D081777997014  00173168737       2017/150671    ECHEVARRIA GUTIERREZ00000000550000000000000000000000000000000000000000000027312019033120200225126910500700023PENSION MAR 2019 SJL  *
D081777997014  00173168737       2017/151678    ECHEVARRIA GUTIERREZ00000000550000000000000000000000000000000000000000000024832019043020200225126910500700023PENSION ABR 2019 SJL  *
D081777997014  00173168737       2017/152577    ECHEVARRIA GUTIERREZ00000000550000000000000000000000000000000000000000000022282019053120200225126910500700023PENSION MAY 2019 SJL  *
D081777997014  00173168737       2017/153618    ECHEVARRIA GUTIERREZ00000000550000000000000000000000000000000000000000000019802019063020200225126910500700023PENSION JUN 2019 SJL  *
D081777997014  00173168737       2017/154387    ECHEVARRIA GUTIERREZ00000000550000000000000000000000000000000000000000000017242019073120200225126910500700023PENSION JUL 2019 SJL  *
D081777997014  00173168737       2017/155755    ECHEVARRIA GUTIERREZ00000000550000000000000000000000000000000000000000000014692019083120200225126910500700023PENSION AGO 2019 SJL  *
D081777997014  00173168737       2017/156788    ECHEVARRIA GUTIERREZ00000000550000000000000000000000000000000000000000000012212019093020200225126910500700023PENSION SEP 2019 SJL  *
D081777997014  00173168737       2017/157815    ECHEVARRIA GUTIERREZ00000000550000000000000000000000000000000000000000000009652019103120200225126910500700023PENSION OCT 2019 SJL  *
D081777997014  00173168737       2017/158893    ECHEVARRIA GUTIERREZ00000000550000000000000000000000000000000000000000000007182019113020200225126910500700023PENSION NOV 2019 SJL  *
D081777997014  00173168737       2017/159845    ECHEVARRIA GUTIERREZ00000000550000000000000000000000000000000000000000000005452019122120200225126910500700023PENSION DIC 2019 SJL  *
D081777997014  00177625360       2017/78236938  MORA BARRIOS  BEILA 00000000560000000000000000000000000000000000000000000014952019083120200225227844651007297PENSION AGO 2019 COL  *
D081777997014  00170958150       2017/158129    CAPUNAY INONAN  HENR00000000486000000000000000000000000000000000000000000008532019103120200225227844651010858PENSION OCT 2019 SJL  *
D081777997014  00170958150       2017/159311    CAPUNAY INONAN  HENR00000000486000000000000000000000000000000000000000000006342019113020200225227844651010860PENSION NOV 2019 SJL  *
D081777997014  00170958150       2017/160173    CAPUNAY INONAN  HENR00000000486000000000000000000000000000000000000000000004812019122120200225227844651012755PENSION DIC 2019 SJL  *
D081777997014  00170598602       2017/78241801  SANDMANN CASTILLO  C00000000640000000000000000000000000000000000000000000006342019122120200225129470500700038PENSION DIC 2019 COL  *
T081777997014  00101PENSION                       081777997014  000000000449809                                                                                                    *
T081777997014  00102PENSION SAN JUAN              081777997014  000000001548628                                                                                                    *
T081777997014  00103PENSION                       081777997014  000000000751127                                                                                                    *
H081777997014  003000001100000000062800000000000000020200225                                                                                                                       *
D081777997014  00371282249       2017/80016463  ORTIZ ENRIQUEZ  FRED00000000550000000000000000000000000000000000000000000000002020022820200225120210500700098INSCRIPCION CAR       *
D081777997014  00370592926       2017/80015578  SALINAS OCANA  LUDWI00000000540000000000000000000000000000000000000000000000002019043020200225120360500700027MATRICULA CAR         *
D081777997014  00373066934       2017/162078    REMIGIO CASTROMONTE 00000000570000000000000000000000000000000000000000000000002020022820200225120580500700055MATRICULA SJL         *
D081777997014  00360785336       2017/78244898  MORANTE ALTUNA  ALES00000000670000000000000000000000000000000000000000000000002020022820200225220700500700088MATRICULA COL         *
D081777997014  00361139476       2017/162072    VARGAS ALCAS  STEVEN00000000570000000000000000000000000000000000000000000000002020022820200225122470500700014MATRICULA SJL         *
D081777997014  00361139476       2017/162073    VARGAS ALCAS  STEVEN00000000350000000000000000000000000000000000000000000000002020022820200225122470500700014INSCRIPCION SJL       *
D081777997014  00376051599       2017/78244896  MONTES VASQUEZ  DAYR00000000670000000000000000000000000000000000000000000000002020022820200225122540500700001MATRICULA COL         *
D081777997014  00373640160       2017/78244864  SANCHEZ SANTIANI  JO00000000670000000000000000000000000000000000000000000000002020022820200225122540500700112MATRICULA COL         *
D081777997014  00374334975       2017/162067    RIXE OLIVARES  MATHI00000000570000000000000000000000000000000000000000000000002020022820200225123690500700020MATRICULA SJL         *
D081777997014  00370512631       2017/80016454  STEIN VENEGAS  CARLO00000000550000000000000000000000000000000000000000000000002020022820200225127020500700050INSCRIPCION CAR       *
D081777997014  00372783600       2017/162084    PAUCAR MONTELLANOS  00000000570000000000000000000000000000000000000000000000002020022820200225127420500700026MATRICULA SJL         *
T081777997014  00304MATRICULA                     081777997014  000000000201000                                                                                                    *
T081777997014  00306MATRICULA SJL 2020            081777997014  000000000228000                                                                                                    *
T081777997014  00307DERECHO DE INGRESO SJL 2018   081777997014  000000000035000                                                                                                    *
T081777997014  00308MATRICULA 2020 CARABAYLLO     081777997014  000000000164000                                                                                                    *
H081777997014  006000000100000000000200000000000000020200225                                                                                                                       *
D081777997014  00671058170       FF20/595       SANTA CRUZ CRUZ  OLI00000000020000000000000000000000000000000000000000000000002020022820200225122470500700031CCIA ESTUDIOS SJL FE  *
T081777997014  00660CCIA ESTUDIOS SJL             081777997014  000000000002000                                                                                                    *
H081777997014  009000000700000000004200000000000000020200225                                                                                                                       *
D081777997014  00973222200       FF20/573       JOHNSON AVALOS  LILI00000000060000000000000000000000000000000000000000000000002020022820200225123880500700015CERT ESTUDIO COL FEB  *
D081777997014  00976856954       FF20/596       YZAGUIRRE TOVAR  FER00000000060000000000000000000000000000000000000000000000002020022820200225124450500700020CERT ESTUDIOS CAR FE  *
D081777997014  00976856954       FF20/597       YZAGUIRRE TOVAR  FER00000000060000000000000000000000000000000000000000000000002020022820200225124450500700021CERT ESTUDIOS CAR FE  *
D081777997014  00974026155       FF20/610       BRONCANO SALINAS  JE00000000060000000000000000000000000000000000000000000000002020022820200225125350500700087CERT ESTUDIOS CAR FE  *
D081777997014  00973073640       FF20/612       APAZA ALVA  RODRIGO 00000000060000000000000000000000000000000000000000000000002020022820200225126910500700065CERT ESTUDIOS SJL FE  *
D081777997014  00979315195       FF20/598       QUEQUESANA MALDONADO00000000060000000000000000000000000000000000000000000000002020022820200225227844651008528CERT ESTUDIO COL FEB  *
D081777997014  00977642637       FF20/594       TICONA NAVARRO  BIAN00000000060000000000000000000000000000000000000000000000002020022820200225227844671000678CERT ESTUDIO COL FEB  *
T081777997014  00929CERT ESTUDIO-COL              081777997014  000000000018000                                                                                                    *
T081777997014  00963CERT ESTUDIOS SJL             081777997014  000000000006000                                                                                                    *
T081777997014  00999CERT ESTUDIOS-CAR             081777997014  000000000018000                                                                                                    *
