H081777997014  001000004000000000217533800000000000020200104                                                                                                                       *
D081777997014  00179139896       2017/158742    RODRIGUEZ FLORES  MA00000000560000000000000000000000000000000000000000000002942019113020200104120100500700026PENSION NOV 2019 SJL  *
D081777997014  00179139896       2017/159501    RODRIGUEZ FLORES  MA00000000560000000000000000000000000000000000000000000001182019122120200104120100500700026PENSION DIC 2019 SJL  *
D081777997014  00175954053       2017/78240459  YUPANQUI LECHUGA  GA00000000640000000000000000000000000000000000000000000006242019103120200104120130500700021PENSION OCT 2019 COL  *
D081777997014  00175954053       2017/78241029  YUPANQUI LECHUGA  GA00000000640000000000000000000000000000000000000000000003362019113020200104120130500700022PENSION NOV 2019 COL  *
D081777997014  00177655119       2017/78242873  FERNANDEZ VARGAS  SA00000000560000000000000000000000000000000000000000000001182019122120200104122310500700029PENSION DIC 2019 COL  *
D081777997014  00161330105       2017/159246    HUARACHA ORTEGA  FAB00000000550000000000000000000000000000000000000000000002892019113020200104122470500700052PENSION NOV 2019 SJL  *
D081777997014  00161330105       2017/160108    HUARACHA ORTEGA  FAB00000000550000000000000000000000000000000000000000000001162019122120200104122470500700052PENSION DIC 2019 SJL  *
D081777997014  00176613736       2017/158245    CARDENAS QUISPE  CHE00000000540000000000000000000000000000000000000000000005272019103120200104122470500700055PENSION OCT 2019 SJL  *
D081777997014  00177277367       2017/78237326  ALTEZ ROMANI  RENZO 00000000640000000000000000000000000000000000000000000012102019083120200104122540500700044PENSION AGO 2019 COL  *
D081777997014  00177277367       2017/78238468  ALTEZ ROMANI  RENZO 00000000640000000000000000000000000000000000000000000009222019093020200104122540500700044PENSION SEP 2019 COL  *
D081777997014  00177277367       2017/78240328  ALTEZ ROMANI  RENZO 00000000640000000000000000000000000000000000000000000006242019103120200104122540500700044PENSION OCT 2019 COL  *
D081777997014  00177277367       2017/78240931  ALTEZ ROMANI  RENZO 00000000640000000000000000000000000000000000000000000003362019113020200104122540500700044PENSION NOV 2019 COL  *
D081777997014  00177277367       2017/78242040  ALTEZ ROMANI  RENZO 00000000640000000000000000000000000000000000000000000001342019122120200104122540500700044PENSION DIC 2019 COL  *
D081777997014  00179474954       2017/78241926  LOAIZA BARZOLA  MICA00000000560000000000000000000000000000000000000000000001182019122120200104122540500700058PENSION DIC 2019 COL  *
D081777997014  00172746695       2017/78242053  SANTOS BELLODAS  MAR00000000576000000000000000000000000000000000000000000001212019122120200104122540500700064PENSION DIC 2019 COL  *
D081777997014  00160881682       2017/78242172  SANTOS BELLODAS  XIO00000000640000000000000000000000000000000000000000000001342019122120200104122540500700066PENSION DIC 2019 COL  *
D081777997014  00172343410       2017/78239386  COTRINA SALINAS  LUC00000000640000000000000000000000000000000000000000000006242019103120200104122540500700068PENSION OCT 2019 COL  *
D081777997014  00172343410       2017/78241125  COTRINA SALINAS  LUC00000000640000000000000000000000000000000000000000000003362019113020200104122540500700068PENSION NOV 2019 COL  *
D081777997014  00172343410       2017/78242373  COTRINA SALINAS  LUC00000000640000000000000000000000000000000000000000000001342019122120200104122540500700068PENSION DIC 2019 COL  *
D081777997014  00176051599       2017/78240486  MONTES VASQUEZ  DAYR00000000576000000000000000000000000000000000000000000005622019103120200104123200500700089PENSION OCT 2019 COL  *
D081777997014  00173279402       2017/150877    ARIAS CANALES  RENAT00000000550000000000000000000000000000000000000000000023022019033120200104126910500700015PENSION MAR 2019 SJL  *
D081777997014  00173279402       2017/151913    ARIAS CANALES  RENAT00000000550000000000000000000000000000000000000000000020542019043020200104126910500700015PENSION ABR 2019 SJL  *
D081777997014  00163012144       2017/159913    SABRERA CABEZAS  CAR00000000550000000000000000000000000000000000000000000001162019122120200104126910500700018PENSION DIC 2019 SJL  *
D081777997014  00174271031       2017/160681    YANAC HERNANDEZ  JOS00000000495000000000000000000000000000000000000000000001042019122120200104126910500700033PENSION DIC 2019 SJL  *
D081777997014  00161879082       2017/157893    ZUMAETA MARAVI  DAVI00000000495000000000000000000000000000000000000000000004832019103120200104126910500700035PENSION OCT 2019 SJL  *
D081777997014  00161879082       2017/159075    ZUMAETA MARAVI  DAVI00000000495000000000000000000000000000000000000000000002602019113020200104126910500700035PENSION NOV 2019 SJL  *
D081777997014  00179336012       2017/158855    ZUMAETA MARAVI  KORI00000000504000000000000000000000000000000000000000000002652019113020200104126910500700036PENSION NOV 2019 SJL  *
D081777997014  00179336012       2017/159570    ZUMAETA MARAVI  KORI00000000504000000000000000000000000000000000000000000001062019122120200104126910500700036PENSION DIC 2019 SJL  *
D081777997014  00174884712       2017/159398    ZUMAETA MARAVI  ANGE00000000270000000000000000000000000000000000000000000001422019113020200104126910500700037PENSION NOV 2019 SJL  *
D081777997014  00174884712       2017/160260    ZUMAETA MARAVI  ANGE00000000270000000000000000000000000000000000000000000000572019122120200104126910500700037PENSION DIC 2019 SJL  *
D081777997014  00177994120       2017/160101    ESPINOZA PINEDO  JOR00000000495000000000000000000000000000000000000000000001042019122120200104127420500700013PENSION DIC 2019 SJL  *
D081777997014  00178731801       2017/159518    ESPINOZA PINEDO  MIA00000000560000000000000000000000000000000000000000000001182019122120200104127420500700014PENSION DIC 2019 SJL  *
D081777997014  00170733059       2017/80015148  AGURTO ROMERO  ROGGE00000000495000000000000000000000000000000000000000000001042019122120200104227844651000192PENSION DIC 2019 CAR  *
D081777997014  00174335266       2017/80014879  AGURTO ROMERO  FERNA00000000495000000000000000000000000000000000000000000001042019122120200104227844651000193PENSION DIC 2019 CAR  *
D081777997014  00177719265       2017/80015096  AGURTO ROMERO  YSABE00000000495000000000000000000000000000000000000000000001042019122120200104227844651000194PENSION DIC 2019 CAR  *
D081777997014  00173051065       2017/160725    BARTOLO ACOSTA  LEON00000000378000000000000000000000000000000000000000000000792019122120200104227844651000201PENSION DIC 2019 SJL  *
D081777997014  00176100393       2017/159614    BARTOLO ACOSTA  NICO00000000385000000000000000000000000000000000000000000000812019122120200104227844651000204PENSION DIC 2019 SJL  *
D081777997014  00170725751       2017/78242486  SILVA JULCA  MIGUEL 00000000576000000000000000000000000000000000000000000001212019122120200104227844651004505PENSION DIC 2019 COL  *
D081777997014  00171471855       2017/160594    VILCA SANCHEZ  FABRI00000000486000000000000000000000000000000000000000000002552019113020200104128890500700009PENSION NOV 2019 SJL  *
D081777997014  00171471855       2017/160686    VILCA SANCHEZ  FABRI00000000486000000000000000000000000000000000000000000001022019122120200104128890500700009PENSION DIC 2019 SJL  *
T081777997014  00101PENSION                       081777997014  000000000995254                                                                                                    *
T081777997014  00102PENSION SAN JUAN              081777997014  000000001031272                                                                                                    *
T081777997014  00103PENSION                       081777997014  000000000148812                                                                                                    *
H081777997014  003000000900000000050760000000000000020200104                                                                                                                       *
D081777997014  00370698552       2017/78244137  MAMANI CORNEJO  OSCA00000000603000000000000000000000000000000000000000000000002020013120200104122470500700006MATRICULA COL         *
D081777997014  00360309379       2017/161528    SANCHEZ MONDRAGON  V00000000513000000000000000000000000000000000000000000000002020013120200104122470500700041INSCRIPCION SJL       *
D081777997014  00372112331       2017/78244138  LOPEZ ROJAS  RUBIT E00000000603000000000000000000000000000000000000000000000002020013120200104122540500700015MATRICULA COL         *
D081777997014  00377313415       2017/78244136  BARBOZA LEON  AUDREY00000000603000000000000000000000000000000000000000000000002020013120200104222540500700051MATRICULA COL         *
D081777997014  00362023746       2017/78244135  BARBOZA LEON  JEAN P00000000603000000000000000000000000000000000000000000000002020013120200104222540500700052MATRICULA COL         *
D081777997014  00377875657       2017/78244132  VILLENA CAMPOS  ESTE00000000522000000000000000000000000000000000000000000000002020013120200104122540500700062MATRICULA COL         *
D081777997014  00375074667       2017/78244127  MOQUILLAZA ROSALES  00000000603000000000000000000000000000000000000000000000002020013120200104122540500700063MATRICULA COL         *
D081777997014  00377856095       2017/161507    MORALES BURGA  LUANA00000000513000000000000000000000000000000000000000000000002020013120200104126910500700012INSCRIPCION SJL       *
D081777997014  00370535423       2017/161538    TICSE FUSTER  LUCIEL00000000513000000000000000000000000000000000000000000000002020013120200104127420500700008INSCRIPCION SJL       *
T081777997014  00304MATRICULA                     081777997014  000000000353700                                                                                                    *
T081777997014  00306MATRICULA SJL - PREMATRICULA  081777997014  000000000153900                                                                                                    *
H081777997014  009000000100000000000600000000000000020200104                                                                                                                       *
D081777997014  00961213853       FF19/2330      TORRES ESPEJO  JUAN 00000000060000000000000000000000000000000000000000000000002019122120200104126910500700045CERT ESTUDIOS SJL DI  *
T081777997014  00954CERT ESTUDIOS SJL             081777997014  000000000006000                                                                                                    *
H081777997014  010000000100000000000300000000000000020200104                                                                                                                       *
D081777997014  01061213853       FF19/2333      TORRES ESPEJO  JUAN 00000000030000000000000000000000000000000000000000000000002019122120200104126910500700046CCIA NO ADEUDOSJL DI  *
T081777997014  01055CCIA NO ADEUDOSJL             081777997014  000000000003000                                                                                                    *
