H081777997014  001000003800000000226921000000000000020200220                                                                                                                       *
D081777997014  00174952217       2017/78240741  HUAYRA TRUJILLO  LEO00000000576000000000000000000000000000000000000000000000002020113020200220120100500700087PENSION NOV 2019 COL  *
D081777997014  00174952217       2017/78241893  HUAYRA TRUJILLO  LEO00000000576000000000000000000000000000000000000000000000002020122120200220120100500700087PENSION DIC 2019 COL  *
D081777997014  00174524503       2017/80013224  NIVIN BADA  SANTIAGO00000000550000000000000000000000000000000000000000000014272019083120200220120200500700039PENSION AGO 2019 CAR  *
D081777997014  00174524503       2017/80013701  NIVIN BADA  SANTIAGO00000000550000000000000000000000000000000000000000000011802019093020200220120200500700039PENSION SEP 2019 CAR  *
D081777997014  00174524503       2017/80014178  NIVIN BADA  SANTIAGO00000000550000000000000000000000000000000000000000000009242019103120200220120200500700039PENSION OCT 2019 CAR  *
D081777997014  00174524503       2017/80014600  NIVIN BADA  SANTIAGO00000000550000000000000000000000000000000000000000000006772019113020200220120200500700039PENSION NOV 2019 CAR  *
D081777997014  00177182862       2017/80009210  QUISPE LUIS  ARIADNE00000000520000000000000000000000000000000000000000000033232018122120200220120210500700012PENSION DIC 2018 CAR  *
D081777997014  00172996940       2017/80014959  OLANO SARMIENTO  KIM00000000540000000000000000000000000000000000000000000004942019122120200220121770500700030PENSION DIC 2019 CAR  *
D081777997014  00161794900       2017/78243046  PALACIOS ARANDA  DIE00000000640000000000000000000000000000000000000000000028422019043020200220122160500700048PENSION ABR 2019 COL  *
D081777997014  00161794900       2017/78243047  PALACIOS ARANDA  DIE00000000640000000000000000000000000000000000000000000025442019053120200220122160500700048PENSION MAY 2019 COL  *
D081777997014  00161794900       2017/78243048  PALACIOS ARANDA  DIE00000000640000000000000000000000000000000000000000000022562019063020200220122160500700048PENSION JUN 2019 COL  *
D081777997014  00161794900       2017/78243049  PALACIOS ARANDA  DIE00000000640000000000000000000000000000000000000000000019582019073120200220122160500700048PENSION JUL 2019 COL  *
D081777997014  00161794900       2017/78243050  PALACIOS ARANDA  DIE00000000640000000000000000000000000000000000000000000016612019083120200220122160500700048PENSION AGO 2019 COL  *
D081777997014  00161794900       2017/78243051  PALACIOS ARANDA  DIE00000000640000000000000000000000000000000000000000000013732019093020200220122160500700048PENSION SEP 2019 COL  *
D081777997014  00161794900       2017/78243052  PALACIOS ARANDA  DIE00000000640000000000000000000000000000000000000000000010752019103120200220122160500700048PENSION OCT 2019 COL  *
D081777997014  00161794900       2017/78243053  PALACIOS ARANDA  DIE00000000640000000000000000000000000000000000000000000007872019113020200220122160500700048PENSION NOV 2019 COL  *
D081777997014  00161794900       2017/78243054  PALACIOS ARANDA  DIE00000000640000000000000000000000000000000000000000000005862019122120200220122160500700048PENSION DIC 2019 COL  *
D081777997014  00162018837       2017/80010910  SALAZAR VILLANUEVA  00000000495000000000000000000000000000000000000000000024212019033120200220222160500700119PENSION MAR 2019 CAR  *
D081777997014  00162018837       2017/80011387  SALAZAR VILLANUEVA  00000000495000000000000000000000000000000000000000000021982019043020200220222160500700119PENSION ABR 2019 CAR  *
D081777997014  00162018837       2017/80011864  SALAZAR VILLANUEVA  00000000495000000000000000000000000000000000000000000019682019053120200220222160500700119PENSION MAY 2019 CAR  *
D081777997014  00162018837       2017/80012341  SALAZAR VILLANUEVA  00000000495000000000000000000000000000000000000000000017452019063020200220222160500700119PENSION JUN 2019 CAR  *
D081777997014  00162018837       2017/80012818  SALAZAR VILLANUEVA  00000000495000000000000000000000000000000000000000000015152019073120200220222160500700119PENSION JUL 2019 CAR  *
D081777997014  00162018837       2017/80015870  SALAZAR VILLANUEVA  00000000550000000000000000000000000000000000000000000014272019083120200220222160500700119PENSION AGO 2019 CAR  *
D081777997014  00162018837       2017/80015871  SALAZAR VILLANUEVA  00000000550000000000000000000000000000000000000000000011802019093020200220222160500700119PENSION SEP 2019 CAR  *
D081777997014  00162018837       2017/80015873  SALAZAR VILLANUEVA  00000000550000000000000000000000000000000000000000000009242019103120200220222160500700119PENSION OCT 2019 CAR  *
D081777997014  00175083798       2017/78238630  SAAVEDRA LUJAN  SEBA00000000640000000000000000000000000000000000000000000013732019093020200220222240500700023PENSION SEP 2019 COL  *
D081777997014  00175083798       2017/78240510  SAAVEDRA LUJAN  SEBA00000000640000000000000000000000000000000000000000000010752019103120200220222240500700023PENSION OCT 2019 COL  *
D081777997014  00175083798       2017/78241080  SAAVEDRA LUJAN  SEBA00000000640000000000000000000000000000000000000000000007872019113020200220222240500700023PENSION NOV 2019 COL  *
D081777997014  00175083798       2017/78242295  SAAVEDRA LUJAN  SEBA00000000640000000000000000000000000000000000000000000005862019122120200220222240500700023PENSION DIC 2019 COL  *
D081777997014  00176502034       2017/78238847  SOLIS SIERRA  DANA M00000000640000000000000000000000000000000000000000000013732019093020200220122540500700047PENSION SEP 2019 COL  *
D081777997014  00176502034       2017/78239492  SOLIS SIERRA  DANA M00000000640000000000000000000000000000000000000000000010752019103120200220122540500700047PENSION OCT 2019 COL  *
D081777997014  00176502034       2017/78241277  SOLIS SIERRA  DANA M00000000640000000000000000000000000000000000000000000007872019113020200220122540500700047PENSION NOV 2019 COL  *
D081777997014  00176502034       2017/78242489  SOLIS SIERRA  DANA M00000000640000000000000000000000000000000000000000000005862019122120200220122540500700047PENSION DIC 2019 COL  *
D081777997014  00178562441       2017/78240603  ESQUIVEL GILES  FLAV00000000560000000000000000000000000000000000000000000006892019113020200220124450500700094PENSION NOV 2019 COL  *
D081777997014  00178562441       2017/78241951  ESQUIVEL GILES  FLAV00000000560000000000000000000000000000000000000000000005122019122120200220124450500700094PENSION DIC 2019 COL  *
D081777997014  00177625360       2017/78235328  MORA BARRIOS  BEILA 00000000560000000000000000000000000000000000000000000019742019063020200220227844651013110PENSION JUN 2019 COL  *
D081777997014  00177625360       2017/78236857  MORA BARRIOS  BEILA 00000000560000000000000000000000000000000000000000000017142019073120200220227844651013137PENSION JUL 2019 COL  *
D081777997014  00172184984       2017/160495    SAAVEDRA AYBAR  CAMI00000000540000000000000000000000000000000000000000000004942019122120200220129470500700070PENSION DIC 2019 SJL  *
T081777997014  00101PENSION                       081777997014  000000001454813                                                                                                    *
T081777997014  00102PENSION SAN JUAN              081777997014  000000000054494                                                                                                    *
T081777997014  00103PENSION                       081777997014  000000000759903                                                                                                    *
H081777997014  003000003100000000179500000000000000020200220                                                                                                                       *
D081777997014  00377934254       2017/162065    FUNDES YECKLE  SILVA00000000570000000000000000000000000000000000000000000000002020022820200220120110500700086MATRICULA SJL         *
D081777997014  00378102146       2017/78244815  ROSALES ALIAGA  MATT00000000580000000000000000000000000000000000000000000000002020022820200220120140500700054MATRICULA COL         *
D081777997014  00378102146       2017/78244817  ROSALES ALIAGA  MATT00000000350000000000000000000000000000000000000000000000002020022820200220120140500700054INSCRIPCION COL       *
D081777997014  00378102155       2017/78244814  ROSALES ALIAGA  MELA00000000580000000000000000000000000000000000000000000000002020022820200220120140500700056MATRICULA COL         *
D081777997014  00378102155       2017/78244816  ROSALES ALIAGA  MELA00000000350000000000000000000000000000000000000000000000002020022820200220120140500700056INSCRIPCION COL       *
D081777997014  00375374344       2017/80016366  MORALES MACEDO  HANN00000000550000000000000000000000000000000000000000000000002020022820200220120210500700033MATRICULA CAR         *
D081777997014  00375374344       2017/80016367  MORALES MACEDO  HANN00000000350000000000000000000000000000000000000000000000002020022820200220120210500700033INSCRIPCION CAR       *
D081777997014  00360919223       2017/78244848  PALACIOS MENDOZA  FR00000000670000000000000000000000000000000000000000000000002020022820200220120700500700081MATRICULA COL         *
D081777997014  00370456563       2017/80016397  GRANADINO ANTUNEZ  O00000000550000000000000000000000000000000000000000000000002020022820200220120810500700097INSCRIPCION CAR       *
D081777997014  00360430009       2017/78244709  TINOCO VILLANUEVA  J00000000670000000000000000000000000000000000000000000000002020022820200220122020500700012MATRICULA COL         *
D081777997014  00377193745       2017/78244842  SALGUERO MOLINA  ABR00000000670000000000000000000000000000000000000000000000002020022820200220122540500700038MATRICULA COL         *
D081777997014  00372431250       2017/78244843  SALGUERO MOLINA  ADR00000000670000000000000000000000000000000000000000000000002020022820200220122540500700039MATRICULA COL         *
D081777997014  00374297593       2017/78244844  CARRASCO SALAZAR  SI00000000670000000000000000000000000000000000000000000000002020022820200220122540500700060MATRICULA COL         *
D081777997014  00377698818       2017/78244827  NINANYA JAIMES  HEYS00000000670000000000000000000000000000000000000000000000002020022820200220122540500700093MATRICULA COL         *
D081777997014  00371177561       2017/78244859  FERNANDEZ HERRERA  C00000000670000000000000000000000000000000000000000000000002020022820200220122540500700094MATRICULA COL         *
D081777997014  00376209136       2017/78244860  REYES BALCAZAR  ANGE00000000670000000000000000000000000000000000000000000000002020022820200220122540500700097MATRICULA COL         *
D081777997014  00360978805       2017/78244845  AYALA HUACHO  ALEXIA00000000670000000000000000000000000000000000000000000000002020022820200220124050500700094MATRICULA COL         *
D081777997014  00371160885       2017/78244830  AGUEDO CIRILO  RODRI00000000670000000000000000000000000000000000000000000000002020022820200220126610500700077MATRICULA COL         *
D081777997014  00371404927       2017/78244831  AGUEDO CIRILO  RICAR00000000670000000000000000000000000000000000000000000000002020022820200220126610500700078MATRICULA COL         *
D081777997014  00374884714       2017/162062    HUAMAN ROJAS  ESTEPH00000000570000000000000000000000000000000000000000000000002020022820200220126860500700001MATRICULA SJL         *
D081777997014  00378579734       2017/162061    HUAMAN ROJAS  ANTUAN00000000570000000000000000000000000000000000000000000000002020022820200220126860500700002MATRICULA SJL         *
D081777997014  00377121552       2017/162045    JIMENEZ MAMANI  VANI00000000570000000000000000000000000000000000000000000000002020022820200220126910500700002MATRICULA SJL         *
D081777997014  00373925288       2017/162039    DELGADO FERNANDEZ  B00000000570000000000000000000000000000000000000000000000002020022820200220126910500700038MATRICULA SJL         *
D081777997014  00379115862       2017/161981    GARMA BENITES  MARLO00000000570000000000000000000000000000000000000000000000002020022820200220126910500700065MATRICULA SJL         *
D081777997014  00377368906       2017/80016348  DIAZ SALAS  BRIANA A00000000560000000000000000000000000000000000000000000000002020022820200220127020500700030INSCRIPCION CAR       *
D081777997014  00379758296       2017/80016305  DIAZ SALAS  SAMANTHA00000000570000000000000000000000000000000000000000000000002020022820200220127020500700031MATRICULA CAR         *
D081777997014  00379758296       2017/80016306  DIAZ SALAS  SAMANTHA00000000350000000000000000000000000000000000000000000000002020022820200220127020500700031INSCRIPCION CAR       *
D081777997014  00361844705       2017/162036    RODRIGUEZ GOMEZ  GUI00000000570000000000000000000000000000000000000000000000002020022820200220127420500700027MATRICULA SJL         *
D081777997014  00378157623       2017/80016312  ESPINOZA SULCA  ALME00000000560000000000000000000000000000000000000000000000002020022820200220227844651010856MATRICULA CAR         *
D081777997014  00372655524       2017/78244773  SOSA ALVARADO  LUIS 00000000670000000000000000000000000000000000000000000000002020022820200220129470500700004MATRICULA COL         *
D081777997014  00361423315       2017/161996    CORILLA SAIRITUPAC  00000000570000000000000000000000000000000000000000000000002020022820200220129470500700177MATRICULA SJL         *
T081777997014  00304MATRICULA                     081777997014  000000000920000                                                                                                    *
T081777997014  00305DERECHO DE INGRESO COL        081777997014  000000000070000                                                                                                    *
T081777997014  00306MATRICULA SJL 2020            081777997014  000000000456000                                                                                                    *
T081777997014  00308MATRICULA 2020 CARABAYLLO     081777997014  000000000279000                                                                                                    *
T081777997014  00309DERECHO DE INGRESO 2020 CARABA081777997014  000000000070000                                                                                                    *
H081777997014  009000000400000000002400000000000000020200220                                                                                                                       *
D081777997014  00974878073       FF20/521       RODRIGUEZ CHALLCO  A00000000060000000000000000000000000000000000000000000000002020022820200220121830500700030CERT ESTUDIOS SJL FE  *
D081777997014  00976742785       FF20/568       NORENA PAREDES  STEP00000000060000000000000000000000000000000000000000000000002020022820200220126860500700004CERT ESTUDIOS SJL FE  *
D081777997014  00971407576       FF20/553       BRANES BRANES  ANTON00000000060000000000000000000000000000000000000000000000002020022820200220126910500700078CERT ESTUDIOS SJL FE  *
D081777997014  00962332723       FF20/552       CHURA JORGE  NOEMI K00000000060000000000000000000000000000000000000000000000002020022820200220127420500700012CERT ESTUDIOS SJL FE  *
T081777997014  00963CERT ESTUDIOS SJL             081777997014  000000000024000                                                                                                    *
H081777997014  012000000100000000000300000000000000020200220                                                                                                                       *
D081777997014  01270596810       FF20/334       SUSANIBAR FLOR  ARIA00000000030000000000000000000000000000000000000000000000002020013120200220227844671000016PRA ACAD CARABAYLLO   *
T081777997014  01210PRA ACAD CARABAYLLO           081777997014  000000000003000                                                                                                    *
