H081777997014  001000003000000000176228900000000000020200117                                                                                                                       *
D081777997014  00171147598       2017/80015112  PALOMINO DELGADO  AR00000000550000000000000000000000000000000000000000000002232019122120200117220190500700091PENSION DIC 2019 CAR  *
D081777997014  00177605862       2017/157976    BARNECHEA PUSCAN  GU00000000550000000000000000000000000000000000000000000006442019103120200117120400500700069PENSION OCT 2019 SJL  *
D081777997014  00177605862       2017/159158    BARNECHEA PUSCAN  GU00000000550000000000000000000000000000000000000000000003962019113020200117120400500700070PENSION NOV 2019 SJL  *
D081777997014  00173914427       2017/80014632  SALAZAR SANTILLAN  A00000000550000000000000000000000000000000000000000000003962019113020200117121830500700015PENSION NOV 2019 CAR  *
D081777997014  00173914427       2017/80015054  SALAZAR SANTILLAN  A00000000550000000000000000000000000000000000000000000002232019122120200117121830500700015PENSION DIC 2019 CAR  *
D081777997014  00170588717       2017/78240101  VASQUEZ ANGELES  ARI00000000640000000000000000000000000000000000000000000007492019103120200117222540500700025PENSION OCT 2019 COL  *
D081777997014  00170588717       2017/78240655  VASQUEZ ANGELES  ARI00000000640000000000000000000000000000000000000000000004612019113020200117222540500700025PENSION NOV 2019 COL  *
D081777997014  00170588717       2017/78241751  VASQUEZ ANGELES  ARI00000000640000000000000000000000000000000000000000000002592019122120200117222540500700025PENSION DIC 2019 COL  *
D081777997014  00177642740       FF19/1784      MARTINEZ ZAVALETA  L00000000560000000000000000000000000000000000000000000004032019113020200117222540500700097PENSION NOV 2019 COL  *
D081777997014  00170708392       2017/78231141  ROJAS JUAREZ  ANDRES00000000640000000000000000000000000000000000000000000028032019033120200117122540500700109PENSION MAR 2019 COL  *
D081777997014  00170708392       2017/78232355  ROJAS JUAREZ  ANDRES00000000640000000000000000000000000000000000000000000025152019043020200117122540500700109PENSION ABR 2019 COL  *
D081777997014  00170708392       2017/78233675  ROJAS JUAREZ  ANDRES00000000640000000000000000000000000000000000000000000022182019053120200117122540500700109PENSION MAY 2019 COL  *
D081777997014  00170708392       2017/78234454  ROJAS JUAREZ  ANDRES00000000640000000000000000000000000000000000000000000019302019063020200117122540500700109PENSION JUN 2019 COL  *
D081777997014  00170708392       2017/78236073  ROJAS JUAREZ  ANDRES00000000640000000000000000000000000000000000000000000016322019073120200117122540500700109PENSION JUL 2019 COL  *
D081777997014  00170708392       2017/78237288  ROJAS JUAREZ  ANDRES00000000640000000000000000000000000000000000000000000013342019083120200117122540500700109PENSION AGO 2019 COL  *
D081777997014  00170708392       2017/78238373  ROJAS JUAREZ  ANDRES00000000640000000000000000000000000000000000000000000010462019093020200117122540500700109PENSION SEP 2019 COL  *
D081777997014  00170708392       2017/78240290  ROJAS JUAREZ  ANDRES00000000640000000000000000000000000000000000000000000007492019103120200117122540500700109PENSION OCT 2019 COL  *
D081777997014  00170708392       2017/78240832  ROJAS JUAREZ  ANDRES00000000640000000000000000000000000000000000000000000004612019113020200117122540500700109PENSION NOV 2019 COL  *
D081777997014  00174563215       2017/78238564  FERNANDEZ ENCISO  SE00000000640000000000000000000000000000000000000000000010462019093020200117123720500700064PENSION SEP 2019 COL  *
D081777997014  00161044423       2017/160376    ROSALES ALARCON  ALE00000000540000000000000000000000000000000000000000000002192019122120200117126860500700001PENSION DIC 2019 SJL  *
D081777997014  00161773933       2017/80015905  JULON CUBAS  NELLY E00000000440000000000000000000000000000000000000000000005152019103120200117127020500700056PENSION OCT 2019 CAR  *
D081777997014  00161773933       2017/80015906  JULON CUBAS  NELLY E00000000440000000000000000000000000000000000000000000003172019113020200117127020500700056PENSION NOV 2019 CAR  *
D081777997014  00161211586       2017/80015909  JULON CUBAS  PATRICK00000000440000000000000000000000000000000000000000000005152019103120200117127020500700058PENSION OCT 2019 CAR  *
D081777997014  00161211586       2017/80015910  JULON CUBAS  PATRICK00000000440000000000000000000000000000000000000000000003172019113020200117127020500700058PENSION NOV 2019 CAR  *
D081777997014  00160780878       2017/157284    BRAVO DAVILA  MILAGR00000000540000000000000000000000000000000000000000000008832019093020200117127420500700056PENSION SEP 2019 SJL  *
D081777997014  00160780878       2017/158327    BRAVO DAVILA  MILAGR00000000540000000000000000000000000000000000000000000006322019103120200117127420500700056PENSION OCT 2019 SJL  *
D081777997014  00160780878       2017/158487    BRAVO DAVILA  MILAGR00000000540000000000000000000000000000000000000000000003892019113020200117127420500700056PENSION NOV 2019 SJL  *
D081777997014  00160780878       2017/160371    BRAVO DAVILA  MILAGR00000000540000000000000000000000000000000000000000000002192019122120200117127420500700056PENSION DIC 2019 SJL  *
D081777997014  00175375628       2017/78238294  CHUMIOQUE HIDALGO  A00000000640000000000000000000000000000000000000000000010462019093020200117227844651002769PENSION SEP 2019 COL  *
D081777997014  00175375628       2017/78240162  CHUMIOQUE HIDALGO  A00000000640000000000000000000000000000000000000000000007492019103120200117227844651002778PENSION OCT 2019 COL  *
T081777997014  00101PENSION                       081777997014  000000001035401                                                                                                    *
T081777997014  00102PENSION SAN JUAN              081777997014  000000000383382                                                                                                    *
T081777997014  00103PENSION                       081777997014  000000000343506                                                                                                    *
H081777997014  003000001400000000071700000000000000020200117                                                                                                                       *
D081777997014  00377754079       2017/78244331  CAUTE PEREZ  DAMARYS00000000580000000000000000000000000000000000000000000000002020013120200117120110500700051MATRICULA COL         *
D081777997014  00377754079       2017/78244332  CAUTE PEREZ  DAMARYS00000000350000000000000000000000000000000000000000000000002020013120200117120110500700051INSCRIPCION COL       *
D081777997014  00362720036       2017/78244402  VILLAVICENCIO PORTUG00000000670000000000000000000000000000000000000000000000002020013120200117120670500700011MATRICULA COL         *
D081777997014  00377970644       2017/80016173  BLAS APONTE  MARIA F00000000560000000000000000000000000000000000000000000000002020010420200117121350500700059MATRICULA CAR         *
D081777997014  00360854041       2017/78244409  RODRIGUEZ MUNOZ  ANA00000000670000000000000000000000000000000000000000000000002020013120200117122210500700031MATRICULA COL         *
D081777997014  00360854041       2017/78244410  RODRIGUEZ MUNOZ  ANA00000000350000000000000000000000000000000000000000000000002020013120200117122210500700031INSCRIPCION COL       *
D081777997014  00377630613       2017/78244382  ALCANTARA BAJONERO  00000000670000000000000000000000000000000000000000000000002020013120200117126610500700072MATRICULA COL         *
D081777997014  00377630613       2017/78244383  ALCANTARA BAJONERO  00000000350000000000000000000000000000000000000000000000002020013120200117126610500700072INSCRIPCION COL       *
D081777997014  00379972965       2017/161757    POTENCIANO BURGOS  D00000000570000000000000000000000000000000000000000000000002020013120200117126860500700003MATRICULA SJL         *
D081777997014  00379972965       2017/161758    POTENCIANO BURGOS  D00000000350000000000000000000000000000000000000000000000002020013120200117126860500700003INSCRIPCION SJL       *
D081777997014  00370596427       2017/161776    ROBLES RAMIREZ  GABR00000000570000000000000000000000000000000000000000000000002020013120200117126910500700035MATRICULA SJL         *
D081777997014  00371056075       2017/161765    CORREA SUAREZ  ERICK00000000570000000000000000000000000000000000000000000000002020013120200117126910500700054MATRICULA SJL         *
D081777997014  00377617861       2017/80016207  RUPAY MISIYAURI  DIE00000000560000000000000000000000000000000000000000000000002020013120200117227844651012011MATRICULA CAR         *
D081777997014  00377617861       2017/80016208  RUPAY MISIYAURI  DIE00000000350000000000000000000000000000000000000000000000002020013120200117227844651012012INSCRIPCION CAR       *
T081777997014  00304MATRICULA                     081777997014  000000000259000                                                                                                    *
T081777997014  00305DERECHO DE INGRESO COL        081777997014  000000000105000                                                                                                    *
T081777997014  00306MATRICULA SJL 2020            081777997014  000000000171000                                                                                                    *
T081777997014  00307DERECHO DE INGRESO SJL 2018   081777997014  000000000035000                                                                                                    *
T081777997014  00308MATRICULA 2020 CARABAYLLO     081777997014  000000000112000                                                                                                    *
T081777997014  00309DERECHO DE INGRESO 2020 CARABA081777997014  000000000035000                                                                                                    *
H081777997014  008000000100000000000250000000000000020200117                                                                                                                       *
D081777997014  00870481791       FF20/191       CABALLERO CHAVEZ  KE00000000025000000000000000000000000000000000000000000000002020013120200117120210500700008CERT CONDUCTA CAR EN  *
T081777997014  00898CERT CONDUCTA CAR             081777997014  000000000002500                                                                                                    *
H081777997014  009000000600000000003600000000000000020200117                                                                                                                       *
D081777997014  00974094776       FF20/171       SARMIENTO LEON  YAMI00000000060000000000000000000000000000000000000000000000002020013120200117120100500700075CERT ESTUDIOS CAR EN  *
D081777997014  00975125644       FF20/189       GARCIA MUNOZ  DAVOR 00000000060000000000000000000000000000000000000000000000002020013120200117120920500700062CERT ESTUDIOS CAR EN  *
D081777997014  00977721233       FF20/195       CHILENO PANTOJA  SAN00000000060000000000000000000000000000000000000000000000002020013120200117121110500700036CERT ESTUDIOS SJL EN  *
D081777997014  00973091176       FF20/163       GUERRERO VARGAS  ALV00000000060000000000000000000000000000000000000000000000002020013120200117122470500700036CERT ESTUDIOS SJL EN  *
D081777997014  00974330524       FF20/185       ROJAS TALAVERA  RAFA00000000060000000000000000000000000000000000000000000000002020013120200117227844651005823CERT ESTUDIO COL ENE  *
D081777997014  00979251764       FF20/181       ROJAS TALAVERA  LEON00000000060000000000000000000000000000000000000000000000002020013120200117227844651005878CERT ESTUDIO COL ENE  *
T081777997014  00929CERT ESTUDIO-COL              081777997014  000000000012000                                                                                                    *
T081777997014  00963CERT ESTUDIOS SJL             081777997014  000000000012000                                                                                                    *
T081777997014  00999CERT ESTUDIOS-CAR             081777997014  000000000012000                                                                                                    *
H081777997014  010000000200000000000600000000000000020200117                                                                                                                       *
D081777997014  01074330524       FF20/184       ROJAS TALAVERA  RAFA00000000030000000000000000000000000000000000000000000000002020013120200117227844651005788CCIA NO ADEUDO COL E  *
D081777997014  01079251764       FF20/180       ROJAS TALAVERA  LEON00000000030000000000000000000000000000000000000000000000002020013120200117227844651005857CCIA NO ADEUDO COL E  *
T081777997014  01028CCIA NO ADEUDO COL            081777997014  000000000006000                                                                                                    *
H081777997014  012000000100000000000300000000000000020200117                                                                                                                       *
D081777997014  01262332723       FF20/159       CHURA JORGE  NOEMI K00000000030000000000000000000000000000000000000000000000002020013120200117127420500700026PRA ACAD SJL ENE 202  *
T081777997014  01266PRA ACAD SJL                  081777997014  000000000003000                                                                                                    *
