H081777997014  001000006500000000372504900000000000020200102                                                                                                                       *
D081777997014  00160797726       2017/78241151  CACERES ELIZALDE  KI00000000640000000000000000000000000000000000000000000003172019113020200102120100500700072PENSION NOV 2019 COL  *
D081777997014  00160797726       2017/78242338  CACERES ELIZALDE  KI00000000640000000000000000000000000000000000000000000001152019122120200102120100500700072PENSION DIC 2019 COL  *
D081777997014  00176885026       2017/157812    GRANDEZ LAZO  CAMILA00000000550000000000000000000000000000000000000000000005202019103120200102120110500700043PENSION OCT 2019 SJL  *
D081777997014  00176885026       2017/158890    GRANDEZ LAZO  CAMILA00000000550000000000000000000000000000000000000000000002722019113020200102120110500700043PENSION NOV 2019 SJL  *
D081777997014  00176885026       2017/159842    GRANDEZ LAZO  CAMILA00000000550000000000000000000000000000000000000000000000992019122120200102120110500700043PENSION DIC 2019 SJL  *
D081777997014  00173405796       2017/80015140  DEL AGUILA GOMEZ  SE00000000550000000000000000000000000000000000000000000000992019122120200102120210500700039PENSION DIC 2019 CAR  *
D081777997014  00175325385       2017/80014911  AVELLANEDA CERRON  O00000000540000000000000000000000000000000000000000000000972019122120200102220210500700110PENSION DIC 2019 CAR  *
D081777997014  00177780768       2017/78233190  FRANCO VASQUEZ  ANAH00000000560000000000000000000000000000000000000000000020752019043020200102120350500700115PENSION ABR 2019 COL  *
D081777997014  00160892799       2017/159438    PORTUGAL DE LA  CRUZ00000000540000000000000000000000000000000000000000000002672019113020200102120520500700022PENSION NOV 2019 SJL  *
D081777997014  00160892799       2017/160300    PORTUGAL DE LA  CRUZ00000000540000000000000000000000000000000000000000000000972019122120200102120520500700022PENSION DIC 2019 SJL  *
D081777997014  00172061644       2017/80015210  GUERRERO LAUREANO  C00000000495000000000000000000000000000000000000000000000892019122120200102120580500700066PENSION DIC 2019 CAR  *
D081777997014  00174103584       2017/80014884  GUERRERO LAUREANO  K00000000495000000000000000000000000000000000000000000000892019122120200102120580500700067PENSION DIC 2019 CAR  *
D081777997014  00173239442       2017/78241895  DAVILA GUILLEN  FABR00000000640000000000000000000000000000000000000000000001152019122120200102120600500700086PENSION DIC 2019 COL  *
D081777997014  00174101636       2017/78242160  ROJAS RIVAS  LUIS FE00000000640000000000000000000000000000000000000000000001152019122120200102122160500700150PENSION DIC 2019 COL  *
D081777997014  00176234393       2017/78243392  SEMINARIO RAMIREZ  A00000000640000000000000000000000000000000000000000000001152019122120200102122160500700162PENSION DIC 2019 COL  *
D081777997014  00178065537       2017/78241641  SEMINARIO RAMIREZ  S00000000560000000000000000000000000000000000000000000002772019113020200102122160500700163PENSION NOV 2019 COL  *
D081777997014  00177882445       2017/78242888  ALVARADO GAMARRA  NI00000000560000000000000000000000000000000000000000000001012019122120200102122160500700217PENSION DIC 2019 COL  *
D081777997014  00162579717       2017/159066    RODRIGUEZ CHALLCO  J00000000550000000000000000000000000000000000000000000002722019113020200102122470500700025PENSION NOV 2019 SJL  *
D081777997014  00174878073       2017/158526    RODRIGUEZ CHALLCO  A00000000486000000000000000000000000000000000000000000002412019113020200102122470500700026PENSION NOV 2019 SJL  *
D081777997014  00174878073       2017/160432    RODRIGUEZ CHALLCO  A00000000486000000000000000000000000000000000000000000000872019122120200102122470500700132PENSION DIC 2019 SJL  *
D081777997014  00162579717       2017/159919    RODRIGUEZ CHALLCO  J00000000550000000000000000000000000000000000000000000000992019122120200102122470500700133PENSION DIC 2019 SJL  *
D081777997014  00161009459       2017/78241814  LEVIS CUYUBAMBA  MAU00000000640000000000000000000000000000000000000000000001152019122120200102122480500700049PENSION DIC 2019 COL  *
D081777997014  00172477541       2017/78242215  MAGUINA FAJARDO  NAY00000000640000000000000000000000000000000000000000000001152019122120200102122480500700122PENSION DIC 2019 COL  *
D081777997014  00172595757       2017/78241415  DAVILA HUAMANI  RODO00000000640000000000000000000000000000000000000000000003172019113020200102122510500700029PENSION NOV 2019 COL  *
D081777997014  00177479273       2017/78241878  HUAMANTINGO ROMAN  M00000000640000000000000000000000000000000000000000000001152019122120200102122540500700013PENSION DIC 2019 COL  *
D081777997014  00172869314       2017/78241158  VALLE CAMPOS  ANDRE 00000000640000000000000000000000000000000000000000000003172019113020200102122540500700030PENSION NOV 2019 COL  *
D081777997014  00179366729       2017/78240710  IZAGUIRRE CCOYCCA  G00000000560000000000000000000000000000000000000000000002772019113020200102122540500700101PENSION NOV 2019 COL  *
D081777997014  00179366729       2017/78241829  IZAGUIRRE CCOYCCA  G00000000560000000000000000000000000000000000000000000001012019122120200102122540500700101PENSION DIC 2019 COL  *
D081777997014  00173407305       2017/78241580  IZAGUIRRE CCOYCCA  M00000000576000000000000000000000000000000000000000000002852019113020200102122540500700102PENSION NOV 2019 COL  *
D081777997014  00173407305       2017/78242798  IZAGUIRRE CCOYCCA  M00000000576000000000000000000000000000000000000000000001042019122120200102122540500700102PENSION DIC 2019 COL  *
D081777997014  00173210458       2017/78241794  PENA MUNSIBAY  FRANC00000000640000000000000000000000000000000000000000000001152019122120200102126310500700015PENSION DIC 2019 COL  *
D081777997014  00174694520       2017/78242376  SULLCA SANCHEZ  VANE00000000640000000000000000000000000000000000000000000001152019122120200102226610500700162PENSION DIC 2019 COL  *
D081777997014  00175385572       2017/80009607  VARA BARLETTI  GONZA00000000510000000000000000000000000000000000000000000030452018113020200102126610500700165PENSION NOV 2018 CAR  *
D081777997014  00175385572       2017/80009608  VARA BARLETTI  GONZA00000000510000000000000000000000000000000000000000000028842018122120200102126610500700165PENSION DIC 2018 CAR  *
D081777997014  00178424753       2017/158821    RAMOS BURGOS  MATEO 00000000560000000000000000000000000000000000000000000002772019113020200102126860500700003PENSION NOV 2019 SJL  *
D081777997014  00178424753       2017/159758    RAMOS BURGOS  MATEO 00000000560000000000000000000000000000000000000000000001012019122120200102126860500700003PENSION DIC 2019 SJL  *
D081777997014  00170703770       2017/159755    PALACIOS YANGALI  VE00000000550000000000000000000000000000000000000000000000992019122120200102126910500700026PENSION DIC 2019 SJL  *
D081777997014  00173565975       2017/158066    RIVERA SOTO  XIOMARA00000000550000000000000000000000000000000000000000000005202019103120200102126910500700043PENSION OCT 2019 SJL  *
D081777997014  00173565975       2017/159219    RIVERA SOTO  XIOMARA00000000550000000000000000000000000000000000000000000002722019113020200102126910500700043PENSION NOV 2019 SJL  *
D081777997014  00173565975       2017/160084    RIVERA SOTO  XIOMARA00000000550000000000000000000000000000000000000000000000992019122120200102126910500700043PENSION DIC 2019 SJL  *
D081777997014  00162644469       2017/156516    RODRIGUEZ SANCHEZ  R00000000550000000000000000000000000000000000000000000007762019093020200102126910500700050PENSION SEP 2019 SJL  *
D081777997014  00162644469       2017/157670    RODRIGUEZ SANCHEZ  R00000000550000000000000000000000000000000000000000000005202019103120200102126910500700050PENSION OCT 2019 SJL  *
D081777997014  00162644469       2017/158642    RODRIGUEZ SANCHEZ  R00000000550000000000000000000000000000000000000000000002722019113020200102126910500700050PENSION NOV 2019 SJL  *
D081777997014  00162644469       2017/159607    RODRIGUEZ SANCHEZ  R00000000550000000000000000000000000000000000000000000000992019122120200102126910500700050PENSION DIC 2019 SJL  *
D081777997014  00173537662       2017/154856    PIZZINO CUBAS  DAPHN00000000540000000000000000000000000000000000000000000012562019073120200102126910500700057PENSION JUL 2019 SJL  *
D081777997014  00172552558       2017/80015779  NANEZ LINARES  HAROL00000000540000000000000000000000000000000000000000000000972019122120200102127020500700063PENSION DIC 2019 CAR  *
D081777997014  00170528500       2017/158477    MONTORO CONDORI  JUL00000000540000000000000000000000000000000000000000000002672019113020200102227844651007385PENSION NOV 2019 SJL  *
D081777997014  00170528500       2017/160361    MONTORO CONDORI  JUL00000000540000000000000000000000000000000000000000000000972019122120200102227844651007387PENSION DIC 2019 SJL  *
D081777997014  00161454243       2017/153855    MONROY ESTEBAN  ADRI00000000550000000000000000000000000000000000000000000015352019063020200102227844651008482PENSION JUN 2019 SJL  *
D081777997014  00178525427       2017/159771    ACUACHI DAMIAN  MELO00000000560000000000000000000000000000000000000000000001012019122120200102227844651011884PENSION DIC 2019 SJL  *
D081777997014  00177376028       2017/78236620  MAGALLANES FAILOC  S00000000560000000000000000000000000000000000000000000013022019073120200102227844651020873PENSION JUL 2019 COL  *
D081777997014  00177376028       2017/78237907  MAGALLANES FAILOC  S00000000560000000000000000000000000000000000000000000010422019083120200102227844651020923PENSION AGO 2019 COL  *
D081777997014  00177376028       2017/78239049  MAGALLANES FAILOC  S00000000560000000000000000000000000000000000000000000007902019093020200102227844651020965PENSION SEP 2019 COL  *
D081777997014  00161931686       2017/78239159  CUELLAR VELAOCHAGA  00000000640000000000000000000000000000000000000000000009022019093020200102227844651021637PENSION SEP 2019 COL  *
D081777997014  00161931686       2017/78239809  CUELLAR VELAOCHAGA  00000000640000000000000000000000000000000000000000000006052019103120200102227844651021638PENSION OCT 2019 COL  *
D081777997014  00161931686       2017/78241586  CUELLAR VELAOCHAGA  00000000640000000000000000000000000000000000000000000003172019113020200102227844651021639PENSION NOV 2019 COL  *
D081777997014  00161931686       2017/78242804  CUELLAR VELAOCHAGA  00000000640000000000000000000000000000000000000000000001152019122120200102227844651021640PENSION DIC 2019 COL  *
D081777997014  00178496209       2017/160875    RIMAC QUISPE  CIELO 00000000560000000000000000000000000000000000000000000002772019113020200102227844651025202PENSION NOV 2019 SJL  *
D081777997014  00178496209       2017/160876    RIMAC QUISPE  CIELO 00000000560000000000000000000000000000000000000000000001012019122120200102227844651025203PENSION DIC 2019 SJL  *
D081777997014  00173222200       2017/78242007  JOHNSON AVALOS  LILI00000000640000000000000000000000000000000000000000000001152019122120200102128600500700021PENSION DIC 2019 COL  *
D081777997014  00178450390       2017/158852    JAVIER PEREZ  DIEGO 00000000560000000000000000000000000000000000000000000002772019113020200102128850500700001PENSION NOV 2019 SJL  *
D081777997014  00178450390       2017/159567    JAVIER PEREZ  DIEGO 00000000560000000000000000000000000000000000000000000001012019122120200102128850500700001PENSION DIC 2019 SJL  *
D081777997014  00173402632       2017/158708    JAVIER PEREZ  DANIEL00000000495000000000000000000000000000000000000000000002452019113020200102128850500700003PENSION NOV 2019 SJL  *
D081777997014  00173402632       2017/159672    JAVIER PEREZ  DANIEL00000000495000000000000000000000000000000000000000000000892019122120200102128850500700004PENSION DIC 2019 SJL  *
D081777997014  00161217164       2017/80014216  MORILLO MAS  GONZALO00000000550000000000000000000000000000000000000000000005202019103120200102129470500700044PENSION OCT 2019 CAR  *
T081777997014  00101PENSION                       081777997014  000000001661594                                                                                                    *
T081777997014  00102PENSION SAN JUAN              081777997014  000000001637535                                                                                                    *
T081777997014  00103PENSION                       081777997014  000000000425920                                                                                                    *
H081777997014  003000002100000000112170000000000000020200102                                                                                                                       *
D081777997014  00371178133       2017/161473    BAQUERIZO SILVA  OSW00000000513000000000000000000000000000000000000000000000002019122120200102120530500700009MATRICULA SJL         *
D081777997014  00372154232       2017/161472    JACINTO PAJUELO  SEB00000000513000000000000000000000000000000000000000000000002019122120200102120580500700019MATRICULA SJL         *
D081777997014  00362774760       2017/161461    PAREDES REQUENA  AMY00000000513000000000000000000000000000000000000000000000002019122120200102120790500700042MATRICULA SJL         *
D081777997014  00379251434       2017/161460    PAREDES REQUENA  HEC00000000513000000000000000000000000000000000000000000000002019122120200102120790500700043MATRICULA SJL         *
D081777997014  00377576187       2017/78244066  PAREDES MEJIA  SAORI00000000603000000000000000000000000000000000000000000000002019122120200102221770500700061MATRICULA COL         *
D081777997014  00370727154       2017/78244010  GONZALES HEREDIA  LA00000000670000000000000000000000000000000000000000000000002019122120200102222310500700092MATRICULA COL         *
D081777997014  00370727154       2017/78244011  GONZALES HEREDIA  LA00000000350000000000000000000000000000000000000000000000002019122120200102222310500700092INSCRIPCION COL       *
D081777997014  00377882747       2017/161459    PONCE PARIONA  STEFA00000000513000000000000000000000000000000000000000000000002019122120200102122470500700022MATRICULA SJL         *
D081777997014  00377365589       2017/78244068  BEGAZO VEGA  GABRIEL00000000603000000000000000000000000000000000000000000000002019122120200102122540500700047MATRICULA COL         *
D081777997014  00375083679       2017/78244067  BEGAZO VEGA  GUILLER00000000603000000000000000000000000000000000000000000000002019122120200102122540500700049MATRICULA COL         *
D081777997014  00361058373       2017/78244118  GUERRERO MEDINA  ANG00000000603000000000000000000000000000000000000000000000002020013120200102222540500700072MATRICULA COL         *
D081777997014  00376051246       2017/78244112  DIAZ SOLANO  MIREYA 00000000603000000000000000000000000000000000000000000000002019122120200102122540500700094MATRICULA COL         *
D081777997014  00371358718       2017/161471    BAZAN ARCE  LEONARDO00000000513000000000000000000000000000000000000000000000002019122120200102126860500700004MATRICULA SJL         *
D081777997014  00372722205       2017/161499    RUIZ MAURTUA  GABRIE00000000513000000000000000000000000000000000000000000000002020013120200102226910500700085INSCRIPCION SJL       *
D081777997014  00370637666       2017/161498    RUIZ MAURTUA  DIEGO 00000000513000000000000000000000000000000000000000000000002020013120200102226910500700086INSCRIPCION SJL       *
D081777997014  00360574978       2017/161470    VILLANUEVA BARRA  KY00000000513000000000000000000000000000000000000000000000002019122120200102126910500700096MATRICULA SJL         *
D081777997014  00378044717       2017/161469    VILLANUEVA BARRA  JO00000000513000000000000000000000000000000000000000000000002019122120200102126910500700098MATRICULA SJL         *
D081777997014  00372287390       2017/161480    OBLITAS ALVAREZ  LUI00000000513000000000000000000000000000000000000000000000002019122120200102127420500700050MATRICULA SJL         *
D081777997014  00378575898       2017/161441    MINAYA CORDOVA  KARL00000000513000000000000000000000000000000000000000000000002019122120200102227844651004170MATRICULA SJL         *
D081777997014  00373892735       2017/161442    MINAYA CORDOVA  MARI00000000513000000000000000000000000000000000000000000000002019122120200102227844651004189MATRICULA SJL         *
D081777997014  00372831324       2017/161486    FERNANDEZ TAPARA  JU00000000513000000000000000000000000000000000000000000000002020013120200102227844651022750INSCRIPCION SJL       *
T081777997014  00304MATRICULA                     081777997014  000000000368500                                                                                                    *
T081777997014  00305DERECHO DE INGRESO LIM 2018   081777997014  000000000035000                                                                                                    *
T081777997014  00306MATRICULA SJL - PREMATRICULA  081777997014  000000000718200                                                                                                    *
H081777997014  009000000500000000003000000000000000020200102                                                                                                                       *
D081777997014  00970481791       FF19/2338      CABALLERO CHAVEZ  KE00000000060000000000000000000000000000000000000000000000002019122120200102120700500700039CERT ESTUDIOS CAR DI  *
D081777997014  00961253014       FF19/2445      CHAVARRIA CENTENARO 00000000060000000000000000000000000000000000000000000000002019122120200102122160500700172CERT ESTUDIO COL DIC  *
D081777997014  00946735667       FF20/2         SAICO SOLIS  NATALY 00000000060000000000000000000000000000000000000000000000002020013120200102122390500700105CERT ESTUDIO COL ENE  *
D081777997014  00977169321       FF19/2401      CASTILLO SOLANO  ABE00000000060000000000000000000000000000000000000000000000002019122120200102126860500700001CERT ESTUDIOS SJL DI  *
D081777997014  00961291874       FF19/2400      CASTILLO SOLANO  SEB00000000060000000000000000000000000000000000000000000000002019122120200102126860500700002CERT ESTUDIOS SJL DI  *
T081777997014  00925CERT ESTUDIO-COL              081777997014  000000000006000                                                                                                    *
T081777997014  00929CERT ESTUDIO-COL              081777997014  000000000006000                                                                                                    *
T081777997014  00954CERT ESTUDIOS SJL             081777997014  000000000012000                                                                                                    *
T081777997014  00985CERT ESTUDIOS-CAR             081777997014  000000000006000                                                                                                    *
H081777997014  012000000200000000001200000000000000020200102                                                                                                                       *
D081777997014  01261107849       FF19/2421      CUBAS MEJIA  JIAMPIE00000000090000000000000000000000000000000000000000000000002019122120200102221770500700062PRA ACAD COLONIAL DI  *
D081777997014  01260772939       FF19/2424      LEON REATEGUI  ADRIA00000000030000000000000000000000000000000000000000000000002019122120200102227844651001729PRA ACAD SJL DIC 201  *
T081777997014  01228PRA ACAD COLONIAL             081777997014  000000000009000                                                                                                    *
T081777997014  01257PRA ACAD SJL                  081777997014  000000000003000                                                                                                    *
