H081777997014  001000003700000000209441800000000000020200124                                                                                                                       *
D081777997014  00161217164       2017/80014693  MORILLO MAS  GONZALO00000000550000000000000000000000000000000000000000000004542019113020200124120210500700034PENSION NOV 2019 CAR  *
D081777997014  00161217164       2017/80015174  MORILLO MAS  GONZALO00000000550000000000000000000000000000000000000000000002812019122120200124120210500700034PENSION DIC 2019 CAR  *
D081777997014  00170955590       2017/80015144  ORTIZ ESQUIVEL  GABR00000000550000000000000000000000000000000000000000000002812019122120200124120210500700070PENSION DIC 2019 CAR  *
D081777997014  00179126197       2017/155416    VALENCIA GALVEZ  AMI00000000560000000000000000000000000000000000000000000012262019083120200124121830500700013PENSION AGO 2019 SJL  *
D081777997014  00177514902       2017/78239655  CARPIO PANIBRA  EDWA00000000560000000000000000000000000000000000000000000007142019103120200124122310500700033PENSION OCT 2019 COL  *
D081777997014  00177514902       2017/78241440  CARPIO PANIBRA  EDWA00000000560000000000000000000000000000000000000000000004622019113020200124122310500700033PENSION NOV 2019 COL  *
D081777997014  00177514902       2017/78242660  CARPIO PANIBRA  EDWA00000000560000000000000000000000000000000000000000000002862019122120200124122310500700033PENSION DIC 2019 COL  *
D081777997014  00161225870       2017/78241157  CARPIO PANIBRA  GABR00000000576000000000000000000000000000000000000000000004752019113020200124122310500700036PENSION NOV 2019 COL  *
D081777997014  00161225870       2017/78242344  CARPIO PANIBRA  GABR00000000576000000000000000000000000000000000000000000002942019122120200124122310500700036PENSION DIC 2019 COL  *
D081777997014  00161383921       2017/78242626  SILVA AEDO  PEDRO MA00000000640000000000000000000000000000000000000000000003262019122120200124122540500700032PENSION DIC 2019 COL  *
D081777997014  00178609144       2017/78241942  REANO AGUILAR  ALMEN00000000560000000000000000000000000000000000000000000002862019122120200124122540500700034PENSION DIC 2019 COL  *
D081777997014  00177855942       2017/78241661  CUTISACA SALDARRIAGA00000000504000000000000000000000000000000000000000000004162019113020200124122540500700045PENSION NOV 2019 COL  *
D081777997014  00177855942       2017/78242881  CUTISACA SALDARRIAGA00000000504000000000000000000000000000000000000000000002572019122120200124122540500700048PENSION DIC 2019 COL  *
D081777997014  00173146820       2017/78242017  CUTISACA SALDARRIAGA00000000576000000000000000000000000000000000000000000002942019122120200124122540500700049PENSION DIC 2019 COL  *
D081777997014  00173845051       2017/78242809  CUTISACA SALDARRIAGA00000000576000000000000000000000000000000000000000000002942019122120200124122540500700050PENSION DIC 2019 COL  *
D081777997014  00170708392       2017/78242002  ROJAS JUAREZ  ANDRES00000000640000000000000000000000000000000000000000000003262019122120200124122540500700074PENSION DIC 2019 COL  *
D081777997014  00160981789       2017/78237276  QUISPE TORRES  HUGO 00000000640000000000000000000000000000000000000000000014022019083120200124122540500700098PENSION AGO 2019 COL  *
D081777997014  00173185429       2017/80013595  HUAPAYA QUEVEDO  GAB00000000540000000000000000000000000000000000000000000009402019093020200124124450500700046PENSION SEP 2019 CAR  *
D081777997014  00173185429       2017/80013945  HUAPAYA QUEVEDO  GAB00000000540000000000000000000000000000000000000000000006892019103120200124124450500700046PENSION OCT 2019 CAR  *
D081777997014  00173185429       2017/80014447  HUAPAYA QUEVEDO  GAB00000000540000000000000000000000000000000000000000000004462019113020200124124450500700046PENSION NOV 2019 CAR  *
D081777997014  00173185429       2017/80014988  HUAPAYA QUEVEDO  GAB00000000540000000000000000000000000000000000000000000002752019122120200124124450500700046PENSION DIC 2019 CAR  *
D081777997014  00178924244       2017/156467    SILVERA SALCEDO  IKE00000000560000000000000000000000000000000000000000000009742019093020200124126910500700007PENSION SEP 2019 SJL  *
D081777997014  00178924244       2017/157621    SILVERA SALCEDO  IKE00000000560000000000000000000000000000000000000000000007142019103120200124126910500700007PENSION OCT 2019 SJL  *
D081777997014  00178924244       2017/159797    SILVERA SALCEDO  IKE00000000280000000000000000000000000000000000000000000001432019122120200124126910500700007PENSION DIC 2019 SJL  *
D081777997014  00161139347       2017/158194    JULCAMORO RAMOS  FAB00000000540000000000000000000000000000000000000000000006892019103120200124126910500700009PENSION OCT 2019 SJL  *
D081777997014  00161139347       2017/159376    JULCAMORO RAMOS  FAB00000000540000000000000000000000000000000000000000000004462019113020200124126910500700009PENSION NOV 2019 SJL  *
D081777997014  00161139347       2017/160238    JULCAMORO RAMOS  FAB00000000540000000000000000000000000000000000000000000002752019122120200124126910500700009PENSION DIC 2019 SJL  *
D081777997014  00171149256       2017/160421    JULCAMORO RAMOS  JOH00000000486000000000000000000000000000000000000000000002482019122120200124126910500700010PENSION DIC 2019 SJL  *
D081777997014  00173926346       2017/78241609  PECEROS CASQUIN  ADR00000000640000000000000000000000000000000000000000000005282019113020200124227844651004786PENSION NOV 2019 COL  *
D081777997014  00162048600       2017/78238997  HERNANDEZ CHUQUIURE 00000000640000000000000000000000000000000000000000000011142019093020200124227844651008385PENSION SEP 2019 COL  *
D081777997014  00162048600       2017/78239648  HERNANDEZ CHUQUIURE 00000000640000000000000000000000000000000000000000000008162019103120200124227844651008386PENSION OCT 2019 COL  *
D081777997014  00162048600       2017/78241433  HERNANDEZ CHUQUIURE 00000000640000000000000000000000000000000000000000000005282019113020200124227844651008387PENSION NOV 2019 COL  *
D081777997014  00162048600       2017/78242653  HERNANDEZ CHUQUIURE 00000000640000000000000000000000000000000000000000000003262019122120200124227844651008388PENSION DIC 2019 COL  *
D081777997014  00161423315       2017/157044    CORILLA SAIRITUPAC  00000000550000000000000000000000000000000000000000000009572019093020200124129470500700025PENSION SEP 2019 SJL  *
D081777997014  00161423315       2017/158031    CORILLA SAIRITUPAC  00000000550000000000000000000000000000000000000000000007012019103120200124129470500700025PENSION OCT 2019 SJL  *
D081777997014  00161423315       2017/159248    CORILLA SAIRITUPAC  00000000550000000000000000000000000000000000000000000004542019113020200124129470500700025PENSION NOV 2019 SJL  *
D081777997014  00161423315       2017/160110    CORILLA SAIRITUPAC  00000000550000000000000000000000000000000000000000000002812019122120200124129470500700025PENSION DIC 2019 SJL  *
T081777997014  00101PENSION                       081777997014  000000001076344                                                                                                    *
T081777997014  00102PENSION SAN JUAN              081777997014  000000000633708                                                                                                    *
T081777997014  00103PENSION                       081777997014  000000000384366                                                                                                    *
H081777997014  003000000900000000046800000000000000020200124                                                                                                                       *
D081777997014  00370529087       2017/161850    FERNANDEZ FERNANDEZ 00000000570000000000000000000000000000000000000000000000002020013120200124120100500700093MATRICULA SJL         *
D081777997014  00390039563       2017/161755    FLORES CONDORI  ISAB00000000570000000000000000000000000000000000000000000000002020013120200124220350500700079MATRICULA SJL         *
D081777997014  00390039563       2017/161756    FLORES CONDORI  ISAB00000000350000000000000000000000000000000000000000000000002020013120200124220350500700079INSCRIPCION SJL       *
D081777997014  00372330349       2017/161813    SANCHEZ SANTILLAN  L00000000570000000000000000000000000000000000000000000000002020013120200124120790500700018MATRICULA SJL         *
D081777997014  00372549570       2017/80016199  RIOS ROJAS  JONAS ED00000000550000000000000000000000000000000000000000000000002020013120200124122040500700022INSCRIPCION CAR       *
D081777997014  00378305440       2017/78244500  CACHAY HUAMAN  DAYAN00000000580000000000000000000000000000000000000000000000002020013120200124122160500700058MATRICULA COL         *
D081777997014  00378305440       2017/78244501  CACHAY HUAMAN  DAYAN00000000350000000000000000000000000000000000000000000000002020013120200124122160500700058INSCRIPCION COL       *
D081777997014  00378392631       2017/161847    CASTRO QUISPE  AMARA00000000570000000000000000000000000000000000000000000000002020013120200124126910500700003MATRICULA SJL         *
D081777997014  00370853227       2017/161841    ASTOLA BEJAR  MARICI00000000570000000000000000000000000000000000000000000000002020013120200124129470500700062MATRICULA SJL         *
T081777997014  00304MATRICULA                     081777997014  000000000058000                                                                                                    *
T081777997014  00305DERECHO DE INGRESO COL        081777997014  000000000035000                                                                                                    *
T081777997014  00306MATRICULA SJL 2020            081777997014  000000000285000                                                                                                    *
T081777997014  00307DERECHO DE INGRESO SJL 2018   081777997014  000000000035000                                                                                                    *
T081777997014  00308MATRICULA 2020 CARABAYLLO     081777997014  000000000055000                                                                                                    *
H081777997014  009000000800000000004800000000000000020200124                                                                                                                       *
D081777997014  00971366072       FF20/223       MARINO GONZALES  ANJ00000000060000000000000000000000000000000000000000000000002020013120200124120600500700030CERT ESTUDIO COL ENE  *
D081777997014  00974318708       FF20/276       VALLES QUISPE  LUDY 00000000060000000000000000000000000000000000000000000000002020013120200124120700500700040CERT ESTUDIO COL ENE  *
D081777997014  00974101663       FF20/104       RODRIGUEZ LARA  ALON00000000060000000000000000000000000000000000000000000000002020013120200124122160500700116CERT ESTUDIO COL ENE  *
D081777997014  00970646841       FF20/106       RODRIGUEZ LARA  FABR00000000060000000000000000000000000000000000000000000000002020013120200124122160500700117CERT ESTUDIO COL ENE  *
D081777997014  00974645037       FF20/150       CERNA ZELADA  DIEGO 00000000060000000000000000000000000000000000000000000000002020013120200124122540500700025CERT ESTUDIO COL ENE  *
D081777997014  00947158948       FF20/267       CAMARENA SULLCA  CES00000000060000000000000000000000000000000000000000000000002020013120200124127420500700023CERT ESTUDIOS SJL EN  *
D081777997014  00970707243       FF20/271       ROJAS MACETAS  NADIN00000000060000000000000000000000000000000000000000000000002020013120200124127420500700051CERT ESTUDIOS SJL EN  *
D081777997014  00971683473       FF20/176       SANTE NOBLEJAS  MAXI00000000060000000000000000000000000000000000000000000000002020013120200124227844651013068CERT ESTUDIOS SJL EN  *
T081777997014  00929CERT ESTUDIO-COL              081777997014  000000000030000                                                                                                    *
T081777997014  00963CERT ESTUDIOS SJL             081777997014  000000000018000                                                                                                    *
H081777997014  010000000300000000000900000000000000020200124                                                                                                                       *
D081777997014  01071366072       FF20/222       MARINO GONZALES  ANJ00000000030000000000000000000000000000000000000000000000002020013120200124120600500700030CCIA NO ADEUDO COL E  *
D081777997014  01074101663       FF20/103       RODRIGUEZ LARA  ALON00000000030000000000000000000000000000000000000000000000002020013120200124122160500700116CCIA NO ADEUDO COL E  *
D081777997014  01070646841       FF20/105       RODRIGUEZ LARA  FABR00000000030000000000000000000000000000000000000000000000002020013120200124122160500700117CCIA NO ADEUDO COL E  *
T081777997014  01028CCIA NO ADEUDO COL            081777997014  000000000009000                                                                                                    *
