H081777997014  001000001700000000105653400000000000020200114                                                                                                                       *
D081777997014  00174092346       2017/78237283  BARRIOS CHAVEZ  LEON00000000640000000000000000000000000000000000000000000013062019083120200114120140500700090PENSION AGO 2019 COL  *
D081777997014  00170705100       2017/78243368  FRANCO VASQUEZ  MARY00000000640000000000000000000000000000000000000000000013062019083120200114120590500700017PENSION AGO 2019 COL  *
D081777997014  00172359557       2017/78240320  MELLADO TORRES  DANN00000000640000000000000000000000000000000000000000000007202019103120200114121490500700004PENSION OCT 2019 COL  *
D081777997014  00172359557       2017/78240923  MELLADO TORRES  DANN00000000640000000000000000000000000000000000000000000004322019113020200114121490500700004PENSION NOV 2019 COL  *
D081777997014  00172359557       2017/78242032  MELLADO TORRES  DANN00000000640000000000000000000000000000000000000000000002302019122120200114121490500700004PENSION DIC 2019 COL  *
D081777997014  00170531028       2017/80014909  CALDERON CASTRO  FIO00000000540000000000000000000000000000000000000000000001942019122120200114222200500700033PENSION DIC 2019 CAR  *
D081777997014  00174664987       2017/159907    YARLEQUE LARA  MAGGI00000000550000000000000000000000000000000000000000000001982019122120200114122470500700058PENSION DIC 2019 SJL  *
D081777997014  00179214201       2017/159495    ORTEGA TOROBEO  RAYS00000000560000000000000000000000000000000000000000000002022019122120200114227844651007711PENSION DIC 2019 SJL  *
D081777997014  00175297614       2017/78241329  MONTES VASQUEZ  LUCA00000000640000000000000000000000000000000000000000000004322019113020200114227844651012430PENSION NOV 2019 COL  *
D081777997014  00160430009       2017/78242207  TINOCO VILLANUEVA  J00000000640000000000000000000000000000000000000000000002302019122120200114227844651013421PENSION DIC 2019 COL  *
D081777997014  00173727355       2017/78239830  VILA HUANCA  ANGELO 00000000640000000000000000000000000000000000000000000007102019103120200114227844671000201PENSION OCT 2019 COL  *
D081777997014  00173727355       2017/78241615  VILA HUANCA  ANGELO 00000000640000000000000000000000000000000000000000000004222019113020200114227844671000202PENSION NOV 2019 COL  *
D081777997014  00173727355       2017/78242830  VILA HUANCA  ANGELO 00000000640000000000000000000000000000000000000000000002212019122120200114227844671000203PENSION DIC 2019 COL  *
D081777997014  00170956847       2017/78241201  VILA HUANCA  JOSEPH 00000000576000000000000000000000000000000000000000000003802019113020200114227844671000229PENSION NOV 2019 COL  *
D081777997014  00170956847       2017/78242416  VILA HUANCA  JOSEPH 00000000576000000000000000000000000000000000000000000001992019122120200114227844671000230PENSION DIC 2019 COL  *
D081777997014  00170598602       2017/78240151  SANDMANN CASTILLO  C00000000640000000000000000000000000000000000000000000007202019103120200114129470500700053PENSION OCT 2019 COL  *
D081777997014  00170598602       2017/78240705  SANDMANN CASTILLO  C00000000640000000000000000000000000000000000000000000004322019113020200114129470500700053PENSION NOV 2019 COL  *
T081777997014  00101PENSION                       081777997014  000000000890940                                                                                                    *
T081777997014  00102PENSION SAN JUAN              081777997014  000000000111400                                                                                                    *
T081777997014  00103PENSION                       081777997014  000000000054194                                                                                                    *
H081777997014  003000001700000000086900000000000000020200114                                                                                                                       *
D081777997014  00390068556       2017/80016183  CASTRO PARRA  OLIVER00000000350000000000000000000000000000000000000000000000002020013120200114120210500700023INSCRIPCION CAR       *
D081777997014  00390068556       2017/80016184  CASTRO PARRA  OLIVER00000000570000000000000000000000000000000000000000000000002020013120200114120210500700023MATRICULA CAR         *
D081777997014  00378349119       2017/78244345  ALTAMIRANO HERRADA  00000000580000000000000000000000000000000000000000000000002020013120200114122210500700036MATRICULA COL         *
D081777997014  00378349119       2017/78244346  ALTAMIRANO HERRADA  00000000350000000000000000000000000000000000000000000000002020013120200114122210500700036INSCRIPCION COL       *
D081777997014  00373814824       2017/78244363  LOPEZ ALVARADO  DIEG00000000670000000000000000000000000000000000000000000000002020013120200114122290500700121MATRICULA COL         *
D081777997014  00373814824       2017/78244364  LOPEZ ALVARADO  DIEG00000000350000000000000000000000000000000000000000000000002020013120200114122290500700121INSCRIPCION COL       *
D081777997014  00377103638       2017/161713    RIVERA VICENTE  ALEX00000000570000000000000000000000000000000000000000000000002020013120200114122470500700024MATRICULA SJL         *
D081777997014  00379115862       2017/161663    GARMA BENITES  MARLO00000000350000000000000000000000000000000000000000000000002020013120200114126910500700028INSCRIPCION SJL       *
D081777997014  00375634205       2017/161728    ANDRADE HUACHO  LUCI00000000570000000000000000000000000000000000000000000000002020013120200114126910500700041MATRICULA SJL         *
D081777997014  00390100006       2017/161023    VILLACORTA CHICATA  00000000350000000000000000000000000000000000000000000000002019122120200114127420500700052INSCRIPCION SJL       *
D081777997014  00374102896       2017/78244349  CERRILLO DE LOS SANT00000000670000000000000000000000000000000000000000000000002020013120200114227844651001887MATRICULA COL         *
D081777997014  00377893522       2017/78244358  LOPEZ ZUNIGA  LEONAR00000000580000000000000000000000000000000000000000000000002020013120200114227844651006662MATRICULA COL         *
D081777997014  00360892566       2017/78244375  BENDEZU MALASQUEZ  G00000000670000000000000000000000000000000000000000000000002020013120200114227844651008242MATRICULA COL         *
D081777997014  00381551429       2017/161478    HUAIQUIL HUAMAN  SAB00000000570000000000000000000000000000000000000000000000002019122120200114227844651012903MATRICULA SJL         *
D081777997014  00381551429       2017/161479    HUAIQUIL HUAMAN  SAB00000000350000000000000000000000000000000000000000000000002019122120200114227844651012945INSCRIPCION SJL       *
D081777997014  00377309593       2017/161725    ACUNA MORENO  JORGE 00000000570000000000000000000000000000000000000000000000002020013120200114129470500700078MATRICULA SJL         *
D081777997014  00377642560       2017/161721    VALENCIA GALVEZ  KIA00000000570000000000000000000000000000000000000000000000002020013120200114129470500700115MATRICULA SJL         *
T081777997014  00304MATRICULA                     081777997014  000000000317000                                                                                                    *
T081777997014  00305DERECHO DE INGRESO COL        081777997014  000000000070000                                                                                                    *
T081777997014  00306MATRICULA SJL 2020            081777997014  000000000285000                                                                                                    *
T081777997014  00307DERECHO DE INGRESO SJL 2018   081777997014  000000000105000                                                                                                    *
T081777997014  00308MATRICULA 2020 CARABAYLLO     081777997014  000000000057000                                                                                                    *
T081777997014  00309DERECHO DE INGRESO 2020 CARABA081777997014  000000000035000                                                                                                    *
H081777997014  006000000100000000000200000000000000020200114                                                                                                                       *
D081777997014  00681632886       FF20/120       CONDORI TORRE  EMMA 00000000020000000000000000000000000000000000000000000000002020013120200114126610500700107CCIA ESTUDIOS COL EN  *
T081777997014  00624CCIA ESTUDIOS COL             081777997014  000000000002000                                                                                                    *
H081777997014  008000000100000000000250000000000000020200114                                                                                                                       *
D081777997014  00879243091       FF20/116       ORIHUELA LLANQUI  JO00000000025000000000000000000000000000000000000000000000002020013120200114227844651007285CERT CONDUCTA CAR EN  *
T081777997014  00898CERT CONDUCTA CAR             081777997014  000000000002500                                                                                                    *
H081777997014  009000000700000000004200000000000000020200114                                                                                                                       *
D081777997014  00977308558       FF20/126       FLORES MEZA  BENJAMI00000000060000000000000000000000000000000000000000000000002020013120200114120210500700018CERT ESTUDIOS CAR EN  *
D081777997014  00977267625       FF20/18        CHOQUE ORE  FERNANDA00000000060000000000000000000000000000000000000000000000002020013120200114120580500700040CERT ESTUDIOS SJL EN  *
D081777997014  00971244886       FF20/145       FLORES VELASQUEZ  MA00000000060000000000000000000000000000000000000000000000002020013120200114121770500700019CERT ESTUDIO COL ENE  *
D081777997014  00972572935       FF20/141       ROMERO PEREZ  ADRIAN00000000060000000000000000000000000000000000000000000000002020013120200114122470500700022CERT ESTUDIOS SJL EN  *
D081777997014  00975361010       FF20/140       BENAVIDES VIVANCO  M00000000060000000000000000000000000000000000000000000000002020013120200114122540500700033CERT ESTUDIO COL ENE  *
D081777997014  00962024526       FF20/133       MEDINA VILLANUEVA  J00000000060000000000000000000000000000000000000000000000002020013120200114127420500700045CERT ESTUDIOS SJL EN  *
D081777997014  00978525427       FF20/12        ACUACHI DAMIAN  MELO00000000060000000000000000000000000000000000000000000000002020013120200114127420500700077CERT ESTUDIOS SJL EN  *
T081777997014  00929CERT ESTUDIO-COL              081777997014  000000000012000                                                                                                    *
T081777997014  00963CERT ESTUDIOS SJL             081777997014  000000000024000                                                                                                    *
T081777997014  00999CERT ESTUDIOS-CAR             081777997014  000000000006000                                                                                                    *
H081777997014  010000000200000000000600000000000000020200114                                                                                                                       *
D081777997014  01061052039       FF20/154       ALVARADO VASQUEZ  KE00000000030000000000000000000000000000000000000000000000002020013120200114122540500700075CCIA NO ADEUDO COL E  *
D081777997014  01079243091       FF20/115       ORIHUELA LLANQUI  JO00000000030000000000000000000000000000000000000000000000002020013120200114227844651007253CCIA NO ADEUDO CAR E  *
T081777997014  01010CCIA NO ADEUDO CAR            081777997014  000000000003000                                                                                                    *
T081777997014  01028CCIA NO ADEUDO COL            081777997014  000000000003000                                                                                                    *
H081777997014  012000000200000000000600000000000000020200114                                                                                                                       *
D081777997014  01260772445       FF20/127       ORE VASQUEZ  DHAYANN00000000030000000000000000000000000000000000000000000000002020013120200114120480500700004PRA ACAD COLONIAL EN  *
D081777997014  01261932690       FF20/98        BERETTA COZ  THIAGO 00000000030000000000000000000000000000000000000000000000002020013120200114123980500700018PRA ACAD COLONIAL EN  *
T081777997014  01230PRA ACAD COLONIAL             081777997014  000000000006000                                                                                                    *
