H081777997014  001000008200000000463030000000000000020200227                                                                                                                       *
D081777997014  00171969798       2017/78233621  BECERRA URRUTIA  JAN00000000640000000000000000000000000000000000000000000000002020053120200227120130500700102PENSION MAY 2019 COL  *
D081777997014  00171969798       2017/78235621  BECERRA URRUTIA  JAN00000000640000000000000000000000000000000000000000000000002020063020200227120130500700102PENSION JUN 2019 COL  *
D081777997014  00171969798       2017/78235946  BECERRA URRUTIA  JAN00000000640000000000000000000000000000000000000000000000002020073120200227120130500700102PENSION JUL 2019 COL  *
D081777997014  00171969798       2017/78237158  BECERRA URRUTIA  JAN00000000640000000000000000000000000000000000000000000000002020083120200227120130500700102PENSION AGO 2019 COL  *
D081777997014  00171969798       2017/78238437  BECERRA URRUTIA  JAN00000000640000000000000000000000000000000000000000000000002020093020200227120130500700102PENSION SEP 2019 COL  *
D081777997014  00171969798       2017/78240022  BECERRA URRUTIA  JAN00000000640000000000000000000000000000000000000000000000002020103120200227120130500700102PENSION OCT 2019 COL  *
D081777997014  00171969798       2017/78240778  BECERRA URRUTIA  JAN00000000640000000000000000000000000000000000000000000000002020113020200227120130500700102PENSION NOV 2019 COL  *
D081777997014  00171969798       2017/78242083  BECERRA URRUTIA  JAN00000000640000000000000000000000000000000000000000000000002020122120200227120130500700102PENSION DIC 2019 COL  *
D081777997014  00177454257       2017/80014164  MARMOLEJO HERRERA  M00000000550000000000000000000000000000000000000000000009822019103120200227120210500700035PENSION OCT 2019 CAR  *
D081777997014  00177454257       2017/80014624  MARMOLEJO HERRERA  M00000000550000000000000000000000000000000000000000000007342019113020200227120210500700036PENSION NOV 2019 CAR  *
D081777997014  00177454257       2017/80014900  MARMOLEJO HERRERA  M00000000550000000000000000000000000000000000000000000005612019122120200227120210500700037PENSION DIC 2019 CAR  *
D081777997014  00178527888       2017/80014338  LEAL PINEDA  SAYEN A00000000560000000000000000000000000000000000000000000007482019113020200227120670500700022PENSION NOV 2019 CAR  *
D081777997014  00178527888       2017/80014864  LEAL PINEDA  SAYEN A00000000560000000000000000000000000000000000000000000005712019122120200227120670500700022PENSION DIC 2019 CAR  *
D081777997014  00161313540       2017/150575    VEGA TELLEZ  ANGEL F00000000495000000000000000000000000000000000000000000024732019033120200227121350500700137PENSION MAR 2019 SJL  *
D081777997014  00161313540       2017/151582    VEGA TELLEZ  ANGEL F00000000495000000000000000000000000000000000000000000022502019043020200227121350500700137PENSION ABR 2019 SJL  *
D081777997014  00161313540       2017/152636    VEGA TELLEZ  ANGEL F00000000495000000000000000000000000000000000000000000020202019053120200227121350500700137PENSION MAY 2019 SJL  *
D081777997014  00161313540       2017/153674    VEGA TELLEZ  ANGEL F00000000495000000000000000000000000000000000000000000017972019063020200227121350500700137PENSION JUN 2019 SJL  *
D081777997014  00161313540       2017/155343    VEGA TELLEZ  ANGEL F00000000495000000000000000000000000000000000000000000015672019073120200227121350500700137PENSION JUL 2019 SJL  *
D081777997014  00161313540       2017/155648    VEGA TELLEZ  ANGEL F00000000495000000000000000000000000000000000000000000013372019083120200227121350500700137PENSION AGO 2019 SJL  *
D081777997014  00161313540       2017/156691    VEGA TELLEZ  ANGEL F00000000495000000000000000000000000000000000000000000011142019093020200227121350500700137PENSION SEP 2019 SJL  *
D081777997014  00161313540       2017/157567    VEGA TELLEZ  ANGEL F00000000495000000000000000000000000000000000000000000008842019103120200227121350500700137PENSION OCT 2019 SJL  *
D081777997014  00161313540       2017/158934    VEGA TELLEZ  ANGEL F00000000495000000000000000000000000000000000000000000006612019113020200227121350500700137PENSION NOV 2019 SJL  *
D081777997014  00161313540       2017/159725    VEGA TELLEZ  ANGEL F00000000495000000000000000000000000000000000000000000005052019122120200227121350500700137PENSION DIC 2019 SJL  *
D081777997014  00173842220       2017/80010775  COPARA MEJIA  ALEJAN00000000495000000000000000000000000000000000000000000024732019033120200227121910500700001PENSION MAR 2019 CAR  *
D081777997014  00173842220       2017/80011339  COPARA MEJIA  ALEJAN00000000495000000000000000000000000000000000000000000022502019043020200227121910500700001PENSION ABR 2019 CAR  *
D081777997014  00173842220       2017/80011816  COPARA MEJIA  ALEJAN00000000495000000000000000000000000000000000000000000020202019053120200227121910500700001PENSION MAY 2019 CAR  *
D081777997014  00173842220       2017/80012293  COPARA MEJIA  ALEJAN00000000495000000000000000000000000000000000000000000017972019063020200227121910500700001PENSION JUN 2019 CAR  *
D081777997014  00173842220       2017/80012770  COPARA MEJIA  ALEJAN00000000495000000000000000000000000000000000000000000015672019073120200227121910500700001PENSION JUL 2019 CAR  *
D081777997014  00174682637       2017/80010893  COPARA MEJIA  JOAQUI00000000550000000000000000000000000000000000000000000027472019033120200227121910500700003PENSION MAR 2019 CAR  *
D081777997014  00174682637       2017/80011370  COPARA MEJIA  JOAQUI00000000550000000000000000000000000000000000000000000025002019043020200227121910500700003PENSION ABR 2019 CAR  *
D081777997014  00174682637       2017/80011847  COPARA MEJIA  JOAQUI00000000550000000000000000000000000000000000000000000022442019053120200227121910500700003PENSION MAY 2019 CAR  *
D081777997014  00174682637       2017/80012324  COPARA MEJIA  JOAQUI00000000550000000000000000000000000000000000000000000019972019063020200227121910500700003PENSION JUN 2019 CAR  *
D081777997014  00174682637       2017/80012801  COPARA MEJIA  JOAQUI00000000550000000000000000000000000000000000000000000017412019073120200227121910500700003PENSION JUL 2019 CAR  *
D081777997014  00173560442       2017/159250    ARONI VARGAS  BIANCA00000000550000000000000000000000000000000000000000000007342019113020200227122140500700114PENSION NOV 2019 SJL  *
D081777997014  00177928736       2017/78242946  MIRANDA BRICENO  GUS00000000560000000000000000000000000000000000000000000005712019122120200227122160500700029PENSION DIC 2019 COL  *
D081777997014  00171181520       2017/78239471  GARCIA TELLO  EDUARD00000000640000000000000000000000000000000000000000000011422019103120200227122160500700045PENSION OCT 2019 COL  *
D081777997014  00175150008       2017/78240291  GARCIA TELLO  LEONAR00000000576000000000000000000000000000000000000000000010282019103120200227122160500700047PENSION OCT 2019 COL  *
D081777997014  00173843727       2017/78239176  CHAVEZ PALACIOS  LUA00000000640000000000000000000000000000000000000000000014402019093020200227122290500700128PENSION SEP 2019 COL  *
D081777997014  00173843727       2017/78239826  CHAVEZ PALACIOS  LUA00000000640000000000000000000000000000000000000000000011422019103120200227122290500700128PENSION OCT 2019 COL  *
D081777997014  00174098250       2017/150618    TELLEZ ROJAS  VICTOR00000000550000000000000000000000000000000000000000000027472019033120200227122470500700128PENSION MAR 2019 SJL  *
D081777997014  00174098250       2017/151625    TELLEZ ROJAS  VICTOR00000000550000000000000000000000000000000000000000000025002019043020200227122470500700128PENSION ABR 2019 SJL  *
D081777997014  00174098250       2017/152679    TELLEZ ROJAS  VICTOR00000000550000000000000000000000000000000000000000000022442019053120200227122470500700128PENSION MAY 2019 SJL  *
D081777997014  00174098250       2017/153717    TELLEZ ROJAS  VICTOR00000000550000000000000000000000000000000000000000000019972019063020200227122470500700128PENSION JUN 2019 SJL  *
D081777997014  00174098250       2017/155386    TELLEZ ROJAS  VICTOR00000000550000000000000000000000000000000000000000000017412019073120200227122470500700128PENSION JUL 2019 SJL  *
D081777997014  00174098250       2017/155702    TELLEZ ROJAS  VICTOR00000000550000000000000000000000000000000000000000000014852019083120200227122470500700128PENSION AGO 2019 SJL  *
D081777997014  00174098250       2017/156735    TELLEZ ROJAS  VICTOR00000000550000000000000000000000000000000000000000000012382019093020200227122470500700128PENSION SEP 2019 SJL  *
D081777997014  00174098250       2017/157762    TELLEZ ROJAS  VICTOR00000000550000000000000000000000000000000000000000000009822019103120200227122470500700128PENSION OCT 2019 SJL  *
D081777997014  00174098250       2017/158977    TELLEZ ROJAS  VICTOR00000000550000000000000000000000000000000000000000000007342019113020200227122470500700128PENSION NOV 2019 SJL  *
D081777997014  00174098250       2017/159789    TELLEZ ROJAS  VICTOR00000000550000000000000000000000000000000000000000000005612019122120200227122470500700128PENSION DIC 2019 SJL  *
D081777997014  00176888627       2017/78237912  MORA JAIMES  BRIHANN00000000560000000000000000000000000000000000000000000015122019083120200227122540500700037PENSION AGO 2019 COL  *
D081777997014  00176888627       2017/78239054  MORA JAIMES  BRIHANN00000000560000000000000000000000000000000000000000000012602019093020200227122540500700037PENSION SEP 2019 COL  *
D081777997014  00177104438       2017/78242729  HERRERA DIAZ  MAKARE00000000560000000000000000000000000000000000000000000005712019122120200227122540500700077PENSION DIC 2019 COL  *
D081777997014  00173833606       2017/78242773  SARANGO ALDANA  FABR00000000640000000000000000000000000000000000000000000006532019122120200227126610500700005PENSION DIC 2019 COL  *
D081777997014  00173429600       2017/160212    SANTOS BUENO  MARCIO00000000486000000000000000000000000000000000000000000004962019122120200227126860500700001PENSION DIC 2019 SJL  *
D081777997014  00178733417       2017/150490    MORI CRUZ  REDDY MAT00000000560000000000000000000000000000000000000000000027972019033120200227126910500700037PENSION MAR 2019 SJL  *
D081777997014  00178733417       2017/151461    MORI CRUZ  REDDY MAT00000000560000000000000000000000000000000000000000000025452019043020200227126910500700037PENSION ABR 2019 SJL  *
D081777997014  00178733417       2017/152545    MORI CRUZ  REDDY MAT00000000560000000000000000000000000000000000000000000022852019053120200227126910500700037PENSION MAY 2019 SJL  *
D081777997014  00178733417       2017/153352    MORI CRUZ  REDDY MAT00000000560000000000000000000000000000000000000000000020332019063020200227126910500700037PENSION JUN 2019 SJL  *
D081777997014  00178733417       2017/155051    MORI CRUZ  REDDY MAT00000000560000000000000000000000000000000000000000000017722019073120200227126910500700037PENSION JUL 2019 SJL  *
D081777997014  00178733417       2017/155440    MORI CRUZ  REDDY MAT00000000560000000000000000000000000000000000000000000015122019083120200227126910500700037PENSION AGO 2019 SJL  *
D081777997014  00178733417       2017/156483    MORI CRUZ  REDDY MAT00000000560000000000000000000000000000000000000000000012602019093020200227126910500700037PENSION SEP 2019 SJL  *
D081777997014  00178733417       2017/157637    MORI CRUZ  REDDY MAT00000000560000000000000000000000000000000000000000000010002019103120200227126910500700037PENSION OCT 2019 SJL  *
D081777997014  00178733417       2017/158859    MORI CRUZ  REDDY MAT00000000560000000000000000000000000000000000000000000007482019113020200227126910500700037PENSION NOV 2019 SJL  *
D081777997014  00178733417       2017/159574    MORI CRUZ  REDDY MAT00000000560000000000000000000000000000000000000000000005712019122120200227126910500700037PENSION DIC 2019 SJL  *
D081777997014  00177365842       2017/150885    AGUERO ERQUINIO  JEA00000000550000000000000000000000000000000000000000000027472019033120200227126910500700108PENSION MAR 2019 SJL  *
D081777997014  00177365842       2017/151921    AGUERO ERQUINIO  JEA00000000550000000000000000000000000000000000000000000025002019043020200227126910500700108PENSION ABR 2019 SJL  *
D081777997014  00177365842       2017/152907    AGUERO ERQUINIO  JEA00000000550000000000000000000000000000000000000000000022442019053120200227126910500700108PENSION MAY 2019 SJL  *
D081777997014  00177365842       2017/153932    AGUERO ERQUINIO  JEA00000000550000000000000000000000000000000000000000000019972019063020200227126910500700108PENSION JUN 2019 SJL  *
D081777997014  00161494306       2017/150851    AGUERO ERQUINIO  RON00000000495000000000000000000000000000000000000000000024732019033120200227126910500700109PENSION MAR 2019 SJL  *
D081777997014  00161494306       2017/151873    AGUERO ERQUINIO  RON00000000495000000000000000000000000000000000000000000022502019043020200227126910500700109PENSION ABR 2019 SJL  *
D081777997014  00161494306       2017/152919    AGUERO ERQUINIO  RON00000000495000000000000000000000000000000000000000000020202019053120200227126910500700109PENSION MAY 2019 SJL  *
D081777997014  00177382640       2017/151122    VERA CALZADA  ALISSO00000000540000000000000000000000000000000000000000000026972019033120200227127420500700002PENSION MAR 2019 SJL  *
D081777997014  00177382640       2017/152144    VERA CALZADA  ALISSO00000000540000000000000000000000000000000000000000000024542019043020200227127420500700003PENSION ABR 2019 SJL  *
D081777997014  00177382640       2017/153166    VERA CALZADA  ALISSO00000000540000000000000000000000000000000000000000000022032019053120200227127420500700004PENSION MAY 2019 SJL  *
D081777997014  00177382640       2017/154188    VERA CALZADA  ALISSO00000000540000000000000000000000000000000000000000000019602019063020200227127420500700005PENSION JUN 2019 SJL  *
D081777997014  00177382640       2017/154853    VERA CALZADA  ALISSO00000000540000000000000000000000000000000000000000000017092019073120200227127420500700006PENSION JUL 2019 SJL  *
D081777997014  00177382640       2017/156232    VERA CALZADA  ALISSO00000000540000000000000000000000000000000000000000000014582019083120200227127420500700007PENSION AGO 2019 SJL  *
D081777997014  00177382640       2017/157254    VERA CALZADA  ALISSO00000000540000000000000000000000000000000000000000000012152019093020200227127420500700008PENSION SEP 2019 SJL  *
D081777997014  00177382640       2017/158276    VERA CALZADA  ALISSO00000000540000000000000000000000000000000000000000000009642019103120200227127420500700009PENSION OCT 2019 SJL  *
D081777997014  00177382640       2017/159458    VERA CALZADA  ALISSO00000000540000000000000000000000000000000000000000000007212019113020200227127420500700010PENSION NOV 2019 SJL  *
D081777997014  00177382640       2017/160320    VERA CALZADA  ALISSO00000000540000000000000000000000000000000000000000000005512019122120200227127420500700011PENSION DIC 2019 SJL  *
D081777997014  00170592473       2017/160182    SANTE NOBLEJAS  SOFI00000000486000000000000000000000000000000000000000000004962019122120200227227844651017935PENSION DIC 2019 SJL  *
T081777997014  00101PENSION                       081777997014  000000001058919                                                                                                    *
T081777997014  00102PENSION SAN JUAN              081777997014  000000002746949                                                                                                    *
T081777997014  00103PENSION                       081777997014  000000000824432                                                                                                    *
H081777997014  003000002700000000138625000000000000020200227                                                                                                                       *
D081777997014  00377864415       2017/78244970  CABANA LEVANO  STEFA00000000580000000000000000000000000000000000000000000000002020022820200227220140500700064MATRICULA COL         *
D081777997014  00377933831       2017/80016443  ENRIQUEZ CORDOVA  SO00000000560000000000000000000000000000000000000000000000002020022820200227120200500700143INSCRIPCION CAR       *
D081777997014  00371184808       2017/78244907  ALZAMORA GOLAC  NORA00000000670000000000000000000000000000000000000000000000002020022820200227120700500700064MATRICULA COL         *
D081777997014  00371184808       2017/78244908  ALZAMORA GOLAC  NORA00000000350000000000000000000000000000000000000000000000002020022820200227120700500700064INSCRIPCION COL       *
D081777997014  00379896236       2017/80016491  MONTEJO VILLASANA  D00000000570000000000000000000000000000000000000000000000002020022820200227121350500700133MATRICULA CAR         *
D081777997014  00379896236       2017/80016492  MONTEJO VILLASANA  D00000000350000000000000000000000000000000000000000000000002020022820200227121350500700133INSCRIPCION CAR       *
D081777997014  00361934798       2017/162086    CAPCHA NIETO  ANTONE00000000570000000000000000000000000000000000000000000000002020022820200227121440500700002MATRICULA SJL         *
D081777997014  00377754112       2017/162069    BUSTILLOS TERAN  JOA00000000570000000000000000000000000000000000000000000000002020022820200227121440500700004MATRICULA SJL         *
D081777997014  00377396948       2017/80016493  RODRIGUEZ SOCUALAYA 00000000560000000000000000000000000000000000000000000000002020022820200227121910500700005INSCRIPCION CAR       *
D081777997014  00372347513       2017/80016501  INGA MONTES  ANDREW 00000000175000000000000000000000000000000000000000000000002020022820200227122030500700035INSCRIPCION CAR       *
D081777997014  00372347513       2017/80016503  INGA MONTES  ANDREW 00000000560000000000000000000000000000000000000000000000002020022820200227122030500700035MATRICULA CAR         *
D081777997014  00375083798       2017/78244928  SAAVEDRA LUJAN  SEBA00000000670000000000000000000000000000000000000000000000002020022820200227122240500700037MATRICULA COL         *
D081777997014  00377516871       2017/78244926  REYES RODRIGUEZ  ROM00000000670000000000000000000000000000000000000000000000002020022820200227122240500700040MATRICULA COL         *
D081777997014  00377516871       2017/78244927  REYES RODRIGUEZ  ROM00000000350000000000000000000000000000000000000000000000002020022820200227122240500700040INSCRIPCION COL       *
D081777997014  00373168737       2017/162091    ECHEVARRIA GUTIERREZ00000000570000000000000000000000000000000000000000000000002020022820200227122390500700065MATRICULA SJL         *
D081777997014  00375083773       2017/78244971  ESCURRA AGUIRRE  JOH00000000670000000000000000000000000000000000000000000000002020022820200227126610500700108MATRICULA COL         *
D081777997014  00375111074       2017/162093    ORMENO BLAS  ARLEX A00000000570000000000000000000000000000000000000000000000002020022820200227126800500700033MATRICULA SJL         *
D081777997014  00375085450       2017/162092    ORMENO BLAS  AYSEL D00000000570000000000000000000000000000000000000000000000002020022820200227126800500700034MATRICULA SJL         *
D081777997014  00379617838       2017/162047    REANO EVANGELISTA  E00000000570000000000000000000000000000000000000000000000002020022820200227126910500700009MATRICULA SJL         *
D081777997014  00378512036       2017/162046    REANO EVANGELISTA  N00000000570000000000000000000000000000000000000000000000002020022820200227126910500700010MATRICULA SJL         *
D081777997014  00361249578       2017/162079    SUSANIBAR MEDINA  KI00000000570000000000000000000000000000000000000000000000002020022820200227127420500700050MATRICULA SJL         *
D081777997014  00361249578       2017/162080    SUSANIBAR MEDINA  KI00000000350000000000000000000000000000000000000000000000002020022820200227127420500700051INSCRIPCION SJL       *
D081777997014  00378157623       2017/80016313  ESPINOZA SULCA  ALME00000000350000000000000000000000000000000000000000000000002020022820200227227844651003783INSCRIPCION CAR       *
D081777997014  00377512602       2017/78244918  PANIHUARA BARRETO  L00000000670000000000000000000000000000000000000000000000002020022820200227227844651005576MATRICULA COL         *
D081777997014  00374676631       2017/80016472  CASTANEDA BARZOLA  A00000000560000000000000000000000000000000000000000000000002020022820200227227844651008790INSCRIPCION CAR       *
D081777997014  00372773515       2017/80016499  CARLOS REYES  JORDAN00000000550000000000000000000000000000000000000000000000002020022820200227227844651013965INSCRIPCION CAR       *
D081777997014  00381236695       2017/80016322  MORALES NOLBERTO  DA00000000087500000000000000000000000000000000000000000000002020022820200227227844651015532INSCRIPCION CAR       *
T081777997014  00304MATRICULA                     081777997014  000000000393000                                                                                                    *
T081777997014  00305DERECHO DE INGRESO COL        081777997014  000000000070000                                                                                                    *
T081777997014  00306MATRICULA SJL 2020            081777997014  000000000456000                                                                                                    *
T081777997014  00307DERECHO DE INGRESO SJL 2018   081777997014  000000000035000                                                                                                    *
T081777997014  00308MATRICULA 2020 CARABAYLLO     081777997014  000000000336000                                                                                                    *
T081777997014  00309DERECHO DE INGRESO 2020 CARABA081777997014  000000000096250                                                                                                    *
H081777997014  009000000700000000004200000000000000020200227                                                                                                                       *
D081777997014  00975852646       FF20/599       PULACHE CRUZ  STEFAN00000000060000000000000000000000000000000000000000000000002020022820200227120160500700058CERT ESTUDIOS CAR FE  *
D081777997014  00974878071       FF20/642       MUNOZ TOLEDO  JULIO 00000000060000000000000000000000000000000000000000000000002020022820200227122470500700081CERT ESTUDIOS SJL FE  *
D081777997014  00975673271       FF20/629       LUY VALDIVIA  JOSE P00000000060000000000000000000000000000000000000000000000002020022820200227122540500700026CERT ESTUDIO COL FEB  *
D081777997014  00944742654       FF20/644       BORDA VELA  OLGER DA00000000060000000000000000000000000000000000000000000000002020022820200227126910500700014CERT ESTUDIOS SJL FE  *
D081777997014  00978090384       FF20/604       DAVILA VALVERDE  NIC00000000060000000000000000000000000000000000000000000000002020022820200227126910500700055CERT ESTUDIOS SJL FE  *
D081777997014  00977483423       FF20/605       DAVILA VALVERDE  SEB00000000060000000000000000000000000000000000000000000000002020022820200227126910500700056CERT ESTUDIOS SJL FE  *
D081777997014  00971680158       FF20/614       SANTA CRUZ LAGOS  JA00000000060000000000000000000000000000000000000000000000002020022820200227126910500700112CERT ESTUDIOS SJL FE  *
T081777997014  00929CERT ESTUDIO-COL              081777997014  000000000006000                                                                                                    *
T081777997014  00963CERT ESTUDIOS SJL             081777997014  000000000030000                                                                                                    *
T081777997014  00999CERT ESTUDIOS-CAR             081777997014  000000000006000                                                                                                    *
H081777997014  010000000300000000000900000000000000020200227                                                                                                                       *
D081777997014  01075852646       FF20/600       PULACHE CRUZ  STEFAN00000000030000000000000000000000000000000000000000000000002020022820200227120160500700058CCIA NO ADEUDO CAR F  *
D081777997014  01077483423       FF20/606       DAVILA VALVERDE  SEB00000000030000000000000000000000000000000000000000000000002020022820200227126910500700056CCIA NO ADEUDOSJL FE  *
D081777997014  01071680158       FF20/615       SANTA CRUZ LAGOS  JA00000000030000000000000000000000000000000000000000000000002020022820200227126910500700112CCIA NO ADEUDOSJL FE  *
T081777997014  01010CCIA NO ADEUDO CAR            081777997014  000000000003000                                                                                                    *
T081777997014  01064CCIA NO ADEUDOSJL             081777997014  000000000006000                                                                                                    *
