H081777997014  001000007400000000409903800000000000020200229                                                                                                                       *
D081777997014  00178087694       2017/78244973  LORENZO QUISPE  MARI00000000580000000000000000000000000000000000000000000000002020033120200229120700500700041PENSION MAR 2020 COL  *
D081777997014  00178087694       2017/78244974  LORENZO QUISPE  MARI00000000580000000000000000000000000000000000000000000000002020043020200229120700500700041PENSION ABR 2020 COL  *
D081777997014  00178087694       2017/78244975  LORENZO QUISPE  MARI00000000580000000000000000000000000000000000000000000000002020053120200229120700500700041PENSION MAY 2020 COL  *
D081777997014  00178087694       2017/78244976  LORENZO QUISPE  MARI00000000580000000000000000000000000000000000000000000000002020063020200229120700500700041PENSION JUN 2020 COL  *
D081777997014  00178087694       2017/78244977  LORENZO QUISPE  MARI00000000580000000000000000000000000000000000000000000000002020073120200229120700500700041PENSION JUL 2020 COL  *
D081777997014  00178087694       2017/78244978  LORENZO QUISPE  MARI00000000580000000000000000000000000000000000000000000000002020083120200229120700500700041PENSION AGO 2020 COL  *
D081777997014  00178087694       2017/78244979  LORENZO QUISPE  MARI00000000580000000000000000000000000000000000000000000000002020093020200229120700500700041PENSION SEP 2020 COL  *
D081777997014  00178087694       2017/78244980  LORENZO QUISPE  MARI00000000580000000000000000000000000000000000000000000000002020103120200229120700500700041PENSION OCT 2020 COL  *
D081777997014  00178087694       2017/78244981  LORENZO QUISPE  MARI00000000580000000000000000000000000000000000000000000000002020113020200229120700500700041PENSION NOV 2020 COL  *
D081777997014  00178087694       2017/78244982  LORENZO QUISPE  MARI00000000290000000000000000000000000000000000000000000000002020121920200229120700500700041PENSION DIC 2020 COL  *
D081777997014  00171028598       2017/158383    BACA QUIJADA  CESAR 00000000540000000000000000000000000000000000000000000009802019103120200229121440500700002PENSION OCT 2019 SJL  *
D081777997014  00171028598       2017/158564    BACA QUIJADA  CESAR 00000000540000000000000000000000000000000000000000000007372019113020200229121440500700002PENSION NOV 2019 SJL  *
D081777997014  00171028598       2017/160412    BACA QUIJADA  CESAR 00000000540000000000000000000000000000000000000000000005672019122120200229121440500700002PENSION DIC 2019 SJL  *
D081777997014  00173741440       2017/78219611  VILLA MANCHAY  JOSE 00000000520000000000000000000000000000000000000000000045082018073120200229121930500700010PENSION JUL 2018 COL  *
D081777997014  00173741440       2017/78220933  VILLA MANCHAY  JOSE 00000000520000000000000000000000000000000000000000000042672018083120200229121930500700010PENSION AGO 2018 COL  *
D081777997014  00173741440       2017/78222693  VILLA MANCHAY  JOSE 00000000520000000000000000000000000000000000000000000040332018093020200229121930500700010PENSION SEP 2018 COL  *
D081777997014  00173741440       2017/78223499  VILLA MANCHAY  JOSE 00000000520000000000000000000000000000000000000000000037912018103120200229121930500700010PENSION OCT 2018 COL  *
D081777997014  00170627734       2017/160435    ATACHAO QUISPE  FERN00000000540000000000000000000000000000000000000000000005672019122120200229122470500700008PENSION DIC 2019 SJL  *
D081777997014  00177118150       2017/80010827  ESCALANTE RAMIREZ  A00000000550000000000000000000000000000000000000000000027642019033120200229122480500700037PENSION MAR 2019 CAR  *
D081777997014  00177118150       2017/80011267  ESCALANTE RAMIREZ  A00000000550000000000000000000000000000000000000000000025162019043020200229122480500700037PENSION ABR 2019 CAR  *
D081777997014  00177118150       2017/80011768  ESCALANTE RAMIREZ  A00000000550000000000000000000000000000000000000000000022612019053120200229122480500700037PENSION MAY 2019 CAR  *
D081777997014  00177118150       2017/80012215  ESCALANTE RAMIREZ  A00000000550000000000000000000000000000000000000000000020132019063020200229122480500700037PENSION JUN 2019 CAR  *
D081777997014  00177118150       2017/80012720  ESCALANTE RAMIREZ  A00000000550000000000000000000000000000000000000000000017572019073120200229122480500700037PENSION JUL 2019 CAR  *
D081777997014  00177118150       2017/80013137  ESCALANTE RAMIREZ  A00000000550000000000000000000000000000000000000000000015022019083120200229122480500700037PENSION AGO 2019 CAR  *
D081777997014  00177118150       2017/80013667  ESCALANTE RAMIREZ  A00000000550000000000000000000000000000000000000000000012542019093020200229122480500700037PENSION SEP 2019 CAR  *
D081777997014  00177118150       2017/80014103  ESCALANTE RAMIREZ  A00000000550000000000000000000000000000000000000000000009982019103120200229122480500700037PENSION OCT 2019 CAR  *
D081777997014  00177118150       2017/80014676  ESCALANTE RAMIREZ  A00000000550000000000000000000000000000000000000000000007512019113020200229122480500700037PENSION NOV 2019 CAR  *
D081777997014  00177118150       2017/80015098  ESCALANTE RAMIREZ  A00000000550000000000000000000000000000000000000000000005782019122120200229122480500700037PENSION DIC 2019 CAR  *
D081777997014  00177786695       2017/78235314  TERAN TEJADA  MARIAF00000000560000000000000000000000000000000000000000000020502019063020200229122540500700029PENSION JUN 2019 COL  *
D081777997014  00177786695       2017/78236866  TERAN TEJADA  MARIAF00000000560000000000000000000000000000000000000000000017892019073120200229122540500700029PENSION JUL 2019 COL  *
D081777997014  00177786695       2017/78236924  TERAN TEJADA  MARIAF00000000560000000000000000000000000000000000000000000015292019083120200229122540500700029PENSION AGO 2019 COL  *
D081777997014  00177786695       2017/78239281  TERAN TEJADA  MARIAF00000000560000000000000000000000000000000000000000000012772019093020200229122540500700029PENSION SEP 2019 COL  *
D081777997014  00177786695       2017/78239926  TERAN TEJADA  MARIAF00000000560000000000000000000000000000000000000000000010162019103120200229122540500700029PENSION OCT 2019 COL  *
D081777997014  00177786695       2017/78241711  TERAN TEJADA  MARIAF00000000560000000000000000000000000000000000000000000007642019113020200229122540500700029PENSION NOV 2019 COL  *
D081777997014  00177786695       2017/78242926  TERAN TEJADA  MARIAF00000000560000000000000000000000000000000000000000000005882019122120200229122540500700029PENSION DIC 2019 COL  *
D081777997014  00171028598       2017/154959    BACA QUIJADA  CESAR 00000000540000000000000000000000000000000000000000000017252019073120200229126860500700002PENSION JUL 2019 SJL  *
D081777997014  00171028598       2017/156339    BACA QUIJADA  CESAR 00000000540000000000000000000000000000000000000000000014742019083120200229126860500700002PENSION AGO 2019 SJL  *
D081777997014  00171028598       2017/157361    BACA QUIJADA  CESAR 00000000540000000000000000000000000000000000000000000012312019093020200229126860500700002PENSION SEP 2019 SJL  *
D081777997014  00162018661       2017/152562    SOTO LEZAMA  ROBERT 00000000495000000000000000000000000000000000000000000020342019053120200229126910500700011PENSION MAY 2019 SJL  *
D081777997014  00162018661       2017/153603    SOTO LEZAMA  ROBERT 00000000495000000000000000000000000000000000000000000018122019063020200229126910500700011PENSION JUN 2019 SJL  *
D081777997014  00162018661       2017/155241    SOTO LEZAMA  ROBERT 00000000495000000000000000000000000000000000000000000015822019073120200229126910500700011PENSION JUL 2019 SJL  *
D081777997014  00162018661       2017/155740    SOTO LEZAMA  ROBERT 00000000495000000000000000000000000000000000000000000013512019083120200229126910500700011PENSION AGO 2019 SJL  *
D081777997014  00162018661       2017/156773    SOTO LEZAMA  ROBERT 00000000495000000000000000000000000000000000000000000011292019093020200229126910500700011PENSION SEP 2019 SJL  *
D081777997014  00162018661       2017/157800    SOTO LEZAMA  ROBERT 00000000495000000000000000000000000000000000000000000008982019103120200229126910500700011PENSION OCT 2019 SJL  *
D081777997014  00162018661       2017/158878    SOTO LEZAMA  ROBERT 00000000495000000000000000000000000000000000000000000006762019113020200229126910500700011PENSION NOV 2019 SJL  *
D081777997014  00162018661       2017/159830    SOTO LEZAMA  ROBERT 00000000495000000000000000000000000000000000000000000005202019122120200229126910500700011PENSION DIC 2019 SJL  *
D081777997014  00174929730       2017/151232    SANCHEZ ESPINOZA  CR00000000540000000000000000000000000000000000000000000027142019033120200229126910500700028PENSION MAR 2019 SJL  *
D081777997014  00174929730       2017/152254    SANCHEZ ESPINOZA  CR00000000540000000000000000000000000000000000000000000024712019043020200229126910500700028PENSION ABR 2019 SJL  *
D081777997014  00174929730       2017/153229    SANCHEZ ESPINOZA  CR00000000540000000000000000000000000000000000000000000022192019053120200229126910500700028PENSION MAY 2019 SJL  *
D081777997014  00174929730       2017/154298    SANCHEZ ESPINOZA  CR00000000540000000000000000000000000000000000000000000019762019063020200229126910500700028PENSION JUN 2019 SJL  *
D081777997014  00174929730       2017/154962    SANCHEZ ESPINOZA  CR00000000540000000000000000000000000000000000000000000017252019073120200229126910500700028PENSION JUL 2019 SJL  *
D081777997014  00174929730       2017/156342    SANCHEZ ESPINOZA  CR00000000540000000000000000000000000000000000000000000014742019083120200229126910500700028PENSION AGO 2019 SJL  *
D081777997014  00174929730       2017/157364    SANCHEZ ESPINOZA  CR00000000540000000000000000000000000000000000000000000012312019093020200229126910500700028PENSION SEP 2019 SJL  *
D081777997014  00174929730       2017/158386    SANCHEZ ESPINOZA  CR00000000540000000000000000000000000000000000000000000009802019103120200229126910500700028PENSION OCT 2019 SJL  *
D081777997014  00174929730       2017/158567    SANCHEZ ESPINOZA  CR00000000540000000000000000000000000000000000000000000007372019113020200229126910500700028PENSION NOV 2019 SJL  *
D081777997014  00174929730       2017/160415    SANCHEZ ESPINOZA  CR00000000540000000000000000000000000000000000000000000005672019122120200229126910500700028PENSION DIC 2019 SJL  *
D081777997014  00175027753       2017/152830    SOTO LEZAMA  RODRIGO00000000550000000000000000000000000000000000000000000022612019053120200229126910500700039PENSION MAY 2019 SJL  *
D081777997014  00175027753       2017/153871    SOTO LEZAMA  RODRIGO00000000550000000000000000000000000000000000000000000020132019063020200229126910500700039PENSION JUN 2019 SJL  *
D081777997014  00175027753       2017/154528    SOTO LEZAMA  RODRIGO00000000550000000000000000000000000000000000000000000017572019073120200229126910500700039PENSION JUL 2019 SJL  *
D081777997014  00175027753       2017/155907    SOTO LEZAMA  RODRIGO00000000550000000000000000000000000000000000000000000015022019083120200229126910500700039PENSION AGO 2019 SJL  *
D081777997014  00175027753       2017/156847    SOTO LEZAMA  RODRIGO00000000550000000000000000000000000000000000000000000012542019093020200229126910500700039PENSION SEP 2019 SJL  *
D081777997014  00175027753       2017/157940    SOTO LEZAMA  RODRIGO00000000550000000000000000000000000000000000000000000009982019103120200229126910500700039PENSION OCT 2019 SJL  *
D081777997014  00175027753       2017/159122    SOTO LEZAMA  RODRIGO00000000550000000000000000000000000000000000000000000007512019113020200229126910500700039PENSION NOV 2019 SJL  *
D081777997014  00175027753       2017/159984    SOTO LEZAMA  RODRIGO00000000550000000000000000000000000000000000000000000005782019122120200229126910500700039PENSION DIC 2019 SJL  *
D081777997014  00161392122       2017/150926    DIAZ PUMA  RAYDEL MA00000000550000000000000000000000000000000000000000000027642019033120200229127420500700028PENSION MAR 2019 SJL  *
D081777997014  00161392122       2017/151948    DIAZ PUMA  RAYDEL MA00000000550000000000000000000000000000000000000000000025162019043020200229127420500700028PENSION ABR 2019 SJL  *
D081777997014  00161392122       2017/152970    DIAZ PUMA  RAYDEL MA00000000550000000000000000000000000000000000000000000022612019053120200229127420500700028PENSION MAY 2019 SJL  *
D081777997014  00161392122       2017/153992    DIAZ PUMA  RAYDEL MA00000000550000000000000000000000000000000000000000000000002020063020200229127420500700028PENSION JUN 2019 SJL  *
D081777997014  00161392122       2017/154657    DIAZ PUMA  RAYDEL MA00000000550000000000000000000000000000000000000000000000002020073120200229127420500700028PENSION JUL 2019 SJL  *
D081777997014  00161392122       2017/156036    DIAZ PUMA  RAYDEL MA00000000550000000000000000000000000000000000000000000000002020083120200229127420500700028PENSION AGO 2019 SJL  *
D081777997014  00161392122       2017/157058    DIAZ PUMA  RAYDEL MA00000000550000000000000000000000000000000000000000000000002020093020200229127420500700028PENSION SEP 2019 SJL  *
D081777997014  00161392122       2017/158045    DIAZ PUMA  RAYDEL MA00000000550000000000000000000000000000000000000000000000002020103120200229127420500700028PENSION OCT 2019 SJL  *
D081777997014  00161392122       2017/159262    DIAZ PUMA  RAYDEL MA00000000550000000000000000000000000000000000000000000000002020113020200229127420500700028PENSION NOV 2019 SJL  *
D081777997014  00161392122       2017/160124    DIAZ PUMA  RAYDEL MA00000000550000000000000000000000000000000000000000000000002020122120200229127420500700028PENSION DIC 2019 SJL  *
T081777997014  00101PENSION                       081777997014  000000001176612                                                                                                    *
T081777997014  00102PENSION SAN JUAN              081777997014  000000002356032                                                                                                    *
T081777997014  00103PENSION                       081777997014  000000000566394                                                                                                    *
H081777997014  003000003500000000205990000000000000020200229                                                                                                                       *
D081777997014  00374136779       2017/78245080  PEREZ TENORIO  LEAND00000000670000000000000000000000000000000000000000000000002020033120200229120140500700050MATRICULA COL         *
D081777997014  00377182862       2017/80016526  QUISPE LUIS  ARIADNE00000000560000000000000000000000000000000000000000000000002020033120200229120200500700019MATRICULA CAR         *
D081777997014  00370646836       2017/80016543  MEJIA OLIVERA  ARIAN00000000550000000000000000000000000000000000000000000000002020033120200229120210500700006INSCRIPCION CAR       *
D081777997014  00375667223       2017/162149    PINTO POCOHUANCA  PA00000000570000000000000000000000000000000000000000000000002020033120200229120360500700024MATRICULA SJL         *
D081777997014  00378073118       2017/80016570  HIPOLITO TAPIA  THYA00000000560000000000000000000000000000000000000000000000002020033120200229120920500700036MATRICULA CAR         *
D081777997014  00378073118       2017/80016571  HIPOLITO TAPIA  THYA00000000350000000000000000000000000000000000000000000000002020033120200229120920500700036INSCRIPCION CAR       *
D081777997014  00373560442       2017/162147    ARONI VARGAS  BIANCA00000000570000000000000000000000000000000000000000000000002020033120200229121440500700007MATRICULA SJL         *
D081777997014  00374250884       2017/162140    ARIAS RAMOS  ANGHI C00000000570000000000000000000000000000000000000000000000002020033120200229121440500700008MATRICULA SJL         *
D081777997014  00361107849       2017/78245041  CUBAS MEJIA  JIAMPIE00000000670000000000000000000000000000000000000000000000002020033120200229221770500700010MATRICULA COL         *
D081777997014  00373842220       2017/80016601  COPARA MEJIA  ALEJAN00000000560000000000000000000000000000000000000000000000002020033120200229121910500700001INSCRIPCION CAR       *
D081777997014  00374682637       2017/80016602  COPARA MEJIA  JOAQUI00000000560000000000000000000000000000000000000000000000002020033120200229121910500700002INSCRIPCION CAR       *
D081777997014  00376588645       2017/78245073  BARRIOS RAMIREZ  ALE00000000670000000000000000000000000000000000000000000000002020033120200229122160500700026MATRICULA COL         *
D081777997014  00377790394       2017/78245010  BARRIOS RIVERA  ZOE 00000000580000000000000000000000000000000000000000000000002020033120200229122160500700027MATRICULA COL         *
D081777997014  00377206691       2017/78245075  MARTINEZ MAMANI  FRA00000000670000000000000000000000000000000000000000000000002020033120200229122240500700029MATRICULA COL         *
D081777997014  00377956530       2017/162111    LLANOS ZAPATA  ALESS00000000350000000000000000000000000000000000000000000000002020033120200229122470500700023INSCRIPCION SJL       *
D081777997014  00377956530       2017/162112    LLANOS ZAPATA  ALESS00000000570000000000000000000000000000000000000000000000002020033120200229122470500700023MATRICULA SJL         *
D081777997014  00361290917       2017/162120    TANTARUNA PINEDA  NA00000000570000000000000000000000000000000000000000000000002020033120200229122470500700025MATRICULA SJL         *
D081777997014  00371186902       2017/78245079  GONAS CALDERON  ADRI00000000670000000000000000000000000000000000000000000000002020033120200229122540500700037MATRICULA COL         *
D081777997014  00372738865       2017/78245006  SOLANO PINEDO  EMYR 00000000670000000000000000000000000000000000000000000000002020033120200229122540500700047MATRICULA COL         *
D081777997014  00377120575       2017/78245053  MALDONADO CASTRO  ST00000000670000000000000000000000000000000000000000000000002020033120200229124280500700048MATRICULA COL         *
D081777997014  00371962516       2017/78245081  DURAN CARRANZA  LIND00000000670000000000000000000000000000000000000000000000002020033120200229124450500700057MATRICULA COL         *
D081777997014  00372599482       2017/78245082  DURAN CARRANZA  WILL00000000670000000000000000000000000000000000000000000000002020033120200229124450500700058MATRICULA COL         *
D081777997014  00373772618       2017/78245008  BECERRA ACOSTA  MELA00000000670000000000000000000000000000000000000000000000002020033120200229126570500700039MATRICULA COL         *
D081777997014  00377104438       2017/78245024  HERRERA DIAZ  MAKARE00000000670000000000000000000000000000000000000000000000002020033120200229126800500700011MATRICULA COL         *
D081777997014  00370627734       2017/162152    ATACHAO QUISPE  FERN00000000570000000000000000000000000000000000000000000000002020033120200229126860500700004MATRICULA SJL         *
D081777997014  00373846768       2017/162148    DELGADO PEREZ  CAMIL00000000570000000000000000000000000000000000000000000000002020033120200229126910500700031MATRICULA SJL         *
D081777997014  00361392122       2017/162155    DIAZ PUMA  RAYDEL MA00000000570000000000000000000000000000000000000000000000002020033120200229126910500700041MATRICULA SJL         *
D081777997014  00374929730       2017/162156    SANCHEZ ESPINOZA  CR00000000570000000000000000000000000000000000000000000000002020033120200229126910500700043MATRICULA SJL         *
D081777997014  00377382640       2017/162110    VERA CALZADA  ALISSO00000000570000000000000000000000000000000000000000000000002020033120200229127420500700004MATRICULA SJL         *
D081777997014  00377577709       2017/162113    SATALAY AYALA  GENES00000000399000000000000000000000000000000000000000000000002020033120200229127420500700008MATRICULA SJL         *
D081777997014  00370463541       2017/78245049  APAZA BOCANEGRA  ELI00000000670000000000000000000000000000000000000000000000002020033120200229227844651003729MATRICULA COL         *
D081777997014  00375507547       2017/78245076  DE LOS SANTOS PEQUEN00000000670000000000000000000000000000000000000000000000002020033120200229227844651007499MATRICULA COL         *
D081777997014  00378724052       2017/78245077  PASTOR LLANOS  LEONA00000000570000000000000000000000000000000000000000000000002020033120200229227844651007723MATRICULA COL         *
D081777997014  00381202421       2017/162151    CORRALES NAVARRO  MA00000000570000000000000000000000000000000000000000000000002020033120200229227844651008416MATRICULA SJL         *
D081777997014  00377625360       2017/78245038  MORA BARRIOS  BEILA 00000000580000000000000000000000000000000000000000000000002020033120200229227844671001576MATRICULA COL         *
T081777997014  00304MATRICULA                     081777997014  000000001044000                                                                                                    *
T081777997014  00306MATRICULA SJL 2020            081777997014  000000000666900                                                                                                    *
T081777997014  00307DERECHO DE INGRESO SJL 2018   081777997014  000000000035000                                                                                                    *
T081777997014  00308MATRICULA 2020 CARABAYLLO     081777997014  000000000279000                                                                                                    *
T081777997014  00309DERECHO DE INGRESO 2020 CARABA081777997014  000000000035000                                                                                                    *
H081777997014  009000000500000000003000000000000000020200229                                                                                                                       *
D081777997014  00976264427       FF20/672       LUME TOVAR  MARIO AL00000000060000000000000000000000000000000000000000000000002020022820200229221350500700012CERT ESTUDIOS SJL FE  *
D081777997014  00960892887       FF20/619       CABANACONZA HERRERA 00000000060000000000000000000000000000000000000000000000002020022820200229121440500700010CERT ESTUDIOS SJL FE  *
D081777997014  00974332418       FF20/618       CABANACONZA HERRERA 00000000060000000000000000000000000000000000000000000000002020022820200229121440500700011CERT ESTUDIOS SJL FE  *
D081777997014  00977019408       FF20/656       NAVARRO BALMACEDA  J00000000060000000000000000000000000000000000000000000000002020022820200229126910500700008CERT ESTUDIOS SJL FE  *
D081777997014  00973586276       FF20/641       SULCA FLORES  JOSHUA00000000060000000000000000000000000000000000000000000000002020022820200229227420500700053CERT ESTUDIOS SJL FE  *
T081777997014  00963CERT ESTUDIOS SJL             081777997014  000000000030000                                                                                                    *
H081777997014  010000000100000000000300000000000000020200229                                                                                                                       *
D081777997014  01070958150       FF20/664       CAPUNAY INONAN  HENR00000000030000000000000000000000000000000000000000000000002020022820200229227844651000790CCIA NO ADEUDOSJL FE  *
T081777997014  01064CCIA NO ADEUDOSJL             081777997014  000000000003000                                                                                                    *
