H081777997014  001000003000000000175630300000000000020200224                                                                                                                       *
D081777997014  00174026155       2017/80015002  BRONCANO SALINAS  JE00000000540000000000000000000000000000000000000000000005272019122120200224120210500700102PENSION DIC 2019 CAR  *
D081777997014  00176569707       2017/78241163  ESPINOZA BOBBIO  ANG00000000576000000000000000000000000000000000000000000007432019113020200224122540500700080PENSION NOV 2019 COL  *
D081777997014  00176569707       2017/78242350  ESPINOZA BOBBIO  ANG00000000576000000000000000000000000000000000000000000005622019122120200224122540500700080PENSION DIC 2019 COL  *
D081777997014  00171364075       2017/78241326  ESPINOZA BOBBIO  MEL00000000640000000000000000000000000000000000000000000008262019113020200224122540500700081PENSION NOV 2019 COL  *
D081777997014  00171364075       2017/78242570  ESPINOZA BOBBIO  MEL00000000640000000000000000000000000000000000000000000006242019122120200224122540500700081PENSION DIC 2019 COL  *
D081777997014  00174563215       2017/78240994  FERNANDEZ ENCISO  SE00000000640000000000000000000000000000000000000000000008262019113020200224123720500700010PENSION NOV 2019 COL  *
D081777997014  00174563215       2017/78242209  FERNANDEZ ENCISO  SE00000000640000000000000000000000000000000000000000000006242019122120200224123720500700010PENSION DIC 2019 COL  *
D081777997014  00170620083       2017/152107    ESTRADA LITANO  NAYD00000000540000000000000000000000000000000000000000000024302019043020200224126910500700013PENSION ABR 2019 SJL  *
D081777997014  00170620083       2017/153138    ESTRADA LITANO  NAYD00000000540000000000000000000000000000000000000000000021792019053120200224126910500700013PENSION MAY 2019 SJL  *
D081777997014  00170620083       2017/154160    ESTRADA LITANO  NAYD00000000540000000000000000000000000000000000000000000019362019063020200224126910500700013PENSION JUN 2019 SJL  *
D081777997014  00170620083       2017/154825    ESTRADA LITANO  NAYD00000000540000000000000000000000000000000000000000000016852019073120200224126910500700013PENSION JUL 2019 SJL  *
D081777997014  00170620083       2017/156204    ESTRADA LITANO  NAYD00000000540000000000000000000000000000000000000000000014342019083120200224126910500700013PENSION AGO 2019 SJL  *
D081777997014  00170620083       2017/157226    ESTRADA LITANO  NAYD00000000540000000000000000000000000000000000000000000011912019093020200224126910500700013PENSION SEP 2019 SJL  *
D081777997014  00170620083       2017/158226    ESTRADA LITANO  NAYD00000000540000000000000000000000000000000000000000000009402019103120200224126910500700013PENSION OCT 2019 SJL  *
D081777997014  00170620083       2017/159430    ESTRADA LITANO  NAYD00000000540000000000000000000000000000000000000000000006972019113020200224126910500700013PENSION NOV 2019 SJL  *
D081777997014  00178443341       2017/150451    GALINDO SANTOS  MARK00000000560000000000000000000000000000000000000000000027722019033120200224127420500700037PENSION MAR 2019 SJL  *
D081777997014  00178443341       2017/151422    GALINDO SANTOS  MARK00000000560000000000000000000000000000000000000000000025202019043020200224127420500700037PENSION ABR 2019 SJL  *
D081777997014  00178443341       2017/152506    GALINDO SANTOS  MARK00000000560000000000000000000000000000000000000000000022602019053120200224127420500700037PENSION MAY 2019 SJL  *
D081777997014  00178508595       2017/153575    YALLE MORENO  NIKOLA00000000560000000000000000000000000000000000000000000020082019063020200224127420500700060PENSION JUN 2019 SJL  *
D081777997014  00178508595       2017/155041    YALLE MORENO  NIKOLA00000000560000000000000000000000000000000000000000000017472019073120200224127420500700060PENSION JUL 2019 SJL  *
D081777997014  00178508595       2017/155430    YALLE MORENO  NIKOLA00000000560000000000000000000000000000000000000000000014872019083120200224127420500700060PENSION AGO 2019 SJL  *
D081777997014  00178508595       2017/156473    YALLE MORENO  NIKOLA00000000560000000000000000000000000000000000000000000012352019093020200224127420500700060PENSION SEP 2019 SJL  *
D081777997014  00178508595       2017/157627    YALLE MORENO  NIKOLA00000000560000000000000000000000000000000000000000000009742019103120200224127420500700060PENSION OCT 2019 SJL  *
D081777997014  00178508595       2017/158849    YALLE MORENO  NIKOLA00000000560000000000000000000000000000000000000000000007222019113020200224127420500700060PENSION NOV 2019 SJL  *
D081777997014  00178508595       2017/159803    YALLE MORENO  NIKOLA00000000560000000000000000000000000000000000000000000005462019122120200224127420500700060PENSION DIC 2019 SJL  *
D081777997014  00170463541       2017/78241843  APAZA BOCANEGRA  ELI00000000640000000000000000000000000000000000000000000006242019122120200224227844651005294PENSION DIC 2019 COL  *
D081777997014  00174241721       FF19/1544      DAVALOS ARTEAGA  JAI00000000640000000000000000000000000000000000000000000011142019103120200224227844651007319PENSION OCT 2019 COL  *
D081777997014  00175297614       2017/78242533  MONTES VASQUEZ  LUCA00000000640000000000000000000000000000000000000000000006242019122120200224227844651008967PENSION DIC 2019 COL  *
D081777997014  00161934798       2017/159253    CAPCHA NIETO  ANTONE00000000550000000000000000000000000000000000000000000007102019113020200224129470500700026PENSION NOV 2019 SJL  *
D081777997014  00161934798       2017/160115    CAPCHA NIETO  ANTONE00000000550000000000000000000000000000000000000000000005362019122120200224129470500700026PENSION DIC 2019 SJL  *
T081777997014  00101PENSION                       081777997014  000000000569767                                                                                                    *
T081777997014  00102PENSION SAN JUAN              081777997014  000000001132009                                                                                                    *
T081777997014  00103PENSION                       081777997014  000000000054527                                                                                                    *
H081777997014  003000000600000000034000000000000000020200224                                                                                                                       *
D081777997014  00378657455       2017/78244737  CHUPAN ESPINOZA  MAT00000000670000000000000000000000000000000000000000000000002020022820200224121770500700047MATRICULA COL         *
D081777997014  00378562441       2017/78244884  ESQUIVEL GILES  FLAV00000000570000000000000000000000000000000000000000000000002020022820200224124450500700107MATRICULA COL         *
D081777997014  00361787165       2017/78244874  RABANAL SUMARAN  SAI00000000670000000000000000000000000000000000000000000000002020022820200224126610500700072MATRICULA COL         *
D081777997014  00361883862       2017/162071    NISHIKY PEREZ  KAZUK00000000570000000000000000000000000000000000000000000000002020022820200224126910500700076MATRICULA SJL         *
D081777997014  00378756177       2017/78244891  CARDENAS TEJADA  ADR00000000570000000000000000000000000000000000000000000000002020022820200224227844651012382MATRICULA COL         *
D081777997014  00378756177       2017/78244892  CARDENAS TEJADA  ADR00000000350000000000000000000000000000000000000000000000002020022820200224227844651012383INSCRIPCION COL       *
T081777997014  00304MATRICULA                     081777997014  000000000248000                                                                                                    *
T081777997014  00305DERECHO DE INGRESO COL        081777997014  000000000035000                                                                                                    *
T081777997014  00306MATRICULA SJL 2020            081777997014  000000000057000                                                                                                    *
H081777997014  007000000100000000000250000000000000020200224                                                                                                                       *
D081777997014  00775107787       FF20/589       GUERRERO JIMENEZ  NA00000000025000000000000000000000000000000000000000000000002020022820200224126910500700034EXCELENCIA ACAD SJL   *
T081777997014  00761EXCELENCIA ACAD SJL           081777997014  000000000002500                                                                                                    *
H081777997014  009000000200000000001200000000000000020200224                                                                                                                       *
D081777997014  00971151566       FF20/563       ITURRIZAGA MARROQUIN00000000060000000000000000000000000000000000000000000000002020022820200224123290500700002CERT ESTUDIO COL FEB  *
D081777997014  00948464379       FF20/588       SABA VASQUEZ  WENDY 00000000060000000000000000000000000000000000000000000000002020022820200224227844651014843CERT ESTUDIO COL FEB  *
T081777997014  00929CERT ESTUDIO-COL              081777997014  000000000012000                                                                                                    *
H081777997014  010000000100000000000300000000000000020200224                                                                                                                       *
D081777997014  01071151566       FF20/562       ITURRIZAGA MARROQUIN00000000030000000000000000000000000000000000000000000000002020022820200224123290500700003CCIA NO ADEUDO COL F  *
T081777997014  01028CCIA NO ADEUDO COL            081777997014  000000000003000                                                                                                    *
H081777997014  012000000500000000001500000000000000020200224                                                                                                                       *
D081777997014  01272884885       FF20/278       TUESTA BARCENES  ALE00000000030000000000000000000000000000000000000000000000002020013120200224220810500700022PRA ACAD CARABAYLLO   *
D081777997014  01272372528       FF20/526       NUNEZ CASTRO  JOAQUI00000000030000000000000000000000000000000000000000000000002020022820200224124450500700031PRA ACAD CARABAYLLO   *
D081777997014  01272372528       FF20/527       NUNEZ CASTRO  JOAQUI00000000030000000000000000000000000000000000000000000000002020022820200224124450500700031PRA ACAD CARABAYLLO   *
D081777997014  01272372528       FF20/528       NUNEZ CASTRO  JOAQUI00000000030000000000000000000000000000000000000000000000002020022820200224124450500700031PRA ACAD CARABAYLLO   *
D081777997014  01272552558       FF20/525       NANEZ LINARES  HAROL00000000030000000000000000000000000000000000000000000000002020022820200224127020500700053PRA ACAD CARABAYLLO   *
T081777997014  01210PRA ACAD CARABAYLLO           081777997014  000000000015000                                                                                                    *
