H081777997014  001000004800000000266562000000000000020200121                                                                                                                       *
D081777997014  00171422197       2017/78240048  ANICAMA ENRIQUES  SE00000000576000000000000000000000000000000000000000000007082019103120200121120140500700105PENSION OCT 2019 COL  *
D081777997014  00171422197       2017/78240791  ANICAMA ENRIQUES  SE00000000576000000000000000000000000000000000000000000004492019113020200121120140500700105PENSION NOV 2019 COL  *
D081777997014  00171422197       2017/78242096  ANICAMA ENRIQUES  SE00000000576000000000000000000000000000000000000000000002682019122120200121120140500700105PENSION DIC 2019 COL  *
D081777997014  00161333044       2017/78241180  ANICAMA ENRIQUES  LA00000000640000000000000000000000000000000000000000000004992019113020200121120140500700106PENSION NOV 2019 COL  *
D081777997014  00161333044       2017/78242395  ANICAMA ENRIQUES  LA00000000640000000000000000000000000000000000000000000002982019122120200121120140500700106PENSION DIC 2019 COL  *
D081777997014  00160978601       2017/80014972  MEDINA VICUNA  ROMIN00000000540000000000000000000000000000000000000000000002512019122120200121220200500700059PENSION DIC 2019 CAR  *
D081777997014  00175496368       2017/80015239  CUEVA CHUMBIRAY  CAM00000000459000000000000000000000000000000000000000000005652019103120200121120210500700044PENSION OCT 2019 CAR  *
D081777997014  00175496368       2017/80015240  CUEVA CHUMBIRAY  CAM00000000459000000000000000000000000000000000000000000003582019113020200121120210500700044PENSION NOV 2019 CAR  *
D081777997014  00175496368       2017/80015241  CUEVA CHUMBIRAY  CAM00000000459000000000000000000000000000000000000000000002132019122120200121120210500700044PENSION DIC 2019 CAR  *
D081777997014  00175667223       2017/151052    PINTO POCOHUANCA  PA00000000540000000000000000000000000000000000000000000023982019033120200121120360500700018PENSION MAR 2019 SJL  *
D081777997014  00175667223       2017/152095    PINTO POCOHUANCA  PA00000000540000000000000000000000000000000000000000000021552019043020200121120360500700019PENSION ABR 2019 SJL  *
D081777997014  00177899251       2017/80015765  FLORES OCHOA  CLAUDI00000000550000000000000000000000000000000000000000000016912019063020200121120810500700025PENSION JUN 2019 CAR  *
D081777997014  00177899251       2017/80015766  FLORES OCHOA  CLAUDI00000000550000000000000000000000000000000000000000000014362019073120200121120810500700026PENSION JUL 2019 CAR  *
D081777997014  00177899251       2017/80015767  FLORES OCHOA  CLAUDI00000000550000000000000000000000000000000000000000000011802019083120200121120810500700027PENSION AGO 2019 CAR  *
D081777997014  00177899251       2017/80015768  FLORES OCHOA  CLAUDI00000000550000000000000000000000000000000000000000000009322019093020200121120810500700028PENSION SEP 2019 CAR  *
D081777997014  00177899251       2017/80015769  FLORES OCHOA  CLAUDI00000000550000000000000000000000000000000000000000000006772019103120200121120810500700029PENSION OCT 2019 CAR  *
D081777997014  00177899251       2017/80015770  FLORES OCHOA  CLAUDI00000000550000000000000000000000000000000000000000000004292019113020200121120810500700030PENSION NOV 2019 CAR  *
D081777997014  00177899251       2017/80015771  FLORES OCHOA  CLAUDI00000000550000000000000000000000000000000000000000000002562019122120200121120810500700031PENSION DIC 2019 CAR  *
D081777997014  00179529943       2017/158824    RAMIREZ ZARATE  MATI00000000392000000000000000000000000000000000000000000003062019113020200121122390500700022PENSION NOV 2019 SJL  *
D081777997014  00179529943       2017/159764    RAMIREZ ZARATE  MATI00000000392000000000000000000000000000000000000000000001822019122120200121122390500700022PENSION DIC 2019 SJL  *
D081777997014  00171732622       2017/78240790  CORTEZ ESCARATE  MAR00000000640000000000000000000000000000000000000000000004992019113020200121122540500700020PENSION NOV 2019 COL  *
D081777997014  00171732622       2017/78242095  CORTEZ ESCARATE  MAR00000000640000000000000000000000000000000000000000000002982019122120200121122540500700020PENSION DIC 2019 COL  *
D081777997014  00174477187       2017/78240428  SIFUENTES TORRES  AR00000000640000000000000000000000000000000000000000000007872019103120200121122540500700047PENSION OCT 2019 COL  *
D081777997014  00178410154       2017/155441    RIO GUEVARA  RENATA 00000000560000000000000000000000000000000000000000000012012019083120200121122640500700089PENSION AGO 2019 SJL  *
D081777997014  00178410154       2017/156484    RIO GUEVARA  RENATA 00000000560000000000000000000000000000000000000000000009492019093020200121122640500700089PENSION SEP 2019 SJL  *
D081777997014  00178410154       2017/157638    RIO GUEVARA  RENATA 00000000560000000000000000000000000000000000000000000006892019103120200121122640500700089PENSION OCT 2019 SJL  *
D081777997014  00178410154       2017/158860    RIO GUEVARA  RENATA 00000000560000000000000000000000000000000000000000000004372019113020200121122640500700089PENSION NOV 2019 SJL  *
D081777997014  00178410154       2017/159575    RIO GUEVARA  RENATA 00000000560000000000000000000000000000000000000000000002602019122120200121122640500700089PENSION DIC 2019 SJL  *
D081777997014  00176051599       2017/78241056  MONTES VASQUEZ  DAYR00000000576000000000000000000000000000000000000000000004492019113020200121126300500700086PENSION NOV 2019 COL  *
D081777997014  00176051599       2017/78242228  MONTES VASQUEZ  DAYR00000000576000000000000000000000000000000000000000000002682019122120200121126300500700086PENSION DIC 2019 COL  *
D081777997014  00175041396       2017/158748    ROMERO CERON  ASHLY 00000000550000000000000000000000000000000000000000000004292019113020200121126860500700003PENSION NOV 2019 SJL  *
D081777997014  00175041396       2017/159691    ROMERO CERON  ASHLY 00000000550000000000000000000000000000000000000000000002562019122120200121126860500700003PENSION DIC 2019 SJL  *
D081777997014  00171149256       2017/158392    JULCAMORO RAMOS  JOH00000000486000000000000000000000000000000000000000000005982019103120200121126910500700045PENSION OCT 2019 SJL  *
D081777997014  00171149256       2017/158539    JULCAMORO RAMOS  JOH00000000486000000000000000000000000000000000000000000003792019113020200121126910500700045PENSION NOV 2019 SJL  *
D081777997014  00174868057       2017/158325    HERMENEGILDO SANTA C00000000540000000000000000000000000000000000000000000006642019103120200121127420500700083PENSION OCT 2019 SJL  *
D081777997014  00174868057       2017/158485    HERMENEGILDO SANTA C00000000540000000000000000000000000000000000000000000004212019113020200121127420500700083PENSION NOV 2019 SJL  *
D081777997014  00174868057       2017/160369    HERMENEGILDO SANTA C00000000540000000000000000000000000000000000000000000002512019122120200121127420500700083PENSION DIC 2019 SJL  *
D081777997014  00176094573       2017/158603    VEGA FELIX  ALONSO W00000000486000000000000000000000000000000000000000000003792019113020200121127420500700098PENSION NOV 2019 SJL  *
D081777997014  00176094573       2017/160487    VEGA FELIX  ALONSO W00000000486000000000000000000000000000000000000000000002262019122120200121127420500700098PENSION DIC 2019 SJL  *
D081777997014  00161454243       2017/154512    MONROY ESTEBAN  ADRI00000000550000000000000000000000000000000000000000000014362019073120200121227844651001118PENSION JUL 2019 SJL  *
D081777997014  00170733870       2017/78239465  CESPEDES PASAPERA  S00000000640000000000000000000000000000000000000000000007872019103120200121227844651009155PENSION OCT 2019 COL  *
D081777997014  00170733870       2017/78241250  CESPEDES PASAPERA  S00000000640000000000000000000000000000000000000000000004992019113020200121227844651009156PENSION NOV 2019 COL  *
D081777997014  00170733870       2017/78242462  CESPEDES PASAPERA  S00000000640000000000000000000000000000000000000000000002982019122120200121227844651009896PENSION DIC 2019 COL  *
D081777997014  00177165929       2017/156400    CASTILLO MUNAREZ  EL00000000540000000000000000000000000000000000000000000011582019083120200121227844651011040PENSION AGO 2019 SJL  *
D081777997014  00177165929       2017/157422    CASTILLO MUNAREZ  EL00000000540000000000000000000000000000000000000000000009152019093020200121227844651011042PENSION SEP 2019 SJL  *
D081777997014  00177165929       2017/158452    CASTILLO MUNAREZ  EL00000000540000000000000000000000000000000000000000000006642019103120200121227844651011044PENSION OCT 2019 SJL  *
D081777997014  00177165929       2017/158604    CASTILLO MUNAREZ  EL00000000540000000000000000000000000000000000000000000004212019113020200121227844651011048PENSION NOV 2019 SJL  *
D081777997014  00177165929       2017/160488    CASTILLO MUNAREZ  EL00000000540000000000000000000000000000000000000000000002512019122120200121227844651011049PENSION DIC 2019 SJL  *
T081777997014  00101PENSION                       081777997014  000000000806107                                                                                                    *
T081777997014  00102PENSION SAN JUAN              081777997014  000000001274825                                                                                                    *
T081777997014  00103PENSION                       081777997014  000000000584688                                                                                                    *
H081777997014  003000001400000000074300000000000000020200121                                                                                                                       *
D081777997014  00377855627       2017/78244407  INFANTES RODRIGUEZ  00000000580000000000000000000000000000000000000000000000002020013120200121120140500700047MATRICULA COL         *
D081777997014  00377855627       2017/78244408  INFANTES RODRIGUEZ  00000000350000000000000000000000000000000000000000000000002020013120200121120140500700047INSCRIPCION COL       *
D081777997014  00362051059       2017/78244423  MARCA VALLADARES  AZ00000000670000000000000000000000000000000000000000000000002020013120200121120340500700078MATRICULA COL         *
D081777997014  00390084890       2017/161791    CANCHO MAZA  FRANCIS00000000570000000000000000000000000000000000000000000000002020013120200121122470500700027MATRICULA SJL         *
D081777997014  00390084890       2017/161792    CANCHO MAZA  FRANCIS00000000350000000000000000000000000000000000000000000000002020013120200121122470500700027INSCRIPCION SJL       *
D081777997014  00360780878       2017/161801    BRAVO DAVILA  MILAGR00000000570000000000000000000000000000000000000000000000002020013120200121122470500700082MATRICULA SJL         *
D081777997014  00379221060       2017/161814    TAPIA SANCHEZ  FABRI00000000350000000000000000000000000000000000000000000000002020013120200121122630500700070INSCRIPCION SJL       *
D081777997014  00379221060       2017/161815    TAPIA SANCHEZ  FABRI00000000570000000000000000000000000000000000000000000000002020013120200121122630500700070MATRICULA SJL         *
D081777997014  00371179605       2017/161794    PELAYO CANCINO  DANI00000000570000000000000000000000000000000000000000000000002020013120200121126860500700001MATRICULA SJL         *
D081777997014  00378757921       2017/161795    PELAYO CANCINO  DANI00000000570000000000000000000000000000000000000000000000002020013120200121126860500700002MATRICULA SJL         *
D081777997014  00376758199       2017/161806    USCUVILCA GALICIA  A00000000570000000000000000000000000000000000000000000000002020013120200121126860500700010MATRICULA SJL         *
D081777997014  00373716697       2017/161807    USCUVILCA GALICIA  N00000000570000000000000000000000000000000000000000000000002020013120200121126860500700011MATRICULA SJL         *
D081777997014  00377403005       2017/161778    DIAZ RIVERO  ALEJAND00000000570000000000000000000000000000000000000000000000002020013120200121126910500700052MATRICULA SJL         *
D081777997014  00362048527       2017/161796    ZEVALLOS HIHUALLANCA00000000570000000000000000000000000000000000000000000000002020013120200121227844671000288MATRICULA SJL         *
T081777997014  00304MATRICULA                     081777997014  000000000125000                                                                                                    *
T081777997014  00305DERECHO DE INGRESO COL        081777997014  000000000035000                                                                                                    *
T081777997014  00306MATRICULA SJL 2020            081777997014  000000000513000                                                                                                    *
T081777997014  00307DERECHO DE INGRESO SJL 2018   081777997014  000000000070000                                                                                                    *
H081777997014  009000000400000000002400000000000000020200121                                                                                                                       *
D081777997014  00977421515       FF20/177       BUTRON AYALA  ANA LU00000000060000000000000000000000000000000000000000000000002020013120200121124450500700076CERT ESTUDIOS CAR EN  *
D081777997014  00970706055       FF20/224       AYCA REYES  PIERO ED00000000060000000000000000000000000000000000000000000000002020013120200121125350500700110CERT ESTUDIO COL ENE  *
D081777997014  00974271031       FF20/226       YANAC HERNANDEZ  JOS00000000060000000000000000000000000000000000000000000000002020013120200121126910500700021CERT ESTUDIOS SJL EN  *
D081777997014  00975643138       FF20/231       RODRIGUEZ MEDRANO  A00000000060000000000000000000000000000000000000000000000002020013120200121227844651009062CERT ESTUDIOS CAR EN  *
T081777997014  00929CERT ESTUDIO-COL              081777997014  000000000006000                                                                                                    *
T081777997014  00963CERT ESTUDIOS SJL             081777997014  000000000006000                                                                                                    *
T081777997014  00999CERT ESTUDIOS-CAR             081777997014  000000000012000                                                                                                    *
H081777997014  010000000100000000000300000000000000020200121                                                                                                                       *
D081777997014  01075643138       FF20/232       RODRIGUEZ MEDRANO  A00000000030000000000000000000000000000000000000000000000002020013120200121227844651008988CCIA NO ADEUDO CAR E  *
T081777997014  01010CCIA NO ADEUDO CAR            081777997014  000000000003000                                                                                                    *
H081777997014  012000000500000000001500000000000000020200121                                                                                                                       *
D081777997014  01273610363       FF20/193       TUCTO ANICAMA  JHARE00000000030000000000000000000000000000000000000000000000002020013120200121121930500700044PRA ACAD SJL ENE 202  *
D081777997014  01273610363       FF20/194       TUCTO ANICAMA  JHARE00000000030000000000000000000000000000000000000000000000002020013120200121121930500700044PRA ACAD SJL ENE 202  *
D081777997014  01261433190       FF20/236       ARONES TEJADA  KIARA00000000030000000000000000000000000000000000000000000000002020013120200121122470500700084PRA ACAD SJL ENE 202  *
D081777997014  01272215232       FF20/225       CORTEZ URRUTIA  AIDA00000000030000000000000000000000000000000000000000000000002020013120200121127420500700087PRA ACAD SJL ENE 202  *
D081777997014  01277111063       FF20/216       FIGUEROA QUINTANILLA00000000030000000000000000000000000000000000000000000000002020013120200121129340500700005PRA ACAD SJL ENE 202  *
T081777997014  01266PRA ACAD SJL                  081777997014  000000000015000                                                                                                    *
