H081777997014  001000005500000000310728000000000000020200218                                                                                                                       *
D081777997014  00170627734       2017/154945    ATACHAO QUISPE  FERN00000000540000000000000000000000000000000000000000000016362019073120200218120580500700044PENSION JUL 2019 SJL  *
D081777997014  00170627734       2017/156325    ATACHAO QUISPE  FERN00000000540000000000000000000000000000000000000000000013852019083120200218120580500700044PENSION AGO 2019 SJL  *
D081777997014  00170627734       2017/157347    ATACHAO QUISPE  FERN00000000540000000000000000000000000000000000000000000011422019093020200218120580500700044PENSION SEP 2019 SJL  *
D081777997014  00170627734       2017/158369    ATACHAO QUISPE  FERN00000000540000000000000000000000000000000000000000000008912019103120200218120580500700044PENSION OCT 2019 SJL  *
D081777997014  00170627734       2017/158529    ATACHAO QUISPE  FERN00000000540000000000000000000000000000000000000000000006482019113020200218120580500700045PENSION NOV 2019 SJL  *
D081777997014  00175456553       2017/78241750  RUJEL ARROYO  DENNIS00000000576000000000000000000000000000000000000000000005102019122120200218120700500700060PENSION DIC 2019 COL  *
D081777997014  00172783600       2017/160645    PAUCAR MONTELLANOS  00000000486000000000000000000000000000000000000000000005832019113020200218122020500700031PENSION NOV 2019 SJL  *
D081777997014  00173552766       2017/160728    ELGUERA VASQUEZ  JOS00000000540000000000000000000000000000000000000000000023812019043020200218122240500700016PENSION ABR 2019 SJL  *
D081777997014  00173552766       2017/160729    ELGUERA VASQUEZ  JOS00000000540000000000000000000000000000000000000000000021302019053120200218122240500700016PENSION MAY 2019 SJL  *
D081777997014  00173552766       2017/160730    ELGUERA VASQUEZ  JOS00000000540000000000000000000000000000000000000000000018872019063020200218122240500700016PENSION JUN 2019 SJL  *
D081777997014  00173552766       2017/160731    ELGUERA VASQUEZ  JOS00000000540000000000000000000000000000000000000000000016362019073120200218122240500700016PENSION JUL 2019 SJL  *
D081777997014  00173552766       2017/160732    ELGUERA VASQUEZ  JOS00000000540000000000000000000000000000000000000000000013852019083120200218122240500700016PENSION AGO 2019 SJL  *
D081777997014  00173552766       2017/160733    ELGUERA VASQUEZ  JOS00000000540000000000000000000000000000000000000000000011422019093020200218122240500700016PENSION SEP 2019 SJL  *
D081777997014  00173552766       2017/160734    ELGUERA VASQUEZ  JOS00000000540000000000000000000000000000000000000000000008912019103120200218122240500700016PENSION OCT 2019 SJL  *
D081777997014  00173552766       2017/160735    ELGUERA VASQUEZ  JOS00000000540000000000000000000000000000000000000000000006482019113020200218122240500700016PENSION NOV 2019 SJL  *
D081777997014  00173552766       2017/160736    ELGUERA VASQUEZ  JOS00000000540000000000000000000000000000000000000000000004782019122120200218122240500700016PENSION DIC 2019 SJL  *
D081777997014  00174884714       2017/154151    HUAMAN ROJAS  ESTEPH00000000486000000000000000000000000000000000000000000016992019063020200218122470500700023PENSION JUN 2019 SJL  *
D081777997014  00174884714       2017/154816    HUAMAN ROJAS  ESTEPH00000000486000000000000000000000000000000000000000000014732019073120200218122470500700023PENSION JUL 2019 SJL  *
D081777997014  00174884714       2017/156195    HUAMAN ROJAS  ESTEPH00000000486000000000000000000000000000000000000000000012472019083120200218122470500700023PENSION AGO 2019 SJL  *
D081777997014  00174884714       2017/157217    HUAMAN ROJAS  ESTEPH00000000486000000000000000000000000000000000000000000010282019093020200218122470500700023PENSION SEP 2019 SJL  *
D081777997014  00174884714       2017/158260    HUAMAN ROJAS  ESTEPH00000000486000000000000000000000000000000000000000000008022019103120200218122470500700023PENSION OCT 2019 SJL  *
D081777997014  00174884714       2017/159421    HUAMAN ROJAS  ESTEPH00000000486000000000000000000000000000000000000000000005832019113020200218122470500700023PENSION NOV 2019 SJL  *
D081777997014  00174884714       2017/160283    HUAMAN ROJAS  ESTEPH00000000486000000000000000000000000000000000000000000004302019122120200218122470500700023PENSION DIC 2019 SJL  *
D081777997014  00178579734       2017/153544    HUAMAN ROJAS  ANTUAN00000000560000000000000000000000000000000000000000000019572019063020200218122470500700025PENSION JUN 2019 SJL  *
D081777997014  00178579734       2017/155184    HUAMAN ROJAS  ANTUAN00000000560000000000000000000000000000000000000000000016972019073120200218122470500700025PENSION JUL 2019 SJL  *
D081777997014  00178579734       2017/155399    HUAMAN ROJAS  ANTUAN00000000560000000000000000000000000000000000000000000014362019083120200218122470500700025PENSION AGO 2019 SJL  *
D081777997014  00178579734       2017/156442    HUAMAN ROJAS  ANTUAN00000000560000000000000000000000000000000000000000000011842019093020200218122470500700025PENSION SEP 2019 SJL  *
D081777997014  00178579734       2017/157596    HUAMAN ROJAS  ANTUAN00000000560000000000000000000000000000000000000000000009242019103120200218122470500700025PENSION OCT 2019 SJL  *
D081777997014  00178579734       2017/158818    HUAMAN ROJAS  ANTUAN00000000560000000000000000000000000000000000000000000006722019113020200218122470500700025PENSION NOV 2019 SJL  *
D081777997014  00178579734       2017/159752    HUAMAN ROJAS  ANTUAN00000000560000000000000000000000000000000000000000000004962019122120200218122470500700025PENSION DIC 2019 SJL  *
D081777997014  00174297593       2017/78235971  CARRASCO SALAZAR  SI00000000640000000000000000000000000000000000000000000019392019073120200218122540500700082PENSION JUL 2019 COL  *
D081777997014  00174297593       2017/78237259  CARRASCO SALAZAR  SI00000000640000000000000000000000000000000000000000000016422019083120200218122540500700082PENSION AGO 2019 COL  *
D081777997014  00174297593       2017/78238344  CARRASCO SALAZAR  SI00000000640000000000000000000000000000000000000000000013542019093020200218122540500700082PENSION SEP 2019 COL  *
D081777997014  00174297593       2017/78240261  CARRASCO SALAZAR  SI00000000640000000000000000000000000000000000000000000010562019103120200218122540500700082PENSION OCT 2019 COL  *
D081777997014  00174297593       2017/78240803  CARRASCO SALAZAR  SI00000000640000000000000000000000000000000000000000000007682019113020200218122540500700082PENSION NOV 2019 COL  *
D081777997014  00174297593       2017/78242108  CARRASCO SALAZAR  SI00000000640000000000000000000000000000000000000000000005662019122120200218122540500700082PENSION DIC 2019 COL  *
D081777997014  00171012481       2017/160265    PORTELLA VERGARAY  D00000000540000000000000000000000000000000000000000000004782019122120200218122640500700119PENSION DIC 2019 SJL  *
D081777997014  00174563215       2017/78240377  FERNANDEZ ENCISO  SE00000000640000000000000000000000000000000000000000000010562019103120200218123720500700003PENSION OCT 2019 COL  *
D081777997014  00172989191       2017/80013696  SALVATIERRA BRIONES 00000000550000000000000000000000000000000000000000000011632019093020200218126790500700025PENSION SEP 2019 CAR  *
D081777997014  00178579734       2017/150449    HUAMAN ROJAS  ANTUAN00000000560000000000000000000000000000000000000000000027222019033120200218126860500700001PENSION MAR 2019 SJL  *
D081777997014  00178579734       2017/151420    HUAMAN ROJAS  ANTUAN00000000560000000000000000000000000000000000000000000024702019043020200218126860500700001PENSION ABR 2019 SJL  *
D081777997014  00178579734       2017/152504    HUAMAN ROJAS  ANTUAN00000000560000000000000000000000000000000000000000000022092019053120200218126860500700001PENSION MAY 2019 SJL  *
D081777997014  00174884714       2017/151055    HUAMAN ROJAS  ESTEPH00000000486000000000000000000000000000000000000000000023622019033120200218126860500700002PENSION MAR 2019 SJL  *
D081777997014  00174884714       2017/152098    HUAMAN ROJAS  ESTEPH00000000486000000000000000000000000000000000000000000021432019043020200218126860500700002PENSION ABR 2019 SJL  *
D081777997014  00174884714       2017/153129    HUAMAN ROJAS  ESTEPH00000000486000000000000000000000000000000000000000000019172019053120200218126860500700002PENSION MAY 2019 SJL  *
D081777997014  00173429600       2017/156099    SANTOS BUENO  MARCIO00000000486000000000000000000000000000000000000000000012472019083120200218126860500700007PENSION AGO 2019 SJL  *
D081777997014  00173429600       2017/157126    SANTOS BUENO  MARCIO00000000486000000000000000000000000000000000000000000010282019093020200218126860500700007PENSION SEP 2019 SJL  *
D081777997014  00173429600       2017/158152    SANTOS BUENO  MARCIO00000000486000000000000000000000000000000000000000000008022019103120200218126860500700007PENSION OCT 2019 SJL  *
D081777997014  00178508595       2017/150480    YALLE MORENO  NIKOLA00000000560000000000000000000000000000000000000000000027222019033120200218127420500700045PENSION MAR 2019 SJL  *
D081777997014  00178508595       2017/151451    YALLE MORENO  NIKOLA00000000560000000000000000000000000000000000000000000024702019043020200218127420500700046PENSION ABR 2019 SJL  *
D081777997014  00178508595       2017/152535    YALLE MORENO  NIKOLA00000000560000000000000000000000000000000000000000000022092019053120200218127420500700047PENSION MAY 2019 SJL  *
D081777997014  00173119412       2017/78240168  TORRES REYES  VICTOR00000000640000000000000000000000000000000000000000000010562019103120200218227844651006781PENSION OCT 2019 COL  *
D081777997014  00173119412       2017/78240861  TORRES REYES  VICTOR00000000640000000000000000000000000000000000000000000007682019113020200218227844651006782PENSION NOV 2019 COL  *
D081777997014  00173119412       2017/78241818  TORRES REYES  VICTOR00000000640000000000000000000000000000000000000000000005662019122120200218227844651006783PENSION DIC 2019 COL  *
D081777997014  00171151566       2017/78242431  ITURRIZAGA MARROQUIN00000000640000000000000000000000000000000000000000000005662019122120200218227844651008816PENSION DIC 2019 COL  *
T081777997014  00101PENSION                       081777997014  000000000773447                                                                                                    *
T081777997014  00102PENSION SAN JUAN              081777997014  000000002277670                                                                                                    *
T081777997014  00103PENSION                       081777997014  000000000056163                                                                                                    *
H081777997014  003000001700000000103200000000000000020200218                                                                                                                       *
D081777997014  00375852646       2017/78244768  PULACHE CRUZ  STEFAN00000000670000000000000000000000000000000000000000000000002020022820200218120160500700008MATRICULA COL         *
D081777997014  00374681196       2017/80016393  BACA QUISPE  FLAVIO 00000000560000000000000000000000000000000000000000000000002020022820200218120210500700017INSCRIPCION CAR       *
D081777997014  00375330044       2017/80016394  BACA QUISPE  RANIA N00000000550000000000000000000000000000000000000000000000002020022820200218120210500700018INSCRIPCION CAR       *
D081777997014  00373200792       2017/78244810  LUIS PENA  ANDRE DAV00000000670000000000000000000000000000000000000000000000002020022820200218120600500700129MATRICULA COL         *
D081777997014  00371681003       2017/78244792  LIVIAS RODRIGUEZ  AD00000000670000000000000000000000000000000000000000000000002020022820200218221770500700046MATRICULA COL         *
D081777997014  00371681003       2017/78244794  LIVIAS RODRIGUEZ  AD00000000350000000000000000000000000000000000000000000000002020022820200218221770500700046INSCRIPCION COL       *
D081777997014  00361140583       2017/78244784  GUARDIA ESPINOZA  EM00000000670000000000000000000000000000000000000000000000002020022820200218122140500700096MATRICULA COL         *
D081777997014  00370531028       2017/80016395  CALDERON CASTRO  FIO00000000550000000000000000000000000000000000000000000000002020022820200218122340500700046INSCRIPCION CAR       *
D081777997014  00375905974       2017/162055    TORRES ALVARADO  DEN00000000570000000000000000000000000000000000000000000000002020022820200218122390500700047MATRICULA SJL         *
D081777997014  00372077440       2017/162048    ANGOSTO MALPARTIDA  00000000570000000000000000000000000000000000000000000000002020022820200218122470500700086MATRICULA SJL         *
D081777997014  00374174077       2017/78244726  CORNEJO NAVARRO  ADR00000000670000000000000000000000000000000000000000000000002020022820200218122540500700013MATRICULA COL         *
D081777997014  00370706111       2017/78244671  GOMEZ CAMPOS  LUCAS 00000000670000000000000000000000000000000000000000000000002020022820200218122540500700021MATRICULA COL         *
D081777997014  00361131457       2017/78244813  CORNEJO NAVARRO  BRA00000000670000000000000000000000000000000000000000000000002020022820200218122540500700085MATRICULA COL         *
D081777997014  00377511250       2017/78244684  CHIPANA LAMA  GIANLU00000000670000000000000000000000000000000000000000000000002020022820200218124450500700037MATRICULA COL         *
D081777997014  00372709915       2017/78244772  ROJAS LAURA  SEBASTI00000000670000000000000000000000000000000000000000000000002020022820200218126610500700010MATRICULA COL         *
D081777997014  00373537662       2017/162042    PIZZINO CUBAS  DAPHN00000000570000000000000000000000000000000000000000000000002020022820200218126910500700022MATRICULA SJL         *
D081777997014  00376470498       2017/162049    MORI CASTILLO  GADIE00000000570000000000000000000000000000000000000000000000002020022820200218126910500700028MATRICULA SJL         *
T081777997014  00304MATRICULA                     081777997014  000000000603000                                                                                                    *
T081777997014  00305DERECHO DE INGRESO COL        081777997014  000000000035000                                                                                                    *
T081777997014  00306MATRICULA SJL 2020            081777997014  000000000228000                                                                                                    *
T081777997014  00308MATRICULA 2020 CARABAYLLO     081777997014  000000000166000                                                                                                    *
H081777997014  006000000100000000000200000000000000020200218                                                                                                                       *
D081777997014  00663083705       FF20/533       RUEDA HUANCA  ADRIAN00000000020000000000000000000000000000000000000000000000002020022820200218227844651010635CCIA ESTUDIOS COL FE  *
T081777997014  00624CCIA ESTUDIOS COL             081777997014  000000000002000                                                                                                    *
H081777997014  009000000600000000003600000000000000020200218                                                                                                                       *
D081777997014  00972853857       FF20/531       NIETO SALINAS  LUIS 00000000060000000000000000000000000000000000000000000000002020022820200218122030500700057CERT ESTUDIOS SJL FE  *
D081777997014  00972972370       FF20/529       TORRES AYQUIPA  ZAMA00000000060000000000000000000000000000000000000000000000002020022820200218122160500700066CERT ESTUDIO COL FEB  *
D081777997014  00970485722       FF20/332       LEON AMACHEL  SEBAST00000000060000000000000000000000000000000000000000000000002020013120200218122540500700006CERT ESTUDIO COL ENE  *
D081777997014  00961927215       FF20/520       CALDERON MEDINA  RAM00000000060000000000000000000000000000000000000000000000002020022820200218224280500700053CERT ESTUDIO COL FEB  *
D081777997014  00970578899       FF20/532       HUARACA LAPA  SEBAST00000000060000000000000000000000000000000000000000000000002020022820200218124450500700110CERT ESTUDIO COL FEB  *
D081777997014  00975031880       FF20/511       DAMIAN GUILLEN  ROSE00000000060000000000000000000000000000000000000000000000002020022820200218126910500700047CERT ESTUDIOS SJL FE  *
T081777997014  00929CERT ESTUDIO-COL              081777997014  000000000024000                                                                                                    *
T081777997014  00963CERT ESTUDIOS SJL             081777997014  000000000012000                                                                                                    *
H081777997014  010000000100000000000300000000000000020200218                                                                                                                       *
D081777997014  01061927215       FF20/519       CALDERON MEDINA  RAM00000000030000000000000000000000000000000000000000000000002020022820200218224280500700053CCIA NO ADEUDO COL F  *
T081777997014  01028CCIA NO ADEUDO COL            081777997014  000000000003000                                                                                                    *
