H081777997014  001000007500000000424315700000000000020200211                                                                                                                       *
D081777997014  00177425857       2017/78235841  CHUPAN ESPINOZA  WIL00000000576000000000000000000000000000000000000000000016852019073120200211121770500700047PENSION JUL 2019 COL  *
D081777997014  00177425857       2017/78237211  CHUPAN ESPINOZA  WIL00000000576000000000000000000000000000000000000000000014172019083120200211121770500700047PENSION AGO 2019 COL  *
D081777997014  00177425857       2017/78238271  CHUPAN ESPINOZA  WIL00000000576000000000000000000000000000000000000000000011582019093020200211121770500700047PENSION SEP 2019 COL  *
D081777997014  00177425857       2017/78240139  CHUPAN ESPINOZA  WIL00000000576000000000000000000000000000000000000000000008902019103120200211121770500700047PENSION OCT 2019 COL  *
D081777997014  00177425857       2017/78240693  CHUPAN ESPINOZA  WIL00000000576000000000000000000000000000000000000000000006312019113020200211121770500700047PENSION NOV 2019 COL  *
D081777997014  00177425857       2017/78241789  CHUPAN ESPINOZA  WIL00000000576000000000000000000000000000000000000000000004492019122120200211121770500700047PENSION DIC 2019 COL  *
D081777997014  00178657455       2017/78235052  CHUPAN ESPINOZA  MAT00000000560000000000000000000000000000000000000000000018982019063020200211121770500700048PENSION JUN 2019 COL  *
D081777997014  00178657455       2017/78236589  CHUPAN ESPINOZA  MAT00000000560000000000000000000000000000000000000000000016382019073120200211121770500700048PENSION JUL 2019 COL  *
D081777997014  00178657455       2017/78237877  CHUPAN ESPINOZA  MAT00000000560000000000000000000000000000000000000000000013782019083120200211121770500700048PENSION AGO 2019 COL  *
D081777997014  00178657455       2017/78239013  CHUPAN ESPINOZA  MAT00000000560000000000000000000000000000000000000000000011262019093020200211121770500700048PENSION SEP 2019 COL  *
D081777997014  00178657455       2017/78239664  CHUPAN ESPINOZA  MAT00000000560000000000000000000000000000000000000000000008652019103120200211121770500700050PENSION OCT 2019 COL  *
D081777997014  00178657455       2017/78241449  CHUPAN ESPINOZA  MAT00000000560000000000000000000000000000000000000000000006132019113020200211121770500700050PENSION NOV 2019 COL  *
D081777997014  00178657455       2017/78242669  CHUPAN ESPINOZA  MAT00000000560000000000000000000000000000000000000000000004372019122120200211121770500700060PENSION DIC 2019 COL  *
D081777997014  00179126197       2017/159784    VALENCIA GALVEZ  AMI00000000560000000000000000000000000000000000000000000004372019122120200211121830500700051PENSION DIC 2019 SJL  *
D081777997014  00177717779       2017/78241730  ROSALES YAUCE  CRIST00000000560000000000000000000000000000000000000000000006132019113020200211122160500700122PENSION NOV 2019 COL  *
D081777997014  00177717779       2017/78242945  ROSALES YAUCE  CRIST00000000560000000000000000000000000000000000000000000004372019122120200211122160500700122PENSION DIC 2019 COL  *
D081777997014  00176613736       2017/159449    CARDENAS QUISPE  CHE00000000540000000000000000000000000000000000000000000005912019113020200211122470500700055PENSION NOV 2019 SJL  *
D081777997014  00161795069       2017/78238023  PADILLA ZEGARRA  DAY00000000640000000000000000000000000000000000000000000015742019083120200211122540500700034PENSION AGO 2019 COL  *
D081777997014  00161795069       2017/78239165  PADILLA ZEGARRA  DAY00000000640000000000000000000000000000000000000000000012862019093020200211122540500700034PENSION SEP 2019 COL  *
D081777997014  00161795069       2017/78239815  PADILLA ZEGARRA  DAY00000000640000000000000000000000000000000000000000000009892019103120200211122540500700034PENSION OCT 2019 COL  *
D081777997014  00161795069       2017/78241592  PADILLA ZEGARRA  DAY00000000640000000000000000000000000000000000000000000007012019113020200211122540500700034PENSION NOV 2019 COL  *
D081777997014  00161795069       2017/78242810  PADILLA ZEGARRA  DAY00000000640000000000000000000000000000000000000000000004992019122120200211122540500700034PENSION DIC 2019 COL  *
D081777997014  00173155351       2017/78241436  HERNANDEZ VALLADOLID00000000640000000000000000000000000000000000000000000007012019113020200211122540500700072PENSION NOV 2019 COL  *
D081777997014  00173155351       2017/78242656  HERNANDEZ VALLADOLID00000000640000000000000000000000000000000000000000000004992019122120200211122540500700072PENSION DIC 2019 COL  *
D081777997014  00171680158       2017/158895    SANTA CRUZ LAGOS  JA00000000550000000000000000000000000000000000000000000006022019113020200211126860500700001PENSION NOV 2019 SJL  *
D081777997014  00171680158       2017/159847    SANTA CRUZ LAGOS  JA00000000550000000000000000000000000000000000000000000004292019122120200211126860500700001PENSION DIC 2019 SJL  *
D081777997014  00170527355       2017/158377    LLANOS ALARCON  AXEL00000000378000000000000000000000000000000000000000000005842019103120200211126860500700004PENSION OCT 2019 SJL  *
D081777997014  00170527355       2017/158558    LLANOS ALARCON  AXEL00000000378000000000000000000000000000000000000000000004142019113020200211126860500700004PENSION NOV 2019 SJL  *
D081777997014  00174868050       2017/157305    ALARCON MERINO  GRAZ00000000378000000000000000000000000000000000000000000007602019093020200211126860500700005PENSION SEP 2019 SJL  *
D081777997014  00176470498       2017/158410    MORI CASTILLO  GADIE00000000540000000000000000000000000000000000000000000008342019103120200211126860500700011PENSION OCT 2019 SJL  *
D081777997014  00176470498       2017/158557    MORI CASTILLO  GADIE00000000540000000000000000000000000000000000000000000005912019113020200211126860500700011PENSION NOV 2019 SJL  *
D081777997014  00177646116       2017/150925    RODRIGUEZ GOMEZ  DAP00000000550000000000000000000000000000000000000000000026152019033120200211126910500700011PENSION MAR 2019 SJL  *
D081777997014  00177646116       2017/151947    RODRIGUEZ GOMEZ  DAP00000000550000000000000000000000000000000000000000000023682019043020200211126910500700011PENSION ABR 2019 SJL  *
D081777997014  00177646116       2017/152969    RODRIGUEZ GOMEZ  DAP00000000550000000000000000000000000000000000000000000021122019053120200211126910500700011PENSION MAY 2019 SJL  *
D081777997014  00177646116       2017/153991    RODRIGUEZ GOMEZ  DAP00000000550000000000000000000000000000000000000000000018652019063020200211126910500700011PENSION JUN 2019 SJL  *
D081777997014  00177646116       2017/154656    RODRIGUEZ GOMEZ  DAP00000000550000000000000000000000000000000000000000000016092019073120200211126910500700011PENSION JUL 2019 SJL  *
D081777997014  00177646116       2017/156035    RODRIGUEZ GOMEZ  DAP00000000550000000000000000000000000000000000000000000013532019083120200211126910500700011PENSION AGO 2019 SJL  *
D081777997014  00177646116       2017/157057    RODRIGUEZ GOMEZ  DAP00000000550000000000000000000000000000000000000000000011062019093020200211126910500700011PENSION SEP 2019 SJL  *
D081777997014  00177646116       2017/158044    RODRIGUEZ GOMEZ  DAP00000000550000000000000000000000000000000000000000000008502019103120200211126910500700011PENSION OCT 2019 SJL  *
D081777997014  00177646116       2017/159261    RODRIGUEZ GOMEZ  DAP00000000550000000000000000000000000000000000000000000006022019113020200211126910500700011PENSION NOV 2019 SJL  *
D081777997014  00177646116       2017/160123    RODRIGUEZ GOMEZ  DAP00000000550000000000000000000000000000000000000000000004292019122120200211126910500700011PENSION DIC 2019 SJL  *
D081777997014  00161844705       2017/150800    RODRIGUEZ GOMEZ  GUI00000000495000000000000000000000000000000000000000000023542019033120200211126910500700012PENSION MAR 2019 SJL  *
D081777997014  00161844705       2017/151822    RODRIGUEZ GOMEZ  GUI00000000495000000000000000000000000000000000000000000021312019043020200211126910500700012PENSION ABR 2019 SJL  *
D081777997014  00161844705       2017/152844    RODRIGUEZ GOMEZ  GUI00000000495000000000000000000000000000000000000000000019012019053120200211126910500700012PENSION MAY 2019 SJL  *
D081777997014  00161844705       2017/153885    RODRIGUEZ GOMEZ  GUI00000000495000000000000000000000000000000000000000000016782019063020200211126910500700012PENSION JUN 2019 SJL  *
D081777997014  00161844705       2017/154542    RODRIGUEZ GOMEZ  GUI00000000495000000000000000000000000000000000000000000014482019073120200211126910500700012PENSION JUL 2019 SJL  *
D081777997014  00161844705       2017/155910    RODRIGUEZ GOMEZ  GUI00000000495000000000000000000000000000000000000000000012182019083120200211126910500700012PENSION AGO 2019 SJL  *
D081777997014  00161844705       2017/156932    RODRIGUEZ GOMEZ  GUI00000000495000000000000000000000000000000000000000000009952019093020200211126910500700012PENSION SEP 2019 SJL  *
D081777997014  00161844705       2017/157954    RODRIGUEZ GOMEZ  GUI00000000495000000000000000000000000000000000000000000007652019103120200211126910500700012PENSION OCT 2019 SJL  *
D081777997014  00161844705       2017/159136    RODRIGUEZ GOMEZ  GUI00000000495000000000000000000000000000000000000000000005422019113020200211126910500700012PENSION NOV 2019 SJL  *
D081777997014  00161844705       2017/159998    RODRIGUEZ GOMEZ  GUI00000000495000000000000000000000000000000000000000000003862019122120200211126910500700012PENSION DIC 2019 SJL  *
D081777997014  00179617838       2017/155420    REANO EVANGELISTA  E00000000560000000000000000000000000000000000000000000013782019083120200211126910500700061PENSION AGO 2019 SJL  *
D081777997014  00179617838       2017/156463    REANO EVANGELISTA  E00000000560000000000000000000000000000000000000000000011262019093020200211126910500700061PENSION SEP 2019 SJL  *
D081777997014  00178512036       2017/155543    REANO EVANGELISTA  N00000000504000000000000000000000000000000000000000000012402019083120200211126910500700062PENSION AGO 2019 SJL  *
D081777997014  00178512036       2017/156586    REANO EVANGELISTA  N00000000504000000000000000000000000000000000000000000010132019093020200211126910500700062PENSION SEP 2019 SJL  *
D081777997014  00174761231       2017/80014770  SALAZAR QUIJANO  MEL00000000540000000000000000000000000000000000000000000004212019122120200211227020500700047PENSION DIC 2019 CAR  *
D081777997014  00160904788       2017/154897    TICACALA ARROYO  MAR00000000540000000000000000000000000000000000000000000015802019073120200211127420500700046PENSION JUL 2019 SJL  *
D081777997014  00160904788       2017/156289    TICACALA ARROYO  MAR00000000540000000000000000000000000000000000000000000013282019083120200211127420500700046PENSION AGO 2019 SJL  *
D081777997014  00160904788       2017/157332    TICACALA ARROYO  MAR00000000540000000000000000000000000000000000000000000010852019093020200211127420500700046PENSION SEP 2019 SJL  *
D081777997014  00160904788       2017/158320    TICACALA ARROYO  MAR00000000540000000000000000000000000000000000000000000008342019103120200211127420500700046PENSION OCT 2019 SJL  *
D081777997014  00160904788       2017/158480    TICACALA ARROYO  MAR00000000540000000000000000000000000000000000000000000005912019113020200211127420500700046PENSION NOV 2019 SJL  *
D081777997014  00160904788       2017/160364    TICACALA ARROYO  MAR00000000540000000000000000000000000000000000000000000004212019122120200211127420500700046PENSION DIC 2019 SJL  *
D081777997014  00173371902       2017/160623    HUAMAN OSCA  MAYRA F00000000486000000000000000000000000000000000000000000005322019113020200211127420500700058PENSION NOV 2019 SJL  *
D081777997014  00173371902       2017/160647    HUAMAN OSCA  MAYRA F00000000486000000000000000000000000000000000000000000003792019122120200211127420500700059PENSION DIC 2019 SJL  *
D081777997014  00145571837       2017/78240516  CORONADO HURTADO  AY00000000640000000000000000000000000000000000000000000009892019103120200211227844651010763PENSION OCT 2019 COL  *
D081777997014  00145571837       2017/78241086  CORONADO HURTADO  AY00000000640000000000000000000000000000000000000000000007012019113020200211227844651010819PENSION NOV 2019 COL  *
D081777997014  00177625360       2017/78233340  MORA BARRIOS  BEILA 00000000560000000000000000000000000000000000000000000021422019053120200211227844671000530PENSION MAY 2019 COL  *
D081777997014  00161131457       2017/78238812  CORNEJO NAVARRO  BRA00000000640000000000000000000000000000000000000000000012862019093020200211128460500700017PENSION SEP 2019 COL  *
D081777997014  00161131457       2017/78239457  CORNEJO NAVARRO  BRA00000000640000000000000000000000000000000000000000000009892019103120200211128460500700017PENSION OCT 2019 COL  *
D081777997014  00161131457       2017/78241242  CORNEJO NAVARRO  BRA00000000640000000000000000000000000000000000000000000007012019113020200211128460500700017PENSION NOV 2019 COL  *
D081777997014  00161131457       2017/78242457  CORNEJO NAVARRO  BRA00000000640000000000000000000000000000000000000000000004992019122120200211128460500700017PENSION DIC 2019 COL  *
D081777997014  00174847407       2017/78230978  SANCHEZ AREVALO  JEA00000000640000000000000000000000000000000000000000000030432019033120200211129470500700014PENSION MAR 2019 COL  *
D081777997014  00174847407       2017/78232163  SANCHEZ AREVALO  JEA00000000640000000000000000000000000000000000000000000027552019043020200211129470500700014PENSION ABR 2019 COL  *
D081777997014  00174847407       2017/78233486  SANCHEZ AREVALO  JEA00000000640000000000000000000000000000000000000000000024582019053120200211129470500700014PENSION MAY 2019 COL  *
D081777997014  00179126197       2017/158835    VALENCIA GALVEZ  AMI00000000560000000000000000000000000000000000000000000006132019113020200211129470500700029PENSION NOV 2019 SJL  *
T081777997014  00101PENSION                       081777997014  000000001966647                                                                                                    *
T081777997014  00102PENSION SAN JUAN              081777997014  000000002222089                                                                                                    *
T081777997014  00103PENSION                       081777997014  000000000054421                                                                                                    *
H081777997014  003000002400000000139995000000000000020200211                                                                                                                       *
D081777997014  00371186650       2017/162024    MERCEDES ACUNA  KIAR00000000570000000000000000000000000000000000000000000000002020022820200211120140500700148MATRICULA SJL         *
D081777997014  00377533077       2017/80016286  TAIPE HUAMAN  YAHAIR00000000550000000000000000000000000000000000000000000000002020022820200211120210500700059INSCRIPCION CAR       *
D081777997014  00372251978       2017/78244682  LOPEZ MINAYA  SERGIO00000000670000000000000000000000000000000000000000000000002020022820200211120410500700001MATRICULA COL         *
D081777997014  00377877349       2017/78244706  VILLANUEVA CERNA  BR00000000580000000000000000000000000000000000000000000000002020022820200211220510500700043MATRICULA COL         *
D081777997014  00372208718       2017/78244686  ESPINOZA RAMOS  DANA00000000670000000000000000000000000000000000000000000000002020022820200211220600500700133MATRICULA COL         *
D081777997014  00376760894       2017/161958    CASTILLO TORRES  DON00000000570000000000000000000000000000000000000000000000002020013120200211120790500700055MATRICULA SJL         *
D081777997014  00377899251       2017/80016345  FLORES OCHOA  CLAUDI00000000560000000000000000000000000000000000000000000000002020022820200211120810500700072INSCRIPCION CAR       *
D081777997014  00361264635       2017/80016331  TORRES GOVEA  ROMINA00000000550000000000000000000000000000000000000000000000002020022820200211120920500700047INSCRIPCION CAR       *
D081777997014  00378151602       2017/80016330  TORRES GOVEA  SEBAST00000000560000000000000000000000000000000000000000000000002020022820200211120920500700108INSCRIPCION CAR       *
D081777997014  00374507537       2017/78244703  GAMARRA CESPEDES  KI00000000670000000000000000000000000000000000000000000000002020022820200211122240500700070MATRICULA COL         *
D081777997014  00374670535       2017/78244690  HERRERA DIAZ  YAITZA00000000670000000000000000000000000000000000000000000000002020022820200211122290500700009MATRICULA COL         *
D081777997014  00372995173       2017/78244710  LOPEZ GUIZADO  PAULA00000000670000000000000000000000000000000000000000000000002020022820200211222290500700102MATRICULA COL         *
D081777997014  00374197340       2017/78244705  SOTO GOMEZ  SEBASTIA00000000670000000000000000000000000000000000000000000000002020022820200211122540500700045MATRICULA COL         *
D081777997014  00375042530       2017/78244704  SOTO GOMEZ  SANTIAGO00000000670000000000000000000000000000000000000000000000002020022820200211122540500700046MATRICULA COL         *
D081777997014  00375632056       2017/78244717  VENEGAS SOLANO  BAYR00000000569500000000000000000000000000000000000000000000002020022820200211122540500700060MATRICULA COL         *
D081777997014  00374928462       2017/162012    PALOMINO DE LA CRUZ 00000000570000000000000000000000000000000000000000000000002020022820200211126860500700003MATRICULA SJL         *
D081777997014  00378046982       2017/162021    ZEVALLOS RODRIGUEZ  00000000570000000000000000000000000000000000000000000000002020022820200211127020500700061MATRICULA SJL         *
D081777997014  00361212019       2017/162022    ZEVALLOS RODRIGUEZ  00000000570000000000000000000000000000000000000000000000002020022820200211127020500700062MATRICULA SJL         *
D081777997014  00377545912       2017/161960    YALLE MORENO  NAOMI 00000000570000000000000000000000000000000000000000000000002020022820200211127420500700062MATRICULA SJL         *
D081777997014  00378472880       2017/78244663  SIPION HUAYNA  LIONE00000000580000000000000000000000000000000000000000000000002020022820200211227844651000988MATRICULA COL         *
D081777997014  00378472880       2017/78244664  SIPION HUAYNA  LIONE00000000350000000000000000000000000000000000000000000000002020022820200211227844651000989INSCRIPCION COL       *
D081777997014  00378929087       2017/80016352  RIVERA OLIVERA  SALV00000000570000000000000000000000000000000000000000000000002020022820200211227844651007967INSCRIPCION CAR       *
D081777997014  00379803241       2017/78244604  HUALLPA GAMBOA  CIEL00000000350000000000000000000000000000000000000000000000002020022820200211227844651011225INSCRIPCION COL       *
D081777997014  00373170722       2017/78244693  MANCILLA CRUZ  FATIM00000000670000000000000000000000000000000000000000000000002020022820200211227844671001200MATRICULA COL         *
T081777997014  00304MATRICULA                     081777997014  000000000708950                                                                                                    *
T081777997014  00305DERECHO DE INGRESO COL        081777997014  000000000070000                                                                                                    *
T081777997014  00306MATRICULA SJL 2020            081777997014  000000000342000                                                                                                    *
T081777997014  00308MATRICULA 2020 CARABAYLLO     081777997014  000000000279000                                                                                                    *
H081777997014  007000000100000000000250000000000000020200211                                                                                                                       *
D081777997014  00774036801       FF20/469       YANGALI PUN  CHANG L00000000025000000000000000000000000000000000000000000000002020022820200211227844651005584EXCELENCIA ACAD SJL   *
T081777997014  00761EXCELENCIA ACAD SJL           081777997014  000000000002500                                                                                                    *
H081777997014  009000000600000000003600000000000000020200211                                                                                                                       *
D081777997014  00970456924       FF20/462       ANGO PON  JOSE BERNA00000000060000000000000000000000000000000000000000000000002020022820200211122160500700108CERT ESTUDIO COL FEB  *
D081777997014  00962946427       FF20/463       QUINONES ALARCON  RO00000000060000000000000000000000000000000000000000000000002020022820200211124450500700104CERT ESTUDIOS CAR FE  *
D081777997014  00970951580       FF20/327       SUAREZ AGUIRRE  ROLA00000000060000000000000000000000000000000000000000000000002020013120200211126860500700009CERT ESTUDIOS SJL EN  *
D081777997014  00975107787       FF20/445       GUERRERO JIMENEZ  NA00000000060000000000000000000000000000000000000000000000002020022820200211126910500700037CERT ESTUDIOS SJL FE  *
D081777997014  00976987677       FF20/466       CHAVEZ VILLAVICENCIO00000000060000000000000000000000000000000000000000000000002020022820200211126910500700067CERT ESTUDIOS SJL FE  *
D081777997014  00971425287       FF20/467       BEDOYA OVIEDO  RENZO00000000060000000000000000000000000000000000000000000000002020022820200211227844651007236CERT ESTUDIOS SJL FE  *
T081777997014  00929CERT ESTUDIO-COL              081777997014  000000000006000                                                                                                    *
T081777997014  00963CERT ESTUDIOS SJL             081777997014  000000000024000                                                                                                    *
T081777997014  00999CERT ESTUDIOS-CAR             081777997014  000000000006000                                                                                                    *
H081777997014  010000000100000000000300000000000000020200211                                                                                                                       *
D081777997014  01071737362       FF20/453       CHAVEZ DEZA  NICOLE 00000000030000000000000000000000000000000000000000000000002020022820200211122160500700019CCIA NO ADEUDO COL F  *
T081777997014  01028CCIA NO ADEUDO COL            081777997014  000000000003000                                                                                                    *
