H081777997014  001000004200000000250801800000000000020200128                                                                                                                       *
D081777997014  00171969794       2017/78233899  BECERRA URRUTIA  NEL00000000576000000000000000000000000000000000000000000000002020053120200128120130500700098PENSION MAY 2019 COL  *
D081777997014  00171969794       2017/78234653  BECERRA URRUTIA  NEL00000000576000000000000000000000000000000000000000000000002020063020200128120130500700098PENSION JUN 2019 COL  *
D081777997014  00171969794       2017/78236222  BECERRA URRUTIA  NEL00000000576000000000000000000000000000000000000000000000002020073120200128120130500700098PENSION JUL 2019 COL  *
D081777997014  00171969794       2017/78237497  BECERRA URRUTIA  NEL00000000576000000000000000000000000000000000000000000000002020083120200128120130500700098PENSION AGO 2019 COL  *
D081777997014  00171969794       2017/78238619  BECERRA URRUTIA  NEL00000000576000000000000000000000000000000000000000000000002020093020200128120130500700098PENSION SEP 2019 COL  *
D081777997014  00171969794       2017/78240499  BECERRA URRUTIA  NEL00000000576000000000000000000000000000000000000000000000002020103120200128120130500700098PENSION OCT 2019 COL  *
D081777997014  00171969794       2017/78241069  BECERRA URRUTIA  NEL00000000576000000000000000000000000000000000000000000000002020113020200128120130500700098PENSION NOV 2019 COL  *
D081777997014  00171969794       2017/78242284  BECERRA URRUTIA  NEL00000000576000000000000000000000000000000000000000000000002020122120200128120130500700098PENSION DIC 2019 COL  *
D081777997014  00175667223       2017/153126    PINTO POCOHUANCA  PA00000000540000000000000000000000000000000000000000000019602019053120200128120360500700034PENSION MAY 2019 SJL  *
D081777997014  00175667223       2017/154148    PINTO POCOHUANCA  PA00000000540000000000000000000000000000000000000000000017172019063020200128120360500700034PENSION JUN 2019 SJL  *
D081777997014  00161292327       2017/158656    ROSADO VILCHEZ  VALE00000000550000000000000000000000000000000000000000000004872019113020200128120580500700059PENSION NOV 2019 SJL  *
D081777997014  00161292327       2017/159621    ROSADO VILCHEZ  VALE00000000550000000000000000000000000000000000000000000003142019122120200128120580500700059PENSION DIC 2019 SJL  *
D081777997014  00175083798       2017/78236233  SAAVEDRA LUJAN  SEBA00000000640000000000000000000000000000000000000000000017382019073120200128122240500700043PENSION JUL 2019 COL  *
D081777997014  00176199402       2017/78242273  RAMIREZ SILVA  ALEXA00000000640000000000000000000000000000000000000000000003652019122120200128122540500700002PENSION DIC 2019 COL  *
D081777997014  00161042779       2017/78241064  MELENDEZ RIOS  ARIAN00000000576000000000000000000000000000000000000000000005102019113020200128122540500700004PENSION NOV 2019 COL  *
D081777997014  00161042779       2017/78242236  MELENDEZ RIOS  ARIAN00000000576000000000000000000000000000000000000000000003282019122120200128122540500700004PENSION DIC 2019 COL  *
D081777997014  00162580160       2017/78241599  MELENDEZ RIOS  DAYRA00000000640000000000000000000000000000000000000000000005662019113020200128122540500700006PENSION NOV 2019 COL  *
D081777997014  00162580160       2017/78242814  MELENDEZ RIOS  DAYRA00000000640000000000000000000000000000000000000000000003652019122120200128122540500700006PENSION DIC 2019 COL  *
D081777997014  00176209136       2017/78243435  REYES BALCAZAR  ANGE00000000640000000000000000000000000000000000000000000011522019093020200128122540500700027PENSION SEP 2019 COL  *
D081777997014  00176209136       2017/78243436  REYES BALCAZAR  ANGE00000000640000000000000000000000000000000000000000000008542019103120200128122540500700027PENSION OCT 2019 COL  *
D081777997014  00170967794       2017/78242392  RIVAS YBARRA  DERECK00000000640000000000000000000000000000000000000000000003652019122120200128122540500700057PENSION DIC 2019 COL  *
D081777997014  00173154704       2017/78242607  BEDRINANA TORRES  RO00000000640000000000000000000000000000000000000000000003652019122120200128126610500700016PENSION DIC 2019 COL  *
D081777997014  00162047364       2017/159804    SOLARI TINEO  FAIRUS00000000550000000000000000000000000000000000000000000003142019122120200128126860500700007PENSION DIC 2019 SJL  *
D081777997014  00179126197       2017/156459    VALENCIA GALVEZ  AMI00000000560000000000000000000000000000000000000000000010082019093020200128126910500700051PENSION SEP 2019 SJL  *
D081777997014  00179126197       2017/157613    VALENCIA GALVEZ  AMI00000000560000000000000000000000000000000000000000000007482019103120200128126910500700051PENSION OCT 2019 SJL  *
D081777997014  00177368906       2017/80010669  DIAZ SALAS  BRIANA A00000000550000000000000000000000000000000000000000000025002019033120200128127020500700041PENSION MAR 2019 CAR  *
D081777997014  00177368906       2017/80011169  DIAZ SALAS  BRIANA A00000000550000000000000000000000000000000000000000000022522019043020200128127020500700041PENSION ABR 2019 CAR  *
D081777997014  00177368906       2017/80011513  DIAZ SALAS  BRIANA A00000000550000000000000000000000000000000000000000000019972019053120200128127020500700041PENSION MAY 2019 CAR  *
D081777997014  00177368906       2017/80012069  DIAZ SALAS  BRIANA A00000000550000000000000000000000000000000000000000000017492019063020200128127020500700041PENSION JUN 2019 CAR  *
D081777997014  00177368906       2017/80012478  DIAZ SALAS  BRIANA A00000000550000000000000000000000000000000000000000000014932019073120200128127020500700041PENSION JUL 2019 CAR  *
D081777997014  00177368906       2017/80013149  DIAZ SALAS  BRIANA A00000000550000000000000000000000000000000000000000000012382019083120200128127020500700041PENSION AGO 2019 CAR  *
D081777997014  00177368906       2017/80013380  DIAZ SALAS  BRIANA A00000000550000000000000000000000000000000000000000000009902019093020200128127020500700041PENSION SEP 2019 CAR  *
D081777997014  00177368906       2017/80013972  DIAZ SALAS  BRIANA A00000000550000000000000000000000000000000000000000000007342019103120200128127020500700041PENSION OCT 2019 CAR  *
D081777997014  00177368906       2017/80014474  DIAZ SALAS  BRIANA A00000000550000000000000000000000000000000000000000000004872019113020200128127020500700041PENSION NOV 2019 CAR  *
D081777997014  00177368906       2017/80015015  DIAZ SALAS  BRIANA A00000000550000000000000000000000000000000000000000000003142019122120200128127020500700044PENSION DIC 2019 CAR  *
D081777997014  00172709915       2017/78233495  ROJAS LAURA  SEBASTI00000000640000000000000000000000000000000000000000000023232019053120200128128800500700004PENSION MAY 2019 COL  *
D081777997014  00172709915       2017/78235490  ROJAS LAURA  SEBASTI00000000640000000000000000000000000000000000000000000020352019063020200128128800500700004PENSION JUN 2019 COL  *
D081777997014  00172709915       2017/78235815  ROJAS LAURA  SEBASTI00000000640000000000000000000000000000000000000000000017382019073120200128128800500700004PENSION JUL 2019 COL  *
D081777997014  00172709915       2017/78237185  ROJAS LAURA  SEBASTI00000000640000000000000000000000000000000000000000000014402019083120200128128800500700004PENSION AGO 2019 COL  *
D081777997014  00172709915       2017/78238245  ROJAS LAURA  SEBASTI00000000640000000000000000000000000000000000000000000011522019093020200128128800500700004PENSION SEP 2019 COL  *
D081777997014  00172709915       2017/78240113  ROJAS LAURA  SEBASTI00000000640000000000000000000000000000000000000000000008542019103120200128128800500700004PENSION OCT 2019 COL  *
D081777997014  00172709915       2017/78240667  ROJAS LAURA  SEBASTI00000000640000000000000000000000000000000000000000000005662019113020200128128800500700004PENSION NOV 2019 COL  *
T081777997014  00101PENSION                       081777997014  000000001552716                                                                                                    *
T081777997014  00102PENSION SAN JUAN              081777997014  000000000391548                                                                                                    *
T081777997014  00103PENSION                       081777997014  000000000563754                                                                                                    *
H081777997014  003000002100000000113900000000000000020200128                                                                                                                       *
D081777997014  00361187066       2017/161885    LATORRE CORDOVA  DIE00000000570000000000000000000000000000000000000000000000002020013120200128120110500700095MATRICULA SJL         *
D081777997014  00361187066       2017/161886    LATORRE CORDOVA  DIE00000000350000000000000000000000000000000000000000000000002020013120200128120110500700096INSCRIPCION SJL       *
D081777997014  00362026117       2017/161729    CCAMA CASTRO  ANGELA00000000570000000000000000000000000000000000000000000000002020013120200128120380500700042MATRICULA SJL         *
D081777997014  00361212661       2017/161854    HUAMANI QUINTANA  SE00000000570000000000000000000000000000000000000000000000002020013120200128120450500700014MATRICULA SJL         *
D081777997014  00361212661       2017/161855    HUAMANI QUINTANA  SE00000000350000000000000000000000000000000000000000000000002020013120200128120450500700014INSCRIPCION SJL       *
D081777997014  00361433190       2017/161910    ARONES TEJADA  KIARA00000000570000000000000000000000000000000000000000000000002020013120200128120510500700070MATRICULA SJL         *
D081777997014  00361792191       2017/161907    VELASQUEZ JAULES  DI00000000570000000000000000000000000000000000000000000000002020013120200128120530500700018MATRICULA SJL         *
D081777997014  00377181119       2017/161896    VARILLAS CORALES  AL00000000570000000000000000000000000000000000000000000000002020013120200128120550500700011MATRICULA SJL         *
D081777997014  00372789068       2017/78244344  CALDERON RETAMOZO  K00000000670000000000000000000000000000000000000000000000002020013120200128121770500700024MATRICULA COL         *
D081777997014  00375066908       2017/161894    HURTADO VALDEZ  ANGE00000000570000000000000000000000000000000000000000000000002020013120200128122390500700023MATRICULA SJL         *
D081777997014  00379127021       2017/161909    CONTRERAS MEDINA  AN00000000570000000000000000000000000000000000000000000000002020013120200128122470500700085MATRICULA SJL         *
D081777997014  00373929195       2017/161736    DELGADO PEREZ  ANDRE00000000570000000000000000000000000000000000000000000000002020013120200128122660500700037MATRICULA SJL         *
D081777997014  00375041396       2017/161835    ROMERO CERON  ASHLY 00000000570000000000000000000000000000000000000000000000002020013120200128126860500700009MATRICULA SJL         *
D081777997014  00374733900       2017/161901    IZQUIERDO ROJAS  MAN00000000570000000000000000000000000000000000000000000000002020013120200128126910500700008MATRICULA SJL         *
D081777997014  00390100006       2017/161022    VILLACORTA CHICATA  00000000570000000000000000000000000000000000000000000000002019122120200128126910500700020MATRICULA SJL         *
D081777997014  00372889917       2017/161890    TERRONES DOMINGUEZ  00000000570000000000000000000000000000000000000000000000002020013120200128126910500700040MATRICULA SJL         *
D081777997014  00371337266       2017/161871    BELLO AQUIJE  MARIA 00000000570000000000000000000000000000000000000000000000002020013120200128126910500700062MATRICULA SJL         *
D081777997014  00360788044       2017/161873    ARIAS TRELLES  ADRIA00000000570000000000000000000000000000000000000000000000002020013120200128127420500700011MATRICULA SJL         *
D081777997014  00379791759       2017/161874    CUTI PEREZ  ASHLYN A00000000570000000000000000000000000000000000000000000000002020013120200128227844671000897MATRICULA SJL         *
D081777997014  00379791759       2017/161875    CUTI PEREZ  ASHLYN A00000000350000000000000000000000000000000000000000000000002020013120200128227844671000898INSCRIPCION SJL       *
D081777997014  00361217164       2017/80016244  MORILLO MAS  GONZALO00000000550000000000000000000000000000000000000000000000002020013120200128129470500700025INSCRIPCION CAR       *
T081777997014  00304MATRICULA                     081777997014  000000000067000                                                                                                    *
T081777997014  00306MATRICULA SJL 2020            081777997014  000000000912000                                                                                                    *
T081777997014  00307DERECHO DE INGRESO SJL 2018   081777997014  000000000105000                                                                                                    *
T081777997014  00308MATRICULA 2020 CARABAYLLO     081777997014  000000000055000                                                                                                    *
H081777997014  007000000100000000000250000000000000020200128                                                                                                                       *
D081777997014  00770850140       FF20/303       PUCHO ZAVALETA  GAVI00000000025000000000000000000000000000000000000000000000002020013120200128120810500700049EXCELENCIA ACAD COL   *
T081777997014  00725EXCELENCIA ACAD COL           081777997014  000000000002500                                                                                                    *
H081777997014  009000000700000000005400000000000000020200128                                                                                                                       *
D081777997014  00971969794       FF20/297       BECERRA URRUTIA  NEL00000000180000000000000000000000000000000000000000000000002020013120200128120130500700098CERT ESTUDIO COL ENE  *
D081777997014  00975385572       FF20/289       VARA BARLETTI  GONZA00000000060000000000000000000000000000000000000000000000002020013120200128120600500700096CERT ESTUDIOS CAR EN  *
D081777997014  00973105479       FF20/304       RAVICHAGUA SANTOS  G00000000060000000000000000000000000000000000000000000000002020013120200128121930500700025CERT ESTUDIOS SJL EN  *
D081777997014  00946177331       FF20/311       GUILLERMO VALVERDE  00000000060000000000000000000000000000000000000000000000002020013120200128122390500700044CERT ESTUDIOS SJL EN  *
D081777997014  00971426152       FF20/308       BEDOYA SUERO  ALFONS00000000060000000000000000000000000000000000000000000000002020013120200128122410500700075CERT ESTUDIOS SJL EN  *
D081777997014  00963035607       FF20/310       CASQUINO GMEINER  RE00000000060000000000000000000000000000000000000000000000002020013120200128122470500700062CERT ESTUDIOS SJL EN  *
D081777997014  00978654982       FF20/299       ARIAS MORA  LIANG JA00000000060000000000000000000000000000000000000000000000002020013120200128126910500700022CERT ESTUDIOS SJL EN  *
T081777997014  00929CERT ESTUDIO-COL              081777997014  000000000018000                                                                                                    *
T081777997014  00963CERT ESTUDIOS SJL             081777997014  000000000030000                                                                                                    *
T081777997014  00999CERT ESTUDIOS-CAR             081777997014  000000000006000                                                                                                    *
