H081777997014  001000002900000000144091000000000000020200109                                                                                                                       *
D081777997014  00181653133       2017/159549    HURTADO ZAMORA  ANGE00000000560000000000000000000000000000000000000000000001602019122120200109120100500700113PENSION DIC 2019 SJL  *
D081777997014  00178175614       2017/159590    HURTADO ZAMORA  LIAM00000000504000000000000000000000000000000000000000000001442019122120200109120100500700114PENSION DIC 2019 SJL  *
D081777997014  00178046982       2017/157992    ZEVALLOS RODRIGUEZ  00000000550000000000000000000000000000000000000000000005782019103120200109120530500700007PENSION OCT 2019 SJL  *
D081777997014  00161212019       2017/157686    ZEVALLOS RODRIGUEZ  00000000495000000000000000000000000000000000000000000005202019103120200109120530500700008PENSION OCT 2019 SJL  *
D081777997014  00161212019       2017/158658    ZEVALLOS RODRIGUEZ  00000000495000000000000000000000000000000000000000000002972019113020200109120530500700008PENSION NOV 2019 SJL  *
D081777997014  00161792191       2017/159825    VELASQUEZ JAULES  DI00000000550000000000000000000000000000000000000000000001572019122120200109120530500700038PENSION DIC 2019 SJL  *
D081777997014  00174337057       2017/78242823  ALCANTARA SAMANEZ  D00000000640000000000000000000000000000000000000000000001822019122120200109122160500700131PENSION DIC 2019 COL  *
D081777997014  00170697816       2017/78242214  ALCANTARA SAMANEZ  M00000000576000000000000000000000000000000000000000000001642019122120200109122160500700132PENSION DIC 2019 COL  *
D081777997014  00161293671       2017/78242253  IPARRAGUIRRE BALAREZ00000000640000000000000000000000000000000000000000000001822019122120200109222240500700007PENSION DIC 2019 COL  *
D081777997014  00176491388       2017/78242557  ROJAS MILLAN  PABLO 00000000640000000000000000000000000000000000000000000001822019122120200109122540500700015PENSION DIC 2019 COL  *
D081777997014  00170458108       2017/160137    MANRIQUE CARAVANTES 00000000486000000000000000000000000000000000000000000001392019122120200109122660500700069PENSION DIC 2019 SJL  *
D081777997014  00177577709       2017/150847    SATALAY AYALA  GENES00000000385000000000000000000000000000000000000000000000002020033120200109127420500700044PENSION MAR 2019 SJL  *
D081777997014  00177577709       2017/151869    SATALAY AYALA  GENES00000000385000000000000000000000000000000000000000000000002020043020200109127420500700044PENSION ABR 2019 SJL  *
D081777997014  00177577709       2017/152915    SATALAY AYALA  GENES00000000385000000000000000000000000000000000000000000000002020053120200109127420500700044PENSION MAY 2019 SJL  *
D081777997014  00177577709       2017/153940    SATALAY AYALA  GENES00000000385000000000000000000000000000000000000000000000002020063020200109127420500700044PENSION JUN 2019 SJL  *
D081777997014  00177577709       2017/154605    SATALAY AYALA  GENES00000000385000000000000000000000000000000000000000000000002020073120200109127420500700044PENSION JUL 2019 SJL  *
D081777997014  00177577709       2017/155984    SATALAY AYALA  GENES00000000385000000000000000000000000000000000000000000000002020083120200109127420500700044PENSION AGO 2019 SJL  *
D081777997014  00177577709       2017/157006    SATALAY AYALA  GENES00000000385000000000000000000000000000000000000000000000002020093020200109127420500700044PENSION SEP 2019 SJL  *
D081777997014  00177577709       2017/158054    SATALAY AYALA  GENES00000000385000000000000000000000000000000000000000000000002020103120200109127420500700044PENSION OCT 2019 SJL  *
D081777997014  00177577709       2017/159207    SATALAY AYALA  GENES00000000385000000000000000000000000000000000000000000000002020113020200109127420500700044PENSION NOV 2019 SJL  *
D081777997014  00177577709       2017/160063    SATALAY AYALA  GENES00000000385000000000000000000000000000000000000000000000002020122120200109127420500700044PENSION DIC 2019 SJL  *
D081777997014  00176415121       2017/153064    JORGE SOLIS  LEONEL 00000000540000000000000000000000000000000000000000000018062019053120200109129470500700185PENSION MAY 2019 SJL  *
D081777997014  00176415121       2017/154109    JORGE SOLIS  LEONEL 00000000540000000000000000000000000000000000000000000015632019063020200109129470500700185PENSION JUN 2019 SJL  *
D081777997014  00176415121       2017/154732    JORGE SOLIS  LEONEL 00000000540000000000000000000000000000000000000000000013122019073120200109129470500700186PENSION JUL 2019 SJL  *
D081777997014  00176415121       2017/156115    JORGE SOLIS  LEONEL 00000000540000000000000000000000000000000000000000000010612019083120200109129470500700186PENSION AGO 2019 SJL  *
D081777997014  00176415121       2017/157142    JORGE SOLIS  LEONEL 00000000540000000000000000000000000000000000000000000008182019093020200109129470500700187PENSION SEP 2019 SJL  *
D081777997014  00176415121       2017/158168    JORGE SOLIS  LEONEL 00000000540000000000000000000000000000000000000000000005672019103120200109129470500700187PENSION OCT 2019 SJL  *
D081777997014  00176415121       2017/159350    JORGE SOLIS  LEONEL 00000000540000000000000000000000000000000000000000000003242019113020200109129470500700188PENSION NOV 2019 SJL  *
D081777997014  00176415121       2017/160228    JORGE SOLIS  LEONEL 00000000540000000000000000000000000000000000000000000001542019122120200109129470500700188PENSION DIC 2019 SJL  *
T081777997014  00101PENSION                       081777997014  000000000250310                                                                                                    *
T081777997014  00102PENSION SAN JUAN              081777997014  000000001190600                                                                                                    *
H081777997014  003000002100000000120050000000000000020200109                                                                                                                       *
D081777997014  00377408063       2017/78244308  TISOC CABANILLAS  SA00000000670000000000000000000000000000000000000000000000002020013120200109120130500700108MATRICULA COL         *
D081777997014  00370634875       2017/78244319  AYESTA ROJAS  ANDERS00000000670000000000000000000000000000000000000000000000002020013120200109120190500700151MATRICULA COL         *
D081777997014  00377932326       2017/161674    RODAS INGA  ANGELA F00000000570000000000000000000000000000000000000000000000002020013120200109120580500700079INSCRIPCION SJL       *
D081777997014  00373559213       2017/78244301  CONDORI ACOSTA  ARIA00000000670000000000000000000000000000000000000000000000002020013120200109122160500700173MATRICULA COL         *
D081777997014  00361331666       2017/78244318  PARI GAMARRA  JIREH 00000000670000000000000000000000000000000000000000000000002020013120200109122290500700220MATRICULA COL         *
D081777997014  00379336012       2017/161657    ZUMAETA MARAVI  KORI00000000570000000000000000000000000000000000000000000000002020013120200109122470500700098INSCRIPCION SJL       *
D081777997014  00374884712       2017/161658    ZUMAETA MARAVI  ANGE00000000570000000000000000000000000000000000000000000000002020013120200109122470500700099INSCRIPCION SJL       *
D081777997014  00361879082       2017/161656    ZUMAETA MARAVI  DAVI00000000570000000000000000000000000000000000000000000000002020013120200109122470500700100INSCRIPCION SJL       *
D081777997014  00378284395       2017/161606    RONCAL CABRERA  MARI00000000513000000000000000000000000000000000000000000000002020013120200109122470500700152INSCRIPCION SJL       *
D081777997014  00373073543       2017/78244312  CASTILLO VICENTE  PE00000000603000000000000000000000000000000000000000000000002020013120200109122480500700119MATRICULA COL         *
D081777997014  00372776718       2017/78244264  RODRIGUEZ ANGELES  G00000000603000000000000000000000000000000000000000000000002020013120200109122540500700008MATRICULA COL         *
D081777997014  00373213899       2017/78244314  GOMEZ OCHANTE  ADRIA00000000603000000000000000000000000000000000000000000000002020013120200109122540500700071MATRICULA COL         *
D081777997014  00381690315       2017/160960    GAMARRA BARCENA  LUC00000000570000000000000000000000000000000000000000000000002019113020200109124280500700057MATRICULA SJL         *
D081777997014  00371192479       2017/78244265  ISIDRO OLAECHEA  ALE00000000603000000000000000000000000000000000000000000000002020013120200109125350500700028MATRICULA COL         *
D081777997014  00361045644       2017/161654    AGREDA HILARIO  SOLA00000000570000000000000000000000000000000000000000000000002020013120200109126860500700001INSCRIPCION SJL       *
D081777997014  00361773097       2017/161653    AGREDA HILARIO  MARC00000000570000000000000000000000000000000000000000000000002020013120200109126860500700002INSCRIPCION SJL       *
D081777997014  00379653535       2017/161665    RUBIO MUNOZ  CAMILA 00000000570000000000000000000000000000000000000000000000002020013120200109126910500700028MATRICULA SJL         *
D081777997014  00379653535       2017/161666    RUBIO MUNOZ  CAMILA 00000000350000000000000000000000000000000000000000000000002020013120200109126910500700028INSCRIPCION SJL       *
D081777997014  00374783428       2017/161669    DELESMA MENDOZA  KAM00000000570000000000000000000000000000000000000000000000002020013120200109127420500700048INSCRIPCION SJL       *
D081777997014  00378302394       2017/161660    LLANTOY CUEVA  RAPHA00000000570000000000000000000000000000000000000000000000002020013120200109127420500700097MATRICULA SJL         *
D081777997014  00378302394       2017/161661    LLANTOY CUEVA  RAPHA00000000350000000000000000000000000000000000000000000000002020013120200109127420500700097INSCRIPCION SJL       *
T081777997014  00304MATRICULA                     081777997014  000000000509200                                                                                                    *
T081777997014  00306MATRICULA SJL - PREMATRICULA  081777997014  000000000621300                                                                                                    *
T081777997014  00307DERECHO DE INGRESO SJL 2019   081777997014  000000000070000                                                                                                    *
H081777997014  007000000100000000000250000000000000020200109                                                                                                                       *
D081777997014  00770881217       FF20/99        PAIRAZAMAN QUIJANO  00000000025000000000000000000000000000000000000000000000002020013120200109120810500700069EXCELENCIA ACAD SJL   *
T081777997014  00761EXCELENCIA ACAD SJL           081777997014  000000000002500                                                                                                    *
H081777997014  009000000400000000002400000000000000020200109                                                                                                                       *
D081777997014  00960946582       FF20/85        MARCELO LLERENA  NIC00000000060000000000000000000000000000000000000000000000002020013120200109122420500700058CERT ESTUDIO COL ENE  *
D081777997014  00973007650       FF20/83        AREVALO CHOQUE  LUIS00000000060000000000000000000000000000000000000000000000002020013120200109224450500700220CERT ESTUDIO COL ENE  *
D081777997014  00974627056       FF20/81        FIGUEROA GAGO  BREND00000000060000000000000000000000000000000000000000000000002020013120200109126860500700003CERT ESTUDIOS SJL EN  *
D081777997014  00974291515       FF20/90        GAMARRA COCHACHI  AN00000000060000000000000000000000000000000000000000000000002020013120200109127420500700012CERT ESTUDIOS SJL EN  *
T081777997014  00929CERT ESTUDIO-COL              081777997014  000000000012000                                                                                                    *
T081777997014  00963CERT ESTUDIOS SJL             081777997014  000000000012000                                                                                                    *
H081777997014  010000000100000000000300000000000000020200109                                                                                                                       *
D081777997014  01076109797       FF20/82        OBREGON CONDORI  DAN00000000030000000000000000000000000000000000000000000000002020013120200109120140500700097CCIA NO ADEUDO COL E  *
T081777997014  01028CCIA NO ADEUDO COL            081777997014  000000000003000                                                                                                    *
H081777997014  012000000500000000001500000000000000020200109                                                                                                                       *
D081777997014  01270496467       FF20/73        TANG GUTIERREZ  JOSS00000000030000000000000000000000000000000000000000000000002020013120200109120140500700083PRA ACAD COLONIAL EN  *
D081777997014  01274906032       FF20/91        ZUMAETA MARAVI  MIGU00000000030000000000000000000000000000000000000000000000002020013120200109122470500700101PRA ACAD SJL ENE 202  *
D081777997014  01260767789       FF20/92        ZUMAETA MARAVI  ROLA00000000030000000000000000000000000000000000000000000000002020013120200109122470500700102PRA ACAD SJL ENE 202  *
D081777997014  01260767789       FF20/93        ZUMAETA MARAVI  ROLA00000000030000000000000000000000000000000000000000000000002020013120200109122470500700102PRA ACAD SJL ENE 202  *
D081777997014  01260767789       FF20/94        ZUMAETA MARAVI  ROLA00000000030000000000000000000000000000000000000000000000002020013120200109122470500700102PRA ACAD SJL ENE 202  *
T081777997014  01230PRA ACAD COLONIAL             081777997014  000000000003000                                                                                                    *
T081777997014  01266PRA ACAD SJL                  081777997014  000000000012000                                                                                                    *
