H081777997014  001000003400000000194615000000000000020200120                                                                                                                       *
D081777997014  00173926346       2017/78239829  PECEROS CASQUIN  ADR00000000640000000000000000000000000000000000000000000007782019103120200120120130500700074PENSION OCT 2019 COL  *
D081777997014  00180998915       2017/78241685  IBARRA APONTE  LIAM 00000000560000000000000000000000000000000000000000000004282019113020200120120140500700034PENSION NOV 2019 COL  *
D081777997014  00180998915       2017/78242900  IBARRA APONTE  LIAM 00000000560000000000000000000000000000000000000000000002522019122120200120120140500700034PENSION DIC 2019 COL  *
D081777997014  00173537662       2017/156235    PIZZINO CUBAS  DAPHN00000000540000000000000000000000000000000000000000000011502019083120200120120160500700076PENSION AGO 2019 SJL  *
D081777997014  00177780768       2017/78239265  FRANCO VASQUEZ  ANAH00000000560000000000000000000000000000000000000000000009412019093020200120120350500700084PENSION SEP 2019 COL  *
D081777997014  00175010939       2017/160158    CISNEROS TRUJILLO  C00000000540000000000000000000000000000000000000000000002432019122120200120120560500700052PENSION DIC 2019 SJL  *
D081777997014  00175954053       2017/78242271  YUPANQUI LECHUGA  GA00000000640000000000000000000000000000000000000000000002882019122120200120221040500700023PENSION DIC 2019 COL  *
D081777997014  00160917742       2017/78242076  MALPICA AGUILAR  ANT00000000576000000000000000000000000000000000000000000002592019122120200120121770500700008PENSION DIC 2019 COL  *
D081777997014  00172834813       2017/78242648  MALPICA AGUILAR  MAD00000000640000000000000000000000000000000000000000000002882019122120200120121770500700009PENSION DIC 2019 COL  *
D081777997014  00163718763       2017/78238866  TRELLES VASQUEZ  JEL00000000640000000000000000000000000000000000000000000010752019093020200120122210500700037PENSION SEP 2019 COL  *
D081777997014  00163718763       2017/78239511  TRELLES VASQUEZ  JEL00000000640000000000000000000000000000000000000000000007782019103120200120122210500700037PENSION OCT 2019 COL  *
D081777997014  00162945512       2017/78242731  SILVA MOROCHO  LUANA00000000560000000000000000000000000000000000000000000002522019122120200120122540500700105PENSION DIC 2019 COL  *
D081777997014  00173154704       2017/78239641  BEDRINANA TORRES  RO00000000640000000000000000000000000000000000000000000007782019103120200120126610500700094PENSION OCT 2019 COL  *
D081777997014  00173154704       2017/78241392  BEDRINANA TORRES  RO00000000640000000000000000000000000000000000000000000004902019113020200120126610500700094PENSION NOV 2019 COL  *
D081777997014  00173716697       2017/159046    USCUVILCA GALICIA  N00000000550000000000000000000000000000000000000000000004212019113020200120126860500700002PENSION NOV 2019 SJL  *
D081777997014  00173716697       2017/159899    USCUVILCA GALICIA  N00000000550000000000000000000000000000000000000000000002482019122120200120126860500700002PENSION DIC 2019 SJL  *
D081777997014  00176758199       2017/158591    USCUVILCA GALICIA  A00000000486000000000000000000000000000000000000000000003722019113020200120126860500700003PENSION NOV 2019 SJL  *
D081777997014  00176758199       2017/160475    USCUVILCA GALICIA  A00000000486000000000000000000000000000000000000000000002192019122120200120126860500700003PENSION DIC 2019 SJL  *
D081777997014  00175041396       2017/155579    ROMERO CERON  ASHLY 00000000550000000000000000000000000000000000000000000011722019083120200120126860500700007PENSION AGO 2019 SJL  *
D081777997014  00175041396       2017/156622    ROMERO CERON  ASHLY 00000000550000000000000000000000000000000000000000000009242019093020200120126860500700007PENSION SEP 2019 SJL  *
D081777997014  00175041396       2017/157498    ROMERO CERON  ASHLY 00000000550000000000000000000000000000000000000000000006682019103120200120126860500700007PENSION OCT 2019 SJL  *
D081777997014  00177965898       2017/159630    HERNANDEZ QUISPE  AL00000000550000000000000000000000000000000000000000000002482019122120200120126910500700070PENSION DIC 2019 SJL  *
D081777997014  00173551258       2017/159085    HERNANDEZ QUISPE  TA00000000495000000000000000000000000000000000000000000003792019113020200120126910500700071PENSION NOV 2019 SJL  *
D081777997014  00174241721       2017/78233747  DAVALOS ARTEAGA  JAI00000000576000000000000000000000000000000000000000000020222019053120200120227844651001432PENSION MAY 2019 COL  *
D081777997014  00175035291       2017/160012    VENEGAS SANDOVAL  NI00000000550000000000000000000000000000000000000000000002482019122120200120227844651011894PENSION DIC 2019 SJL  *
D081777997014  00161214960       2017/158306    VALENZUELA ESPINOZA 00000000540000000000000000000000000000000000000000000006562019103120200120227844651012001PENSION OCT 2019 SJL  *
D081777997014  00161214960       2017/158466    VALENZUELA ESPINOZA 00000000540000000000000000000000000000000000000000000004132019113020200120227844651012002PENSION NOV 2019 SJL  *
D081777997014  00161214960       2017/160350    VALENZUELA ESPINOZA 00000000540000000000000000000000000000000000000000000002432019122120200120227844651012003PENSION DIC 2019 SJL  *
D081777997014  00174873103       2017/78240092  ELESCANO CAMPOS  JAR00000000640000000000000000000000000000000000000000000007782019103120200120227844651012815PENSION OCT 2019 COL  *
D081777997014  00174873103       2017/78240646  ELESCANO CAMPOS  JAR00000000640000000000000000000000000000000000000000000004902019113020200120227844651012832PENSION NOV 2019 COL  *
D081777997014  00174873103       2017/78241742  ELESCANO CAMPOS  JAR00000000640000000000000000000000000000000000000000000002882019122120200120227844651012838PENSION DIC 2019 COL  *
D081777997014  00170727435       2017/80014990  ALEJOS FELIX  SAILE 00000000378000000000000000000000000000000000000000000001702019122120200120227844651013030PENSION DIC 2019 CAR  *
D081777997014  00170740694       2017/80015185  BERROCAL CASTRO  ALE00000000550000000000000000000000000000000000000000000002482019122120200120227844651014540PENSION DIC 2019 CAR  *
D081777997014  00174805658       2017/80014927  CUEVA ORTIZ  ERICK A00000000540000000000000000000000000000000000000000000002432019122120200120227844651016692PENSION DIC 2019 CAR  *
T081777997014  00101PENSION                       081777997014  000000000989385                                                                                                    *
T081777997014  00102PENSION SAN JUAN              081777997014  000000000809304                                                                                                    *
T081777997014  00103PENSION                       081777997014  000000000147461                                                                                                    *
H081777997014  003000000900000000053300000000000000020200120                                                                                                                       *
D081777997014  00362579405       2017/161738    MOSCOSO REVILLA  SAC00000000570000000000000000000000000000000000000000000000002020013120200120120110500700095MATRICULA SJL         *
D081777997014  00375954053       2017/78244424  YUPANQUI LECHUGA  GA00000000670000000000000000000000000000000000000000000000002020013120200120221040500700101MATRICULA COL         *
D081777997014  00360771762       2017/161786    ESCOBEDO ECHEVERRIA 00000000570000000000000000000000000000000000000000000000002020013120200120121930500700050MATRICULA SJL         *
D081777997014  00374263228       2017/161739    ESCOBEDO ECHEVERRIA 00000000570000000000000000000000000000000000000000000000002020013120200120121930500700051MATRICULA SJL         *
D081777997014  00370637174       2017/161785    VILLANUEVA CONTRERAS00000000570000000000000000000000000000000000000000000000002020013120200120122380500700038MATRICULA SJL         *
D081777997014  00374163540       2017/161782    BOLANOS COLQUI  CLAU00000000570000000000000000000000000000000000000000000000002020013120200120222390500700044MATRICULA SJL         *
D081777997014  00377967179       2017/161763    SIMPE VENTURA  PEDRO00000000570000000000000000000000000000000000000000000000002020013120200120126910500700017MATRICULA SJL         *
D081777997014  00375674455       2017/161762    SIMPE VENTURA  CARLA00000000570000000000000000000000000000000000000000000000002020013120200120126910500700018MATRICULA SJL         *
D081777997014  00373684564       2017/78244412  VARILLAS MARRUJO  LU00000000670000000000000000000000000000000000000000000000002020013120200120227844651006736MATRICULA COL         *
T081777997014  00304MATRICULA                     081777997014  000000000134000                                                                                                    *
T081777997014  00306MATRICULA SJL 2020            081777997014  000000000399000                                                                                                    *
H081777997014  007000000100000000000250000000000000020200120                                                                                                                       *
D081777997014  00772404073       FF19/2407      MATTA PEREZ  HERNAN 00000000025000000000000000000000000000000000000000000000002019122120200120120190500700142EXCELENCIA ACAD COL   *
T081777997014  00723EXCELENCIA ACAD COL           081777997014  000000000002500                                                                                                    *
H081777997014  008000000100000000000250000000000000020200120                                                                                                                       *
D081777997014  00874925515       FF20/199       COBENAS ALVAREZ  COR00000000025000000000000000000000000000000000000000000000002020013120200120122480500700095CERT CONDUCTA COL EN  *
T081777997014  00826CERT CONDUCTA COL             081777997014  000000000002500                                                                                                    *
H081777997014  009000001100000000007800000000000000020200120                                                                                                                       *
D081777997014  00976109797       FF20/220       OBREGON CONDORI  DAN00000000060000000000000000000000000000000000000000000000002020013120200120120140500700086CERT ESTUDIO COL ENE  *
D081777997014  00972404073       FF19/2408      MATTA PEREZ  HERNAN 00000000180000000000000000000000000000000000000000000000002019122120200120120190500700143CERT ESTUDIO COL DIC  *
D081777997014  00974527627       FF20/210       CONDESO CARRIZALES  00000000060000000000000000000000000000000000000000000000002020013120200120120600500700072CERT ESTUDIO COL ENE  *
D081777997014  00972793871       FF20/200       ACOSTA FLORES  SHAKI00000000060000000000000000000000000000000000000000000000002020013120200120120980500700031CERT ESTUDIOS CAR EN  *
D081777997014  00970724319       FF20/217       ECHEVERRIA VILLAR  L00000000060000000000000000000000000000000000000000000000002020013120200120122410500700058CERT ESTUDIOS SJL EN  *
D081777997014  00976742781       FF20/212       GUERRERO RUBINA  ALF00000000060000000000000000000000000000000000000000000000002020013120200120122470500700084CERT ESTUDIOS SJL EN  *
D081777997014  00973246711       FF20/218       ARRIETA CABALLERO  F00000000060000000000000000000000000000000000000000000000002020013120200120122480500700098CERT ESTUDIO COL ENE  *
D081777997014  00977982612       FF20/215       CALDERON CALDERON  M00000000060000000000000000000000000000000000000000000000002020013120200120124450500700116CERT ESTUDIO COL ENE  *
D081777997014  00961141483       FF20/146       HUAMANI SEVILLANO  A00000000060000000000000000000000000000000000000000000000002020013120200120126610500700108CERT ESTUDIO COL ENE  *
D081777997014  00972441519       FF20/206       BALVIN RIVERA  YURAC00000000060000000000000000000000000000000000000000000000002020013120200120127420500700015CERT ESTUDIOS SJL EN  *
D081777997014  00970736586       FF20/219       CLAVIJO CEDILLO  JUA00000000060000000000000000000000000000000000000000000000002020013120200120227844651014675CERT ESTUDIO COL ENE  *
T081777997014  00925CERT ESTUDIO-COL              081777997014  000000000018000                                                                                                    *
T081777997014  00929CERT ESTUDIO-COL              081777997014  000000000036000                                                                                                    *
T081777997014  00963CERT ESTUDIOS SJL             081777997014  000000000018000                                                                                                    *
T081777997014  00999CERT ESTUDIOS-CAR             081777997014  000000000006000                                                                                                    *
H081777997014  010000000100000000000300000000000000020200120                                                                                                                       *
D081777997014  01079167256       FF20/211       DELGADO JIMENEZ  ABI00000000030000000000000000000000000000000000000000000000002020013120200120122540500700056CCIA NO ADEUDO COL E  *
T081777997014  01028CCIA NO ADEUDO COL            081777997014  000000000003000                                                                                                    *
H081777997014  012000000100000000000300000000000000020200120                                                                                                                       *
D081777997014  01261934798       FF20/192       CAPCHA NIETO  ANTONE00000000030000000000000000000000000000000000000000000000002020013120200120121440500700002PRA ACAD SJL ENE 202  *
T081777997014  01266PRA ACAD SJL                  081777997014  000000000003000                                                                                                    *
