H081777997014  001000003100000000185025200000000000020200201                                                                                                                       *
D081777997014  00174092346       2017/78238368  BARRIOS CHAVEZ  LEON00000000640000000000000000000000000000000000000000000011902019093020200201120140500700033PENSION SEP 2019 COL  *
D081777997014  00174092346       2017/78240285  BARRIOS CHAVEZ  LEON00000000640000000000000000000000000000000000000000000008932019103120200201120140500700033PENSION OCT 2019 COL  *
D081777997014  00174092346       2017/78240827  BARRIOS CHAVEZ  LEON00000000640000000000000000000000000000000000000000000006052019113020200201120140500700033PENSION NOV 2019 COL  *
D081777997014  00160851361       2017/78231075  PISKUNOV TORIBIO  MA00000000576000000000000000000000000000000000000000000026522019033120200201120140500700046PENSION MAR 2019 COL  *
D081777997014  00160851361       2017/78232288  PISKUNOV TORIBIO  MA00000000576000000000000000000000000000000000000000000023932019043020200201120140500700046PENSION ABR 2019 COL  *
D081777997014  00160851361       2017/78233578  PISKUNOV TORIBIO  MA00000000576000000000000000000000000000000000000000000021252019053120200201120140500700046PENSION MAY 2019 COL  *
D081777997014  00160851361       FF19/1705      PISKUNOV TORIBIO  MA00000000640000000000000000000000000000000000000000000020742019063020200201120140500700046PENSION JUN 2019 COL  *
D081777997014  00160851361       FF19/1706      PISKUNOV TORIBIO  MA00000000640000000000000000000000000000000000000000000017762019073120200201120140500700046PENSION JUL 2019 COL  *
D081777997014  00160851361       FF19/1707      PISKUNOV TORIBIO  MA00000000640000000000000000000000000000000000000000000014782019083120200201120140500700046PENSION AGO 2019 COL  *
D081777997014  00160851361       FF19/1708      PISKUNOV TORIBIO  MA00000000640000000000000000000000000000000000000000000011902019093020200201120140500700046PENSION SEP 2019 COL  *
D081777997014  00160851361       FF19/1709      PISKUNOV TORIBIO  MA00000000640000000000000000000000000000000000000000000008932019103120200201120140500700046PENSION OCT 2019 COL  *
D081777997014  00160851361       FF19/1710      PISKUNOV TORIBIO  MA00000000640000000000000000000000000000000000000000000006052019113020200201120140500700046PENSION NOV 2019 COL  *
D081777997014  00160851361       FF19/1711      PISKUNOV TORIBIO  MA00000000640000000000000000000000000000000000000000000004032019122120200201120140500700046PENSION DIC 2019 COL  *
D081777997014  00170732699       2017/80013072  HUAMAN CALDERON  BRE00000000540000000000000000000000000000000000000000000012472019083120200201120210500700009PENSION AGO 2019 CAR  *
D081777997014  00170732699       2017/80013479  HUAMAN CALDERON  BRE00000000540000000000000000000000000000000000000000000010042019093020200201120210500700009PENSION SEP 2019 CAR  *
D081777997014  00170732699       2017/80014039  HUAMAN CALDERON  BRE00000000540000000000000000000000000000000000000000000007532019103120200201120210500700009PENSION OCT 2019 CAR  *
D081777997014  00170732699       2017/80014365  HUAMAN CALDERON  BRE00000000540000000000000000000000000000000000000000000005102019113020200201120210500700009PENSION NOV 2019 CAR  *
D081777997014  00170732699       2017/80014760  HUAMAN CALDERON  BRE00000000540000000000000000000000000000000000000000000003402019122120200201120210500700009PENSION DIC 2019 CAR  *
D081777997014  00161463648       2017/156852    ROQUE MACALUPU  ARON00000000550000000000000000000000000000000000000000000010232019093020200201120230500700047PENSION SEP 2019 SJL  *
D081777997014  00161463648       2017/157857    ROQUE MACALUPU  ARON00000000550000000000000000000000000000000000000000000007672019103120200201120230500700047PENSION OCT 2019 SJL  *
D081777997014  00161463648       2017/159039    ROQUE MACALUPU  ARON00000000550000000000000000000000000000000000000000000005202019113020200201120230500700047PENSION NOV 2019 SJL  *
D081777997014  00161463648       2017/159892    ROQUE MACALUPU  ARON00000000550000000000000000000000000000000000000000000003472019122120200201120230500700047PENSION DIC 2019 SJL  *
D081777997014  00170705100       2017/78243372  FRANCO VASQUEZ  MARY00000000640000000000000000000000000000000000000000000004032019122120200201120350500700032PENSION DIC 2019 COL  *
D081777997014  00177780768       2017/78239910  FRANCO VASQUEZ  ANAH00000000560000000000000000000000000000000000000000000007812019103120200201120350500700064PENSION OCT 2019 COL  *
D081777997014  00177780768       2017/78241695  FRANCO VASQUEZ  ANAH00000000560000000000000000000000000000000000000000000005292019113020200201120350500700064PENSION NOV 2019 COL  *
D081777997014  00177780768       2017/78242910  FRANCO VASQUEZ  ANAH00000000560000000000000000000000000000000000000000000003532019122120200201120350500700064PENSION DIC 2019 COL  *
D081777997014  00174928462       2017/160209    PALOMINO DE LA CRUZ 00000000540000000000000000000000000000000000000000000003402019122120200201126860500700002PENSION DIC 2019 SJL  *
D081777997014  00177376028       2017/78239694  MAGALLANES FAILOC  S00000000560000000000000000000000000000000000000000000007812019103120200201227844651006163PENSION OCT 2019 COL  *
D081777997014  00177376028       2017/78241479  MAGALLANES FAILOC  S00000000560000000000000000000000000000000000000000000005292019113020200201227844651006184PENSION NOV 2019 COL  *
D081777997014  00177376028       2017/78242694  MAGALLANES FAILOC  S00000000560000000000000000000000000000000000000000000003532019122120200201227844651006225PENSION DIC 2019 COL  *
D081777997014  00173272732       2017/78240971  NAIZA ALVILDO  FLAVI00000000640000000000000000000000000000000000000000000005952019113020200201227844671000209PENSION NOV 2019 COL  *
T081777997014  00101PENSION                       081777997014  000000001299401                                                                                                    *
T081777997014  00102PENSION SAN JUAN              081777997014  000000000276997                                                                                                    *
T081777997014  00103PENSION                       081777997014  000000000273854                                                                                                    *
H081777997014  003000000600000000032700000000000000020200201                                                                                                                       *
D081777997014  00374678635       2017/78244567  BERETTA SULCA  VALER00000000670000000000000000000000000000000000000000000000002020013120200201122160500700022MATRICULA COL         *
D081777997014  00374678635       2017/78244568  BERETTA SULCA  VALER00000000350000000000000000000000000000000000000000000000002020013120200201122160500700022INSCRIPCION COL       *
D081777997014  00375646492       2017/161925    BACA ALVAREZ  ALEXIA00000000570000000000000000000000000000000000000000000000002020013120200201126910500700006MATRICULA SJL         *
D081777997014  00371184947       2017/80016262  CASTANEDA RODRIGUEZ 00000000550000000000000000000000000000000000000000000000002020013120200201227844651010303INSCRIPCION CAR       *
D081777997014  00377721227       2017/80016260  CASTANEDA RODRIGUEZ 00000000560000000000000000000000000000000000000000000000002020013120200201227844651010324INSCRIPCION CAR       *
D081777997014  00378891665       2017/80016261  CASTANEDA RODRIGUEZ 00000000570000000000000000000000000000000000000000000000002020013120200201227844651010342INSCRIPCION CAR       *
T081777997014  00304MATRICULA                     081777997014  000000000067000                                                                                                    *
T081777997014  00305DERECHO DE INGRESO COL        081777997014  000000000035000                                                                                                    *
T081777997014  00306MATRICULA SJL 2020            081777997014  000000000057000                                                                                                    *
T081777997014  00308MATRICULA 2020 CARABAYLLO     081777997014  000000000168000                                                                                                    *
H081777997014  007000000100000000000250000000000000020200201                                                                                                                       *
D081777997014  00772696318       FF20/352       ROLDAN SALAZAR  NICO00000000025000000000000000000000000000000000000000000000002020013120200201222390500700020EXCELENCIA ACAD SJL   *
T081777997014  00761EXCELENCIA ACAD SJL           081777997014  000000000002500                                                                                                    *
H081777997014  009000000200000000001200000000000000020200201                                                                                                                       *
D081777997014  00972696318       FF20/353       ROLDAN SALAZAR  NICO00000000060000000000000000000000000000000000000000000000002020013120200201222390500700020CERT ESTUDIOS SJL EN  *
D081777997014  00975534417       FF20/347       OLIVARES VELASQUEZ  00000000060000000000000000000000000000000000000000000000002020013120200201227844651013090CERT ESTUDIO COL ENE  *
T081777997014  00929CERT ESTUDIO-COL              081777997014  000000000006000                                                                                                    *
T081777997014  00963CERT ESTUDIOS SJL             081777997014  000000000006000                                                                                                    *
H081777997014  010000000100000000000300000000000000020200201                                                                                                                       *
D081777997014  01075534417       FF20/346       OLIVARES VELASQUEZ  00000000030000000000000000000000000000000000000000000000002020013120200201227844651013063CCIA NO ADEUDO COL E  *
T081777997014  01028CCIA NO ADEUDO COL            081777997014  000000000003000                                                                                                    *
H081777997014  012000000100000000000300000000000000020200201                                                                                                                       *
D081777997014  01260427933       FF20/121       SANCHEZ CLAROS  JAIR00000000030000000000000000000000000000000000000000000000002020013120200201227844651011781PRA ACAD COLONIAL EN  *
T081777997014  01230PRA ACAD COLONIAL             081777997014  000000000003000                                                                                                    *
