H081777997014  001000002900000000162528100000000000020200305                                                                                                                       *
D081777997014  00172188041       2017/78240799  ROCHA PANDURO  JUAN 00000000576000000000000000000000000000000000000000000008292019113020200305120140500700108PENSION NOV 2019 COL  *
D081777997014  00172188041       2017/78242104  ROCHA PANDURO  JUAN 00000000576000000000000000000000000000000000000000000006482019122120200305120140500700108PENSION DIC 2019 COL  *
D081777997014  00174345955       2017/80010699  CABANILLAS ESPINOZA 00000000550000000000000000000000000000000000000000000028052019033120200305122030500700137PENSION MAR 2019 CAR  *
D081777997014  00174345955       2017/80011199  CABANILLAS ESPINOZA 00000000550000000000000000000000000000000000000000000025582019043020200305122030500700137PENSION ABR 2019 CAR  *
D081777997014  00174345955       2017/80011545  CABANILLAS ESPINOZA 00000000550000000000000000000000000000000000000000000023022019053120200305122030500700137PENSION MAY 2019 CAR  *
D081777997014  00174345955       2017/80012114  CABANILLAS ESPINOZA 00000000550000000000000000000000000000000000000000000020542019063020200305122030500700137PENSION JUN 2019 CAR  *
D081777997014  00174345955       2017/80012508  CABANILLAS ESPINOZA 00000000550000000000000000000000000000000000000000000017992019073120200305122030500700137PENSION JUL 2019 CAR  *
D081777997014  00174345955       2017/80013179  CABANILLAS ESPINOZA 00000000550000000000000000000000000000000000000000000015432019083120200305122030500700137PENSION AGO 2019 CAR  *
D081777997014  00174345955       2017/80013443  CABANILLAS ESPINOZA 00000000550000000000000000000000000000000000000000000012952019093020200305122030500700137PENSION SEP 2019 CAR  *
D081777997014  00174345955       2017/80014014  CABANILLAS ESPINOZA 00000000550000000000000000000000000000000000000000000010402019103120200305122030500700137PENSION OCT 2019 CAR  *
D081777997014  00174345955       2017/80014504  CABANILLAS ESPINOZA 00000000550000000000000000000000000000000000000000000007922019113020200305122030500700137PENSION NOV 2019 CAR  *
D081777997014  00174345955       2017/80015045  CABANILLAS ESPINOZA 00000000550000000000000000000000000000000000000000000006192019122120200305122030500700137PENSION DIC 2019 CAR  *
D081777997014  00161494306       2017/153944    AGUERO ERQUINIO  RON00000000495000000000000000000000000000000000000000000018492019063020200305122470500700143PENSION JUN 2019 SJL  *
D081777997014  00161494306       2017/154609    AGUERO ERQUINIO  RON00000000495000000000000000000000000000000000000000000016192019073120200305122470500700143PENSION JUL 2019 SJL  *
D081777997014  00161494306       2017/155988    AGUERO ERQUINIO  RON00000000495000000000000000000000000000000000000000000013882019083120200305122470500700143PENSION AGO 2019 SJL  *
D081777997014  00161494306       2017/157010    AGUERO ERQUINIO  RON00000000495000000000000000000000000000000000000000000011662019093020200305122470500700143PENSION SEP 2019 SJL  *
D081777997014  00161494306       2017/158058    AGUERO ERQUINIO  RON00000000495000000000000000000000000000000000000000000009362019103120200305122470500700143PENSION OCT 2019 SJL  *
D081777997014  00161494306       2017/159211    AGUERO ERQUINIO  RON00000000495000000000000000000000000000000000000000000007132019113020200305122470500700143PENSION NOV 2019 SJL  *
D081777997014  00161494306       2017/160076    AGUERO ERQUINIO  RON00000000495000000000000000000000000000000000000000000005572019122120200305122470500700143PENSION DIC 2019 SJL  *
D081777997014  00177365842       2017/154597    AGUERO ERQUINIO  JEA00000000550000000000000000000000000000000000000000000017992019073120200305122470500700144PENSION JUL 2019 SJL  *
D081777997014  00177365842       2017/155976    AGUERO ERQUINIO  JEA00000000550000000000000000000000000000000000000000000015432019083120200305122470500700144PENSION AGO 2019 SJL  *
D081777997014  00177365842       2017/156998    AGUERO ERQUINIO  JEA00000000550000000000000000000000000000000000000000000012952019093020200305122470500700144PENSION SEP 2019 SJL  *
D081777997014  00177365842       2017/158020    AGUERO ERQUINIO  JEA00000000550000000000000000000000000000000000000000000010402019103120200305122470500700144PENSION OCT 2019 SJL  *
D081777997014  00177365842       2017/159199    AGUERO ERQUINIO  JEA00000000550000000000000000000000000000000000000000000007922019113020200305122470500700144PENSION NOV 2019 SJL  *
D081777997014  00177365842       2017/160055    AGUERO ERQUINIO  JEA00000000550000000000000000000000000000000000000000000006192019122120200305122470500700144PENSION DIC 2019 SJL  *
D081777997014  00174129862       2017/78240885  CAMPODONICO ALCALDE 00000000640000000000000000000000000000000000000000000009222019113020200305122540500700020PENSION NOV 2019 COL  *
D081777997014  00174129862       2017/78242163  CAMPODONICO ALCALDE 00000000640000000000000000000000000000000000000000000007202019122120200305122540500700020PENSION DIC 2019 COL  *
D081777997014  00171996355       2017/78243415  FLORES FLORES  KATEL00000000640000000000000000000000000000000000000000000007202019122120200305123190500700078PENSION DIC 2019 COL  *
D081777997014  00174186327       2017/159619    RAMOS LEANDRO  SHIOR00000000550000000000000000000000000000000000000000000006192019122120200305126910500700150PENSION DIC 2019 SJL  *
T081777997014  00101PENSION                       081777997014  000000000311039                                                                                                    *
T081777997014  00102PENSION SAN JUAN              081777997014  000000000747435                                                                                                    *
T081777997014  00103PENSION                       081777997014  000000000566807                                                                                                    *
H081777997014  003000000500000000031300000000000000020200305                                                                                                                       *
D081777997014  00370700718       2017/80016627  VARGAS CUBAS  JHON E00000000550000000000000000000000000000000000000000000000002020033120200305120200500700189MATRICULA CAR         *
D081777997014  00376633458       2017/78245188  TORRES HURTADO  SEBA00000000670000000000000000000000000000000000000000000000002020033120200305120790500700076MATRICULA COL         *
D081777997014  00362373011       2017/78245177  TERAN TEJADA  TOMMY 00000000670000000000000000000000000000000000000000000000002020033120200305122540500700075MATRICULA COL         *
D081777997014  00373843727       2017/78245176  CHAVEZ PALACIOS  LUA00000000670000000000000000000000000000000000000000000000002020033120200305124450500700229MATRICULA COL         *
D081777997014  00378443341       2017/162175    GALINDO SANTOS  MARK00000000570000000000000000000000000000000000000000000000002020033120200305127420500700104MATRICULA SJL         *
T081777997014  00304MATRICULA                     081777997014  000000000201000                                                                                                    *
T081777997014  00306MATRICULA SJL 2020            081777997014  000000000057000                                                                                                    *
T081777997014  00308MATRICULA 2020 CARABAYLLO     081777997014  000000000055000                                                                                                    *
H081777997014  006000000100000000000200000000000000020200305                                                                                                                       *
D081777997014  00677855627       FF20/726       INFANTES RODRIGUEZ  00000000020000000000000000000000000000000000000000000000002020033120200305120590500700073CCIA ESTUDIOS COL MA  *
T081777997014  00624CCIA ESTUDIOS COL             081777997014  000000000002000                                                                                                    *
H081777997014  009000000400000000002400000000000000020200305                                                                                                                       *
D081777997014  00971476888       FF20/712       BARRERA YAPU  LEONAR00000000060000000000000000000000000000000000000000000000002020033120200305220630500700139CERT ESTUDIO COL MAR  *
D081777997014  00972605978       FF20/733       CASTRO CERRON  JOSSE00000000060000000000000000000000000000000000000000000000002020033120200305120810500700094CERT ESTUDIOS SJL MA  *
D081777997014  00971012446       FF20/734       SOLARI TINEO  LUIS E00000000060000000000000000000000000000000000000000000000002020033120200305126860500700004CERT ESTUDIOS SJL MA  *
D081777997014  00971455620       FF20/705       ARANGO MUCHA  LAURA 00000000060000000000000000000000000000000000000000000000002020033120200305129470500700041CERT ESTUDIOS CAR MA  *
T081777997014  00929CERT ESTUDIO-COL              081777997014  000000000006000                                                                                                    *
T081777997014  00963CERT ESTUDIOS SJL             081777997014  000000000012000                                                                                                    *
T081777997014  00999CERT ESTUDIOS-CAR             081777997014  000000000006000                                                                                                    *
