H081777997014  001000010400000000589877100000000000020200106                                                                                                                       *
D081777997014  00177724840       2017/159719    SPONZA ESPINOZA  LEO00000000550000000000000000000000000000000000000000000001322019122120200106120100500700044PENSION DIC 2019 SJL  *
D081777997014  00173386279       2017/160147    SPONZA ESPINOZA  LUI00000000486000000000000000000000000000000000000000000001172019122120200106120100500700045PENSION DIC 2019 SJL  *
D081777997014  00170647388       2017/78240881  ALFARO SOLORZANO  AB00000000640000000000000000000000000000000000000000000003552019113020200106120130500700062PENSION NOV 2019 COL  *
D081777997014  00170647388       2017/78242159  ALFARO SOLORZANO  AB00000000640000000000000000000000000000000000000000000001542019122120200106120130500700063PENSION DIC 2019 COL  *
D081777997014  00161264613       2017/78238767  CARRASCO ESCOBAR  AN00000000640000000000000000000000000000000000000000000009412019093020200106120140500700004PENSION SEP 2019 COL  *
D081777997014  00161264613       2017/78239369  CARRASCO ESCOBAR  AN00000000640000000000000000000000000000000000000000000006432019103120200106120140500700004PENSION OCT 2019 COL  *
D081777997014  00161264613       2017/78241195  CARRASCO ESCOBAR  AN00000000640000000000000000000000000000000000000000000003552019113020200106120140500700004PENSION NOV 2019 COL  *
D081777997014  00161264613       2017/78242410  CARRASCO ESCOBAR  AN00000000640000000000000000000000000000000000000000000001542019122120200106120140500700004PENSION DIC 2019 COL  *
D081777997014  00173733497       2017/80003311  RIVERA CHERO  PATRIC00000000520000000000000000000000000000000000000000000033702018103120200106120210500700023PENSION OCT 2018 CAR  *
D081777997014  00173733497       2017/80003312  RIVERA CHERO  PATRIC00000000520000000000000000000000000000000000000000000031362018113020200106120210500700023PENSION NOV 2018 CAR  *
D081777997014  00174207288       2017/80013964  VILLA ALVARADO  BREN00000000540000000000000000000000000000000000000000000005432019103120200106120230500700046PENSION OCT 2019 CAR  *
D081777997014  00174207288       2017/80014466  VILLA ALVARADO  BREN00000000540000000000000000000000000000000000000000000003002019113020200106120230500700046PENSION NOV 2019 CAR  *
D081777997014  00174207288       2017/80015007  VILLA ALVARADO  BREN00000000540000000000000000000000000000000000000000000001302019122120200106120230500700046PENSION DIC 2019 CAR  *
D081777997014  00176979609       2017/160303    LOPEZ JAUREGUI  ROBE00000000540000000000000000000000000000000000000000000001302019122120200106120580500700038PENSION DIC 2019 SJL  *
D081777997014  00177230001       2017/159391    VALENZUELA MENDOZA  00000000540000000000000000000000000000000000000000000003002019113020200106120810500700007PENSION NOV 2019 SJL  *
D081777997014  00177230001       2017/160253    VALENZUELA MENDOZA  00000000540000000000000000000000000000000000000000000001302019122120200106120810500700007PENSION DIC 2019 SJL  *
D081777997014  00177586354       2017/78242679  ANASTACIO YANEZ  MAR00000000560000000000000000000000000000000000000000000001342019122120200106121770500700023PENSION DIC 2019 COL  *
D081777997014  00161362553       2017/78242480  CHUPAN YANCE  MARIAN00000000640000000000000000000000000000000000000000000001542019122120200106121770500700102PENSION DIC 2019 COL  *
D081777997014  00178065537       2017/78242856  SEMINARIO RAMIREZ  S00000000560000000000000000000000000000000000000000000001342019122120200106122160500700126PENSION DIC 2019 COL  *
D081777997014  00172194285       2017/78233537  LINDO SALINAS  SEBAS00000000640000000000000000000000000000000000000000000021122019053120200106122160500700181PENSION MAY 2019 COL  *
D081777997014  00172194285       2017/78235532  LINDO SALINAS  SEBAS00000000640000000000000000000000000000000000000000000018242019063020200106122160500700181PENSION JUN 2019 COL  *
D081777997014  00172194285       2017/78235857  LINDO SALINAS  SEBAS00000000640000000000000000000000000000000000000000000015262019073120200106122160500700181PENSION JUL 2019 COL  *
D081777997014  00171145296       2017/78241207  MAMANI LUQUE  ALVARO00000000640000000000000000000000000000000000000000000003552019113020200106122160500700221PENSION NOV 2019 COL  *
D081777997014  00171145296       2017/78242422  MAMANI LUQUE  ALVARO00000000640000000000000000000000000000000000000000000001542019122120200106122160500700221PENSION DIC 2019 COL  *
D081777997014  00178476711       2017/159588    MELGAREJO CHUMACERO 00000000560000000000000000000000000000000000000000000001342019122120200106122390500700029PENSION DIC 2019 SJL  *
D081777997014  00160189854       2017/158421    LUIS MANUEL  VALERIA00000000540000000000000000000000000000000000000000000005432019103120200106122470500700024PENSION OCT 2019 SJL  *
D081777997014  00160189854       2017/158581    LUIS MANUEL  VALERIA00000000540000000000000000000000000000000000000000000003002019113020200106122470500700024PENSION NOV 2019 SJL  *
D081777997014  00160189854       2017/160465    LUIS MANUEL  VALERIA00000000540000000000000000000000000000000000000000000001302019122120200106122470500700046PENSION DIC 2019 SJL  *
D081777997014  00170590158       2017/160279    COTRINA MORE  MARIA 00000000486000000000000000000000000000000000000000000001172019122120200106122470500700066PENSION DIC 2019 SJL  *
D081777997014  00161292328       2017/159677    COTRINA MORE  ERICK 00000000550000000000000000000000000000000000000000000001322019122120200106122470500700068PENSION DIC 2019 SJL  *
D081777997014  00162377323       2017/159694    SANCHEZ CONTRERAS  I00000000550000000000000000000000000000000000000000000001322019122120200106122470500700131PENSION DIC 2019 SJL  *
D081777997014  00178003001       2017/157863    MELGAREJO ARANDA  PA00000000550000000000000000000000000000000000000000000005532019103120200106122470500700140PENSION OCT 2019 SJL  *
D081777997014  00178003001       2017/159045    MELGAREJO ARANDA  PA00000000550000000000000000000000000000000000000000000003052019113020200106122470500700140PENSION NOV 2019 SJL  *
D081777997014  00178003001       2017/159898    MELGAREJO ARANDA  PA00000000550000000000000000000000000000000000000000000001322019122120200106122470500700140PENSION DIC 2019 SJL  *
D081777997014  00161825931       2017/78242755  CHAUCA TICONA  STHEF00000000640000000000000000000000000000000000000000000001542019122120200106222540500700034PENSION DIC 2019 COL  *
D081777997014  00174297593       2017/78235646  CARRASCO SALAZAR  SI00000000640000000000000000000000000000000000000000000018242019063020200106122540500700087PENSION JUN 2019 COL  *
D081777997014  00170719486       2017/78242471  ROCHA CALDERON  IVAN00000000640000000000000000000000000000000000000000000001542019122120200106222540500700098PENSION DIC 2019 COL  *
D081777997014  00170641136       2017/78241003  AYMAR AGUADO  STEFAN00000000640000000000000000000000000000000000000000000003552019113020200106125140500700006PENSION NOV 2019 COL  *
D081777997014  00170641136       2017/78242245  AYMAR AGUADO  STEFAN00000000640000000000000000000000000000000000000000000001542019122120200106125140500700006PENSION DIC 2019 COL  *
D081777997014  00172204598       2017/78242005  AYMAR AGUADO  VALENT00000000576000000000000000000000000000000000000000000001382019122120200106125140500700007PENSION DIC 2019 COL  *
D081777997014  00176415121       2017/151014    JORGE SOLIS  LEONEL 00000000540000000000000000000000000000000000000000000022762019033120200106126250500700014PENSION MAR 2019 SJL  *
D081777997014  00176415121       2017/152036    JORGE SOLIS  LEONEL 00000000540000000000000000000000000000000000000000000020332019043020200106126250500700014PENSION ABR 2019 SJL  *
D081777997014  00178636542       2017/80013028  ZAPATA VIDAL  RODRIG00000000560000000000000000000000000000000000000000000010752019083120200106126570500700033PENSION AGO 2019 CAR  *
D081777997014  00178636542       2017/80013403  ZAPATA VIDAL  RODRIG00000000560000000000000000000000000000000000000000000008232019093020200106126570500700033PENSION SEP 2019 CAR  *
D081777997014  00178636542       2017/80013844  ZAPATA VIDAL  RODRIG00000000560000000000000000000000000000000000000000000005632019103120200106126570500700033PENSION OCT 2019 CAR  *
D081777997014  00178636542       2017/80014321  ZAPATA VIDAL  RODRIG00000000560000000000000000000000000000000000000000000003112019113020200106126570500700033PENSION NOV 2019 CAR  *
D081777997014  00162578024       2017/80013109  ZAPATA VIDAL  MARIA 00000000495000000000000000000000000000000000000000000009502019083120200106126570500700034PENSION AGO 2019 CAR  *
D081777997014  00162578024       2017/80013639  ZAPATA VIDAL  MARIA 00000000495000000000000000000000000000000000000000000007282019093020200106126570500700034PENSION SEP 2019 CAR  *
D081777997014  00162578024       2017/80014075  ZAPATA VIDAL  MARIA 00000000495000000000000000000000000000000000000000000004972019103120200106126570500700034PENSION OCT 2019 CAR  *
D081777997014  00162578024       2017/80014648  ZAPATA VIDAL  MARIA 00000000495000000000000000000000000000000000000000000002752019113020200106126570500700034PENSION NOV 2019 CAR  *
D081777997014  00171180777       2017/78242435  CUTIPA SALAZAR  LEON00000000640000000000000000000000000000000000000000000001542019122120200106126610500700024PENSION DIC 2019 COL  *
D081777997014  00170864394       2017/78241015  SALAS BERROSPI  IAN 00000000640000000000000000000000000000000000000000000003552019113020200106126610500700031PENSION NOV 2019 COL  *
D081777997014  00170864394       2017/78242257  SALAS BERROSPI  IAN 00000000640000000000000000000000000000000000000000000001542019122120200106126610500700031PENSION DIC 2019 COL  *
D081777997014  00178721702       2017/78241853  CUTIPA MIRANDA  RICA00000000560000000000000000000000000000000000000000000001342019122120200106126610500700075PENSION DIC 2019 COL  *
D081777997014  00160796097       2017/78240809  BERTO AQUINO  RONALD00000000640000000000000000000000000000000000000000000003552019113020200106126610500700095PENSION NOV 2019 COL  *
D081777997014  00160796097       2017/78242114  BERTO AQUINO  RONALD00000000640000000000000000000000000000000000000000000001542019122120200106126610500700095PENSION DIC 2019 COL  *
D081777997014  00175869760       2017/160440    MEREGILDO VELASQUEZ 00000000540000000000000000000000000000000000000000000001302019122120200106126910500700016PENSION DIC 2019 SJL  *
D081777997014  00161879082       2017/159937    ZUMAETA MARAVI  DAVI00000000495000000000000000000000000000000000000000000001192019122120200106126910500700025PENSION DIC 2019 SJL  *
D081777997014  00174906032       2017/159478    ZUMAETA MARAVI  MIGU00000000486000000000000000000000000000000000000000000002702019113020200106126910500700026PENSION NOV 2019 SJL  *
D081777997014  00174906032       2017/160340    ZUMAETA MARAVI  MIGU00000000486000000000000000000000000000000000000000000001172019122120200106126910500700026PENSION DIC 2019 SJL  *
D081777997014  00160767789       2017/158533    ZUMAETA MARAVI  ROLA00000000486000000000000000000000000000000000000000000002702019113020200106126910500700027PENSION NOV 2019 SJL  *
D081777997014  00160767789       2017/160402    ZUMAETA MARAVI  ROLA00000000486000000000000000000000000000000000000000000001172019122120200106126910500700027PENSION DIC 2019 SJL  *
D081777997014  00170947156       2017/160387    CHAMORRO YAURICASA  00000000540000000000000000000000000000000000000000000001302019122120200106126910500700034PENSION DIC 2019 SJL  *
D081777997014  00170952229       2017/159682    PALACIOS YOVERA  PAM00000000550000000000000000000000000000000000000000000001322019122120200106126910500700049PENSION DIC 2019 SJL  *
D081777997014  00174868057       2017/153215    HERMENEGILDO SANTA C00000000540000000000000000000000000000000000000000000017822019053120200106126910500700054PENSION MAY 2019 SJL  *
D081777997014  00174868057       2017/154237    HERMENEGILDO SANTA C00000000540000000000000000000000000000000000000000000015392019063020200106126910500700054PENSION JUN 2019 SJL  *
D081777997014  00174868057       2017/154902    HERMENEGILDO SANTA C00000000540000000000000000000000000000000000000000000012882019073120200106126910500700054PENSION JUL 2019 SJL  *
D081777997014  00174868057       2017/156294    HERMENEGILDO SANTA C00000000540000000000000000000000000000000000000000000010372019083120200106126910500700054PENSION AGO 2019 SJL  *
D081777997014  00174868057       2017/157282    HERMENEGILDO SANTA C00000000540000000000000000000000000000000000000000000007942019093020200106126910500700054PENSION SEP 2019 SJL  *
D081777997014  00175646492       2017/157895    BACA ALVAREZ  ALEXIA00000000550000000000000000000000000000000000000000000005532019103120200106126910500700068PENSION OCT 2019 SJL  *
D081777997014  00175646492       2017/159077    BACA ALVAREZ  ALEXIA00000000550000000000000000000000000000000000000000000003052019113020200106126910500700068PENSION NOV 2019 SJL  *
D081777997014  00175646492       2017/159939    BACA ALVAREZ  ALEXIA00000000550000000000000000000000000000000000000000000001322019122120200106126910500700068PENSION DIC 2019 SJL  *
D081777997014  00161755101       2017/157792    BACA ALVAREZ  LIA MA00000000495000000000000000000000000000000000000000000004972019103120200106126910500700069PENSION OCT 2019 SJL  *
D081777997014  00161755101       2017/159007    BACA ALVAREZ  LIA MA00000000495000000000000000000000000000000000000000000002752019113020200106126910500700069PENSION NOV 2019 SJL  *
D081777997014  00161755101       2017/159822    BACA ALVAREZ  LIA MA00000000495000000000000000000000000000000000000000000001192019122120200106126910500700069PENSION DIC 2019 SJL  *
D081777997014  00173279402       2017/152899    ARIAS CANALES  RENAT00000000550000000000000000000000000000000000000000000018152019053120200106126910500700072PENSION MAY 2019 SJL  *
D081777997014  00173371815       2017/156231    MARQUEZ PEREZ  ANGEL00000000540000000000000000000000000000000000000000000010372019083120200106226910500700118PENSION AGO 2019 SJL  *
D081777997014  00173371815       2017/157253    MARQUEZ PEREZ  ANGEL00000000540000000000000000000000000000000000000000000007942019093020200106226910500700118PENSION SEP 2019 SJL  *
D081777997014  00173371815       2017/158275    MARQUEZ PEREZ  ANGEL00000000540000000000000000000000000000000000000000000005432019103120200106226910500700118PENSION OCT 2019 SJL  *
D081777997014  00173371815       2017/159457    MARQUEZ PEREZ  ANGEL00000000540000000000000000000000000000000000000000000003002019113020200106226910500700118PENSION NOV 2019 SJL  *
D081777997014  00173371815       2017/160319    MARQUEZ PEREZ  ANGEL00000000540000000000000000000000000000000000000000000001302019122120200106226910500700118PENSION DIC 2019 SJL  *
D081777997014  00172459229       2017/150951    PEDRAZA PADILLA  JEN00000000540000000000000000000000000000000000000000000022762019033120200106127420500700047PENSION MAR 2019 SJL  *
D081777997014  00172459229       2017/151973    PEDRAZA PADILLA  JEN00000000540000000000000000000000000000000000000000000020332019043020200106127420500700047PENSION ABR 2019 SJL  *
D081777997014  00172459229       2017/152995    PEDRAZA PADILLA  JEN00000000540000000000000000000000000000000000000000000017822019053120200106127420500700047PENSION MAY 2019 SJL  *
D081777997014  00172459229       2017/154017    PEDRAZA PADILLA  JEN00000000540000000000000000000000000000000000000000000015392019063020200106127420500700047PENSION JUN 2019 SJL  *
D081777997014  00172459229       2017/154682    PEDRAZA PADILLA  JEN00000000540000000000000000000000000000000000000000000012882019073120200106127420500700047PENSION JUL 2019 SJL  *
D081777997014  00172459229       2017/156061    PEDRAZA PADILLA  JEN00000000540000000000000000000000000000000000000000000010372019083120200106127420500700047PENSION AGO 2019 SJL  *
D081777997014  00172459229       2017/157083    PEDRAZA PADILLA  JEN00000000540000000000000000000000000000000000000000000007942019093020200106127420500700047PENSION SEP 2019 SJL  *
D081777997014  00172459229       2017/158105    PEDRAZA PADILLA  JEN00000000540000000000000000000000000000000000000000000005432019103120200106127420500700047PENSION OCT 2019 SJL  *
D081777997014  00172459229       2017/159287    PEDRAZA PADILLA  JEN00000000540000000000000000000000000000000000000000000003002019113020200106127420500700048PENSION NOV 2019 SJL  *
D081777997014  00175643138       2017/80015683  RODRIGUEZ MEDRANO  A00000000550000000000000000000000000000000000000000000003052019113020200106227844651002870PENSION NOV 2019 CAR  *
D081777997014  00175643138       2017/80015684  RODRIGUEZ MEDRANO  A00000000550000000000000000000000000000000000000000000001322019122120200106227844651002871PENSION DIC 2019 CAR  *
D081777997014  00171179784       2017/78242488  PERALTA ROJAS  ARIAN00000000640000000000000000000000000000000000000000000001542019122120200106227844651006204PENSION DIC 2019 COL  *
D081777997014  00170717456       2017/78238746  AVILA CHIROQUE  VIAN00000000576000000000000000000000000000000000000000000008472019093020200106227844651006785PENSION SEP 2019 COL  *
D081777997014  00170717456       2017/78239402  AVILA CHIROQUE  VIAN00000000576000000000000000000000000000000000000000000005792019103120200106227844651006787PENSION OCT 2019 COL  *
D081777997014  00174676631       2017/80014681  CASTANEDA BARZOLA  A00000000550000000000000000000000000000000000000000000003052019113020200106227844651008090PENSION NOV 2019 CAR  *
D081777997014  00162663702       2017/159823    MIRANDA FARIAS  FABI00000000550000000000000000000000000000000000000000000001322019122120200106227844651013694PENSION DIC 2019 SJL  *
D081777997014  00173174366       2017/78241760  ROJAS VILLA  JEAN SE00000000640000000000000000000000000000000000000000000001542019122120200106227844651015674PENSION DIC 2019 COL  *
D081777997014  00177996771       2017/159721    HUAMAN PAULLO  DANIE00000000550000000000000000000000000000000000000000000001322019122120200106227844651015699PENSION DIC 2019 SJL  *
D081777997014  00171154878       2017/80015111  ROSALES ESPINOZA  FA00000000495000000000000000000000000000000000000000000001192019122120200106227844651015968PENSION DIC 2019 CAR  *
D081777997014  00176497732       2017/80015024  ROSALES ESPINOZA  LU00000000550000000000000000000000000000000000000000000001322019122120200106227844651015991PENSION DIC 2019 CAR  *
D081777997014  00170717456       2017/78241174  AVILA CHIROQUE  VIAN00000000576000000000000000000000000000000000000000000003202019113020200106227844651022229PENSION NOV 2019 COL  *
D081777997014  00170717456       2017/78242389  AVILA CHIROQUE  VIAN00000000576000000000000000000000000000000000000000000001382019122120200106227844651022235PENSION DIC 2019 COL  *
D081777997014  00174241721       2017/78231165  DAVALOS ARTEAGA  JAI00000000576000000000000000000000000000000000000000000024282019033120200106227844651023221PENSION MAR 2019 COL  *
T081777997014  00101PENSION                       081777997014  000000002067300                                                                                                    *
T081777997014  00102PENSION SAN JUAN              081777997014  000000002860277                                                                                                    *
T081777997014  00103PENSION                       081777997014  000000000971194                                                                                                    *
H081777997014  003000006100000000322600000000000000020200106                                                                                                                       *
D081777997014  00379406304       2017/161464    GALVEZ QUISPE  LUIS 00000000513000000000000000000000000000000000000000000000002019122120200106120100500700103MATRICULA SJL         *
D081777997014  00376885026       2017/161529    GRANDEZ LAZO  CAMILA00000000513000000000000000000000000000000000000000000000002020013120200106120110500700064INSCRIPCION SJL       *
D081777997014  00377830764       2017/78244172  QUISPE GONZALES  MEL00000000522000000000000000000000000000000000000000000000002020013120200106120140500700079MATRICULA COL         *
D081777997014  00377834049       2017/78244144  PAGUADA PEREZ  FACUN00000000522000000000000000000000000000000000000000000000002020013120200106120700500700035MATRICULA COL         *
D081777997014  00379020929       2017/78244153  HURTADO SICCHA  MART00000000513000000000000000000000000000000000000000000000002020013120200106121350500700069MATRICULA COL         *
D081777997014  00378447823       2017/78244191  CORDOVA PEREZ  ANAHI00000000522000000000000000000000000000000000000000000000002020013120200106121770500700100MATRICULA COL         *
D081777997014  00377347612       2017/78244192  CORDOVA PEREZ  JUAN 00000000603000000000000000000000000000000000000000000000002020013120200106121770500700101MATRICULA COL         *
D081777997014  00376894459       2017/78244176  CAHUANA DE LA CRUZ  00000000603000000000000000000000000000000000000000000000002020013120200106122100500700066MATRICULA COL         *
D081777997014  00378712539       2017/78244175  CAHUANA DE LA CRUZ  00000000513000000000000000000000000000000000000000000000002020013120200106122100500700069MATRICULA COL         *
D081777997014  00361176910       2017/161564    RAMIREZ GUTIERREZ  V00000000513000000000000000000000000000000000000000000000002020013120200106122190500700076INSCRIPCION SJL       *
D081777997014  00372699032       2017/161565    RAMIREZ GUTIERREZ  N00000000513000000000000000000000000000000000000000000000002020013120200106122190500700077INSCRIPCION SJL       *
D081777997014  00361931686       2017/78244160  CUELLAR VELAOCHAGA  00000000603000000000000000000000000000000000000000000000002020013120200106122240500700061MATRICULA COL         *
D081777997014  00374694520       2017/78244149  SULLCA SANCHEZ  VANE00000000603000000000000000000000000000000000000000000000002020013120200106122310500700083MATRICULA COL         *
D081777997014  00360419902       2017/78244146  VELASQUEZ VILLARREAL00000000603000000000000000000000000000000000000000000000002020013120200106122410500700094MATRICULA COL         *
D081777997014  00377191017       2017/161559    VILCHEZ MANCILLA  DI00000000513000000000000000000000000000000000000000000000002020013120200106122470500700088INSCRIPCION SJL       *
D081777997014  00362577615       2017/161560    VILCHEZ MANCILLA  MA00000000513000000000000000000000000000000000000000000000002020013120200106122470500700089INSCRIPCION SJL       *
D081777997014  00376883165       2017/161554    CANALES MAZA  FABIAN00000000513000000000000000000000000000000000000000000000002020013120200106122470500700112INSCRIPCION SJL       *
D081777997014  00374216347       2017/161402    APARCO SAAVEDRA  MAR00000000484500000000000000000000000000000000000000000000002019122120200106122470500700145MATRICULA SJL         *
D081777997014  00376100393       2017/161586    BARTOLO ACOSTA  NICO00000000513000000000000000000000000000000000000000000000002020013120200106122470500700146INSCRIPCION SJL       *
D081777997014  00373051065       2017/161587    BARTOLO ACOSTA  LEON00000000513000000000000000000000000000000000000000000000002020013120200106122470500700148INSCRIPCION SJL       *
D081777997014  00374952104       2017/161575    QUISPE AGUILAR  JADE00000000513000000000000000000000000000000000000000000000002020013120200106122470500700158INSCRIPCION SJL       *
D081777997014  00377118422       2017/161569    VEGA PONCE  EDUARDO 00000000513000000000000000000000000000000000000000000000002020013120200106122470500700162INSCRIPCION SJL       *
D081777997014  00373920991       2017/80016069  AGUILAR VASQUEZ  EDU00000000476000000000000000000000000000000000000000000000002019122120200106222540500700054MATRICULA CAR         *
D081777997014  00372750245       2017/78244198  RIVERA MELCHOR  GERA00000000603000000000000000000000000000000000000000000000002020013120200106122540500700096MATRICULA COL         *
D081777997014  00379934530       2017/78244147  VILLENA CAMPOS  HECT00000000350000000000000000000000000000000000000000000000002020013120200106122540500700103INSCRIPCION COL       *
D081777997014  00379934530       2017/78244148  VILLENA CAMPOS  HECT00000000570000000000000000000000000000000000000000000000002020013120200106122540500700103MATRICULA COL         *
D081777997014  00378966436       2017/78244186  VIGNOLO MUNOZ  CLAUD00000000603000000000000000000000000000000000000000000000002020013120200106122540500700105MATRICULA COL         *
D081777997014  00360892799       2017/161573    PORTUGAL DE LA  CRUZ00000000513000000000000000000000000000000000000000000000002020013120200106122640500700156INSCRIPCION SJL       *
D081777997014  00378085686       2017/78244190  PAZ SOLDAN CUETO  BI00000000522000000000000000000000000000000000000000000000002020013120200106123010500700169MATRICULA COL         *
D081777997014  00360587743       2017/78244177  CRUZ ARIZA  ANDRE FR00000000670000000000000000000000000000000000000000000000002020013120200106123040500700027MATRICULA COL         *
D081777997014  00360587743       2017/78244178  CRUZ ARIZA  ANDRE FR00000000350000000000000000000000000000000000000000000000002020013120200106123040500700028INSCRIPCION COL       *
D081777997014  00376535947       2017/78244163  SANCHEZ SAGASTEGUI  00000000603000000000000000000000000000000000000000000000002020013120200106124280500700112MATRICULA COL         *
D081777997014  00378008627       2017/78244150  BARRENECHEA ARANGO  00000000603000000000000000000000000000000000000000000000002020013120200106125350500700110MATRICULA COL         *
D081777997014  00375325385       2017/80016146  AVELLANEDA CERRON  O00000000495000000000000000000000000000000000000000000000002020010420200106226570500700035INSCRIPCION CAR       *
D081777997014  00363708247       2017/78244156  RENDON MALCA  LUANA 00000000580000000000000000000000000000000000000000000000002020013120200106126610500700140MATRICULA COL         *
D081777997014  00363708247       2017/78244157  RENDON MALCA  LUANA 00000000350000000000000000000000000000000000000000000000002020013120200106126610500700140INSCRIPCION COL       *
D081777997014  00373396273       2017/78244141  MAITA GALLANGO  MARI00000000603000000000000000000000000000000000000000000000002020013120200106126610500700166MATRICULA COL         *
D081777997014  00377714251       2017/78244142  MAITA GALLANGO  WALT00000000522000000000000000000000000000000000000000000000002020013120200106126610500700167MATRICULA COL         *
D081777997014  00361179385       2017/161443    ARMAS HUAMAN  RICARD00000000513000000000000000000000000000000000000000000000002019122120200106126860500700002MATRICULA SJL         *
D081777997014  00362433488       2017/161444    ARMAS HUAMAN  YAMILE00000000513000000000000000000000000000000000000000000000002019122120200106126860500700003MATRICULA SJL         *
D081777997014  00378214535       2017/161348    ZELAYA LOPEZ  CAMILA00000000484500000000000000000000000000000000000000000000002019122120200106126910500700053MATRICULA SJL         *
D081777997014  00378156990       2017/161537    CHURA DOCUMET  LOGAN00000000513000000000000000000000000000000000000000000000002020013120200106126910500700058INSCRIPCION SJL       *
D081777997014  00377114216       2017/161561    BARRETO DELGADO  MAT00000000513000000000000000000000000000000000000000000000002020013120200106126910500700080INSCRIPCION SJL       *
D081777997014  00373395368       2017/161562    BARRETO DELGADO  ROM00000000513000000000000000000000000000000000000000000000002020013120200106126910500700081INSCRIPCION SJL       *
D081777997014  00374510526       2017/161580    YAURICASA JIMENEZ  C00000000513000000000000000000000000000000000000000000000002020013120200106126910500700084INSCRIPCION SJL       *
D081777997014  00379137233       2017/161567    ROSALES LOARTE  JOAQ00000000513000000000000000000000000000000000000000000000002020013120200106126910500700097INSCRIPCION SJL       *
D081777997014  00378063086       2017/161566    ROSALES LOARTE  LUCI00000000513000000000000000000000000000000000000000000000002020013120200106126910500700098INSCRIPCION SJL       *
D081777997014  00360769833       2017/161572    CUELLAR BELLO  RONAL00000000513000000000000000000000000000000000000000000000002020013120200106126910500700115INSCRIPCION SJL       *
D081777997014  00361360327       2017/161512    CABANILLAS PALOMINO 00000000513000000000000000000000000000000000000000000000002020013120200106127420500700083INSCRIPCION SJL       *
D081777997014  00377165930       2017/161551    CONDORI NINA  DARIO 00000000513000000000000000000000000000000000000000000000002020013120200106127420500700101INSCRIPCION SJL       *
D081777997014  00378456247       2017/161550    CONDORI NINA  GABRIE00000000513000000000000000000000000000000000000000000000002020013120200106127420500700102INSCRIPCION SJL       *
D081777997014  00378981971       2017/161508    HUARACHE HUAMANI  JO00000000513000000000000000000000000000000000000000000000002020013120200106227844651015470INSCRIPCION SJL       *
D081777997014  00376482092       2017/78244145  ASTONITAS DENEGRI  E00000000603000000000000000000000000000000000000000000000002020013120200106227844651015671MATRICULA COL         *
D081777997014  00374815258       2017/80016147  LEY CALDERON  FABIO 00000000495000000000000000000000000000000000000000000000002020010420200106227844651016181INSCRIPCION CAR       *
D081777997014  00378496209       2017/161544    RIMAC QUISPE  CIELO 00000000513000000000000000000000000000000000000000000000002020013120200106227844651016238INSCRIPCION SJL       *
D081777997014  00377408318       2017/78244166  MOYA TIPPE  MATEO AU00000000603000000000000000000000000000000000000000000000002020013120200106227844651019830MATRICULA COL         *
D081777997014  00361007969       2017/78244185  CORDERO MIRANDA  ANT00000000603000000000000000000000000000000000000000000000002020013120200106227844651019889MATRICULA COL         *
D081777997014  00378450390       2017/161548    JAVIER PEREZ  DIEGO 00000000513000000000000000000000000000000000000000000000002020013120200106128850500700009INSCRIPCION SJL       *
D081777997014  00373402632       2017/161549    JAVIER PEREZ  DANIEL00000000513000000000000000000000000000000000000000000000002020013120200106128850500700010INSCRIPCION SJL       *
D081777997014  00370739095       2017/161535    ALDANA FRANCIA  AILE00000000513000000000000000000000000000000000000000000000002020013120200106129470500700131INSCRIPCION SJL       *
D081777997014  00371180777       2017/78244197  CUTIPA SALAZAR  LEON00000000603000000000000000000000000000000000000000000000002020013120200106129470500700246MATRICULA COL         *
T081777997014  00304MATRICULA                     081777997014  000000001389800                                                                                                    *
T081777997014  00305DERECHO DE INGRESO LIM 2018   081777997014  000000000105000                                                                                                    *
T081777997014  00306MATRICULA SJL - PREMATRICULA  081777997014  000000001584600                                                                                                    *
T081777997014  00308MATRICULA CAR 2019            081777997014  000000000146600                                                                                                    *
H081777997014  009000000400000000002400000000000000020200106                                                                                                                       *
D081777997014  00961362885       FF20/24        SANCHEZ CRISOSTOMO  00000000060000000000000000000000000000000000000000000000002020013120200106120970500700053CERT ESTUDIOS SJL EN  *
D081777997014  00973371832       FF20/16        PERALTA CORDERO  ADR00000000060000000000000000000000000000000000000000000000002020013120200106122470500700027CERT ESTUDIOS SJL EN  *
D081777997014  00972188747       FF20/7         ALVA VERA  LUIS DAVI00000000060000000000000000000000000000000000000000000000002020013120200106123880500700048CERT ESTUDIO COL ENE  *
D081777997014  00975456086       FF20/10        IZAGUIRRE TORRE  ADR00000000060000000000000000000000000000000000000000000000002020013120200106126610500700152CERT ESTUDIO COL ENE  *
T081777997014  00929CERT ESTUDIO-COL              081777997014  000000000012000                                                                                                    *
T081777997014  00963CERT ESTUDIOS SJL             081777997014  000000000012000                                                                                                    *
H081777997014  012000000700000000003000000000000000020200106                                                                                                                       *
D081777997014  01261927215       FF20/34        CALDERON MEDINA  RAM00000000060000000000000000000000000000000000000000000000002020013120200106220100500700125PRA ACAD COLONIAL EN  *
D081777997014  01272853857       FF19/2402      NIETO SALINAS  LUIS 00000000030000000000000000000000000000000000000000000000002019122120200106122470500700060PRA ACAD SJL DIC 201  *
D081777997014  01275632056       FF20/42        VENEGAS SOLANO  BAYR00000000030000000000000000000000000000000000000000000000002020013120200106122540500700088PRA ACAD COLONIAL EN  *
D081777997014  01260905038       FF20/30        PASTRANA PISCOYA  MI00000000090000000000000000000000000000000000000000000000002020013120200106122540500700093PRA ACAD COLONIAL EN  *
D081777997014  01276209136       FF20/39        REYES BALCAZAR  ANGE00000000030000000000000000000000000000000000000000000000002020013120200106122540500700095PRA ACAD COLONIAL EN  *
D081777997014  01275646492       FF20/17        BACA ALVAREZ  ALEXIA00000000030000000000000000000000000000000000000000000000002020013120200106126910500700068PRA ACAD SJL ENE 202  *
D081777997014  01272590221       FF20/43        SANCHEZ NIEVES  AARO00000000030000000000000000000000000000000000000000000000002020013120200106227844651019577PRA ACAD COLONIAL EN  *
T081777997014  01230PRA ACAD COLONIAL             081777997014  000000000024000                                                                                                    *
T081777997014  01257PRA ACAD SJL                  081777997014  000000000003000                                                                                                    *
T081777997014  01266PRA ACAD SJL                  081777997014  000000000003000                                                                                                    *
