H081777997014  001000008500000000461426300000000000020200129                                                                                                                       *
D081777997014  00174136764       2017/78168155  PEREZ TENORIO  JOSEP00000000423000000000000000000000000000000000000000000000002020033120200129120140500700063PENSION MAR 2017 COL  *
D081777997014  00174136764       2017/78169756  PEREZ TENORIO  JOSEP00000000423000000000000000000000000000000000000000000000002020043020200129120140500700063PENSION ABR 2017 COL  *
D081777997014  00174136764       2017/78171145  PEREZ TENORIO  JOSEP00000000423000000000000000000000000000000000000000000000002020053120200129120140500700063PENSION MAY 2017 COL  *
D081777997014  00174136764       2017/78172447  PEREZ TENORIO  JOSEP00000000423000000000000000000000000000000000000000000000002020063020200129120140500700063PENSION JUN 2017 COL  *
D081777997014  00174136764       2017/78173845  PEREZ TENORIO  JOSEP00000000423000000000000000000000000000000000000000000000002020073120200129120140500700063PENSION JUL 2017 COL  *
D081777997014  00174136764       2017/78175224  PEREZ TENORIO  JOSEP00000000423000000000000000000000000000000000000000000000002020083120200129120140500700063PENSION AGO 2017 COL  *
D081777997014  00174136764       2017/78176614  PEREZ TENORIO  JOSEP00000000423000000000000000000000000000000000000000000000002020093020200129120140500700063PENSION SEP 2017 COL  *
D081777997014  00174136764       2017/78178051  PEREZ TENORIO  JOSEP00000000423000000000000000000000000000000000000000000000002020103120200129120140500700063PENSION OCT 2017 COL  *
D081777997014  00174136764       2017/78179331  PEREZ TENORIO  JOSEP00000000423000000000000000000000000000000000000000000000002020113020200129120140500700063PENSION NOV 2017 COL  *
D081777997014  00174136764       2017/78180987  PEREZ TENORIO  JOSEP00000000423000000000000000000000000000000000000000000000002020122120200129120140500700063PENSION DIC 2017 COL  *
D081777997014  00177533077       2017/80013863  TAIPE HUAMAN  YAHAIR00000000540000000000000000000000000000000000000000000007292019103120200129120210500700087PENSION OCT 2019 CAR  *
D081777997014  00177533077       2017/80014540  TAIPE HUAMAN  YAHAIR00000000540000000000000000000000000000000000000000000004862019113020200129120210500700087PENSION NOV 2019 CAR  *
D081777997014  00177533077       2017/80014906  TAIPE HUAMAN  YAHAIR00000000540000000000000000000000000000000000000000000003162019122120200129120210500700087PENSION DIC 2019 CAR  *
D081777997014  00178982358       2017/80014335  ALCANTARA MORA  ANDR00000000560000000000000000000000000000000000000000000005042019113020200129220210500700112PENSION NOV 2019 CAR  *
D081777997014  00178982358       2017/80014861  ALCANTARA MORA  ANDR00000000560000000000000000000000000000000000000000000003282019122120200129220210500700112PENSION DIC 2019 CAR  *
D081777997014  00170705100       2017/78243369  FRANCO VASQUEZ  MARY00000000640000000000000000000000000000000000000000000011622019093020200129120350500700039PENSION SEP 2019 COL  *
D081777997014  00170705100       2017/78243370  FRANCO VASQUEZ  MARY00000000640000000000000000000000000000000000000000000008642019103120200129120350500700093PENSION OCT 2019 COL  *
D081777997014  00161107693       2017/78240411  CAMARENA CHUPAN  JHA00000000640000000000000000000000000000000000000000000008642019103120200129121770500700042PENSION OCT 2019 COL  *
D081777997014  00161107693       2017/78240878  CAMARENA CHUPAN  JHA00000000640000000000000000000000000000000000000000000005762019113020200129121770500700042PENSION NOV 2019 COL  *
D081777997014  00161107693       2017/78242156  CAMARENA CHUPAN  JHA00000000640000000000000000000000000000000000000000000003742019122120200129121770500700042PENSION DIC 2019 COL  *
D081777997014  00177969150       2017/78244532  ZAMUDIO NECIOSUP  CA00000000580000000000000000000000000000000000000000000000002020033120200129222190500700072PENSION MAR 2020 COL  *
D081777997014  00177969150       2017/78244533  ZAMUDIO NECIOSUP  CA00000000580000000000000000000000000000000000000000000000002020043020200129222190500700072PENSION ABR 2020 COL  *
D081777997014  00177969150       2017/78244534  ZAMUDIO NECIOSUP  CA00000000580000000000000000000000000000000000000000000000002020053120200129222190500700072PENSION MAY 2020 COL  *
D081777997014  00177969150       2017/78244535  ZAMUDIO NECIOSUP  CA00000000580000000000000000000000000000000000000000000000002020063020200129222190500700072PENSION JUN 2020 COL  *
D081777997014  00177969150       2017/78244536  ZAMUDIO NECIOSUP  CA00000000580000000000000000000000000000000000000000000000002020073120200129222190500700072PENSION JUL 2020 COL  *
D081777997014  00177969150       2017/78244537  ZAMUDIO NECIOSUP  CA00000000580000000000000000000000000000000000000000000000002020083120200129222190500700072PENSION AGO 2020 COL  *
D081777997014  00177969150       2017/78244538  ZAMUDIO NECIOSUP  CA00000000580000000000000000000000000000000000000000000000002020093020200129222190500700072PENSION SEP 2020 COL  *
D081777997014  00177969150       2017/78244539  ZAMUDIO NECIOSUP  CA00000000580000000000000000000000000000000000000000000000002020103120200129222190500700072PENSION OCT 2020 COL  *
D081777997014  00177969150       2017/78244540  ZAMUDIO NECIOSUP  CA00000000580000000000000000000000000000000000000000000000002020113020200129222190500700072PENSION NOV 2020 COL  *
D081777997014  00177969150       2017/78244541  ZAMUDIO NECIOSUP  CA00000000290000000000000000000000000000000000000000000000002020121920200129222190500700072PENSION DIC 2020 COL  *
D081777997014  00174670535       2017/78242538  HERRERA DIAZ  YAITZA00000000640000000000000000000000000000000000000000000003742019122120200129122290500700011PENSION DIC 2019 COL  *
D081777997014  00175042530       2017/78236448  SOTO GOMEZ  SANTIAGO00000000640000000000000000000000000000000000000000000017472019073120200129122410500700057PENSION JUL 2019 COL  *
D081777997014  00175042530       2017/78237736  SOTO GOMEZ  SANTIAGO00000000640000000000000000000000000000000000000000000014502019083120200129122410500700057PENSION AGO 2019 COL  *
D081777997014  00175042530       2017/78238878  SOTO GOMEZ  SANTIAGO00000000640000000000000000000000000000000000000000000011622019093020200129122410500700057PENSION SEP 2019 COL  *
D081777997014  00175042530       2017/78239523  SOTO GOMEZ  SANTIAGO00000000640000000000000000000000000000000000000000000008642019103120200129122410500700057PENSION OCT 2019 COL  *
D081777997014  00175521681       2017/154294    PAJUELO VALLEJOS  AL00000000540000000000000000000000000000000000000000000017252019063020200129222470500700089PENSION JUN 2019 SJL  *
D081777997014  00175521681       2017/154958    PAJUELO VALLEJOS  AL00000000540000000000000000000000000000000000000000000014742019073120200129222470500700089PENSION JUL 2019 SJL  *
D081777997014  00175521681       2017/156338    PAJUELO VALLEJOS  AL00000000540000000000000000000000000000000000000000000012232019083120200129222470500700089PENSION AGO 2019 SJL  *
D081777997014  00175521681       2017/157360    PAJUELO VALLEJOS  AL00000000540000000000000000000000000000000000000000000009802019093020200129222470500700089PENSION SEP 2019 SJL  *
D081777997014  00175521681       2017/158382    PAJUELO VALLEJOS  AL00000000540000000000000000000000000000000000000000000007292019103120200129222470500700089PENSION OCT 2019 SJL  *
D081777997014  00175521681       2017/158563    PAJUELO VALLEJOS  AL00000000540000000000000000000000000000000000000000000004862019113020200129222470500700089PENSION NOV 2019 SJL  *
D081777997014  00175521681       2017/160411    PAJUELO VALLEJOS  AL00000000540000000000000000000000000000000000000000000003162019122120200129222470500700089PENSION DIC 2019 SJL  *
D081777997014  00174197340       2017/78231379  SOTO GOMEZ  SEBASTIA00000000576000000000000000000000000000000000000000000026272019033120200129123910500700066PENSION MAR 2019 COL  *
D081777997014  00174197340       2017/78232594  SOTO GOMEZ  SEBASTIA00000000576000000000000000000000000000000000000000000023672019043020200129123910500700066PENSION ABR 2019 COL  *
D081777997014  00174197340       2017/78233929  SOTO GOMEZ  SEBASTIA00000000576000000000000000000000000000000000000000000021002019053120200129123910500700066PENSION MAY 2019 COL  *
D081777997014  00174197340       FF19/1741      SOTO GOMEZ  SEBASTIA00000000640000000000000000000000000000000000000000000020452019063020200129123910500700066PENSION JUN 2019 COL  *
D081777997014  00174197340       FF19/1742      SOTO GOMEZ  SEBASTIA00000000640000000000000000000000000000000000000000000017472019073120200129123910500700066PENSION JUL 2019 COL  *
D081777997014  00172208718       2017/78240817  ESPINOZA RAMOS  DANA00000000640000000000000000000000000000000000000000000005762019113020200129124450500700072PENSION NOV 2019 COL  *
D081777997014  00172892810       2017/78237522  TARAZONA SANCHEZ  MA00000000640000000000000000000000000000000000000000000014502019083120200129126610500700008PENSION AGO 2019 COL  *
D081777997014  00172892810       2017/78238664  TARAZONA SANCHEZ  MA00000000640000000000000000000000000000000000000000000011622019093020200129126610500700011PENSION SEP 2019 COL  *
D081777997014  00172892810       2017/78239309  TARAZONA SANCHEZ  MA00000000640000000000000000000000000000000000000000000008642019103120200129126610500700012PENSION OCT 2019 COL  *
D081777997014  00172892810       2017/78241094  TARAZONA SANCHEZ  MA00000000640000000000000000000000000000000000000000000005762019113020200129126610500700013PENSION NOV 2019 COL  *
D081777997014  00172892810       2017/78242309  TARAZONA SANCHEZ  MA00000000640000000000000000000000000000000000000000000003742019122120200129126610500700014PENSION DIC 2019 COL  *
D081777997014  00172900178       2017/78237408  TARAZONA SANCHEZ  JE00000000576000000000000000000000000000000000000000000013052019083120200129126610500700016PENSION AGO 2019 COL  *
D081777997014  00172900178       2017/78238497  TARAZONA SANCHEZ  JE00000000576000000000000000000000000000000000000000000010452019093020200129126610500700018PENSION SEP 2019 COL  *
D081777997014  00172900178       2017/78240357  TARAZONA SANCHEZ  JE00000000576000000000000000000000000000000000000000000007782019103120200129126610500700019PENSION OCT 2019 COL  *
D081777997014  00172900178       2017/78240960  TARAZONA SANCHEZ  JE00000000576000000000000000000000000000000000000000000005182019113020200129126610500700020PENSION NOV 2019 COL  *
D081777997014  00172900178       2017/78242142  TARAZONA SANCHEZ  JE00000000576000000000000000000000000000000000000000000003372019122120200129126610500700021PENSION DIC 2019 COL  *
D081777997014  00170951580       2017/160009    SUAREZ AGUIRRE  ROLA00000000495000000000000000000000000000000000000000000002902019122120200129126860500700002PENSION DIC 2019 SJL  *
D081777997014  00177544268       2017/151148    VEGA MARTINEZ  MARIA00000000540000000000000000000000000000000000000000000024622019033120200129126910500700041PENSION MAR 2019 SJL  *
D081777997014  00177544268       2017/152170    VEGA MARTINEZ  MARIA00000000540000000000000000000000000000000000000000000022192019043020200129126910500700041PENSION ABR 2019 SJL  *
D081777997014  00177544268       2017/153192    VEGA MARTINEZ  MARIA00000000540000000000000000000000000000000000000000000019682019053120200129126910500700041PENSION MAY 2019 SJL  *
D081777997014  00177544268       2017/154214    VEGA MARTINEZ  MARIA00000000540000000000000000000000000000000000000000000017252019063020200129126910500700041PENSION JUN 2019 SJL  *
D081777997014  00174333726       2017/157454    ROMERO PEREZ  DANNA 00000000550000000000000000000000000000000000000000000007432019103120200129126910500700052PENSION OCT 2019 SJL  *
D081777997014  00174333726       2017/158704    ROMERO PEREZ  DANNA 00000000550000000000000000000000000000000000000000000004952019113020200129126910500700052PENSION NOV 2019 SJL  *
D081777997014  00174333726       2017/159669    ROMERO PEREZ  DANNA 00000000550000000000000000000000000000000000000000000003222019122120200129126910500700052PENSION DIC 2019 SJL  *
D081777997014  00173028035       2017/158139    ROMERO PEREZ  DANIEL00000000486000000000000000000000000000000000000000000006562019103120200129126910500700054PENSION OCT 2019 SJL  *
D081777997014  00173028035       2017/159321    ROMERO PEREZ  DANIEL00000000486000000000000000000000000000000000000000000004372019113020200129126910500700054PENSION NOV 2019 SJL  *
D081777997014  00173028035       2017/160183    ROMERO PEREZ  DANIEL00000000486000000000000000000000000000000000000000000002842019122120200129126910500700054PENSION DIC 2019 SJL  *
D081777997014  00178151602       2017/80013803  TORRES GOVEA  SEBAST00000000560000000000000000000000000000000000000000000007562019103120200129127020500700034PENSION OCT 2019 CAR  *
D081777997014  00178151602       2017/80014280  TORRES GOVEA  SEBAST00000000560000000000000000000000000000000000000000000005042019113020200129127020500700034PENSION NOV 2019 CAR  *
D081777997014  00161264635       2017/80013931  TORRES GOVEA  ROMINA00000000486000000000000000000000000000000000000000000006562019103120200129127020500700035PENSION OCT 2019 CAR  *
D081777997014  00161264635       2017/80014433  TORRES GOVEA  ROMINA00000000486000000000000000000000000000000000000000000004372019113020200129127020500700035PENSION NOV 2019 CAR  *
D081777997014  00178854250       2017/156417    DE LA TORRE CONDORE 00000000560000000000000000000000000000000000000000000010162019093020200129127420500700047PENSION SEP 2019 SJL  *
D081777997014  00175298906       2017/159110    VEGA FELIX  ROMARIO 00000000550000000000000000000000000000000000000000000004952019113020200129127420500700058PENSION NOV 2019 SJL  *
D081777997014  00175298906       2017/159972    VEGA FELIX  ROMARIO 00000000550000000000000000000000000000000000000000000003222019122120200129127420500700058PENSION DIC 2019 SJL  *
D081777997014  00171355128       2017/156928    SANCHEZ CADILLO  ROD00000000550000000000000000000000000000000000000000000009982019093020200129227844651004302PENSION SEP 2019 SJL  *
D081777997014  00178076637       2017/159531    LLACUACHAQUI NAVARRE00000000392000000000000000000000000000000000000000000002292019122120200129227844651011465PENSION DIC 2019 SJL  *
D081777997014  00178891665       2017/80015490  CASTANEDA RODRIGUEZ 00000000392000000000000000000000000000000000000000000003532019113020200129227844651014562PENSION NOV 2019 CAR  *
D081777997014  00178891665       2017/80015491  CASTANEDA RODRIGUEZ 00000000392000000000000000000000000000000000000000000002292019122120200129227844651014563PENSION DIC 2019 CAR  *
D081777997014  00177721227       2017/80015527  CASTANEDA RODRIGUEZ 00000000385000000000000000000000000000000000000000000008722019083120200129227844651014609PENSION AGO 2019 CAR  *
D081777997014  00177721227       2017/80015528  CASTANEDA RODRIGUEZ 00000000385000000000000000000000000000000000000000000006992019093020200129227844651014610PENSION SEP 2019 CAR  *
D081777997014  00177721227       2017/80015529  CASTANEDA RODRIGUEZ 00000000385000000000000000000000000000000000000000000005202019103120200129227844651014611PENSION OCT 2019 CAR  *
D081777997014  00177721227       2017/80015530  CASTANEDA RODRIGUEZ 00000000385000000000000000000000000000000000000000000003472019113020200129227844651014612PENSION NOV 2019 CAR  *
D081777997014  00177721227       2017/80015531  CASTANEDA RODRIGUEZ 00000000385000000000000000000000000000000000000000000002252019122120200129227844651014613PENSION DIC 2019 CAR  *
T081777997014  00101PENSION                       081777997014  000000002616108                                                                                                    *
T081777997014  00102PENSION SAN JUAN              081777997014  000000001236094                                                                                                    *
T081777997014  00103PENSION                       081777997014  000000000762061                                                                                                    *
H081777997014  003000002000000000118900000000000000020200129                                                                                                                       *
D081777997014  00371422197       2017/78244509  ANICAMA ENRIQUES  SE00000000670000000000000000000000000000000000000000000000002020013120200129120140500700006MATRICULA COL         *
D081777997014  00373914427       2017/80016241  SALAZAR SANTILLAN  A00000000560000000000000000000000000000000000000000000000002020013120200129120790500700012INSCRIPCION CAR       *
D081777997014  00360890657       2017/78244547  CAMPOS TOVAR  ARIANA00000000670000000000000000000000000000000000000000000000002020013120200129120900500700045MATRICULA COL         *
D081777997014  00373558056       2017/78244546  CAMPOS TOVAR  BIANCA00000000670000000000000000000000000000000000000000000000002020013120200129120900500700046MATRICULA COL         *
D081777997014  00380998915       2017/78244525  IBARRA APONTE  LIAM 00000000580000000000000000000000000000000000000000000000002020013120200129121770500700021MATRICULA COL         *
D081777997014  00374101636       2017/78244504  ROJAS RIVAS  LUIS FE00000000670000000000000000000000000000000000000000000000002020013120200129122160500700102MATRICULA COL         *
D081777997014  00373154704       2017/78244553  BEDRINANA TORRES  RO00000000670000000000000000000000000000000000000000000000002020013120200129122540500700078MATRICULA COL         *
D081777997014  00376234393       2017/78244520  SEMINARIO RAMIREZ  A00000000670000000000000000000000000000000000000000000000002020013120200129122730500700040MATRICULA COL         *
D081777997014  00378065537       2017/78244519  SEMINARIO RAMIREZ  S00000000580000000000000000000000000000000000000000000000002020013120200129122730500700042MATRICULA COL         *
D081777997014  00371352385       2017/161913    RIXE OLIVARES  LUIS 00000000570000000000000000000000000000000000000000000000002020013120200129123690500700010MATRICULA SJL         *
D081777997014  00375495864       2017/161912    RIXE OLIVARES  CARLO00000000570000000000000000000000000000000000000000000000002020013120200129123690500700011MATRICULA SJL         *
D081777997014  00379316706       2017/161914    RIXE OLIVARES  LIAM 00000000570000000000000000000000000000000000000000000000002020013120200129123690500700012MATRICULA SJL         *
D081777997014  00377411561       2017/161918    MALDONADO CASTILLO  00000000570000000000000000000000000000000000000000000000002020013120200129126910500700001MATRICULA SJL         *
D081777997014  00379900054       2017/161862    SOLIS TAIPE  SEBASTI00000000570000000000000000000000000000000000000000000000002020013120200129126910500700015MATRICULA SJL         *
D081777997014  00379900054       2017/161863    SOLIS TAIPE  SEBASTI00000000350000000000000000000000000000000000000000000000002020013120200129126910500700016INSCRIPCION SJL       *
D081777997014  00373170004       2017/161884    IGNACIO FUENTES  LUI00000000570000000000000000000000000000000000000000000000002020013120200129126910500700017MATRICULA SJL         *
D081777997014  00378924244       2017/161892    SILVERA SALCEDO  IKE00000000570000000000000000000000000000000000000000000000002020013120200129126910500700038MATRICULA SJL         *
D081777997014  00372215224       2017/161905    CORTEZ URRUTIA  ALEJ00000000570000000000000000000000000000000000000000000000002020013120200129227844651014768MATRICULA SJL         *
D081777997014  00372215232       2017/161904    CORTEZ URRUTIA  AIDA00000000570000000000000000000000000000000000000000000000002020013120200129227844651014791MATRICULA SJL         *
D081777997014  00370956847       2017/78244506  VILA HUANCA  JOSEPH 00000000670000000000000000000000000000000000000000000000002020013120200129227844671000748MATRICULA COL         *
T081777997014  00304MATRICULA                     081777997014  000000000585000                                                                                                    *
T081777997014  00306MATRICULA SJL 2020            081777997014  000000000513000                                                                                                    *
T081777997014  00307DERECHO DE INGRESO SJL 2018   081777997014  000000000035000                                                                                                    *
T081777997014  00308MATRICULA 2020 CARABAYLLO     081777997014  000000000056000                                                                                                    *
H081777997014  006000000100000000000200000000000000020200129                                                                                                                       *
D081777997014  00671319761       FF20/320       ACUNA BARZOLA  ALEXI00000000020000000000000000000000000000000000000000000000002020013120200129223300500700102CCIA ESTUDIOS COL EN  *
T081777997014  00624CCIA ESTUDIOS COL             081777997014  000000000002000                                                                                                    *
H081777997014  009000000300000000001800000000000000020200129                                                                                                                       *
D081777997014  00974514154       FF20/284       SALDANA VICTORIO  HA00000000060000000000000000000000000000000000000000000000002020013120200129120110500700049CERT ESTUDIO COL ENE  *
D081777997014  00970967794       FF20/316       RIVAS YBARRA  DERECK00000000060000000000000000000000000000000000000000000000002020013120200129122540500700067CERT ESTUDIO COL ENE  *
D081777997014  00973105627       FF20/302       BARRIENTOS MITYAKOVA00000000060000000000000000000000000000000000000000000000002020013120200129126910500700004CERT ESTUDIOS SJL EN  *
T081777997014  00929CERT ESTUDIO-COL              081777997014  000000000012000                                                                                                    *
T081777997014  00963CERT ESTUDIOS SJL             081777997014  000000000006000                                                                                                    *
H081777997014  010000000200000000000600000000000000020200129                                                                                                                       *
D081777997014  01074514154       FF20/283       SALDANA VICTORIO  HA00000000030000000000000000000000000000000000000000000000002020013120200129120110500700049CCIA NO ADEUDO COL E  *
D081777997014  01070967794       FF20/315       RIVAS YBARRA  DERECK00000000030000000000000000000000000000000000000000000000002020013120200129122540500700067CCIA NO ADEUDO COL E  *
T081777997014  01028CCIA NO ADEUDO COL            081777997014  000000000006000                                                                                                    *
H081777997014  012000000200000000000600000000000000020200129                                                                                                                       *
D081777997014  01261333044       FF20/286       ANICAMA ENRIQUES  LA00000000030000000000000000000000000000000000000000000000002020013120200129120140500700007PRA ACAD COLONIAL EN  *
D081777997014  01274334975       FF20/309       RIXE OLIVARES  MATHI00000000030000000000000000000000000000000000000000000000002020013120200129123690500700013PRA ACAD SJL ENE 202  *
T081777997014  01230PRA ACAD COLONIAL             081777997014  000000000003000                                                                                                    *
T081777997014  01266PRA ACAD SJL                  081777997014  000000000003000                                                                                                    *
