H081777997014  001000001100000000067770400000000000020200206                                                                                                                       *
D081777997014  00172208718       2017/78241987  ESPINOZA RAMOS  DANA00000000640000000000000000000000000000000000000000000004512019122120200206120600500700072PENSION DIC 2019 COL  *
D081777997014  00177736588       2017/160829    BENITES MOYONERO  AN00000000550000000000000000000000000000000000000000000010642019093020200206122160500700117PENSION SEP 2019 SJL  *
D081777997014  00177736588       2017/160828    BENITES MOYONERO  AN00000000550000000000000000000000000000000000000000000008092019103120200206122160500700117PENSION OCT 2019 SJL  *
D081777997014  00177736588       2017/160830    BENITES MOYONERO  AN00000000550000000000000000000000000000000000000000000005612019113020200206122160500700117PENSION NOV 2019 SJL  *
D081777997014  00177736588       2017/160831    BENITES MOYONERO  AN00000000550000000000000000000000000000000000000000000003882019122120200206122160500700117PENSION DIC 2019 SJL  *
D081777997014  00175083798       2017/78237508  SAAVEDRA LUJAN  SEBA00000000640000000000000000000000000000000000000000000015262019083120200206122240500700004PENSION AGO 2019 COL  *
D081777997014  00161131457       2017/78236382  CORNEJO NAVARRO  BRA00000000640000000000000000000000000000000000000000000018242019073120200206122540500700079PENSION JUL 2019 COL  *
D081777997014  00161131457       2017/78237670  CORNEJO NAVARRO  BRA00000000640000000000000000000000000000000000000000000015262019083120200206122540500700079PENSION AGO 2019 COL  *
D081777997014  00172767229       2017/78242308  RONDON TORRES  ROBER00000000640000000000000000000000000000000000000000000004512019122120200206126610500700020PENSION DIC 2019 COL  *
D081777997014  00160733496       2017/78240949  CARHUANCHO COURT  BE00000000640000000000000000000000000000000000000000000006532019113020200206227844651001223PENSION NOV 2019 COL  *
D081777997014  00160733496       2017/78242131  CARHUANCHO COURT  BE00000000640000000000000000000000000000000000000000000004512019122120200206227844651001224PENSION DIC 2019 COL  *
T081777997014  00101PENSION                       081777997014  000000000454882                                                                                                    *
T081777997014  00102PENSION SAN JUAN              081777997014  000000000222822                                                                                                    *
H081777997014  003000001800000000105900000000000000020200206                                                                                                                       *
D081777997014  00360851361       2017/78244650  PISKUNOV TORIBIO  MA00000000670000000000000000000000000000000000000000000000002020022820200206120140500700125MATRICULA COL         *
D081777997014  00372016948       2017/80016288  GOMERO CARRERA  VICT00000000550000000000000000000000000000000000000000000000002020022820200206220200500700065INSCRIPCION CAR       *
D081777997014  00372068515       2017/80016287  GOMERO CARRERA  THIA00000000560000000000000000000000000000000000000000000000002020022820200206220200500700066INSCRIPCION CAR       *
D081777997014  00378563457       2017/80016304  MORILLO MAS  MALENA 00000000150000000000000000000000000000000000000000000000002020022820200206120210500700079INSCRIPCION CAR       *
D081777997014  00378563457       2017/80016298  MORILLO MAS  MALENA 00000000570000000000000000000000000000000000000000000000002020022820200206120210500700079MATRICULA CAR         *
D081777997014  00372055572       2017/78244642  LAZO DE LA ROSA  AMA00000000670000000000000000000000000000000000000000000000002020022820200206120340500700100MATRICULA COL         *
D081777997014  00372055572       2017/78244643  LAZO DE LA ROSA  AMA00000000350000000000000000000000000000000000000000000000002020022820200206120340500700100INSCRIPCION COL       *
D081777997014  00361933417       2017/78244660  GALVEZ ESPINOZA  GIA00000000670000000000000000000000000000000000000000000000002020022820200206120700500700121MATRICULA COL         *
D081777997014  00361107693       2017/78244593  CAMARENA CHUPAN  JHA00000000670000000000000000000000000000000000000000000000002020022820200206121770500700035MATRICULA COL         *
D081777997014  00375632922       2017/78244637  BAUTISTA DIAZ  MARIA00000000670000000000000000000000000000000000000000000000002020022820200206121770500700050MATRICULA COL         *
D081777997014  00372056351       2017/161962    HUAMAN DE LA CRUZ  J00000000570000000000000000000000000000000000000000000000002020022820200206222470500700033MATRICULA SJL         *
D081777997014  00371167361       2017/78244632  PALOMINO ALVARADO  J00000000670000000000000000000000000000000000000000000000002020022820200206122540500700040MATRICULA COL         *
D081777997014  00373158299       2017/78244641  CUENCA ROJAS  HILLAR00000000670000000000000000000000000000000000000000000000002020022820200206122540500700087MATRICULA COL         *
D081777997014  00361842178       2017/78244369  ALVARADO VASQUEZ  AN00000000670000000000000000000000000000000000000000000000002020013120200206122540500700135MATRICULA COL         *
D081777997014  00377544268       2017/161973    VEGA MARTINEZ  MARIA00000000570000000000000000000000000000000000000000000000002020022820200206126910500700048MATRICULA SJL         *
D081777997014  00379803241       2017/78244603  HUALLPA GAMBOA  CIEL00000000570000000000000000000000000000000000000000000000002020022820200206227844651012653MATRICULA COL         *
D081777997014  00373231981       2017/78244620  HUALLPA GUTIERREZ  W00000000670000000000000000000000000000000000000000000000002020022820200206227844651012678MATRICULA COL         *
D081777997014  00361782775       2017/78244601  CANO GAMBOA  CYNDEL 00000000670000000000000000000000000000000000000000000000002020022820200206227844651012696MATRICULA COL         *
T081777997014  00304MATRICULA                     081777997014  000000000727000                                                                                                    *
T081777997014  00305DERECHO DE INGRESO COL        081777997014  000000000035000                                                                                                    *
T081777997014  00306MATRICULA SJL 2020            081777997014  000000000114000                                                                                                    *
T081777997014  00308MATRICULA 2020 CARABAYLLO     081777997014  000000000168000                                                                                                    *
T081777997014  00309DERECHO DE INGRESO 2020 CARABA081777997014  000000000015000                                                                                                    *
H081777997014  009000001300000000007800000000000000020200206                                                                                                                       *
D081777997014  00974868049       FF20/424       PANDO CURTO  GIANFRA00000000060000000000000000000000000000000000000000000000002020022820200206120110500700110CERT ESTUDIOS SJL FE  *
D081777997014  00978431941       FF20/401       VELASQUEZ RIMARI  AL00000000060000000000000000000000000000000000000000000000002020022820200206120130500700073CERT ESTUDIOS SJL FE  *
D081777997014  00977383921       FF20/406       DE LA CRUZ VILCHEZ  00000000060000000000000000000000000000000000000000000000002020022820200206120600500700123CERT ESTUDIO COL FEB  *
D081777997014  00972397364       FF20/426       MEJIA AYALA  MARCELO00000000060000000000000000000000000000000000000000000000002020022820200206121350500700051CERT ESTUDIOS SJL FE  *
D081777997014  00972485827       FF20/409       PARADA HUAMAN  SOFIA00000000060000000000000000000000000000000000000000000000002020022820200206121540500700003CERT ESTUDIOS SJL FE  *
D081777997014  00975236719       FF20/425       VALVERDE LOPEZ  JOSU00000000060000000000000000000000000000000000000000000000002020022820200206122390500700092CERT ESTUDIOS SJL FE  *
D081777997014  00975540746       FF20/412       CANTORAL PAREDES  DI00000000060000000000000000000000000000000000000000000000002020022820200206122540500700045CERT ESTUDIOS SJL FE  *
D081777997014  00972499567       FF20/410       PATROCINIO ESCALANTE00000000060000000000000000000000000000000000000000000000002020022820200206122540500700105CERT ESTUDIO COL FEB  *
D081777997014  00972541426       FF20/408       LAZARTE ESTANISH  DI00000000060000000000000000000000000000000000000000000000002020022820200206122660500700079CERT ESTUDIOS SJL FE  *
D081777997014  00973572162       FF20/411       TUMBALOBOS GONZALES 00000000060000000000000000000000000000000000000000000000002020022820200206123720500700074CERT ESTUDIO COL FEB  *
D081777997014  00963012144       FF20/421       SABRERA CABEZAS  CAR00000000060000000000000000000000000000000000000000000000002020022820200206124670500700110CERT ESTUDIOS SJL FE  *
D081777997014  00971927693       FF20/403       HUAJACHI CASTRO  GEO00000000060000000000000000000000000000000000000000000000002020022820200206126910500700028CERT ESTUDIOS SJL FE  *
D081777997014  00972713214       FF20/418       CHAMORRO ORE  DIEGO 00000000060000000000000000000000000000000000000000000000002020022820200206227844651009332CERT ESTUDIO COL FEB  *
T081777997014  00929CERT ESTUDIO-COL              081777997014  000000000024000                                                                                                    *
T081777997014  00963CERT ESTUDIOS SJL             081777997014  000000000054000                                                                                                    *
