H081777997014  001000006900000000419948800000000000020200226                                                                                                                       *
D081777997014  00171679046       2017/78238730  ROCHA PANDURO  FRANC00000000640000000000000000000000000000000000000000000014302019093020200226120140500700007PENSION SEP 2019 COL  *
D081777997014  00171679046       2017/78239438  ROCHA PANDURO  FRANC00000000640000000000000000000000000000000000000000000011332019103120200226120140500700007PENSION OCT 2019 COL  *
D081777997014  00171679046       2017/78241223  ROCHA PANDURO  FRANC00000000640000000000000000000000000000000000000000000008452019113020200226120140500700007PENSION NOV 2019 COL  *
D081777997014  00177864415       2017/78239831  CABANA LEVANO  STEFA00000000560000000000000000000000000000000000000000000009912019103120200226220140500700068PENSION OCT 2019 COL  *
D081777997014  00177864415       2017/78241616  CABANA LEVANO  STEFA00000000560000000000000000000000000000000000000000000007392019113020200226220140500700068PENSION NOV 2019 COL  *
D081777997014  00177864415       2017/78242831  CABANA LEVANO  STEFA00000000560000000000000000000000000000000000000000000005632019122120200226220140500700068PENSION DIC 2019 COL  *
D081777997014  00174241721       FF19/1546      DAVALOS ARTEAGA  JAI00000000640000000000000000000000000000000000000000000006432019122120200226120600500700122PENSION DIC 2019 COL  *
D081777997014  00160822542       2017/78235515  LIRA CULLAS  LAURA N00000000640000000000000000000000000000000000000000000023142019063020200226120630500700069PENSION JUN 2019 COL  *
D081777997014  00160822542       2017/78235840  LIRA CULLAS  LAURA N00000000640000000000000000000000000000000000000000000020162019073120200226120630500700069PENSION JUL 2019 COL  *
D081777997014  00160822542       2017/78237210  LIRA CULLAS  LAURA N00000000640000000000000000000000000000000000000000000017182019083120200226120630500700069PENSION AGO 2019 COL  *
D081777997014  00160822542       2017/78238270  LIRA CULLAS  LAURA N00000000640000000000000000000000000000000000000000000014302019093020200226120630500700069PENSION SEP 2019 COL  *
D081777997014  00160822542       2017/78240138  LIRA CULLAS  LAURA N00000000640000000000000000000000000000000000000000000011332019103120200226120630500700069PENSION OCT 2019 COL  *
D081777997014  00160822542       2017/78240692  LIRA CULLAS  LAURA N00000000640000000000000000000000000000000000000000000008452019113020200226120630500700069PENSION NOV 2019 COL  *
D081777997014  00160822542       2017/78241788  LIRA CULLAS  LAURA N00000000640000000000000000000000000000000000000000000006432019122120200226120630500700069PENSION DIC 2019 COL  *
D081777997014  00172413770       2017/78236137  LIRA CULLAS  LUIS DA00000000576000000000000000000000000000000000000000000018142019073120200226120630500700070PENSION JUL 2019 COL  *
D081777997014  00172413770       2017/78237425  LIRA CULLAS  LUIS DA00000000576000000000000000000000000000000000000000000015472019083120200226120630500700070PENSION AGO 2019 COL  *
D081777997014  00172413770       2017/78238567  LIRA CULLAS  LUIS DA00000000576000000000000000000000000000000000000000000012872019093020200226120630500700070PENSION SEP 2019 COL  *
D081777997014  00172413770       2017/78240380  LIRA CULLAS  LUIS DA00000000576000000000000000000000000000000000000000000010202019103120200226120630500700070PENSION OCT 2019 COL  *
D081777997014  00177928736       2017/78236944  MIRANDA BRICENO  GUS00000000560000000000000000000000000000000000000000000015042019083120200226122160500700095PENSION AGO 2019 COL  *
D081777997014  00177928736       2017/78239301  MIRANDA BRICENO  GUS00000000560000000000000000000000000000000000000000000012522019093020200226122160500700095PENSION SEP 2019 COL  *
D081777997014  00177928736       2017/78239946  MIRANDA BRICENO  GUS00000000560000000000000000000000000000000000000000000009912019103120200226122160500700095PENSION OCT 2019 COL  *
D081777997014  00177928736       2017/78241731  MIRANDA BRICENO  GUS00000000560000000000000000000000000000000000000000000007392019113020200226122160500700095PENSION NOV 2019 COL  *
D081777997014  00172413770       2017/78240997  LIRA CULLAS  LUIS DA00000000576000000000000000000000000000000000000000000007602019113020200226122240500700051PENSION NOV 2019 COL  *
D081777997014  00172413770       2017/78242212  LIRA CULLAS  LUIS DA00000000576000000000000000000000000000000000000000000005792019122120200226122240500700051PENSION DIC 2019 COL  *
D081777997014  00177785559       2017/78232339  SANDOVAL SEGURA  DAN00000000640000000000000000000000000000000000000000000028992019043020200226222540500700057PENSION ABR 2019 COL  *
D081777997014  00177785559       2017/78233659  SANDOVAL SEGURA  DAN00000000640000000000000000000000000000000000000000000026022019053120200226222540500700057PENSION MAY 2019 COL  *
D081777997014  00177785559       2017/78234544  SANDOVAL SEGURA  DAN00000000640000000000000000000000000000000000000000000023142019063020200226222540500700057PENSION JUN 2019 COL  *
D081777997014  00177785559       2017/78235984  SANDOVAL SEGURA  DAN00000000640000000000000000000000000000000000000000000020162019073120200226222540500700057PENSION JUL 2019 COL  *
D081777997014  00177785559       2017/78237272  SANDOVAL SEGURA  DAN00000000640000000000000000000000000000000000000000000017182019083120200226222540500700057PENSION AGO 2019 COL  *
D081777997014  00177785559       2017/78238357  SANDOVAL SEGURA  DAN00000000640000000000000000000000000000000000000000000014302019093020200226222540500700057PENSION SEP 2019 COL  *
D081777997014  00177785559       2017/78240274  SANDOVAL SEGURA  DAN00000000640000000000000000000000000000000000000000000011332019103120200226222540500700057PENSION OCT 2019 COL  *
D081777997014  00177785559       2017/78240816  SANDOVAL SEGURA  DAN00000000640000000000000000000000000000000000000000000008452019113020200226222540500700057PENSION NOV 2019 COL  *
D081777997014  00177785559       2017/78241986  SANDOVAL SEGURA  DAN00000000640000000000000000000000000000000000000000000006432019122120200226222540500700057PENSION DIC 2019 COL  *
D081777997014  00175346354       2017/78232399  SANDOVAL SEGURA  LEO00000000576000000000000000000000000000000000000000000026092019043020200226222540500700063PENSION ABR 2019 COL  *
D081777997014  00175346354       2017/78233767  SANDOVAL SEGURA  LEO00000000576000000000000000000000000000000000000000000023412019053120200226222540500700063PENSION MAY 2019 COL  *
D081777997014  00175346354       FF19/1734      SANDOVAL SEGURA  LEO00000000640000000000000000000000000000000000000000000023142019063020200226222540500700063PENSION JUN 2019 COL  *
D081777997014  00175346354       FF19/1735      SANDOVAL SEGURA  LEO00000000640000000000000000000000000000000000000000000020162019073120200226222540500700063PENSION JUL 2019 COL  *
D081777997014  00175346354       FF19/1736      SANDOVAL SEGURA  LEO00000000640000000000000000000000000000000000000000000017182019083120200226222540500700063PENSION AGO 2019 COL  *
D081777997014  00175346354       FF19/1737      SANDOVAL SEGURA  LEO00000000640000000000000000000000000000000000000000000014302019093020200226222540500700063PENSION SEP 2019 COL  *
D081777997014  00172105238       2017/78238691  CANCINO JUNCO  VALER00000000640000000000000000000000000000000000000000000014302019093020200226122540500700070PENSION SEP 2019 COL  *
D081777997014  00172105238       2017/78239336  CANCINO JUNCO  VALER00000000640000000000000000000000000000000000000000000011332019103120200226122540500700070PENSION OCT 2019 COL  *
D081777997014  00172105238       2017/78241149  CANCINO JUNCO  VALER00000000640000000000000000000000000000000000000000000008452019113020200226122540500700070PENSION NOV 2019 COL  *
D081777997014  00172105238       2017/78242336  CANCINO JUNCO  VALER00000000640000000000000000000000000000000000000000000006432019122120200226122540500700070PENSION DIC 2019 COL  *
D081777997014  00175111074       2017/157269    ORMENO BLAS  ARLEX A00000000486000000000000000000000000000000000000000000010862019093020200226122660500700034PENSION SEP 2019 SJL  *
D081777997014  00175111074       2017/158291    ORMENO BLAS  ARLEX A00000000486000000000000000000000000000000000000000000008602019103120200226122660500700034PENSION OCT 2019 SJL  *
D081777997014  00175111074       2017/159473    ORMENO BLAS  ARLEX A00000000486000000000000000000000000000000000000000000006422019113020200226122660500700034PENSION NOV 2019 SJL  *
D081777997014  00175111074       2017/160335    ORMENO BLAS  ARLEX A00000000486000000000000000000000000000000000000000000004882019122120200226122660500700034PENSION DIC 2019 SJL  *
D081777997014  00175085450       2017/158459    ORMENO BLAS  AYSEL D00000000540000000000000000000000000000000000000000000009562019103120200226122660500700035PENSION OCT 2019 SJL  *
D081777997014  00175085450       2017/158619    ORMENO BLAS  AYSEL D00000000540000000000000000000000000000000000000000000007132019113020200226122660500700035PENSION NOV 2019 SJL  *
D081777997014  00175085450       2017/160503    ORMENO BLAS  AYSEL D00000000540000000000000000000000000000000000000000000005432019122120200226122660500700035PENSION DIC 2019 SJL  *
D081777997014  00175083773       2017/78231139  ESCURRA AGUIRRE  JOH00000000640000000000000000000000000000000000000000000031872019033120200226126610500700090PENSION MAR 2019 COL  *
D081777997014  00175083773       2017/78232353  ESCURRA AGUIRRE  JOH00000000640000000000000000000000000000000000000000000028992019043020200226126610500700090PENSION ABR 2019 COL  *
D081777997014  00175083773       2017/78233673  ESCURRA AGUIRRE  JOH00000000640000000000000000000000000000000000000000000026022019053120200226126610500700090PENSION MAY 2019 COL  *
D081777997014  00175083773       2017/78234452  ESCURRA AGUIRRE  JOH00000000640000000000000000000000000000000000000000000023142019063020200226126610500700090PENSION JUN 2019 COL  *
D081777997014  00175083773       2017/78236071  ESCURRA AGUIRRE  JOH00000000640000000000000000000000000000000000000000000020162019073120200226126610500700090PENSION JUL 2019 COL  *
D081777997014  00175083773       2017/78237286  ESCURRA AGUIRRE  JOH00000000640000000000000000000000000000000000000000000017182019083120200226126610500700090PENSION AGO 2019 COL  *
D081777997014  00175083773       2017/78238371  ESCURRA AGUIRRE  JOH00000000640000000000000000000000000000000000000000000014302019093020200226126610500700090PENSION SEP 2019 COL  *
D081777997014  00175083773       2017/78240288  ESCURRA AGUIRRE  JOH00000000640000000000000000000000000000000000000000000011332019103120200226126610500700090PENSION OCT 2019 COL  *
D081777997014  00175083773       2017/78240830  ESCURRA AGUIRRE  JOH00000000640000000000000000000000000000000000000000000008452019113020200226126610500700090PENSION NOV 2019 COL  *
D081777997014  00175083773       2017/78242000  ESCURRA AGUIRRE  JOH00000000640000000000000000000000000000000000000000000006432019122120200226126610500700090PENSION DIC 2019 COL  *
D081777997014  00170527355       2017/160406    LLANOS ALARCON  AXEL00000000378000000000000000000000000000000000000000000003802019122120200226126860500700022PENSION DIC 2019 SJL  *
D081777997014  00174868050       2017/160392    ALARCON MERINO  GRAZ00000000378000000000000000000000000000000000000000000003802019122120200226126860500700023PENSION DIC 2019 SJL  *
D081777997014  00179806685       2017/157545    BARBA CASTILLO  CESA00000000560000000000000000000000000000000000000000000009912019103120200226126910500700012PENSION OCT 2019 SJL  *
D081777997014  00179806685       2017/158780    BARBA CASTILLO  CESA00000000560000000000000000000000000000000000000000000007392019113020200226126910500700012PENSION NOV 2019 SJL  *
D081777997014  00179806685       2017/159528    BARBA CASTILLO  CESA00000000560000000000000000000000000000000000000000000005632019122120200226126910500700012PENSION DIC 2019 SJL  *
D081777997014  00177625360       2017/78239295  MORA BARRIOS  BEILA 00000000560000000000000000000000000000000000000000000012522019093020200226227844651008450PENSION SEP 2019 COL  *
D081777997014  00177625360       2017/78239940  MORA BARRIOS  BEILA 00000000560000000000000000000000000000000000000000000009912019103120200226227844651008451PENSION OCT 2019 COL  *
D081777997014  00177625360       2017/78241725  MORA BARRIOS  BEILA 00000000560000000000000000000000000000000000000000000007392019113020200226227844651008452PENSION NOV 2019 COL  *
D081777997014  00177625360       2017/78242940  MORA BARRIOS  BEILA 00000000560000000000000000000000000000000000000000000005632019122120200226227844651008453PENSION DIC 2019 COL  *
T081777997014  00101PENSION                       081777997014  000000003591147                                                                                                    *
T081777997014  00102PENSION SAN JUAN              081777997014  000000000608341                                                                                                    *
H081777997014  003000001500000000096600000000000000020200226                                                                                                                       *
D081777997014  00376502034       2017/78244897  SOLIS SIERRA  DANA M00000000670000000000000000000000000000000000000000000000002020022820200226120100500700062MATRICULA COL         *
D081777997014  00361042779       2017/78244938  MELENDEZ RIOS  ARIAN00000000670000000000000000000000000000000000000000000000002020022820200226220130500700073MATRICULA COL         *
D081777997014  00362580160       2017/78244939  MELENDEZ RIOS  DAYRA00000000670000000000000000000000000000000000000000000000002020022820200226220130500700074MATRICULA COL         *
D081777997014  00371370494       2017/78244900  VALDIVIA LUNA  DARIO00000000670000000000000000000000000000000000000000000000002020022820200226120140500700021MATRICULA COL         *
D081777997014  00376483270       2017/78244901  VALDIVIA LUNA  IVANN00000000670000000000000000000000000000000000000000000000002020022820200226120140500700022MATRICULA COL         *
D081777997014  00377736588       2017/162017    BENITES MOYONERO  AN00000000570000000000000000000000000000000000000000000000002020022820200226122160500700079MATRICULA SJL         *
D081777997014  00374563215       2017/78244929  FERNANDEZ ENCISO  SE00000000670000000000000000000000000000000000000000000000002020022820200226122240500700040MATRICULA COL         *
D081777997014  00372996617       2017/78244875  PUENTE URIARTE  DERE00000000670000000000000000000000000000000000000000000000002020022820200226122290500700007MATRICULA COL         *
D081777997014  00361794900       2017/78244904  PALACIOS ARANDA  DIE00000000670000000000000000000000000000000000000000000000002020022820200226122540500700089MATRICULA COL         *
D081777997014  00374794160       2017/78244913  HERNANDEZ CHACALTANA00000000670000000000000000000000000000000000000000000000002020022820200226222540500700094MATRICULA COL         *
D081777997014  00378088511       2017/78244858  CHURA MOSTACERO  GIA00000000580000000000000000000000000000000000000000000000002020022820200226123720500700044MATRICULA COL         *
D081777997014  00375637983       2017/78244909  ZARATE SANTAMARIA  T00000000670000000000000000000000000000000000000000000000002020022820200226126610500700011MATRICULA COL         *
D081777997014  00373279402       2017/162076    ARIAS CANALES  RENAT00000000570000000000000000000000000000000000000000000000002020022820200226126860500700013MATRICULA SJL         *
D081777997014  00372525347       2017/162028    ARIAS ROJAS  SAMUEL 00000000570000000000000000000000000000000000000000000000002020022820200226126910500700070MATRICULA SJL         *
D081777997014  00375297614       2017/78244935  MONTES VASQUEZ  LUCA00000000670000000000000000000000000000000000000000000000002020022820200226227844651015770MATRICULA COL         *
T081777997014  00304MATRICULA                     081777997014  000000000795000                                                                                                    *
T081777997014  00306MATRICULA SJL 2020            081777997014  000000000171000                                                                                                    *
H081777997014  009000000400000000002400000000000000020200226                                                                                                                       *
D081777997014  00945949198       FF20/624       MOLINA MATEO  LUISA 00000000060000000000000000000000000000000000000000000000002020022820200226120580500700073CERT ESTUDIO COL FEB  *
D081777997014  00977816153       FF20/613       GUIZADO VARGAS  PIER00000000060000000000000000000000000000000000000000000000002020022820200226120810500700073CERT ESTUDIO COL FEB  *
D081777997014  00962538868       FF20/622       HERRERA TARAZONA  AL00000000060000000000000000000000000000000000000000000000002020022820200226120920500700004CERT ESTUDIOS CAR FE  *
D081777997014  00961025111       FF20/623       HERRERA TARAZONA  KA00000000060000000000000000000000000000000000000000000000002020022820200226120920500700006CERT ESTUDIOS CAR FE  *
T081777997014  00929CERT ESTUDIO-COL              081777997014  000000000012000                                                                                                    *
T081777997014  00999CERT ESTUDIOS-CAR             081777997014  000000000012000                                                                                                    *
