H081777997014  001000004000000000212421300000000000020200210                                                                                                                       *
D081777997014  00178314061       2017/151464    CONDOR RODRIGUEZ  MI00000000560000000000000000000000000000000000000000000024022019043020200210120580500700005PENSION ABR 2019 SJL  *
D081777997014  00178314061       2017/152548    CONDOR RODRIGUEZ  MI00000000560000000000000000000000000000000000000000000021422019053120200210120580500700005PENSION MAY 2019 SJL  *
D081777997014  00178314061       2017/153355    CONDOR RODRIGUEZ  MI00000000560000000000000000000000000000000000000000000018902019063020200210120580500700005PENSION JUN 2019 SJL  *
D081777997014  00178314061       2017/155054    CONDOR RODRIGUEZ  MI00000000560000000000000000000000000000000000000000000016302019073120200210120580500700005PENSION JUL 2019 SJL  *
D081777997014  00178314061       2017/155443    CONDOR RODRIGUEZ  MI00000000560000000000000000000000000000000000000000000013692019083120200210120580500700005PENSION AGO 2019 SJL  *
D081777997014  00178314061       2017/156486    CONDOR RODRIGUEZ  MI00000000560000000000000000000000000000000000000000000011172019093020200210120580500700005PENSION SEP 2019 SJL  *
D081777997014  00178314061       2017/157640    CONDOR RODRIGUEZ  MI00000000560000000000000000000000000000000000000000000008572019103120200210120580500700005PENSION OCT 2019 SJL  *
D081777997014  00178314061       2017/158862    CONDOR RODRIGUEZ  MI00000000560000000000000000000000000000000000000000000006052019113020200210120580500700005PENSION NOV 2019 SJL  *
D081777997014  00178314061       2017/159577    CONDOR RODRIGUEZ  MI00000000560000000000000000000000000000000000000000000004282019122120200210120580500700005PENSION DIC 2019 SJL  *
D081777997014  00174241721       FF19/1542      DAVALOS ARTEAGA  JAI00000000640000000000000000000000000000000000000000000015652019083120200210120600500700013PENSION AGO 2019 COL  *
D081777997014  00172996940       2017/80013916  OLANO SARMIENTO  KIM00000000540000000000000000000000000000000000000000000008262019103120200210121770500700084PENSION OCT 2019 CAR  *
D081777997014  00172996940       2017/80014418  OLANO SARMIENTO  KIM00000000540000000000000000000000000000000000000000000005832019113020200210121770500700084PENSION NOV 2019 CAR  *
D081777997014  00179454600       2017/155564    SALAZAR VARGAS  MIGU00000000560000000000000000000000000000000000000000000013692019083120200210121830500700051PENSION AGO 2019 SJL  *
D081777997014  00179454600       2017/156607    SALAZAR VARGAS  MIGU00000000560000000000000000000000000000000000000000000011172019093020200210121830500700051PENSION SEP 2019 SJL  *
D081777997014  00179454600       2017/157483    SALAZAR VARGAS  MIGU00000000560000000000000000000000000000000000000000000008572019103120200210121830500700051PENSION OCT 2019 SJL  *
D081777997014  00179454600       2017/158733    SALAZAR VARGAS  MIGU00000000560000000000000000000000000000000000000000000006052019113020200210121830500700051PENSION NOV 2019 SJL  *
D081777997014  00179454600       2017/159496    SALAZAR VARGAS  MIGU00000000560000000000000000000000000000000000000000000004282019122120200210121830500700051PENSION DIC 2019 SJL  *
D081777997014  00170592926       2017/80015595  SALINAS OCANA  LUDWI00000000540000000000000000000000000000000000000000000015712019073120200210122020500700094PENSION JUL 2019 CAR  *
D081777997014  00170592926       2017/80015596  SALINAS OCANA  LUDWI00000000540000000000000000000000000000000000000000000013202019083120200210122020500700094PENSION AGO 2019 CAR  *
D081777997014  00170592926       2017/80015598  SALINAS OCANA  LUDWI00000000540000000000000000000000000000000000000000000010772019093020200210122020500700094PENSION SEP 2019 CAR  *
D081777997014  00170592926       2017/80015597  SALINAS OCANA  LUDWI00000000540000000000000000000000000000000000000000000008262019103120200210122020500700094PENSION OCT 2019 CAR  *
D081777997014  00170592926       2017/80015599  SALINAS OCANA  LUDWI00000000540000000000000000000000000000000000000000000005832019113020200210122020500700094PENSION NOV 2019 CAR  *
D081777997014  00170592926       2017/80015600  SALINAS OCANA  LUDWI00000000540000000000000000000000000000000000000000000004132019122120200210122020500700094PENSION DIC 2019 CAR  *
D081777997014  00178046982       2017/160027    ZEVALLOS RODRIGUEZ  00000000550000000000000000000000000000000000000000000004212019122120200210122470500700045PENSION DIC 2019 SJL  *
D081777997014  00171186650       2017/156561    MERCEDES ACUNA  KIAR00000000550000000000000000000000000000000000000000000010972019093020200210126860500700001PENSION SEP 2019 SJL  *
D081777997014  00171186650       2017/157715    MERCEDES ACUNA  KIAR00000000550000000000000000000000000000000000000000000008422019103120200210126860500700001PENSION OCT 2019 SJL  *
D081777997014  00171186650       2017/158687    MERCEDES ACUNA  KIAR00000000550000000000000000000000000000000000000000000005942019113020200210126860500700001PENSION NOV 2019 SJL  *
D081777997014  00171186650       2017/159652    MERCEDES ACUNA  KIAR00000000550000000000000000000000000000000000000000000004212019122120200210126860500700003PENSION DIC 2019 SJL  *
D081777997014  00161773933       2017/80015907  JULON CUBAS  NELLY E00000000440000000000000000000000000000000000000000000003372019122120200210127020500700045PENSION DIC 2019 CAR  *
D081777997014  00161211586       2017/80015911  JULON CUBAS  PATRICK00000000440000000000000000000000000000000000000000000003372019122120200210127020500700046PENSION DIC 2019 CAR  *
D081777997014  00176924398       2017/78218348  SANTILLAN MOTTA  TAN00000000364000000000000000000000000000000000000000000032212018063020200210227844651000143PENSION JUN 2018 COL  *
D081777997014  00176924398       2017/78219644  SANTILLAN MOTTA  TAN00000000364000000000000000000000000000000000000000000030522018073120200210227844651000144PENSION JUL 2018 COL  *
D081777997014  00176924398       2017/78220890  SANTILLAN MOTTA  TAN00000000364000000000000000000000000000000000000000000028832018083120200210227844651000145PENSION AGO 2018 COL  *
D081777997014  00176924398       2017/78222720  SANTILLAN MOTTA  TAN00000000364000000000000000000000000000000000000000000027192018093020200210227844651000146PENSION SEP 2018 COL  *
D081777997014  00176924398       2017/78223516  SANTILLAN MOTTA  TAN00000000364000000000000000000000000000000000000000000025502018103120200210227844651000147PENSION OCT 2018 COL  *
D081777997014  00176924398       2017/78225032  SANTILLAN MOTTA  TAN00000000364000000000000000000000000000000000000000000023862018113020200210227844651000148PENSION NOV 2018 COL  *
D081777997014  00176924398       2017/78228224  SANTILLAN MOTTA  TAN00000000364000000000000000000000000000000000000000000022712018122120200210227844651000149PENSION DIC 2018 COL  *
D081777997014  00177381617       2017/78242358  ZEVALLOS SILVA  GABR00000000640000000000000000000000000000000000000000000004902019122120200210227844651016155PENSION DIC 2019 COL  *
D081777997014  00172726608       2017/80013899  ROJAS PILLACA  DANIE00000000540000000000000000000000000000000000000000000008262019103120200210227844651018428PENSION OCT 2019 CAR  *
D081777997014  00177625360       2017/78233220  MORA BARRIOS  BEILA 00000000560000000000000000000000000000000000000000000023862019043020200210227844671000461PENSION ABR 2019 COL  *
T081777997014  00101PENSION                       081777997014  000000000462323                                                                                                    *
T081777997014  00102PENSION SAN JUAN              081777997014  000000001079191                                                                                                    *
T081777997014  00103PENSION                       081777997014  000000000582699                                                                                                    *
H081777997014  003000001200000000071500000000000000020200210                                                                                                                       *
D081777997014  00371850189       2017/161964    CASTILLO RONCEROS  J00000000570000000000000000000000000000000000000000000000002020022820200210120790500700060MATRICULA SJL         *
D081777997014  00378145643       2017/78244696  MERINO ALTUNA  MARCE00000000580000000000000000000000000000000000000000000000002020022820200210122040500700048MATRICULA COL         *
D081777997014  003001496510      2017/78244600  HURTADO ANTELO  ANGE00000000670000000000000000000000000000000000000000000000002020022820200210122310500700090MATRICULA COL         *
D081777997014  00379420214       2017/161982    AGUILAR FERNANDEZ  J00000000570000000000000000000000000000000000000000000000002020022820200210122470500700104MATRICULA SJL         *
D081777997014  00370531126       2017/78244697  ANCHAYHUA CAPCHA  GI00000000670000000000000000000000000000000000000000000000002020022820200210122540500700100MATRICULA COL         *
D081777997014  00381003863       2017/78244655  VERA CENTENO  ROGER 00000000580000000000000000000000000000000000000000000000002020022820200210122540500700101MATRICULA COL         *
D081777997014  00381003863       2017/78244656  VERA CENTENO  ROGER 00000000350000000000000000000000000000000000000000000000002020022820200210122540500700101INSCRIPCION COL       *
D081777997014  00377644392       2017/78244681  RUTTE TEJERINA  SEBA00000000580000000000000000000000000000000000000000000000002020022820200210122540500700109MATRICULA COL         *
D081777997014  00372590221       2017/78244687  SANCHEZ NIEVES  AARO00000000670000000000000000000000000000000000000000000000002020022820200210227844651006260MATRICULA COL         *
D081777997014  00373402985       2017/162011    AGUADO TUCTO  TIRZA 00000000570000000000000000000000000000000000000000000000002020022820200210129470500700108MATRICULA SJL         *
D081777997014  00373246625       2017/78244695  LEON GARCES  CINTHYA00000000670000000000000000000000000000000000000000000000002020022820200210129470500700151MATRICULA COL         *
D081777997014  00360854017       2017/78244694  LEON GARCES  DANA SH00000000670000000000000000000000000000000000000000000000002020022820200210129470500700152MATRICULA COL         *
T081777997014  00304MATRICULA                     081777997014  000000000509000                                                                                                    *
T081777997014  00305DERECHO DE INGRESO COL        081777997014  000000000035000                                                                                                    *
T081777997014  00306MATRICULA SJL 2020            081777997014  000000000171000                                                                                                    *
H081777997014  009000000700000000004200000000000000020200210                                                                                                                       *
D081777997014  00961333044       FF20/394       ANICAMA ENRIQUES  LA00000000060000000000000000000000000000000000000000000000002020022820200210120140500700030CERT ESTUDIO COL FEB  *
D081777997014  00971145296       FF20/331       MAMANI LUQUE  ALVARO00000000060000000000000000000000000000000000000000000000002020013120200210122160500700128CERT ESTUDIO COL ENE  *
D081777997014  00971919296       FF20/324       AYLAS LOPEZ  BRANDON00000000060000000000000000000000000000000000000000000000002020013120200210122540500700028CERT ESTUDIO COL ENE  *
D081777997014  00973404481       FF20/455       LERTORA BENAVIDES  W00000000060000000000000000000000000000000000000000000000002020022820200210122540500700123CERT ESTUDIO COL FEB  *
D081777997014  00978913324       FF20/373       PULIDO CHILLCCE  NOA00000000060000000000000000000000000000000000000000000000002020022820200210126910500700029CERT ESTUDIOS SJL FE  *
D081777997014  00976116054       FF20/374       PULIDO CHILLCCE  ORI00000000060000000000000000000000000000000000000000000000002020022820200210126910500700030CERT ESTUDIOS SJL FE  *
D081777997014  00977810340       FF20/446       ALVAREZ CORTEZ  ANDE00000000060000000000000000000000000000000000000000000000002020022820200210227844651011978CERT ESTUDIOS CAR FE  *
T081777997014  00929CERT ESTUDIO-COL              081777997014  000000000024000                                                                                                    *
T081777997014  00963CERT ESTUDIOS SJL             081777997014  000000000012000                                                                                                    *
T081777997014  00999CERT ESTUDIOS-CAR             081777997014  000000000006000                                                                                                    *
H081777997014  010000000300000000000900000000000000020200210                                                                                                                       *
D081777997014  01061333044       FF20/393       ANICAMA ENRIQUES  LA00000000030000000000000000000000000000000000000000000000002020022820200210120140500700030CCIA NO ADEUDO COL F  *
D081777997014  01077409988       FF20/420       SILVA JULCA  VALENTI00000000030000000000000000000000000000000000000000000000002020022820200210122290500700006CCIA NO ADEUDO COL F  *
D081777997014  01070725751       FF20/419       SILVA JULCA  MIGUEL 00000000030000000000000000000000000000000000000000000000002020022820200210122290500700007CCIA NO ADEUDO COL F  *
T081777997014  01028CCIA NO ADEUDO COL            081777997014  000000000009000                                                                                                    *
H081777997014  012000000100000000000600000000000000020200210                                                                                                                       *
D081777997014  01271672699       FF20/279       NUE BENAVENTE  LUANA00000000060000000000000000000000000000000000000000000000002020013120200210122240500700010PRA ACAD COLONIAL EN  *
T081777997014  01230PRA ACAD COLONIAL             081777997014  000000000006000                                                                                                    *
