H081777997014  001000003400000000173698600000000000020200131                                                                                                                       *
D081777997014  00176850032       2017/78168512  FLORES APCHO  JORGE 00000000423000000000000000000000000000000000000000000000002020033120200131120140500700067PENSION MAR 2017 COL  *
D081777997014  00176850032       2017/78169788  FLORES APCHO  JORGE 00000000423000000000000000000000000000000000000000000000002020043020200131120140500700067PENSION ABR 2017 COL  *
D081777997014  00176850032       2017/78171102  FLORES APCHO  JORGE 00000000423000000000000000000000000000000000000000000000002020053120200131120140500700067PENSION MAY 2017 COL  *
D081777997014  00176850032       2017/78172479  FLORES APCHO  JORGE 00000000423000000000000000000000000000000000000000000000002020063020200131120140500700067PENSION JUN 2017 COL  *
D081777997014  00176850032       2017/78173877  FLORES APCHO  JORGE 00000000423000000000000000000000000000000000000000000000002020073120200131120140500700067PENSION JUL 2017 COL  *
D081777997014  00176850032       2017/78175256  FLORES APCHO  JORGE 00000000423000000000000000000000000000000000000000000000002020083120200131120140500700067PENSION AGO 2017 COL  *
D081777997014  00176850032       2017/78176646  FLORES APCHO  JORGE 00000000423000000000000000000000000000000000000000000000002020093020200131120140500700067PENSION SEP 2017 COL  *
D081777997014  00176850032       2017/78177974  FLORES APCHO  JORGE 00000000423000000000000000000000000000000000000000000000002020103120200131120140500700067PENSION OCT 2017 COL  *
D081777997014  00176850032       2017/78179393  FLORES APCHO  JORGE 00000000423000000000000000000000000000000000000000000000002020113020200131120140500700067PENSION NOV 2017 COL  *
D081777997014  00176850032       2017/78181018  FLORES APCHO  JORGE 00000000423000000000000000000000000000000000000000000000002020122120200131120140500700067PENSION DIC 2017 COL  *
D081777997014  00170705100       2017/78243371  FRANCO VASQUEZ  MARY00000000640000000000000000000000000000000000000000000005952019113020200131120350500700072PENSION NOV 2019 COL  *
D081777997014  00163708144       2017/155627    BAZALAR ARTEAGA  ERN00000000495000000000000000000000000000000000000000000011362019083120200131121350500700077PENSION AGO 2019 SJL  *
D081777997014  00163708144       2017/156670    BAZALAR ARTEAGA  ERN00000000495000000000000000000000000000000000000000000009132019093020200131121350500700077PENSION SEP 2019 SJL  *
D081777997014  00163708144       2017/157546    BAZALAR ARTEAGA  ERN00000000495000000000000000000000000000000000000000000006832019103120200131121350500700077PENSION OCT 2019 SJL  *
D081777997014  00163708144       2017/158924    BAZALAR ARTEAGA  ERN00000000495000000000000000000000000000000000000000000004602019113020200131121350500700077PENSION NOV 2019 SJL  *
D081777997014  00163708144       2017/159715    BAZALAR ARTEAGA  ERN00000000495000000000000000000000000000000000000000000003042019122120200131121350500700077PENSION DIC 2019 SJL  *
D081777997014  00179340076       2017/155615    BAZALAR ARTEAGA  SOP00000000560000000000000000000000000000000000000000000012852019083120200131121350500700078PENSION AGO 2019 SJL  *
D081777997014  00179340076       2017/156658    BAZALAR ARTEAGA  SOP00000000560000000000000000000000000000000000000000000010332019093020200131121350500700078PENSION SEP 2019 SJL  *
D081777997014  00179340076       2017/157534    BAZALAR ARTEAGA  SOP00000000560000000000000000000000000000000000000000000007732019103120200131121350500700078PENSION OCT 2019 SJL  *
D081777997014  00179340076       2017/158774    BAZALAR ARTEAGA  SOP00000000560000000000000000000000000000000000000000000005212019113020200131121350500700078PENSION NOV 2019 SJL  *
D081777997014  00179340076       2017/159522    BAZALAR ARTEAGA  SOP00000000560000000000000000000000000000000000000000000003442019122120200131121350500700078PENSION DIC 2019 SJL  *
D081777997014  00177754112       2017/153824    BUSTILLOS TERAN  JOA00000000550000000000000000000000000000000000000000000017742019063020200131121440500700005PENSION JUN 2019 SJL  *
D081777997014  00177754112       2017/154500    BUSTILLOS TERAN  JOA00000000550000000000000000000000000000000000000000000015182019073120200131121440500700005PENSION JUL 2019 SJL  *
D081777997014  00177754112       2017/155879    BUSTILLOS TERAN  JOA00000000550000000000000000000000000000000000000000000012622019083120200131121440500700005PENSION AGO 2019 SJL  *
D081777997014  00177754112       2017/156907    BUSTILLOS TERAN  JOA00000000550000000000000000000000000000000000000000000010152019093020200131121440500700005PENSION SEP 2019 SJL  *
D081777997014  00177754112       2017/157912    BUSTILLOS TERAN  JOA00000000550000000000000000000000000000000000000000000007592019103120200131121440500700005PENSION OCT 2019 SJL  *
D081777997014  00161212019       2017/159623    ZEVALLOS RODRIGUEZ  00000000495000000000000000000000000000000000000000000003042019122120200131122470500700085PENSION DIC 2019 SJL  *
D081777997014  00178046982       2017/159226    ZEVALLOS RODRIGUEZ  00000000550000000000000000000000000000000000000000000005122019113020200131122470500700086PENSION NOV 2019 SJL  *
D081777997014  00177642740       FF19/1785      MARTINEZ ZAVALETA  L00000000560000000000000000000000000000000000000000000003442019122120200131222540500700094PENSION DIC 2019 COL  *
D081777997014  00177104438       2017/78239729  HERRERA DIAZ  MAKARE00000000560000000000000000000000000000000000000000000007732019103120200131122540500700097PENSION OCT 2019 COL  *
D081777997014  00177545912       2017/158706    YALLE MORENO  NAOMI 00000000495000000000000000000000000000000000000000000004602019113020200131127420500700052PENSION NOV 2019 SJL  *
D081777997014  00177545912       2017/159671    YALLE MORENO  NAOMI 00000000495000000000000000000000000000000000000000000003042019122120200131127420500700053PENSION DIC 2019 SJL  *
D081777997014  00177625360       2017/78232005  MORA BARRIOS  BEILA 00000000560000000000000000000000000000000000000000000025702019033120200131227844651007725PENSION MAR 2019 COL  *
D081777997014  00178065908       2017/80014827  VILLACORTA LOZADA  C00000000560000000000000000000000000000000000000000000003442019122120200131129470500700114PENSION DIC 2019 CAR  *
T081777997014  00101PENSION                       081777997014  000000000659282                                                                                                    *
T081777997014  00102PENSION SAN JUAN              081777997014  000000001021360                                                                                                    *
T081777997014  00103PENSION                       081777997014  000000000056344                                                                                                    *
H081777997014  003000001400000000075390000000000000020200131                                                                                                                       *
D081777997014  00375857700       2017/161769    CHAVEZ SANCHEZ  DIAN00000000570000000000000000000000000000000000000000000000002020013120200131120100500700111MATRICULA SJL         *
D081777997014  00370629460       2017/161768    CHAVEZ SANCHEZ  GABR00000000570000000000000000000000000000000000000000000000002020013120200131120100500700112MATRICULA SJL         *
D081777997014  00373556093       2017/80016268  VASQUEZ NONAJULCA  J00000000560000000000000000000000000000000000000000000000002020013120200131120210500700097INSCRIPCION CAR       *
D081777997014  00374004425       2017/80016257  ZEVALLOS CAPCHA  CAM00000000560000000000000000000000000000000000000000000000002020013120200131121910500700001INSCRIPCION CAR       *
D081777997014  00378365933       2017/161933    LUCAS HUAPAYA  LUCIA00000000570000000000000000000000000000000000000000000000002020013120200131122470500700031MATRICULA SJL         *
D081777997014  00378365933       2017/161934    LUCAS HUAPAYA  LUCIA00000000350000000000000000000000000000000000000000000000002020013120200131122470500700033INSCRIPCION SJL       *
D081777997014  00377479273       2017/78244573  HUAMANTINGO ROMAN  M00000000670000000000000000000000000000000000000000000000002020013120200131122540500700089MATRICULA COL         *
D081777997014  00347951847       2017/161928    YALI SANDOVAL  HENRY00000000350000000000000000000000000000000000000000000000002020013120200131127420500700005INSCRIPCION SJL       *
D081777997014  00347951847       2017/161929    YALI SANDOVAL  HENRY00000000570000000000000000000000000000000000000000000000002020013120200131127420500700005MATRICULA SJL         *
D081777997014  00378076637       2017/161938    LLACUACHAQUI NAVARRE00000000484500000000000000000000000000000000000000000000002020013120200131227844651001642MATRICULA SJL         *
D081777997014  00375300175       2017/161939    REYES LIZA  ANGELINA00000000484500000000000000000000000000000000000000000000002020013120200131227844651001973MATRICULA SJL         *
D081777997014  00371732622       2017/78244488  CORTEZ ESCARATE  MAR00000000670000000000000000000000000000000000000000000000002020013120200131227844651011807MATRICULA COL         *
D081777997014  00377774645       2017/78244508  SAYAN BENAVENTE  SAN00000000580000000000000000000000000000000000000000000000002020013120200131227844651013039MATRICULA COL         *
D081777997014  00372529036       2017/80016259  PURIZACA HUARACA  MI00000000550000000000000000000000000000000000000000000000002020013120200131227844651017655INSCRIPCION CAR       *
T081777997014  00304MATRICULA                     081777997014  000000000192000                                                                                                    *
T081777997014  00306MATRICULA SJL 2020            081777997014  000000000324900                                                                                                    *
T081777997014  00307DERECHO DE INGRESO SJL 2018   081777997014  000000000070000                                                                                                    *
T081777997014  00308MATRICULA 2020 CARABAYLLO     081777997014  000000000167000                                                                                                    *
H081777997014  009000000400000000002100000000000000020200131                                                                                                                       *
D081777997014  00974136764       FF20/335       PEREZ TENORIO  JOSEP00000000030000000000000000000000000000000000000000000000002020013120200131120810500700071CERT ESTUDIO COL ENE  *
D081777997014  00973046385       FF20/345       INGA JIMENEZ  JAZMIN00000000060000000000000000000000000000000000000000000000002020013120200131122470500700018CERT ESTUDIOS SJL EN  *
D081777997014  00974477174       FF20/187       KANG CHATE  MIN YOUN00000000060000000000000000000000000000000000000000000000002020013120200131126610500700092CERT ESTUDIO COL ENE  *
D081777997014  00974885127       FF20/349       YSIDRO EGAS  ANDREA 00000000060000000000000000000000000000000000000000000000002020013120200131129470500700099CERT ESTUDIOS CAR EN  *
T081777997014  00929CERT ESTUDIO-COL              081777997014  000000000009000                                                                                                    *
T081777997014  00963CERT ESTUDIOS SJL             081777997014  000000000006000                                                                                                    *
T081777997014  00999CERT ESTUDIOS-CAR             081777997014  000000000006000                                                                                                    *
H081777997014  012000000100000000000300000000000000020200131                                                                                                                       *
D081777997014  01273105479       FF20/350       RAVICHAGUA SANTOS  G00000000030000000000000000000000000000000000000000000000002020013120200131127420500700057PRA ACAD SJL ENE 202  *
T081777997014  01266PRA ACAD SJL                  081777997014  000000000003000                                                                                                    *
