H081777997014  001000008700000000471965600000000000020200103                                                                                                                       *
D081777997014  00172789068       2017/78242153  CALDERON RETAMOZO  K00000000640000000000000000000000000000000000000000000001252019122120200103120130500700041PENSION DIC 2019 COL  *
D081777997014  00170648323       2017/80014371  ORE ESPADA  ANDRES S00000000540000000000000000000000000000000000000000000002752019113020200103120210500700047PENSION NOV 2019 CAR  *
D081777997014  00177747726       2017/80015401  REYES ALVARADO  DAYR00000000385000000000000000000000000000000000000000000000752019122120200103120210500700061PENSION DIC 2019 CAR  *
D081777997014  00174996328       2017/78242105  MARCELO LA TORRE  JU00000000640000000000000000000000000000000000000000000001252019122120200103120350500700054PENSION DIC 2019 COL  *
D081777997014  00177780768       2017/78233310  FRANCO VASQUEZ  ANAH00000000560000000000000000000000000000000000000000000018232019053120200103120350500700074PENSION MAY 2019 COL  *
D081777997014  00177780768       2017/78235282  FRANCO VASQUEZ  ANAH00000000560000000000000000000000000000000000000000000015712019063020200103120350500700074PENSION JUN 2019 COL  *
D081777997014  00177780768       2017/78236835  FRANCO VASQUEZ  ANAH00000000560000000000000000000000000000000000000000000013102019073120200103120350500700074PENSION JUL 2019 COL  *
D081777997014  00177780768       2017/78236908  FRANCO VASQUEZ  ANAH00000000560000000000000000000000000000000000000000000010502019083120200103120350500700074PENSION AGO 2019 COL  *
D081777997014  00175010939       2017/159296    CISNEROS TRUJILLO  C00000000540000000000000000000000000000000000000000000002752019113020200103120560500700036PENSION NOV 2019 SJL  *
D081777997014  00161862735       2017/159945    ORTEGA GOMERO  MATIA00000000550000000000000000000000000000000000000000000001072019122120200103120580500700046PENSION DIC 2019 SJL  *
D081777997014  00177594575       2017/78239026  VENTURA MILLA  UGO Y00000000560000000000000000000000000000000000000000000007982019093020200103220810500700055PENSION SEP 2019 COL  *
D081777997014  00177594575       2017/78239677  VENTURA MILLA  UGO Y00000000560000000000000000000000000000000000000000000005382019103120200103220810500700055PENSION OCT 2019 COL  *
D081777997014  00177594575       2017/78241462  VENTURA MILLA  UGO Y00000000560000000000000000000000000000000000000000000002862019113020200103220810500700055PENSION NOV 2019 COL  *
D081777997014  00177594575       2017/78242639  VENTURA MILLA  UGO Y00000000560000000000000000000000000000000000000000000001092019122120200103220810500700055PENSION DIC 2019 COL  *
D081777997014  00174928462       2017/156096    PALOMINO DE LA CRUZ 00000000540000000000000000000000000000000000000000000010132019083120200103120810500700095PENSION AGO 2019 SJL  *
D081777997014  00174928462       2017/157123    PALOMINO DE LA CRUZ 00000000540000000000000000000000000000000000000000000007702019093020200103120810500700095PENSION SEP 2019 SJL  *
D081777997014  00173281889       2017/159742    LOPEZ LARICO  SOPHIE00000000550000000000000000000000000000000000000000000001072019122120200103121000500700130PENSION DIC 2019 SJL  *
D081777997014  00174884712       2017/157194    ZUMAETA MARAVI  ANGE00000000270000000000000000000000000000000000000000000003852019093020200103122470500700065PENSION SEP 2019 SJL  *
D081777997014  00174884712       2017/158216    ZUMAETA MARAVI  ANGE00000000270000000000000000000000000000000000000000000002592019103120200103122470500700065PENSION OCT 2019 SJL  *
D081777997014  00174906032       2017/158296    ZUMAETA MARAVI  MIGU00000000486000000000000000000000000000000000000000000004672019103120200103122470500700067PENSION OCT 2019 SJL  *
D081777997014  00160767789       2017/158373    ZUMAETA MARAVI  ROLA00000000486000000000000000000000000000000000000000000004672019103120200103122470500700068PENSION OCT 2019 SJL  *
D081777997014  00161879082       2017/156888    ZUMAETA MARAVI  DAVI00000000495000000000000000000000000000000000000000000007052019093020200103122470500700069PENSION SEP 2019 SJL  *
D081777997014  00179336012       2017/156479    ZUMAETA MARAVI  KORI00000000504000000000000000000000000000000000000000000007182019093020200103122470500700070PENSION SEP 2019 SJL  *
D081777997014  00179336012       2017/157633    ZUMAETA MARAVI  KORI00000000504000000000000000000000000000000000000000000004842019103120200103122470500700070PENSION OCT 2019 SJL  *
D081777997014  00176024526       2017/156153    ABAD PINAN  MIA YOSS00000000540000000000000000000000000000000000000000000010132019083120200103122470500700094PENSION AGO 2019 SJL  *
D081777997014  00176024526       2017/157175    ABAD PINAN  MIA YOSS00000000540000000000000000000000000000000000000000000007702019093020200103122470500700094PENSION SEP 2019 SJL  *
D081777997014  00176024526       2017/158197    ABAD PINAN  MIA YOSS00000000540000000000000000000000000000000000000000000005182019103120200103122470500700094PENSION OCT 2019 SJL  *
D081777997014  00176024526       2017/159379    ABAD PINAN  MIA YOSS00000000540000000000000000000000000000000000000000000002752019113020200103122470500700094PENSION NOV 2019 SJL  *
D081777997014  00172746695       2017/78240748  SANTOS BELLODAS  MAR00000000576000000000000000000000000000000000000000000002942019113020200103122540500700118PENSION NOV 2019 COL  *
D081777997014  00160881682       2017/78240894  SANTOS BELLODAS  XIO00000000640000000000000000000000000000000000000000000003262019113020200103122540500700119PENSION NOV 2019 COL  *
D081777997014  00172557903       2017/78240387  CAYLLAHUA SOTO  OMAR00000000640000000000000000000000000000000000000000000006142019103120200103122540500700123PENSION OCT 2019 COL  *
D081777997014  00172557903       2017/78241004  CAYLLAHUA SOTO  OMAR00000000640000000000000000000000000000000000000000000003262019113020200103122540500700123PENSION NOV 2019 COL  *
D081777997014  00172557903       2017/78242246  CAYLLAHUA SOTO  OMAR00000000640000000000000000000000000000000000000000000001252019122120200103122540500700135PENSION DIC 2019 COL  *
D081777997014  00171167361       2017/78242454  PALOMINO ALVARADO  J00000000448000000000000000000000000000000000000000000000872019122120200103122540500700150PENSION DIC 2019 COL  *
D081777997014  00161775673       2017/80014585  CHUNGA ULLAURE  NATA00000000550000000000000000000000000000000000000000000002812019113020200103124140500700035PENSION NOV 2019 CAR  *
D081777997014  00178273074       2017/156608    MUEDAS DUENAS  ABIGA00000000560000000000000000000000000000000000000000000007982019093020200103126790500700003PENSION SEP 2019 SJL  *
D081777997014  00178273074       2017/157484    MUEDAS DUENAS  ABIGA00000000560000000000000000000000000000000000000000000005382019103120200103126790500700003PENSION OCT 2019 SJL  *
D081777997014  00178273074       2017/158734    MUEDAS DUENAS  ABIGA00000000560000000000000000000000000000000000000000000002862019113020200103126790500700003PENSION NOV 2019 SJL  *
D081777997014  00178273074       2017/159497    MUEDAS DUENAS  ABIGA00000000560000000000000000000000000000000000000000000001092019122120200103126790500700003PENSION DIC 2019 SJL  *
D081777997014  00161035491       2017/160380    JIMENEZ TORRES  JARE00000000540000000000000000000000000000000000000000000001052019122120200103126910500700012PENSION DIC 2019 SJL  *
D081777997014  00172896320       2017/160324    TEODOR TASARA  YADHI00000000486000000000000000000000000000000000000000000000952019122120200103126910500700032PENSION DIC 2019 SJL  *
D081777997014  00172599321       2017/154448    RAMIREZ FERNANDEZ  M00000000550000000000000000000000000000000000000000000012872019073120200103126910500700047PENSION JUL 2019 SJL  *
D081777997014  00172599321       2017/155838    RAMIREZ FERNANDEZ  M00000000550000000000000000000000000000000000000000000010312019083120200103126910500700047PENSION AGO 2019 SJL  *
D081777997014  00172599321       2017/156866    RAMIREZ FERNANDEZ  M00000000550000000000000000000000000000000000000000000007842019093020200103126910500700047PENSION SEP 2019 SJL  *
D081777997014  00172599321       2017/157871    RAMIREZ FERNANDEZ  M00000000550000000000000000000000000000000000000000000005282019103120200103126910500700047PENSION OCT 2019 SJL  *
D081777997014  00172599321       2017/159053    RAMIREZ FERNANDEZ  M00000000550000000000000000000000000000000000000000000002812019113020200103126910500700047PENSION NOV 2019 SJL  *
D081777997014  00172599321       2017/159906    RAMIREZ FERNANDEZ  M00000000550000000000000000000000000000000000000000000001072019122120200103126910500700047PENSION DIC 2019 SJL  *
D081777997014  00161139781       2017/159229    ARIAS MORA  LEONARDO00000000495000000000000000000000000000000000000000000002522019113020200103126910500700055PENSION NOV 2019 SJL  *
D081777997014  00161139781       2017/160091    ARIAS MORA  LEONARDO00000000495000000000000000000000000000000000000000000000972019122120200103126910500700055PENSION DIC 2019 SJL  *
D081777997014  00174877988       2017/160309    ROJAS PALLIN  GREYS 00000000540000000000000000000000000000000000000000000001052019122120200103126910500700061PENSION DIC 2019 SJL  *
D081777997014  00179137233       2017/160753    ROSALES LOARTE  JOAQ00000000560000000000000000000000000000000000000000000010502019083120200103126910500700063PENSION AGO 2019 SJL  *
D081777997014  00179137233       2017/160754    ROSALES LOARTE  JOAQ00000000560000000000000000000000000000000000000000000007982019093020200103126910500700063PENSION SEP 2019 SJL  *
D081777997014  00179137233       2017/160755    ROSALES LOARTE  JOAQ00000000560000000000000000000000000000000000000000000005382019103120200103126910500700063PENSION OCT 2019 SJL  *
D081777997014  00179137233       2017/160756    ROSALES LOARTE  JOAQ00000000560000000000000000000000000000000000000000000002862019113020200103126910500700063PENSION NOV 2019 SJL  *
D081777997014  00179137233       2017/160757    ROSALES LOARTE  JOAQ00000000560000000000000000000000000000000000000000000001092019122120200103126910500700063PENSION DIC 2019 SJL  *
D081777997014  00178063086       2017/160833    ROSALES LOARTE  LUCI00000000448000000000000000000000000000000000000000000008402019083120200103126910500700064PENSION AGO 2019 SJL  *
D081777997014  00178063086       2017/160834    ROSALES LOARTE  LUCI00000000504000000000000000000000000000000000000000000007182019093020200103126910500700064PENSION SEP 2019 SJL  *
D081777997014  00178063086       2017/160835    ROSALES LOARTE  LUCI00000000504000000000000000000000000000000000000000000004842019103120200103126910500700064PENSION OCT 2019 SJL  *
D081777997014  00178063086       2017/160836    ROSALES LOARTE  LUCI00000000504000000000000000000000000000000000000000000002572019113020200103126910500700064PENSION NOV 2019 SJL  *
D081777997014  00178063086       2017/160837    ROSALES LOARTE  LUCI00000000504000000000000000000000000000000000000000000000982019122120200103126910500700064PENSION DIC 2019 SJL  *
D081777997014  00160979943       2017/158177    PALLIN GUTIERREZ  SI00000000540000000000000000000000000000000000000000000005182019103120200103126910500700079PENSION OCT 2019 SJL  *
D081777997014  00160979943       2017/159359    PALLIN GUTIERREZ  SI00000000540000000000000000000000000000000000000000000002752019113020200103126910500700079PENSION NOV 2019 SJL  *
D081777997014  00160979943       2017/160191    PALLIN GUTIERREZ  SI00000000540000000000000000000000000000000000000000000001052019122120200103126910500700085PENSION DIC 2019 SJL  *
D081777997014  00177403005       2017/158888    DIAZ RIVERO  ALEJAND00000000550000000000000000000000000000000000000000000002812019113020200103126910500700137PENSION NOV 2019 SJL  *
D081777997014  00178674265       2017/155142    MAMANI TICONA  ANDRE00000000560000000000000000000000000000000000000000000013102019073120200103127420500700033PENSION JUL 2019 SJL  *
D081777997014  00178674265       2017/155619    MAMANI TICONA  ANDRE00000000560000000000000000000000000000000000000000000010502019083120200103127420500700033PENSION AGO 2019 SJL  *
D081777997014  00178674265       2017/156662    MAMANI TICONA  ANDRE00000000560000000000000000000000000000000000000000000007982019093020200103127420500700033PENSION SEP 2019 SJL  *
D081777997014  00178674265       2017/157538    MAMANI TICONA  ANDRE00000000560000000000000000000000000000000000000000000005382019103120200103127420500700033PENSION OCT 2019 SJL  *
D081777997014  00178674265       2017/158776    MAMANI TICONA  ANDRE00000000560000000000000000000000000000000000000000000002862019113020200103127420500700033PENSION NOV 2019 SJL  *
D081777997014  00178674265       2017/159524    MAMANI TICONA  ANDRE00000000560000000000000000000000000000000000000000000001092019122120200103127420500700033PENSION DIC 2019 SJL  *
D081777997014  00177191017       2017/150928    VILCHEZ MANCILLA  DI00000000550000000000000000000000000000000000000000000022942019033120200103127420500700109PENSION MAR 2019 SJL  *
D081777997014  00177191017       2017/151950    VILCHEZ MANCILLA  DI00000000550000000000000000000000000000000000000000000020462019043020200103127420500700109PENSION ABR 2019 SJL  *
D081777997014  00177191017       2017/152972    VILCHEZ MANCILLA  DI00000000550000000000000000000000000000000000000000000017902019053120200103127420500700109PENSION MAY 2019 SJL  *
D081777997014  00177191017       2017/153994    VILCHEZ MANCILLA  DI00000000550000000000000000000000000000000000000000000015432019063020200103127420500700109PENSION JUN 2019 SJL  *
D081777997014  00177191017       2017/154659    VILCHEZ MANCILLA  DI00000000550000000000000000000000000000000000000000000012872019073120200103127420500700109PENSION JUL 2019 SJL  *
D081777997014  00177191017       2017/156038    VILCHEZ MANCILLA  DI00000000550000000000000000000000000000000000000000000010312019083120200103127420500700109PENSION AGO 2019 SJL  *
D081777997014  00177191017       2017/157060    VILCHEZ MANCILLA  DI00000000550000000000000000000000000000000000000000000007842019093020200103127420500700109PENSION SEP 2019 SJL  *
D081777997014  00177191017       2017/158082    VILCHEZ MANCILLA  DI00000000550000000000000000000000000000000000000000000005282019103120200103127420500700109PENSION OCT 2019 SJL  *
D081777997014  00177191017       2017/159264    VILCHEZ MANCILLA  DI00000000550000000000000000000000000000000000000000000002812019113020200103127420500700109PENSION NOV 2019 SJL  *
D081777997014  00177191017       2017/160126    VILCHEZ MANCILLA  DI00000000550000000000000000000000000000000000000000000001072019122120200103127420500700109PENSION DIC 2019 SJL  *
D081777997014  00170592473       2017/158138    SANTE NOBLEJAS  SOFI00000000486000000000000000000000000000000000000000000004672019103120200103227844651001358PENSION OCT 2019 SJL  *
D081777997014  00171683473       2017/159242    SANTE NOBLEJAS  MAXI00000000495000000000000000000000000000000000000000000002522019113020200103227844651001364PENSION NOV 2019 SJL  *
D081777997014  00170592473       2017/159320    SANTE NOBLEJAS  SOFI00000000486000000000000000000000000000000000000000000002482019113020200103227844651001369PENSION NOV 2019 SJL  *
D081777997014  00161840819       2017/159192    ALTAMIRANO APAZA  LE00000000550000000000000000000000000000000000000000000002812019113020200103227844651001930PENSION NOV 2019 SJL  *
D081777997014  00161840819       2017/160048    ALTAMIRANO APAZA  LE00000000550000000000000000000000000000000000000000000001072019122120200103227844651001931PENSION DIC 2019 SJL  *
D081777997014  00174873103       2017/78238127  ELESCANO CAMPOS  JAR00000000640000000000000000000000000000000000000000000009122019093020200103227844651002309PENSION SEP 2019 COL  *
D081777997014  00178537772       2017/80014794  VILCHEZ BALDEON  FER00000000392000000000000000000000000000000000000000000000762019122120200103227844651002696PENSION DIC 2019 CAR  *
T081777997014  00101PENSION                       081777997014  000000001008819                                                                                                    *
T081777997014  00102PENSION SAN JUAN              081777997014  000000003523430                                                                                                    *
T081777997014  00103PENSION                       081777997014  000000000187407                                                                                                    *
H081777997014  003000003400000000169395000000000000020200103                                                                                                                       *
D081777997014  00361361343       2017/161527    LUNA MASIAS  ABIGAIL00000000513000000000000000000000000000000000000000000000002020013120200103120100500700141INSCRIPCION SJL       *
D081777997014  00374667650       2017/80016139  MENDIETA MONRROY  VA00000000504000000000000000000000000000000000000000000000002020010420200103120140500700040INSCRIPCION CAR       *
D081777997014  00373259181       2017/161484    VALENCIA PASTRANA  D00000000513000000000000000000000000000000000000000000000002020013120200103120580500700071INSCRIPCION SJL       *
D081777997014  00374159237       2017/161485    VALENCIA PASTRANA  S00000000513000000000000000000000000000000000000000000000002020013120200103120580500700072INSCRIPCION SJL       *
D081777997014  00380922247       2017/78244123  TAPIA IZQUIERDO  MAR00000000580000000000000000000000000000000000000000000000002020013120200103121770500700061MATRICULA COL         *
D081777997014  00380922247       2017/78244124  TAPIA IZQUIERDO  MAR00000000350000000000000000000000000000000000000000000000002020013120200103121770500700061INSCRIPCION COL       *
D081777997014  00371685140       2017/78244128  FLORES GONZALES  PIE00000000670000000000000000000000000000000000000000000000002020013120200103122160500700204MATRICULA COL         *
D081777997014  00371685140       2017/78244129  FLORES GONZALES  PIE00000000350000000000000000000000000000000000000000000000002020013120200103122160500700204INSCRIPCION COL       *
D081777997014  00379618316       2017/161026    VILLEGAS AGAMA  AARO00000000350000000000000000000000000000000000000000000000002019122120200103222190500700101INSCRIPCION SJL       *
D081777997014  00378396024       2017/161510    CAHUANA LLACZA  MATH00000000513000000000000000000000000000000000000000000000002020013120200103122470500700088INSCRIPCION SJL       *
D081777997014  00372157055       2017/161532    AREVALO RIEGA  CAMIL00000000484500000000000000000000000000000000000000000000002020013120200103122470500700112INSCRIPCION SJL       *
D081777997014  00377559496       2017/161531    AREVALO RIEGA  MIGUE00000000484500000000000000000000000000000000000000000000002020013120200103122470500700114INSCRIPCION SJL       *
D081777997014  00362579717       2017/161533    RODRIGUEZ CHALLCO  J00000000513000000000000000000000000000000000000000000000002020013120200103122470500700122INSCRIPCION SJL       *
D081777997014  00379558191       2017/78244114  TEJADA HUARANGA  BRU00000000513000000000000000000000000000000000000000000000002020013120200103122500500700053MATRICULA COL         *
D081777997014  00378758525       2017/78244113  TEJADA HUARANGA  VAS00000000513000000000000000000000000000000000000000000000002020013120200103122500500700054MATRICULA COL         *
D081777997014  00372866952       2017/161493    VALENCIA MALLMA  EST00000000513000000000000000000000000000000000000000000000002020013120200103126860500700002INSCRIPCION SJL       *
D081777997014  00376112429       2017/161494    VALENCIA MALLMA  JIM00000000513000000000000000000000000000000000000000000000002020013120200103126860500700003INSCRIPCION SJL       *
D081777997014  00361496098       2017/161495    VALENCIA MALLMA  MIG00000000513000000000000000000000000000000000000000000000002020013120200103126860500700004INSCRIPCION SJL       *
D081777997014  00378268990       2017/161496    DIAZ BARRUETO  GIA  00000000513000000000000000000000000000000000000000000000002020013120200103126860500700007INSCRIPCION SJL       *
D081777997014  00374880520       2017/161490    ARANZABAL MACHADO  Z00000000513000000000000000000000000000000000000000000000002020013120200103126860500700009INSCRIPCION SJL       *
D081777997014  00373840798       2017/161526    VILLAFUERTE CAMACHO 00000000513000000000000000000000000000000000000000000000002020013120200103126860500700012INSCRIPCION SJL       *
D081777997014  00378402661       2017/161503    PALACIOS YANGALI  EI00000000350000000000000000000000000000000000000000000000002020013120200103126910500700020INSCRIPCION SJL       *
D081777997014  00378402661       2017/161505    PALACIOS YANGALI  EI00000000570000000000000000000000000000000000000000000000002020013120200103126910500700020MATRICULA SJL         *
D081777997014  00374781937       2017/161500    RARAZ SEGUIL  LEONEL00000000513000000000000000000000000000000000000000000000002020013120200103126910500700037INSCRIPCION SJL       *
D081777997014  00372778677       2017/161509    ESPINOZA URIBE  ANDR00000000513000000000000000000000000000000000000000000000002020013120200103126910500700075INSCRIPCION SJL       *
D081777997014  00376709411       2017/161534    SALAZAR VASQUEZ  LEO00000000513000000000000000000000000000000000000000000000002020013120200103126910500700139INSCRIPCION SJL       *
D081777997014  00377757336       2017/80016098  ZAMUDIO ZEGARRA  RAN00000000476000000000000000000000000000000000000000000000002019122120200103127020500700040MATRICULA CAR         *
D081777997014  00370838129       2017/161525    PAIRAZAMAN QUIJANO  00000000513000000000000000000000000000000000000000000000002020013120200103227420500700110INSCRIPCION SJL       *
D081777997014  00361214445       2017/161502    ORTIZ CASTANEDA  JOS00000000513000000000000000000000000000000000000000000000002020013120200103127420500700122INSCRIPCION SJL       *
D081777997014  00377410761       2017/161197    LLULLUY ACUNA  NOEMI00000000484500000000000000000000000000000000000000000000002019122120200103227844651000551MATRICULA SJL         *
D081777997014  00378674616       2017/161458    SANTE NOBLEJAS  HOLL00000000513000000000000000000000000000000000000000000000002019122120200103227844651001273MATRICULA SJL         *
D081777997014  00378248554       2017/161530    ALVARADO ROJAS  SAND00000000513000000000000000000000000000000000000000000000002020013120200103227844651008692INSCRIPCION SJL       *
D081777997014  00377260129       2017/161501    MONTEAGUDO GRAUS  BI00000000513000000000000000000000000000000000000000000000002020013120200103227844651008902INSCRIPCION SJL       *
D081777997014  00370590906       2017/161506    VENERO MORI  CRISTHI00000000513000000000000000000000000000000000000000000000002020013120200103227844651011640INSCRIPCION SJL       *
T081777997014  00304MATRICULA                     081777997014  000000000227600                                                                                                    *
T081777997014  00305DERECHO DE INGRESO LIM 2018   081777997014  000000000070000                                                                                                    *
T081777997014  00306MATRICULA SJL - PREMATRICULA  081777997014  000000001228350                                                                                                    *
T081777997014  00307DERECHO DE INGRESO SJL 2019   081777997014  000000000070000                                                                                                    *
T081777997014  00308MATRICULA CAR 2019            081777997014  000000000098000                                                                                                    *
H081777997014  005000000100000000001200000000000000020200103                                                                                                                       *
D081777997014  00561139781       FF19/1442      ARIAS MORA  LEONARDO00000000120000000000000000000000000000000000000000000000002019063020200103126910500700055TALLERES JUN 2019 SJ  *
T081777997014  00510TALLERES                      081777997014  000000000012000                                                                                                    *
H081777997014  007000000100000000000250000000000000020200103                                                                                                                       *
D081777997014  00775495894       FF19/2442      LEGARDA VILCHEZ  SAR00000000025000000000000000000000000000000000000000000000002019122120200103126860500700005EXCELENCIA ACAD SJL   *
T081777997014  00752EXCELENCIA ACAD SJL           081777997014  000000000002500                                                                                                    *
H081777997014  009000000600000000003600000000000000020200103                                                                                                                       *
D081777997014  00974133932       FF20/9         QUISPE VALENCIA  PED00000000060000000000000000000000000000000000000000000000002020013120200103120110500700086CERT ESTUDIO COL ENE  *
D081777997014  00973050785       FF20/6         DELGADO FLORES  ISAB00000000060000000000000000000000000000000000000000000000002020013120200103120140500700038CERT ESTUDIO COL ENE  *
D081777997014  00980998321       FF20/14        DIAZ CELEDONIO  THIA00000000060000000000000000000000000000000000000000000000002020013120200103120140500700081CERT ESTUDIO COL ENE  *
D081777997014  00972209303       FF20/13        RODRIGUEZ BALDWIN  S00000000060000000000000000000000000000000000000000000000002020013120200103120140500700084CERT ESTUDIO COL ENE  *
D081777997014  00946135377       FF20/15        CANCHO VELASQUEZ  SI00000000060000000000000000000000000000000000000000000000002020013120200103121830500700076CERT ESTUDIO COL ENE  *
D081777997014  00973416279       FF20/5         CASTRO GONZALES  CEL00000000060000000000000000000000000000000000000000000000002020013120200103122160500700135CERT ESTUDIO COL ENE  *
T081777997014  00929CERT ESTUDIO-COL              081777997014  000000000036000                                                                                                    *
