H081777997014  001000006600000000401300400000000000020200212                                                                                                                       *
D081777997014  00174847407       2017/78235481  SANCHEZ AREVALO  JEA00000000640000000000000000000000000000000000000000000021792019063020200212120140500700015PENSION JUN 2019 COL  *
D081777997014  00174847407       2017/78235806  SANCHEZ AREVALO  JEA00000000640000000000000000000000000000000000000000000018822019073120200212120140500700015PENSION JUL 2019 COL  *
D081777997014  00174847407       2017/78237176  SANCHEZ AREVALO  JEA00000000640000000000000000000000000000000000000000000015842019083120200212120140500700015PENSION AGO 2019 COL  *
D081777997014  00174847407       2017/78238139  SANCHEZ AREVALO  JEA00000000640000000000000000000000000000000000000000000012962019093020200212120140500700015PENSION SEP 2019 COL  *
D081777997014  00174847407       2017/78240104  SANCHEZ AREVALO  JEA00000000640000000000000000000000000000000000000000000009982019103120200212120140500700015PENSION OCT 2019 COL  *
D081777997014  00161140583       2017/78231469  GUARDIA ESPINOZA  EM00000000640000000000000000000000000000000000000000000030532019033120200212122160500700008PENSION MAR 2019 COL  *
D081777997014  00171146729       2017/78238768  CHERO SEDANO  JOSUE 00000000576000000000000000000000000000000000000000000011662019093020200212222500500700045PENSION SEP 2019 COL  *
D081777997014  00171146729       2017/78239370  CHERO SEDANO  JOSUE 00000000576000000000000000000000000000000000000000000008992019103120200212222500500700045PENSION OCT 2019 COL  *
D081777997014  00171146729       2017/78241196  CHERO SEDANO  JOSUE 00000000576000000000000000000000000000000000000000000006392019113020200212222500500700045PENSION NOV 2019 COL  *
D081777997014  00171146729       2017/78242411  CHERO SEDANO  JOSUE 00000000576000000000000000000000000000000000000000000004582019122120200212222500500700045PENSION DIC 2019 COL  *
D081777997014  00178343746       2017/78238212  CHERO SEDANO  RODRIG00000000560000000000000000000000000000000000000000000011342019093020200212222500500700046PENSION SEP 2019 COL  *
D081777997014  00178343746       2017/78239995  CHERO SEDANO  RODRIG00000000560000000000000000000000000000000000000000000008742019103120200212222500500700046PENSION OCT 2019 COL  *
D081777997014  00178343746       2017/78240576  CHERO SEDANO  RODRIG00000000560000000000000000000000000000000000000000000006222019113020200212222500500700046PENSION NOV 2019 COL  *
D081777997014  00178343746       2017/78241924  CHERO SEDANO  RODRIG00000000560000000000000000000000000000000000000000000004452019122120200212222500500700046PENSION DIC 2019 COL  *
D081777997014  00178554157       2017/78230902  DELGADO AGUIRRE  BRI00000000504000000000000000000000000000000000000000000024042019033120200212222540500700027PENSION MAR 2019 COL  *
D081777997014  00178554157       2017/78232303  DELGADO AGUIRRE  BRI00000000504000000000000000000000000000000000000000000021772019043020200212222540500700027PENSION ABR 2019 COL  *
D081777997014  00178554157       2017/78233375  DELGADO AGUIRRE  BRI00000000504000000000000000000000000000000000000000000019432019053120200212222540500700027PENSION MAY 2019 COL  *
D081777997014  00178554157       FF19/1547      DELGADO AGUIRRE  BRI00000000560000000000000000000000000000000000000000000019072019063020200212222540500700027PENSION JUN 2019 COL  *
D081777997014  00178554157       FF19/1548      DELGADO AGUIRRE  BRI00000000560000000000000000000000000000000000000000000016462019073120200212222540500700027PENSION JUL 2019 COL  *
D081777997014  00178554157       FF19/1549      DELGADO AGUIRRE  BRI00000000560000000000000000000000000000000000000000000013862019083120200212222540500700027PENSION AGO 2019 COL  *
D081777997014  00178554157       FF19/1550      DELGADO AGUIRRE  BRI00000000560000000000000000000000000000000000000000000011342019093020200212222540500700027PENSION SEP 2019 COL  *
D081777997014  00178554157       FF19/1551      DELGADO AGUIRRE  BRI00000000560000000000000000000000000000000000000000000008742019103120200212222540500700027PENSION OCT 2019 COL  *
D081777997014  00178554157       FF19/1552      DELGADO AGUIRRE  BRI00000000560000000000000000000000000000000000000000000006222019113020200212222540500700027PENSION NOV 2019 COL  *
D081777997014  00178554157       FF19/1553      DELGADO AGUIRRE  BRI00000000560000000000000000000000000000000000000000000004452019122120200212222540500700027PENSION DIC 2019 COL  *
D081777997014  00160768205       2017/78230985  DELGADO AGUIRRE  DAN00000000576000000000000000000000000000000000000000000027482019033120200212222540500700029PENSION MAR 2019 COL  *
D081777997014  00160768205       2017/78232170  DELGADO AGUIRRE  DAN00000000576000000000000000000000000000000000000000000024882019043020200212222540500700029PENSION ABR 2019 COL  *
D081777997014  00160768205       2017/78233493  DELGADO AGUIRRE  DAN00000000576000000000000000000000000000000000000000000022202019053120200212222540500700029PENSION MAY 2019 COL  *
D081777997014  00160768205       FF19/1554      DELGADO AGUIRRE  DAN00000000640000000000000000000000000000000000000000000021792019063020200212222540500700029PENSION JUN 2019 COL  *
D081777997014  00160768205       FF19/1555      DELGADO AGUIRRE  DAN00000000640000000000000000000000000000000000000000000018822019073120200212222540500700029PENSION JUL 2019 COL  *
D081777997014  00160768205       FF19/1556      DELGADO AGUIRRE  DAN00000000640000000000000000000000000000000000000000000015842019083120200212222540500700029PENSION AGO 2019 COL  *
D081777997014  00160768205       FF19/1557      DELGADO AGUIRRE  DAN00000000640000000000000000000000000000000000000000000012962019093020200212222540500700029PENSION SEP 2019 COL  *
D081777997014  00160768205       FF19/1558      DELGADO AGUIRRE  DAN00000000640000000000000000000000000000000000000000000009982019103120200212222540500700029PENSION OCT 2019 COL  *
D081777997014  00160768205       FF19/1559      DELGADO AGUIRRE  DAN00000000640000000000000000000000000000000000000000000007102019113020200212222540500700029PENSION NOV 2019 COL  *
D081777997014  00160768205       FF19/1560      DELGADO AGUIRRE  DAN00000000640000000000000000000000000000000000000000000005092019122120200212222540500700029PENSION DIC 2019 COL  *
D081777997014  00161965821       2017/78231819  DELGADO AGUIRRE  HEC00000000576000000000000000000000000000000000000000000027482019033120200212222540500700030PENSION MAR 2019 COL  *
D081777997014  00161965821       2017/78233034  DELGADO AGUIRRE  HEC00000000576000000000000000000000000000000000000000000024882019043020200212222540500700030PENSION ABR 2019 COL  *
D081777997014  00161965821       2017/78234369  DELGADO AGUIRRE  HEC00000000576000000000000000000000000000000000000000000022202019053120200212222540500700030PENSION MAY 2019 COL  *
D081777997014  00161965821       FF19/1561      DELGADO AGUIRRE  HEC00000000640000000000000000000000000000000000000000000021792019063020200212222540500700030PENSION JUN 2019 COL  *
D081777997014  00161965821       FF19/1562      DELGADO AGUIRRE  HEC00000000640000000000000000000000000000000000000000000018822019073120200212222540500700030PENSION JUL 2019 COL  *
D081777997014  00161965821       FF19/1563      DELGADO AGUIRRE  HEC00000000640000000000000000000000000000000000000000000015842019083120200212222540500700030PENSION AGO 2019 COL  *
D081777997014  00161965821       FF19/1564      DELGADO AGUIRRE  HEC00000000640000000000000000000000000000000000000000000012962019093020200212222540500700030PENSION SEP 2019 COL  *
D081777997014  00161965821       FF19/1565      DELGADO AGUIRRE  HEC00000000640000000000000000000000000000000000000000000009982019103120200212222540500700030PENSION OCT 2019 COL  *
D081777997014  00161965821       FF19/1566      DELGADO AGUIRRE  HEC00000000640000000000000000000000000000000000000000000007102019113020200212222540500700030PENSION NOV 2019 COL  *
D081777997014  00161965821       FF19/1567      DELGADO AGUIRRE  HEC00000000640000000000000000000000000000000000000000000005092019122120200212222540500700030PENSION DIC 2019 COL  *
D081777997014  00173844183       2017/78179395  MERINO LAUREANO  VAL00000000470000000000000000000000000000000000000000000056682017113020200212122540500700044PENSION NOV 2017 COL  *
D081777997014  00173844183       2017/78181020  MERINO LAUREANO  VAL00000000470000000000000000000000000000000000000000000055202017122120200212122540500700044PENSION DIC 2017 COL  *
D081777997014  00174007221       2017/78239120  CHAVEZ CANO  ROMINA 00000000640000000000000000000000000000000000000000000012962019093020200212122540500700063PENSION SEP 2019 COL  *
D081777997014  00174007221       2017/78239765  CHAVEZ CANO  ROMINA 00000000640000000000000000000000000000000000000000000009982019103120200212122540500700063PENSION OCT 2019 COL  *
D081777997014  00174007221       2017/78241550  CHAVEZ CANO  ROMINA 00000000640000000000000000000000000000000000000000000007102019113020200212122540500700063PENSION NOV 2019 COL  *
D081777997014  00174007221       2017/78242765  CHAVEZ CANO  ROMINA 00000000640000000000000000000000000000000000000000000005092019122120200212122540500700063PENSION DIC 2019 COL  *
D081777997014  00170736077       2017/80015057  CHACON QUIROZ  DAYAN00000000550000000000000000000000000000000000000000000004372019122120200212227844651002569PENSION DIC 2019 CAR  *
D081777997014  00173119412       2017/78233550  TORRES REYES  VICTOR00000000640000000000000000000000000000000000000000000024672019053120200212227844651006530PENSION MAY 2019 COL  *
D081777997014  00173119412       2017/78235545  TORRES REYES  VICTOR00000000640000000000000000000000000000000000000000000021792019063020200212227844651006531PENSION JUN 2019 COL  *
D081777997014  00173119412       2017/78235870  TORRES REYES  VICTOR00000000640000000000000000000000000000000000000000000018822019073120200212227844651006532PENSION JUL 2019 COL  *
D081777997014  00173119412       2017/78237240  TORRES REYES  VICTOR00000000640000000000000000000000000000000000000000000015842019083120200212227844651006534PENSION AGO 2019 COL  *
D081777997014  00173119412       2017/78238300  TORRES REYES  VICTOR00000000640000000000000000000000000000000000000000000012962019093020200212227844651006536PENSION SEP 2019 COL  *
D081777997014  00178851552       2017/78230863  PISKUNOV TORIBIO  NO00000000560000000000000000000000000000000000000000000026712019033120200212128460500700016PENSION MAR 2019 COL  *
D081777997014  00178851552       2017/78232116  PISKUNOV TORIBIO  NO00000000560000000000000000000000000000000000000000000024192019043020200212128460500700016PENSION ABR 2019 COL  *
D081777997014  00178851552       2017/78233439  PISKUNOV TORIBIO  NO00000000560000000000000000000000000000000000000000000021592019053120200212128460500700016PENSION MAY 2019 COL  *
D081777997014  00178851552       2017/78235437  PISKUNOV TORIBIO  NO00000000560000000000000000000000000000000000000000000019072019063020200212128460500700016PENSION JUN 2019 COL  *
D081777997014  00178851552       2017/78235759  PISKUNOV TORIBIO  NO00000000560000000000000000000000000000000000000000000016462019073120200212128460500700016PENSION JUL 2019 COL  *
D081777997014  00178851552       2017/78237041  PISKUNOV TORIBIO  NO00000000560000000000000000000000000000000000000000000013862019083120200212128460500700016PENSION AGO 2019 COL  *
D081777997014  00178851552       2017/78238092  PISKUNOV TORIBIO  NO00000000560000000000000000000000000000000000000000000011342019093020200212128460500700016PENSION SEP 2019 COL  *
D081777997014  00178851552       2017/78240057  PISKUNOV TORIBIO  NO00000000560000000000000000000000000000000000000000000008742019103120200212128460500700016PENSION OCT 2019 COL  *
D081777997014  00178851552       2017/78240611  PISKUNOV TORIBIO  NO00000000560000000000000000000000000000000000000000000006222019113020200212128460500700016PENSION NOV 2019 COL  *
D081777997014  00178851552       2017/78241959  PISKUNOV TORIBIO  NO00000000560000000000000000000000000000000000000000000004452019122120200212128460500700016PENSION DIC 2019 COL  *
T081777997014  00101PENSION                       081777997014  000000003957567                                                                                                    *
T081777997014  00103PENSION                       081777997014  000000000055437                                                                                                    *
H081777997014  003000001600000000095500000000000000020200212                                                                                                                       *
D081777997014  00371162688       2017/78244713  MINAYA VILLANUEVA  J00000000670000000000000000000000000000000000000000000000002020022820200212120190500700048MATRICULA COL         *
D081777997014  00374695802       2017/80016327  MATTA JARA  BRIANA C00000000550000000000000000000000000000000000000000000000002020022820200212120200500700022INSCRIPCION CAR       *
D081777997014  00374695801       2017/80016328  MATTA JARA  MIGUEL A00000000550000000000000000000000000000000000000000000000002020022820200212120200500700023INSCRIPCION CAR       *
D081777997014  00376107964       2017/80016333  ALVAREZ SEVILLANO  A00000000560000000000000000000000000000000000000000000000002020022820200212120210500700075INSCRIPCION CAR       *
D081777997014  00379129402       2017/80016332  ALVAREZ SEVILLANO  D00000000570000000000000000000000000000000000000000000000002020022820200212120210500700076INSCRIPCION CAR       *
D081777997014  00377400015       2017/80016350  GUERRERO LAUREANO  V00000000560000000000000000000000000000000000000000000000002020022820200212120580500700085INSCRIPCION CAR       *
D081777997014  00374103584       2017/80016349  GUERRERO LAUREANO  K00000000560000000000000000000000000000000000000000000000002020022820200212120580500700087INSCRIPCION CAR       *
D081777997014  00374500503       2017/78244721  FLORES VELASQUEZ  DI00000000670000000000000000000000000000000000000000000000002020022820200212121770500700047MATRICULA COL         *
D081777997014  00373028035       2017/161984    ROMERO PEREZ  DANIEL00000000570000000000000000000000000000000000000000000000002020022820200212122140500700022MATRICULA SJL         *
D081777997014  00374333726       2017/161985    ROMERO PEREZ  DANNA 00000000570000000000000000000000000000000000000000000000002020022820200212122140500700023MATRICULA SJL         *
D081777997014  00362577065       2017/78244730  PALOMINO RONA  DANUS00000000670000000000000000000000000000000000000000000000002020022820200212123040500700035MATRICULA COL         *
D081777997014  00360429162       2017/78244729  PALOMINO RONA  NAOMI00000000670000000000000000000000000000000000000000000000002020022820200212123040500700037MATRICULA COL         *
D081777997014  00372865798       2017/162023    VASQUEZ INGA  CAMILA00000000570000000000000000000000000000000000000000000000002020022820200212126910500700019MATRICULA SJL         *
D081777997014  00361463648       2017/162027    ROQUE MACALUPU  ARON00000000570000000000000000000000000000000000000000000000002020022820200212126910500700043MATRICULA SJL         *
D081777997014  00376313661       2017/162005    KOJIRA LOJA  MIGUEL 00000000570000000000000000000000000000000000000000000000002020022820200212126910500700057MATRICULA SJL         *
D081777997014  00362641234       2017/78244702  PEREZ ARANA  AGOSTIN00000000670000000000000000000000000000000000000000000000002020022820200212227844651004280MATRICULA COL         *
T081777997014  00304MATRICULA                     081777997014  000000000335000                                                                                                    *
T081777997014  00306MATRICULA SJL 2020            081777997014  000000000285000                                                                                                    *
T081777997014  00308MATRICULA 2020 CARABAYLLO     081777997014  000000000335000                                                                                                    *
H081777997014  008000000100000000000250000000000000020200212                                                                                                                       *
D081777997014  00872744695       FF20/487       YUPANQUI JARAMILLO  00000000025000000000000000000000000000000000000000000000002020022820200212227844651011304CERT CONDUCTA COL FE  *
T081777997014  00826CERT CONDUCTA COL             081777997014  000000000002500                                                                                                    *
H081777997014  009000000900000000005400000000000000020200212                                                                                                                       *
D081777997014  00971542202       FF20/375       CAMACHO PELAEZ  DIEG00000000060000000000000000000000000000000000000000000000002020022820200212122540500700004CERT ESTUDIO COL FEB  *
D081777997014  00975083767       FF20/475       CONDOR MEZA  MELANY 00000000060000000000000000000000000000000000000000000000002020022820200212122540500700042CERT ESTUDIO COL FEB  *
D081777997014  00973457154       FF20/464       MACHUCA PAJUELO  FRA00000000060000000000000000000000000000000000000000000000002020022820200212126570500700015CERT ESTUDIOS CAR FE  *
D081777997014  00971279252       FF20/451       CAMPIAN  PALACIOS  L00000000060000000000000000000000000000000000000000000000002020022820200212126910500700001CERT ESTUDIOS SJL FE  *
D081777997014  00973551258       FF20/434       HERNANDEZ QUISPE  TA00000000060000000000000000000000000000000000000000000000002020022820200212126910500700039CERT ESTUDIOS SJL FE  *
D081777997014  00976729366       FF20/481       MIRANDA  MARIN  ROSE00000000060000000000000000000000000000000000000000000000002020022820200212127020500700035CERT ESTUDIOS CAR FE  *
D081777997014  00976924398       FF20/473       SANTILLAN MOTTA  TAN00000000060000000000000000000000000000000000000000000000002020022820200212227844651000896CERT ESTUDIO COL FEB  *
D081777997014  00976684761       FF20/477       LLANOS CUEVA  SERGIO00000000060000000000000000000000000000000000000000000000002020022820200212227844651008187CERT ESTUDIO COL FEB  *
D081777997014  00974036801       FF20/478       YANGALI  PUN  CHANG 00000000060000000000000000000000000000000000000000000000002020022820200212227844651008233CERT ESTUDIOS SJL FE  *
T081777997014  00929CERT ESTUDIO-COL              081777997014  000000000024000                                                                                                    *
T081777997014  00963CERT ESTUDIOS SJL             081777997014  000000000018000                                                                                                    *
T081777997014  00999CERT ESTUDIOS-CAR             081777997014  000000000012000                                                                                                    *
H081777997014  010000000100000000000300000000000000020200212                                                                                                                       *
D081777997014  01073457154       FF20/465       MACHUCA PAJUELO  FRA00000000030000000000000000000000000000000000000000000000002020022820200212126570500700015CCIA NO ADEUDO CAR F  *
T081777997014  01010CCIA NO ADEUDO CAR            081777997014  000000000003000                                                                                                    *
