H081777997014  001000006300000000355578800000000000020200205                                                                                                                       *
D081777997014  00161184469       2017/78242423  HERNANDEZ MEZA  CHRI00000000640000000000000000000000000000000000000000000004422019122120200205120130500700046PENSION DIC 2019 COL  *
D081777997014  00173093156       2017/80014975  VASQUEZ PEREZ  LUIS 00000000540000000000000000000000000000000000000000000003732019122120200205120190500700015PENSION DIC 2019 CAR  *
D081777997014  00173730539       2017/80014688  ROJAS HUAMANI  EVIGH00000000385000000000000000000000000000000000000000000003872019113020200205120210500700086PENSION NOV 2019 CAR  *
D081777997014  00173730539       2017/80015169  ROJAS HUAMANI  EVIGH00000000385000000000000000000000000000000000000000000002662019122120200205120210500700087PENSION DIC 2019 CAR  *
D081777997014  00172485827       2017/160224    PARADA HUAMAN  SOFIA00000000540000000000000000000000000000000000000000000003732019122120200205121540500700001PENSION DIC 2019 SJL  *
D081777997014  00176103968       2017/80014496  RAMIREZ TORRES  BIAN00000000550000000000000000000000000000000000000000000005532019113020200205121910500700003PENSION NOV 2019 CAR  *
D081777997014  00176103968       2017/80015037  RAMIREZ TORRES  BIAN00000000550000000000000000000000000000000000000000000003802019122120200205121910500700003PENSION DIC 2019 CAR  *
D081777997014  00172996047       2017/80014675  RAMIREZ TORRES  YURI00000000495000000000000000000000000000000000000000000004972019113020200205121910500700005PENSION NOV 2019 CAR  *
D081777997014  00172996047       2017/80015097  RAMIREZ TORRES  YURI00000000495000000000000000000000000000000000000000000003422019122120200205121910500700006PENSION DIC 2019 CAR  *
D081777997014  00173846768       2017/150672    DELGADO PEREZ  CAMIL00000000550000000000000000000000000000000000000000000025662019033120200205122030500700004PENSION MAR 2019 SJL  *
D081777997014  00173846768       2017/151679    DELGADO PEREZ  CAMIL00000000550000000000000000000000000000000000000000000023182019043020200205122030500700004PENSION ABR 2019 SJL  *
D081777997014  00173295757       2017/78234378  MORALES ORE  GIANFRA00000000640000000000000000000000000000000000000000000024002019053120200205122240500700010PENSION MAY 2019 COL  *
D081777997014  00173295757       2017/78235167  MORALES ORE  GIANFRA00000000640000000000000000000000000000000000000000000021122019063020200205122240500700010PENSION JUN 2019 COL  *
D081777997014  00171354270       2017/80013610  LEON SILVA  MATIAS A00000000550000000000000000000000000000000000000000000010562019093020200205122290500700054PENSION SEP 2019 CAR  *
D081777997014  00171354270       2017/80014159  LEON SILVA  MATIAS A00000000550000000000000000000000000000000000000000000008002019103120200205122290500700055PENSION OCT 2019 CAR  *
D081777997014  00171354270       2017/80014530  LEON SILVA  MATIAS A00000000550000000000000000000000000000000000000000000005532019113020200205122290500700056PENSION NOV 2019 CAR  *
D081777997014  00171354270       2017/80014895  LEON SILVA  MATIAS A00000000550000000000000000000000000000000000000000000003802019122120200205122290500700057PENSION DIC 2019 CAR  *
D081777997014  00161141988       2017/157571    TORRES ALVARADO  SOP00000000550000000000000000000000000000000000000000000008002019103120200205122470500700065PENSION OCT 2019 SJL  *
D081777997014  00161141988       2017/158936    TORRES ALVARADO  SOP00000000550000000000000000000000000000000000000000000005532019113020200205122470500700065PENSION NOV 2019 SJL  *
D081777997014  00161141988       2017/159727    TORRES ALVARADO  SOP00000000550000000000000000000000000000000000000000000003802019122120200205122470500700065PENSION DIC 2019 SJL  *
D081777997014  00172077440       2017/156311    ANGOSTO MALPARTIDA  00000000540000000000000000000000000000000000000000000012802019083120200205222470500700105PENSION AGO 2019 SJL  *
D081777997014  00172077440       2017/157333    ANGOSTO MALPARTIDA  00000000540000000000000000000000000000000000000000000010372019093020200205222470500700105PENSION SEP 2019 SJL  *
D081777997014  00172077440       2017/158355    ANGOSTO MALPARTIDA  00000000540000000000000000000000000000000000000000000007862019103120200205222470500700105PENSION OCT 2019 SJL  *
D081777997014  00172077440       2017/158515    ANGOSTO MALPARTIDA  00000000540000000000000000000000000000000000000000000005432019113020200205222470500700105PENSION NOV 2019 SJL  *
D081777997014  00177644392       2017/78239847  RUTTE TEJERINA  SEBA00000000560000000000000000000000000000000000000000000008152019103120200205122540500700014PENSION OCT 2019 COL  *
D081777997014  00177644392       2017/78241632  RUTTE TEJERINA  SEBA00000000560000000000000000000000000000000000000000000005632019113020200205122540500700014PENSION NOV 2019 COL  *
D081777997014  00177644392       2017/78242847  RUTTE TEJERINA  SEBA00000000560000000000000000000000000000000000000000000003862019122120200205122540500700014PENSION DIC 2019 COL  *
D081777997014  00175042530       2017/78241308  SOTO GOMEZ  SANTIAGO00000000640000000000000000000000000000000000000000000006432019113020200205122540500700180PENSION NOV 2019 COL  *
D081777997014  00175042530       2017/78242523  SOTO GOMEZ  SANTIAGO00000000640000000000000000000000000000000000000000000004422019122120200205122540500700180PENSION DIC 2019 COL  *
D081777997014  00174197340       FF19/1743      SOTO GOMEZ  SEBASTIA00000000640000000000000000000000000000000000000000000015172019083120200205122540500700183PENSION AGO 2019 COL  *
D081777997014  00174197340       FF19/1744      SOTO GOMEZ  SEBASTIA00000000640000000000000000000000000000000000000000000012292019093020200205122540500700183PENSION SEP 2019 COL  *
D081777997014  00174197340       FF19/1745      SOTO GOMEZ  SEBASTIA00000000640000000000000000000000000000000000000000000009312019103120200205122540500700183PENSION OCT 2019 COL  *
D081777997014  00174197340       FF19/1746      SOTO GOMEZ  SEBASTIA00000000640000000000000000000000000000000000000000000006432019113020200205122540500700183PENSION NOV 2019 COL  *
D081777997014  00174197340       FF19/1747      SOTO GOMEZ  SEBASTIA00000000640000000000000000000000000000000000000000000004422019122120200205122540500700183PENSION DIC 2019 COL  *
D081777997014  00161775673       2017/80015117  CHUNGA ULLAURE  NATA00000000550000000000000000000000000000000000000000000003802019122120200205124140500700041PENSION DIC 2019 CAR  *
D081777997014  00172767229       2017/78239308  RONDON TORRES  ROBER00000000640000000000000000000000000000000000000000000009312019103120200205126610500700008PENSION OCT 2019 COL  *
D081777997014  00172767229       2017/78241093  RONDON TORRES  ROBER00000000640000000000000000000000000000000000000000000006432019113020200205126610500700008PENSION NOV 2019 COL  *
D081777997014  00173640160       2017/78240948  SANCHEZ SANTIANI  JO00000000480000000000000000000000000000000000000000000004822019113020200205126610500700214PENSION NOV 2019 COL  *
D081777997014  00178090384       2017/159688    DAVILA VALVERDE  NIC00000000550000000000000000000000000000000000000000000003802019122120200205126910500700040PENSION DIC 2019 SJL  *
D081777997014  00174868049       2016/46888     PANDO CURTO  GIANFRA00000000420000000000000000000000000000000000000000000000002020063020200205226910500700049PENSION JUN 2016 SJL  *
D081777997014  00174868049       2016/91612     PANDO CURTO  GIANFRA00000000420000000000000000000000000000000000000000000000002020073120200205226910500700049PENSION JUL 2016 SJL  *
D081777997014  00174868049       2016/10706     PANDO CURTO  GIANFRA00000000420000000000000000000000000000000000000000000000002020083120200205226910500700049PENSION AGO 2016 SJL  *
D081777997014  00174868049       2016/42719     PANDO CURTO  GIANFRA00000000420000000000000000000000000000000000000000000000002020093020200205226910500700049PENSION SEP 2016 SJL  *
D081777997014  00174868049       2016/47422     PANDO CURTO  GIANFRA00000000420000000000000000000000000000000000000000000000002020103120200205226910500700049PENSION OCT 2016 SJL  *
D081777997014  00174868049       2016/15491     PANDO CURTO  GIANFRA00000000420000000000000000000000000000000000000000000000002020113020200205226910500700049PENSION NOV 2016 SJL  *
D081777997014  00174868049       2016/36866     PANDO CURTO  GIANFRA00000000420000000000000000000000000000000000000000000000002020121620200205226910500700049PENSION DIC 2016 SJL  *
D081777997014  00161852181       2017/160051    SILVA FLORES  YESIL 00000000550000000000000000000000000000000000000000000003802019122120200205126910500700057PENSION DIC 2019 SJL  *
D081777997014  00161264635       2017/80014974  TORRES GOVEA  ROMINA00000000486000000000000000000000000000000000000000000003352019122120200205127020500700020PENSION DIC 2019 CAR  *
D081777997014  00178151602       2017/80014806  TORRES GOVEA  SEBAST00000000560000000000000000000000000000000000000000000003862019122120200205127020500700021PENSION DIC 2019 CAR  *
D081777997014  00178854250       2017/157573    DE LA TORRE CONDORE 00000000560000000000000000000000000000000000000000000008152019103120200205127420500700103PENSION OCT 2019 SJL  *
D081777997014  00178854250       2017/158795    DE LA TORRE CONDORE 00000000560000000000000000000000000000000000000000000005632019113020200205127420500700104PENSION NOV 2019 SJL  *
D081777997014  00161454118       2017/78232915  CHAVEZ GARAY  KEYSI 00000000640000000000000000000000000000000000000000000026982019043020200205227844651001009PENSION ABR 2019 COL  *
D081777997014  00161454118       2017/78234250  CHAVEZ GARAY  KEYSI 00000000640000000000000000000000000000000000000000000024002019053120200205227844651001011PENSION MAY 2019 COL  *
D081777997014  00161454118       2017/78235023  CHAVEZ GARAY  KEYSI 00000000640000000000000000000000000000000000000000000021122019063020200205227844651001012PENSION JUN 2019 COL  *
D081777997014  00161454118       2017/78236560  CHAVEZ GARAY  KEYSI 00000000640000000000000000000000000000000000000000000018142019073120200205227844651001013PENSION JUL 2019 COL  *
D081777997014  00161454118       2017/78237848  CHAVEZ GARAY  KEYSI 00000000640000000000000000000000000000000000000000000015172019083120200205227844651001014PENSION AGO 2019 COL  *
D081777997014  00161454118       2017/78238990  CHAVEZ GARAY  KEYSI 00000000640000000000000000000000000000000000000000000012292019093020200205227844651001015PENSION SEP 2019 COL  *
D081777997014  00161454118       2017/78239625  CHAVEZ GARAY  KEYSI 00000000640000000000000000000000000000000000000000000009312019103120200205227844651001016PENSION OCT 2019 COL  *
D081777997014  00161454118       2017/78241420  CHAVEZ GARAY  KEYSI 00000000640000000000000000000000000000000000000000000006432019113020200205227844651001017PENSION NOV 2019 COL  *
D081777997014  00161454118       2017/78242635  CHAVEZ GARAY  KEYSI 00000000640000000000000000000000000000000000000000000004422019122120200205227844651001018PENSION DIC 2019 COL  *
D081777997014  00173402985       2017/159120    AGUADO TUCTO  TIRZA 00000000550000000000000000000000000000000000000000000005532019113020200205128890500700017PENSION NOV 2019 SJL  *
D081777997014  00173402985       2017/159982    AGUADO TUCTO  TIRZA 00000000550000000000000000000000000000000000000000000003802019122120200205128890500700017PENSION DIC 2019 SJL  *
D081777997014  00176718761       2017/78242689  LOAYZA LLOCCLLA  NIC00000000560000000000000000000000000000000000000000000003862019122120200205129470500700087PENSION DIC 2019 COL  *
T081777997014  00101PENSION                       081777997014  000000001644793                                                                                                    *
T081777997014  00102PENSION SAN JUAN              081777997014  000000001184707                                                                                                    *
T081777997014  00103PENSION                       081777997014  000000000726288                                                                                                    *
H081777997014  003000002000000000116300000000000000020200205                                                                                                                       *
D081777997014  00372209294       2017/78244607  RODRIGUEZ BALDWIN  T00000000670000000000000000000000000000000000000000000000002020022820200205120140500700163MATRICULA COL         *
D081777997014  00378678946       2017/78244608  CHAU BALDWIN  YAGO A00000000570000000000000000000000000000000000000000000000002020022820200205220140500700164MATRICULA COL         *
D081777997014  00371731823       2017/78244618  DEL PINO MIRANDA  DA00000000670000000000000000000000000000000000000000000000002020022820200205220240500700032MATRICULA COL         *
D081777997014  00371731824       2017/78244619  DEL PINO MIRANDA  LE00000000670000000000000000000000000000000000000000000000002020022820200205220240500700037MATRICULA COL         *
D081777997014  00373368316       2017/80016291  REYES DIAZ  SEBASTIA00000000550000000000000000000000000000000000000000000000002020022820200205120920500700125INSCRIPCION CAR       *
D081777997014  00379298099       2017/161950    TASILLA CASTILLO  JO00000000570000000000000000000000000000000000000000000000002020013120200205121350500700044MATRICULA SJL         *
D081777997014  00379298099       2017/161951    TASILLA CASTILLO  JO00000000350000000000000000000000000000000000000000000000002020013120200205121350500700044INSCRIPCION SJL       *
D081777997014  00378749316       2017/161895    ALVA GARRIDO  LUANA 00000000570000000000000000000000000000000000000000000000002020013120200205122100500700084MATRICULA SJL         *
D081777997014  00379527272       2017/161842    CARRION ALLCCA  LEAN00000000570000000000000000000000000000000000000000000000002020013120200205122470500700126MATRICULA SJL         *
D081777997014  00371155065       2017/78244605  LEON LOZA  MATEO ALO00000000670000000000000000000000000000000000000000000000002020022820200205122540500700033MATRICULA COL         *
D081777997014  00371155065       2017/78244606  LEON LOZA  MATEO ALO00000000350000000000000000000000000000000000000000000000002020022820200205122540500700034INSCRIPCION COL       *
D081777997014  00370708392       2017/78244631  ROJAS JUAREZ  ANDRES00000000670000000000000000000000000000000000000000000000002020022820200205122540500700142MATRICULA COL         *
D081777997014  00361809042       2017/78244622  SAROLI QUISPE  LUCIE00000000670000000000000000000000000000000000000000000000002020022820200205122540500700191MATRICULA COL         *
D081777997014  00371573308       2017/78244625  CORREA PEREZ  JOSE L00000000670000000000000000000000000000000000000000000000002020022820200205126610500700078MATRICULA COL         *
D081777997014  00376415121       2017/161730    JORGE SOLIS  LEONEL 00000000570000000000000000000000000000000000000000000000002020013120200205126860500700004MATRICULA SJL         *
D081777997014  00379806696       2017/78244582  REYES ENCALADA  MAUR00000000570000000000000000000000000000000000000000000000002020022820200205227844651005756MATRICULA COL         *
D081777997014  00379806696       2017/78244583  REYES ENCALADA  MAUR00000000350000000000000000000000000000000000000000000000002020022820200205227844651005757INSCRIPCION COL       *
D081777997014  00375301231       2017/78244635  PUICON VILLALOBOS  M00000000670000000000000000000000000000000000000000000000002020022820200205227844651007499MATRICULA COL         *
D081777997014  00377739998       2017/78244636  PUICON VILLALOBOS  D00000000580000000000000000000000000000000000000000000000002020022820200205227844651007573MATRICULA COL         *
D081777997014  00371425584       2017/78244633  APAZA SEGOVIA  ADRIA00000000670000000000000000000000000000000000000000000000002020022820200205227844651009418MATRICULA COL         *
T081777997014  00304MATRICULA                     081777997014  000000000775000                                                                                                    *
T081777997014  00305DERECHO DE INGRESO COL        081777997014  000000000070000                                                                                                    *
T081777997014  00306MATRICULA SJL 2020            081777997014  000000000228000                                                                                                    *
T081777997014  00307DERECHO DE INGRESO SJL 2018   081777997014  000000000035000                                                                                                    *
T081777997014  00308MATRICULA 2020 CARABAYLLO     081777997014  000000000055000                                                                                                    *
H081777997014  005000000100000000001000000000000000020200205                                                                                                                       *
D081777997014  00574695802       2017/80015762  MATTA JARA  BRIANA C00000000100000000000000000000000000000000000000000000000002019063020200205120210500700080TALLERES JUN 2019 CA  *
T081777997014  00596TALLERES                      081777997014  000000000010000                                                                                                    *
H081777997014  007000000100000000000250000000000000020200205                                                                                                                       *
D081777997014  00772282002       FF20/381       OCHOA VILLALOBOS  NI00000000025000000000000000000000000000000000000000000000002020022820200205122540500700002EXCELENCIA ACAD COL   *
T081777997014  00725EXCELENCIA ACAD COL           081777997014  000000000002500                                                                                                    *
H081777997014  009000000900000000006600000000000000020200205                                                                                                                       *
D081777997014  00970850140       FF20/392       PUCHO ZAVALETA  GAVI00000000060000000000000000000000000000000000000000000000002020022820200205120700500700101CERT ESTUDIO COL FEB  *
D081777997014  00972282002       FF20/382       OCHOA VILLALOBOS  NI00000000060000000000000000000000000000000000000000000000002020022820200205122540500700002CERT ESTUDIO COL FEB  *
D081777997014  00971337238       FF20/391       ACARAPI SICCHA  DAVI00000000180000000000000000000000000000000000000000000000002020022820200205122540500700120CERT ESTUDIO COL FEB  *
D081777997014  00973236661       FF20/402       NUNEZ DEL PRADO CAND00000000060000000000000000000000000000000000000000000000002020022820200205122540500700189CERT ESTUDIO COL FEB  *
D081777997014  00970703770       FF20/376       PALACIOS YANGALI  VE00000000060000000000000000000000000000000000000000000000002020022820200205126910500700071CERT ESTUDIOS SJL FE  *
D081777997014  00972447862       FF20/404       GRANDEZ VILLALTA  MA00000000060000000000000000000000000000000000000000000000002020022820200205127420500700099CERT ESTUDIOS SJL FE  *
D081777997014  00960812146       FF20/397       CASTILLO BELAPATINO 00000000060000000000000000000000000000000000000000000000002020022820200205128600500700082CERT ESTUDIO COL FEB  *
D081777997014  00977185622       FF20/396       CASTILLO BELAPATINO 00000000060000000000000000000000000000000000000000000000002020022820200205128600500700083CERT ESTUDIO COL FEB  *
D081777997014  00976718761       FF20/37        LOAYZA LLOCCLLA  NIC00000000060000000000000000000000000000000000000000000000002020013120200205129470500700087CERT ESTUDIO COL ENE  *
T081777997014  00929CERT ESTUDIO-COL              081777997014  000000000054000                                                                                                    *
T081777997014  00963CERT ESTUDIOS SJL             081777997014  000000000012000                                                                                                    *
H081777997014  010000000100000000000300000000000000020200205                                                                                                                       *
D081777997014  01076718761       FF20/36        LOAYZA LLOCCLLA  NIC00000000030000000000000000000000000000000000000000000000002020013120200205129470500700087CCIA NO ADEUDO COL E  *
T081777997014  01028CCIA NO ADEUDO COL            081777997014  000000000003000                                                                                                    *
H081777997014  012000000300000000001500000000000000020200205                                                                                                                       *
D081777997014  01273640160       FF20/71        SANCHEZ SANTIANI  JO00000000060000000000000000000000000000000000000000000000002020013120200205126610500700215PRA ACAD COLONIAL EN  *
D081777997014  01274781937       FF20/365       RARAZ SEGUIL  LEONEL00000000030000000000000000000000000000000000000000000000002020022820200205126910500700030PRA ACAD SJL FEB 202  *
D081777997014  01261264635       FF20/390       TORRES GOVEA  ROMINA00000000060000000000000000000000000000000000000000000000002020022820200205127020500700020PRA ACAD CARABAYLLO   *
T081777997014  01210PRA ACAD CARABAYLLO           081777997014  000000000006000                                                                                                    *
T081777997014  01230PRA ACAD COLONIAL             081777997014  000000000006000                                                                                                    *
T081777997014  01266PRA ACAD SJL                  081777997014  000000000003000                                                                                                    *
