H081777997014  001000003000000000168947800000000000020200221                                                                                                                       *
D081777997014  00173548595       2017/80014711  MACHUCA SALGADO  LUA00000000550000000000000000000000000000000000000000000006852019113020200221220200500700042PENSION NOV 2019 CAR  *
D081777997014  00173548595       2017/80015192  MACHUCA SALGADO  LUA00000000550000000000000000000000000000000000000000000005122019122120200221220200500700042PENSION DIC 2019 CAR  *
D081777997014  00170572518       2017/80014412  MACHUCA SALGADO  ARI00000000486000000000000000000000000000000000000000000006052019113020200221220200500700043PENSION NOV 2019 CAR  *
D081777997014  00170572518       2017/80014953  MACHUCA SALGADO  ARI00000000486000000000000000000000000000000000000000000004522019122120200221220200500700043PENSION DIC 2019 CAR  *
D081777997014  00174066750       2017/78242262  RAMIREZ PACHECO  ANA00000000480000000000000000000000000000000000000000000004462019122120200221121770500700050PENSION DIC 2019 COL  *
D081777997014  00174016614       2017/159235    DUENAS MERINO  DIEGO00000000550000000000000000000000000000000000000000000006852019113020200221122470500700023PENSION NOV 2019 SJL  *
D081777997014  00160785336       FF19/1703      MORANTE ALTUNA  ALES00000000640000000000000000000000000000000000000000000005952019122120200221124050500700017PENSION DIC 2019 COL  *
D081777997014  00175111074       2017/154868    ORMENO BLAS  ARLEX A00000000486000000000000000000000000000000000000000000014942019073120200221126800500700028PENSION JUL 2019 SJL  *
D081777997014  00175085450       2017/155036    ORMENO BLAS  AYSEL D00000000540000000000000000000000000000000000000000000016612019073120200221126800500700029PENSION JUL 2019 SJL  *
D081777997014  00178277185       2017/155108    MONTANO VELARDE  CAR00000000560000000000000000000000000000000000000000000017222019073120200221126910500700015PENSION JUL 2019 SJL  *
D081777997014  00178277185       2017/155552    MONTANO VELARDE  CAR00000000560000000000000000000000000000000000000000000014622019083120200221126910500700015PENSION AGO 2019 SJL  *
D081777997014  00178277185       2017/156595    MONTANO VELARDE  CAR00000000560000000000000000000000000000000000000000000012102019093020200221126910500700015PENSION SEP 2019 SJL  *
D081777997014  00178277185       2017/157471    MONTANO VELARDE  CAR00000000560000000000000000000000000000000000000000000009492019103120200221126910500700015PENSION OCT 2019 SJL  *
D081777997014  00178277185       2017/158721    MONTANO VELARDE  CAR00000000560000000000000000000000000000000000000000000006972019113020200221126910500700015PENSION NOV 2019 SJL  *
D081777997014  00178277185       2017/159490    MONTANO VELARDE  CAR00000000560000000000000000000000000000000000000000000005212019122120200221126910500700015PENSION DIC 2019 SJL  *
D081777997014  00172783600       2017/160646    PAUCAR MONTELLANOS  00000000486000000000000000000000000000000000000000000004522019122120200221127420500700051PENSION DIC 2019 SJL  *
D081777997014  00175085450       2017/153349    ORMENO BLAS  AYSEL D00000000540000000000000000000000000000000000000000000021552019053120200221227844651001736PENSION MAY 2019 SJL  *
D081777997014  00175085450       2017/154371    ORMENO BLAS  AYSEL D00000000540000000000000000000000000000000000000000000019122019063020200221227844651001737PENSION JUN 2019 SJL  *
D081777997014  00175111074       2017/153181    ORMENO BLAS  ARLEX A00000000486000000000000000000000000000000000000000000019392019053120200221227844651001780PENSION MAY 2019 SJL  *
D081777997014  00175111074       2017/154203    ORMENO BLAS  ARLEX A00000000486000000000000000000000000000000000000000000017202019063020200221227844651001781PENSION JUN 2019 SJL  *
D081777997014  00174241721       FF19/1543      DAVALOS ARTEAGA  JAI00000000640000000000000000000000000000000000000000000013822019093020200221227844651002868PENSION SEP 2019 COL  *
D081777997014  00177206691       2017/78237118  MARTINEZ MAMANI  FRA00000000640000000000000000000000000000000000000000000016702019083120200221227844651009831PENSION AGO 2019 COL  *
D081777997014  00177206691       2017/78238397  MARTINEZ MAMANI  FRA00000000640000000000000000000000000000000000000000000013822019093020200221227844651009832PENSION SEP 2019 COL  *
D081777997014  00177206691       2017/78240204  MARTINEZ MAMANI  FRA00000000640000000000000000000000000000000000000000000010852019103120200221227844651009834PENSION OCT 2019 COL  *
D081777997014  00177206691       2017/78240738  MARTINEZ MAMANI  FRA00000000640000000000000000000000000000000000000000000007972019113020200221227844651009835PENSION NOV 2019 COL  *
D081777997014  00177206691       2017/78241887  MARTINEZ MAMANI  FRA00000000640000000000000000000000000000000000000000000005952019122120200221227844651009836PENSION DIC 2019 COL  *
D081777997014  00175085450       2017/156415    ORMENO BLAS  AYSEL D00000000540000000000000000000000000000000000000000000014092019083120200221227844651011368PENSION AGO 2019 SJL  *
D081777997014  00175085450       2017/157437    ORMENO BLAS  AYSEL D00000000540000000000000000000000000000000000000000000011662019093020200221227844651011369PENSION SEP 2019 SJL  *
D081777997014  00175111074       2017/156247    ORMENO BLAS  ARLEX A00000000486000000000000000000000000000000000000000000012682019083120200221227844651011433PENSION AGO 2019 SJL  *
D081777997014  00170958150       2017/157103    CAPUNAY INONAN  HENR00000000486000000000000000000000000000000000000000000010502019093020200221227844651014825PENSION SEP 2019 SJL  *
T081777997014  00101PENSION                       081777997014  000000000503952                                                                                                    *
T081777997014  00102PENSION SAN JUAN              081777997014  000000000976072                                                                                                    *
T081777997014  00103PENSION                       081777997014  000000000209454                                                                                                    *
H081777997014  003000001600000000087900000000000000020200221                                                                                                                       *
D081777997014  00360194553       2017/161967    HIDALGO CASTILLO  CA00000000570000000000000000000000000000000000000000000000002020022820200221122140500700035MATRICULA SJL         *
D081777997014  00371179333       2017/78244854  VALENCIA SEDANO  ADR00000000670000000000000000000000000000000000000000000000002020022820200221122240500700021MATRICULA COL         *
D081777997014  00371264427       2017/78244853  VALENCIA SEDANO  CAM00000000670000000000000000000000000000000000000000000000002020022820200221122240500700023MATRICULA COL         *
D081777997014  00377191920       2017/162009    GUZMAN VALDERRAMA  K00000000570000000000000000000000000000000000000000000000002020022820200221122470500700018MATRICULA SJL         *
D081777997014  00361981217       2017/78244846  OLIVERA GUILLERMO  Y00000000670000000000000000000000000000000000000000000000002020022820200221122540500700034MATRICULA COL         *
D081777997014  00361981217       2017/78244847  OLIVERA GUILLERMO  Y00000000350000000000000000000000000000000000000000000000002020022820200221122540500700034INSCRIPCION COL       *
D081777997014  00377244876       2017/78244863  ARANIBAR GUTIERREZ  00000000670000000000000000000000000000000000000000000000002020022820200221122540500700047MATRICULA COL         *
D081777997014  00377780359       2017/78244850  ABANTO ABANTO  AYLEE00000000670000000000000000000000000000000000000000000000002020022820200221122540500700070MATRICULA COL         *
D081777997014  00377780359       2017/78244851  ABANTO ABANTO  AYLEE00000000350000000000000000000000000000000000000000000000002020022820200221122540500700070INSCRIPCION COL       *
D081777997014  00390066867       2017/80016414  FLORES OCHOA  GABRIE00000000570000000000000000000000000000000000000000000000002020022820200221122870500700001MATRICULA CAR         *
D081777997014  00390066867       2017/80016415  FLORES OCHOA  GABRIE00000000350000000000000000000000000000000000000000000000002020022820200221122870500700001INSCRIPCION CAR       *
D081777997014  003190782086000   2017/78244867  UZCATEGUI CARMONA  N00000000670000000000000000000000000000000000000000000000002020022820200221124450500700122MATRICULA COL         *
D081777997014  003190782086000   2017/78244868  UZCATEGUI CARMONA  N00000000350000000000000000000000000000000000000000000000002020022820200221124450500700122INSCRIPCION COL       *
D081777997014  00372989191       2017/80016446  SALVATIERRA BRIONES 00000000560000000000000000000000000000000000000000000000002020022820200221126790500700028INSCRIPCION CAR       *
D081777997014  00370736077       2017/80016386  CHACON QUIROZ  DAYAN00000000550000000000000000000000000000000000000000000000002020022820200221227844651002242INSCRIPCION CAR       *
D081777997014  00370596810       2017/80016434  SUSANIBAR FLOR  ARIA00000000550000000000000000000000000000000000000000000000002020022820200221227844671000045INSCRIPCION CAR       *
T081777997014  00304MATRICULA                     081777997014  000000000402000                                                                                                    *
T081777997014  00305DERECHO DE INGRESO COL        081777997014  000000000105000                                                                                                    *
T081777997014  00306MATRICULA SJL 2020            081777997014  000000000114000                                                                                                    *
T081777997014  00308MATRICULA 2020 CARABAYLLO     081777997014  000000000223000                                                                                                    *
T081777997014  00309DERECHO DE INGRESO 2020 CARABA081777997014  000000000035000                                                                                                    *
H081777997014  009000000800000000004800000000000000020200221                                                                                                                       *
D081777997014  00973093156       FF20/427       VASQUEZ PEREZ  LUIS 00000000060000000000000000000000000000000000000000000000002020022820200221120190500700118CERT ESTUDIOS CAR FE  *
D081777997014  00974022922       FF20/583       GUILLEN ENCISO  NICO00000000060000000000000000000000000000000000000000000000002020022820200221120350500700058CERT ESTUDIO COL FEB  *
D081777997014  00977826485       FF20/572       LAURA ACUNA  GENESIS00000000060000000000000000000000000000000000000000000000002020022820200221120580500700033CERT ESTUDIOS SJL FE  *
D081777997014  00974042489       FF20/582       ARAGONES CHAVEZ  CES00000000060000000000000000000000000000000000000000000000002020022820200221122100500700053CERT ESTUDIO COL FEB  *
D081777997014  00977717779       FF20/535       ROSALES YAUCE  CRIST00000000060000000000000000000000000000000000000000000000002020022820200221122160500700077CERT ESTUDIO COL FEB  *
D081777997014  00970730756       FF20/575       BESSOMBES OCHAVANO  00000000060000000000000000000000000000000000000000000000002020022820200221122270500700060CERT ESTUDIO COL FEB  *
D081777997014  00961178629       FF20/567       TOLENTINO TRIGOSO  A00000000060000000000000000000000000000000000000000000000002020022820200221122540500700062CERT ESTUDIO COL FEB  *
D081777997014  00972184984       FF20/571       SAAVEDRA AYBAR  CAMI00000000060000000000000000000000000000000000000000000000002020022820200221129470500700072CERT ESTUDIOS SJL FE  *
T081777997014  00929CERT ESTUDIO-COL              081777997014  000000000030000                                                                                                    *
T081777997014  00963CERT ESTUDIOS SJL             081777997014  000000000012000                                                                                                    *
T081777997014  00999CERT ESTUDIOS-CAR             081777997014  000000000006000                                                                                                    *
H081777997014  010000000100000000000300000000000000020200221                                                                                                                       *
D081777997014  01070730756       FF20/574       BESSOMBES OCHAVANO  00000000030000000000000000000000000000000000000000000000002020022820200221122270500700060CCIA NO ADEUDO COL F  *
T081777997014  01028CCIA NO ADEUDO COL            081777997014  000000000003000                                                                                                    *
