H081777997014  001000004700000000269666100000000000020200219                                                                                                                       *
D081777997014  00171370494       2017/78234793  VALDIVIA LUNA  DARIO00000000576000000000000000000000000000000000000000000020222019063020200219120130500700060PENSION JUN 2019 COL  *
D081777997014  00171370494       2017/78236330  VALDIVIA LUNA  DARIO00000000576000000000000000000000000000000000000000000017542019073120200219120130500700060PENSION JUL 2019 COL  *
D081777997014  00171370494       2017/78237618  VALDIVIA LUNA  DARIO00000000576000000000000000000000000000000000000000000014862019083120200219120130500700060PENSION AGO 2019 COL  *
D081777997014  00171370494       2017/78238762  VALDIVIA LUNA  DARIO00000000576000000000000000000000000000000000000000000012272019093020200219120130500700060PENSION SEP 2019 COL  *
D081777997014  00171370494       2017/78239364  VALDIVIA LUNA  DARIO00000000576000000000000000000000000000000000000000000009592019103120200219120130500700060PENSION OCT 2019 COL  *
D081777997014  00171370494       2017/78241190  VALDIVIA LUNA  DARIO00000000576000000000000000000000000000000000000000000007002019113020200219120130500700060PENSION NOV 2019 COL  *
D081777997014  00171370494       2017/78242405  VALDIVIA LUNA  DARIO00000000576000000000000000000000000000000000000000000005182019122120200219120130500700060PENSION DIC 2019 COL  *
D081777997014  00176483270       2017/78234947  VALDIVIA LUNA  IVANN00000000640000000000000000000000000000000000000000000022462019063020200219120130500700061PENSION JUN 2019 COL  *
D081777997014  00176483270       2017/78236484  VALDIVIA LUNA  IVANN00000000640000000000000000000000000000000000000000000019492019073120200219120130500700061PENSION JUL 2019 COL  *
D081777997014  00176483270       2017/78237772  VALDIVIA LUNA  IVANN00000000640000000000000000000000000000000000000000000016512019083120200219120130500700061PENSION AGO 2019 COL  *
D081777997014  00176483270       2017/78238914  VALDIVIA LUNA  IVANN00000000640000000000000000000000000000000000000000000013632019093020200219120130500700061PENSION SEP 2019 COL  *
D081777997014  00176483270       2017/78239559  VALDIVIA LUNA  IVANN00000000640000000000000000000000000000000000000000000010662019103120200219120130500700061PENSION OCT 2019 COL  *
D081777997014  00176483270       2017/78241355  VALDIVIA LUNA  IVANN00000000640000000000000000000000000000000000000000000007782019113020200219120130500700061PENSION NOV 2019 COL  *
D081777997014  00176483270       2017/78242559  VALDIVIA LUNA  IVANN00000000640000000000000000000000000000000000000000000005762019122120200219120130500700061PENSION DIC 2019 COL  *
D081777997014  00177933831       2017/80013979  ENRIQUEZ CORDOVA  SO00000000550000000000000000000000000000000000000000000009162019103120200219120200500700103PENSION OCT 2019 CAR  *
D081777997014  00177933831       2017/80014481  ENRIQUEZ CORDOVA  SO00000000550000000000000000000000000000000000000000000006682019113020200219120200500700103PENSION NOV 2019 CAR  *
D081777997014  00177933831       2017/80015022  ENRIQUEZ CORDOVA  SO00000000550000000000000000000000000000000000000000000004952019122120200219120200500700103PENSION DIC 2019 CAR  *
D081777997014  00171144107       2017/80011845  ALLEMANT MARAVI  VAN00000000495000000000000000000000000000000000000000000019602019053120200219120210500700034PENSION MAY 2019 CAR  *
D081777997014  00171144107       2017/80012322  ALLEMANT MARAVI  VAN00000000495000000000000000000000000000000000000000000017372019063020200219120210500700035PENSION JUN 2019 CAR  *
D081777997014  00171144107       2017/80012799  ALLEMANT MARAVI  VAN00000000495000000000000000000000000000000000000000000015072019073120200219120210500700036PENSION JUL 2019 CAR  *
D081777997014  00175667223       2017/157214    PINTO POCOHUANCA  PA00000000540000000000000000000000000000000000000000000011502019093020200219120360500700061PENSION SEP 2019 SJL  *
D081777997014  00175667223       2017/158257    PINTO POCOHUANCA  PA00000000540000000000000000000000000000000000000000000008992019103120200219120360500700061PENSION OCT 2019 SJL  *
D081777997014  00175667223       2017/159418    PINTO POCOHUANCA  PA00000000540000000000000000000000000000000000000000000006562019113020200219120360500700061PENSION NOV 2019 SJL  *
D081777997014  00171407091       2017/78241813  AVILA AGUAYO  FRANCI00000000640000000000000000000000000000000000000000000005762019122120200219120700500700015PENSION DIC 2019 COL  *
D081777997014  00174042489       2015/9741      ARAGONES CHAVEZ CESA00000000350000000000000000000000000000000000000000000000002020083120200219122290500700110PENSION AGO 2015 COL  *
D081777997014  00174042489       2015/9108      ARAGONES CHAVEZ CESA00000000350000000000000000000000000000000000000000000000002020093020200219122290500700110PENSION SEP 2015 COL  *
D081777997014  00174042489       2015/49015     ARAGONES CHAVEZ CESA00000000350000000000000000000000000000000000000000000000002020103120200219122290500700110PENSION OCT 2015 COL  *
D081777997014  00174042489       2015/10509     ARAGONES CHAVEZ CESA00000000350000000000000000000000000000000000000000000000002020113020200219122290500700110PENSION NOV 2015 COL  *
D081777997014  00174042489       2015/5508      ARAGONES CHAVEZ CESA00000000350000000000000000000000000000000000000000000000002020121820200219122290500700110PENSION DIC 2015 COL  *
D081777997014  00176209136       2017/78243437  REYES BALCAZAR  ANGE00000000640000000000000000000000000000000000000000000007782019113020200219122540500700024PENSION NOV 2019 COL  *
D081777997014  00176209136       2017/78243438  REYES BALCAZAR  ANGE00000000640000000000000000000000000000000000000000000005762019122120200219122540500700024PENSION DIC 2019 COL  *
D081777997014  00177244876       2017/78238598  ARANIBAR GUTIERREZ  00000000640000000000000000000000000000000000000000000013632019093020200219122540500700025PENSION SEP 2019 COL  *
D081777997014  00177244876       2017/78240478  ARANIBAR GUTIERREZ  00000000640000000000000000000000000000000000000000000010662019103120200219122540500700025PENSION OCT 2019 COL  *
D081777997014  00177244876       2017/78241048  ARANIBAR GUTIERREZ  00000000640000000000000000000000000000000000000000000007782019113020200219122540500700025PENSION NOV 2019 COL  *
D081777997014  00177244876       2017/78242220  ARANIBAR GUTIERREZ  00000000640000000000000000000000000000000000000000000005762019122120200219122540500700025PENSION DIC 2019 COL  *
D081777997014  00175637983       2017/78239498  ZARATE SANTAMARIA  T00000000640000000000000000000000000000000000000000000010662019103120200219126610500700047PENSION OCT 2019 COL  *
D081777997014  00175637983       2017/78241283  ZARATE SANTAMARIA  T00000000640000000000000000000000000000000000000000000007782019113020200219126610500700047PENSION NOV 2019 COL  *
D081777997014  00175637983       2017/78242495  ZARATE SANTAMARIA  T00000000640000000000000000000000000000000000000000000005762019122120200219126610500700047PENSION DIC 2019 COL  *
D081777997014  00171179333       2017/78241247  VALENCIA SEDANO  ADR00000000640000000000000000000000000000000000000000000007782019113020200219126610500700050PENSION NOV 2019 COL  *
D081777997014  00171264427       2017/78240772  VALENCIA SEDANO  CAM00000000576000000000000000000000000000000000000000000007002019113020200219126610500700051PENSION NOV 2019 COL  *
D081777997014  00171264427       2017/78242077  VALENCIA SEDANO  CAM00000000576000000000000000000000000000000000000000000005182019122120200219126610500700052PENSION DIC 2019 COL  *
D081777997014  00171179333       2017/78242459  VALENCIA SEDANO  ADR00000000640000000000000000000000000000000000000000000005762019122120200219126610500700053PENSION DIC 2019 COL  *
D081777997014  00172989191       2017/80014132  SALVATIERRA BRIONES 00000000550000000000000000000000000000000000000000000009162019103120200219126790500700026PENSION OCT 2019 CAR  *
D081777997014  00172989191       2017/80014595  SALVATIERRA BRIONES 00000000550000000000000000000000000000000000000000000006682019113020200219126790500700026PENSION NOV 2019 CAR  *
D081777997014  00172989191       2017/80015127  SALVATIERRA BRIONES 00000000550000000000000000000000000000000000000000000004952019122120200219126790500700026PENSION DIC 2019 CAR  *
D081777997014  00173429600       2017/159334    SANTOS BUENO  MARCIO00000000486000000000000000000000000000000000000000000005902019113020200219126860500700001PENSION NOV 2019 SJL  *
D081777997014  00178854250       2017/159543    DE LA TORRE CONDORE 00000000560000000000000000000000000000000000000000000005042019122120200219127420500700053PENSION DIC 2019 SJL  *
T081777997014  00101PENSION                       081777997014  000000001938400                                                                                                    *
T081777997014  00102PENSION SAN JUAN              081777997014  000000000270399                                                                                                    *
T081777997014  00103PENSION                       081777997014  000000000487862                                                                                                    *
H081777997014  003000001700000000102500000000000000020200219                                                                                                                       *
D081777997014  00374847407       2017/78244807  SANCHEZ AREVALO  JEA00000000670000000000000000000000000000000000000000000000002020022820200219120140500700023MATRICULA COL         *
D081777997014  00376952311       2017/78244821  VILLANUEVA CASARIEGO00000000670000000000000000000000000000000000000000000000002020022820200219120510500700030MATRICULA COL         *
D081777997014  00373214672       2017/78244802  VILLAVICENCIO GUILLE00000000670000000000000000000000000000000000000000000000002020022820200219120600500700048MATRICULA COL         *
D081777997014  00377751828       2017/78244803  VILLAVICENCIO GUILLE00000000580000000000000000000000000000000000000000000000002020022820200219120600500700050MATRICULA COL         *
D081777997014  00360790845       2017/78244793  LIVIAS RODRIGUEZ  AL00000000670000000000000000000000000000000000000000000000002020022820200219221770500700016MATRICULA COL         *
D081777997014  00360790845       2017/78244795  LIVIAS RODRIGUEZ  AL00000000350000000000000000000000000000000000000000000000002020022820200219221770500700016INSCRIPCION COL       *
D081777997014  00377425857       2017/78244736  CHUPAN ESPINOZA  WIL00000000670000000000000000000000000000000000000000000000002020022820200219121770500700041MATRICULA COL         *
D081777997014  00372996047       2017/80016424  RAMIREZ TORRES  YURI00000000560000000000000000000000000000000000000000000000002020022820200219121910500700004INSCRIPCION CAR       *
D081777997014  00376103968       2017/80016423  RAMIREZ TORRES  BIAN00000000560000000000000000000000000000000000000000000000002020022820200219121910500700005INSCRIPCION CAR       *
D081777997014  00375010939       2017/161997    CISNEROS TRUJILLO  C00000000570000000000000000000000000000000000000000000000002020022820200219122470500700037MATRICULA SJL         *
D081777997014  00361923584       2017/162037    QUIJAHUAMAN TENORIO 00000000570000000000000000000000000000000000000000000000002020022820200219122470500700059MATRICULA SJL         *
D081777997014  00376732694       2017/162038    QUIJAHUAMAN TENORIO 00000000570000000000000000000000000000000000000000000000002020022820200219122470500700060MATRICULA SJL         *
D081777997014  00374342513       2017/78244739  ENRIQUEZ CASTROMONTE00000000670000000000000000000000000000000000000000000000002020022820200219122540500700003MATRICULA COL         *
D081777997014  00361775673       2017/80016339  CHUNGA ULLAURE  NATA00000000560000000000000000000000000000000000000000000000002020022820200219124140500700027INSCRIPCION CAR       *
D081777997014  00372767229       2017/78244806  RONDON TORRES  ROBER00000000670000000000000000000000000000000000000000000000002020022820200219126610500700005MATRICULA COL         *
D081777997014  00360904788       2017/162053    TICACALA ARROYO  MAR00000000570000000000000000000000000000000000000000000000002020022820200219127420500700042MATRICULA SJL         *
D081777997014  00362048600       2017/78244818  HERNANDEZ CHUQUIURE 00000000670000000000000000000000000000000000000000000000002020022820200219227844651007770MATRICULA COL         *
T081777997014  00304MATRICULA                     081777997014  000000000594000                                                                                                    *
T081777997014  00305DERECHO DE INGRESO COL        081777997014  000000000035000                                                                                                    *
T081777997014  00306MATRICULA SJL 2020            081777997014  000000000228000                                                                                                    *
T081777997014  00308MATRICULA 2020 CARABAYLLO     081777997014  000000000168000                                                                                                    *
H081777997014  008000000100000000000250000000000000020200219                                                                                                                       *
D081777997014  00876771185       FF20/537       VERGARA LAVADO  DAVI00000000025000000000000000000000000000000000000000000000002020022820200219125350500700022CERT CONDUCTA CAR FE  *
T081777997014  00898CERT CONDUCTA CAR             081777997014  000000000002500                                                                                                    *
H081777997014  009000000600000000003600000000000000020200219                                                                                                                       *
D081777997014  00946637026       FF20/547       PENA MORENO  MAGALY 00000000060000000000000000000000000000000000000000000000002020022820200219120100500700106CERT ESTUDIOS SJL FE  *
D081777997014  00974735892       FF20/545       INCIO RUFINO  MARIEL00000000060000000000000000000000000000000000000000000000002020022820200219122100500700068CERT ESTUDIOS SJL FE  *
D081777997014  00973217741       FF20/544       LOPEZ GONZALES  KELL00000000060000000000000000000000000000000000000000000000002020022820200219122540500700059CERT ESTUDIO COL FEB  *
D081777997014  00976771185       FF20/536       VERGARA LAVADO  DAVI00000000060000000000000000000000000000000000000000000000002020022820200219125350500700022CERT ESTUDIOS CAR FE  *
D081777997014  00977724840       FF20/354       SPONZA ESPINOZA  LEO00000000060000000000000000000000000000000000000000000000002020013120200219126910500700025CERT ESTUDIOS SJL EN  *
D081777997014  00973386279       FF20/355       SPONZA ESPINOZA  LUI00000000060000000000000000000000000000000000000000000000002020013120200219126910500700026CERT ESTUDIOS SJL EN  *
T081777997014  00929CERT ESTUDIO-COL              081777997014  000000000006000                                                                                                    *
T081777997014  00963CERT ESTUDIOS SJL             081777997014  000000000024000                                                                                                    *
T081777997014  00999CERT ESTUDIOS-CAR             081777997014  000000000006000                                                                                                    *
H081777997014  010000000100000000000300000000000000020200219                                                                                                                       *
D081777997014  01077871044       FF20/548       SULCA PEREZ PALMA  D00000000030000000000000000000000000000000000000000000000002020022820200219120260500700032CCIA NO ADEUDO COL F  *
T081777997014  01028CCIA NO ADEUDO COL            081777997014  000000000003000                                                                                                    *
