H081777997014  001000003900000000131250000000000000020200924                                                                                                                       *
D081777997014  00161966559       2017/78265182  PAZ MONTALVO  JOAQUI00000000350000000000000000000000000000000000000000000000002020072020200924120590500700049PENSION ABRIL 2020 C  *
D081777997014  00161966559       2017/78268558  PAZ MONTALVO  JOAQUI00000000350000000000000000000000000000000000000000000000002020073120200924120590500700049PENSION JULIO 2020 C  *
D081777997014  00161184123       2017/178303    PEREZ CACERES  CESAR00000000315000000000000000000000000000000000000000000000002020083120200924121490500700001PENSION AGOSTO 2020   *
D081777997014  00161184123       2017/179208    PEREZ CACERES  CESAR00000000315000000000000000000000000000000000000000000000002020093020200924121490500700001PENSION SEPTIEMBRE 2  *
D081777997014  00175039353       2017/177986    PEREZ CACERES  EDUAR00000000350000000000000000000000000000000000000000000000002020083120200924121490500700002PENSION AGOSTO 2020   *
D081777997014  00175039353       2017/178876    PEREZ CACERES  EDUAR00000000350000000000000000000000000000000000000000000000002020093020200924121490500700002PENSION SEPTIEMBRE 2  *
D081777997014  00178524996       2017/179094    ROBLES CHOQUE  ALESS00000000350000000000000000000000000000000000000000000000002020093020200924122470500700043PENSION SEPTIEMBRE 2  *
D081777997014  00174330377       2017/78270681  ALVINO VILCHEZ  CAMI00000000350000000000000000000000000000000000000000000000002020093020200924122540500700043PENSION SEPTIEMBRE 2  *
D081777997014  00176852831       2017/174558    DIAZ ARATA  SULEYKA 00000000350000000000000000000000000000000000000000000000002020072020200924126910500700015PENSION ABRIL 2020 S  *
D081777997014  00176852831       2017/177392    DIAZ ARATA  SULEYKA 00000000350000000000000000000000000000000000000000000000002020073120200924126910500700016PENSION JULIO 2020 S  *
D081777997014  00170916563       2017/177415    BENAVIDES PACHECO  J00000000315000000000000000000000000000000000000000000000002020073120200924126910500700020PENSION JULIO 2020 S  *
D081777997014  00170916563       2017/178330    BENAVIDES PACHECO  J00000000315000000000000000000000000000000000000000000000002020083120200924126910500700020PENSION AGOSTO 2020   *
D081777997014  00170916563       2017/179235    BENAVIDES PACHECO  J00000000315000000000000000000000000000000000000000000000002020093020200924126910500700020PENSION SEPTIEMBRE 2  *
D081777997014  00170916564       2017/177583    BENAVIDES PACHECO  E00000000350000000000000000000000000000000000000000000000002020073120200924126910500700021PENSION JULIO 2020 S  *
D081777997014  00170916564       2017/178499    BENAVIDES PACHECO  E00000000350000000000000000000000000000000000000000000000002020083120200924126910500700021PENSION AGOSTO 2020   *
D081777997014  00170916564       2017/179402    BENAVIDES PACHECO  E00000000350000000000000000000000000000000000000000000000002020093020200924126910500700021PENSION SEPTIEMBRE 2  *
D081777997014  00160429162       2017/78271092  PALOMINO RONA  NAOMI00000000315000000000000000000000000000000000000000000000002020103120200924227844651000198PENSION OCTUBRE 2020  *
D081777997014  00162577065       2017/78271618  PALOMINO RONA  DANUS00000000350000000000000000000000000000000000000000000000002020103120200924227844651000199PENSION OCTUBRE 2020  *
D081777997014  00160429162       2017/78272608  PALOMINO RONA  NAOMI00000000315000000000000000000000000000000000000000000000002020113020200924227844651000207PENSION NOVIEMBRE 20  *
D081777997014  00162577065       2017/78273117  PALOMINO RONA  DANUS00000000350000000000000000000000000000000000000000000000002020113020200924227844651000208PENSION NOVIEMBRE 20  *
D081777997014  00160429162       2017/78273543  PALOMINO RONA  NAOMI00000000315000000000000000000000000000000000000000000000002020123020200924227844651000211PENSION DICIEMBRE 20  *
D081777997014  00162577065       2017/78274065  PALOMINO RONA  DANUS00000000350000000000000000000000000000000000000000000000002020123020200924227844651000212PENSION DICIEMBRE 20  *
D081777997014  00176835032       2017/179183    SEGURA MUNAYLLA  NAT00000000350000000000000000000000000000000000000000000000002020093020200924227844651001203PENSION SEPTIEMBRE 2  *
D081777997014  00178248554       2017/177637    ALVARADO ROJAS  SAND00000000350000000000000000000000000000000000000000000000002020083120200924227844651001530PENSION AGOSTO 2020   *
D081777997014  00177996771       2017/173999    HUAMAN PAULLO  DANIE00000000350000000000000000000000000000000000000000000000002020072020200924227844651016258PENSION ABRIL 2020 S  *
D081777997014  00177996771       2017/176820    HUAMAN PAULLO  DANIE00000000350000000000000000000000000000000000000000000000002020073120200924227844651016260PENSION JULIO 2020 S  *
D081777997014  00172799310       2017/80027275  ARCONDO CARRERA  ISI00000000245000000000000000000000000000000000000000000000002020093020200924227844651017981PENSION SEPTIEMBRE 2  *
D081777997014  00161395728       2017/177884    CASTILLO MAMANI  DAY00000000315000000000000000000000000000000000000000000000002020083120200924227844651019307PENSION AGOSTO 2020   *
D081777997014  00178039718       2017/177768    CASTILLO MAMANI  ALE00000000350000000000000000000000000000000000000000000000002020083120200924227844651019412PENSION AGOSTO 2020   *
D081777997014  00174338135       2017/179728    BENDEZU NAPURI  LYNN00000000315000000000000000000000000000000000000000000000002020103120200924227844651019790PENSION OCTUBRE 2020  *
D081777997014  00174338135       2017/180581    BENDEZU NAPURI  LYNN00000000315000000000000000000000000000000000000000000000002020113020200924227844651019791PENSION NOVIEMBRE 20  *
D081777997014  00174338135       2017/181501    BENDEZU NAPURI  LYNN00000000315000000000000000000000000000000000000000000000002020123020200924227844651019792PENSION DICIEMBRE 20  *
D081777997014  00177888483       2017/176878    CALDERON ADRIANZEN  00000000350000000000000000000000000000000000000000000000002020073120200924227844651019823PENSION JULIO 2020 S  *
D081777997014  00179858669       2017/179984    BENDEZU NAPURI  ALEJ00000000350000000000000000000000000000000000000000000000002020103120200924227844651023172PENSION OCTUBRE 2020  *
D081777997014  00179858669       2017/180879    BENDEZU NAPURI  ALEJ00000000350000000000000000000000000000000000000000000000002020113020200924227844651023173PENSION NOVIEMBRE 20  *
D081777997014  00179858669       2017/181717    BENDEZU NAPURI  ALEJ00000000350000000000000000000000000000000000000000000000002020123020200924227844651023174PENSION DICIEMBRE 20  *
D081777997014  00178161037       2017/78270620  SOPLOPUCO ENCINAS  K00000000350000000000000000000000000000000000000000000000002020093020200924227844651024930PENSION SEPTIEMBRE 2  *
D081777997014  00161374218       2017/179430    LEON BASURTO  RODRIG00000000350000000000000000000000000000000000000000000000002020093020200924227844651025219PENSION SEPTIEMBRE 2  *
D081777997014  00179474375       2017/78270105  GAMBOA SAAVEDRA  NIC00000000350000000000000000000000000000000000000000000000002020093020200924227844671000229PENSION SEPTIEMBRE 2  *
T081777997014  00101PENSION                       081777997014  000000000374500                                                                                                    *
T081777997014  00102PENSION SAN JUAN              081777997014  000000000913500                                                                                                    *
T081777997014  00103PENSION CARABAYLLO            081777997014  000000000024500                                                                                                    *
H081777997014  006000000100000000000200000000000000020200924                                                                                                                       *
D081777997014  00671407987       FF20/993       TALAVERA VIZCARRA  C00000000020000000000000000000000000000000000000000000000002020093020200924126570500700022CCIA ESTUDIOS SEPTIE  *
T081777997014  00624CCIA ESTUDIOS COL             081777997014  000000000002000                                                                                                    *
