H081777997014  001000001600000000086682000000000000020200222                                                                                                                       *
D081777997014  00179056968       2017/80011201  SANCHEZ LUNA  AARON 00000000550000000000000000000000000000000000000000000024592019043020200222222440500700030PENSION ABR 2019 CAR  *
D081777997014  00179056968       2017/80011549  SANCHEZ LUNA  AARON 00000000550000000000000000000000000000000000000000000022032019053120200222222440500700030PENSION MAY 2019 CAR  *
D081777997014  00179056968       2017/80012118  SANCHEZ LUNA  AARON 00000000550000000000000000000000000000000000000000000019552019063020200222222440500700030PENSION JUN 2019 CAR  *
D081777997014  00179056968       2017/80012510  SANCHEZ LUNA  AARON 00000000550000000000000000000000000000000000000000000017002019073120200222222440500700030PENSION JUL 2019 CAR  *
D081777997014  00179056968       2017/80013181  SANCHEZ LUNA  AARON 00000000550000000000000000000000000000000000000000000014442019083120200222222440500700030PENSION AGO 2019 CAR  *
D081777997014  00179056968       2017/80013447  SANCHEZ LUNA  AARON 00000000550000000000000000000000000000000000000000000011962019093020200222222440500700030PENSION SEP 2019 CAR  *
D081777997014  00179056968       2017/80014018  SANCHEZ LUNA  AARON 00000000550000000000000000000000000000000000000000000009412019103120200222222440500700030PENSION OCT 2019 CAR  *
D081777997014  00179056968       2017/80014506  SANCHEZ LUNA  AARON 00000000550000000000000000000000000000000000000000000006932019113020200222222440500700030PENSION NOV 2019 CAR  *
D081777997014  00179056968       2017/80015047  SANCHEZ LUNA  AARON 00000000550000000000000000000000000000000000000000000005202019122120200222222440500700030PENSION DIC 2019 CAR  *
D081777997014  00177104438       2017/78241514  HERRERA DIAZ  MAKARE00000000560000000000000000000000000000000000000000000007062019113020200222122540500700011PENSION NOV 2019 COL  *
D081777997014  00161934798       2017/154648    CAPCHA NIETO  ANTONE00000000550000000000000000000000000000000000000000000017002019073120200222126860500700002PENSION JUL 2019 SJL  *
D081777997014  00161934798       2017/156027    CAPCHA NIETO  ANTONE00000000550000000000000000000000000000000000000000000014442019083120200222126860500700002PENSION AGO 2019 SJL  *
D081777997014  00161934798       2017/157049    CAPCHA NIETO  ANTONE00000000550000000000000000000000000000000000000000000011962019093020200222126860500700002PENSION SEP 2019 SJL  *
D081777997014  00174868050       2017/158348    ALARCON MERINO  GRAZ00000000378000000000000000000000000000000000000000000006462019103120200222126860500700004PENSION OCT 2019 SJL  *
D081777997014  00174868050       2017/158508    ALARCON MERINO  GRAZ00000000378000000000000000000000000000000000000000000004762019113020200222126860500700004PENSION NOV 2019 SJL  *
D081777997014  00161934798       2017/158036    CAPCHA NIETO  ANTONE00000000550000000000000000000000000000000000000000000009412019103120200222129470500700079PENSION OCT 2019 SJL  *
T081777997014  00101PENSION                       081777997014  000000000056706                                                                                                    *
T081777997014  00102PENSION SAN JUAN              081777997014  000000000302003                                                                                                    *
T081777997014  00103PENSION                       081777997014  000000000508111                                                                                                    *
H081777997014  003000000200000000012400000000000000020200222                                                                                                                       *
D081777997014  00361906583       2017/78244871  ESTEBAN VERAMENDI  A00000000670000000000000000000000000000000000000000000000002020022820200222121770500700007MATRICULA COL         *
D081777997014  00376835032       2017/161986    SEGURA MUNAYLLA  NAT00000000570000000000000000000000000000000000000000000000002020022820200222227844651002770MATRICULA SJL         *
T081777997014  00304MATRICULA                     081777997014  000000000067000                                                                                                    *
T081777997014  00306MATRICULA SJL 2020            081777997014  000000000057000                                                                                                    *
