H081777997014  001000002600000000135485000000000000020200208                                                                                                                       *
D081777997014  00177877349       2017/78231988  VILLANUEVA CERNA  BR00000000560000000000000000000000000000000000000000000026382019033120200208220510500700005PENSION MAR 2019 COL  *
D081777997014  00177877349       2017/78233203  VILLANUEVA CERNA  BR00000000560000000000000000000000000000000000000000000023862019043020200208220510500700005PENSION ABR 2019 COL  *
D081777997014  00177877349       2017/78233323  VILLANUEVA CERNA  BR00000000560000000000000000000000000000000000000000000021252019053120200208220510500700005PENSION MAY 2019 COL  *
D081777997014  00177877349       2017/78235311  VILLANUEVA CERNA  BR00000000560000000000000000000000000000000000000000000018732019063020200208220510500700005PENSION JUN 2019 COL  *
D081777997014  00177877349       2017/78236848  VILLANUEVA CERNA  BR00000000560000000000000000000000000000000000000000000016132019073120200208220510500700005PENSION JUL 2019 COL  *
D081777997014  00177877349       2017/78236921  VILLANUEVA CERNA  BR00000000560000000000000000000000000000000000000000000013522019083120200208220510500700005PENSION AGO 2019 COL  *
D081777997014  00177877349       2017/78239278  VILLANUEVA CERNA  BR00000000560000000000000000000000000000000000000000000011002019093020200208220510500700005PENSION SEP 2019 COL  *
D081777997014  00177877349       2017/78239923  VILLANUEVA CERNA  BR00000000560000000000000000000000000000000000000000000008402019103120200208220510500700005PENSION OCT 2019 COL  *
D081777997014  00177877349       2017/78241708  VILLANUEVA CERNA  BR00000000560000000000000000000000000000000000000000000005882019113020200208220510500700005PENSION NOV 2019 COL  *
D081777997014  00177877349       2017/78242923  VILLANUEVA CERNA  BR00000000560000000000000000000000000000000000000000000004122019122120200208220510500700005PENSION DIC 2019 COL  *
D081777997014  00178696404       2017/78238204  TEMOCHE RIOS  DASHA 00000000560000000000000000000000000000000000000000000011002019093020200208120630500700015PENSION SEP 2019 COL  *
D081777997014  00174066750       2017/78241020  RAMIREZ PACHECO  ANA00000000480000000000000000000000000000000000000000000005042019113020200208121770500700001PENSION NOV 2019 COL  *
D081777997014  00171181520       2017/78237684  GARCIA TELLO  EDUARD00000000640000000000000000000000000000000000000000000015462019083120200208122160500700047PENSION AGO 2019 COL  *
D081777997014  00171181520       2017/78238826  GARCIA TELLO  EDUARD00000000640000000000000000000000000000000000000000000012582019093020200208122160500700047PENSION SEP 2019 COL  *
D081777997014  00175150008       2017/78237289  GARCIA TELLO  LEONAR00000000576000000000000000000000000000000000000000000013912019083120200208122160500700048PENSION AGO 2019 COL  *
D081777997014  00175150008       2017/78238374  GARCIA TELLO  LEONAR00000000576000000000000000000000000000000000000000000011322019093020200208122160500700048PENSION SEP 2019 COL  *
D081777997014  00174117621       2017/152416    INGA JIMENEZ  SAMIR 00000000385000000000000000000000000000000000000000000014612019053120200208222470500700009PENSION MAY 2019 SJL  *
D081777997014  00174117621       2017/153446    INGA JIMENEZ  SAMIR 00000000385000000000000000000000000000000000000000000012882019063020200208222470500700009PENSION JUN 2019 SJL  *
D081777997014  00174117621       2017/155286    INGA JIMENEZ  SAMIR 00000000385000000000000000000000000000000000000000000011092019073120200208222470500700009PENSION JUL 2019 SJL  *
D081777997014  00174117621       2017/155534    INGA JIMENEZ  SAMIR 00000000385000000000000000000000000000000000000000000009302019083120200208222470500700009PENSION AGO 2019 SJL  *
D081777997014  00174117621       2017/156577    INGA JIMENEZ  SAMIR 00000000385000000000000000000000000000000000000000000007572019093020200208222470500700009PENSION SEP 2019 SJL  *
D081777997014  00174117621       2017/157453    INGA JIMENEZ  SAMIR 00000000385000000000000000000000000000000000000000000005782019103120200208222470500700009PENSION OCT 2019 SJL  *
D081777997014  00174117621       2017/158703    INGA JIMENEZ  SAMIR 00000000385000000000000000000000000000000000000000000004042019113020200208222470500700009PENSION NOV 2019 SJL  *
D081777997014  00174117621       2017/159668    INGA JIMENEZ  SAMIR 00000000385000000000000000000000000000000000000000000002832019122120200208222470500700009PENSION DIC 2019 SJL  *
D081777997014  00171162336       2017/159067    SOTO CCOICCA  MARIA 00000000550000000000000000000000000000000000000000000005782019113020200208126860500700001PENSION NOV 2019 SJL  *
D081777997014  00171162336       2017/159929    SOTO CCOICCA  MARIA 00000000550000000000000000000000000000000000000000000004042019122120200208126860500700001PENSION DIC 2019 SJL  *
T081777997014  00101PENSION                       081777997014  000000000929058                                                                                                    *
T081777997014  00102PENSION SAN JUAN              081777997014  000000000425792                                                                                                    *
H081777997014  003000000500000000030300000000000000020200208                                                                                                                       *
D081777997014  00378062217       2017/161980    ABANTO OLIVERA  ZOE 00000000570000000000000000000000000000000000000000000000002020022820200208120920500700026MATRICULA SJL         *
D081777997014  00373257018       2017/78244667  GUEVARA SOTO  PIERO 00000000670000000000000000000000000000000000000000000000002020022820200208121320500700003MATRICULA COL         *
D081777997014  00373404481       2017/78244672  LERTORA BENAVIDES  W00000000670000000000000000000000000000000000000000000000002020022820200208122540500700026MATRICULA COL         *
D081777997014  00372796338       2017/161987    VALLEJOS PUMACCAHUA 00000000570000000000000000000000000000000000000000000000002020022820200208126910500700021MATRICULA SJL         *
D081777997014  00371354270       2017/80016323  LEON SILVA  MATIAS A00000000550000000000000000000000000000000000000000000000002020022820200208127020500700013INSCRIPCION CAR       *
T081777997014  00304MATRICULA                     081777997014  000000000134000                                                                                                    *
T081777997014  00306MATRICULA SJL 2020            081777997014  000000000114000                                                                                                    *
T081777997014  00308MATRICULA 2020 CARABAYLLO     081777997014  000000000055000                                                                                                    *
H081777997014  009000000400000000002400000000000000020200208                                                                                                                       *
D081777997014  00975496368       FF20/371       CUEVA CHUMBIRAY  CAM00000000060000000000000000000000000000000000000000000000002020022820200208120210500700048CERT ESTUDIOS CAR FE  *
D081777997014  00972477541       FF20/430       MAGUINA FAJARDO  NAY00000000060000000000000000000000000000000000000000000000002020022820200208122480500700035CERT ESTUDIO COL FEB  *
D081777997014  00978003005       FF19/2388      AVILA JARA  LUCIA BE00000000060000000000000000000000000000000000000000000000002019122120200208222540500700005CERT ESTUDIO COL DIC  *
D081777997014  00976903894       FF20/435       GOMEZ CHOQUEHUANCA  00000000060000000000000000000000000000000000000000000000002020022820200208227844651003245CERT ESTUDIOS SJL FE  *
T081777997014  00925CERT ESTUDIO-COL              081777997014  000000000006000                                                                                                    *
T081777997014  00929CERT ESTUDIO-COL              081777997014  000000000006000                                                                                                    *
T081777997014  00963CERT ESTUDIOS SJL             081777997014  000000000006000                                                                                                    *
T081777997014  00999CERT ESTUDIOS-CAR             081777997014  000000000006000                                                                                                    *
H081777997014  012000000100000000000600000000000000020200208                                                                                                                       *
D081777997014  01270706111       FF20/179       GOMEZ CAMPOS  LUCAS 00000000060000000000000000000000000000000000000000000000002020013120200208122160500700020PRA ACAD COLONIAL EN  *
T081777997014  01230PRA ACAD COLONIAL             081777997014  000000000006000                                                                                                    *
