H081777997014  001000002200000000136027400000000000020200306                                                                                                                       *
D081777997014  00174132550       2017/78232461  VELASCO CHAVEZ  ALEX00000000640000000000000000000000000000000000000000000029862019043020200306122030500700023PENSION ABR 2019 COL  *
D081777997014  00174132550       2017/78233825  VELASCO CHAVEZ  ALEX00000000640000000000000000000000000000000000000000000026882019053120200306122030500700023PENSION MAY 2019 COL  *
D081777997014  00174132550       2017/78234598  VELASCO CHAVEZ  ALEX00000000640000000000000000000000000000000000000000000024002019063020200306122030500700023PENSION JUN 2019 COL  *
D081777997014  00174132550       2017/78236135  VELASCO CHAVEZ  ALEX00000000640000000000000000000000000000000000000000000021022019073120200306122290500700371PENSION JUL 2019 COL  *
D081777997014  00174132550       2017/78237423  VELASCO CHAVEZ  ALEX00000000640000000000000000000000000000000000000000000018052019083120200306122290500700378PENSION AGO 2019 COL  *
D081777997014  00174265832       2017/78239558  ARNAO MALPARTIDA  AD00000000640000000000000000000000000000000000000000000012192019103120200306122410500700017PENSION OCT 2019 COL  *
D081777997014  00174265832       2017/78241354  ARNAO MALPARTIDA  AD00000000640000000000000000000000000000000000000000000009312019113020200306122410500700017PENSION NOV 2019 COL  *
D081777997014  00174265832       2017/78242558  ARNAO MALPARTIDA  AD00000000640000000000000000000000000000000000000000000007302019122120200306122410500700017PENSION DIC 2019 COL  *
D081777997014  00172370141       2017/78231332  ORTEGA ROMERO  LUISA00000000640000000000000000000000000000000000000000000032742019033120200306122540500700071PENSION MAR 2019 COL  *
D081777997014  00172370141       2017/78232546  ORTEGA ROMERO  LUISA00000000640000000000000000000000000000000000000000000029862019043020200306122540500700071PENSION ABR 2019 COL  *
D081777997014  00172370141       2017/78233881  ORTEGA ROMERO  LUISA00000000640000000000000000000000000000000000000000000026882019053120200306122540500700071PENSION MAY 2019 COL  *
D081777997014  00172370141       2017/78234635  ORTEGA ROMERO  LUISA00000000640000000000000000000000000000000000000000000024002019063020200306122540500700071PENSION JUN 2019 COL  *
D081777997014  00172370141       2017/78236204  ORTEGA ROMERO  LUISA00000000640000000000000000000000000000000000000000000021022019073120200306122540500700071PENSION JUL 2019 COL  *
D081777997014  00172370141       2017/78237479  ORTEGA ROMERO  LUISA00000000640000000000000000000000000000000000000000000018052019083120200306122540500700071PENSION AGO 2019 COL  *
D081777997014  00172370141       2017/78238601  ORTEGA ROMERO  LUISA00000000640000000000000000000000000000000000000000000015172019093020200306122540500700071PENSION SEP 2019 COL  *
D081777997014  00172370141       2017/78240481  ORTEGA ROMERO  LUISA00000000640000000000000000000000000000000000000000000012192019103120200306122540500700071PENSION OCT 2019 COL  *
D081777997014  00161844750       2017/160609    DULCE OSTOS  LUHANNA00000000495000000000000000000000000000000000000000000016262019073120200306127420500700030PENSION JUL 2019 SJL  *
D081777997014  00161844750       2017/160610    DULCE OSTOS  LUHANNA00000000495000000000000000000000000000000000000000000013962019083120200306127420500700031PENSION AGO 2019 SJL  *
D081777997014  00161844750       2017/160611    DULCE OSTOS  LUHANNA00000000495000000000000000000000000000000000000000000011732019093020200306127420500700032PENSION SEP 2019 SJL  *
D081777997014  00161844750       2017/160612    DULCE OSTOS  LUHANNA00000000495000000000000000000000000000000000000000000009432019103120200306127420500700033PENSION OCT 2019 SJL  *
D081777997014  00161844750       2017/160613    DULCE OSTOS  LUHANNA00000000495000000000000000000000000000000000000000000007202019113020200306127420500700034PENSION NOV 2019 SJL  *
D081777997014  00161844750       2017/160637    DULCE OSTOS  LUHANNA00000000495000000000000000000000000000000000000000000005642019122120200306127420500700035PENSION DIC 2019 SJL  *
T081777997014  00101PENSION                       081777997014  000000001056852                                                                                                    *
T081777997014  00102PENSION SAN JUAN              081777997014  000000000303422                                                                                                    *
H081777997014  003000000700000000038400000000000000020200306                                                                                                                       *
D081777997014  00379899364       2017/80016622  JUAREZ SEGALES  SANT00000000570000000000000000000000000000000000000000000000002020033120200306120190500700001MATRICULA CAR         *
D081777997014  00379899364       2017/80016623  JUAREZ SEGALES  SANT00000000350000000000000000000000000000000000000000000000002020033120200306120190500700002INSCRIPCION CAR       *
D081777997014  00374524503       2017/80016616  NIVIN BADA  SANTIAGO00000000560000000000000000000000000000000000000000000000002020033120200306120200500700001INSCRIPCION CAR       *
D081777997014  00375877857       2017/78245013  LUNA FERNANDEZ  DAYA00000000670000000000000000000000000000000000000000000000002020033120200306121930500700078MATRICULA COL         *
D081777997014  00374425118       2017/78245170  QUISPE ECHEVARRIA  J00000000670000000000000000000000000000000000000000000000002020033120200306123080500700018MATRICULA COL         *
D081777997014  00374920540       2017/78245189  ESPIRITU ROSALES  YO00000000670000000000000000000000000000000000000000000000002020033120200306124450500700320MATRICULA COL         *
D081777997014  00374920540       2017/78245190  ESPIRITU ROSALES  YO00000000350000000000000000000000000000000000000000000000002020033120200306124450500700320INSCRIPCION COL       *
T081777997014  00304MATRICULA                     081777997014  000000000201000                                                                                                    *
T081777997014  00305DERECHO DE INGRESO COL        081777997014  000000000035000                                                                                                    *
T081777997014  00308MATRICULA 2020 CARABAYLLO     081777997014  000000000113000                                                                                                    *
T081777997014  00309DERECHO DE INGRESO 2020 CARABA081777997014  000000000035000                                                                                                    *
H081777997014  007000000100000000000250000000000000020200306                                                                                                                       *
D081777997014  00773578423       FF19/2449      BARAHONA GUZMAN  AIX00000000025000000000000000000000000000000000000000000000002019033120200306122540500700076EXCELENCIA ACAD COL   *
T081777997014  00723EXCELENCIA ACAD COL           081777997014  000000000002500                                                                                                    *
H081777997014  009000000100000000000600000000000000020200306                                                                                                                       *
D081777997014  00976130691       FF20/735       ESPEJO LOPEZ  MARCO 00000000060000000000000000000000000000000000000000000000002020033120200306120530500700045CERT ESTUDIO COL MAR  *
T081777997014  00929CERT ESTUDIO-COL              081777997014  000000000006000                                                                                                    *
