H081777997014  001000006800000000374284600000000000020191127                                                                                                                       *
D081777997014  00177878980       2017/78241682  VASQUEZ LOPEZ  PIERO00000000560000000000000000000000000000000000000000000000002019113020191127220140500700058PENSION NOV 2019 COL  *
D081777997014  00161267543       2017/78241230  QUISPE MATAMOROS  VA00000000640000000000000000000000000000000000000000000000002019113020191127120140500700074PENSION NOV 2019 COL  *
D081777997014  00161359792       2017/78241367  MORON LOPEZ  KIARA M00000000640000000000000000000000000000000000000000000000002019113020191127120200500700011PENSION NOV 2019 COL  *
D081777997014  00175702578       2017/78240909  HANDABAKA ZELAYA  RE00000000640000000000000000000000000000000000000000000000002019113020191127120590500700096PENSION NOV 2019 COL  *
D081777997014  00172347572       2017/157754    VENTO MONDRAGON  ALE00000000550000000000000000000000000000000000000000000002232019103120191127220740500700024PENSION OCT 2019 SJL  *
D081777997014  00172347572       2017/158969    VENTO MONDRAGON  ALE00000000550000000000000000000000000000000000000000000000002019113020191127220740500700024PENSION NOV 2019 SJL  *
D081777997014  00172331891       2017/80014719  PALOMINO GARAVITO  L00000000550000000000000000000000000000000000000000000000002019113020191127120920500700067PENSION NOV 2019 CAR  *
D081777997014  00177764728       2017/80015643  HUAMANI ANTONIO  LEI00000000550000000000000000000000000000000000000000000009822019073120191127120920500700088PENSION JUL 2019 CAR  *
D081777997014  00177888483       2017/156759    CALDERON ADRIANZEN  00000000550000000000000000000000000000000000000000000004792019093020191127221350500700098PENSION SEP 2019 SJL  *
D081777997014  00177888483       2017/157786    CALDERON ADRIANZEN  00000000550000000000000000000000000000000000000000000002232019103120191127221350500700098PENSION OCT 2019 SJL  *
D081777997014  00175495894       2017/159413    LEGARDA VILCHEZ  SAR00000000540000000000000000000000000000000000000000000000002019113020191127121440500700003PENSION NOV 2019 SJL  *
D081777997014  00177788367       2017/159044    HEREDIA GUERRERO  LI00000000550000000000000000000000000000000000000000000000002019113020191127221700500700222PENSION NOV 2019 SJL  *
D081777997014  00172601127       2017/80014160  MORALES CASTRO  ALEX00000000550000000000000000000000000000000000000000000002232019103120191127121910500700001PENSION OCT 2019 CAR  *
D081777997014  00172601137       2017/80014199  MORALES CASTRO  GABR00000000495000000000000000000000000000000000000000000002002019103120191127121910500700002PENSION OCT 2019 CAR  *
D081777997014  00181474605       2017/158781    REYES PAYAJO  FARID 00000000560000000000000000000000000000000000000000000000002019113020191127122470500700001PENSION NOV 2019 SJL  *
D081777997014  00175650414       2017/159014    QUISPE ROSADO  MASIE00000000550000000000000000000000000000000000000000000000002019113020191127122470500700026PENSION NOV 2019 SJL  *
D081777997014  00172157055       2017/159476    AREVALO RIEGA  CAMIL00000000270000000000000000000000000000000000000000000000002019113020191127122470500700053PENSION NOV 2019 SJL  *
D081777997014  00177559496       2017/159175    AREVALO RIEGA  MIGUE00000000550000000000000000000000000000000000000000000000002019113020191127122470500700054PENSION NOV 2019 SJL  *
D081777997014  00161106541       2017/158598    RODRIGUEZ CIEZA  RIC00000000540000000000000000000000000000000000000000000000002019113020191127122470500700057PENSION NOV 2019 SJL  *
D081777997014  00173177351       2017/78241026  ROSALES ROJAS  VALER00000000640000000000000000000000000000000000000000000000002019113020191127122480500700027PENSION NOV 2019 COL  *
D081777997014  00172767376       2017/78240507  URIBE OLIVA  ROBERTO00000000640000000000000000000000000000000000000000000002592019103120191127122540500700021PENSION OCT 2019 COL  *
D081777997014  00174935652       2017/78234501  FONSECA SALAZAR  MAR00000000640000000000000000000000000000000000000000000014402019063020191127122540500700060PENSION JUN 2019 COL  *
D081777997014  00174935652       2017/78236014  FONSECA SALAZAR  MAR00000000640000000000000000000000000000000000000000000011422019073120191127122540500700060PENSION JUL 2019 COL  *
D081777997014  00178170198       2017/155659    TELLO TOCON  SOFIA V00000000560000000000000000000000000000000000000000000007392019083120191127122640500700072PENSION AGO 2019 SJL  *
D081777997014  00178170198       2017/156421    TELLO TOCON  SOFIA V00000000560000000000000000000000000000000000000000000004872019093020191127122640500700072PENSION SEP 2019 SJL  *
D081777997014  00177579557       2017/158699    SANCHEZ CRISOSTOMO  00000000550000000000000000000000000000000000000000000000002019113020191127122660500700097PENSION NOV 2019 SJL  *
D081777997014  00161362885       2017/159258    SANCHEZ CRISOSTOMO  00000000495000000000000000000000000000000000000000000000002019113020191127122660500700099PENSION NOV 2019 SJL  *
D081777997014  00172932748       2017/158536    ZAPATA CRUZ  NIRIEL 00000000540000000000000000000000000000000000000000000000002019113020191127124280500700065PENSION NOV 2019 SJL  *
D081777997014  00175087399       2017/78240678  CONTRERAS MORI  MATI00000000576000000000000000000000000000000000000000000000002019113020191127224450500700138PENSION NOV 2019 COL  *
D081777997014  00177889807       2017/78241660  CONTRERAS MORI  VALE00000000560000000000000000000000000000000000000000000000002019113020191127224450500700139PENSION NOV 2019 COL  *
D081777997014  00171407987       2017/78240844  TALAVERA VIZCARRA  C00000000640000000000000000000000000000000000000000000000002019113020191127126570500700028PENSION NOV 2019 COL  *
D081777997014  00174022436       2017/158364    LAGUNA GARCIA  CAMIL00000000540000000000000000000000000000000000000000000002192019103120191127126790500700024PENSION OCT 2019 SJL  *
D081777997014  00178268990       2017/158840    DIAZ BARRUETO  GIA  00000000560000000000000000000000000000000000000000000000002019113020191127126860500700002PENSION NOV 2019 SJL  *
D081777997014  00170652668       2017/158470    CERONI GUTIERREZ  JO00000000540000000000000000000000000000000000000000000000002019113020191127126860500700003PENSION NOV 2019 SJL  *
D081777997014  00179331664       2017/158637    SERRANO VASQUEZ  FAB00000000560000000000000000000000000000000000000000000000002019113020191127126910500700010PENSION NOV 2019 SJL  *
D081777997014  00162022421       2017/158694    SERRANO VASQUEZ  NAN00000000495000000000000000000000000000000000000000000000002019113020191127126910500700011PENSION NOV 2019 SJL  *
D081777997014  00173537662       2017/154191    PIZZINO CUBAS  DAPHN00000000540000000000000000000000000000000000000000000012152019063020191127126910500700089PENSION JUN 2019 SJL  *
D081777997014  00172976757       2017/158173    FELIX RODRIGUEZ  KAR00000000540000000000000000000000000000000000000000000002192019103120191127127420500700008PENSION OCT 2019 SJL  *
D081777997014  00172976757       2017/159355    FELIX RODRIGUEZ  KAR00000000540000000000000000000000000000000000000000000000002019113020191127127420500700008PENSION NOV 2019 SJL  *
D081777997014  00160788044       2017/158476    ARIAS TRELLES  ADRIA00000000540000000000000000000000000000000000000000000000002019113020191127127420500700013PENSION NOV 2019 SJL  *
D081777997014  00175300175       2017/158071    REYES LIZA  ANGELINA00000000385000000000000000000000000000000000000000000001562019103120191127227844651003438PENSION OCT 2019 SJL  *
D081777997014  00162048527       2017/156625    ZEVALLOS HIHUALLANCA00000000550000000000000000000000000000000000000000000004792019093020191127227844651004337PENSION SEP 2019 SJL  *
D081777997014  00162048527       2017/157501    ZEVALLOS HIHUALLANCA00000000550000000000000000000000000000000000000000000002232019103120191127227844651004364PENSION OCT 2019 SJL  *
D081777997014  00162048527       2017/158751    ZEVALLOS HIHUALLANCA00000000550000000000000000000000000000000000000000000000002019113020191127227844651004480PENSION NOV 2019 SJL  *
D081777997014  00172726608       2017/80013549  ROJAS PILLACA  DANIE00000000540000000000000000000000000000000000000000000004702019093020191127227844651005659PENSION SEP 2019 CAR  *
D081777997014  00178939280       2017/78240586  YUPANQUI JARAMILLO  00000000560000000000000000000000000000000000000000000000002019113020191127227844651006104PENSION NOV 2019 COL  *
D081777997014  00172744695       2017/78241060  YUPANQUI JARAMILLO  00000000576000000000000000000000000000000000000000000000002019113020191127227844651006106PENSION NOV 2019 COL  *
D081777997014  00178939280       2017/78241934  YUPANQUI JARAMILLO  00000000560000000000000000000000000000000000000000000000002019122120191127227844651006128PENSION DIC 2019 COL  *
D081777997014  00172744695       2017/78242232  YUPANQUI JARAMILLO  00000000576000000000000000000000000000000000000000000000002019122120191127227844651006129PENSION DIC 2019 COL  *
D081777997014  00171726881       2017/158204    CAMACHO ALVAREZ  SAN00000000540000000000000000000000000000000000000000000002192019103120191127227844651006784PENSION OCT 2019 SJL  *
D081777997014  00177741906       2017/159184    VEJARANO VILLARREAL 00000000385000000000000000000000000000000000000000000000002019113020191127227844651008701PENSION NOV 2019 SJL  *
D081777997014  00160938120       2017/78241090  BECERRA SAENZ  JANIC00000000640000000000000000000000000000000000000000000000002019113020191127227844651008893PENSION NOV 2019 COL  *
D081777997014  00178045287       2017/78239254  FLORES DE LA CRUZ  A00000000560000000000000000000000000000000000000000000004872019093020191127227844651009249PENSION SEP 2019 COL  *
D081777997014  00179308399       2017/158841    ZAMORA MAMANI  ABBY 00000000560000000000000000000000000000000000000000000000002019113020191127227844651011716PENSION NOV 2019 SJL  *
D081777997014  00171347859       2017/78240675  TUESTA GUABLOCHE  HE00000000640000000000000000000000000000000000000000000000002019113020191127227844651012673PENSION NOV 2019 COL  *
D081777997014  00171711725       2017/80014454  CASTILLO MARTINEZ  J00000000378000000000000000000000000000000000000000000000002019113020191127227844651012778PENSION NOV 2019 CAR  *
D081777997014  00179308399       2017/159795    ZAMORA MAMANI  ABBY 00000000560000000000000000000000000000000000000000000000002019122120191127227844651012846PENSION DIC 2019 SJL  *
D081777997014  00181242465       2017/80014327  TORRES TELLO  HECTOR00000000560000000000000000000000000000000000000000000000002019113020191127227844651013136PENSION NOV 2019 CAR  *
D081777997014  00172773515       2017/80014040  CARLOS REYES  JORDAN00000000378000000000000000000000000000000000000000000001532019103120191127227844651013175PENSION OCT 2019 CAR  *
D081777997014  00161025111       2017/80014438  HERRERA TARAZONA  KA00000000486000000000000000000000000000000000000000000000002019113020191127227844651013507PENSION NOV 2019 CAR  *
D081777997014  00162538868       2017/80014646  HERRERA TARAZONA  AL00000000550000000000000000000000000000000000000000000000002019113020191127227844651013520PENSION NOV 2019 CAR  *
D081777997014  00172587000       2017/78241407  PANTIGOSO RIVERA  MA00000000640000000000000000000000000000000000000000000000002019113020191127227844651013701PENSION NOV 2019 COL  *
D081777997014  00175198779       2017/78241033  PANTIGOSO RIVERA  CA00000000576000000000000000000000000000000000000000000000002019113020191127227844651013702PENSION NOV 2019 COL  *
D081777997014  00177372156       2017/78241526  ARANDA CARHUAS  FIOR00000000560000000000000000000000000000000000000000000000002019113020191127227844671000809PENSION NOV 2019 COL  *
D081777997014  00177372156       2017/78242741  ARANDA CARHUAS  FIOR00000000560000000000000000000000000000000000000000000000002019122120191127227844671000829PENSION DIC 2019 COL  *
D081777997014  00171747052       2017/156346    CARRION FLORES  ADRI00000000486000000000000000000000000000000000000000000006342019083120191127227844671000958PENSION AGO 2019 SJL  *
D081777997014  00171747052       2017/157368    CARRION FLORES  ADRI00000000486000000000000000000000000000000000000000000004162019093020191127227844671000959PENSION SEP 2019 SJL  *
D081777997014  00161293671       2017/78240394  IPARRAGUIRRE BALAREZ00000000640000000000000000000000000000000000000000000002592019103120191127129470500700178PENSION OCT 2019 COL  *
T081777997014  00101PENSION                       081777997014  000000001393987                                                                                                    *
T081777997014  00102PENSION SAN JUAN              081777997014  000000001843131                                                                                                    *
T081777997014  00103PENSION                       081777997014  000000000505728                                                                                                    *
H081777997014  003000000400000000018400000000000000020191127                                                                                                                       *
D081777997014  00379861552       2017/78243636  CUEVA REYNA  CARLOS 00000000570000000000000000000000000000000000000000000000002019113020191127120140500700086MATRICULA COL         *
D081777997014  00379861552       2017/78243637  CUEVA REYNA  CARLOS 00000000350000000000000000000000000000000000000000000000002019113020191127120140500700087INSCRIPCION COL       *
D081777997014  00379861539       2017/78243634  CUEVA REYNA  KATRINA00000000350000000000000000000000000000000000000000000000002019113020191127120140500700088INSCRIPCION COL       *
D081777997014  00379861539       2017/78243635  CUEVA REYNA  KATRINA00000000570000000000000000000000000000000000000000000000002019113020191127120140500700090MATRICULA COL         *
T081777997014  00304MATRICULA                     081777997014  000000000114000                                                                                                    *
T081777997014  00305DERECHO DE INGRESO LIM 2018   081777997014  000000000070000                                                                                                    *
H081777997014  010000000100000000000300000000000000020191127                                                                                                                       *
D081777997014  01078491356       FF19/2269      ARDILES PENA  ADRIAN00000000030000000000000000000000000000000000000000000000002019113020191127120140500700079CCIA NO ADEUDOSJL NO  *
T081777997014  01055CCIA NO ADEUDOSJL             081777997014  000000000003000                                                                                                    *
