H081777997014  001000006700000000364445400000000000020191212                                                                                                                       *
D081777997014  00173592277       2017/78242013  DIOSES OJEDA  ALEJAN00000000640000000000000000000000000000000000000000000000002019122120191212120170500700118PENSION DIC 2019 COL  *
D081777997014  00174136779       2017/78243089  PEREZ TENORIO  LEAND00000000640000000000000000000000000000000000000000000012862019073120191212120410500700047PENSION JUL 2019 COL  *
D081777997014  00174136779       2017/78243090  PEREZ TENORIO  LEAND00000000640000000000000000000000000000000000000000000009892019083120191212120410500700047PENSION AGO 2019 COL  *
D081777997014  00172068515       2017/80014180  GOMERO CARRERA  THIA00000000550000000000000000000000000000000000000000000003472019103120191212220510500700061PENSION OCT 2019 CAR  *
D081777997014  00172016948       2017/80013963  GOMERO CARRERA  VICT00000000486000000000000000000000000000000000000000000003062019103120191212220510500700062PENSION OCT 2019 CAR  *
D081777997014  00174784775       2017/78242620  NUNEZ SANCHEZ  BRAUL00000000640000000000000000000000000000000000000000000000002019122120191212120590500700076PENSION DIC 2019 COL  *
D081777997014  00176396289       2017/154167    BARRAZA PEREZ  CESAR00000000540000000000000000000000000000000000000000000013372019063020191212121280500700002PENSION JUN 2019 SJL  *
D081777997014  00176396289       2017/154832    BARRAZA PEREZ  CESAR00000000540000000000000000000000000000000000000000000010852019073120191212121280500700002PENSION JUL 2019 SJL  *
D081777997014  00176396289       2017/156211    BARRAZA PEREZ  CESAR00000000540000000000000000000000000000000000000000000008342019083120191212121280500700002PENSION AGO 2019 SJL  *
D081777997014  00176396289       2017/157233    BARRAZA PEREZ  CESAR00000000540000000000000000000000000000000000000000000005912019093020191212121280500700002PENSION SEP 2019 SJL  *
D081777997014  00174012401       2017/78241581  VELASQUEZ MAYTA  CAM00000000640000000000000000000000000000000000000000000001152019113020191212121770500700041PENSION NOV 2019 COL  *
D081777997014  00174012401       2017/78242799  VELASQUEZ MAYTA  CAM00000000640000000000000000000000000000000000000000000000002019122120191212121770500700042PENSION DIC 2019 COL  *
D081777997014  00174130194       2017/78240925  VELASQUEZ MAYTA  JAZ00000000576000000000000000000000000000000000000000000001042019113020191212121770500700045PENSION NOV 2019 COL  *
D081777997014  00174130194       2017/78242034  VELASQUEZ MAYTA  JAZ00000000576000000000000000000000000000000000000000000000002019122120191212121770500700046PENSION DIC 2019 COL  *
D081777997014  00176101365       2017/80015189  HUARANGA HERNANDEZ  00000000550000000000000000000000000000000000000000000000002019122120191212121910500700005PENSION DIC 2019 CAR  *
D081777997014  00162009686       2017/78241410  GARRIDO GALVEZ  DOME00000000640000000000000000000000000000000000000000000001152019113020191212122040500700025PENSION NOV 2019 COL  *
D081777997014  00160780485       2017/158499    MOROCHO ZAVALA  FABI00000000540000000000000000000000000000000000000000000000972019113020191212122190500700068PENSION NOV 2019 SJL  *
D081777997014  00160780485       2017/160383    MOROCHO ZAVALA  FABI00000000540000000000000000000000000000000000000000000000002019122120191212122190500700068PENSION DIC 2019 SJL  *
D081777997014  00170857264       2017/78238667  VALDIVIESO FERNANDEZ00000000640000000000000000000000000000000000000000000007012019093020191212122240500700044PENSION SEP 2019 COL  *
D081777997014  00170857264       2017/78239312  VALDIVIESO FERNANDEZ00000000640000000000000000000000000000000000000000000004032019103120191212122240500700044PENSION OCT 2019 COL  *
D081777997014  00176267270       2017/156107    PENA ALVAREZ  HUGO P00000000540000000000000000000000000000000000000000000008342019083120191212122390500700069PENSION AGO 2019 SJL  *
D081777997014  00176267270       2017/157134    PENA ALVAREZ  HUGO P00000000540000000000000000000000000000000000000000000005912019093020191212122390500700069PENSION SEP 2019 SJL  *
D081777997014  00171671128       2017/160109    VASQUEZ ECHEVERRIA  00000000550000000000000000000000000000000000000000000000002019122120191212122470500700057PENSION DIC 2019 SJL  *
D081777997014  00161461495       2017/78242612  MAYHUIRI MIRANDA  GA00000000640000000000000000000000000000000000000000000000002019122120191212122540500700041PENSION DIC 2019 COL  *
D081777997014  00174935652       2017/78240940  FONSECA SALAZAR  MAR00000000640000000000000000000000000000000000000000000001152019113020191212122540500700047PENSION NOV 2019 COL  *
D081777997014  00173158299       2017/78238955  CUENCA ROJAS  HILLAR00000000640000000000000000000000000000000000000000000007012019093020191212122540500700095PENSION SEP 2019 COL  *
D081777997014  00177597759       2017/78241502  CLEMENTE ESCUDERO  A00000000560000000000000000000000000000000000000000000001012019113020191212122540500700117PENSION NOV 2019 COL  *
D081777997014  00178088511       2017/78241718  CHURA MOSTACERO  GIA00000000560000000000000000000000000000000000000000000001012019113020191212123720500700080PENSION NOV 2019 COL  *
D081777997014  00161261229       2017/78242394  GONZALES PENA  HANS 00000000640000000000000000000000000000000000000000000000002019122120191212126610500700058PENSION DIC 2019 COL  *
D081777997014  00170652668       2017/160354    CERONI GUTIERREZ  JO00000000540000000000000000000000000000000000000000000000002019122120191212126860500700005PENSION DIC 2019 SJL  *
D081777997014  00162023885       2017/159905    HUAMAN PACHECO  ANGH00000000550000000000000000000000000000000000000000000000002019122120191212126860500700006PENSION DIC 2019 SJL  *
D081777997014  00173157147       2017/160032    CHAVEZ VALDIVIA  ARI00000000550000000000000000000000000000000000000000000000002019122120191212126910500700028PENSION DIC 2019 SJL  *
D081777997014  00176000004       2017/160297    CHAVEZ VALDIVIA  MAN00000000486000000000000000000000000000000000000000000000002019122120191212126910500700029PENSION DIC 2019 SJL  *
D081777997014  00161291019       2017/159028    VEGA MENDEZ  ANGELO 00000000550000000000000000000000000000000000000000000000992019113020191212126910500700034PENSION NOV 2019 SJL  *
D081777997014  00174271031       2017/160602    YANAC HERNANDEZ  JOS00000000495000000000000000000000000000000000000000000003122019103120191212126910500700049PENSION OCT 2019 SJL  *
D081777997014  00174271031       2017/160603    YANAC HERNANDEZ  JOS00000000495000000000000000000000000000000000000000000000892019113020191212126910500700049PENSION NOV 2019 SJL  *
D081777997014  00178389713       2017/158822    QUISPE PRIETO  YAZMI00000000392000000000000000000000000000000000000000000000712019113020191212126910500700059PENSION NOV 2019 SJL  *
D081777997014  00178389713       2017/159759    QUISPE PRIETO  YAZMI00000000392000000000000000000000000000000000000000000000002019122120191212126910500700059PENSION DIC 2019 SJL  *
D081777997014  00177719323       2017/159073    QUISPE PRIETO  ADRIA00000000385000000000000000000000000000000000000000000000692019113020191212126910500700060PENSION NOV 2019 SJL  *
D081777997014  00177719323       2017/159935    QUISPE PRIETO  ADRIA00000000385000000000000000000000000000000000000000000000002019122120191212126910500700060PENSION DIC 2019 SJL  *
D081777997014  00170712844       2017/158953    CASTANEDA SALAZAR  J00000000385000000000000000000000000000000000000000000000692019113020191212227844651000161PENSION NOV 2019 SJL  *
D081777997014  00170712844       2017/159744    CASTANEDA SALAZAR  J00000000385000000000000000000000000000000000000000000000002019122120191212227844651000163PENSION DIC 2019 SJL  *
D081777997014  00172346657       2017/80015075  PARRA COLLANTES  EMI00000000550000000000000000000000000000000000000000000000002019122120191212227844651001042PENSION DIC 2019 CAR  *
D081777997014  00175857792       2017/158502    RITUAY CUELLAR  TILS00000000540000000000000000000000000000000000000000000000972019113020191212227844651001467PENSION NOV 2019 SJL  *
D081777997014  00175857792       2017/160386    RITUAY CUELLAR  TILS00000000540000000000000000000000000000000000000000000000002019122120191212227844651001468PENSION DIC 2019 SJL  *
D081777997014  00177408318       2017/78241511  MOYA TIPPE  MATEO AU00000000560000000000000000000000000000000000000000000001012019113020191212227844651002080PENSION NOV 2019 COL  *
D081777997014  00177408318       2017/78242726  MOYA TIPPE  MATEO AU00000000560000000000000000000000000000000000000000000000002019122120191212227844651002096PENSION DIC 2019 COL  *
D081777997014  00177726533       2017/78242927  PEREZ MURGA  ANGELA 00000000560000000000000000000000000000000000000000000000002019122120191212227844651004435PENSION DIC 2019 COL  *
D081777997014  00170937305       FF19/1501      ANDONAIRE BRANDAN  A00000000640000000000000000000000000000000000000000000000002019122120191212227844651004798PENSION DIC 2019 COL  *
D081777997014  00177864009       2017/78242928  ANDONAIRE BRANDAN  B00000000560000000000000000000000000000000000000000000000002019122120191212227844651004799PENSION DIC 2019 COL  *
D081777997014  00170727435       2017/80013947  ALEJOS FELIX  SAILE 00000000378000000000000000000000000000000000000000000002382019103120191212227844651011088PENSION OCT 2019 CAR  *
D081777997014  00170727435       2017/80014449  ALEJOS FELIX  SAILE 00000000378000000000000000000000000000000000000000000000682019113020191212227844651011089PENSION NOV 2019 CAR  *
D081777997014  00173051065       2017/160724    BARTOLO ACOSTA  LEON00000000378000000000000000000000000000000000000000000000682019113020191212227844651012341PENSION NOV 2019 SJL  *
D081777997014  00176100393       2017/158649    BARTOLO ACOSTA  NICO00000000385000000000000000000000000000000000000000000000692019113020191212227844651012351PENSION NOV 2019 SJL  *
D081777997014  00171711725       2017/80014995  CASTILLO MARTINEZ  J00000000378000000000000000000000000000000000000000000000002019122120191212227844651013911PENSION DIC 2019 CAR  *
D081777997014  00178411445       2017/80014309  CORTEZ BALTODANO  DI00000000504000000000000000000000000000000000000000000000912019113020191212227844651013927PENSION NOV 2019 CAR  *
D081777997014  00173165218       2017/80014651  CORTEZ BALTODANO  MA00000000495000000000000000000000000000000000000000000000892019113020191212227844651013928PENSION NOV 2019 CAR  *
D081777997014  00170732378       2017/80014601  CORTEZ BALTODANO  GA00000000495000000000000000000000000000000000000000000000892019113020191212227844651013930PENSION NOV 2019 CAR  *
D081777997014  00179319593       2017/78241971  RODRIGUEZ ORE  SKEYL00000000560000000000000000000000000000000000000000000000002019122120191212227844651014510PENSION DIC 2019 COL  *
D081777997014  00160755822       2017/78238128  TELLO EGOAVIL  BRUNO00000000640000000000000000000000000000000000000000000006912019093020191212227844671000555PENSION SEP 2019 COL  *
D081777997014  00160755822       2017/78240093  TELLO EGOAVIL  BRUNO00000000640000000000000000000000000000000000000000000003942019103120191212227844671000556PENSION OCT 2019 COL  *
D081777997014  00160755822       2017/78240647  TELLO EGOAVIL  BRUNO00000000640000000000000000000000000000000000000000000001062019113020191212227844671000557PENSION NOV 2019 COL  *
D081777997014  00160755822       2017/78241743  TELLO EGOAVIL  BRUNO00000000640000000000000000000000000000000000000000000000002019122120191212227844671000558PENSION DIC 2019 COL  *
D081777997014  00171747052       2017/158390    CARRION FLORES  ADRI00000000486000000000000000000000000000000000000000000002992019103120191212227844671000644PENSION OCT 2019 SJL  *
D081777997014  00177763184       2017/78242865  SANCHEZ TAPIA  JUAN 00000000560000000000000000000000000000000000000000000000002019122120191212227844671000735PENSION DIC 2019 COL  *
D081777997014  00177726533       2017/78241712  PEREZ MURGA  ANGELA 00000000560000000000000000000000000000000000000000000000922019113020191212227844671000783PENSION NOV 2019 COL  *
D081777997014  00174268447       2017/78242564  BALDEON TERRONES  IY00000000640000000000000000000000000000000000000000000000002019122120191212228600500700012PENSION DIC 2019 COL  *
T081777997014  00101PENSION                       081777997014  000000001841315                                                                                                    *
T081777997014  00102PENSION SAN JUAN              081777997014  000000001325511                                                                                                    *
T081777997014  00103PENSION                       081777997014  000000000477628                                                                                                    *
H081777997014  003000002000000000100265000000000000020191212                                                                                                                       *
D081777997014  00377840425       2017/78243736  VERGARAY VEINTIMILLA00000000493000000000000000000000000000000000000000000000002019122120191212120250500700026MATRICULA COL         *
D081777997014  00376056105       2017/78243744  ALZAMORA GUPIOC  KEL00000000569500000000000000000000000000000000000000000000002019122120191212122160500700210MATRICULA COL         *
D081777997014  00378596843       2017/80015966  ANASTACIO CAMANA  LU00000000350000000000000000000000000000000000000000000000002019113020191212122190500700101INSCRIPCION CAR       *
D081777997014  00381593446       2017/161101    SANCHEZ MENDOZA  LUI00000000484500000000000000000000000000000000000000000000002019122120191212122250500700145MATRICULA SJL         *
D081777997014  00361483732       2017/161098    ACUNA ARTEAGA  VALER00000000484500000000000000000000000000000000000000000000002019122120191212122390500700053MATRICULA SJL         *
D081777997014  00376816798       2017/78243737  MATOS QUISPE  CASSAN00000000569500000000000000000000000000000000000000000000002019122120191212122480500700008MATRICULA COL         *
D081777997014  00373007104       2017/80015999  RAMIREZ RUBIO  DIEGO00000000467500000000000000000000000000000000000000000000002019122120191212222480500700113MATRICULA CAR         *
D081777997014  00375297655       2017/78243751  CORBACHO ALVITES  CY00000000569500000000000000000000000000000000000000000000002019122120191212122540500700070MATRICULA COL         *
D081777997014  00377878980       2017/78243746  VASQUEZ LOPEZ  PIERO00000000493000000000000000000000000000000000000000000000002019122120191212122540500700099MATRICULA COL         *
D081777997014  00361106026       2017/78243757  CASTILLO PINTADO  MA00000000569500000000000000000000000000000000000000000000002019122120191212122540500700105MATRICULA COL         *
D081777997014  00372629256       2017/78243756  CASTILLO PINTADO  VA00000000569500000000000000000000000000000000000000000000002019122120191212122540500700106MATRICULA COL         *
D081777997014  00360946795       2017/78243733  HIDALGO SANCHEZ  REN00000000569500000000000000000000000000000000000000000000002019122120191212222540500700115MATRICULA COL         *
D081777997014  00361980830       2017/161100    AMAYA BAUTISTA  SOFI00000000484500000000000000000000000000000000000000000000002019122120191212123910500700074MATRICULA SJL         *
D081777997014  00372817092       2017/161094    BENEL VILCA  DOMINIC00000000484500000000000000000000000000000000000000000000002019122120191212126910500700004MATRICULA SJL         *
D081777997014  00378520613       2017/161093    WANG ANTARA  EVAN KE00000000484500000000000000000000000000000000000000000000002019122120191212126910500700043MATRICULA SJL         *
D081777997014  00373877086       2017/161092    BENITES SILVA  ALEJA00000000484500000000000000000000000000000000000000000000002019122120191212126910500700053MATRICULA SJL         *
D081777997014  00378520894       2017/161095    CUCHO PAYAJO  ISAAC 00000000484500000000000000000000000000000000000000000000002019122120191212227844651001128MATRICULA SJL         *
D081777997014  00378241425       2017/78243748  FARFAN PASCUAL  OLEN00000000580000000000000000000000000000000000000000000000002019122120191212227844651009016MATRICULA COL         *
D081777997014  00378241425       2017/78243761  FARFAN PASCUAL  OLEN00000000350000000000000000000000000000000000000000000000002019122120191212227844651009017INSCRIPCION COL       *
D081777997014  00372066595       2017/161097    HINOSTROZA HIDALGO  00000000484500000000000000000000000000000000000000000000002019122120191212129470500700117MATRICULA SJL         *
T081777997014  00304MATRICULA                     081777997014  000000000498300                                                                                                    *
T081777997014  00305DERECHO DE INGRESO LIM 2018   081777997014  000000000035000                                                                                                    *
T081777997014  00306MATRICULA SJL - PREMATRICULA  081777997014  000000000387600                                                                                                    *
T081777997014  00308MATRICULA CAR 2019            081777997014  000000000046750                                                                                                    *
T081777997014  00309DERECHO DE INGRESO 2020 CARABA081777997014  000000000035000                                                                                                    *
H081777997014  009000000300000000001800000000000000020191212                                                                                                                       *
D081777997014  00973783468       FF19/2299      MENENDEZ TIPPE  ZOIL00000000060000000000000000000000000000000000000000000000002019122120191212120200500700062CERT ESTUDIO COL DIC  *
D081777997014  00971428639       FF19/2306      ALVAREZ ALEJANDRO  B00000000060000000000000000000000000000000000000000000000002019122120191212120210500700047CERT ESTUDIOS CAR DI  *
D081777997014  00945014162       FF19/2307      MORALES  LUJAN  ISAB00000000060000000000000000000000000000000000000000000000002019122120191212126250500700014CERT ESTUDIOS SJL DI  *
T081777997014  00925CERT ESTUDIO-COL              081777997014  000000000006000                                                                                                    *
T081777997014  00954CERT ESTUDIOS SJL             081777997014  000000000006000                                                                                                    *
T081777997014  00985CERT ESTUDIOS-CAR             081777997014  000000000006000                                                                                                    *
H081777997014  010000000100000000000300000000000000020191212                                                                                                                       *
D081777997014  01074935652       FF19/2311      FONSECA SALAZAR  MAR00000000030000000000000000000000000000000000000000000000002019122120191212122540500700116CCIA NO ADEUDO COL D  *
T081777997014  01026CCIA NO ADEUDO COL            081777997014  000000000003000                                                                                                    *
