H081777997014  001000005100000000272255400000000000020191224                                                                                                                       *
D081777997014  00174667650       2017/80015176  MENDIETA MONRROY  VA00000000550000000000000000000000000000000000000000000000252019122120191224120140500700022PENSION DIC 2019 CAR  *
D081777997014  00170850140       2017/78238377  PUCHO ZAVALETA  GAVI00000000640000000000000000000000000000000000000000000008162019093020191224120700500700022PENSION SEP 2019 COL  *
D081777997014  00170850140       2017/78240294  PUCHO ZAVALETA  GAVI00000000640000000000000000000000000000000000000000000005182019103120191224120700500700022PENSION OCT 2019 COL  *
D081777997014  00170850140       2017/78240836  PUCHO ZAVALETA  GAVI00000000640000000000000000000000000000000000000000000002302019113020191224120700500700024PENSION NOV 2019 COL  *
D081777997014  00179251434       2017/159553    PAREDES REQUENA  HEC00000000560000000000000000000000000000000000000000000000252019122120191224120790500700029PENSION DIC 2019 SJL  *
D081777997014  00162774760       2017/159824    PAREDES REQUENA  AMY00000000495000000000000000000000000000000000000000000000222019122120191224120790500700030PENSION DIC 2019 SJL  *
D081777997014  00179020929       2017/78241970  HURTADO SICCHA  MART00000000560000000000000000000000000000000000000000000000252019122120191224121350500700009PENSION DIC 2019 COL  *
D081777997014  00177240365       2017/154967    VILCAPUMA GARCIA  AN00000000486000000000000000000000000000000000000000000010642019073120191224121490500700004PENSION JUL 2019 SJL  *
D081777997014  00177240365       2017/156347    VILCAPUMA GARCIA  AN00000000486000000000000000000000000000000000000000000008382019083120191224121490500700004PENSION AGO 2019 SJL  *
D081777997014  00174103697       2017/155314    VILCAPUMA GARCIA  SA00000000550000000000000000000000000000000000000000000012052019073120191224121490500700005PENSION JUL 2019 SJL  *
D081777997014  00174103697       2017/155588    VILCAPUMA GARCIA  SA00000000550000000000000000000000000000000000000000000009492019083120191224121490500700005PENSION AGO 2019 SJL  *
D081777997014  00177931049       2017/159921    MONTOYA BOZA  VALENT00000000550000000000000000000000000000000000000000000000252019122120191224121490500700006PENSION DIC 2019 SJL  *
D081777997014  00170869964       2017/160483    GUILLEN CERNA  RAPHA00000000540000000000000000000000000000000000000000000000242019122120191224222130500700011PENSION DIC 2019 SJL  *
D081777997014  00172708069       2017/78237279  RODRIGUEZ VILLAR  AL00000000576000000000000000000000000000000000000000000009942019083120191224222240500700027PENSION AGO 2019 COL  *
D081777997014  00172708069       2017/78238364  RODRIGUEZ VILLAR  AL00000000576000000000000000000000000000000000000000000007342019093020191224222240500700027PENSION SEP 2019 COL  *
D081777997014  00172708069       2017/78240281  RODRIGUEZ VILLAR  AL00000000576000000000000000000000000000000000000000000004672019103120191224222240500700027PENSION OCT 2019 COL  *
D081777997014  00172708069       2017/78240823  RODRIGUEZ VILLAR  AL00000000576000000000000000000000000000000000000000000002072019113020191224222240500700027PENSION NOV 2019 COL  *
D081777997014  00172708069       2017/78241993  RODRIGUEZ VILLAR  AL00000000576000000000000000000000000000000000000000000000262019122120191224222240500700027PENSION DIC 2019 COL  *
D081777997014  00170594085       2017/78237254  RODRIGUEZ VILLAR  LE00000000640000000000000000000000000000000000000000000011042019083120191224222240500700028PENSION AGO 2019 COL  *
D081777997014  00170594085       2017/78238339  RODRIGUEZ VILLAR  LE00000000640000000000000000000000000000000000000000000008162019093020191224222240500700028PENSION SEP 2019 COL  *
D081777997014  00170594085       2017/78240256  RODRIGUEZ VILLAR  LE00000000640000000000000000000000000000000000000000000005182019103120191224222240500700028PENSION OCT 2019 COL  *
D081777997014  00170594085       2017/78240798  RODRIGUEZ VILLAR  LE00000000640000000000000000000000000000000000000000000002302019113020191224222240500700028PENSION NOV 2019 COL  *
D081777997014  00170594085       2017/78242103  RODRIGUEZ VILLAR  LE00000000640000000000000000000000000000000000000000000000292019122120191224222240500700028PENSION DIC 2019 COL  *
D081777997014  00174163540       2017/159328    BOLANOS COLQUI  CLAU00000000540000000000000000000000000000000000000000000001942019113020191224222390500700031PENSION NOV 2019 SJL  *
D081777997014  00174163540       2017/160206    BOLANOS COLQUI  CLAU00000000540000000000000000000000000000000000000000000000242019122120191224222390500700032PENSION DIC 2019 SJL  *
D081777997014  00177103638       2017/159468    RIVERA VICENTE  ALEX00000000540000000000000000000000000000000000000000000001942019113020191224122470500700056PENSION NOV 2019 SJL  *
D081777997014  00177103638       2017/160330    RIVERA VICENTE  ALEX00000000540000000000000000000000000000000000000000000000242019122120191224122470500700057PENSION DIC 2019 SJL  *
D081777997014  00171177561       2017/78236327  FERNANDEZ HERRERA  C00000000320000000000000000000000000000000000000000000007012019073120191224122540500700020PENSION JUL 2019 COL  *
D081777997014  00171177561       2017/78237615  FERNANDEZ HERRERA  C00000000320000000000000000000000000000000000000000000005522019083120191224122540500700020PENSION AGO 2019 COL  *
D081777997014  00171177561       2017/78238759  FERNANDEZ HERRERA  C00000000320000000000000000000000000000000000000000000004082019093020191224122540500700020PENSION SEP 2019 COL  *
D081777997014  00171177561       2017/78239415  FERNANDEZ HERRERA  C00000000320000000000000000000000000000000000000000000002592019103120191224122540500700020PENSION OCT 2019 COL  *
D081777997014  00171177561       2017/78241187  FERNANDEZ HERRERA  C00000000320000000000000000000000000000000000000000000001152019113020191224122540500700020PENSION NOV 2019 COL  *
D081777997014  00171177561       2017/78242402  FERNANDEZ HERRERA  C00000000320000000000000000000000000000000000000000000000142019122120191224122540500700020PENSION DIC 2019 COL  *
D081777997014  00175243326       2017/78241744  CHAVEZ RUIZ  LUIS AD00000000640000000000000000000000000000000000000000000000292019122120191224123230500700001PENSION DIC 2019 COL  *
D081777997014  00174684123       2017/155720    MAMANI PENA  DANNA L00000000550000000000000000000000000000000000000000000009492019083120191224126910500700003PENSION AGO 2019 SJL  *
D081777997014  00174684123       2017/156753    MAMANI PENA  DANNA L00000000550000000000000000000000000000000000000000000007012019093020191224126910500700003PENSION SEP 2019 SJL  *
D081777997014  00174684123       2017/157780    MAMANI PENA  DANNA L00000000550000000000000000000000000000000000000000000004462019103120191224126910500700003PENSION OCT 2019 SJL  *
D081777997014  00174684123       2017/158995    MAMANI PENA  DANNA L00000000550000000000000000000000000000000000000000000001982019113020191224126910500700003PENSION NOV 2019 SJL  *
D081777997014  00174684123       2017/159810    MAMANI PENA  DANNA L00000000550000000000000000000000000000000000000000000000252019122120191224126910500700003PENSION DIC 2019 SJL  *
D081777997014  00178854250       2017/155161    DE LA TORRE CONDORE 00000000560000000000000000000000000000000000000000000012262019073120191224127420500700023PENSION JUL 2019 SJL  *
D081777997014  00178854250       2017/155655    DE LA TORRE CONDORE 00000000560000000000000000000000000000000000000000000009662019083120191224127420500700023PENSION AGO 2019 SJL  *
D081777997014  00170733059       2017/80014616  AGURTO ROMERO  ROGGE00000000495000000000000000000000000000000000000000000001782019113020191224227844651000517PENSION NOV 2019 CAR  *
D081777997014  00174335266       2017/80014514  AGURTO ROMERO  FERNA00000000495000000000000000000000000000000000000000000001782019113020191224227844651000519PENSION NOV 2019 CAR  *
D081777997014  00177719265       2017/80014674  AGURTO ROMERO  YSABE00000000495000000000000000000000000000000000000000000001782019113020191224227844651000522PENSION NOV 2019 CAR  *
D081777997014  00162641234       2017/78242066  PEREZ ARANA  AGOSTIN00000000640000000000000000000000000000000000000000000000292019122120191224227844651003756PENSION DIC 2019 COL  *
D081777997014  00178913324       2017/159558    PULIDO CHILLCCE  NOA00000000560000000000000000000000000000000000000000000000252019122120191224227844651005615PENSION DIC 2019 SJL  *
D081777997014  00176116054       2017/159606    PULIDO CHILLCCE  ORI00000000495000000000000000000000000000000000000000000000222019122120191224227844651005617PENSION DIC 2019 SJL  *
D081777997014  00161214576       2017/78241255  LLANOS ENCISO  YOSSE00000000448000000000000000000000000000000000000000000001612019113020191224227844651009682PENSION NOV 2019 COL  *
D081777997014  00161214576       2017/78242467  LLANOS ENCISO  YOSSE00000000448000000000000000000000000000000000000000000000202019122120191224227844651009687PENSION DIC 2019 COL  *
D081777997014  00178044717       2017/159962    VILLANUEVA BARRA  JO00000000550000000000000000000000000000000000000000000000252019122120191224129470500700099PENSION DIC 2019 SJL  *
D081777997014  00160574978       2017/159974    VILLANUEVA BARRA  KY00000000495000000000000000000000000000000000000000000000222019122120191224129470500700100PENSION DIC 2019 SJL  *
T081777997014  00101PENSION                       081777997014  000000001274602                                                                                                    *
T081777997014  00102PENSION SAN JUAN              081777997014  000000001243893                                                                                                    *
T081777997014  00103PENSION                       081777997014  000000000204059                                                                                                    *
H081777997014  003000000600000000031060000000000000020191224                                                                                                                       *
D081777997014  00370857264       2017/78244029  VALDIVIESO FERNANDEZ00000000569500000000000000000000000000000000000000000000002019122120191224122240500700011MATRICULA COL         *
D081777997014  00374103050       2017/161369    HUANCA HUAMANI  XIOM00000000484500000000000000000000000000000000000000000000002019122120191224122470500700034MATRICULA SJL         *
D081777997014  00377953014       2017/161405    ARANIBAR SILVA  CAMI00000000484500000000000000000000000000000000000000000000002019122120191224126910500700043MATRICULA SJL         *
D081777997014  00378339215       2017/78244046  SOLIS AVILA  NOAH SI00000000522000000000000000000000000000000000000000000000002019122120191224227844651002825MATRICULA COL         *
D081777997014  00378040090       2017/80016099  POTENCIANO CRUZ  ARA00000000476000000000000000000000000000000000000000000000002019122120191224227844651003150MATRICULA CAR         *
D081777997014  00361894561       2017/78243973  MOYA CALCINA  ANDRE 00000000569500000000000000000000000000000000000000000000002019122120191224227844671000418MATRICULA COL         *
T081777997014  00304MATRICULA                     081777997014  000000000166100                                                                                                    *
T081777997014  00306MATRICULA SJL - PREMATRICULA  081777997014  000000000096900                                                                                                    *
T081777997014  00308MATRICULA CAR 2019            081777997014  000000000047600                                                                                                    *
H081777997014  009000000100000000000600000000000000020191224                                                                                                                       *
D081777997014  00977402667       FF19/2372      ALEJO ZUNIGA  ESTEBA00000000060000000000000000000000000000000000000000000000002019122120191224120140500700026CERT ESTUDIO COL DIC  *
T081777997014  00925CERT ESTUDIO-COL              081777997014  000000000006000                                                                                                    *
H081777997014  010000000100000000000300000000000000020191224                                                                                                                       *
D081777997014  01077402667       FF19/2373      ALEJO ZUNIGA  ESTEBA00000000030000000000000000000000000000000000000000000000002019122120191224120140500700026CCIA NO ADEUDO COL D  *
T081777997014  01026CCIA NO ADEUDO COL            081777997014  000000000003000                                                                                                    *
H081777997014  017000000100000000005000000000000000020191224                                                                                                                       *
D081777997014  01720604408122    FF19/2345      DE ALIMENTOS  A & Z 00000000500000000000000000000000000000000000000000000000002019122120191224126910500700024CONCESIONARIO DIC 20  *
T081777997014  01762ARRENDAMIENTO DE ESPACIO PARA 081777997014  000000000050000                                                                                                    *
