H081777997014  001000007400000000429517900000000000020191230                                                                                                                       *
D081777997014  00177397697       2017/159829    GUZMAN POMALAZA  NIC00000000550000000000000000000000000000000000000000000000742019122120191230120110500700102PENSION DIC 2019 SJL  *
D081777997014  00161264929       2017/78241206  LOBO OLGUIN  DHARMA 00000000640000000000000000000000000000000000000000000002882019113020191230120130500700061PENSION NOV 2019 COL  *
D081777997014  00161264929       2017/78242421  LOBO OLGUIN  DHARMA 00000000640000000000000000000000000000000000000000000000862019122120191230120130500700063PENSION DIC 2019 COL  *
D081777997014  00175269936       2017/80014912  DAMACEN SANCHEZ  AAR00000000540000000000000000000000000000000000000000000000732019122120191230120210500700018PENSION DIC 2019 CAR  *
D081777997014  00177551456       2017/78242664  MOLINA HUAMANI  LUCI00000000560000000000000000000000000000000000000000000000762019122120191230120210500700064PENSION DIC 2019 COL  *
D081777997014  00173405796       2017/80014608  DEL AGUILA GOMEZ  SE00000000550000000000000000000000000000000000000000000002482019113020191230120210500700108PENSION NOV 2019 CAR  *
D081777997014  00174193260       2017/78242544  ALCANTARA PUMA  SAMA00000000640000000000000000000000000000000000000000000000862019122120191230120400500700053PENSION DIC 2019 COL  *
D081777997014  00162009686       2017/78242625  GARRIDO GALVEZ  DOME00000000640000000000000000000000000000000000000000000000862019122120191230120450500700023PENSION DIC 2019 COL  *
D081777997014  00172154232       2017/158474    JACINTO PAJUELO  SEB00000000540000000000000000000000000000000000000000000002432019113020191230120580500700013PENSION NOV 2019 SJL  *
D081777997014  00172154232       2017/160358    JACINTO PAJUELO  SEB00000000540000000000000000000000000000000000000000000000732019122120191230120580500700013PENSION DIC 2019 SJL  *
D081777997014  00174953580       2017/78241138  GUANATICO LUQUE  AND00000000640000000000000000000000000000000000000000000002882019113020191230120630500700085PENSION NOV 2019 COL  *
D081777997014  00174953580       2017/78242325  GUANATICO LUQUE  AND00000000640000000000000000000000000000000000000000000000862019122120191230120630500700085PENSION DIC 2019 COL  *
D081777997014  00175074259       2017/78241136  CESPEDES JAMRYK  ROD00000000640000000000000000000000000000000000000000000002882019113020191230120700500700164PENSION NOV 2019 COL  *
D081777997014  00175074259       2017/78242323  CESPEDES JAMRYK  ROD00000000640000000000000000000000000000000000000000000000862019122120191230120700500700164PENSION DIC 2019 COL  *
D081777997014  00160194553       2017/160825    HIDALGO CASTILLO  CA00000000420000000000000000000000000000000000000000000011532019063020191230122140500700150PENSION JUN 2019 SJL  *
D081777997014  00160194553       2017/154676    HIDALGO CASTILLO  CA00000000540000000000000000000000000000000000000000000012312019073120191230122140500700150PENSION JUL 2019 SJL  *
D081777997014  00160194553       2017/156055    HIDALGO CASTILLO  CA00000000540000000000000000000000000000000000000000000009802019083120191230122140500700150PENSION AGO 2019 SJL  *
D081777997014  00172422978       2017/78240677  FELIPE TINEO  LUCIA 00000000640000000000000000000000000000000000000000000002882019113020191230122160500700198PENSION NOV 2019 COL  *
D081777997014  00174507537       2017/78242541  GAMARRA CESPEDES  KI00000000640000000000000000000000000000000000000000000000862019122120191230122240500700026PENSION DIC 2019 COL  *
D081777997014  00175167619       2017/78235941  OLIVOS PELAEZ  JOAQU00000000640000000000000000000000000000000000000000000014592019073120191230122270500700030PENSION JUL 2019 COL  *
D081777997014  00175167619       2017/78237153  OLIVOS PELAEZ  JOAQU00000000640000000000000000000000000000000000000000000011622019083120191230122270500700030PENSION AGO 2019 COL  *
D081777997014  00175167619       2017/78238432  OLIVOS PELAEZ  JOAQU00000000640000000000000000000000000000000000000000000008742019093020191230122270500700030PENSION SEP 2019 COL  *
D081777997014  00175167619       2017/78240012  OLIVOS PELAEZ  JOAQU00000000640000000000000000000000000000000000000000000005762019103120191230122270500700030PENSION OCT 2019 COL  *
D081777997014  00175167619       2017/78240773  OLIVOS PELAEZ  JOAQU00000000640000000000000000000000000000000000000000000002882019113020191230122270500700030PENSION NOV 2019 COL  *
D081777997014  00175167619       2017/78242078  OLIVOS PELAEZ  JOAQU00000000640000000000000000000000000000000000000000000000862019122120191230122270500700030PENSION DIC 2019 COL  *
D081777997014  00177856095       2017/155266    MORALES BURGA  LUANA00000000550000000000000000000000000000000000000000000012542019073120191230122470500700106PENSION JUL 2019 SJL  *
D081777997014  00177856095       2017/155514    MORALES BURGA  LUANA00000000550000000000000000000000000000000000000000000009982019083120191230122470500700106PENSION AGO 2019 SJL  *
D081777997014  00177856095       2017/156557    MORALES BURGA  LUANA00000000550000000000000000000000000000000000000000000007512019093020191230122470500700106PENSION SEP 2019 SJL  *
D081777997014  00177856095       2017/157711    MORALES BURGA  LUANA00000000550000000000000000000000000000000000000000000004952019103120191230122470500700106PENSION OCT 2019 SJL  *
D081777997014  00177856095       2017/158683    MORALES BURGA  LUANA00000000550000000000000000000000000000000000000000000002482019113020191230122470500700106PENSION NOV 2019 SJL  *
D081777997014  00177856095       2017/159648    MORALES BURGA  LUANA00000000550000000000000000000000000000000000000000000000742019122120191230122470500700106PENSION DIC 2019 SJL  *
D081777997014  00162579717       2017/156879    RODRIGUEZ CHALLCO  J00000000550000000000000000000000000000000000000000000007512019093020191230122470500700132PENSION SEP 2019 SJL  *
D081777997014  00162579717       2017/157884    RODRIGUEZ CHALLCO  J00000000550000000000000000000000000000000000000000000004952019103120191230122470500700132PENSION OCT 2019 SJL  *
D081777997014  00174878073       2017/157344    RODRIGUEZ CHALLCO  A00000000486000000000000000000000000000000000000000000006632019093020191230122470500700134PENSION SEP 2019 SJL  *
D081777997014  00174878073       2017/158366    RODRIGUEZ CHALLCO  A00000000486000000000000000000000000000000000000000000004372019103120191230122470500700134PENSION OCT 2019 SJL  *
D081777997014  00172477541       2017/78240473  MAGUINA FAJARDO  NAY00000000640000000000000000000000000000000000000000000005762019103120191230122480500700263PENSION OCT 2019 COL  *
D081777997014  00172477541       2017/78241043  MAGUINA FAJARDO  NAY00000000640000000000000000000000000000000000000000000002882019113020191230122480500700263PENSION NOV 2019 COL  *
D081777997014  00176491388       2017/78241353  ROJAS MILLAN  PABLO 00000000640000000000000000000000000000000000000000000002882019113020191230122540500700066PENSION NOV 2019 COL  *
D081777997014  00174007968       2017/78239103  RAMIREZ RODRIGUEZ  F00000000640000000000000000000000000000000000000000000008742019093020191230122540500700117PENSION SEP 2019 COL  *
D081777997014  00174007968       2017/78239748  RAMIREZ RODRIGUEZ  F00000000640000000000000000000000000000000000000000000005762019103120191230122540500700117PENSION OCT 2019 COL  *
D081777997014  00170731773       2017/78242388  MAMANI CRISTOBAL  ED00000000640000000000000000000000000000000000000000000000862019122120191230122540500700161PENSION DIC 2019 COL  *
D081777997014  00177401205       2017/78242686  ALOR RUIZ  LUHANA FR00000000392000000000000000000000000000000000000000000000532019122120191230122540500700174PENSION DIC 2019 COL  *
D081777997014  00161383921       2017/78241411  SILVA AEDO  PEDRO MA00000000640000000000000000000000000000000000000000000002882019113020191230122540500700177PENSION NOV 2019 COL  *
D081777997014  00172251978       2017/78241792  LOPEZ MINAYA  SERGIO00000000640000000000000000000000000000000000000000000000862019122120191230124280500700053PENSION DIC 2019 COL  *
D081777997014  00173007650       2017/78242039  AREVALO CHOQUE  LUIS00000000640000000000000000000000000000000000000000000000862019122120191230224450500700026PENSION DIC 2019 COL  *
D081777997014  00170706055       2017/78241266  AYCA REYES  PIERO ED00000000640000000000000000000000000000000000000000000002882019113020191230125350500700117PENSION NOV 2019 COL  *
D081777997014  00174396403       2017/160347    CASTILLO CHUQUIBALA 00000000540000000000000000000000000000000000000000000000732019122120191230126860500700009PENSION DIC 2019 SJL  *
D081777997014  00178268990       2017/159794    DIAZ BARRUETO  GIA  00000000560000000000000000000000000000000000000000000000762019122120191230126860500700024PENSION DIC 2019 SJL  *
D081777997014  00177965898       2017/158665    HERNANDEZ QUISPE  AL00000000550000000000000000000000000000000000000000000002482019113020191230126910500700007PENSION NOV 2019 SJL  *
D081777997014  00170739095       2017/159767    ALDANA FRANCIA  AILE00000000550000000000000000000000000000000000000000000000742019122120191230126910500700036PENSION DIC 2019 SJL  *
D081777997014  00172796338       2017/159450    VALLEJOS PUMACCAHUA 00000000540000000000000000000000000000000000000000000002432019113020191230126910500700048PENSION NOV 2019 SJL  *
D081777997014  00172796338       2017/160312    VALLEJOS PUMACCAHUA 00000000540000000000000000000000000000000000000000000000732019122120191230126910500700048PENSION DIC 2019 SJL  *
D081777997014  00171147598       2017/80014580  PALOMINO DELGADO  AR00000000550000000000000000000000000000000000000000000002482019113020191230127020500700123PENSION NOV 2019 CAR  *
D081777997014  00162024526       2017/157787    MEDINA VILLANUEVA  J00000000550000000000000000000000000000000000000000000004952019103120191230127420500700105PENSION OCT 2019 SJL  *
D081777997014  00162024526       2017/159002    MEDINA VILLANUEVA  J00000000550000000000000000000000000000000000000000000002482019113020191230127420500700105PENSION NOV 2019 SJL  *
D081777997014  00174268240       2017/159716    IZAGUIRRE ESCOBEDO  00000000550000000000000000000000000000000000000000000000742019122120191230227844651004529PENSION DIC 2019 SJL  *
D081777997014  00173170722       2017/78241401  MANCILLA CRUZ  FATIM00000000640000000000000000000000000000000000000000000002882019113020191230227844651005504PENSION NOV 2019 COL  *
D081777997014  00173170722       2017/78242616  MANCILLA CRUZ  FATIM00000000640000000000000000000000000000000000000000000000862019122120191230227844651005539PENSION DIC 2019 COL  *
D081777997014  00173601298       2017/158298    GRANDEZ TORRES  EVEN00000000540000000000000000000000000000000000000000000004862019103120191230227844651008166PENSION OCT 2019 SJL  *
D081777997014  00161176910       2017/159646    RAMIREZ GUTIERREZ  V00000000385000000000000000000000000000000000000000000000522019122120191230227844651009450PENSION DIC 2019 SJL  *
D081777997014  00172699032       2017/160370    RAMIREZ GUTIERREZ  N00000000378000000000000000000000000000000000000000000000512019122120191230227844651009479PENSION DIC 2019 SJL  *
D081777997014  00178525427       2017/158828    ACUACHI DAMIAN  MELO00000000560000000000000000000000000000000000000000000002522019113020191230227844651009810PENSION NOV 2019 SJL  *
D081777997014  00172447862       2017/160189    GRANDEZ VILLALTA  MA00000000540000000000000000000000000000000000000000000000732019122120191230227844651010360PENSION DIC 2019 SJL  *
D081777997014  00172713214       2017/78240821  CHAMORRO ORE  DIEGO 00000000640000000000000000000000000000000000000000000002882019113020191230227844651011659PENSION NOV 2019 COL  *
D081777997014  00172713214       2017/78241991  CHAMORRO ORE  DIEGO 00000000640000000000000000000000000000000000000000000000862019122120191230227844651011688PENSION DIC 2019 COL  *
D081777997014  00178557068       2017/80014356  QUISPE GALINDO  CAMI00000000560000000000000000000000000000000000000000000002522019113020191230227844651016243PENSION NOV 2019 CAR  *
D081777997014  00178557068       2017/80014751  QUISPE GALINDO  CAMI00000000560000000000000000000000000000000000000000000000762019122120191230227844651016244PENSION DIC 2019 CAR  *
D081777997014  00178749316       2017/159594    ALVA GARRIDO  LUANA 00000000560000000000000000000000000000000000000000000000762019122120191230227844651016572PENSION DIC 2019 SJL  *
D081777997014  00174815258       2017/80013955  LEY CALDERON  FABIO 00000000540000000000000000000000000000000000000000000004862019103120191230227844651017509PENSION OCT 2019 CAR  *
D081777997014  00174815258       2017/80014457  LEY CALDERON  FABIO 00000000540000000000000000000000000000000000000000000002432019113020191230227844651017559PENSION NOV 2019 CAR  *
D081777997014  00174815258       2017/80014998  LEY CALDERON  FABIO 00000000540000000000000000000000000000000000000000000000732019122120191230227844651017589PENSION DIC 2019 CAR  *
D081777997014  00178904219       2017/80014872  NICHO GARAY  AMY ALI00000000560000000000000000000000000000000000000000000000762019122120191230227844651020581PENSION DIC 2019 CAR  *
D081777997014  00171731824       2017/78242062  DEL PINO MIRANDA  LE00000000640000000000000000000000000000000000000000000000862019122120191230227844651023303PENSION DIC 2019 COL  *
D081777997014  00171731823       2017/78242054  DEL PINO MIRANDA  DA00000000576000000000000000000000000000000000000000000000782019122120191230227844651023372PENSION DIC 2019 COL  *
T081777997014  00101PENSION                       081777997014  000000002147390                                                                                                    *
T081777997014  00102PENSION SAN JUAN              081777997014  000000001652014                                                                                                    *
T081777997014  00103PENSION                       081777997014  000000000495775                                                                                                    *
H081777997014  003000002800000000146860000000000000020191230                                                                                                                       *
D081777997014  00374267692       2017/161452    VEGA PINEDO  VALERIA00000000513000000000000000000000000000000000000000000000002019122120191230120100500700172MATRICULA SJL         *
D081777997014  00372890551       2017/78244089  MENDOZA TORRES  ERNE00000000603000000000000000000000000000000000000000000000002019122120191230120130500700120MATRICULA COL         *
D081777997014  00377742214       2017/78244088  MENDOZA TORRES  GABR00000000522000000000000000000000000000000000000000000000002019122120191230120130500700121MATRICULA COL         *
D081777997014  00377771164       FF19/2359      ANCCO CASTILLO  ANTO00000000560000000000000000000000000000000000000000000000002019122120191230120140500700074MATRICULA CAR         *
D081777997014  00377771139       FF19/2358      ANCCO CASTILLO  ARIA00000000560000000000000000000000000000000000000000000000002019122120191230120140500700077MATRICULA CAR         *
D081777997014  00374067560       2017/80016093  ZARATE GUTIERREZ  WI00000000467500000000000000000000000000000000000000000000002019122120191230120190500700049MATRICULA CAR         *
D081777997014  00374333495       2017/161440    HUAMBACHANO GARCIA  00000000513000000000000000000000000000000000000000000000002019122120191230120250500700036MATRICULA SJL         *
D081777997014  00371357645       2017/161462    VARILLAS CORALES  AR00000000513000000000000000000000000000000000000000000000002019122120191230120550500700070MATRICULA SJL         *
D081777997014  00375702578       2017/78244094  HANDABAKA ZELAYA  RE00000000603000000000000000000000000000000000000000000000002019122120191230120590500700085MATRICULA COL         *
D081777997014  00361527218       2017/161293    CONTRERAS SANTANA  P00000000570000000000000000000000000000000000000000000000002019122120191230121040500700091MATRICULA SJL         *
D081777997014  00361527218       2017/161294    CONTRERAS SANTANA  P00000000350000000000000000000000000000000000000000000000002019122120191230121040500700091INSCRIPCION SJL       *
D081777997014  00371670149       2017/78244093  SEBASTIANI PORTILLO 00000000603000000000000000000000000000000000000000000000002019122120191230121720500700022MATRICULA COL         *
D081777997014  00373323132       2017/78244092  SEBASTIANI PORTILLO 00000000603000000000000000000000000000000000000000000000002019122120191230121720500700023MATRICULA COL         *
D081777997014  00372177686       2017/78244085  JESUSI QUISPE  ALONS00000000603000000000000000000000000000000000000000000000002019122120191230122210500700073MATRICULA COL         *
D081777997014  00360946611       2017/78244100  LEON ZENKER  TANIA M00000000603000000000000000000000000000000000000000000000002019122120191230122660500700142MATRICULA COL         *
D081777997014  00379730831       2017/161158    CHAVEZ SUAREZ  ANDRE00000000570000000000000000000000000000000000000000000000002019122120191230122660500700144MATRICULA SJL         *
D081777997014  00379730831       2017/161159    CHAVEZ SUAREZ  ANDRE00000000350000000000000000000000000000000000000000000000002019122120191230122660500700144INSCRIPCION SJL       *
D081777997014  00377925323       2017/80016134  MAMANI GAONA  JADE A00000000504000000000000000000000000000000000000000000000002019122120191230126570500700052MATRICULA CAR         *
D081777997014  00378471882       2017/78244105  HERNANDEZ VALLADOLID00000000580000000000000000000000000000000000000000000000002019122120191230126610500700201MATRICULA COL         *
D081777997014  00378471882       2017/78244106  HERNANDEZ VALLADOLID00000000350000000000000000000000000000000000000000000000002019122120191230126610500700201INSCRIPCION COL       *
D081777997014  00370713355       2017/161332    REYNA GAVILAN  LEONA00000000484500000000000000000000000000000000000000000000002019122120191230126860500700012MATRICULA SJL         *
D081777997014  00360980463       2017/161456    ANDRADE AREVALO  JAN00000000513000000000000000000000000000000000000000000000002019122120191230126910500700053MATRICULA SJL         *
D081777997014  00377743992       2017/161457    ANDRADE AREVALO  XIM00000000513000000000000000000000000000000000000000000000002019122120191230126910500700054MATRICULA SJL         *
D081777997014  00377864009       2017/78243997  ANDONAIRE BRANDAN  B00000000493000000000000000000000000000000000000000000000002019122120191230227844651009692MATRICULA COL         *
D081777997014  00376496604       2017/78244103  RUALES PENA  MATEO  00000000603000000000000000000000000000000000000000000000002019122120191230227844651013762MATRICULA COL         *
D081777997014  00374017702       2017/161453    CASTILLO ARIAS  MAUR00000000513000000000000000000000000000000000000000000000002019122120191230227844651023487MATRICULA SJL         *
D081777997014  00373002573       2017/161437    INGA TELLO  RAFAEL R00000000513000000000000000000000000000000000000000000000002019122120191230129470500700196MATRICULA SJL         *
D081777997014  00361136713       2017/161436    INGA TELLO  DIANA  I00000000513000000000000000000000000000000000000000000000002019122120191230129470500700197MATRICULA SJL         *
T081777997014  00304MATRICULA                     081777997014  000000000581600                                                                                                    *
T081777997014  00305DERECHO DE INGRESO LIM 2018   081777997014  000000000035000                                                                                                    *
T081777997014  00306MATRICULA SJL - PREMATRICULA  081777997014  000000000572850                                                                                                    *
T081777997014  00307DERECHO DE INGRESO SJL 2019   081777997014  000000000070000                                                                                                    *
T081777997014  00308MATRICULA CAR 2019            081777997014  000000000209150                                                                                                    *
H081777997014  009000000500000000003000000000000000020191230                                                                                                                       *
D081777997014  00975269936       FF19/2441      DAMACEN SANCHEZ  AAR00000000060000000000000000000000000000000000000000000000002019122120191230120210500700164CERT ESTUDIOS CAR DI  *
D081777997014  00961179311       FF19/2429      LLIUYA AGUIRRE  D AL00000000060000000000000000000000000000000000000000000000002019122120191230120300500700097CERT ESTUDIO COL DIC  *
D081777997014  00975495894       FF19/2418      LEGARDA VILCHEZ  SAR00000000060000000000000000000000000000000000000000000000002019122120191230121440500700003CERT ESTUDIOS SJL DI  *
D081777997014  00972885287       FF19/2413      VELA FLORES  ITALO I00000000060000000000000000000000000000000000000000000000002019122120191230122160500700258CERT ESTUDIO COL DIC  *
D081777997014  00975038004       FF19/2426      URBINA NOLASCO  DANA00000000060000000000000000000000000000000000000000000000002019122120191230222310500700093CERT ESTUDIO COL DIC  *
T081777997014  00925CERT ESTUDIO-COL              081777997014  000000000018000                                                                                                    *
T081777997014  00954CERT ESTUDIOS SJL             081777997014  000000000006000                                                                                                    *
T081777997014  00985CERT ESTUDIOS-CAR             081777997014  000000000006000                                                                                                    *
H081777997014  012000000200000000000900000000000000020191230                                                                                                                       *
D081777997014  01277181119       FF19/2417      VARILLAS CORALES  AL00000000030000000000000000000000000000000000000000000000002019122120191230120550500700071PRA ACAD SJL DIC 201  *
D081777997014  01260946611       FF19/2420      LEON ZENKER  TANIA M00000000060000000000000000000000000000000000000000000000002019122120191230122660500700143PRA ACAD COLONIAL DI  *
T081777997014  01228PRA ACAD COLONIAL             081777997014  000000000006000                                                                                                    *
T081777997014  01257PRA ACAD SJL                  081777997014  000000000003000                                                                                                    *
