H081777997014  001000010800000000604568400000000000020191217                                                                                                                       *
D081777997014  00174103697       2017/152607    VILCAPUMA GARCIA  SA00000000550000000000000000000000000000000000000000000016502019053120191217120100500700029PENSION MAY 2019 SJL  *
D081777997014  00174103697       2017/153645    VILCAPUMA GARCIA  SA00000000550000000000000000000000000000000000000000000014032019063020191217120100500700029PENSION JUN 2019 SJL  *
D081777997014  00175395228       2017/78242149  CHECA SANTIVANEZ  LU00000000640000000000000000000000000000000000000000000000002019122120191217120100500700079PENSION DIC 2019 COL  *
D081777997014  00177964603       2017/159997    SILVERIO QUISPE  STE00000000550000000000000000000000000000000000000000000000002019122120191217120110500700020PENSION DIC 2019 SJL  *
D081777997014  00172404073       2017/78242052  MATTA PEREZ  HERNAN 00000000448000000000000000000000000000000000000000000000002019122120191217220190500700118PENSION DIC 2019 COL  *
D081777997014  00177826834       2017/78241672  MEDINA MATA  MARIA F00000000560000000000000000000000000000000000000000000001432019113020191217120210500700011PENSION NOV 2019 COL  *
D081777997014  00177826834       2017/78242858  MEDINA MATA  MARIA F00000000560000000000000000000000000000000000000000000000002019122120191217120210500700011PENSION DIC 2019 COL  *
D081777997014  00172826278       2017/80014702  DIAZ QUIROZ  LUANA F00000000550000000000000000000000000000000000000000000001402019113020191217220210500700099PENSION NOV 2019 CAR  *
D081777997014  00172347572       2017/159772    VENTO MONDRAGON  ALE00000000550000000000000000000000000000000000000000000000002019122120191217220230500700075PENSION DIC 2019 SJL  *
D081777997014  00175035258       2017/78242518  PEREZ HIDALGO  MARCO00000000640000000000000000000000000000000000000000000000002019122120191217121000500700065PENSION DIC 2019 COL  *
D081777997014  00170710720       2017/157848    GERALDO SOTO  JOSEPH00000000550000000000000000000000000000000000000000000003882019103120191217121440500700001PENSION OCT 2019 SJL  *
D081777997014  00170710720       2017/159025    GERALDO SOTO  JOSEPH00000000550000000000000000000000000000000000000000000001402019113020191217121440500700001PENSION NOV 2019 SJL  *
D081777997014  00177788367       2017/159897    HEREDIA GUERRERO  LI00000000550000000000000000000000000000000000000000000000002019122120191217221700500700054PENSION DIC 2019 SJL  *
D081777997014  00174735683       2017/80014550  QUISPE BUSTAMANTE  M00000000540000000000000000000000000000000000000000000001382019113020191217121770500700057PENSION NOV 2019 CAR  *
D081777997014  00174735683       2017/80014916  QUISPE BUSTAMANTE  M00000000540000000000000000000000000000000000000000000000002019122120191217121770500700057PENSION DIC 2019 CAR  *
D081777997014  00177731354       2017/78241637  FLORES VELASQUEZ  KA00000000560000000000000000000000000000000000000000000001432019113020191217121770500700085PENSION NOV 2019 COL  *
D081777997014  00177731354       2017/78242852  FLORES VELASQUEZ  KA00000000560000000000000000000000000000000000000000000000002019122120191217121770500700085PENSION DIC 2019 COL  *
D081777997014  00172336383       2017/78242627  QUISIYUPANQUI SANCHE00000000640000000000000000000000000000000000000000000000002019122120191217122240500700032PENSION DIC 2019 COL  *
D081777997014  00174507537       2017/78241337  GAMARRA CESPEDES  KI00000000640000000000000000000000000000000000000000000001632019113020191217122240500700101PENSION NOV 2019 COL  *
D081777997014  00173291380       2017/78241587  LOPEZ MERINO  BRENDA00000000640000000000000000000000000000000000000000000001632019113020191217122240500700111PENSION NOV 2019 COL  *
D081777997014  00161033919       2017/78241748  ROJAS HUAMAN  ALEJAN00000000640000000000000000000000000000000000000000000000002019122120191217222240500700124PENSION DIC 2019 COL  *
D081777997014  00177229842       2016/68980     BELLO GARCIA  MARCEL00000000420000000000000000000000000000000000000000000085432016033120191217122390500700014PENSION MAR 2016 SJL  *
D081777997014  00177229842       2016/82895     BELLO GARCIA  MARCEL00000000420000000000000000000000000000000000000000000083542016043020191217122390500700014PENSION ABR 2016 SJL  *
D081777997014  00177229842       2016/54728     BELLO GARCIA  MARCEL00000000420000000000000000000000000000000000000000000081592016053120191217122390500700014PENSION MAY 2016 SJL  *
D081777997014  00177229842       2016/51393     BELLO GARCIA  MARCEL00000000420000000000000000000000000000000000000000000079702016063020191217122390500700014PENSION JUN 2016 SJL  *
D081777997014  00177229842       2016/12333     BELLO GARCIA  MARCEL00000000420000000000000000000000000000000000000000000077742016073120191217122390500700014PENSION JUL 2016 SJL  *
D081777997014  00177229842       2016/63009     BELLO GARCIA  MARCEL00000000420000000000000000000000000000000000000000000075792016083120191217122390500700014PENSION AGO 2016 SJL  *
D081777997014  00177229842       2016/97394     BELLO GARCIA  MARCEL00000000420000000000000000000000000000000000000000000073902016093020191217122390500700014PENSION SEP 2016 SJL  *
D081777997014  00177229842       2016/15064     BELLO GARCIA  MARCEL00000000420000000000000000000000000000000000000000000071952016103120191217122390500700014PENSION OCT 2016 SJL  *
D081777997014  00177229842       2016/18660     BELLO GARCIA  MARCEL00000000420000000000000000000000000000000000000000000070062016113020191217122390500700014PENSION NOV 2016 SJL  *
D081777997014  00177229842       2016/56238     BELLO GARCIA  MARCEL00000000420000000000000000000000000000000000000000000069052016121620191217122390500700014PENSION DIC 2016 SJL  *
D081777997014  00177824035       2017/159923    GARCIA MORA  CAMILA 00000000550000000000000000000000000000000000000000000000002019122120191217222470500700029PENSION DIC 2019 SJL  *
D081777997014  00170628554       2017/160467    GARCIA MORA  MARIANO00000000486000000000000000000000000000000000000000000000002019122120191217222470500700030PENSION DIC 2019 SJL  *
D081777997014  00177191920       2017/158979    GUZMAN VALDERRAMA  K00000000550000000000000000000000000000000000000000000001402019113020191217122470500700054PENSION NOV 2019 SJL  *
D081777997014  00177191920       2017/159793    GUZMAN VALDERRAMA  K00000000550000000000000000000000000000000000000000000000002019122120191217122470500700056PENSION DIC 2019 SJL  *
D081777997014  00179307943       2017/159766    VILLANUEVA HUAMAN  C00000000560000000000000000000000000000000000000000000000002019122120191217122470500700081PENSION DIC 2019 SJL  *
D081777997014  00173177351       2017/78242268  ROSALES ROJAS  VALER00000000640000000000000000000000000000000000000000000000002019122120191217122480500700028PENSION DIC 2019 COL  *
D081777997014  00178625870       2017/78240593  POICON RAMIREZ  PATR00000000560000000000000000000000000000000000000000000001432019113020191217122540500700043PENSION NOV 2019 COL  *
D081777997014  00178625883       2017/78240561  POICON RAMIREZ  TANI00000000504000000000000000000000000000000000000000000001292019113020191217122540500700044PENSION NOV 2019 COL  *
D081777997014  00172068564       2017/78242589  ROBLES JARA  JANELU 00000000640000000000000000000000000000000000000000000000002019122120191217122540500700098PENSION DIC 2019 COL  *
D081777997014  00161842178       2017/78239825  ALVARADO VASQUEZ  AN00000000640000000000000000000000000000000000000000000004512019103120191217122540500700138PENSION OCT 2019 COL  *
D081777997014  00161052039       2017/78240408  ALVARADO VASQUEZ  KE00000000576000000000000000000000000000000000000000000004062019103120191217122540500700140PENSION OCT 2019 COL  *
D081777997014  00177313415       2017/78242725  BARBOZA LEON  AUDREY00000000560000000000000000000000000000000000000000000000002019122120191217222540500700185PENSION DIC 2019 COL  *
D081777997014  00162023746       2017/78242571  BARBOZA LEON  JEAN P00000000576000000000000000000000000000000000000000000000002019122120191217222540500700186PENSION DIC 2019 COL  *
D081777997014  00179580337       2017/78240533  PITOT MALAGA  KATE M00000000560000000000000000000000000000000000000000000001432019113020191217122540500700193PENSION NOV 2019 COL  *
D081777997014  00177656329       2017/78241702  PITOT MALAGA  THIAGO00000000504000000000000000000000000000000000000000000001292019113020191217122540500700194PENSION NOV 2019 COL  *
D081777997014  00179580337       2017/78241868  PITOT MALAGA  KATE M00000000560000000000000000000000000000000000000000000000002019122120191217122540500700195PENSION DIC 2019 COL  *
D081777997014  00177656329       2017/78242917  PITOT MALAGA  THIAGO00000000504000000000000000000000000000000000000000000000002019122120191217122540500700196PENSION DIC 2019 COL  *
D081777997014  00170724298       2017/80014955  HIDALGO ROJAS  CARLO00000000540000000000000000000000000000000000000000000000002019122120191217124450500700079PENSION DIC 2019 CAR  *
D081777997014  00170634875       2017/78242334  AYESTA ROJAS  ANDERS00000000640000000000000000000000000000000000000000000000002019122120191217124450500700167PENSION DIC 2019 COL  *
D081777997014  00161356103       2017/78237803  OVALLE NAVARRETE  MA00000000640000000000000000000000000000000000000000000010372019083120191217126790500700045PENSION AGO 2019 COL  *
D081777997014  00161356103       2017/78238945  OVALLE NAVARRETE  MA00000000640000000000000000000000000000000000000000000007492019093020191217126790500700045PENSION SEP 2019 COL  *
D081777997014  00177104438       2017/78239084  HERRERA DIAZ  MAKARE00000000560000000000000000000000000000000000000000000006552019093020191217126800500700057PENSION SEP 2019 COL  *
D081777997014  00174928462       2017/154061    PALOMINO DE LA CRUZ 00000000540000000000000000000000000000000000000000000013772019063020191217126860500700003PENSION JUN 2019 SJL  *
D081777997014  00173840798       2017/159895    VILLAFUERTE CAMACHO 00000000550000000000000000000000000000000000000000000000002019122120191217126860500700006PENSION DIC 2019 SJL  *
D081777997014  00161213853       2017/159214    TORRES ESPEJO  JUAN 00000000550000000000000000000000000000000000000000000001402019113020191217126860500700007PENSION NOV 2019 SJL  *
D081777997014  00161213853       2017/160079    TORRES ESPEJO  JUAN 00000000550000000000000000000000000000000000000000000000002019122120191217126860500700007PENSION DIC 2019 SJL  *
D081777997014  00172001710       2017/158241    CHIRINOS CHAVEZ  SEB00000000540000000000000000000000000000000000000000000003812019103120191217126860500700012PENSION OCT 2019 SJL  *
D081777997014  00172001710       2017/159445    CHIRINOS CHAVEZ  SEB00000000540000000000000000000000000000000000000000000001382019113020191217126860500700012PENSION NOV 2019 SJL  *
D081777997014  00172001710       2017/160307    CHIRINOS CHAVEZ  SEB00000000540000000000000000000000000000000000000000000000002019122120191217126860500700012PENSION DIC 2019 SJL  *
D081777997014  00178485356       2017/159510    LIZARBE VALVERDE  LI00000000560000000000000000000000000000000000000000000000002019122120191217126860500700014PENSION DIC 2019 SJL  *
D081777997014  00176110733       2017/159832    LIZARBE VALVERDE  AR00000000495000000000000000000000000000000000000000000000002019122120191217126860500700015PENSION DIC 2019 SJL  *
D081777997014  00161496098       2017/158901    VALENCIA MALLMA  MIG00000000495000000000000000000000000000000000000000000001262019113020191217126860500700016PENSION NOV 2019 SJL  *
D081777997014  00172866952       2017/159395    VALENCIA MALLMA  EST00000000486000000000000000000000000000000000000000000001242019113020191217126860500700017PENSION NOV 2019 SJL  *
D081777997014  00176112429       2017/159004    VALENCIA MALLMA  JIM00000000495000000000000000000000000000000000000000000001262019113020191217126860500700018PENSION NOV 2019 SJL  *
D081777997014  00161253420       2017/159765    YACTAYO RUIZ  YADHIR00000000550000000000000000000000000000000000000000000000002019122120191217126910500700013PENSION DIC 2019 SJL  *
D081777997014  00173008621       2017/160443    PARI CAPA  MIRIAM ST00000000540000000000000000000000000000000000000000000000002019122120191217126910500700032PENSION DIC 2019 SJL  *
D081777997014  00174928455       2017/160359    CESAR MAMANI  ALEXAN00000000378000000000000000000000000000000000000000000000002019122120191217126910500700051PENSION DIC 2019 SJL  *
D081777997014  00177000251       2017/159722    FLORES GUAYLUPO  PAO00000000385000000000000000000000000000000000000000000000002019122120191217226910500700061PENSION DIC 2019 SJL  *
D081777997014  00170596427       2017/157349    ROBLES RAMIREZ  GABR00000000540000000000000000000000000000000000000000000006322019093020191217126910500700062PENSION SEP 2019 SJL  *
D081777997014  00170596427       2017/158371    ROBLES RAMIREZ  GABR00000000540000000000000000000000000000000000000000000003812019103120191217126910500700062PENSION OCT 2019 SJL  *
D081777997014  00170596427       2017/158531    ROBLES RAMIREZ  GABR00000000540000000000000000000000000000000000000000000001382019113020191217126910500700062PENSION NOV 2019 SJL  *
D081777997014  00177937228       2017/159636    REBOLLEDO SANTIAGO  00000000550000000000000000000000000000000000000000000000002019122120191217126910500700066PENSION DIC 2019 SJL  *
D081777997014  00177928748       2017/159121    ARCE ORTIZ  GABRIEL 00000000550000000000000000000000000000000000000000000001402019113020191217126910500700088PENSION NOV 2019 SJL  *
D081777997014  00173914754       2017/160103    TUNJAR ALTAMIRANO  G00000000550000000000000000000000000000000000000000000000002019122120191217127420500700021PENSION DIC 2019 SJL  *
D081777997014  00172064632       2017/159820    TORRES FUSTER  JOSEP00000000550000000000000000000000000000000000000000000000002019122120191217127420500700025PENSION DIC 2019 SJL  *
D081777997014  00174793415       2017/80014897  REYES BARBA  ELENA V00000000385000000000000000000000000000000000000000000000002019122120191217227844651000184PENSION DIC 2019 CAR  *
D081777997014  00171656579       2017/78232062  TUCTO RUIZ  DIEGO AL00000000640000000000000000000000000000000000000000000022182019043020191217227844651000709PENSION ABR 2019 COL  *
D081777997014  00171656579       2017/78233610  TUCTO RUIZ  DIEGO AL00000000640000000000000000000000000000000000000000000019202019053120191217227844651000722PENSION MAY 2019 COL  *
D081777997014  00171656579       2017/78235610  TUCTO RUIZ  DIEGO AL00000000640000000000000000000000000000000000000000000016322019063020191217227844651000724PENSION JUN 2019 COL  *
D081777997014  00171656579       2017/78235935  TUCTO RUIZ  DIEGO AL00000000640000000000000000000000000000000000000000000013342019073120191217227844651000731PENSION JUL 2019 COL  *
D081777997014  00161830636       2017/78241593  LEON VELAOCHAGA  GRA00000000640000000000000000000000000000000000000000000001632019113020191217227844651001035PENSION NOV 2019 COL  *
D081777997014  00161830636       2017/78242811  LEON VELAOCHAGA  GRA00000000640000000000000000000000000000000000000000000000002019122120191217227844651001050PENSION DIC 2019 COL  *
D081777997014  00175637521       2017/78242567  SILVA LUDENA  FLAVIA00000000640000000000000000000000000000000000000000000000002019122120191217227844651001254PENSION DIC 2019 COL  *
D081777997014  00177627532       2017/80014577  ASHTU LOPEZ  ADRIAN 00000000550000000000000000000000000000000000000000000001402019113020191217227844651005252PENSION NOV 2019 CAR  *
D081777997014  00161253169       2017/80014494  ASHTU LOPEZ  SEBASTI00000000495000000000000000000000000000000000000000000001262019113020191217227844651005254PENSION NOV 2019 CAR  *
D081777997014  00170740694       2017/80013748  BERROCAL CASTRO  ALE00000000550000000000000000000000000000000000000000000006442019093020191217227844651006857PENSION SEP 2019 CAR  *
D081777997014  00170740694       2017/80014227  BERROCAL CASTRO  ALE00000000550000000000000000000000000000000000000000000003882019103120191217227844651007019PENSION OCT 2019 CAR  *
D081777997014  00181242465       2017/80014853  TORRES TELLO  HECTOR00000000560000000000000000000000000000000000000000000000002019122120191217227844651010573PENSION DIC 2019 CAR  *
D081777997014  00170597584       2017/78240266  SUNCION PRADO  EMILY00000000576000000000000000000000000000000000000000000004062019103120191217227844651010871PENSION OCT 2019 COL  *
D081777997014  00170597584       2017/78240808  SUNCION PRADO  EMILY00000000576000000000000000000000000000000000000000000001472019113020191217227844651010872PENSION NOV 2019 COL  *
D081777997014  00173409198       2017/78239789  SUNCION PRADO  MATHI00000000640000000000000000000000000000000000000000000004512019103120191217227844651010908PENSION OCT 2019 COL  *
D081777997014  00173272732       2017/78240441  NAIZA ALVILDO  FLAVI00000000640000000000000000000000000000000000000000000004512019103120191217227844651010919PENSION OCT 2019 COL  *
D081777997014  00171726881       2017/159386    CAMACHO ALVAREZ  SAN00000000540000000000000000000000000000000000000000000001382019113020191217227844651011114PENSION NOV 2019 SJL  *
D081777997014  00171726881       2017/160248    CAMACHO ALVAREZ  SAN00000000540000000000000000000000000000000000000000000000002019122120191217227844651011121PENSION DIC 2019 SJL  *
D081777997014  00173270416       2017/160394    MENDOZA LLUNCOR  NIC00000000540000000000000000000000000000000000000000000000002019122120191217227844651011418PENSION DIC 2019 SJL  *
D081777997014  00161025111       2017/80014979  HERRERA TARAZONA  KA00000000486000000000000000000000000000000000000000000000002019122120191217227844651013553PENSION DIC 2019 CAR  *
D081777997014  00162538868       2017/80015068  HERRERA TARAZONA  AL00000000550000000000000000000000000000000000000000000000002019122120191217227844651013570PENSION DIC 2019 CAR  *
D081777997014  00174330524       2017/78242542  ROJAS TALAVERA  RAFA00000000576000000000000000000000000000000000000000000000002019122120191217227844651014694PENSION DIC 2019 COL  *
D081777997014  00173092076       2017/78242302  SANCHEZ QUISPE  JOSE00000000640000000000000000000000000000000000000000000000002019122120191217227844651014757PENSION DIC 2019 COL  *
D081777997014  00177996771       2017/157558    HUAMAN PAULLO  DANIE00000000550000000000000000000000000000000000000000000003882019103120191217227844671001349PENSION OCT 2019 SJL  *
D081777997014  00177996771       2017/158930    HUAMAN PAULLO  DANIE00000000550000000000000000000000000000000000000000000001402019113020191217227844671001356PENSION NOV 2019 SJL  *
D081777997014  00173030340       2017/78242204  RAZZETO DAVILA  ANGE00000000640000000000000000000000000000000000000000000000002019122120191217128600500700006PENSION DIC 2019 COL  *
D081777997014  00173246625       2017/78240343  LEON GARCES  CINTHYA00000000576000000000000000000000000000000000000000000004062019103120191217129470500700205PENSION OCT 2019 COL  *
D081777997014  00173246625       2017/78240946  LEON GARCES  CINTHYA00000000576000000000000000000000000000000000000000000001472019113020191217129470500700205PENSION NOV 2019 COL  *
D081777997014  00160854017       2017/78240105  LEON GARCES  DANA SH00000000640000000000000000000000000000000000000000000004512019103120191217129470500700207PENSION OCT 2019 COL  *
D081777997014  00160854017       2017/78240659  LEON GARCES  DANA SH00000000640000000000000000000000000000000000000000000001632019113020191217129470500700207PENSION NOV 2019 COL  *
D081777997014  00172188857       2017/78241796  AQUIJE REYES  JOSE M00000000640000000000000000000000000000000000000000000000002019122120191217129470500700299PENSION DIC 2019 COL  *
T081777997014  00101PENSION                       081777997014  000000002781543                                                                                                    *
T081777997014  00102PENSION SAN JUAN              081777997014  000000002632965                                                                                                    *
T081777997014  00103PENSION                       081777997014  000000000631176                                                                                                    *
H081777997014  003000002600000000129215000000000000020191217                                                                                                                       *
D081777997014  00390130210       2017/160933    SARMIENTO CCALLO  SE00000000350000000000000000000000000000000000000000000000002019103120191217120100500700046INSCRIPCION SJL       *
D081777997014  00361394803       2017/80016013  TUESTA BARCENES  AIS00000000467500000000000000000000000000000000000000000000002019122120191217120190500700148MATRICULA CAR         *
D081777997014  00372884885       2017/80016012  TUESTA BARCENES  ALE00000000467500000000000000000000000000000000000000000000002019122120191217120190500700149MATRICULA CAR         *
D081777997014  00372595136       2017/80016023  CAMPOMANES PAREDES  00000000476000000000000000000000000000000000000000000000002019122120191217220200500700067MATRICULA CAR         *
D081777997014  00374303956       2017/161147    CORONADO QUICANO  NA00000000484500000000000000000000000000000000000000000000002019122120191217220550500700041MATRICULA SJL         *
D081777997014  00374750328       2017/161131    MORENO ARROYO  WILME00000000484500000000000000000000000000000000000000000000002019122120191217120580500700002MATRICULA SJL         *
D081777997014  00360957908       2017/161139    RAMOS SANCHEZ  MARIA00000000484500000000000000000000000000000000000000000000002019122120191217120580500700080MATRICULA SJL         *
D081777997014  00372235711       2017/78243793  GUTIERREZ PORRAS  GR00000000569500000000000000000000000000000000000000000000002019122120191217121000500700282MATRICULA COL         *
D081777997014  00370730395       2017/161173    VILCAPOMA QUISPE  AM00000000484500000000000000000000000000000000000000000000002019122120191217121110500700089MATRICULA SJL         *
D081777997014  00377431310       2017/161174    VILCAPOMA QUISPE  RE00000000484500000000000000000000000000000000000000000000002019122120191217121110500700090MATRICULA SJL         *
D081777997014  00372530041       2017/78243773  ACEVEDO VILLAR  JAIM00000000569500000000000000000000000000000000000000000000002019122120191217121770500700044MATRICULA COL         *
D081777997014  00372141722       2017/161090    INGA CHAVEZ  DIANA L00000000484500000000000000000000000000000000000000000000002019122120191217121830500700019MATRICULA SJL         *
D081777997014  00372141721       2017/161091    INGA CHAVEZ  JOSE AL00000000484500000000000000000000000000000000000000000000002019122120191217121830500700020MATRICULA SJL         *
D081777997014  00360748203       2017/78243758  PIPA ASPILCUETA  LUC00000000569500000000000000000000000000000000000000000000002019122120191217222540500700055MATRICULA COL         *
D081777997014  00370950998       2017/78243759  PIPA ASPILCUETA  VAL00000000569500000000000000000000000000000000000000000000002019122120191217222540500700057MATRICULA COL         *
D081777997014  00375074250       2017/78243810  VALVERDE ALVARADO  P00000000569500000000000000000000000000000000000000000000002019122120191217122540500700170MATRICULA COL         *
D081777997014  00361528679       2017/161133    HUARCA SOTO  DAMARIS00000000484500000000000000000000000000000000000000000000002019122120191217122660500700124MATRICULA SJL         *
D081777997014  00377713373       2017/161134    HUARCA SOTO  KAORI B00000000484500000000000000000000000000000000000000000000002019122120191217122660500700126MATRICULA SJL         *
D081777997014  00362023885       2017/161137    HUAMAN PACHECO  ANGH00000000484500000000000000000000000000000000000000000000002019122120191217126860500700002MATRICULA SJL         *
D081777997014  00361253344       2017/161176    OBISPO CUSACANI  GON00000000484500000000000000000000000000000000000000000000002019122120191217126910500700064MATRICULA SJL         *
D081777997014  00373169205       2017/161161    ORTIZ FERNANDEZ  ARI00000000484500000000000000000000000000000000000000000000002019122120191217127420500700003MATRICULA SJL         *
D081777997014  00375640894       2017/161136    MEDINA MALDONADO  MI00000000484500000000000000000000000000000000000000000000002019122120191217227844651000658MATRICULA SJL         *
D081777997014  00375984698       2017/161135    MEDINA MALDONADO  CA00000000484500000000000000000000000000000000000000000000002019122120191217227844651000660MATRICULA SJL         *
D081777997014  00378183180       2017/80016025  MORALES BOLIVAR  BEN00000000476000000000000000000000000000000000000000000000002019122120191217227844651003735MATRICULA CAR         *
D081777997014  00373288009       2017/78243776  ZAPATA VALENCIA  ROD00000000569500000000000000000000000000000000000000000000002019122120191217227844651003763MATRICULA COL         *
D081777997014  00378962051       2017/80016031  DEXTRE AIRE  SAYURI 00000000484500000000000000000000000000000000000000000000002019122120191217227844651011842MATRICULA CAR         *
T081777997014  00304MATRICULA                     081777997014  000000000341700                                                                                                    *
T081777997014  00306MATRICULA SJL - PREMATRICULA  081777997014  000000000678300                                                                                                    *
T081777997014  00307DERECHO DE INGRESO SJL 2019   081777997014  000000000035000                                                                                                    *
T081777997014  00308MATRICULA CAR 2019            081777997014  000000000237150                                                                                                    *
H081777997014  006000000100000000000200000000000000020191217                                                                                                                       *
D081777997014  00672001710       FF19/1064      CHIRINOS CHAVEZ  SEB00000000020000000000000000000000000000000000000000000000002019033120191217126860500700012CCIA ESTUDIOS SJL MA  *
T081777997014  00651CCIA ESTUDIOS SJL             081777997014  000000000002000                                                                                                    *
H081777997014  007000000100000000000250000000000000020191217                                                                                                                       *
D081777997014  00775596045       FF19/2322      MERCEDES TAIPE  SALL00000000025000000000000000000000000000000000000000000000002019122120191217126610500700060EXCELENCIA ACAD COL   *
T081777997014  00723EXCELENCIA ACAD COL           081777997014  000000000002500                                                                                                    *
H081777997014  009000000300000000001800000000000000020191217                                                                                                                       *
D081777997014  00976211085       FF19/2324      POLLO LIBIA  BRILLYT00000000060000000000000000000000000000000000000000000000002019122120191217122390500700072CERT ESTUDIOS SJL DI  *
D081777997014  00975596045       FF19/2323      MERCEDES TAIPE  SALL00000000060000000000000000000000000000000000000000000000002019122120191217126610500700060CERT ESTUDIO COL DIC  *
D081777997014  00975637521       FF19/2312      SILVA LUDENA  FLAVIA00000000060000000000000000000000000000000000000000000000002019122120191217227844651001291CERT ESTUDIO COL DIC  *
T081777997014  00925CERT ESTUDIO-COL              081777997014  000000000012000                                                                                                    *
T081777997014  00954CERT ESTUDIOS SJL             081777997014  000000000006000                                                                                                    *
H081777997014  010000000100000000000300000000000000020191217                                                                                                                       *
D081777997014  01075637521       FF19/2313      SILVA LUDENA  FLAVIA00000000030000000000000000000000000000000000000000000000002019122120191217227844651001312CCIA NO ADEUDO COL D  *
T081777997014  01026CCIA NO ADEUDO COL            081777997014  000000000003000                                                                                                    *
