H081777997014  001000003800000000217991200000000000020191207                                                                                                                       *
D081777997014  00173213899       2017/78241000  GOMEZ OCHANTE  ADRIA00000000640000000000000000000000000000000000000000000000672019113020191207120140500700015PENSION NOV 2019 COL  *
D081777997014  00170531028       2017/80014543  CALDERON CASTRO  FIO00000000540000000000000000000000000000000000000000000000572019113020191207220240500700019PENSION NOV 2019 CAR  *
D081777997014  00170705100       2017/78234500  FRANCO VASQUEZ  MARY00000000576000000000000000000000000000000000000000000013822019063020191207120590500700031PENSION JUN 2019 COL  *
D081777997014  00171335916       2017/78233982  BLOISA JAICO  ARIANA00000000640000000000000000000000000000000000000000000018242019053120191207120650500700006PENSION MAY 2019 COL  *
D081777997014  00171335916       2017/78234734  BLOISA JAICO  ARIANA00000000640000000000000000000000000000000000000000000015362019063020191207120650500700006PENSION JUN 2019 COL  *
D081777997014  00171425287       2017/154038    BEDOYA OVIEDO  RENZO00000000540000000000000000000000000000000000000000000012962019063020191207120810500700007PENSION JUN 2019 SJL  *
D081777997014  00171425287       2017/154703    BEDOYA OVIEDO  RENZO00000000540000000000000000000000000000000000000000000010452019073120191207120810500700007PENSION JUL 2019 SJL  *
D081777997014  00171425287       2017/156082    BEDOYA OVIEDO  RENZO00000000540000000000000000000000000000000000000000000007942019083120191207120810500700007PENSION AGO 2019 SJL  *
D081777997014  00171425287       2017/157100    BEDOYA OVIEDO  RENZO00000000540000000000000000000000000000000000000000000005512019093020191207120810500700007PENSION SEP 2019 SJL  *
D081777997014  00171425287       2017/158126    BEDOYA OVIEDO  RENZO00000000540000000000000000000000000000000000000000000003002019103120191207120810500700007PENSION OCT 2019 SJL  *
D081777997014  00171425287       2017/159308    BEDOYA OVIEDO  RENZO00000000540000000000000000000000000000000000000000000000572019113020191207120810500700007PENSION NOV 2019 SJL  *
D081777997014  00171425287       2017/160170    BEDOYA OVIEDO  RENZO00000000540000000000000000000000000000000000000000000000002019122120191207120810500700007PENSION DIC 2019 SJL  *
D081777997014  00172629355       2017/160277    RODRIGUEZ PINARES  D00000000486000000000000000000000000000000000000000000000002019122120191207121440500700001PENSION DIC 2019 SJL  *
D081777997014  00173294701       2017/159739    RODRIGUEZ PINARES  D00000000550000000000000000000000000000000000000000000000002019122120191207121440500700002PENSION DIC 2019 SJL  *
D081777997014  00178065537       2017/78236781  SEMINARIO RAMIREZ  S00000000560000000000000000000000000000000000000000000010842019073120191207122160500700061PENSION JUL 2019 COL  *
D081777997014  00178065537       2017/78238069  SEMINARIO RAMIREZ  S00000000560000000000000000000000000000000000000000000008232019083120191207122160500700061PENSION AGO 2019 COL  *
D081777997014  00175720203       2017/78240689  SANCHEZ DIONISIO  TA00000000640000000000000000000000000000000000000000000000672019113020191207122160500700085PENSION NOV 2019 COL  *
D081777997014  00172177686       2017/78237111  JESUSI QUISPE  ALONS00000000640000000000000000000000000000000000000000000009412019083120191207122800500700036PENSION AGO 2019 COL  *
D081777997014  00172177686       2017/78238329  JESUSI QUISPE  ALONS00000000640000000000000000000000000000000000000000000006532019093020191207122800500700036PENSION SEP 2019 COL  *
D081777997014  00172177686       2017/78240197  JESUSI QUISPE  ALONS00000000640000000000000000000000000000000000000000000003552019103120191207122800500700036PENSION OCT 2019 COL  *
D081777997014  00173559576       2017/157971    BAZAN HUAMANI  CAMIL00000000550000000000000000000000000000000000000000000003052019103120191207126910500700006PENSION OCT 2019 SJL  *
D081777997014  00173559576       2017/159153    BAZAN HUAMANI  CAMIL00000000550000000000000000000000000000000000000000000000582019113020191207126910500700006PENSION NOV 2019 SJL  *
D081777997014  00173559576       2017/160074    BAZAN HUAMANI  CAMIL00000000550000000000000000000000000000000000000000000000002019122120191207126910500700006PENSION DIC 2019 SJL  *
D081777997014  00175107787       2017/159409    GUERRERO JIMENEZ  NA00000000540000000000000000000000000000000000000000000000572019113020191207126910500700035PENSION NOV 2019 SJL  *
D081777997014  00174609527       2017/157280    AYALA CUTIPA  GONZAL00000000540000000000000000000000000000000000000000000005512019093020191207127420500700012PENSION SEP 2019 SJL  *
D081777997014  00174609527       2017/158323    AYALA CUTIPA  GONZAL00000000540000000000000000000000000000000000000000000003002019103120191207127420500700012PENSION OCT 2019 SJL  *
D081777997014  00174330524       2017/78239542  ROJAS TALAVERA  RAFA00000000576000000000000000000000000000000000000000000003202019103120191207227844651001044PENSION OCT 2019 COL  *
D081777997014  00179251764       2017/78240055  ROJAS TALAVERA  LEON00000000560000000000000000000000000000000000000000000003112019103120191207227844651001065PENSION OCT 2019 COL  *
D081777997014  00160755822       2017/78237077  TELLO EGOAVIL  BRUNO00000000640000000000000000000000000000000000000000000009412019083120191207227844651001729PENSION AGO 2019 COL  *
D081777997014  00178050922       2017/78241710  MORENO GARCIA  MATT 00000000560000000000000000000000000000000000000000000000592019113020191207227844651001901PENSION NOV 2019 COL  *
D081777997014  00173900818       2017/157228    CARHUAMACA FLORES  S00000000540000000000000000000000000000000000000000000005512019093020191207227844651002184PENSION SEP 2019 SJL  *
D081777997014  00173900818       2017/158228    CARHUAMACA FLORES  S00000000540000000000000000000000000000000000000000000003002019103120191207227844651003787PENSION OCT 2019 SJL  *
D081777997014  00177897047       2017/78241650  SALDANA ORTEGA  ALEH00000000560000000000000000000000000000000000000000000000592019113020191207227844651005585PENSION NOV 2019 COL  *
D081777997014  00177514902       2017/78237868  CARPIO PANIBRA  EDWA00000000560000000000000000000000000000000000000000000008152019083120191207227844671000092PENSION AGO 2019 COL  *
D081777997014  00177514902       2017/78239004  CARPIO PANIBRA  EDWA00000000560000000000000000000000000000000000000000000005632019093020191207227844671000113PENSION SEP 2019 COL  *
D081777997014  00161225870       2017/78238699  CARPIO PANIBRA  GABR00000000576000000000000000000000000000000000000000000005792019093020191207227844671000135PENSION SEP 2019 COL  *
D081777997014  00161225870       2017/78239344  CARPIO PANIBRA  GABR00000000576000000000000000000000000000000000000000000003112019103120191207227844671000150PENSION OCT 2019 COL  *
D081777997014  00179115889       2017/159580    ESCOBAR ROMERO  ALVA00000000560000000000000000000000000000000000000000000000002019122120191207227844671000527PENSION DIC 2019 SJL  *
T081777997014  00101PENSION                       081777997014  000000001147090                                                                                                    *
T081777997014  00102PENSION SAN JUAN              081777997014  000000000978765                                                                                                    *
T081777997014  00103PENSION                       081777997014  000000000054057                                                                                                    *
H081777997014  003000000500000000025095000000000000020191207                                                                                                                       *
D081777997014  00376482895       2017/78243698  CHAVEZ GOMEZ  LUANA 00000000569500000000000000000000000000000000000000000000002019122120191207120130500700001MATRICULA COL         *
D081777997014  00372624333       2017/78243687  SEGURA CHAMOLI  MARI00000000350000000000000000000000000000000000000000000000002019122120191207120340500700068INSCRIPCION COL       *
D081777997014  00372624333       2017/78243688  SEGURA CHAMOLI  MARI00000000670000000000000000000000000000000000000000000000002019122120191207120340500700069MATRICULA COL         *
D081777997014  00379916774       2017/161051    BRAVO COTERA  DIEGO 00000000570000000000000000000000000000000000000000000000002019122120191207126910500700028MATRICULA SJL         *
D081777997014  00379916774       2017/161060    BRAVO COTERA  DIEGO 00000000350000000000000000000000000000000000000000000000002019122120191207126910500700029INSCRIPCION SJL       *
T081777997014  00304MATRICULA                     081777997014  000000000123950                                                                                                    *
T081777997014  00305DERECHO DE INGRESO LIM 2018   081777997014  000000000035000                                                                                                    *
T081777997014  00306MATRICULA SJL - PREMATRICULA  081777997014  000000000057000                                                                                                    *
T081777997014  00307DERECHO DE INGRESO SJL 2019   081777997014  000000000035000                                                                                                    *
