H081777997014  001000006600000000361782200000000000020191130                                                                                                                       *
D081777997014  00178026912       2017/78241658  PAJILLA FIGUEROA  RO00000000560000000000000000000000000000000000000000000000002019113020191130120100500700055PENSION NOV 2019 COL  *
D081777997014  00172869122       2017/159329    TUMIALAN AMAO  CRIST00000000540000000000000000000000000000000000000000000000002019113020191130120110500700089PENSION NOV 2019 SJL  *
D081777997014  00179236516       2017/78240572  ARAUJO CANSECO  YADI00000000560000000000000000000000000000000000000000000000002019113020191130120140500700049PENSION NOV 2019 COL  *
D081777997014  00173592277       2017/78240843  DIOSES OJEDA  ALEJAN00000000640000000000000000000000000000000000000000000000002019113020191130120170500700066PENSION NOV 2019 COL  *
D081777997014  00173405796       2017/80013232  DEL AGUILA GOMEZ  SE00000000550000000000000000000000000000000000000000000007512019083120191130120210500700031PENSION AGO 2019 CAR  *
D081777997014  00173405796       2017/80013709  DEL AGUILA GOMEZ  SE00000000550000000000000000000000000000000000000000000005032019093020191130120210500700032PENSION SEP 2019 CAR  *
D081777997014  00177408163       2017/78241490  TRIVENO SALAZAR  ANG00000000560000000000000000000000000000000000000000000000002019113020191130120340500700076PENSION NOV 2019 COL  *
D081777997014  00181015712       2017/78239924  VELIZ MARTINEZ  CAMI00000000560000000000000000000000000000000000000000000002522019103120191130120350500700044PENSION OCT 2019 COL  *
D081777997014  00172235711       2017/78241083  GUTIERREZ PORRAS  GR00000000640000000000000000000000000000000000000000000000002019113020191130221000500700088PENSION NOV 2019 COL  *
D081777997014  00172235711       2017/78242298  GUTIERREZ PORRAS  GR00000000640000000000000000000000000000000000000000000000002019122120191130221000500700095PENSION DIC 2019 COL  *
D081777997014  00177000251       2017/158931    FLORES GUAYLUPO  PAO00000000385000000000000000000000000000000000000000000000002019113020191130221350500700066PENSION NOV 2019 SJL  *
D081777997014  00173666496       2017/80014764  DONAYRE GARCIA  JEYM00000000486000000000000000000000000000000000000000000000002019122120191130121910500700009PENSION DIC 2019 CAR  *
D081777997014  00161213575       2017/80014728  DONAYRE GARCIA  FABI00000000550000000000000000000000000000000000000000000000002019113020191130121910500700010PENSION NOV 2019 CAR  *
D081777997014  00161213575       2017/80015209  DONAYRE GARCIA  FABI00000000550000000000000000000000000000000000000000000000002019122120191130121910500700010PENSION DIC 2019 CAR  *
D081777997014  00162051195       2017/78239654  ROJAS PEREZ  MATIAS 00000000640000000000000000000000000000000000000000000002882019103120191130122200500700005PENSION OCT 2019 COL  *
D081777997014  00177826485       2017/156518    LAURA ACUNA  GENESIS00000000550000000000000000000000000000000000000000000005032019093020191130122470500700018PENSION SEP 2019 SJL  *
D081777997014  00177826485       2017/157672    LAURA ACUNA  GENESIS00000000550000000000000000000000000000000000000000000002482019103120191130122470500700018PENSION OCT 2019 SJL  *
D081777997014  00170853227       2017/158091    ASTOLA BEJAR  MARICI00000000540000000000000000000000000000000000000000000002432019103120191130122470500700029PENSION OCT 2019 SJL  *
D081777997014  00170853227       2017/159273    ASTOLA BEJAR  MARICI00000000540000000000000000000000000000000000000000000000002019113020191130122470500700029PENSION NOV 2019 SJL  *
D081777997014  00170831871       2017/158282    VILLAFUERTE HUAMAN  00000000540000000000000000000000000000000000000000000002432019103120191130122470500700084PENSION OCT 2019 SJL  *
D081777997014  00162483008       2017/78241280  CABRERA MARIN  LUZ M00000000640000000000000000000000000000000000000000000000002019113020191130122540500700031PENSION NOV 2019 COL  *
D081777997014  00172820195       2017/78239488  CALLUPE KIMURA  NICO00000000576000000000000000000000000000000000000000000002592019103120191130122540500700057PENSION OCT 2019 COL  *
D081777997014  00177104318       2017/78239502  CALLUPE KIMURA  SERG00000000640000000000000000000000000000000000000000000002882019103120191130122540500700058PENSION OCT 2019 COL  *
D081777997014  00172750245       2017/78240324  RIVERA MELCHOR  GERA00000000640000000000000000000000000000000000000000000002882019103120191130122540500700077PENSION OCT 2019 COL  *
D081777997014  00171162688       2017/78241272  MINAYA VILLANUEVA  J00000000640000000000000000000000000000000000000000000000002019113020191130123720500700039PENSION NOV 2019 COL  *
D081777997014  00171147153       2017/159138    PEREA NEYRA  EDUARDO00000000550000000000000000000000000000000000000000000000002019113020191130126860500700007PENSION NOV 2019 SJL  *
D081777997014  00174868050       2017/156274    ALARCON MERINO  GRAZ00000000378000000000000000000000000000000000000000000005162019083120191130126860500700020PENSION AGO 2019 SJL  *
D081777997014  00170729092       2017/159104    CORTEZ PINEDA  GONZA00000000385000000000000000000000000000000000000000000000002019113020191130126910500700009PENSION NOV 2019 SJL  *
D081777997014  00162774760       2017/158872    PAREDES REQUENA  AMY00000000495000000000000000000000000000000000000000000000002019113020191130126910500700011PENSION NOV 2019 SJL  *
D081777997014  00178824584       2017/158633    ASILLO LOVON  YALORI00000000560000000000000000000000000000000000000000000000002019113020191130126910500700012PENSION NOV 2019 SJL  *
D081777997014  00179251434       2017/158805    PAREDES REQUENA  HEC00000000560000000000000000000000000000000000000000000000002019113020191130126910500700013PENSION NOV 2019 SJL  *
D081777997014  00173701761       2017/159440    CANDELA MACA  KEVIN 00000000486000000000000000000000000000000000000000000000002019113020191130127420500700008PENSION NOV 2019 SJL  *
D081777997014  00179093104       2017/158833    FERNANDEZ SALSAVILCA00000000560000000000000000000000000000000000000000000000002019113020191130127420500700016PENSION NOV 2019 SJL  *
D081777997014  00161421880       2017/78241240  VELASQUEZ FLORES  GA00000000448000000000000000000000000000000000000000000000002019113020191130227844651000182PENSION NOV 2019 COL  *
D081777997014  00174017702       2017/159164    CASTILLO ARIAS  MAUR00000000550000000000000000000000000000000000000000000000002019113020191130227844651000405PENSION NOV 2019 SJL  *
D081777997014  00173044562       2017/80015270  ALVARADO ASENJO  GUS00000000378000000000000000000000000000000000000000000000002019122120191130227844651001507PENSION DIC 2019 CAR  *
D081777997014  00176494808       2017/80015281  ALVARADO ASENJO  REN00000000385000000000000000000000000000000000000000000000002019122120191130227844651001508PENSION DIC 2019 CAR  *
D081777997014  00177408318       2017/78239726  MOYA TIPPE  MATEO AU00000000560000000000000000000000000000000000000000000002522019103120191130227844651001975PENSION OCT 2019 COL  *
D081777997014  00162875068       2017/78241473  RUIZ DE CASTILLA TOL00000000560000000000000000000000000000000000000000000000002019113020191130227844651002140PENSION NOV 2019 COL  *
D081777997014  00162600555       2017/157797    LEON HUANCA  MATEO F00000000550000000000000000000000000000000000000000000002482019103120191130227844651002650PENSION OCT 2019 SJL  *
D081777997014  00174310011       2017/78240913  LA CRUZ MUSAYON  ROS00000000640000000000000000000000000000000000000000000000002019113020191130227844651004308PENSION NOV 2019 COL  *
D081777997014  00171425584       2017/78240128  APAZA SEGOVIA  ADRIA00000000640000000000000000000000000000000000000000000002882019103120191130227844651004428PENSION OCT 2019 COL  *
D081777997014  00171425584       2017/78240682  APAZA SEGOVIA  ADRIA00000000640000000000000000000000000000000000000000000000002019113020191130227844651004481PENSION NOV 2019 COL  *
D081777997014  00174793415       2017/80014532  REYES BARBA  ELENA V00000000385000000000000000000000000000000000000000000000002019113020191130227844651004519PENSION NOV 2019 CAR  *
D081777997014  00172319718       2017/78243486  CORTEZ CARBONELL  MA00000000640000000000000000000000000000000000000000000000002019113020191130227844651004559PENSION NOV 2019 COL  *
D081777997014  00172319718       2017/78243487  CORTEZ CARBONELL  MA00000000640000000000000000000000000000000000000000000000002019122120191130227844651004604PENSION DIC 2019 COL  *
D081777997014  00173262180       2017/78240688  COTILLO URIBE  TIFFA00000000640000000000000000000000000000000000000000000000002019113020191130227844651004968PENSION NOV 2019 COL  *
D081777997014  00172722205       2017/158527    RUIZ MAURTUA  GABRIE00000000270000000000000000000000000000000000000000000000002019113020191130227844651005986PENSION NOV 2019 SJL  *
D081777997014  00170637666       2017/159332    RUIZ MAURTUA  DIEGO 00000000540000000000000000000000000000000000000000000000002019113020191130227844651006038PENSION NOV 2019 SJL  *
D081777997014  00171365759       2017/78241325  FALCON GARCIA  MARCE00000000640000000000000000000000000000000000000000000000002019113020191130227844651006850PENSION NOV 2019 COL  *
D081777997014  00171365759       2017/78242569  FALCON GARCIA  MARCE00000000640000000000000000000000000000000000000000000000002019122120191130227844651006852PENSION DIC 2019 COL  *
D081777997014  00172831960       2017/78241384  CHICOMA VASQUEZ  ALD00000000640000000000000000000000000000000000000000000000002019113020191130227844651007677PENSION NOV 2019 COL  *
D081777997014  00173259181       2017/159366    VALENCIA PASTRANA  D00000000378000000000000000000000000000000000000000000000002019113020191130227844651009330PENSION NOV 2019 SJL  *
D081777997014  00174159237       2017/158550    VALENCIA PASTRANA  S00000000378000000000000000000000000000000000000000000000002019113020191130227844651009331PENSION NOV 2019 SJL  *
D081777997014  00170725751       2017/78238844  SILVA JULCA  MIGUEL 00000000576000000000000000000000000000000000000000000005272019093020191130227844651010499PENSION SEP 2019 COL  *
D081777997014  00177409988       2017/78236649  SILVA JULCA  VALENTI00000000560000000000000000000000000000000000000000000010252019073120191130227844651010551PENSION JUL 2019 COL  *
D081777997014  00160914997       2017/78240780  CLEMENTE SULCA  JOSE00000000640000000000000000000000000000000000000000000000002019113020191130227844651012183PENSION NOV 2019 COL  *
D081777997014  00160914997       2017/78242085  CLEMENTE SULCA  JOSE00000000640000000000000000000000000000000000000000000000002019122120191130227844651012184PENSION DIC 2019 COL  *
D081777997014  00171362603       2017/78241404  VILLAR VALDEZ  DARIO00000000448000000000000000000000000000000000000000000000002019113020191130227844651013338PENSION NOV 2019 COL  *
D081777997014  00172844291       2017/78240928  VILLAR VALDEZ  FABRI00000000448000000000000000000000000000000000000000000000002019113020191130227844651013367PENSION NOV 2019 COL  *
D081777997014  00160903055       2017/78240679  CHICOMA VASQUEZ  OSK00000000576000000000000000000000000000000000000000000000002019113020191130227844651015413PENSION NOV 2019 COL  *
D081777997014  00177006357       2017/78241480  GIL CULQUI  ALYSSE M00000000504000000000000000000000000000000000000000000000002019113020191130227844671000336PENSION NOV 2019 COL  *
D081777997014  00178784265       2017/78240597  GIL CULQUI  XIMENA V00000000560000000000000000000000000000000000000000000000002019113020191130227844671000391PENSION NOV 2019 COL  *
D081777997014  00178143916       2017/78240574  AVILA CASTILLO  ANDR00000000560000000000000000000000000000000000000000000000002019113020191130227844671002236PENSION NOV 2019 COL  *
D081777997014  00175452271       2017/78241135  ALVARADO ARTEAGA  AL00000000576000000000000000000000000000000000000000000000002019113020191130227844671002429PENSION NOV 2019 COL  *
D081777997014  00161395718       2017/78241215  ALVARADO ARTEAGA  MA00000000640000000000000000000000000000000000000000000000002019113020191130227844671002444PENSION NOV 2019 COL  *
T081777997014  00101PENSION                       081777997014  000000002202667                                                                                                    *
T081777997014  00102PENSION SAN JUAN              081777997014  000000001030501                                                                                                    *
T081777997014  00103PENSION                       081777997014  000000000384654                                                                                                    *
H081777997014  003000000200000000009100000000000000020191130                                                                                                                       *
D081777997014  00378388068       2017/80015955  FERRO NINAPAYTAN  LE00000000560000000000000000000000000000000000000000000000002019103120191130123010500700110MATRICULA CAR         *
D081777997014  00378388068       2017/80015956  FERRO NINAPAYTAN  LE00000000350000000000000000000000000000000000000000000000002019103120191130123010500700110INSCRIPCION CAR       *
T081777997014  00308MATRICULA CAR 2019            081777997014  000000000056000                                                                                                    *
T081777997014  00309DERECHO DE INGRESO 2020 CARABA081777997014  000000000035000                                                                                                    *
