H081777997014  001000007900000000437631800000000000020191126                                                                                                                       *
D081777997014  00170519300       2017/80013857  GARCIA RODRIGUEZ  WI00000000540000000000000000000000000000000000000000000002112019103120191126120100500700018PENSION OCT 2019 CAR  *
D081777997014  00177092782       2017/159471    MALDONADO ENRIQUEZ  00000000540000000000000000000000000000000000000000000000002019113020191126120110500700001PENSION NOV 2019 SJL  *
D081777997014  00174610127       2017/158584    GUADALUPE PEREZ  MIR00000000540000000000000000000000000000000000000000000000002019113020191126120110500700104PENSION NOV 2019 SJL  *
D081777997014  00174610111       2017/158570    GUADALUPE PEREZ  NIG00000000486000000000000000000000000000000000000000000000002019113020191126120110500700105PENSION NOV 2019 SJL  *
D081777997014  00172789068       2017/78240875  CALDERON RETAMOZO  K00000000640000000000000000000000000000000000000000000000002019113020191126120130500700003PENSION NOV 2019 COL  *
D081777997014  00175269936       2017/80014546  DAMACEN SANCHEZ  AAR00000000540000000000000000000000000000000000000000000000002019113020191126120210500700032PENSION NOV 2019 CAR  *
D081777997014  00179211057       2017/155583    ALVA HIPOLITO  LEONA00000000560000000000000000000000000000000000000000000007312019083120191126120580500700073PENSION AGO 2019 SJL  *
D081777997014  00179211057       2017/156626    ALVA HIPOLITO  LEONA00000000560000000000000000000000000000000000000000000004792019093020191126120580500700073PENSION SEP 2019 SJL  *
D081777997014  00179211057       2017/157502    ALVA HIPOLITO  LEONA00000000560000000000000000000000000000000000000000000002182019103120191126120580500700073PENSION OCT 2019 SJL  *
D081777997014  00179211057       2017/158752    ALVA HIPOLITO  LEONA00000000560000000000000000000000000000000000000000000000002019113020191126120580500700073PENSION NOV 2019 SJL  *
D081777997014  00180998321       2017/78242969  DIAZ CELEDONIO  THIA00000000504000000000000000000000000000000000000000000000002019113020191126220700500700162PENSION NOV 2019 COL  *
D081777997014  00179020929       2017/78240622  HURTADO SICCHA  MART00000000560000000000000000000000000000000000000000000000002019113020191126121350500700053PENSION NOV 2019 COL  *
D081777997014  00172530041       2017/78237184  ACEVEDO VILLAR  JAIM00000000640000000000000000000000000000000000000000000008352019083120191126121770500700022PENSION AGO 2019 COL  *
D081777997014  00172530041       2017/78238244  ACEVEDO VILLAR  JAIM00000000640000000000000000000000000000000000000000000005472019093020191126121770500700022PENSION SEP 2019 COL  *
D081777997014  00174750328       2017/158516    MORENO ARROYO  WILME00000000540000000000000000000000000000000000000000000000002019113020191126122210500700018PENSION NOV 2019 SJL  *
D081777997014  00171179333       2017/78238817  VALENCIA SEDANO  ADR00000000640000000000000000000000000000000000000000000005472019093020191126122240500700012PENSION SEP 2019 COL  *
D081777997014  00171179333       2017/78239462  VALENCIA SEDANO  ADR00000000640000000000000000000000000000000000000000000002502019103120191126122240500700012PENSION OCT 2019 COL  *
D081777997014  00171264427       2017/78238431  VALENCIA SEDANO  CAM00000000576000000000000000000000000000000000000000000004922019093020191126122240500700013PENSION SEP 2019 COL  *
D081777997014  00171264427       2017/78240009  VALENCIA SEDANO  CAM00000000576000000000000000000000000000000000000000000002252019103120191126122240500700013PENSION OCT 2019 COL  *
D081777997014  00170588717       2017/78237085  VASQUEZ ANGELES  ARI00000000640000000000000000000000000000000000000000000008352019083120191126122240500700045PENSION AGO 2019 COL  *
D081777997014  00181625250       2017/158745    CHAVEZ CALIXTO  MARI00000000560000000000000000000000000000000000000000000000002019113020191126122410500700037PENSION NOV 2019 SJL  *
D081777997014  00161175474       2017/157045    HSINI YALLE  AISHA D00000000550000000000000000000000000000000000000000000004702019093020191126222470500700042PENSION SEP 2019 SJL  *
D081777997014  00161175474       2017/158032    HSINI YALLE  AISHA D00000000550000000000000000000000000000000000000000000002152019103120191126222470500700042PENSION OCT 2019 SJL  *
D081777997014  00161175474       2017/159249    HSINI YALLE  AISHA D00000000550000000000000000000000000000000000000000000000002019113020191126222470500700042PENSION NOV 2019 SJL  *
D081777997014  00161175474       2017/160111    HSINI YALLE  AISHA D00000000550000000000000000000000000000000000000000000000002019122120191126222470500700042PENSION DIC 2019 SJL  *
D081777997014  00160917954       2017/159322    PULIDO MANRIQUE  ALV00000000540000000000000000000000000000000000000000000000002019113020191126122470500700070PENSION NOV 2019 SJL  *
D081777997014  00174848616       2017/78240999  LLANOS ROMERO  DAVID00000000640000000000000000000000000000000000000000000000002019113020191126122480500700051PENSION NOV 2019 COL  *
D081777997014  00171163533       2017/78241233  REYES GIRALDO  CAMIL00000000640000000000000000000000000000000000000000000000002019113020191126122540500700057PENSION NOV 2019 COL  *
D081777997014  00172055084       2017/78241393  CHAVEZ GAMBOA  CAMIL00000000640000000000000000000000000000000000000000000000002019113020191126122540500700098PENSION NOV 2019 COL  *
D081777997014  00161923584       2017/159225    QUIJAHUAMAN TENORIO 00000000550000000000000000000000000000000000000000000000002019113020191126122660500700029PENSION NOV 2019 SJL  *
D081777997014  00176732694       2017/159274    QUIJAHUAMAN TENORIO 00000000486000000000000000000000000000000000000000000000002019113020191126122660500700033PENSION NOV 2019 SJL  *
D081777997014  00174342513       2017/78239526  ENRIQUEZ CASTROMONTE00000000640000000000000000000000000000000000000000000002502019103120191126222800500700050PENSION OCT 2019 COL  *
D081777997014  00170710564       2017/159205    PECHO SANCHEZ  ALLIS00000000550000000000000000000000000000000000000000000000002019113020191126123180500700062PENSION NOV 2019 SJL  *
D081777997014  00171407200       2017/158540    AYALA HUARINGA  JUAN00000000540000000000000000000000000000000000000000000000002019113020191126223910500700008PENSION NOV 2019 SJL  *
D081777997014  00171407200       2017/160437    AYALA HUARINGA  JUAN00000000540000000000000000000000000000000000000000000000002019122120191126223910500700011PENSION DIC 2019 SJL  *
D081777997014  00174174077       2017/78240912  CORNEJO NAVARRO  ADR00000000576000000000000000000000000000000000000000000000002019113020191126124230500700029PENSION NOV 2019 COL  *
D081777997014  00170813669       2017/78241047  ALEJOS CORONADO  ALE00000000640000000000000000000000000000000000000000000000002019113020191126126610500700039PENSION NOV 2019 COL  *
D081777997014  00173929195       2017/154291    DELGADO PEREZ  ANDRE00000000270000000000000000000000000000000000000000000006032019063020191126126860500700004PENSION JUN 2019 SJL  *
D081777997014  00173929195       2017/154955    DELGADO PEREZ  ANDRE00000000270000000000000000000000000000000000000000000004782019073120191126126860500700004PENSION JUL 2019 SJL  *
D081777997014  00173929195       2017/156335    DELGADO PEREZ  ANDRE00000000270000000000000000000000000000000000000000000003522019083120191126126860500700004PENSION AGO 2019 SJL  *
D081777997014  00173929195       2017/157357    DELGADO PEREZ  ANDRE00000000270000000000000000000000000000000000000000000002312019093020191126126860500700004PENSION SEP 2019 SJL  *
D081777997014  00173929195       2017/158379    DELGADO PEREZ  ANDRE00000000270000000000000000000000000000000000000000000001052019103120191126126860500700004PENSION OCT 2019 SJL  *
D081777997014  00175642296       2017/158980    DE LA CRUZ BOZA  ALE00000000550000000000000000000000000000000000000000000000002019113020191126226910500700004PENSION NOV 2019 SJL  *
D081777997014  00173097698       2017/159407    DE LA CRUZ BOZA  ISA00000000486000000000000000000000000000000000000000000000002019113020191126226910500700005PENSION NOV 2019 SJL  *
D081777997014  00161771369       2017/159259    CERVANTES MEZA  GENE00000000495000000000000000000000000000000000000000000000002019113020191126126910500700024PENSION NOV 2019 SJL  *
D081777997014  00177716794       2017/159146    CERVANTES MEZA  ALIC00000000550000000000000000000000000000000000000000000000002019113020191126126910500700025PENSION NOV 2019 SJL  *
D081777997014  00160851565       2017/159388    ARRIAGA PEREZ  RICAR00000000540000000000000000000000000000000000000000000000002019113020191126126910500700062PENSION NOV 2019 SJL  *
D081777997014  00172525347       2017/159338    ARIAS ROJAS  SAMUEL 00000000540000000000000000000000000000000000000000000000002019113020191126126910500700063PENSION NOV 2019 SJL  *
D081777997014  00171167400       2017/158945    CORONADO CANALES  MI00000000550000000000000000000000000000000000000000000000002019113020191126127420500700001PENSION NOV 2019 SJL  *
D081777997014  00171686007       2017/78231669  CIPRIAN FLORES  ENGI00000000640000000000000000000000000000000000000000000023042019033120191126227844651001697PENSION MAR 2019 COL  *
D081777997014  00171686007       2017/78232878  CIPRIAN FLORES  ENGI00000000640000000000000000000000000000000000000000000020162019043020191126227844651001698PENSION ABR 2019 COL  *
D081777997014  00171686007       2017/78234219  CIPRIAN FLORES  ENGI00000000640000000000000000000000000000000000000000000017182019053120191126227844651001699PENSION MAY 2019 COL  *
D081777997014  00173727355       2017/78233230  VILA HUANCA  ANGELO 00000000640000000000000000000000000000000000000000000017182019053120191126227844651002123PENSION MAY 2019 COL  *
D081777997014  00173727355       2017/78235218  VILA HUANCA  ANGELO 00000000640000000000000000000000000000000000000000000014302019063020191126227844651002124PENSION JUN 2019 COL  *
D081777997014  00173727355       2017/78236755  VILA HUANCA  ANGELO 00000000640000000000000000000000000000000000000000000011332019073120191126227844651002125PENSION JUL 2019 COL  *
D081777997014  00173727355       2017/78238043  VILA HUANCA  ANGELO 00000000640000000000000000000000000000000000000000000008352019083120191126227844651002126PENSION AGO 2019 COL  *
D081777997014  00173727355       2017/78239185  VILA HUANCA  ANGELO 00000000640000000000000000000000000000000000000000000005472019093020191126227844651002127PENSION SEP 2019 COL  *
D081777997014  00170956847       2017/78234031  VILA HUANCA  JOSEPH 00000000576000000000000000000000000000000000000000000015472019053120191126227844651002215PENSION MAY 2019 COL  *
D081777997014  00170956847       2017/78234804  VILA HUANCA  JOSEPH 00000000576000000000000000000000000000000000000000000012872019063020191126227844651002216PENSION JUN 2019 COL  *
D081777997014  00170956847       2017/78236341  VILA HUANCA  JOSEPH 00000000576000000000000000000000000000000000000000000010202019073120191126227844651002217PENSION JUL 2019 COL  *
D081777997014  00170956847       2017/78237629  VILA HUANCA  JOSEPH 00000000576000000000000000000000000000000000000000000007522019083120191126227844651002218PENSION AGO 2019 COL  *
D081777997014  00170956847       2017/78238773  VILA HUANCA  JOSEPH 00000000576000000000000000000000000000000000000000000004922019093020191126227844651002219PENSION SEP 2019 COL  *
D081777997014  00170956847       2017/78239375  VILA HUANCA  JOSEPH 00000000576000000000000000000000000000000000000000000002252019103120191126227844651002220PENSION OCT 2019 COL  *
D081777997014  00178525427       2017/157606    ACUACHI DAMIAN  MELO00000000560000000000000000000000000000000000000000000002182019103120191126227844651003076PENSION OCT 2019 SJL  *
D081777997014  00170725751       2017/78236416  SILVA JULCA  MIGUEL 00000000576000000000000000000000000000000000000000000010202019073120191126227844651005043PENSION JUL 2019 COL  *
D081777997014  00178040090       2017/80015379  POTENCIANO CRUZ  ARA00000000385000000000000000000000000000000000000000000001502019103120191126227844651005735PENSION OCT 2019 CAR  *
D081777997014  00178040090       2017/80015380  POTENCIANO CRUZ  ARA00000000385000000000000000000000000000000000000000000000002019113020191126227844651005754PENSION NOV 2019 CAR  *
D081777997014  00177376028       2017/78234309  MAGALLANES FAILOC  S00000000560000000000000000000000000000000000000000000015042019053120191126227844651009755PENSION MAY 2019 COL  *
D081777997014  00162571889       2017/78242746  MORALES SANDOVAL  JO00000000640000000000000000000000000000000000000000000000002019122120191126227844651012155PENSION DIC 2019 COL  *
D081777997014  00171490105       2017/80014462  JULCA MENDOZA  ANDER00000000540000000000000000000000000000000000000000000000002019113020191126227844651013463PENSION NOV 2019 CAR  *
D081777997014  00172056351       2017/159460    HUAMAN DE LA CRUZ  J00000000540000000000000000000000000000000000000000000000002019113020191126227844651014928PENSION NOV 2019 SJL  *
D081777997014  00173288009       2017/78241613  ZAPATA VALENCIA  ROD00000000448000000000000000000000000000000000000000000000002019113020191126227844651016107PENSION NOV 2019 COL  *
D081777997014  00173288009       2017/78242828  ZAPATA VALENCIA  ROD00000000448000000000000000000000000000000000000000000000002019122120191126227844651016108PENSION DIC 2019 COL  *
D081777997014  00178962051       2017/80014360  DEXTRE AIRE  SAYURI 00000000560000000000000000000000000000000000000000000000002019113020191126227844651016189PENSION NOV 2019 CAR  *
D081777997014  00179315195       2017/78240045  QUEQUESANA MALDONADO00000000560000000000000000000000000000000000000000000002102019103120191126227844671000498PENSION OCT 2019 COL  *
D081777997014  00177193745       2017/78239660  SALGUERO MOLINA  ABR00000000560000000000000000000000000000000000000000000002182019103120191126227844671001580PENSION OCT 2019 COL  *
D081777997014  00170588388       2017/78241045  CHAVEZ CARRASCO  CHR00000000640000000000000000000000000000000000000000000000002019113020191126129470500700002PENSION NOV 2019 COL  *
D081777997014  00176476778       2017/78241078  CHAVEZ CARRASCO  ROM00000000576000000000000000000000000000000000000000000000002019113020191126129470500700004PENSION NOV 2019 COL  *
D081777997014  00175647684       2017/78241278  MOREANO CABRERA  JOR00000000640000000000000000000000000000000000000000000000002019113020191126129470500700054PENSION NOV 2019 COL  *
T081777997014  00101PENSION                       081777997014  000000002429557                                                                                                    *
T081777997014  00102PENSION SAN JUAN              081777997014  000000001651400                                                                                                    *
T081777997014  00103PENSION                       081777997014  000000000295361                                                                                                    *
H081777997014  003000000400000000021700000000000000020191126                                                                                                                       *
D081777997014  00375292896       2017/78243625  SUAREZ SANDOVAL  ANI00000000670000000000000000000000000000000000000000000000002019113020191126120100500700098MATRICULA COL         *
D081777997014  00378137199       2017/78243629  TIMANA HUAMAN  GONZA00000000580000000000000000000000000000000000000000000000002019113020191126120590500700047MATRICULA COL         *
D081777997014  00379732972       2017/78243627  CHICORI VARGAS  LUIS00000000350000000000000000000000000000000000000000000000002019113020191126122540500700088INSCRIPCION COL       *
D081777997014  00379732972       2017/78243628  CHICORI VARGAS  LUIS00000000570000000000000000000000000000000000000000000000002019113020191126122540500700088MATRICULA COL         *
T081777997014  00304MATRICULA                     081777997014  000000000182000                                                                                                    *
T081777997014  00305DERECHO DE INGRESO LIM 2018   081777997014  000000000035000                                                                                                    *
H081777997014  007000000100000000000250000000000000020191126                                                                                                                       *
D081777997014  00774918221       FF19/2268      CALIZAYA LOPEZ  DIEG00000000025000000000000000000000000000000000000000000000002019113020191126120700500700140EXCELENCIA ACAD SJL   *
T081777997014  00752EXCELENCIA ACAD SJL           081777997014  000000000002500                                                                                                    *
H081777997014  016000000100000000006500000000000000020191126                                                                                                                       *
D081777997014  01620535828939    FF19/2237      B & C  COPY SERVICE 00000000650000000000000000000000000000000000000000000000002019113020191126126570500700015CONCESIONARIO NOV 20  *
T081777997014  01661ARRENDAMIENTO DE ESPACIO PARA 081777997014  000000000065000                                                                                                    *
