H081777997014  001000004400000000239843700000000000020191231                                                                                                                       *
D081777997014  00161402519       2017/78242598  BULLON GUTIERREZ  JO00000000640000000000000000000000000000000000000000000000962019122120191231220110500700022PENSION DIC 2019 COL  *
D081777997014  00175039625       2017/80015317  CASTRO PARRA  SOFIA 00000000385000000000000000000000000000000000000000000007052019083120191231220210500700056PENSION AGO 2019 CAR  *
D081777997014  00175039625       2017/80015318  CASTRO PARRA  SOFIA 00000000385000000000000000000000000000000000000000000005312019093020191231220210500700056PENSION SEP 2019 CAR  *
D081777997014  00175039625       2017/80015319  CASTRO PARRA  SOFIA 00000000385000000000000000000000000000000000000000000003522019103120191231220210500700056PENSION OCT 2019 CAR  *
D081777997014  00175039625       2017/80015320  CASTRO PARRA  SOFIA 00000000385000000000000000000000000000000000000000000001792019113020191231220210500700056PENSION NOV 2019 CAR  *
D081777997014  00175039625       2017/80015321  CASTRO PARRA  SOFIA 00000000385000000000000000000000000000000000000000000000582019122120191231220210500700056PENSION DIC 2019 CAR  *
D081777997014  00176921546       2017/78239384  DE LA CRUZ VILCHEZ  00000000448000000000000000000000000000000000000000000004102019103120191231220600500700008PENSION OCT 2019 COL  *
D081777997014  00176921546       2017/78241123  DE LA CRUZ VILCHEZ  00000000448000000000000000000000000000000000000000000002082019113020191231220600500700008PENSION NOV 2019 COL  *
D081777997014  00177383921       2017/78240321  DE LA CRUZ VILCHEZ  00000000448000000000000000000000000000000000000000000004102019103120191231220600500700010PENSION OCT 2019 COL  *
D081777997014  00177383921       2017/78240924  DE LA CRUZ VILCHEZ  00000000448000000000000000000000000000000000000000000002082019113020191231220600500700010PENSION NOV 2019 COL  *
D081777997014  00171366072       2017/78241852  MARINO GONZALES  ANJ00000000640000000000000000000000000000000000000000000000962019122120191231120600500700022PENSION DIC 2019 COL  *
D081777997014  00177240365       2017/158538    VILCAPUMA GARCIA  AN00000000486000000000000000000000000000000000000000000002262019113020191231121490500700010PENSION NOV 2019 SJL  *
D081777997014  00174103697       2017/158757    VILCAPUMA GARCIA  SA00000000550000000000000000000000000000000000000000000002562019113020191231121490500700011PENSION NOV 2019 SJL  *
D081777997014  00160916325       2017/78242154  SANCHEZ GOMEZ  DAPHN00000000640000000000000000000000000000000000000000000000962019122120191231121770500700041PENSION DIC 2019 COL  *
D081777997014  00161714679       2017/160130    ANGLAS VALERIO  ALVI00000000550000000000000000000000000000000000000000000000832019122120191231121860500700001PENSION DIC 2019 SJL  *
D081777997014  00173409198       2017/78241571  SUNCION PRADO  MATHI00000000640000000000000000000000000000000000000000000002982019113020191231222540500700013PENSION NOV 2019 COL  *
D081777997014  00173409198       2017/78242789  SUNCION PRADO  MATHI00000000640000000000000000000000000000000000000000000000962019122120191231222540500700013PENSION DIC 2019 COL  *
D081777997014  00170597584       2017/78242113  SUNCION PRADO  EMILY00000000576000000000000000000000000000000000000000000000862019122120191231122540500700015PENSION DIC 2019 COL  *
D081777997014  00177875657       2017/78239258  VILLENA CAMPOS  ESTE00000000560000000000000000000000000000000000000000000007732019093020191231122540500700026PENSION SEP 2019 COL  *
D081777997014  00177875657       2017/78239903  VILLENA CAMPOS  ESTE00000000560000000000000000000000000000000000000000000005122019103120191231122540500700026PENSION OCT 2019 COL  *
D081777997014  00177875657       2017/78241688  VILLENA CAMPOS  ESTE00000000560000000000000000000000000000000000000000000002602019113020191231122540500700026PENSION NOV 2019 COL  *
D081777997014  00177875657       2017/78242903  VILLENA CAMPOS  ESTE00000000560000000000000000000000000000000000000000000000842019122120191231122540500700026PENSION DIC 2019 COL  *
D081777997014  00161876929       2017/78242801  CAM BACA  GABRIEL CR00000000640000000000000000000000000000000000000000000000962019122120191231122540500700062PENSION DIC 2019 COL  *
D081777997014  00171151566       2017/78241216  ITURRIZAGA MARROQUIN00000000640000000000000000000000000000000000000000000002982019113020191231124280500700011PENSION NOV 2019 COL  *
D081777997014  00176709411       2017/158916    SALAZAR VASQUEZ  LEO00000000550000000000000000000000000000000000000000000002562019113020191231126910500700042PENSION NOV 2019 SJL  *
D081777997014  00176709411       2017/159707    SALAZAR VASQUEZ  LEO00000000550000000000000000000000000000000000000000000000832019122120191231126910500700042PENSION DIC 2019 SJL  *
D081777997014  00170590906       2017/160409    VENERO MORI  CRISTHI00000000540000000000000000000000000000000000000000000000812019122120191231126910500700047PENSION DIC 2019 SJL  *
D081777997014  00162024526       2017/159817    MEDINA VILLANUEVA  J00000000550000000000000000000000000000000000000000000000832019122120191231127420500700015PENSION DIC 2019 SJL  *
D081777997014  00160939262       2017/160824    VALERA OVIEDO  MARCE00000000540000000000000000000000000000000000000000000000812019122120191231127420500700028PENSION DIC 2019 SJL  *
D081777997014  00161360327       2017/157014    CABANILLAS PALOMINO 00000000550000000000000000000000000000000000000000000007592019093020191231127420500700055PENSION SEP 2019 SJL  *
D081777997014  00161360327       2017/158062    CABANILLAS PALOMINO 00000000550000000000000000000000000000000000000000000005032019103120191231127420500700055PENSION OCT 2019 SJL  *
D081777997014  00161360327       2017/159215    CABANILLAS PALOMINO 00000000550000000000000000000000000000000000000000000002562019113020191231127420500700055PENSION NOV 2019 SJL  *
D081777997014  00161360327       2017/160080    CABANILLAS PALOMINO 00000000550000000000000000000000000000000000000000000000832019122120191231127420500700055PENSION DIC 2019 SJL  *
D081777997014  00178431941       2017/158816    VELASQUEZ RIMARI  AL00000000560000000000000000000000000000000000000000000002602019113020191231227844651002172PENSION NOV 2019 SJL  *
D081777997014  00178431941       2017/159564    VELASQUEZ RIMARI  AL00000000560000000000000000000000000000000000000000000000842019122120191231227844651002293PENSION DIC 2019 SJL  *
D081777997014  00178452893       2017/78240061  ORTEGA QUISPE  HARRY00000000560000000000000000000000000000000000000000000005122019103120191231227844651002521PENSION OCT 2019 COL  *
D081777997014  00178452893       2017/78240615  ORTEGA QUISPE  HARRY00000000560000000000000000000000000000000000000000000002602019113020191231227844651002522PENSION NOV 2019 COL  *
D081777997014  00178452893       2017/78241963  ORTEGA QUISPE  HARRY00000000560000000000000000000000000000000000000000000000842019122120191231227844651002523PENSION DIC 2019 COL  *
D081777997014  00171425584       2017/78241778  APAZA SEGOVIA  ADRIA00000000640000000000000000000000000000000000000000000000962019122120191231227844651002819PENSION DIC 2019 COL  *
D081777997014  00171490105       2017/80015003  JULCA MENDOZA  ANDER00000000540000000000000000000000000000000000000000000000812019122120191231227844651003907PENSION DIC 2019 CAR  *
D081777997014  00176903894       2017/160352    GOMEZ CHOQUEHUANCA  00000000540000000000000000000000000000000000000000000000812019122120191231227844651003918PENSION DIC 2019 SJL  *
D081777997014  00160892566       2017/78240789  BENDEZU MALASQUEZ  G00000000640000000000000000000000000000000000000000000002982019113020191231227844651008055PENSION NOV 2019 COL  *
D081777997014  00160892566       2017/78242094  BENDEZU MALASQUEZ  G00000000640000000000000000000000000000000000000000000000962019122120191231227844651008056PENSION DIC 2019 COL  *
D081777997014  00172831324       2017/160716    FERNANDEZ TAPARA  JU00000000550000000000000000000000000000000000000000000000832019122120191231227844651008610PENSION DIC 2019 SJL  *
T081777997014  00101PENSION                       081777997014  000000001274173                                                                                                    *
T081777997014  00102PENSION SAN JUAN              081777997014  000000000875858                                                                                                    *
T081777997014  00103PENSION                       081777997014  000000000248406                                                                                                    *
H081777997014  003000000900000000048480000000000000020191231                                                                                                                       *
D081777997014  00373559316       2017/161467    ROJAS VARA  LUIS FER00000000513000000000000000000000000000000000000000000000002019122120191231121440500700002MATRICULA SJL         *
D081777997014  00372708069       2017/78244096  RODRIGUEZ VILLAR  AL00000000603000000000000000000000000000000000000000000000002019122120191231222240500700041MATRICULA COL         *
D081777997014  00370594085       2017/78244095  RODRIGUEZ VILLAR  LE00000000603000000000000000000000000000000000000000000000002019122120191231222240500700043MATRICULA COL         *
D081777997014  00363716063       2017/161463    ESTRADA BAUTISTA  NI00000000513000000000000000000000000000000000000000000000002019122120191231122470500700081MATRICULA SJL         *
D081777997014  00390189524       2017/161450    ESTRADA BAUTISTA  FL00000000570000000000000000000000000000000000000000000000002019122120191231122470500700084MATRICULA SJL         *
D081777997014  00390189524       2017/161451    ESTRADA BAUTISTA  FL00000000350000000000000000000000000000000000000000000000002019122120191231122470500700084INSCRIPCION SJL       *
D081777997014  00378180704       2017/78244107  MONGE VIVANCO  ANTON00000000580000000000000000000000000000000000000000000000002019122120191231122540500700001MATRICULA COL         *
D081777997014  00374672539       2017/161439    QUISPE QUISPE  JEAN 00000000513000000000000000000000000000000000000000000000002019122120191231127420500700018MATRICULA SJL         *
D081777997014  00377188281       2017/78244097  PRADINETT REYES  CAR00000000603000000000000000000000000000000000000000000000002019122120191231227844651001916MATRICULA COL         *
T081777997014  00304MATRICULA                     081777997014  000000000238900                                                                                                    *
T081777997014  00306MATRICULA SJL - PREMATRICULA  081777997014  000000000210900                                                                                                    *
T081777997014  00307DERECHO DE INGRESO SJL 2019   081777997014  000000000035000                                                                                                    *
H081777997014  009000000100000000000600000000000000020191231                                                                                                                       *
D081777997014  00961141801       FF19/2419      MANCILLA CRUZ  MATEO00000000060000000000000000000000000000000000000000000000002019122120191231227844671000109CERT ESTUDIO COL DIC  *
T081777997014  00925CERT ESTUDIO-COL              081777997014  000000000006000                                                                                                    *
H081777997014  012000000100000000000300000000000000020191231                                                                                                                       *
D081777997014  01272056351       FF19/2437      HUAMAN DE LA CRUZ  J00000000030000000000000000000000000000000000000000000000002019122120191231227844651007923PRA ACAD SJL DIC 201  *
T081777997014  01257PRA ACAD SJL                  081777997014  000000000003000                                                                                                    *
