H081777997014  001000001400000000083312200000000000020191123                                                                                                                       *
D081777997014  00161106643       2017/80014176  DAGA GONZALES  NICOL00000000495000000000000000000000000000000000000000000001712019103120191123120200500700009PENSION OCT 2019 CAR  *
D081777997014  00177623283       2017/80014081  DAGA GONZALES  MOISE00000000550000000000000000000000000000000000000000000001902019103120191123120200500700010PENSION OCT 2019 CAR  *
D081777997014  00174835505       2017/78240405  GUERRERO CASTILLO  O00000000640000000000000000000000000000000000000000000002212019103120191123122140500700014PENSION OCT 2019 COL  *
D081777997014  00172343410       2017/78237586  COTRINA SALINAS  LUC00000000640000000000000000000000000000000000000000000008062019083120191123122540500700036PENSION AGO 2019 COL  *
D081777997014  00172343410       2017/78238728  COTRINA SALINAS  LUC00000000640000000000000000000000000000000000000000000005182019093020191123122540500700036PENSION SEP 2019 COL  *
D081777997014  00173073543       2017/78240952  CASTILLO VICENTE  PE00000000640000000000000000000000000000000000000000000000002019113020191123122660500700047PENSION NOV 2019 COL  *
D081777997014  00170512631       2017/80013941  STEIN VENEGAS  CARLO00000000540000000000000000000000000000000000000000000001862019103120191123124450500700010PENSION OCT 2019 CAR  *
D081777997014  00173440939       2017/78240859  PAZ DIAZ  FLAVIA MAC00000000640000000000000000000000000000000000000000000000002019113020191123126610500700016PENSION NOV 2019 COL  *
D081777997014  00170770038       2017/158525    MASCCO DIAZ  MARIAFE00000000540000000000000000000000000000000000000000000000002019113020191123126910500700005PENSION NOV 2019 SJL  *
D081777997014  00173272732       2017/78233745  NAIZA ALVILDO  FLAVI00000000640000000000000000000000000000000000000000000016902019053120191123227844651001214PENSION MAY 2019 COL  *
D081777997014  00170933423       2017/78241169  BELAONIA FERNANDEZ  00000000640000000000000000000000000000000000000000000000002019113020191123227844651006843PENSION NOV 2019 COL  *
D081777997014  00178050922       2017/78239925  MORENO GARCIA  MATT 00000000560000000000000000000000000000000000000000000001932019103120191123227844651008025PENSION OCT 2019 COL  *
D081777997014  00177726533       2017/78239282  PEREZ MURGA  ANGELA 00000000560000000000000000000000000000000000000000000004542019093020191123227844671000975PENSION SEP 2019 COL  *
D081777997014  00177726533       2017/78239927  PEREZ MURGA  ANGELA 00000000560000000000000000000000000000000000000000000001932019103120191123227844671000979PENSION OCT 2019 COL  *
T081777997014  00101PENSION                       081777997014  000000000620075                                                                                                    *
T081777997014  00102PENSION SAN JUAN              081777997014  000000000054000                                                                                                    *
T081777997014  00103PENSION                       081777997014  000000000159047                                                                                                    *
H081777997014  009000000100000000000600000000000000020191123                                                                                                                       *
D081777997014  00972931997       FF19/2264      TAPIA NAZARIO  KINNV00000000060000000000000000000000000000000000000000000000002019113020191123120210500700019CERT ESTUDIO COL NOV  *
T081777997014  00925CERT ESTUDIO-COL              081777997014  000000000006000                                                                                                    *
