H081777997014  001000005200000000293876700000000000020191120                                                                                                                       *
D081777997014  00172911352       2017/78242954  VENEGAS VENEGAS  ADO00000000576000000000000000000000000000000000000000000012362019063020191120220140500700029PENSION JUN 2019 COL  *
D081777997014  00172911352       2017/78242955  VENEGAS VENEGAS  ADO00000000576000000000000000000000000000000000000000000009682019073120191120220140500700029PENSION JUL 2019 COL  *
D081777997014  00172911352       2017/78242956  VENEGAS VENEGAS  ADO00000000576000000000000000000000000000000000000000000007002019083120191120220140500700029PENSION AGO 2019 COL  *
D081777997014  00177720965       2017/78239292  CARREON MOLINA  MAIL00000000560000000000000000000000000000000000000000000004282019093020191120120140500700102PENSION SEP 2019 COL  *
D081777997014  00177720965       2017/78239937  CARREON MOLINA  MAIL00000000560000000000000000000000000000000000000000000001682019103120191120120140500700103PENSION OCT 2019 COL  *
D081777997014  00161251199       2017/78238806  CARREON MOLINA  VALE00000000576000000000000000000000000000000000000000000004412019093020191120120140500700104PENSION SEP 2019 COL  *
D081777997014  00174136779       2017/78243086  PEREZ TENORIO  LEAND00000000640000000000000000000000000000000000000000000019582019043020191120120140500700105PENSION ABR 2019 COL  *
D081777997014  00161251199       2017/78239451  CARREON MOLINA  VALE00000000576000000000000000000000000000000000000000000001732019103120191120120140500700106PENSION OCT 2019 COL  *
D081777997014  00177400015       2017/80013217  GUERRERO LAUREANO  V00000000495000000000000000000000000000000000000000000006012019083120191120120580500700088PENSION AGO 2019 CAR  *
D081777997014  00174103584       2017/80013194  GUERRERO LAUREANO  K00000000495000000000000000000000000000000000000000000006012019083120191120120580500700089PENSION AGO 2019 CAR  *
D081777997014  00175204051       2017/78241070  CORDOVA RUBIANES  LO00000000480000000000000000000000000000000000000000000000002019113020191120220600500700002PENSION NOV 2019 COL  *
D081777997014  00172552558       2017/80015777  NANEZ LINARES  HAROL00000000540000000000000000000000000000000000000000000001622019103120191120120920500700160PENSION OCT 2019 CAR  *
D081777997014  00160697967       2017/158335    POZO GARCIA  ANGIE C00000000540000000000000000000000000000000000000000000001622019103120191120121350500700066PENSION OCT 2019 SJL  *
D081777997014  00175083798       2017/78234664  SAAVEDRA LUJAN  SEBA00000000640000000000000000000000000000000000000000000013732019063020191120122240500700004PENSION JUN 2019 COL  *
D081777997014  00160853917       2017/156270    MALLMA VALENCIA  GRA00000000540000000000000000000000000000000000000000000006562019083120191120222470500700021PENSION AGO 2019 SJL  *
D081777997014  00174007968       2017/78237961  RAMIREZ RODRIGUEZ  F00000000640000000000000000000000000000000000000000000007782019083120191120122540500700009PENSION AGO 2019 COL  *
D081777997014  00179474954       2017/78238214  LOAIZA BARZOLA  MICA00000000560000000000000000000000000000000000000000000004282019093020191120122540500700026PENSION SEP 2019 COL  *
D081777997014  00179474954       2017/78239999  LOAIZA BARZOLA  MICA00000000560000000000000000000000000000000000000000000001682019103120191120122540500700026PENSION OCT 2019 COL  *
D081777997014  00162571889       2017/78241531  MORALES SANDOVAL  JO00000000640000000000000000000000000000000000000000000000002019113020191120122540500700031PENSION NOV 2019 COL  *
D081777997014  00177252153       2017/78236599  MENDOZA RIVERA  MIGU00000000560000000000000000000000000000000000000000000009412019073120191120122540500700056PENSION JUL 2019 COL  *
D081777997014  00172208718       2017/78238358  ESPINOZA RAMOS  DANA00000000640000000000000000000000000000000000000000000004902019093020191120222540500700091PENSION SEP 2019 COL  *
D081777997014  00172999215       2017/78237858  CANO QUITO  KIARA VA00000000640000000000000000000000000000000000000000000007782019083120191120124450500700144PENSION AGO 2019 COL  *
D081777997014  00174848509       2017/80013948  MIRANDA JARA  AINARA00000000540000000000000000000000000000000000000000000001622019103120191120125350500700099PENSION OCT 2019 CAR  *
D081777997014  00174848509       2017/80014450  MIRANDA JARA  AINARA00000000540000000000000000000000000000000000000000000000002019113020191120125350500700099PENSION NOV 2019 CAR  *
D081777997014  00174848509       2017/80014991  MIRANDA JARA  AINARA00000000540000000000000000000000000000000000000000000000002019122120191120125350500700099PENSION DIC 2019 CAR  *
D081777997014  00176633458       2017/78232328  TORRES HURTADO  SEBA00000000640000000000000000000000000000000000000000000019582019043020191120126570500700007PENSION ABR 2019 COL  *
D081777997014  00176633458       2017/78233648  TORRES HURTADO  SEBA00000000640000000000000000000000000000000000000000000016612019053120191120126570500700007PENSION MAY 2019 COL  *
D081777997014  00176633458       2017/78235648  TORRES HURTADO  SEBA00000000640000000000000000000000000000000000000000000013732019063020191120126570500700007PENSION JUN 2019 COL  *
D081777997014  00176633458       2017/78235973  TORRES HURTADO  SEBA00000000640000000000000000000000000000000000000000000010752019073120191120126570500700007PENSION JUL 2019 COL  *
D081777997014  00177690870       2017/78240511  DEXTRE MAS  JESUS AD00000000640000000000000000000000000000000000000000000001922019103120191120126610500700150PENSION OCT 2019 COL  *
D081777997014  00172827893       2017/153877    RIEGA GERBACIO  GABR00000000275000000000000000000000000000000000000000000005902019063020191120126860500700003PENSION JUN 2019 SJL  *
D081777997014  00172827893       2017/154534    RIEGA GERBACIO  GABR00000000550000000000000000000000000000000000000000000009242019073120191120126860500700003PENSION JUL 2019 SJL  *
D081777997014  00161330914       2017/158755    POTENCIANO BURGOS  P00000000385000000000000000000000000000000000000000000000002019113020191120126860500700009PENSION NOV 2019 SJL  *
D081777997014  00161330914       2017/159695    POTENCIANO BURGOS  P00000000385000000000000000000000000000000000000000000000002019122120191120126860500700009PENSION DIC 2019 SJL  *
D081777997014  00176742768       2017/158490    GENEBROZO ROMANI  SE00000000540000000000000000000000000000000000000000000000002019113020191120126910500700042PENSION NOV 2019 SJL  *
D081777997014  00176852831       2017/158215    DIAZ ARATA  SULEYKA 00000000540000000000000000000000000000000000000000000001622019103120191120126910500700071PENSION OCT 2019 SJL  *
D081777997014  00176852831       2017/159397    DIAZ ARATA  SULEYKA 00000000540000000000000000000000000000000000000000000000002019113020191120126910500700071PENSION NOV 2019 SJL  *
D081777997014  00170637174       2017/158338    VILLANUEVA CONTRERAS00000000540000000000000000000000000000000000000000000001622019103120191120127420500700010PENSION OCT 2019 SJL  *
D081777997014  00160772939       2017/158594    LEON REATEGUI  ADRIA00000000540000000000000000000000000000000000000000000000002019113020191120227844651004277PENSION NOV 2019 SJL  *
D081777997014  00173244998       2017/158613    LEON REATEGUI  DANIE00000000486000000000000000000000000000000000000000000000002019113020191120227844651004278PENSION NOV 2019 SJL  *
D081777997014  00177633769       2017/78241676  HERRERA CANO  MARIA 00000000560000000000000000000000000000000000000000000000002019113020191120227844651004933PENSION NOV 2019 COL  *
D081777997014  00174327102       2017/78239563  CHANDUVI MUNOZ  CARL00000000640000000000000000000000000000000000000000000001922019103120191120227844651006003PENSION OCT 2019 COL  *
D081777997014  00162641234       2017/78240761  PEREZ ARANA  AGOSTIN00000000640000000000000000000000000000000000000000000000002019113020191120227844651006645PENSION NOV 2019 COL  *
D081777997014  00174805658       2017/80014561  CUEVA ORTIZ  ERICK A00000000540000000000000000000000000000000000000000000000002019113020191120227844651007054PENSION NOV 2019 CAR  *
D081777997014  00173217741       2017/78240901  LOPEZ GONZALES  KELL00000000640000000000000000000000000000000000000000000000002019113020191120227844651008356PENSION NOV 2019 COL  *
D081777997014  00161374218       2017/159245    LEON BASURTO  RODRIG00000000550000000000000000000000000000000000000000000000002019113020191120227844651008704PENSION NOV 2019 SJL  *
D081777997014  00172431250       2017/78239349  SALGUERO MOLINA  ADR00000000576000000000000000000000000000000000000000000001732019103120191120227844651009382PENSION OCT 2019 COL  *
D081777997014  00170838129       2017/157068    PAIRAZAMAN QUIJANO  00000000540000000000000000000000000000000000000000000004132019093020191120227844651012500PENSION SEP 2019 SJL  *
D081777997014  00179115889       2017/158865    ESCOBAR ROMERO  ALVA00000000560000000000000000000000000000000000000000000000002019113020191120227844651012906PENSION NOV 2019 SJL  *
D081777997014  00170712844       2017/157738    CASTANEDA SALAZAR  J00000000385000000000000000000000000000000000000000000001162019103120191120227844651013800PENSION OCT 2019 SJL  *
D081777997014  00172709915       2017/78230987  ROJAS LAURA  SEBASTI00000000640000000000000000000000000000000000000000000022462019033120191120128800500700001PENSION MAR 2019 COL  *
D081777997014  00172709915       2017/78232172  ROJAS LAURA  SEBASTI00000000640000000000000000000000000000000000000000000019582019043020191120128800500700001PENSION ABR 2019 COL  *
T081777997014  00101PENSION                       081777997014  000000001775456                                                                                                    *
T081777997014  00102PENSION SAN JUAN              081777997014  000000000792785                                                                                                    *
T081777997014  00103PENSION                       081777997014  000000000370526                                                                                                    *
H081777997014  003000000400000000018400000000000000020191120                                                                                                                       *
D081777997014  00390157139       2017/160989    QUISPE ZORRILLA  ALO00000000570000000000000000000000000000000000000000000000002019113020191120120250500700035MATRICULA SJL         *
D081777997014  00390157139       2017/160990    QUISPE ZORRILLA  ALO00000000350000000000000000000000000000000000000000000000002019113020191120120250500700035INSCRIPCION SJL       *
D081777997014  00379232950       2017/160995    GENEBROZO ROMANI  LI00000000570000000000000000000000000000000000000000000000002019113020191120126910500700041MATRICULA SJL         *
D081777997014  00379232950       2017/160996    GENEBROZO ROMANI  LI00000000350000000000000000000000000000000000000000000000002019113020191120126910500700041INSCRIPCION SJL       *
T081777997014  00306MATRICULA SJL - PREMATRICULA  081777997014  000000000114000                                                                                                    *
T081777997014  00307DERECHO DE INGRESO SJL 2018   081777997014  000000000070000                                                                                                    *
H081777997014  009000000300000000001800000000000000020191120                                                                                                                       *
D081777997014  00976574925       FF19/2257      REBAZA ZARATE  ANDRE00000000060000000000000000000000000000000000000000000000002019113020191120120650500700006CERT ESTUDIOS SJL NO  *
D081777997014  00962024489       FF19/1054      ARCA CAMPOS  MARINA 00000000060000000000000000000000000000000000000000000000002019033120191120122470500700010CERT ESTUDIOS SJL MA  *
D081777997014  00961530608       FF19/2259      VASQUEZ MACHICO  NAT00000000060000000000000000000000000000000000000000000000002019113020191120126610500700152CERT ESTUDIO COL NOV  *
T081777997014  00925CERT ESTUDIO-COL              081777997014  000000000006000                                                                                                    *
T081777997014  00954CERT ESTUDIOS SJL             081777997014  000000000012000                                                                                                    *
H081777997014  010000000400000000001200000000000000020191120                                                                                                                       *
D081777997014  01062024489       FF19/1055      ARCA CAMPOS  MARINA 00000000030000000000000000000000000000000000000000000000002019033120191120122470500700010CCIA NO ADEUDOSJL MA  *
D081777997014  01071160581       FF19/2258      PASTOR LESCANO  ADRI00000000030000000000000000000000000000000000000000000000002019113020191120122540500700081CCIA NO ADEUDO COL N  *
D081777997014  01081653133       FF19/2253      HURTADO ZAMORA  ANGE00000000030000000000000000000000000000000000000000000000002019113020191120127420500700029CCIA NO ADEUDOSJL NO  *
D081777997014  01078175614       FF19/2254      HURTADO ZAMORA  LIAM00000000030000000000000000000000000000000000000000000000002019113020191120127420500700030CCIA NO ADEUDOSJL NO  *
T081777997014  01026CCIA NO ADEUDO COL            081777997014  000000000003000                                                                                                    *
T081777997014  01055CCIA NO ADEUDOSJL             081777997014  000000000009000                                                                                                    *
