H081777997014  001000008400000000469391100000000000020191211                                                                                                                       *
D081777997014  00170716613       2017/158500    ROJAS SUAREZ  ANGIE 00000000540000000000000000000000000000000000000000000000892019113020191211120110500700001PENSION NOV 2019 SJL  *
D081777997014  00172040542       2017/78242097  PAJUELO PAREDES  ALE00000000640000000000000000000000000000000000000000000000002019122120191211120140500700024PENSION DIC 2019 COL  *
D081777997014  00170456563       2017/80013005  GRANADINO ANTUNEZ  O00000000540000000000000000000000000000000000000000000008262019083120191211120200500700070PENSION AGO 2019 CAR  *
D081777997014  00174022436       2017/158524    LAGUNA GARCIA  CAMIL00000000540000000000000000000000000000000000000000000000892019113020191211120400500700091PENSION NOV 2019 SJL  *
D081777997014  00171687778       2017/78241359  MIGUEL QUICANA  JHAY00000000640000000000000000000000000000000000000000000001062019113020191211121770500700034PENSION NOV 2019 COL  *
D081777997014  00171687778       2017/78242574  MIGUEL QUICANA  JHAY00000000640000000000000000000000000000000000000000000000002019122120191211121770500700034PENSION DIC 2019 COL  *
D081777997014  00174004425       2017/80014650  ZEVALLOS CAPCHA  CAM00000000550000000000000000000000000000000000000000000000912019113020191211121910500700011PENSION NOV 2019 CAR  *
D081777997014  00177674580       2017/159363    TUCTO ANICAMA  JHAIR00000000486000000000000000000000000000000000000000000000802019113020191211121930500700042PENSION NOV 2019 SJL  *
D081777997014  00177674580       2017/160195    TUCTO ANICAMA  JHAIR00000000486000000000000000000000000000000000000000000000002019122120191211121930500700042PENSION DIC 2019 SJL  *
D081777997014  00173610363       2017/158586    TUCTO ANICAMA  JHARE00000000486000000000000000000000000000000000000000000000802019113020191211121930500700043PENSION NOV 2019 SJL  *
D081777997014  00173610363       2017/160470    TUCTO ANICAMA  JHARE00000000486000000000000000000000000000000000000000000000002019122120191211121930500700043PENSION DIC 2019 SJL  *
D081777997014  00161907673       2017/158673    TUCTO ANICAMA  JHOST00000000495000000000000000000000000000000000000000000000822019113020191211121930500700044PENSION NOV 2019 SJL  *
D081777997014  00161907673       2017/159638    TUCTO ANICAMA  JHOST00000000495000000000000000000000000000000000000000000000002019122120191211121930500700044PENSION DIC 2019 SJL  *
D081777997014  00177615143       2017/159043    GARCIA VASQUEZ  EVOL00000000550000000000000000000000000000000000000000000000912019113020191211122190500700026PENSION NOV 2019 SJL  *
D081777997014  00160767446       2017/158577    GARCIA VASQUEZ  JUAN00000000486000000000000000000000000000000000000000000000802019113020191211122190500700027PENSION NOV 2019 SJL  *
D081777997014  00173851990       2017/78241542  HERCILLA USQUIANO  L00000000640000000000000000000000000000000000000000000001062019113020191211222240500700039PENSION NOV 2019 COL  *
D081777997014  00173851990       2017/78242757  HERCILLA USQUIANO  L00000000640000000000000000000000000000000000000000000000002019122120191211222240500700039PENSION DIC 2019 COL  *
D081777997014  00174750328       2017/160422    MORENO ARROYO  WILME00000000540000000000000000000000000000000000000000000000002019122120191211122440500700023PENSION DIC 2019 SJL  *
D081777997014  00181474605       2017/159529    REYES PAYAJO  FARID 00000000560000000000000000000000000000000000000000000000002019122120191211122470500700005PENSION DIC 2019 SJL  *
D081777997014  00171362087       2017/153856    AQUINO LLAMOCA  PIER00000000550000000000000000000000000000000000000000000013532019063020191211122470500700006PENSION JUN 2019 SJL  *
D081777997014  00176760893       2017/154028    AQUINO LLAMOCA  VALE00000000486000000000000000000000000000000000000000000011962019063020191211122470500700007PENSION JUN 2019 SJL  *
D081777997014  00174338252       2017/158985    BELLIDO BEJARANO  DA00000000495000000000000000000000000000000000000000000000822019113020191211122470500700057PENSION NOV 2019 SJL  *
D081777997014  00174338252       2017/159925    BELLIDO BEJARANO  DA00000000495000000000000000000000000000000000000000000000002019122120191211122470500700057PENSION DIC 2019 SJL  *
D081777997014  00177933572       2017/158680    BELLIDO BEJARANO  EM00000000550000000000000000000000000000000000000000000000912019113020191211122470500700058PENSION NOV 2019 SJL  *
D081777997014  00177933572       2017/159645    BELLIDO BEJARANO  EM00000000550000000000000000000000000000000000000000000000002019122120191211122470500700058PENSION DIC 2019 SJL  *
D081777997014  00161178134       2017/78239456  CABALLERO REAP  MATH00000000640000000000000000000000000000000000000000000003942019103120191211122540500700014PENSION OCT 2019 COL  *
D081777997014  00161178134       2017/78241241  CABALLERO REAP  MATH00000000640000000000000000000000000000000000000000000001062019113020191211122540500700014PENSION NOV 2019 COL  *
D081777997014  00161178134       2017/78242456  CABALLERO REAP  MATH00000000640000000000000000000000000000000000000000000000002019122120191211122540500700014PENSION DIC 2019 COL  *
D081777997014  00172055084       2017/78242608  CHAVEZ GAMBOA  CAMIL00000000640000000000000000000000000000000000000000000000002019122120191211122540500700057PENSION DIC 2019 COL  *
D081777997014  00177953014       2017/158965    ARANIBAR SILVA  CAMI00000000385000000000000000000000000000000000000000000000642019113020191211122540500700086PENSION NOV 2019 SJL  *
D081777997014  00175026620       2017/80010792  HUACHO AYBAR  DANIEL00000000550000000000000000000000000000000000000000000000002020033120191211122660500700026PENSION MAR 2019 CAR  *
D081777997014  00175026620       2017/80011232  HUACHO AYBAR  DANIEL00000000550000000000000000000000000000000000000000000000002020043020191211122660500700026PENSION ABR 2019 CAR  *
D081777997014  00175026620       2017/80011733  HUACHO AYBAR  DANIEL00000000550000000000000000000000000000000000000000000000002020053120191211122660500700026PENSION MAY 2019 CAR  *
D081777997014  00175026620       2017/80012180  HUACHO AYBAR  DANIEL00000000550000000000000000000000000000000000000000000000002020063020191211122660500700026PENSION JUN 2019 CAR  *
D081777997014  00175026620       2017/80012685  HUACHO AYBAR  DANIEL00000000550000000000000000000000000000000000000000000000002020073120191211122660500700026PENSION JUL 2019 CAR  *
D081777997014  00175026620       2017/80013102  HUACHO AYBAR  DANIEL00000000550000000000000000000000000000000000000000000000002020083120191211122660500700026PENSION AGO 2019 CAR  *
D081777997014  00172317852       2017/78241122  PANANA ZAPATA  CARLO00000000640000000000000000000000000000000000000000000001062019113020191211126610500700022PENSION NOV 2019 COL  *
D081777997014  00173440939       2017/78241816  PAZ DIAZ  FLAVIA MAC00000000640000000000000000000000000000000000000000000000002019122120191211126610500700025PENSION DIC 2019 COL  *
D081777997014  00179282192       2017/159573    HUARANGA LAZARO  SOF00000000560000000000000000000000000000000000000000000000002019122120191211226800500700036PENSION DIC 2019 SJL  *
D081777997014  00178241953       2017/159539    HUARANGA LAZARO  TAT00000000504000000000000000000000000000000000000000000000002019122120191211226800500700039PENSION DIC 2019 SJL  *
D081777997014  00175674455       2017/154996    SIMPE VENTURA  CARLA00000000486000000000000000000000000000000000000000000009702019073120191211126860500700003PENSION JUL 2019 SJL  *
D081777997014  00175674455       2017/156375    SIMPE VENTURA  CARLA00000000486000000000000000000000000000000000000000000007442019083120191211126860500700003PENSION AGO 2019 SJL  *
D081777997014  00175674455       2017/157397    SIMPE VENTURA  CARLA00000000486000000000000000000000000000000000000000000005252019093020191211126860500700003PENSION SEP 2019 SJL  *
D081777997014  00177967179       2017/154459    SIMPE VENTURA  PEDRO00000000550000000000000000000000000000000000000000000010972019073120191211126860500700004PENSION JUL 2019 SJL  *
D081777997014  00177967179       2017/155849    SIMPE VENTURA  PEDRO00000000550000000000000000000000000000000000000000000008422019083120191211126860500700004PENSION AGO 2019 SJL  *
D081777997014  00175599853       2017/158321    MIRAVAL ESPINOZA  TA00000000540000000000000000000000000000000000000000000003322019103120191211126860500700006PENSION OCT 2019 SJL  *
D081777997014  00175599853       2017/158481    MIRAVAL ESPINOZA  TA00000000540000000000000000000000000000000000000000000000892019113020191211126860500700006PENSION NOV 2019 SJL  *
D081777997014  00162023885       2017/159052    HUAMAN PACHECO  ANGH00000000550000000000000000000000000000000000000000000000912019113020191211126860500700008PENSION NOV 2019 SJL  *
D081777997014  00178476711       2017/156497    MELGAREJO CHUMACERO 00000000560000000000000000000000000000000000000000000006052019093020191211126860500700010PENSION SEP 2019 SJL  *
D081777997014  00178476711       2017/157651    MELGAREJO CHUMACERO 00000000560000000000000000000000000000000000000000000003442019103120191211126860500700010PENSION OCT 2019 SJL  *
D081777997014  00178476711       2017/158623    MELGAREJO CHUMACERO 00000000560000000000000000000000000000000000000000000000922019113020191211126860500700010PENSION NOV 2019 SJL  *
D081777997014  00161771369       2017/160121    CERVANTES MEZA  GENE00000000495000000000000000000000000000000000000000000000002019122120191211126910500700039PENSION DIC 2019 SJL  *
D081777997014  00177716794       2017/160067    CERVANTES MEZA  ALIC00000000550000000000000000000000000000000000000000000000002019122120191211126910500700040PENSION DIC 2019 SJL  *
D081777997014  00173559316       2017/159933    ROJAS VARA  LUIS FER00000000550000000000000000000000000000000000000000000000002019122120191211126910500700043PENSION DIC 2019 SJL  *
D081777997014  00175341271       2017/159340    PEREZ MEDINA  ANA CA00000000540000000000000000000000000000000000000000000000892019113020191211127420500700079PENSION NOV 2019 SJL  *
D081777997014  00160881195       2017/78238600  VIDAL ESTRADA  JUAN 00000000576000000000000000000000000000000000000000000006222019093020191211227844651000498PENSION SEP 2019 COL  *
D081777997014  00161860175       2017/78239117  VIDAL ESTRADA  MAXIM00000000640000000000000000000000000000000000000000000006912019093020191211227844651000499PENSION SEP 2019 COL  *
D081777997014  00160881195       2017/78240480  VIDAL ESTRADA  JUAN 00000000576000000000000000000000000000000000000000000003542019103120191211227844651000514PENSION OCT 2019 COL  *
D081777997014  00161860175       2017/78239762  VIDAL ESTRADA  MAXIM00000000640000000000000000000000000000000000000000000003942019103120191211227844651000515PENSION OCT 2019 COL  *
D081777997014  00160881195       2017/78241050  VIDAL ESTRADA  JUAN 00000000576000000000000000000000000000000000000000000000952019113020191211227844651000531PENSION NOV 2019 COL  *
D081777997014  00161860175       2017/78241547  VIDAL ESTRADA  MAXIM00000000640000000000000000000000000000000000000000000001062019113020191211227844651000532PENSION NOV 2019 COL  *
D081777997014  00160881195       2017/78242222  VIDAL ESTRADA  JUAN 00000000576000000000000000000000000000000000000000000000002019122120191211227844651000539PENSION DIC 2019 COL  *
D081777997014  00161860175       2017/78242762  VIDAL ESTRADA  MAXIM00000000640000000000000000000000000000000000000000000000002019122120191211227844651000540PENSION DIC 2019 COL  *
D081777997014  00160769833       2017/158437    CUELLAR BELLO  RONAL00000000540000000000000000000000000000000000000000000003322019103120191211227844651004138PENSION OCT 2019 SJL  *
D081777997014  00173051952       2017/78240650  ARRAYAN JUAREZ  ADRI00000000640000000000000000000000000000000000000000000001062019113020191211227844651004572PENSION NOV 2019 COL  *
D081777997014  00173051952       2017/78241746  ARRAYAN JUAREZ  ADRI00000000640000000000000000000000000000000000000000000000002019122120191211227844651004648PENSION DIC 2019 COL  *
D081777997014  00178040090       2017/80015381  POTENCIANO CRUZ  ARA00000000385000000000000000000000000000000000000000000000002019122120191211227844651007738PENSION DIC 2019 CAR  *
D081777997014  00173577258       2017/78241876  CUEVA HILARES  ALEJA00000000640000000000000000000000000000000000000000000000002019122120191211227844651007783PENSION DIC 2019 COL  *
D081777997014  00162050139       2017/80013657  AGREDA CARRILLO  JOA00000000550000000000000000000000000000000000000000000005942019093020191211227844651008992PENSION SEP 2019 CAR  *
D081777997014  00162050139       2017/80014093  AGREDA CARRILLO  JOA00000000550000000000000000000000000000000000000000000003382019103120191211227844651008993PENSION OCT 2019 CAR  *
D081777997014  00162050139       2017/80014666  AGREDA CARRILLO  JOA00000000550000000000000000000000000000000000000000000000912019113020191211227844651008994PENSION NOV 2019 CAR  *
D081777997014  00162050139       2017/80015088  AGREDA CARRILLO  JOA00000000550000000000000000000000000000000000000000000000002019122120191211227844651008995PENSION DIC 2019 CAR  *
D081777997014  00177376028       2017/78235077  MAGALLANES FAILOC  S00000000560000000000000000000000000000000000000000000013782019063020191211227844651009565PENSION JUN 2019 COL  *
D081777997014  00161106026       2017/78242449  CASTILLO PINTADO  MA00000000640000000000000000000000000000000000000000000000002019122120191211227844651010464PENSION DIC 2019 COL  *
D081777997014  00172629256       FF19/1532      CASTILLO PINTADO  VA00000000640000000000000000000000000000000000000000000000002019122120191211227844651010469PENSION DIC 2019 COL  *
D081777997014  00160748203       2017/78240684  PIPA ASPILCUETA  LUC00000000448000000000000000000000000000000000000000000000742019113020191211227844651012120PENSION NOV 2019 COL  *
D081777997014  00170950998       2017/78241222  PIPA ASPILCUETA  VAL00000000448000000000000000000000000000000000000000000000742019113020191211227844651012138PENSION NOV 2019 COL  *
D081777997014  00170950998       2017/78242437  PIPA ASPILCUETA  VAL00000000448000000000000000000000000000000000000000000000002019122120191211227844651012496PENSION DIC 2019 COL  *
D081777997014  00160748203       2017/78241780  PIPA ASPILCUETA  LUC00000000448000000000000000000000000000000000000000000000002019122120191211227844651012518PENSION DIC 2019 COL  *
D081777997014  00177897047       2017/78242870  SALDANA ORTEGA  ALEH00000000560000000000000000000000000000000000000000000000002019122120191211227844651012559PENSION DIC 2019 COL  *
D081777997014  00175375628       2017/78235539  CHUMIOQUE HIDALGO  A00000000640000000000000000000000000000000000000000000015742019063020191211227844651012789PENSION JUN 2019 COL  *
D081777997014  00175375628       2017/78235864  CHUMIOQUE HIDALGO  A00000000640000000000000000000000000000000000000000000012772019073120191211227844651012790PENSION JUL 2019 COL  *
D081777997014  00175375628       2017/78237234  CHUMIOQUE HIDALGO  A00000000640000000000000000000000000000000000000000000009792019083120191211227844651012791PENSION AGO 2019 COL  *
D081777997014  00177521123       2017/78242740  AVILA ALVAREZ  LUANA00000000560000000000000000000000000000000000000000000000002019122120191211228600500700057PENSION DIC 2019 COL  *
T081777997014  00101PENSION                       081777997014  000000002058142                                                                                                    *
T081777997014  00102PENSION SAN JUAN              081777997014  000000001936329                                                                                                    *
T081777997014  00103PENSION                       081777997014  000000000699440                                                                                                    *
H081777997014  003000001100000000056765000000000000020191211                                                                                                                       *
D081777997014  00362601244       2017/80016002  CASTANEDA TAFUR  JOS00000000476000000000000000000000000000000000000000000000002019122120191211120920500700142MATRICULA CAR         *
D081777997014  00373294701       2017/161086    RODRIGUEZ PINARES  D00000000484500000000000000000000000000000000000000000000002019122120191211121440500700002MATRICULA SJL         *
D081777997014  00372629355       2017/161087    RODRIGUEZ PINARES  D00000000484500000000000000000000000000000000000000000000002019122120191211121440500700003MATRICULA SJL         *
D081777997014  00374327102       2017/78243745  CHANDUVI MUNOZ  CARL00000000569500000000000000000000000000000000000000000000002019122120191211122430500700054MATRICULA COL         *
D081777997014  00377560370       2017/161015    ARROYO ALAYO  RENATO00000000484500000000000000000000000000000000000000000000002019122120191211122470500700011MATRICULA SJL         *
D081777997014  00374346203       2017/161080    OLORTEGUI ALEJO  JOA00000000484500000000000000000000000000000000000000000000002019122120191211122470500700025MATRICULA SJL         *
D081777997014  00361932347       2017/161088    MIRANDA YOVERA  MARI00000000484500000000000000000000000000000000000000000000002019122120191211122470500700080MATRICULA SJL         *
D081777997014  00361497403       2017/161085    NAPURI PALACIOS  MAR00000000484500000000000000000000000000000000000000000000002019122120191211127420500700049MATRICULA SJL         *
D081777997014  00376716689       2017/78243731  MENDEZ GARCIA  ESTEF00000000670000000000000000000000000000000000000000000000002019122120191211227844651002152MATRICULA COL         *
D081777997014  00377372156       2017/78243730  ARANDA CARHUAS  FIOR00000000569500000000000000000000000000000000000000000000002019122120191211227844651006106MATRICULA COL         *
D081777997014  00378066153       2017/161082    RUIZ CHAVEZ  RODRIGO00000000484500000000000000000000000000000000000000000000002019122120191211227844651009138MATRICULA SJL         *
T081777997014  00304MATRICULA                     081777997014  000000000180900                                                                                                    *
T081777997014  00306MATRICULA SJL - PREMATRICULA  081777997014  000000000339150                                                                                                    *
T081777997014  00308MATRICULA CAR 2019            081777997014  000000000047600                                                                                                    *
