H081777997014  001000008800000000492843100000000000020191204                                                                                                                       *
D081777997014  00174267692       2017/157673    VEGA PINEDO  VALERIA00000000550000000000000000000000000000000000000000000002812019103120191204120100500700365PENSION OCT 2019 SJL  *
D081777997014  00161423716       2017/80015331  CRISOSTOMO ALBORNOZ 00000000385000000000000000000000000000000000000000000000002019122120191204120210500700016PENSION DIC 2019 CAR  *
D081777997014  00174712130       2017/80014424  ALVEAR HUAMAN  ARIAN00000000540000000000000000000000000000000000000000000000322019113020191204120210500700031PENSION NOV 2019 CAR  *
D081777997014  00176899834       2017/80014255  ROMERO LOZANO  OCTAV00000000550000000000000000000000000000000000000000000002812019103120191204120210500700046PENSION OCT 2019 CAR  *
D081777997014  00176899834       2017/80014732  ROMERO LOZANO  OCTAV00000000550000000000000000000000000000000000000000000000332019113020191204120210500700046PENSION NOV 2019 CAR  *
D081777997014  00176899834       2017/80015213  ROMERO LOZANO  OCTAV00000000550000000000000000000000000000000000000000000000002019122120191204120210500700046PENSION DIC 2019 CAR  *
D081777997014  00178496209       2017/160873    RIMAC QUISPE  CIELO 00000000560000000000000000000000000000000000000000000005462019093020191204220550500700160PENSION SEP 2019 SJL  *
D081777997014  00178496209       2017/160874    RIMAC QUISPE  CIELO 00000000560000000000000000000000000000000000000000000002862019103120191204220550500700160PENSION OCT 2019 SJL  *
D081777997014  00175236719       2017/158482    VALVERDE LOPEZ  JOSU00000000540000000000000000000000000000000000000000000000322019113020191204120580500700063PENSION NOV 2019 SJL  *
D081777997014  00175204051       2017/78242285  CORDOVA RUBIANES  LO00000000480000000000000000000000000000000000000000000000002019122120191204220700500700033PENSION DIC 2019 COL  *
D081777997014  00170739095       2017/158967    ALDANA FRANCIA  AILE00000000550000000000000000000000000000000000000000000000332019113020191204121440500700005PENSION NOV 2019 SJL  *
D081777997014  00175632922       2017/78241292  BAUTISTA DIAZ  MARIA00000000640000000000000000000000000000000000000000000000382019113020191204121770500700025PENSION NOV 2019 COL  *
D081777997014  00174012401       2017/78239804  VELASQUEZ MAYTA  CAM00000000640000000000000000000000000000000000000000000003262019103120191204121770500700058PENSION OCT 2019 COL  *
D081777997014  00174130194       2017/78240322  VELASQUEZ MAYTA  JAZ00000000576000000000000000000000000000000000000000000002942019103120191204121770500700059PENSION OCT 2019 COL  *
D081777997014  00172996047       2017/80012719  RAMIREZ TORRES  YURI00000000495000000000000000000000000000000000000000000009362019073120191204121910500700001PENSION JUL 2019 CAR  *
D081777997014  00172996047       2017/80013136  RAMIREZ TORRES  YURI00000000495000000000000000000000000000000000000000000007052019083120191204121910500700002PENSION AGO 2019 CAR  *
D081777997014  00176103968       2017/80013996  RAMIREZ TORRES  BIAN00000000550000000000000000000000000000000000000000000002812019103120191204121910500700003PENSION OCT 2019 CAR  *
D081777997014  00177925323       2017/80014622  MAMANI GAONA  JADE A00000000550000000000000000000000000000000000000000000000332019113020191204121930500700048PENSION NOV 2019 CAR  *
D081777997014  00178156990       2017/158778    CHURA DOCUMET  LOGAN00000000560000000000000000000000000000000000000000000000342019113020191204122100500700056PENSION NOV 2019 SJL  *
D081777997014  00177398901       2017/78241476  TOLENTINO GODOY  MAT00000000560000000000000000000000000000000000000000000000342019113020191204122160500700024PENSION NOV 2019 COL  *
D081777997014  00176691223       2017/78241068  BALDEON FLORES  MICH00000000640000000000000000000000000000000000000000000000382019113020191204122160500700188PENSION NOV 2019 COL  *
D081777997014  00177937228       2017/158671    REBOLLEDO SANTIAGO  00000000550000000000000000000000000000000000000000000000332019113020191204122190500700002PENSION NOV 2019 SJL  *
D081777997014  00174694520       2017/78241128  SULLCA SANCHEZ  VANE00000000640000000000000000000000000000000000000000000000382019113020191204122310500700049PENSION NOV 2019 COL  *
D081777997014  00177455004       2017/159230    CORDOVA FLORES  MIRK00000000495000000000000000000000000000000000000000000000302019113020191204122390500700022PENSION NOV 2019 SJL  *
D081777997014  00177455004       2017/160092    CORDOVA FLORES  MIRK00000000495000000000000000000000000000000000000000000000002019122120191204122390500700022PENSION DIC 2019 SJL  *
D081777997014  00178057230       2017/158796    CORDOVA FLORES  THIA00000000560000000000000000000000000000000000000000000000342019113020191204122390500700023PENSION NOV 2019 SJL  *
D081777997014  00178057230       2017/159544    CORDOVA FLORES  THIA00000000560000000000000000000000000000000000000000000000002019122120191204122390500700023PENSION DIC 2019 SJL  *
D081777997014  00173294701       2017/158948    RODRIGUEZ PINARES  D00000000550000000000000000000000000000000000000000000000332019113020191204122470500700035PENSION NOV 2019 SJL  *
D081777997014  00172629355       2017/159415    RODRIGUEZ PINARES  D00000000486000000000000000000000000000000000000000000000292019113020191204122470500700036PENSION NOV 2019 SJL  *
D081777997014  00160189854       2017/157399    LUIS MANUEL  VALERIA00000000540000000000000000000000000000000000000000000005272019093020191204122470500700078PENSION SEP 2019 SJL  *
D081777997014  00173689303       2017/160201    PEREZ SEVILLANO  ERI00000000540000000000000000000000000000000000000000000000002019122120191204122470500700108PENSION DIC 2019 SJL  *
D081777997014  00161876929       2017/78239156  CAM BACA  GABRIEL CR00000000640000000000000000000000000000000000000000000006242019093020191204122540500700021PENSION SEP 2019 COL  *
D081777997014  00177312028       2017/78241486  HERRERA CERNA  LUCIA00000000560000000000000000000000000000000000000000000000342019113020191204122540500700024PENSION NOV 2019 COL  *
D081777997014  00177313415       2017/78241510  BARBOZA LEON  AUDREY00000000560000000000000000000000000000000000000000000000342019113020191204222540500700083PENSION NOV 2019 COL  *
D081777997014  00162023746       2017/78241327  BARBOZA LEON  JEAN P00000000576000000000000000000000000000000000000000000000352019113020191204222540500700086PENSION NOV 2019 COL  *
D081777997014  00161967867       2017/78241528  RODRIGUEZ CONDORI  M00000000640000000000000000000000000000000000000000000000382019113020191204122540500700101PENSION NOV 2019 COL  *
D081777997014  00161967867       2017/78242743  RODRIGUEZ CONDORI  M00000000640000000000000000000000000000000000000000000000002019122120191204122540500700101PENSION DIC 2019 COL  *
D081777997014  00171618626       2017/78242239  CARDENAS LUQUE  MARI00000000640000000000000000000000000000000000000000000000002019122120191204122540500700124PENSION DIC 2019 COL  *
D081777997014  00172564489       2017/78240661  TARAZONA HUAMAN  VIC00000000640000000000000000000000000000000000000000000000382019113020191204122540500700133PENSION NOV 2019 COL  *
D081777997014  00172776718       2017/78238524  RODRIGUEZ ANGELES  G00000000640000000000000000000000000000000000000000000006242019093020191204122540500700158PENSION SEP 2019 COL  *
D081777997014  00172776718       2017/78240424  RODRIGUEZ ANGELES  G00000000640000000000000000000000000000000000000000000003262019103120191204122540500700158PENSION OCT 2019 COL  *
D081777997014  00181213858       2017/80014021  RAMON PALOMARES  ALE00000000560000000000000000000000000000000000000000000002862019103120191204122550500700054PENSION OCT 2019 CAR  *
D081777997014  00181213858       2017/80014347  RAMON PALOMARES  ALE00000000560000000000000000000000000000000000000000000000342019113020191204122550500700054PENSION NOV 2019 CAR  *
D081777997014  00181213858       2017/80014873  RAMON PALOMARES  ALE00000000560000000000000000000000000000000000000000000000002019122120191204122550500700054PENSION DIC 2019 CAR  *
D081777997014  00175170335       2017/160351    ESPINOZA ZAMBRANO  A00000000540000000000000000000000000000000000000000000000002019122120191204122640500700046PENSION DIC 2019 SJL  *
D081777997014  00170634875       2017/78241147  AYESTA ROJAS  ANDERS00000000640000000000000000000000000000000000000000000000382019113020191204124450500700152PENSION NOV 2019 COL  *
D081777997014  00172595136       2017/80015448  CAMPOMANES PAREDES  00000000385000000000000000000000000000000000000000000003752019093020191204225350500700028PENSION SEP 2019 CAR  *
D081777997014  00172595136       2017/80015449  CAMPOMANES PAREDES  00000000385000000000000000000000000000000000000000000001962019103120191204225350500700028PENSION OCT 2019 CAR  *
D081777997014  00177871044       2017/78241644  SULCA PEREZ PALMA  D00000000560000000000000000000000000000000000000000000000342019113020191204226800500700006PENSION NOV 2019 COL  *
D081777997014  00170528170       2017/160196    BRANES BELTRAN  ALVA00000000486000000000000000000000000000000000000000000000002019122120191204126860500700003PENSION DIC 2019 SJL  *
D081777997014  00176758199       2017/158439    USCUVILCA GALICIA  A00000000486000000000000000000000000000000000000000000002482019103120191204126860500700004PENSION OCT 2019 SJL  *
D081777997014  00173716697       2017/157864    USCUVILCA GALICIA  N00000000550000000000000000000000000000000000000000000002812019103120191204126860500700005PENSION OCT 2019 SJL  *
D081777997014  00178160773       2017/158764    CHARCAPE ADRIANZEN  00000000560000000000000000000000000000000000000000000000342019113020191204126860500700008PENSION NOV 2019 SJL  *
D081777997014  00170964289       2017/159265    MIRAVAL SANCHEZ  JUL00000000550000000000000000000000000000000000000000000000332019113020191204126860500700010PENSION NOV 2019 SJL  *
D081777997014  00175869760       2017/158543    MEREGILDO VELASQUEZ 00000000540000000000000000000000000000000000000000000000322019113020191204126910500700020PENSION NOV 2019 SJL  *
D081777997014  00177362128       2017/160085    SALAZAR PALACIOS  VI00000000550000000000000000000000000000000000000000000000002019122120191204126910500700037PENSION DIC 2019 SJL  *
D081777997014  00176115746       2017/157994    ZEVALLOS REYES  LUCI00000000495000000000000000000000000000000000000000000002522019103120191204126910500700088PENSION OCT 2019 SJL  *
D081777997014  00176115746       2017/159173    ZEVALLOS REYES  LUCI00000000495000000000000000000000000000000000000000000000302019113020191204126910500700088PENSION NOV 2019 SJL  *
D081777997014  00177759877       2017/157700    ZEVALLOS REYES  LUCI00000000550000000000000000000000000000000000000000000002812019103120191204126910500700089PENSION OCT 2019 SJL  *
D081777997014  00177759877       2017/158672    ZEVALLOS REYES  LUCI00000000550000000000000000000000000000000000000000000000332019113020191204126910500700089PENSION NOV 2019 SJL  *
D081777997014  00177724840       2017/158928    SPONZA ESPINOZA  LEO00000000550000000000000000000000000000000000000000000000332019113020191204126910500700111PENSION NOV 2019 SJL  *
D081777997014  00173386279       2017/159285    SPONZA ESPINOZA  LUI00000000486000000000000000000000000000000000000000000000292019113020191204126910500700112PENSION NOV 2019 SJL  *
D081777997014  00177049043       2017/158535    REANO CCOSCCO  CRIST00000000540000000000000000000000000000000000000000000000322019113020191204127420500700012PENSION NOV 2019 SJL  *
D081777997014  00177049043       2017/160404    REANO CCOSCCO  CRIST00000000540000000000000000000000000000000000000000000000002019122120191204127420500700012PENSION DIC 2019 SJL  *
D081777997014  00173093575       2017/78240775  FLORES CASAS  CHRIST00000000640000000000000000000000000000000000000000000000382019113020191204227844651000626PENSION NOV 2019 COL  *
D081777997014  00177875388       2017/156517    VELIZ GUERRA  MATIAS00000000550000000000000000000000000000000000000000000005362019093020191204227844651001684PENSION SEP 2019 SJL  *
D081777997014  00161253344       2017/159958    OBISPO CUSACANI  GON00000000385000000000000000000000000000000000000000000000002019122120191204227844651002027PENSION DIC 2019 SJL  *
D081777997014  00177655119       2017/78241653  FERNANDEZ VARGAS  SA00000000560000000000000000000000000000000000000000000000342019113020191204227844651004342PENSION NOV 2019 COL  *
D081777997014  00174343042       2017/151569    ESTRADA JIMENEZ  LIN00000000550000000000000000000000000000000000000000000017992019043020191204227844651006826PENSION ABR 2019 SJL  *
D081777997014  00173559213       2017/78241604  CONDORI ACOSTA  ARIA00000000640000000000000000000000000000000000000000000000382019113020191204227844651008167PENSION NOV 2019 COL  *
D081777997014  00170590906       2017/158561    VENERO MORI  CRISTHI00000000540000000000000000000000000000000000000000000000322019113020191204227844651008680PENSION NOV 2019 SJL  *
D081777997014  00170937305       FF19/1496      ANDONAIRE BRANDAN  A00000000640000000000000000000000000000000000000000000012102019073120191204227844651009751PENSION JUL 2019 COL  *
D081777997014  00177864009       2017/78236868  ANDONAIRE BRANDAN  B00000000560000000000000000000000000000000000000000000010582019073120191204227844651009752PENSION JUL 2019 COL  *
D081777997014  00170937305       FF19/1497      ANDONAIRE BRANDAN  A00000000640000000000000000000000000000000000000000000009122019083120191204227844651009759PENSION AGO 2019 COL  *
D081777997014  00177864009       2017/78236926  ANDONAIRE BRANDAN  B00000000560000000000000000000000000000000000000000000007982019083120191204227844651009760PENSION AGO 2019 COL  *
D081777997014  00170937305       FF19/1498      ANDONAIRE BRANDAN  A00000000640000000000000000000000000000000000000000000006242019093020191204227844651009764PENSION SEP 2019 COL  *
D081777997014  00177864009       2017/78239283  ANDONAIRE BRANDAN  B00000000560000000000000000000000000000000000000000000005462019093020191204227844651009766PENSION SEP 2019 COL  *
D081777997014  00170937305       FF19/1499      ANDONAIRE BRANDAN  A00000000640000000000000000000000000000000000000000000003262019103120191204227844651009768PENSION OCT 2019 COL  *
D081777997014  00177864009       2017/78239928  ANDONAIRE BRANDAN  B00000000560000000000000000000000000000000000000000000002862019103120191204227844651009769PENSION OCT 2019 COL  *
D081777997014  00170937305       FF19/1500      ANDONAIRE BRANDAN  A00000000640000000000000000000000000000000000000000000000382019113020191204227844651009783PENSION NOV 2019 COL  *
D081777997014  00177864009       2017/78241713  ANDONAIRE BRANDAN  B00000000560000000000000000000000000000000000000000000000342019113020191204227844651009784PENSION NOV 2019 COL  *
D081777997014  00176482092       2017/78241288  ASTONITAS DENEGRI  E00000000640000000000000000000000000000000000000000000000382019113020191204227844651011903PENSION NOV 2019 COL  *
D081777997014  00179319593       2017/78240623  RODRIGUEZ ORE  SKEYL00000000560000000000000000000000000000000000000000000000342019113020191204227844651012526PENSION NOV 2019 COL  *
D081777997014  00171701235       2017/158357    CORDOVA OLAZA  JAZMI00000000486000000000000000000000000000000000000000000002482019103120191204227844651013409PENSION OCT 2019 SJL  *
D081777997014  00174133932       2017/78240938  QUISPE VALENCIA  PED00000000640000000000000000000000000000000000000000000000382019113020191204129470500700100PENSION NOV 2019 COL  *
D081777997014  00174133932       2017/78242047  QUISPE VALENCIA  PED00000000640000000000000000000000000000000000000000000000002019122120191204129470500700100PENSION DIC 2019 COL  *
D081777997014  00178044717       2017/159100    VILLANUEVA BARRA  JO00000000550000000000000000000000000000000000000000000000332019113020191204129470500700320PENSION NOV 2019 SJL  *
D081777997014  00160574978       2017/159112    VILLANUEVA BARRA  KY00000000495000000000000000000000000000000000000000000000302019113020191204129470500700322PENSION NOV 2019 SJL  *
T081777997014  00101PENSION                       081777997014  000000002195845                                                                                                    *
T081777997014  00102PENSION SAN JUAN              081777997014  000000002017894                                                                                                    *
T081777997014  00103PENSION                       081777997014  000000000714692                                                                                                    *
H081777997014  003000000500000000025930000000000000020191204                                                                                                                       *
D081777997014  00379700714       2017/160999    HUAMANI ROSALES  AND00000000570000000000000000000000000000000000000000000000002019113020191204122470500700052MATRICULA SJL         *
D081777997014  00376276502       2017/78243677  BOSSIO LOZANO  ILEMH00000000569500000000000000000000000000000000000000000000002019122120191204122540500700095MATRICULA COL         *
D081777997014  00377304942       2017/161027    IPUSHIMA CANCHERO  I00000000484500000000000000000000000000000000000000000000002019122120191204126910500700069MATRICULA SJL         *
D081777997014  00371407200       2017/161020    AYALA HUARINGA  JUAN00000000484500000000000000000000000000000000000000000000002019122120191204227420500700052MATRICULA SJL         *
D081777997014  00373572071       2017/161033    LOZADA BORJAS  JOSE 00000000484500000000000000000000000000000000000000000000002019122120191204227844651007230MATRICULA SJL         *
T081777997014  00304MATRICULA                     081777997014  000000000056950                                                                                                    *
T081777997014  00306MATRICULA SJL - PREMATRICULA  081777997014  000000000202350                                                                                                    *
H081777997014  009000000500000000003600000000000000020191204                                                                                                                       *
D081777997014  00976570502       FF19/2287      TORRES AGUILAR  GABR00000000120000000000000000000000000000000000000000000000002019122120191204120110500700139CERT ESTUDIO COL DIC  *
D081777997014  00970950825       FF19/2229      CCASANI NAPA  DIEGO 00000000060000000000000000000000000000000000000000000000002019113020191204120210500700091CERT ESTUDIO COL NOV  *
D081777997014  00971737451       FF19/2286      CCORISAPRA CUNZA  SA00000000060000000000000000000000000000000000000000000000002019122120191204120580500700019CERT ESTUDIOS SJL DI  *
D081777997014  00946541471       FF19/2284      CHINGA  TORRES  JUAN00000000060000000000000000000000000000000000000000000000002019122120191204122140500700048CERT ESTUDIOS SJL DI  *
D081777997014  00973110612       FF19/2285      LUJAN  OLAYA  KATHER00000000060000000000000000000000000000000000000000000000002019122120191204126850500700028CERT ESTUDIOS SJL DI  *
T081777997014  00925CERT ESTUDIO-COL              081777997014  000000000018000                                                                                                    *
T081777997014  00954CERT ESTUDIOS SJL             081777997014  000000000018000                                                                                                    *
