H081777997014  001000007400000000422351800000000000020191214                                                                                                                       *
D081777997014  00173044657       2017/78238452  LANDA ARENAS  CHRIST00000000640000000000000000000000000000000000000000000007202019093020191214120120500700001PENSION SEP 2019 COL  *
D081777997014  00173044657       2017/78240251  LANDA ARENAS  CHRIST00000000640000000000000000000000000000000000000000000004222019103120191214120120500700001PENSION OCT 2019 COL  *
D081777997014  00171147598       2017/80013681  PALOMINO DELGADO  AR00000000550000000000000000000000000000000000000000000006192019093020191214120190500700089PENSION SEP 2019 CAR  *
D081777997014  00171147598       2017/80014117  PALOMINO DELGADO  AR00000000550000000000000000000000000000000000000000000003632019103120191214120190500700089PENSION OCT 2019 CAR  *
D081777997014  00175385572       2017/80003401  VARA BARLETTI  GONZA00000000510000000000000000000000000000000000000000000047662018033120191214120210500700063PENSION MAR 2018 CAR  *
D081777997014  00175385572       2017/80003402  VARA BARLETTI  GONZA00000000510000000000000000000000000000000000000000000045362018043020191214120210500700063PENSION ABR 2018 CAR  *
D081777997014  00175385572       2017/80003403  VARA BARLETTI  GONZA00000000510000000000000000000000000000000000000000000042992018053120191214120210500700063PENSION MAY 2018 CAR  *
D081777997014  00175385572       2017/80003404  VARA BARLETTI  GONZA00000000510000000000000000000000000000000000000000000040702018063020191214120210500700063PENSION JUN 2018 CAR  *
D081777997014  00174303956       2017/160246    CORONADO QUICANO  NA00000000540000000000000000000000000000000000000000000000002019122120191214220550500700035PENSION DIC 2019 SJL  *
D081777997014  00175890061       2017/78240922  TORPOCO BENDEZU  ABI00000000576000000000000000000000000000000000000000000001212019113020191214121770500700001PENSION NOV 2019 COL  *
D081777997014  00175638335       2017/78241245  TORPOCO BENDEZU  HAR00000000576000000000000000000000000000000000000000000001212019113020191214121770500700002PENSION NOV 2019 COL  *
D081777997014  00178089328       2017/78241733  TORPOCO BENDEZU  MAT00000000504000000000000000000000000000000000000000000001062019113020191214121770500700003PENSION NOV 2019 COL  *
D081777997014  00172996940       2017/80012922  OLANO SARMIENTO  KIM00000000540000000000000000000000000000000000000000000008512019083120191214121770500700020PENSION AGO 2019 CAR  *
D081777997014  00172996940       2017/80013566  OLANO SARMIENTO  KIM00000000540000000000000000000000000000000000000000000006082019093020191214121770500700020PENSION SEP 2019 CAR  *
D081777997014  00172179086       2017/78238248  LLERENA CANALES  ADR00000000640000000000000000000000000000000000000000000007202019093020191214122140500700053PENSION SEP 2019 COL  *
D081777997014  00172179086       2017/78240116  LLERENA CANALES  ADR00000000640000000000000000000000000000000000000000000004222019103120191214122140500700053PENSION OCT 2019 COL  *
D081777997014  00172179086       2017/78240670  LLERENA CANALES  ADR00000000640000000000000000000000000000000000000000000001342019113020191214122140500700053PENSION NOV 2019 COL  *
D081777997014  00160892799       2017/153146    PORTUGAL DE LA  CRUZ00000000540000000000000000000000000000000000000000000015962019053120191214122190500700039PENSION MAY 2019 SJL  *
D081777997014  00160892799       2017/154168    PORTUGAL DE LA  CRUZ00000000540000000000000000000000000000000000000000000013532019063020191214122190500700039PENSION JUN 2019 SJL  *
D081777997014  00160892799       2017/154833    PORTUGAL DE LA  CRUZ00000000540000000000000000000000000000000000000000000011022019073120191214122190500700039PENSION JUL 2019 SJL  *
D081777997014  00160892799       2017/156212    PORTUGAL DE LA  CRUZ00000000540000000000000000000000000000000000000000000008512019083120191214122190500700039PENSION AGO 2019 SJL  *
D081777997014  00160892799       2017/157234    PORTUGAL DE LA  CRUZ00000000540000000000000000000000000000000000000000000006082019093020191214122190500700039PENSION SEP 2019 SJL  *
D081777997014  00160892799       2017/158234    PORTUGAL DE LA  CRUZ00000000540000000000000000000000000000000000000000000003562019103120191214122190500700039PENSION OCT 2019 SJL  *
D081777997014  00172177686       2017/78240731  JESUSI QUISPE  ALONS00000000640000000000000000000000000000000000000000000001342019113020191214122210500700024PENSION NOV 2019 COL  *
D081777997014  00172177686       2017/78241872  JESUSI QUISPE  ALONS00000000640000000000000000000000000000000000000000000000002019122120191214122210500700024PENSION DIC 2019 COL  *
D081777997014  00170838129       2017/158090    PAIRAZAMAN QUIJANO  00000000540000000000000000000000000000000000000000000003562019103120191214222470500700018PENSION OCT 2019 SJL  *
D081777997014  00170838129       2017/159272    PAIRAZAMAN QUIJANO  00000000540000000000000000000000000000000000000000000001132019113020191214222470500700018PENSION NOV 2019 SJL  *
D081777997014  00176498748       2017/159097    GUERRERO RUBINA  DAY00000000550000000000000000000000000000000000000000000001162019113020191214122470500700039PENSION NOV 2019 SJL  *
D081777997014  00174310011       2017/78242022  LA CRUZ MUSAYON  ROS00000000640000000000000000000000000000000000000000000000002019122120191214222540500700002PENSION DIC 2019 COL  *
D081777997014  00171335916       2017/78236271  BLOISA JAICO  ARIANA00000000640000000000000000000000000000000000000000000013062019073120191214122540500700017PENSION JUL 2019 COL  *
D081777997014  00171335916       2017/78237565  BLOISA JAICO  ARIANA00000000640000000000000000000000000000000000000000000010082019083120191214122540500700017PENSION AGO 2019 COL  *
D081777997014  00171335916       2017/78238701  BLOISA JAICO  ARIANA00000000640000000000000000000000000000000000000000000007202019093020191214122540500700017PENSION SEP 2019 COL  *
D081777997014  00171335916       2017/78239346  BLOISA JAICO  ARIANA00000000640000000000000000000000000000000000000000000004222019103120191214122540500700019PENSION OCT 2019 COL  *
D081777997014  00171335916       2017/78241159  BLOISA JAICO  ARIANA00000000640000000000000000000000000000000000000000000001342019113020191214122540500700019PENSION NOV 2019 COL  *
D081777997014  00171160581       2017/78242502  PASTOR LESCANO  ADRI00000000640000000000000000000000000000000000000000000000002019122120191214122540500700062PENSION DIC 2019 COL  *
D081777997014  00172820195       2017/78241273  CALLUPE KIMURA  NICO00000000576000000000000000000000000000000000000000000001212019113020191214122540500700089PENSION NOV 2019 COL  *
D081777997014  00172820195       2017/78242485  CALLUPE KIMURA  NICO00000000576000000000000000000000000000000000000000000000002019122120191214122540500700089PENSION DIC 2019 COL  *
D081777997014  00177104318       2017/78241287  CALLUPE KIMURA  SERG00000000640000000000000000000000000000000000000000000001342019113020191214122540500700090PENSION NOV 2019 COL  *
D081777997014  00177104318       2017/78242499  CALLUPE KIMURA  SERG00000000640000000000000000000000000000000000000000000000002019122120191214122540500700090PENSION DIC 2019 COL  *
D081777997014  00174016614       2017/158079    DUENAS MERINO  DIEGO00000000550000000000000000000000000000000000000000000003632019103120191214126860500700007PENSION OCT 2019 SJL  *
D081777997014  00170770038       2017/160431    MASCCO DIAZ  MARIAFE00000000540000000000000000000000000000000000000000000000002019122120191214126910500700013PENSION DIC 2019 SJL  *
D081777997014  00161879098       2017/156732    GOMEZ ALZAMORA  AMMI00000000550000000000000000000000000000000000000000000006192019093020191214226910500700045PENSION SEP 2019 SJL  *
D081777997014  00161879098       2017/157759    GOMEZ ALZAMORA  AMMI00000000550000000000000000000000000000000000000000000003632019103120191214226910500700045PENSION OCT 2019 SJL  *
D081777997014  00161879098       2017/158974    GOMEZ ALZAMORA  AMMI00000000550000000000000000000000000000000000000000000001162019113020191214226910500700045PENSION NOV 2019 SJL  *
D081777997014  00161879098       2017/159783    GOMEZ ALZAMORA  AMMI00000000550000000000000000000000000000000000000000000000002019122120191214226910500700045PENSION DIC 2019 SJL  *
D081777997014  00174868046       2017/158115    GOMEZ ALZAMORA  FATI00000000486000000000000000000000000000000000000000000003212019103120191214226910500700048PENSION OCT 2019 SJL  *
D081777997014  00174868046       2017/159297    GOMEZ ALZAMORA  FATI00000000486000000000000000000000000000000000000000000001022019113020191214226910500700048PENSION NOV 2019 SJL  *
D081777997014  00174868046       2017/160159    GOMEZ ALZAMORA  FATI00000000486000000000000000000000000000000000000000000000002019122120191214226910500700048PENSION DIC 2019 SJL  *
D081777997014  00178834323       2017/80014800  ZURITA TUESTA  JOSUE00000000560000000000000000000000000000000000000000000000002019122120191214227020500700009PENSION DIC 2019 CAR  *
D081777997014  00174182467       2017/80015567  ALBINO ORTEGA  ALYSA00000000385000000000000000000000000000000000000000000000002019122120191214227844651000223PENSION DIC 2019 CAR  *
D081777997014  00160784130       2017/78240863  NEGLIA OVIEDO  FRANC00000000448000000000000000000000000000000000000000000000942019113020191214227844651000910PENSION NOV 2019 COL  *
D081777997014  00160784130       2017/78241820  NEGLIA OVIEDO  FRANC00000000448000000000000000000000000000000000000000000000002019122120191214227844651000911PENSION DIC 2019 COL  *
D081777997014  00162123292       2017/78241341  NEGLIA OVIEDO  GIANP00000000448000000000000000000000000000000000000000000000942019113020191214227844651000935PENSION NOV 2019 COL  *
D081777997014  00162123292       2017/78242545  NEGLIA OVIEDO  GIANP00000000448000000000000000000000000000000000000000000000002019122120191214227844651000936PENSION DIC 2019 COL  *
D081777997014  00177506889       2017/78234519  CARRILLO RAZURI  ALV00000000640000000000000000000000000000000000000000000016032019063020191214227844651002586PENSION JUN 2019 COL  *
D081777997014  00177506889       2017/78236032  CARRILLO RAZURI  ALV00000000640000000000000000000000000000000000000000000013062019073120191214227844651002587PENSION JUL 2019 COL  *
D081777997014  00177506889       2017/78237406  CARRILLO RAZURI  ALV00000000640000000000000000000000000000000000000000000010082019083120191214227844651002589PENSION AGO 2019 COL  *
D081777997014  00177506889       2017/78238495  CARRILLO RAZURI  ALV00000000640000000000000000000000000000000000000000000007202019093020191214227844651002590PENSION SEP 2019 COL  *
D081777997014  00177506889       2017/78240355  CARRILLO RAZURI  ALV00000000640000000000000000000000000000000000000000000004222019103120191214227844651002591PENSION OCT 2019 COL  *
D081777997014  00177506889       2017/78240958  CARRILLO RAZURI  ALV00000000640000000000000000000000000000000000000000000001342019113020191214227844651002592PENSION NOV 2019 COL  *
D081777997014  00177506889       2017/78242140  CARRILLO RAZURI  ALV00000000640000000000000000000000000000000000000000000000002019122120191214227844651002593PENSION DIC 2019 COL  *
D081777997014  00171747052       2017/158537    CARRION FLORES  ADRI00000000486000000000000000000000000000000000000000000001022019113020191214227844651003020PENSION NOV 2019 SJL  *
D081777997014  00171747052       2017/160419    CARRION FLORES  ADRI00000000486000000000000000000000000000000000000000000000002019122120191214227844651003021PENSION DIC 2019 SJL  *
D081777997014  00177553448       2017/80015043  CHAUCA NUNEZ  KALEF 00000000550000000000000000000000000000000000000000000000002019122120191214227844651005120PENSION DIC 2019 CAR  *
D081777997014  00172988690       2017/78241390  RAMOS ARCE  JOHN FIT00000000640000000000000000000000000000000000000000000001342019113020191214227844651005418PENSION NOV 2019 COL  *
D081777997014  00172988690       2017/78242605  RAMOS ARCE  JOHN FIT00000000640000000000000000000000000000000000000000000000002019122120191214227844651005419PENSION DIC 2019 COL  *
D081777997014  00178431941       2017/157594    VELASQUEZ RIMARI  AL00000000560000000000000000000000000000000000000000000003702019103120191214227844651007007PENSION OCT 2019 SJL  *
D081777997014  00177402667       2017/78242710  ALEJO ZUNIGA  ESTEBA00000000560000000000000000000000000000000000000000000000002019122120191214227844651008402PENSION DIC 2019 COL  *
D081777997014  00172785901       2017/159383    VILLAR MACIZO  FLAVI00000000486000000000000000000000000000000000000000000001022019113020191214227844651010483PENSION NOV 2019 SJL  *
D081777997014  00161140632       2017/158676    VILLAR MACIZO  ALVAR00000000550000000000000000000000000000000000000000000001162019113020191214227844651010501PENSION NOV 2019 SJL  *
D081777997014  00173170722       2017/78238971  MANCILLA CRUZ  FATIM00000000640000000000000000000000000000000000000000000007202019093020191214227844671001318PENSION SEP 2019 COL  *
D081777997014  00173170722       2017/78239606  MANCILLA CRUZ  FATIM00000000640000000000000000000000000000000000000000000004222019103120191214227844671001339PENSION OCT 2019 COL  *
D081777997014  00172773515       2017/80014366  CARLOS REYES  JORDAN00000000378000000000000000000000000000000000000000000000792019113020191214227844671001540PENSION NOV 2019 CAR  *
D081777997014  00161374218       2017/160107    LEON BASURTO  RODRIG00000000550000000000000000000000000000000000000000000000002019122120191214227844671001685PENSION DIC 2019 SJL  *
T081777997014  00101PENSION                       081777997014  000000002257402                                                                                                    *
T081777997014  00102PENSION SAN JUAN              081777997014  000000001336625                                                                                                    *
T081777997014  00103PENSION                       081777997014  000000000629491                                                                                                    *
H081777997014  003000000600000000029070000000000000020191214                                                                                                                       *
D081777997014  00376993216       2017/161123    TISZA ALFARO  STEPHA00000000484500000000000000000000000000000000000000000000002019122120191214126910500700040MATRICULA SJL         *
D081777997014  00361044738       2017/161122    TISZA ALFARO  MAYRAB00000000484500000000000000000000000000000000000000000000002019122120191214126910500700041MATRICULA SJL         *
D081777997014  00377882210       2017/161121    TISZA ALFARO  ASHELY00000000484500000000000000000000000000000000000000000000002019122120191214126910500700042MATRICULA SJL         *
D081777997014  00379222682       2017/78243760  CONTRERAS MANRIQUE  00000000484500000000000000000000000000000000000000000000002019122120191214227844651003959MATRICULA COL         *
D081777997014  00376101365       2017/80016016  HUARANGA HERNANDEZ  00000000476000000000000000000000000000000000000000000000002019122120191214227844651005204MATRICULA CAR         *
D081777997014  00377763184       2017/78243772  SANCHEZ TAPIA  JUAN 00000000493000000000000000000000000000000000000000000000002019122120191214227844651005561MATRICULA COL         *
T081777997014  00304MATRICULA                     081777997014  000000000097750                                                                                                    *
T081777997014  00306MATRICULA SJL - PREMATRICULA  081777997014  000000000145350                                                                                                    *
T081777997014  00308MATRICULA CAR 2019            081777997014  000000000047600                                                                                                    *
