H081777997014  001000008800000000490981100000000000020191221                                                                                                                       *
D081777997014  00174343042       2017/155620    ESTRADA JIMENEZ  LIN00000000550000000000000000000000000000000000000000000009242019083120191221120100500700011PENSION AGO 2019 SJL  *
D081777997014  00174343042       2017/156663    ESTRADA JIMENEZ  LIN00000000550000000000000000000000000000000000000000000006772019093020191221120100500700011PENSION SEP 2019 SJL  *
D081777997014  00174343042       2017/157539    ESTRADA JIMENEZ  LIN00000000550000000000000000000000000000000000000000000004212019103120191221120100500700011PENSION OCT 2019 SJL  *
D081777997014  00174343042       2017/158921    ESTRADA JIMENEZ  LIN00000000550000000000000000000000000000000000000000000001732019113020191221120100500700011PENSION NOV 2019 SJL  *
D081777997014  00174343042       2017/159712    ESTRADA JIMENEZ  LIN00000000550000000000000000000000000000000000000000000000002019122120191221120100500700011PENSION DIC 2019 SJL  *
D081777997014  00172251752       2017/153032    ESTRADA JIMENEZ  MEL00000000486000000000000000000000000000000000000000000014872019053120191221120100500700012PENSION MAY 2019 SJL  *
D081777997014  00172251752       2017/154054    ESTRADA JIMENEZ  MEL00000000486000000000000000000000000000000000000000000012682019063020191221120100500700012PENSION JUN 2019 SJL  *
D081777997014  00172251752       2017/154719    ESTRADA JIMENEZ  MEL00000000486000000000000000000000000000000000000000000010422019073120191221120100500700012PENSION JUL 2019 SJL  *
D081777997014  00172251752       2017/156089    ESTRADA JIMENEZ  MEL00000000486000000000000000000000000000000000000000000008162019083120191221120100500700012PENSION AGO 2019 SJL  *
D081777997014  00172251752       2017/157116    ESTRADA JIMENEZ  MEL00000000486000000000000000000000000000000000000000000005982019093020191221120100500700012PENSION SEP 2019 SJL  *
D081777997014  00172251752       2017/158142    ESTRADA JIMENEZ  MEL00000000486000000000000000000000000000000000000000000003722019103120191221120100500700012PENSION OCT 2019 SJL  *
D081777997014  00172423922       2017/78242091  PASTOR VERA  LEONARD00000000640000000000000000000000000000000000000000000000002019122120191221120130500700023PENSION DIC 2019 COL  *
D081777997014  00161264929       2017/78239421  LOBO OLGUIN  DHARMA 00000000640000000000000000000000000000000000000000000004902019103120191221120130500700027PENSION OCT 2019 COL  *
D081777997014  00160430009       2017/78240992  TINOCO VILLANUEVA  J00000000640000000000000000000000000000000000000000000002022019113020191221120130500700033PENSION NOV 2019 COL  *
D081777997014  00161267543       2017/78242445  QUISPE MATAMOROS  VA00000000640000000000000000000000000000000000000000000000002019122120191221120140500700036PENSION DIC 2019 COL  *
D081777997014  00160444113       2017/78240707  CHAUCA TICONA  DANIE00000000576000000000000000000000000000000000000000000001812019113020191221120140500700054PENSION NOV 2019 COL  *
D081777997014  00160444113       2017/78241803  CHAUCA TICONA  DANIE00000000576000000000000000000000000000000000000000000000002019122120191221120140500700056PENSION DIC 2019 COL  *
D081777997014  00161825931       2017/78241540  CHAUCA TICONA  STHEF00000000640000000000000000000000000000000000000000000002022019113020191221120140500700057PENSION NOV 2019 COL  *
D081777997014  00161358743       2017/80014574  GARCIA GONZALES  ARI00000000495000000000000000000000000000000000000000000001562019113020191221120210500700020PENSION NOV 2019 CAR  *
D081777997014  00161358743       2017/80015106  GARCIA GONZALES  ARI00000000495000000000000000000000000000000000000000000000002019122120191221120210500700022PENSION DIC 2019 CAR  *
D081777997014  00178331047       2017/80014343  GARCIA GONZALES  ILL00000000560000000000000000000000000000000000000000000001762019113020191221120210500700023PENSION NOV 2019 CAR  *
D081777997014  00178331047       2017/80014869  GARCIA GONZALES  ILL00000000560000000000000000000000000000000000000000000000002019122120191221120210500700026PENSION DIC 2019 CAR  *
D081777997014  00174189608       2017/80014685  MORAN CUARESMA  JAMM00000000550000000000000000000000000000000000000000000001732019113020191221120210500700043PENSION NOV 2019 CAR  *
D081777997014  00174189608       2017/80015166  MORAN CUARESMA  JAMM00000000550000000000000000000000000000000000000000000000002019122120191221120210500700043PENSION DIC 2019 CAR  *
D081777997014  00173174401       2017/78242059  RODRIGUEZ BROWN ACOS00000000576000000000000000000000000000000000000000000000002019122120191221120630500700042PENSION DIC 2019 COL  *
D081777997014  00177720111       2017/78242836  RODRIGUEZ BROWN ACOS00000000560000000000000000000000000000000000000000000000002019122120191221120630500700043PENSION DIC 2019 COL  *
D081777997014  00177834049       2017/78241663  PAGUADA PEREZ  FACUN00000000560000000000000000000000000000000000000000000001762019113020191221120700500700035PENSION NOV 2019 COL  *
D081777997014  00177834049       2017/78242883  PAGUADA PEREZ  FACUN00000000560000000000000000000000000000000000000000000000002019122120191221120700500700035PENSION DIC 2019 COL  *
D081777997014  00175954053       2017/78238579  YUPANQUI LECHUGA  GA00000000640000000000000000000000000000000000000000000007872019093020191221221040500700019PENSION SEP 2019 COL  *
D081777997014  00172614369       2017/78242252  PRADA SANCHEZ  RICAR00000000640000000000000000000000000000000000000000000000002019122120191221122540500700011PENSION DIC 2019 COL  *
D081777997014  00173181650       2017/78240359  CORDOVA PANDURO  DIE00000000640000000000000000000000000000000000000000000004902019103120191221122540500700024PENSION OCT 2019 COL  *
D081777997014  00173181650       2017/78240962  CORDOVA PANDURO  DIE00000000640000000000000000000000000000000000000000000002022019113020191221122540500700024PENSION NOV 2019 COL  *
D081777997014  00173181650       2017/78242144  CORDOVA PANDURO  DIE00000000640000000000000000000000000000000000000000000000002019122120191221122540500700024PENSION DIC 2019 COL  *
D081777997014  00173640160       2017/78240345  SANCHEZ SANTIANI  JO00000000480000000000000000000000000000000000000000000003672019103120191221122540500700042PENSION OCT 2019 COL  *
D081777997014  00171162688       2017/78242484  MINAYA VILLANUEVA  J00000000640000000000000000000000000000000000000000000000002019122120191221123720500700024PENSION DIC 2019 COL  *
D081777997014  00161058373       2017/78241040  GUERRERO MEDINA  ANG00000000448000000000000000000000000000000000000000000001412019113020191221223910500700006PENSION NOV 2019 COL  *
D081777997014  00161058373       2017/78242282  GUERRERO MEDINA  ANG00000000448000000000000000000000000000000000000000000000002019122120191221223910500700006PENSION DIC 2019 COL  *
D081777997014  00177252153       2017/78239023  MENDOZA RIVERA  MIGU00000000560000000000000000000000000000000000000000000006892019093020191221125350500700011PENSION SEP 2019 COL  *
D081777997014  00174527627       2017/78240439  CONDESO CARRIZALES  00000000640000000000000000000000000000000000000000000004902019103120191221126550500700020PENSION OCT 2019 COL  *
D081777997014  00174527627       2017/78240906  CONDESO CARRIZALES  00000000640000000000000000000000000000000000000000000002022019113020191221126550500700021PENSION NOV 2019 COL  *
D081777997014  00174527627       2017/78242184  CONDESO CARRIZALES  00000000640000000000000000000000000000000000000000000000002019122120191221126550500700021PENSION DIC 2019 COL  *
D081777997014  00161096050       2017/80015206  CENTENO YANAC  DIEGO00000000550000000000000000000000000000000000000000000000002019122120191221126790500700039PENSION DIC 2019 CAR  *
D081777997014  00161178701       2017/159863    DURUAY RUPAY  PAULA 00000000550000000000000000000000000000000000000000000000002019122120191221126860500700002PENSION DIC 2019 SJL  *
D081777997014  00176742767       2017/157197    SOLANO CURI  RICARDO00000000540000000000000000000000000000000000000000000006642019093020191221126860500700007PENSION SEP 2019 SJL  *
D081777997014  00176742767       2017/158219    SOLANO CURI  RICARDO00000000540000000000000000000000000000000000000000000004132019103120191221126860500700007PENSION OCT 2019 SJL  *
D081777997014  00176742767       2017/159401    SOLANO CURI  RICARDO00000000540000000000000000000000000000000000000000000001702019113020191221126860500700008PENSION NOV 2019 SJL  *
D081777997014  00176742767       2017/160263    SOLANO CURI  RICARDO00000000540000000000000000000000000000000000000000000000002019122120191221126860500700008PENSION DIC 2019 SJL  *
D081777997014  00175507160       2017/160217    VALLE CASTILLO  VALE00000000540000000000000000000000000000000000000000000000002019122120191221126860500700009PENSION DIC 2019 SJL  *
D081777997014  00178118894       2017/159762    GUERRERO CARBAJAL  F00000000560000000000000000000000000000000000000000000000002019122120191221126910500700009PENSION DIC 2019 SJL  *
D081777997014  00177483423       2017/160157    DAVILA VALVERDE  SEB00000000486000000000000000000000000000000000000000000000002019122120191221126910500700018PENSION DIC 2019 SJL  *
D081777997014  00171152129       2017/153970    TORRE LINO  MISHELL 00000000550000000000000000000000000000000000000000000014362019063020191221126910500700030PENSION JUN 2019 SJL  *
D081777997014  00171152129       2017/154635    TORRE LINO  MISHELL 00000000550000000000000000000000000000000000000000000011802019073120191221126910500700030PENSION JUL 2019 SJL  *
D081777997014  00171152129       2017/156014    TORRE LINO  MISHELL 00000000550000000000000000000000000000000000000000000009242019083120191221126910500700030PENSION AGO 2019 SJL  *
D081777997014  00171152129       2017/157036    TORRE LINO  MISHELL 00000000550000000000000000000000000000000000000000000006772019093020191221126910500700030PENSION SEP 2019 SJL  *
D081777997014  00171152129       2017/158023    TORRE LINO  MISHELL 00000000550000000000000000000000000000000000000000000004212019103120191221126910500700030PENSION OCT 2019 SJL  *
D081777997014  00171152129       2017/159240    TORRE LINO  MISHELL 00000000550000000000000000000000000000000000000000000001732019113020191221126910500700030PENSION NOV 2019 SJL  *
D081777997014  00171152129       2017/160102    TORRE LINO  MISHELL 00000000550000000000000000000000000000000000000000000000002019122120191221126910500700030PENSION DIC 2019 SJL  *
D081777997014  00172869122       2017/160207    TUMIALAN AMAO  CRIST00000000540000000000000000000000000000000000000000000000002019122120191221127420500700008PENSION DIC 2019 SJL  *
D081777997014  00174267692       2017/158645    VEGA PINEDO  VALERIA00000000550000000000000000000000000000000000000000000001732019113020191221127420500700033PENSION NOV 2019 SJL  *
D081777997014  00174267692       2017/159610    VEGA PINEDO  VALERIA00000000550000000000000000000000000000000000000000000000002019122120191221127420500700033PENSION DIC 2019 SJL  *
D081777997014  00171701235       2017/158517    CORDOVA OLAZA  JAZMI00000000486000000000000000000000000000000000000000000001532019113020191221227844651000671PENSION NOV 2019 SJL  *
D081777997014  00171701235       2017/160423    CORDOVA OLAZA  JAZMI00000000486000000000000000000000000000000000000000000000002019122120191221227844651000673PENSION DIC 2019 SJL  *
D081777997014  00162375839       2017/158986    CORDOVA OLAZA  ALESS00000000550000000000000000000000000000000000000000000001732019113020191221227844651000713PENSION NOV 2019 SJL  *
D081777997014  00162375839       2017/159926    CORDOVA OLAZA  ALESS00000000550000000000000000000000000000000000000000000000002019122120191221227844651000714PENSION DIC 2019 SJL  *
D081777997014  00174017702       2017/160017    CASTILLO ARIAS  MAUR00000000550000000000000000000000000000000000000000000000002019122120191221227844651001682PENSION DIC 2019 SJL  *
D081777997014  00174284367       2017/78241809  VITAL RODRIGUEZ  AND00000000640000000000000000000000000000000000000000000000002019122120191221227844651002598PENSION DIC 2019 COL  *
D081777997014  00172251752       2017/159324    ESTRADA JIMENEZ  MEL00000000486000000000000000000000000000000000000000000001532019113020191221227844651002657PENSION NOV 2019 SJL  *
D081777997014  00172251752       2017/160202    ESTRADA JIMENEZ  MEL00000000486000000000000000000000000000000000000000000000002019122120191221227844651002658PENSION DIC 2019 SJL  *
D081777997014  00177882439       2017/160064    CERRON GARAY  ADRIAN00000000550000000000000000000000000000000000000000000000002019122120191221227844651002936PENSION DIC 2019 SJL  *
D081777997014  00162798299       2017/78242521  HUERTA LEON  ALVARO 00000000576000000000000000000000000000000000000000000000002019122120191221227844651003266PENSION DIC 2019 COL  *
D081777997014  00179570712       2017/78241842  HUERTA LEON  ARIANNA00000000560000000000000000000000000000000000000000000000002019122120191221227844651003268PENSION DIC 2019 COL  *
D081777997014  00178411445       2017/80014835  CORTEZ BALTODANO  DI00000000504000000000000000000000000000000000000000000000002019122120191221227844651004393PENSION DIC 2019 CAR  *
D081777997014  00173165218       2017/80015073  CORTEZ BALTODANO  MA00000000495000000000000000000000000000000000000000000000002019122120191221227844651004395PENSION DIC 2019 CAR  *
D081777997014  00170732378       2017/80015133  CORTEZ BALTODANO  GA00000000495000000000000000000000000000000000000000000000002019122120191221227844651004396PENSION DIC 2019 CAR  *
D081777997014  00178339215       2017/78241884  SOLIS AVILA  NOAH SI00000000560000000000000000000000000000000000000000000000002019122120191221227844651004916PENSION DIC 2019 COL  *
D081777997014  00178789795       2017/80014799  IPARRAGUIRRE BARDALE00000000560000000000000000000000000000000000000000000000002019122120191221227844651005455PENSION DIC 2019 CAR  *
D081777997014  00178575898       2017/159782    MINAYA CORDOVA  KARL00000000560000000000000000000000000000000000000000000000002019122120191221227844651006136PENSION DIC 2019 SJL  *
D081777997014  00173892735       2017/160306    MINAYA CORDOVA  MARI00000000486000000000000000000000000000000000000000000000002019122120191221227844651006137PENSION DIC 2019 SJL  *
D081777997014  00172696318       2017/160308    ROLDAN SALAZAR  NICO00000000540000000000000000000000000000000000000000000000002019122120191221227844651008533PENSION DIC 2019 SJL  *
D081777997014  00179219778       2017/80014850  PAREDES BRITO  LILIA00000000560000000000000000000000000000000000000000000000002019122120191221227844651008997PENSION DIC 2019 CAR  *
D081777997014  00177255506       2017/80015055  AMASIFUEN TORRES  KA00000000550000000000000000000000000000000000000000000000002019122120191221227844671000055PENSION DIC 2019 CAR  *
D081777997014  00161007969       2017/78242024  CORDERO MIRANDA  ANT00000000640000000000000000000000000000000000000000000000002019122120191221227844671000077PENSION DIC 2019 COL  *
D081777997014  00161475337       2017/78242657  MARIN ESPINOZA  KIMB00000000640000000000000000000000000000000000000000000000002019122120191221227844671000461PENSION DIC 2019 COL  *
D081777997014  00174343042       2017/153661    ESTRADA JIMENEZ  LIN00000000550000000000000000000000000000000000000000000014272019063020191221227844671000533PENSION JUN 2019 SJL  *
D081777997014  00174343042       2017/155330    ESTRADA JIMENEZ  LIN00000000550000000000000000000000000000000000000000000011722019073120191221227844671000552PENSION JUL 2019 SJL  *
D081777997014  00162600555       2017/159827    LEON HUANCA  MATEO F00000000550000000000000000000000000000000000000000000000002019122120191221227844671000901PENSION DIC 2019 SJL  *
D081777997014  00177365589       2017/78242738  BEGAZO VEGA  GABRIEL00000000560000000000000000000000000000000000000000000000002019122120191221129470500700059PENSION DIC 2019 COL  *
D081777997014  00175083679       2017/78243387  BEGAZO VEGA  GUILLER00000000640000000000000000000000000000000000000000000000002019122120191221129470500700062PENSION DIC 2019 COL  *
T081777997014  00101PENSION                       081777997014  000000001916619                                                                                                    *
T081777997014  00102PENSION SAN JUAN              081777997014  000000002300287                                                                                                    *
T081777997014  00103PENSION                       081777997014  000000000692905                                                                                                    *
H081777997014  003000004900000000246285000000000000020191221                                                                                                                       *
D081777997014  00377517875       2017/78243956  GOMEZ ARBIETO  MARIA00000000569500000000000000000000000000000000000000000000002019122120191221120140500700059MATRICULA COL         *
D081777997014  00377369899       2017/80016063  SILVA BARREDA  ADRIA00000000476000000000000000000000000000000000000000000000002019122120191221120210500700024MATRICULA CAR         *
D081777997014  00371154383       2017/80016062  SILVA BARREDA  GENAR00000000467500000000000000000000000000000000000000000000002019122120191221120210500700027MATRICULA CAR         *
D081777997014  00370729092       2017/161325    CORTEZ PINEDA  GONZA00000000484500000000000000000000000000000000000000000000002019122120191221120580500700004MATRICULA SJL         *
D081777997014  00373720797       2017/78243954  LEON AMACHEL  MICAEL00000000569500000000000000000000000000000000000000000000002019122120191221120600500700021MATRICULA COL         *
D081777997014  00377878345       2017/78243824  CALDERON ANTAURCO  S00000000493000000000000000000000000000000000000000000000002019122120191221120910500700058MATRICULA COL         *
D081777997014  00377888483       2017/161327    CALDERON ADRIANZEN  00000000484500000000000000000000000000000000000000000000002019122120191221221810500700014MATRICULA SJL         *
D081777997014  00381497371       2017/78243900  SEGOVIA MENDOZA  FAC00000000484500000000000000000000000000000000000000000000002019122120191221222290500700019MATRICULA COL         *
D081777997014  00360972215       2017/78243901  SEGOVIA MENDOZA  SOP00000000569500000000000000000000000000000000000000000000002019122120191221222290500700020MATRICULA COL         *
D081777997014  00373552864       2017/161323    FALCON MENDOZA  ILIC00000000484500000000000000000000000000000000000000000000002019122120191221122390500700015MATRICULA SJL         *
D081777997014  00378160773       2017/161243    CHARCAPE ADRIANZEN  00000000484500000000000000000000000000000000000000000000002019122120191221122470500700007MATRICULA SJL         *
D081777997014  00371362087       2017/161304    AQUINO LLAMOCA  PIER00000000484500000000000000000000000000000000000000000000002019122120191221122470500700020MATRICULA SJL         *
D081777997014  00376760893       2017/161305    AQUINO LLAMOCA  VALE00000000484500000000000000000000000000000000000000000000002019122120191221122470500700021MATRICULA SJL         *
D081777997014  00376608337       2017/161331    CHAQUICONDORI MERCAD00000000484500000000000000000000000000000000000000000000002019122120191221122470500700022MATRICULA SJL         *
D081777997014  00372064632       2017/161253    TORRES FUSTER  JOSEP00000000484500000000000000000000000000000000000000000000002019122120191221122470500700037MATRICULA SJL         *
D081777997014  00378050922       2017/78243943  MORENO GARCIA  MATT 00000000493000000000000000000000000000000000000000000000002019122120191221122540500700003MATRICULA COL         *
D081777997014  00363094354       2017/78243909  GIRALDEZ SANCHEZ  PA00000000569500000000000000000000000000000000000000000000002019122120191221122540500700009MATRICULA COL         *
D081777997014  00362601132       2017/78243910  GIRALDEZ SANCHEZ  SE00000000569500000000000000000000000000000000000000000000002019122120191221122540500700010MATRICULA COL         *
D081777997014  00373158086       2017/78243914  TRUJILLO CLAVIJO  AL00000000569500000000000000000000000000000000000000000000002019122120191221122540500700013MATRICULA COL         *
D081777997014  00379578363       2017/78243913  TRUJILLO CLAVIJO  AN00000000484500000000000000000000000000000000000000000000002019122120191221122540500700015MATRICULA COL         *
D081777997014  00374678711       2017/78243915  TRUJILLO CLAVIJO  AV00000000569500000000000000000000000000000000000000000000002019122120191221122540500700017MATRICULA COL         *
D081777997014  00374218957       2017/78243942  SOLIS LEON  ANGELA F00000000569500000000000000000000000000000000000000000000002019122120191221222540500700035MATRICULA COL         *
D081777997014  00377842243       2017/78243893  ASENCIOS ORTIZ  LUCI00000000580000000000000000000000000000000000000000000000002019122120191221122540500700044MATRICULA COL         *
D081777997014  00377842243       2017/78243895  ASENCIOS ORTIZ  LUCI00000000350000000000000000000000000000000000000000000000002019122120191221122540500700045INSCRIPCION COL       *
D081777997014  00360923165       2017/78243892  ASENCIOS ORTIZ  RENA00000000670000000000000000000000000000000000000000000000002019122120191221122540500700046MATRICULA COL         *
D081777997014  00361356103       2017/78243945  OVALLE NAVARRETE  MA00000000569500000000000000000000000000000000000000000000002019122120191221124610500700002MATRICULA COL         *
D081777997014  00373900673       2017/80016087  VARILLAS PONCE  AMAR00000000467500000000000000000000000000000000000000000000002019122120191221125350500700035MATRICULA CAR         *
D081777997014  00371147153       2017/161315    PEREA NEYRA  EDUARDO00000000484500000000000000000000000000000000000000000000002019122120191221126860500700001MATRICULA SJL         *
D081777997014  00378485356       2017/161265    LIZARBE VALVERDE  LI00000000484500000000000000000000000000000000000000000000002019122120191221126860500700010MATRICULA SJL         *
D081777997014  00376110733       2017/161264    LIZARBE VALVERDE  AR00000000484500000000000000000000000000000000000000000000002019122120191221126860500700011MATRICULA SJL         *
D081777997014  00374877962       2017/161296    GUILLERMO PAZ  FRESI00000000484500000000000000000000000000000000000000000000002019122120191221126910500700010MATRICULA SJL         *
D081777997014  00377820759       2017/161295    ULLOA NARVAEZ  FERNA00000000484500000000000000000000000000000000000000000000002019122120191221126910500700013MATRICULA SJL         *
D081777997014  00377401916       2017/161276    DOMINGUEZ GUINEA  NA00000000570000000000000000000000000000000000000000000000002019122120191221226910500700019MATRICULA SJL         *
D081777997014  00377401916       2017/161277    DOMINGUEZ GUINEA  NA00000000350000000000000000000000000000000000000000000000002019122120191221226910500700019INSCRIPCION SJL       *
D081777997014  00374785013       2017/161299    LAGO SABRERA  GABRIE00000000484500000000000000000000000000000000000000000000002019122120191221126910500700021MATRICULA SJL         *
D081777997014  00374884707       2017/161300    LAGO SABRERA  LUCERO00000000484500000000000000000000000000000000000000000000002019122120191221126910500700022MATRICULA SJL         *
D081777997014  00372983687       2017/161301    ALVITES FLORES  ANDR00000000484500000000000000000000000000000000000000000000002019122120191221126910500700026MATRICULA SJL         *
D081777997014  00361879098       2017/161233    GOMEZ ALZAMORA  AMMI00000000484500000000000000000000000000000000000000000000002019122120191221126910500700037MATRICULA SJL         *
D081777997014  00374868046       2017/161234    GOMEZ ALZAMORA  FATI00000000484500000000000000000000000000000000000000000000002019122120191221126910500700038MATRICULA SJL         *
D081777997014  00374789816       2017/80016089  BELLIDO MARIN  GONZA00000000476000000000000000000000000000000000000000000000002019122120191221227020500700017MATRICULA CAR         *
D081777997014  00376884455       2017/161321    ALFARO RONCAL  EMIGD00000000484500000000000000000000000000000000000000000000002019122120191221127420500700001MATRICULA SJL         *
D081777997014  00378003946       2017/161322    ALFARO RONCAL  ANTON00000000484500000000000000000000000000000000000000000000002019122120191221127420500700002MATRICULA SJL         *
D081777997014  00361175474       2017/161289    HSINI YALLE  AISHA D00000000484500000000000000000000000000000000000000000000002019122120191221127420500700009MATRICULA SJL         *
D081777997014  00361374218       2017/161324    LEON BASURTO  RODRIG00000000484500000000000000000000000000000000000000000000002019122120191221227844651000168MATRICULA SJL         *
D081777997014  00377902311       2017/161241    ABARCA MALLQUI  DYLA00000000484500000000000000000000000000000000000000000000002019122120191221227844651002009MATRICULA SJL         *
D081777997014  00381242465       2017/80016054  TORRES TELLO  HECTOR00000000476000000000000000000000000000000000000000000000002019122120191221227844651002045MATRICULA CAR         *
D081777997014  00361471663       2017/78243930  GUTIERREZ COLACHAHUA00000000569500000000000000000000000000000000000000000000002019122120191221227844651003063MATRICULA COL         *
D081777997014  00376629036       2017/80016080  GONZALEZ BULLON  MIA00000000467500000000000000000000000000000000000000000000002019122120191221227844651007840MATRICULA CAR         *
D081777997014  00372983654       2017/161335    ALTAMIRANO RIOS  GAB00000000484500000000000000000000000000000000000000000000002019122120191221227844651009485MATRICULA SJL         *
T081777997014  00304MATRICULA                     081777997014  000000000890000                                                                                                    *
T081777997014  00305DERECHO DE INGRESO LIM 2018   081777997014  000000000035000                                                                                                    *
T081777997014  00306MATRICULA SJL - PREMATRICULA  081777997014  000000001219800                                                                                                    *
T081777997014  00307DERECHO DE INGRESO SJL 2019   081777997014  000000000035000                                                                                                    *
T081777997014  00308MATRICULA CAR 2019            081777997014  000000000283050                                                                                                    *
H081777997014  009000000200000000001200000000000000020191221                                                                                                                       *
D081777997014  00972889681       FF19/2336      TUESTA BARCENES  EMI00000000060000000000000000000000000000000000000000000000002019122120191221220190500700057CERT ESTUDIOS CAR DI  *
D081777997014  00972129555       FF19/2357      SALCEDO PONCE DE LEO00000000060000000000000000000000000000000000000000000000002019122120191221124280500700024CERT ESTUDIO COL DIC  *
T081777997014  00925CERT ESTUDIO-COL              081777997014  000000000006000                                                                                                    *
T081777997014  00985CERT ESTUDIOS-CAR             081777997014  000000000006000                                                                                                    *
H081777997014  017000000200000000024740200000000000020191221                                                                                                                       *
D081777997014  01710413903365    FF19/2347      SEGURA  MORENO  YANE00000000474010000000000000000000000000000000000000000000002019122120191221120200500700020CONCESIONARIO DIC 20  *
D081777997014  01720510628501    FF19/2339      ALIMENTOS  S R L   M00000002000010000000000000000000000000000000000000000000002019122120191221122540500700036CONCESIONARIO DIC 20  *
T081777997014  01733ARRENDAMIENTO DE ESPACIO PARA 081777997014  000000000200001                                                                                                    *
T081777997014  01793ARRENDAMIENTO DE ESPACIO PARA 081777997014  000000000047401                                                                                                    *
