H081777997014  001000007100000000394172600000000000020191226                                                                                                                       *
D081777997014  00170647388       2017/78237349  ALFARO SOLORZANO  AB00000000640000000000000000000000000000000000000000000011232019083120191226120130500700054PENSION AGO 2019 COL  *
D081777997014  00170647388       2017/78238514  ALFARO SOLORZANO  AB00000000640000000000000000000000000000000000000000000008352019093020191226120130500700055PENSION SEP 2019 COL  *
D081777997014  00170647388       2017/78240414  ALFARO SOLORZANO  AB00000000640000000000000000000000000000000000000000000005382019103120191226120130500700056PENSION OCT 2019 COL  *
D081777997014  00171752746       2017/78242071  CCANTO VILLANUEVA  J00000000640000000000000000000000000000000000000000000000482019122120191226120140500700070PENSION DIC 2019 COL  *
D081777997014  00175857700       2017/160464    CHAVEZ SANCHEZ  DIAN00000000486000000000000000000000000000000000000000000000362019122120191226120580500700086PENSION DIC 2019 SJL  *
D081777997014  00170629460       2017/160357    CHAVEZ SANCHEZ  GABR00000000540000000000000000000000000000000000000000000000412019122120191226120580500700087PENSION DIC 2019 SJL  *
D081777997014  00175236719       2017/160366    VALVERDE LOPEZ  JOSU00000000540000000000000000000000000000000000000000000000412019122120191226120580500700088PENSION DIC 2019 SJL  *
D081777997014  00177400015       2017/80014593  GUERRERO LAUREANO  V00000000495000000000000000000000000000000000000000000001932019113020191226120580500700117PENSION NOV 2019 CAR  *
D081777997014  00172061644       2017/80014729  GUERRERO LAUREANO  C00000000495000000000000000000000000000000000000000000001932019113020191226120580500700119PENSION NOV 2019 CAR  *
D081777997014  00174103584       2017/80014519  GUERRERO LAUREANO  K00000000495000000000000000000000000000000000000000000001932019113020191226120580500700121PENSION NOV 2019 CAR  *
D081777997014  00176587028       2017/80014952  MORENO CASTANEDA  AN00000000540000000000000000000000000000000000000000000000412019122120191226120920500700101PENSION DIC 2019 CAR  *
D081777997014  00175632922       2017/78242507  BAUTISTA DIAZ  MARIA00000000640000000000000000000000000000000000000000000000482019122120191226121770500700023PENSION DIC 2019 COL  *
D081777997014  00173105479       2017/131800    RAVICHAGUA SANTOS  G00000000510000000000000000000000000000000000000000000036872018083120191226121930500700031PENSION AGO 2018 SJL  *
D081777997014  00173105479       2017/132761    RAVICHAGUA SANTOS  G00000000510000000000000000000000000000000000000000000034582018093020191226121930500700032PENSION SEP 2018 SJL  *
D081777997014  00178725693       2017/78241936  YSAGUIRRE GALINDO  J00000000392000000000000000000000000000000000000000000000292019122120191226122140500700072PENSION DIC 2019 COL  *
D081777997014  00161331666       2017/78241193  PARI GAMARRA  JIREH 00000000640000000000000000000000000000000000000000000002502019113020191226122290500700100PENSION NOV 2019 COL  *
D081777997014  00161331666       2017/78242408  PARI GAMARRA  JIREH 00000000640000000000000000000000000000000000000000000000482019122120191226122290500700100PENSION DIC 2019 COL  *
D081777997014  00172995173       2017/78242601  LOPEZ GUIZADO  PAULA00000000448000000000000000000000000000000000000000000000342019122120191226222290500700114PENSION DIC 2019 COL  *
D081777997014  00172572935       2017/160391    ROMERO PEREZ  ADRIAN00000000540000000000000000000000000000000000000000000000412019122120191226122470500700070PENSION DIC 2019 SJL  *
D081777997014  00176883165       2017/159864    CANALES MAZA  FABIAN00000000550000000000000000000000000000000000000000000000412019122120191226122470500700108PENSION DIC 2019 SJL  *
D081777997014  00160917954       2017/160200    PULIDO MANRIQUE  ALV00000000540000000000000000000000000000000000000000000000412019122120191226122470500700119PENSION DIC 2019 SJL  *
D081777997014  00173401041       2017/78239646  OLARTE ALLER  YUMARA00000000640000000000000000000000000000000000000000000005382019103120191226122540500700005PENSION OCT 2019 COL  *
D081777997014  00173401041       2017/78241431  OLARTE ALLER  YUMARA00000000640000000000000000000000000000000000000000000002502019113020191226122540500700005PENSION NOV 2019 COL  *
D081777997014  00173401041       2017/78242651  OLARTE ALLER  YUMARA00000000640000000000000000000000000000000000000000000000482019122120191226122540500700005PENSION DIC 2019 COL  *
D081777997014  00174066750       2017/78238570  RAMIREZ PACHECO  ANA00000000480000000000000000000000000000000000000000000006262019093020191226122540500700011PENSION SEP 2019 COL  *
D081777997014  00174066750       2017/78240403  RAMIREZ PACHECO  ANA00000000480000000000000000000000000000000000000000000004032019103120191226122540500700011PENSION OCT 2019 COL  *
D081777997014  00172976399       2017/78242151  LIVIA VALDEZ  ANEL V00000000640000000000000000000000000000000000000000000000482019122120191226122540500700016PENSION DIC 2019 COL  *
D081777997014  00160919223       2017/78242206  PALACIOS MENDOZA  FR00000000640000000000000000000000000000000000000000000000482019122120191226124280500700059PENSION DIC 2019 COL  *
D081777997014  00172866952       2017/160257    VALENCIA MALLMA  EST00000000486000000000000000000000000000000000000000000000362019122120191226126860500700004PENSION DIC 2019 SJL  *
D081777997014  00176112429       2017/159819    VALENCIA MALLMA  JIM00000000495000000000000000000000000000000000000000000000372019122120191226126860500700005PENSION DIC 2019 SJL  *
D081777997014  00161496098       2017/159853    VALENCIA MALLMA  MIG00000000495000000000000000000000000000000000000000000000372019122120191226126860500700006PENSION DIC 2019 SJL  *
D081777997014  00176267270       2017/158160    PENA ALVAREZ  HUGO P00000000540000000000000000000000000000000000000000000004542019103120191226126860500700007PENSION OCT 2019 SJL  *
D081777997014  00176267270       2017/159342    PENA ALVAREZ  HUGO P00000000540000000000000000000000000000000000000000000002112019113020191226126860500700007PENSION NOV 2019 SJL  *
D081777997014  00177019408       2017/160498    NAVARRO BALMACEDA  J00000000540000000000000000000000000000000000000000000000412019122120191226126860500700017PENSION DIC 2019 SJL  *
D081777997014  00177928748       2017/159983    ARCE ORTIZ  GABRIEL 00000000550000000000000000000000000000000000000000000000412019122120191226126910500700013PENSION DIC 2019 SJL  *
D081777997014  00174333726       2017/155287    ROMERO PEREZ  DANNA 00000000550000000000000000000000000000000000000000000012212019073120191226126910500700014PENSION JUL 2019 SJL  *
D081777997014  00174333726       2017/155535    ROMERO PEREZ  DANNA 00000000550000000000000000000000000000000000000000000009652019083120191226126910500700014PENSION AGO 2019 SJL  *
D081777997014  00173028035       2017/154716    ROMERO PEREZ  DANIEL00000000486000000000000000000000000000000000000000000010792019073120191226126910500700016PENSION JUL 2019 SJL  *
D081777997014  00173028035       2017/156134    ROMERO PEREZ  DANIEL00000000486000000000000000000000000000000000000000000008532019083120191226126910500700016PENSION AGO 2019 SJL  *
D081777997014  00173028035       2017/157113    ROMERO PEREZ  DANIEL00000000486000000000000000000000000000000000000000000006342019093020191226126910500700021PENSION SEP 2019 SJL  *
D081777997014  00174333726       2017/156578    ROMERO PEREZ  DANNA 00000000550000000000000000000000000000000000000000000007182019093020191226126910500700022PENSION SEP 2019 SJL  *
D081777997014  00171056075       2017/159352    CORREA SUAREZ  ERICK00000000540000000000000000000000000000000000000000000002112019113020191226126910500700033PENSION NOV 2019 SJL  *
D081777997014  00173560442       2017/158033    ARONI VARGAS  BIANCA00000000550000000000000000000000000000000000000000000004622019103120191226126910500700039PENSION OCT 2019 SJL  *
D081777997014  00179129402       2017/80014282  ALVAREZ SEVILLANO  D00000000560000000000000000000000000000000000000000000002182019113020191226127020500700060PENSION NOV 2019 CAR  *
D081777997014  00176107964       2017/80015116  ALVAREZ SEVILLANO  A00000000495000000000000000000000000000000000000000000000372019122120191226127020500700062PENSION DIC 2019 CAR  *
D081777997014  00172976757       2017/160187    FELIX RODRIGUEZ  KAR00000000540000000000000000000000000000000000000000000000412019122120191226127420500700037PENSION DIC 2019 SJL  *
D081777997014  00172287390       2017/159378    OBLITAS ALVAREZ  LUI00000000540000000000000000000000000000000000000000000002112019113020191226127420500700082PENSION NOV 2019 SJL  *
D081777997014  00172287390       2017/160240    OBLITAS ALVAREZ  LUI00000000540000000000000000000000000000000000000000000000412019122120191226127420500700082PENSION DIC 2019 SJL  *
D081777997014  00178674616       2017/157641    SANTE NOBLEJAS  HOLL00000000504000000000000000000000000000000000000000000004232019103120191226227844651005476PENSION OCT 2019 SJL  *
D081777997014  00178674616       2017/158863    SANTE NOBLEJAS  HOLL00000000504000000000000000000000000000000000000000000001972019113020191226227844651005477PENSION NOV 2019 SJL  *
D081777997014  00178674616       2017/159578    SANTE NOBLEJAS  HOLL00000000504000000000000000000000000000000000000000000000382019122120191226227844651005481PENSION DIC 2019 SJL  *
D081777997014  00160769833       2017/158589    CUELLAR BELLO  RONAL00000000540000000000000000000000000000000000000000000002112019113020191226227844651012187PENSION NOV 2019 SJL  *
D081777997014  00160769833       2017/160473    CUELLAR BELLO  RONAL00000000540000000000000000000000000000000000000000000000412019122120191226227844651012199PENSION DIC 2019 SJL  *
D081777997014  00170740694       2017/80014704  BERROCAL CASTRO  ALE00000000550000000000000000000000000000000000000000000002152019113020191226227844651014305PENSION NOV 2019 CAR  *
D081777997014  00178758525       2017/78241850  TEJADA HUARANGA  VAS00000000504000000000000000000000000000000000000000000000382019122120191226227844651014681PENSION DIC 2019 COL  *
D081777997014  00179558191       2017/78241734  TEJADA HUARANGA  BRU00000000560000000000000000000000000000000000000000000000422019122120191226227844651014682PENSION DIC 2019 COL  *
D081777997014  00171686007       2017/78234992  CIPRIAN FLORES  ENGI00000000640000000000000000000000000000000000000000000017182019063020191226227844651015241PENSION JUN 2019 COL  *
D081777997014  00171686007       2017/78236529  CIPRIAN FLORES  ENGI00000000640000000000000000000000000000000000000000000014212019073120191226227844651015242PENSION JUL 2019 COL  *
D081777997014  00171686007       2017/78237817  CIPRIAN FLORES  ENGI00000000640000000000000000000000000000000000000000000011232019083120191226227844651015243PENSION AGO 2019 COL  *
D081777997014  00171686007       2017/78238959  CIPRIAN FLORES  ENGI00000000640000000000000000000000000000000000000000000008352019093020191226227844651015316PENSION SEP 2019 COL  *
D081777997014  00171686007       2017/78239638  CIPRIAN FLORES  ENGI00000000640000000000000000000000000000000000000000000005382019103120191226227844651015317PENSION OCT 2019 COL  *
D081777997014  00171686007       2017/78241389  CIPRIAN FLORES  ENGI00000000640000000000000000000000000000000000000000000002502019113020191226227844651015318PENSION NOV 2019 COL  *
D081777997014  00171686007       2017/78242604  CIPRIAN FLORES  ENGI00000000640000000000000000000000000000000000000000000000482019122120191226227844651015320PENSION DIC 2019 COL  *
D081777997014  00177932326       2017/160093    RODAS INGA  ANGELA F00000000385000000000000000000000000000000000000000000000292019122120191226227844651016310PENSION DIC 2019 SJL  *
D081777997014  00173810499       2017/160485    CABANILLAS BONILLA  00000000540000000000000000000000000000000000000000000000412019122120191226227844651018892PENSION DIC 2019 SJL  *
D081777997014  00174672539       2017/160100    QUISPE QUISPE  JEAN 00000000385000000000000000000000000000000000000000000000292019122120191226227844651023626PENSION DIC 2019 SJL  *
D081777997014  00179279294       2017/78240041  SERNA BRAVO  DASHA S00000000560000000000000000000000000000000000000000000004702019103120191226128850500700006PENSION OCT 2019 COL  *
D081777997014  00179279294       2017/78240600  SERNA BRAVO  DASHA S00000000560000000000000000000000000000000000000000000002182019113020191226128850500700006PENSION NOV 2019 COL  *
D081777997014  00179279294       2017/78241948  SERNA BRAVO  DASHA S00000000560000000000000000000000000000000000000000000000422019122120191226128850500700006PENSION DIC 2019 COL  *
D081777997014  00170588388       2017/78242217  CHAVEZ CARRASCO  CHR00000000640000000000000000000000000000000000000000000000482019122120191226129470500700061PENSION DIC 2019 COL  *
D081777997014  00176476778       2017/78242293  CHAVEZ CARRASCO  ROM00000000576000000000000000000000000000000000000000000000432019122120191226129470500700062PENSION DIC 2019 COL  *
T081777997014  00101PENSION                       081777997014  000000001803748                                                                                                    *
T081777997014  00102PENSION SAN JUAN              081777997014  000000001773888                                                                                                    *
T081777997014  00103PENSION                       081777997014  000000000364090                                                                                                    *
H081777997014  003000001800000000091520000000000000020191226                                                                                                                       *
D081777997014  00360976204       2017/78243980  TREJO SERRANO  ROBER00000000569500000000000000000000000000000000000000000000002019122120191226120140500700096MATRICULA COL         *
D081777997014  00378585608       2017/80016126  GARCIA HUAMAN  LUCER00000000513000000000000000000000000000000000000000000000002019122120191226220210500700118MATRICULA CAR         *
D081777997014  00377590626       2017/80016125  GARCIA HUAMAN  CESAR00000000504000000000000000000000000000000000000000000000002019122120191226120210500700121MATRICULA CAR         *
D081777997014  00377623007       2017/161401    SALCEDO VILA  CHRIS 00000000484500000000000000000000000000000000000000000000002019122120191226121950500700125MATRICULA SJL         *
D081777997014  00362374726       2017/161400    SALCEDO VILA  SAMIR 00000000484500000000000000000000000000000000000000000000002019122120191226121950500700126MATRICULA SJL         *
D081777997014  00370724298       2017/80016079  HIDALGO ROJAS  CARLO00000000467500000000000000000000000000000000000000000000002019122120191226122230500700308MATRICULA CAR         *
D081777997014  00378634757       2017/78244055  CARDENAS FARFAN  MIA00000000603000000000000000000000000000000000000000000000002019122120191226122240500700067MATRICULA COL         *
D081777997014  00379211057       2017/161420    ALVA HIPOLITO  LEONA00000000513000000000000000000000000000000000000000000000002019122120191226122470500700029MATRICULA SJL         *
D081777997014  00370710564       2017/161421    PECHO SANCHEZ  ALLIS00000000513000000000000000000000000000000000000000000000002019122120191226122470500700060MATRICULA SJL         *
D081777997014  00371163533       2017/78244061  REYES GIRALDO  CAMIL00000000603000000000000000000000000000000000000000000000002019122120191226122540500700089MATRICULA COL         *
D081777997014  00378233215       2017/78244052  PRINCIPE TAFUR  CAMI00000000580000000000000000000000000000000000000000000000002019122120191226124450500700090MATRICULA COL         *
D081777997014  00378233215       2017/78244053  PRINCIPE TAFUR  CAMI00000000350000000000000000000000000000000000000000000000002019122120191226124450500700090INSCRIPCION COL       *
D081777997014  00377928748       2017/161425    ARCE ORTIZ  GABRIEL 00000000513000000000000000000000000000000000000000000000002019122120191226126910500700086MATRICULA SJL         *
D081777997014  00378038196       2017/161418    MENDOZA ARI  CAMILA 00000000513000000000000000000000000000000000000000000000002019122120191226127420500700021MATRICULA SJL         *
D081777997014  00374331520       2017/161419    MENDOZA ARI  KILLARI00000000513000000000000000000000000000000000000000000000002019122120191226127420500700022MATRICULA SJL         *
D081777997014  00378047112       2017/80016120  SALDANA HUAMANCHA  D00000000476000000000000000000000000000000000000000000000002019122120191226227844651005210MATRICULA CAR         *
D081777997014  00377856090       2017/80016127  NARCISO HUAMAN  KIAR00000000476000000000000000000000000000000000000000000000002019122120191226227844651018742MATRICULA CAR         *
D081777997014  00361527661       2017/80016128  NARCISO HUAMAN  DANT00000000476000000000000000000000000000000000000000000000002019122120191226227844651018778MATRICULA CAR         *
T081777997014  00304MATRICULA                     081777997014  000000000235550                                                                                                    *
T081777997014  00305DERECHO DE INGRESO LIM 2018   081777997014  000000000035000                                                                                                    *
T081777997014  00306MATRICULA SJL - PREMATRICULA  081777997014  000000000353400                                                                                                    *
T081777997014  00308MATRICULA CAR 2019            081777997014  000000000291250                                                                                                    *
H081777997014  007000000100000000000250000000000000020191226                                                                                                                       *
D081777997014  00774895495       FF19/2386      MEZA LOLI  MARICIELO00000000025000000000000000000000000000000000000000000000002019122120191226121770500700042EXCELENCIA ACAD COL   *
T081777997014  00723EXCELENCIA ACAD COL           081777997014  000000000002500                                                                                                    *
H081777997014  009000000400000000002400000000000000020191226                                                                                                                       *
D081777997014  00974895495       FF19/2387      MEZA LOLI  MARICIELO00000000060000000000000000000000000000000000000000000000002019122120191226121770500700042CERT ESTUDIO COL DIC  *
D081777997014  00975610396       FF19/2381      CHATE ROJAS  GIANELA00000000060000000000000000000000000000000000000000000000002019122120191226122540500700034CERT ESTUDIO COL DIC  *
D081777997014  00973406448       FF19/2380      CHATE ROJAS  ARIANA 00000000060000000000000000000000000000000000000000000000002019122120191226122540500700035CERT ESTUDIO COL DIC  *
D081777997014  00978145617       FF19/2384      ACEVEDO ALLENDE  LEX00000000060000000000000000000000000000000000000000000000002019122120191226126610500700098CERT ESTUDIO COL DIC  *
T081777997014  00925CERT ESTUDIO-COL              081777997014  000000000024000                                                                                                    *
H081777997014  010000000200000000000600000000000000020191226                                                                                                                       *
D081777997014  01060946582       FF19/2389      MARCELO LLERENA  NIC00000000030000000000000000000000000000000000000000000000002019122120191226122540500700079CCIA NO ADEUDO COL D  *
D081777997014  01078145617       FF19/2385      ACEVEDO ALLENDE  LEX00000000030000000000000000000000000000000000000000000000002019122120191226126610500700098CCIA NO ADEUDO COL D  *
T081777997014  01026CCIA NO ADEUDO COL            081777997014  000000000006000                                                                                                    *
H081777997014  016000000100000000002250000000000000020191226                                                                                                                       *
D081777997014  01610208864071    FF19/2341        GLADYS ELADIA ESPI00000000225000000000000000000000000000000000000000000000002019122120191226128850500700002CONCESIONARIO DIC 20  *
T081777997014  01632ARRENDAMIENTO DE ESPACIO PARA 081777997014  000000000022500                                                                                                    *
