H081777997014  001000002600000000151222300000000000020191228                                                                                                                       *
D081777997014  00170496467       2017/78242035  TANG GUTIERREZ  JOSS00000000640000000000000000000000000000000000000000000000672019122120191228120140500700017PENSION DIC 2019 COL  *
D081777997014  00177408163       2017/78242705  TRIVENO SALAZAR  ANG00000000560000000000000000000000000000000000000000000000592019122120191228120340500700029PENSION DIC 2019 COL  *
D081777997014  00161792191       2017/158873    VELASQUEZ JAULES  DI00000000550000000000000000000000000000000000000000000002312019113020191228120530500700007PENSION NOV 2019 SJL  *
D081777997014  00176691223       2017/78242240  BALDEON FLORES  MICH00000000640000000000000000000000000000000000000000000000672019122120191228120810500700035PENSION DIC 2019 COL  *
D081777997014  00177240365       2017/157369    VILCAPUMA GARCIA  AN00000000486000000000000000000000000000000000000000000006492019093020191228121490500700004PENSION SEP 2019 SJL  *
D081777997014  00177240365       2017/158391    VILCAPUMA GARCIA  AN00000000486000000000000000000000000000000000000000000004232019103120191228121490500700004PENSION OCT 2019 SJL  *
D081777997014  00174103697       2017/156631    VILCAPUMA GARCIA  SA00000000550000000000000000000000000000000000000000000007342019093020191228121490500700005PENSION SEP 2019 SJL  *
D081777997014  00174103697       2017/157507    VILCAPUMA GARCIA  SA00000000550000000000000000000000000000000000000000000004792019103120191228121490500700005PENSION OCT 2019 SJL  *
D081777997014  00172077440       2017/153251    ANGOSTO MALPARTIDA  00000000540000000000000000000000000000000000000000000017092019053120191228122390500700033PENSION MAY 2019 SJL  *
D081777997014  00172077440       2017/154267    ANGOSTO MALPARTIDA  00000000540000000000000000000000000000000000000000000014662019063020191228122390500700033PENSION JUN 2019 SJL  *
D081777997014  00172077440       2017/154932    ANGOSTO MALPARTIDA  00000000540000000000000000000000000000000000000000000012152019073120191228122390500700033PENSION JUL 2019 SJL  *
D081777997014  00163716063       2017/160056    ESTRADA BAUTISTA  NI00000000550000000000000000000000000000000000000000000000582019122120191228122470500700023PENSION DIC 2019 SJL  *
D081777997014  00173287442       2017/78242812  ROMAN CASTILLO  BRIA00000000576000000000000000000000000000000000000000000000602019122120191228122540500700011PENSION DIC 2019 COL  *
D081777997014  00177879019       2017/78242855  ROMAN CASTILLO  LEO 00000000560000000000000000000000000000000000000000000000592019122120191228122540500700012PENSION DIC 2019 COL  *
D081777997014  00172869314       2017/78239345  VALLE CAMPOS  ANDRE 00000000640000000000000000000000000000000000000000000005572019103120191228122540500700046PENSION OCT 2019 COL  *
D081777997014  00174342513       2017/78241311  ENRIQUEZ CASTROMONTE00000000640000000000000000000000000000000000000000000002692019113020191228122540500700058PENSION NOV 2019 COL  *
D081777997014  00174342513       2017/78242526  ENRIQUEZ CASTROMONTE00000000640000000000000000000000000000000000000000000000672019122120191228122540500700058PENSION DIC 2019 COL  *
D081777997014  00172776718       2017/78240891  RODRIGUEZ ANGELES  G00000000640000000000000000000000000000000000000000000002692019113020191228222540500700059PENSION NOV 2019 COL  *
D081777997014  00172776718       2017/78242169  RODRIGUEZ ANGELES  G00000000640000000000000000000000000000000000000000000000672019122120191228222540500700059PENSION DIC 2019 COL  *
D081777997014  00170643340       2017/78242213  ROMERO SULCA  CAMILA00000000640000000000000000000000000000000000000000000000672019122120191228122640500700058PENSION DIC 2019 COL  *
D081777997014  00172738845       2017/78240956  SOLORZANO TRUJILLO  00000000640000000000000000000000000000000000000000000002692019113020191228126610500700017PENSION NOV 2019 COL  *
D081777997014  00172738845       2017/78242138  SOLORZANO TRUJILLO  00000000640000000000000000000000000000000000000000000000672019122120191228126610500700017PENSION DIC 2019 COL  *
D081777997014  00172827893       2017/155823    RIEGA GERBACIO  GABR00000000550000000000000000000000000000000000000000000009822019083120191228126860500700003PENSION AGO 2019 SJL  *
D081777997014  00172827893       2017/156924    RIEGA GERBACIO  GABR00000000550000000000000000000000000000000000000000000007342019093020191228126860500700003PENSION SEP 2019 SJL  *
D081777997014  00175300175       2017/160089    REYES LIZA  ANGELINA00000000385000000000000000000000000000000000000000000000402019122120191228227844651003366PENSION DIC 2019 SJL  *
D081777997014  00173772618       2017/78240839  BECERRA ACOSTA  MELA00000000640000000000000000000000000000000000000000000002592019113020191228227844671000480PENSION NOV 2019 COL  *
T081777997014  00101PENSION                       081777997014  000000000875803                                                                                                    *
T081777997014  00102PENSION SAN JUAN              081777997014  000000000636420                                                                                                    *
H081777997014  003000000800000000043455000000000000020191228                                                                                                                       *
D081777997014  00376895288       2017/78244079  CANO CASTILLO  LUCIA00000000603000000000000000000000000000000000000000000000002019122120191228120140500700033MATRICULA COL         *
D081777997014  003566208428      2017/78244081  FUENTES TAPIA  JUAN 00000000603000000000000000000000000000000000000000000000002019122120191228220700500700031MATRICULA COL         *
D081777997014  00377931049       2017/161422    MONTOYA BOZA  VALENT00000000513000000000000000000000000000000000000000000000002019122120191228126910500700010MATRICULA SJL         *
D081777997014  00379093104       2017/161426    FERNANDEZ SALSAVILCA00000000513000000000000000000000000000000000000000000000002019122120191228127420500700033MATRICULA SJL         *
D081777997014  00362375839       2017/161431    CORDOVA OLAZA  ALESS00000000513000000000000000000000000000000000000000000000002019122120191228227420500700036MATRICULA SJL         *
D081777997014  00371701235       2017/161432    CORDOVA OLAZA  JAZMI00000000513000000000000000000000000000000000000000000000002019122120191228227420500700037MATRICULA SJL         *
D081777997014  00370712509       2017/78244069  GONZALEZ CARDENAS  F00000000603000000000000000000000000000000000000000000000002019122120191228227844651004181MATRICULA COL         *
D081777997014  00360768022       2017/161212    GUARDALES QUINTANILL00000000484500000000000000000000000000000000000000000000002019122120191228227844651009381MATRICULA SJL         *
T081777997014  00304MATRICULA                     081777997014  000000000180900                                                                                                    *
T081777997014  00306MATRICULA SJL - PREMATRICULA  081777997014  000000000253650                                                                                                    *
H081777997014  012000000100000000000300000000000000020191228                                                                                                                       *
D081777997014  012566208428      2017/78244083  FUENTES TAPIA  JUAN 00000000030000000000000000000000000000000000000000000000002019122120191228220700500700031PRA ACAD COLONIAL DI  *
T081777997014  01228PRA ACAD COLONIAL             081777997014  000000000003000                                                                                                    *
