H081777997014  001000006400000000360522800000000000020191223                                                                                                                       *
D081777997014  00177533077       2017/80010580  TAIPE HUAMAN  YAHAIR00000000540000000000000000000000000000000000000000000021632019033120191223120210500700110PENSION MAR 2019 CAR  *
D081777997014  00177533077       2017/80011060  TAIPE HUAMAN  YAHAIR00000000540000000000000000000000000000000000000000000019202019043020191223120210500700110PENSION ABR 2019 CAR  *
D081777997014  00177533077       2017/80011623  TAIPE HUAMAN  YAHAIR00000000540000000000000000000000000000000000000000000016692019053120191223120210500700110PENSION MAY 2019 CAR  *
D081777997014  00177533077       2017/80011960  TAIPE HUAMAN  YAHAIR00000000540000000000000000000000000000000000000000000014262019063020191223120210500700110PENSION JUN 2019 CAR  *
D081777997014  00177533077       2017/80012579  TAIPE HUAMAN  YAHAIR00000000540000000000000000000000000000000000000000000011752019073120191223120210500700110PENSION JUL 2019 CAR  *
D081777997014  00177533077       2017/80012869  TAIPE HUAMAN  YAHAIR00000000540000000000000000000000000000000000000000000009232019083120191223120210500700110PENSION AGO 2019 CAR  *
D081777997014  00177533077       2017/80013513  TAIPE HUAMAN  YAHAIR00000000540000000000000000000000000000000000000000000006802019093020191223120210500700110PENSION SEP 2019 CAR  *
D081777997014  00177398901       2017/78242691  TOLENTINO GODOY  MAT00000000560000000000000000000000000000000000000000000000172019122120191223120350500700036PENSION DIC 2019 COL  *
D081777997014  00174193260       2017/78241340  ALCANTARA PUMA  SAMA00000000640000000000000000000000000000000000000000000002212019113020191223120400500700041PENSION NOV 2019 COL  *
D081777997014  00173257018       2017/78241892  GUEVARA SOTO  PIERO 00000000640000000000000000000000000000000000000000000000192019122120191223120600500700083PENSION DIC 2019 COL  *
D081777997014  00171366072       2017/78240722  MARINO GONZALES  ANJ00000000640000000000000000000000000000000000000000000002212019113020191223120600500700092PENSION NOV 2019 COL  *
D081777997014  00161184469       2017/78241208  HERNANDEZ MEZA  CHRI00000000640000000000000000000000000000000000000000000002212019113020191223120700500700031PENSION NOV 2019 COL  *
D081777997014  00172331891       2017/80015200  PALOMINO GARAVITO  L00000000550000000000000000000000000000000000000000000000172019122120191223120920500700150PENSION DIC 2019 CAR  *
D081777997014  00177925323       2017/80015158  MAMANI GAONA  JADE A00000000550000000000000000000000000000000000000000000000172019122120191223121930500700015PENSION DIC 2019 CAR  *
D081777997014  00172549570       2017/80014960  RIOS ROJAS  JONAS ED00000000540000000000000000000000000000000000000000000000162019122120191223122040500700068PENSION DIC 2019 CAR  *
D081777997014  00160946582       2017/78240095  MARCELO LLERENA  NIC00000000640000000000000000000000000000000000000000000005092019103120191223122420500700015PENSION OCT 2019 COL  *
D081777997014  00160946582       2017/78240649  MARCELO LLERENA  NIC00000000640000000000000000000000000000000000000000000002212019113020191223122420500700015PENSION NOV 2019 COL  *
D081777997014  00177826485       2017/158644    LAURA ACUNA  GENESIS00000000550000000000000000000000000000000000000000000001902019113020191223122470500700003PENSION NOV 2019 SJL  *
D081777997014  00177826485       2017/159609    LAURA ACUNA  GENESIS00000000550000000000000000000000000000000000000000000000172019122120191223122470500700003PENSION DIC 2019 SJL  *
D081777997014  00170736394       2017/159663    MALDONADO BACA  LEON00000000550000000000000000000000000000000000000000000000172019122120191223122470500700042PENSION DIC 2019 SJL  *
D081777997014  00179211057       2017/159506    ALVA HIPOLITO  LEONA00000000560000000000000000000000000000000000000000000000172019122120191223122470500700051PENSION DIC 2019 SJL  *
D081777997014  00178955246       2017/156456    NAVARRO ORTIZ  EMILI00000000560000000000000000000000000000000000000000000007062019093020191223122470500700063PENSION SEP 2019 SJL  *
D081777997014  00178955246       2017/157610    NAVARRO ORTIZ  EMILI00000000560000000000000000000000000000000000000000000004452019103120191223122470500700063PENSION OCT 2019 SJL  *
D081777997014  00176496843       2017/156827    NAVARRO ORTIZ  MATTE00000000495000000000000000000000000000000000000000000006242019093020191223122470500700064PENSION SEP 2019 SJL  *
D081777997014  00176496843       2017/157854    NAVARRO ORTIZ  MATTE00000000495000000000000000000000000000000000000000000003942019103120191223122470500700064PENSION OCT 2019 SJL  *
D081777997014  00179093104       2017/159780    FERNANDEZ SALSAVILCA00000000560000000000000000000000000000000000000000000000172019122120191223122470500700072PENSION DIC 2019 SJL  *
D081777997014  00162577615       2017/155747    VILCHEZ MANCILLA  MA00000000495000000000000000000000000000000000000000000008462019083120191223122470500700085PENSION AGO 2019 SJL  *
D081777997014  00162577615       2017/156780    VILCHEZ MANCILLA  MA00000000495000000000000000000000000000000000000000000006242019093020191223122470500700085PENSION SEP 2019 SJL  *
D081777997014  00162577615       2017/157807    VILCHEZ MANCILLA  MA00000000495000000000000000000000000000000000000000000003942019103120191223122470500700085PENSION OCT 2019 SJL  *
D081777997014  00162577615       2017/158885    VILCHEZ MANCILLA  MA00000000495000000000000000000000000000000000000000000001712019113020191223122470500700085PENSION NOV 2019 SJL  *
D081777997014  00162577615       2017/159837    VILCHEZ MANCILLA  MA00000000495000000000000000000000000000000000000000000000152019122120191223122470500700085PENSION DIC 2019 SJL  *
D081777997014  00177103638       2017/157264    RIVERA VICENTE  ALEX00000000540000000000000000000000000000000000000000000006802019093020191223122470500700110PENSION SEP 2019 SJL  *
D081777997014  00177103638       2017/158286    RIVERA VICENTE  ALEX00000000540000000000000000000000000000000000000000000004292019103120191223122470500700110PENSION OCT 2019 SJL  *
D081777997014  00161424680       2017/78238996  PICHI ROJAS  NICOLAS00000000640000000000000000000000000000000000000000000008062019093020191223122540500700001PENSION SEP 2019 COL  *
D081777997014  00161424680       2017/78239647  PICHI ROJAS  NICOLAS00000000640000000000000000000000000000000000000000000005092019103120191223122540500700001PENSION OCT 2019 COL  *
D081777997014  00161424680       2017/78241432  PICHI ROJAS  NICOLAS00000000640000000000000000000000000000000000000000000002212019113020191223122540500700001PENSION NOV 2019 COL  *
D081777997014  00161424680       2017/78242652  PICHI ROJAS  NICOLAS00000000640000000000000000000000000000000000000000000000192019122120191223122540500700001PENSION DIC 2019 COL  *
D081777997014  00171319761       2017/78241810  ACUNA BARZOLA  ALEXI00000000640000000000000000000000000000000000000000000000192019122120191223222540500700006PENSION DIC 2019 COL  *
D081777997014  00160946582       2017/78241745  MARCELO LLERENA  NIC00000000640000000000000000000000000000000000000000000000192019122120191223122540500700043PENSION DIC 2019 COL  *
D081777997014  00161141801       FF19/1653      MANCILLA CRUZ  MATEO00000000640000000000000000000000000000000000000000000002212019113020191223122540500700069PENSION NOV 2019 COL  *
D081777997014  00161141801       FF19/1654      MANCILLA CRUZ  MATEO00000000640000000000000000000000000000000000000000000000192019122120191223122540500700069PENSION DIC 2019 COL  *
D081777997014  00171163533       2017/78242448  REYES GIRALDO  CAMIL00000000640000000000000000000000000000000000000000000000192019122120191223122540500700076PENSION DIC 2019 COL  *
D081777997014  00177642740       FF19/1783      MARTINEZ ZAVALETA  L00000000560000000000000000000000000000000000000000000004452019103120191223122540500700102PENSION OCT 2019 COL  *
D081777997014  00172179086       2017/78241766  LLERENA CANALES  ADR00000000640000000000000000000000000000000000000000000000192019122120191223122540500700144PENSION DIC 2019 COL  *
D081777997014  00170831871       2017/159464    VILLAFUERTE HUAMAN  00000000540000000000000000000000000000000000000000000001862019113020191223122660500700098PENSION NOV 2019 SJL  *
D081777997014  00174250884       2017/160368    ARIAS RAMOS  ANGHI C00000000540000000000000000000000000000000000000000000000162019122120191223126860500700007PENSION DIC 2019 SJL  *
D081777997014  00162047364       2017/158989    SOLARI TINEO  FAIRUS00000000550000000000000000000000000000000000000000000001902019113020191223126860500700013PENSION NOV 2019 SJL  *
D081777997014  00172778677       2017/160152    ESPINOZA URIBE  ANDR00000000378000000000000000000000000000000000000000000000112019122120191223126910500700008PENSION DIC 2019 SJL  *
D081777997014  00176709411       2017/157529    SALAZAR VASQUEZ  LEO00000000550000000000000000000000000000000000000000000004372019103120191223126910500700015PENSION OCT 2019 SJL  *
D081777997014  00173199452       2017/160287    RIOS PEREZ  ARIANA V00000000540000000000000000000000000000000000000000000000162019122120191223126910500700051PENSION DIC 2019 SJL  *
D081777997014  00174898092       2017/157224    RONQUILLO ALVAREZ  A00000000540000000000000000000000000000000000000000000006802019093020191223126910500700084PENSION SEP 2019 SJL  *
D081777997014  00174898092       2017/158267    RONQUILLO ALVAREZ  A00000000540000000000000000000000000000000000000000000004292019103120191223126910500700084PENSION OCT 2019 SJL  *
D081777997014  00174898092       2017/159428    RONQUILLO ALVAREZ  A00000000540000000000000000000000000000000000000000000001862019113020191223126910500700084PENSION NOV 2019 SJL  *
D081777997014  00174898092       2017/160290    RONQUILLO ALVAREZ  A00000000540000000000000000000000000000000000000000000000162019122120191223126910500700084PENSION DIC 2019 SJL  *
D081777997014  00172925579       2017/160528    TAMAYO NAUCA  LEONAR00000000486000000000000000000000000000000000000000000000152019122120191223126910500700089PENSION DIC 2019 SJL  *
D081777997014  00161773933       2017/80015904  JULON CUBAS  NELLY E00000000440000000000000000000000000000000000000000000005542019093020191223127020500700108PENSION SEP 2019 CAR  *
D081777997014  00161211586       2017/80015908  JULON CUBAS  PATRICK00000000440000000000000000000000000000000000000000000005542019093020191223127020500700110PENSION SEP 2019 CAR  *
D081777997014  00170637174       2017/158498    VILLANUEVA CONTRERAS00000000540000000000000000000000000000000000000000000001862019113020191223127420500700058PENSION NOV 2019 SJL  *
D081777997014  00170637174       2017/160382    VILLANUEVA CONTRERAS00000000540000000000000000000000000000000000000000000000162019122120191223127420500700062PENSION DIC 2019 SJL  *
D081777997014  00173216202       2017/160276    ZENA OSORIO  PRYSCIL00000000540000000000000000000000000000000000000000000000162019122120191223127420500700106PENSION DIC 2019 SJL  *
D081777997014  00175495894       2017/160275    LEGARDA VILCHEZ  SAR00000000540000000000000000000000000000000000000000000000162019122120191223227844651003819PENSION DIC 2019 SJL  *
D081777997014  00175702589       2017/78242356  LUY VALDIVIA  SANDRA00000000640000000000000000000000000000000000000000000000192019122120191223227844651009286PENSION DIC 2019 COL  *
D081777997014  00173217741       2017/78242179  LOPEZ GONZALES  KELL00000000640000000000000000000000000000000000000000000000192019122120191223227844651009549PENSION DIC 2019 COL  *
D081777997014  00172184984       2017/158426    SAAVEDRA AYBAR  CAMI00000000540000000000000000000000000000000000000000000004292019103120191223129470500700189PENSION OCT 2019 SJL  *
T081777997014  00101PENSION                       081777997014  000000001267783                                                                                                    *
T081777997014  00102PENSION SAN JUAN              081777997014  000000001696331                                                                                                    *
T081777997014  00103PENSION                       081777997014  000000000641114                                                                                                    *
H081777997014  003000009700000000499835000000000000020191223                                                                                                                       *
D081777997014  00376758198       2017/161372    PAREDES HUAMAN  JONA00000000484500000000000000000000000000000000000000000000002019122120191223120110500700045MATRICULA SJL         *
D081777997014  00360975000       2017/161343    APARICIO ACARO  BENJ00000000484500000000000000000000000000000000000000000000002019122120191223120110500700062MATRICULA SJL         *
D081777997014  00361261087       2017/80016101  UYPAN RAMIREZ  DAVID00000000467500000000000000000000000000000000000000000000002019122120191223120190500700109MATRICULA CAR         *
D081777997014  00372169134       2017/80016100  LUNA SANCHEZ  JOSE F00000000467500000000000000000000000000000000000000000000002019122120191223120190500700126MATRICULA CAR         *
D081777997014  00377255506       2017/80016115  AMASIFUEN TORRES  KA00000000476000000000000000000000000000000000000000000000002019122120191223220200500700153MATRICULA CAR         *
D081777997014  00374189608       2017/80016123  MORAN CUARESMA  JAMM00000000476000000000000000000000000000000000000000000000002019122120191223120210500700161MATRICULA CAR         *
D081777997014  00377937228       2017/161350    REBOLLEDO SANTIAGO  00000000484500000000000000000000000000000000000000000000002019122120191223120430500700046MATRICULA SJL         *
D081777997014  00361291019       2017/161349    VEGA MENDEZ  ANGELO 00000000484500000000000000000000000000000000000000000000002019122120191223120580500700074MATRICULA SJL         *
D081777997014  00371352295       2017/78243990  SANDOVAL SANDOVAL  L00000000569500000000000000000000000000000000000000000000002019122120191223120590500700098MATRICULA COL         *
D081777997014  00373174401       2017/78244017  RODRIGUEZ BROWN ACOS00000000569500000000000000000000000000000000000000000000002019122120191223120630500700094MATRICULA COL         *
D081777997014  00377720111       2017/78244016  RODRIGUEZ BROWN ACOS00000000493000000000000000000000000000000000000000000000002019122120191223120630500700096MATRICULA COL         *
D081777997014  00375452271       2017/78244041  ALVARADO ARTEAGA  AL00000000603000000000000000000000000000000000000000000000002019122120191223120700500700133MATRICULA COL         *
D081777997014  00361395718       2017/78244040  ALVARADO ARTEAGA  MA00000000603000000000000000000000000000000000000000000000002019122120191223120700500700136MATRICULA COL         *
D081777997014  00374784775       2017/78244042  NUNEZ SANCHEZ  BRAUL00000000603000000000000000000000000000000000000000000000002019122120191223120700500700152MATRICULA COL         *
D081777997014  00377440922       2017/78243984  HERRERA CAMERO  ANA 00000000569500000000000000000000000000000000000000000000002019122120191223120700500700154MATRICULA COL         *
D081777997014  00372400020       2017/78243974  MAGUINA GARCIA  ANDR00000000569500000000000000000000000000000000000000000000002019122120191223120700500700194MATRICULA COL         *
D081777997014  00370960053       2017/78243977  MAGUINA GARCIA  CLAU00000000569500000000000000000000000000000000000000000000002019122120191223120700500700195MATRICULA COL         *
D081777997014  00379236516       2017/78244023  ARAUJO CANSECO  YADI00000000484500000000000000000000000000000000000000000000002019122120191223120810500700060MATRICULA COL         *
D081777997014  00377690870       2017/78244028  DEXTRE MAS  JESUS AD00000000569500000000000000000000000000000000000000000000002019122120191223121350500700057MATRICULA COL         *
D081777997014  00372065423       2017/161337    POMACHAGUA ROJAS  LU00000000484500000000000000000000000000000000000000000000002019122120191223121440500700006MATRICULA SJL         *
D081777997014  00377788367       2017/161361    HEREDIA GUERRERO  LI00000000484500000000000000000000000000000000000000000000002019122120191223221700500700075MATRICULA SJL         *
D081777997014  00371687778       2017/78244015  MIGUEL QUICANA  JHAY00000000569500000000000000000000000000000000000000000000002019122120191223121770500700056MATRICULA COL         *
D081777997014  00362051195       2017/78243964  ROJAS PEREZ  MATIAS 00000000569500000000000000000000000000000000000000000000002019122120191223121770500700057MATRICULA COL         *
D081777997014  00377886625       2017/161385    MARTINEZ LEZAMA  JAC00000000484500000000000000000000000000000000000000000000002019122120191223121770500700069MATRICULA SJL         *
D081777997014  00361267543       2017/78244018  QUISPE MATAMOROS  VA00000000569500000000000000000000000000000000000000000000002019122120191223122030500700097MATRICULA COL         *
D081777997014  00375395228       2017/78243962  CHECA SANTIVANEZ  LU00000000569500000000000000000000000000000000000000000000002019122120191223122030500700132MATRICULA COL         *
D081777997014  00379099848       2017/161389    GAYTAN PORRAS  FERNA00000000484500000000000000000000000000000000000000000000002019122120191223122100500700056MATRICULA SJL         *
D081777997014  00377615143       2017/161383    GARCIA VASQUEZ  EVOL00000000484500000000000000000000000000000000000000000000002019122120191223122190500700084MATRICULA SJL         *
D081777997014  00360767446       2017/161384    GARCIA VASQUEZ  JUAN00000000484500000000000000000000000000000000000000000000002019122120191223122190500700085MATRICULA SJL         *
D081777997014  00372614369       2017/78243995  PRADA SANCHEZ  RICAR00000000569500000000000000000000000000000000000000000000002019122120191223122210500700040MATRICULA COL         *
D081777997014  00361106541       2017/161382    RODRIGUEZ CIEZA  RIC00000000484500000000000000000000000000000000000000000000002019122120191223122250500700088MATRICULA SJL         *
D081777997014  00377452229       2017/161362    GIRAO VALENCIA  XIME00000000484500000000000000000000000000000000000000000000002019122120191223122470500700056MATRICULA SJL         *
D081777997014  00377712924       2017/161414    RUMICHE ABREGU  BELL00000000484500000000000000000000000000000000000000000000002019122120191223122470500700120MATRICULA SJL         *
D081777997014  00377597759       2017/78243998  CLEMENTE ESCUDERO  A00000000569500000000000000000000000000000000000000000000002019122120191223122540500700093MATRICULA COL         *
D081777997014  00379580337       2017/78243993  PITOT MALAGA  KATE M00000000484500000000000000000000000000000000000000000000002019122120191223122540500700098MATRICULA COL         *
D081777997014  00377656329       2017/78243994  PITOT MALAGA  THIAGO00000000493000000000000000000000000000000000000000000000002019122120191223122540500700099MATRICULA COL         *
D081777997014  00360575096       2017/78244025  BUSTILLOS QUISPE  AL00000000569500000000000000000000000000000000000000000000002019122120191223122540500700107MATRICULA COL         *
D081777997014  00374310011       2017/78243985  LA CRUZ MUSAYON  ROS00000000569500000000000000000000000000000000000000000000002019122120191223222540500700111MATRICULA COL         *
D081777997014  00370708767       2017/78244003  CHIPANA QUISPE  ADRI00000000569500000000000000000000000000000000000000000000002019122120191223122540500700115MATRICULA COL         *
D081777997014  00377831167       2017/78244002  CHIPANA QUISPE  ALON00000000493000000000000000000000000000000000000000000000002019122120191223122540500700116MATRICULA COL         *
D081777997014  00372564489       2017/78244031  TARAZONA HUAMAN  VIC00000000569500000000000000000000000000000000000000000000002019122120191223122540500700119MATRICULA COL         *
D081777997014  00362336775       2017/78243972  QUISPE VILLA  YEREM 00000000569500000000000000000000000000000000000000000000002019122120191223122540500700120MATRICULA COL         *
D081777997014  00371170638       2017/78243988  ALCANTARA CHINCHAY  00000000569500000000000000000000000000000000000000000000002019122120191223122540500700123MATRICULA COL         *
D081777997014  00379121454       2017/161345    RIVADENEYRA VALQUI  00000000484500000000000000000000000000000000000000000000002019122120191223122660500700039MATRICULA SJL         *
D081777997014  00377118384       2017/161417    SAAVEDRA CASTRO  ANA00000000513000000000000000000000000000000000000000000000002019122120191223122800500700056MATRICULA SJL         *
D081777997014  00372754161       2017/78243904  GARCIA GARCIA  BRYAN00000000569500000000000000000000000000000000000000000000002019122120191223123720500700057MATRICULA COL         *
D081777997014  00360903055       2017/78244033  CHICOMA VASQUEZ  OSK00000000569500000000000000000000000000000000000000000000002019122120191223123860500700167MATRICULA COL         *
D081777997014  00372831960       2017/78244034  CHICOMA VASQUEZ  ALD00000000569500000000000000000000000000000000000000000000002019122120191223123860500700168MATRICULA COL         *
D081777997014  00378687675       2017/78244039  ATENCIO VARGAS  ISAB00000000484500000000000000000000000000000000000000000000002019122120191223124450500700098MATRICULA COL         *
D081777997014  00390001587       2017/78244012  ATENCIO VARGAS  SANT00000000570000000000000000000000000000000000000000000000002019122120191223124450500700099MATRICULA COL         *
D081777997014  00390001587       2017/78244013  ATENCIO VARGAS  SANT00000000350000000000000000000000000000000000000000000000002019122120191223124450500700100INSCRIPCION COL       *
D081777997014  00372989212       2017/78243908  PAREDES MARCOS  ANDR00000000569500000000000000000000000000000000000000000000002019122120191223126590500700068MATRICULA COL         *
D081777997014  00375647684       2017/78243982  MOREANO CABRERA  JOR00000000569500000000000000000000000000000000000000000000002019122120191223126610500700073MATRICULA COL         *
D081777997014  00376998229       2017/78244022  VASQUEZ CODARLUPO  G00000000569500000000000000000000000000000000000000000000002019122120191223126610500700092MATRICULA COL         *
D081777997014  00376998222       2017/78244021  VASQUEZ CODARLUPO  M00000000569500000000000000000000000000000000000000000000002019122120191223126610500700093MATRICULA COL         *
D081777997014  00373840351       2017/78243967  CHINCHAY AGUIRRE  AR00000000569500000000000000000000000000000000000000000000002019122120191223126610500700136MATRICULA COL         *
D081777997014  00381015712       2017/78243983  VELIZ MARTINEZ  CAMI00000000493000000000000000000000000000000000000000000000002019122120191223126610500700139MATRICULA COL         *
D081777997014  00370710720       2017/161336    GERALDO SOTO  JOSEPH00000000484500000000000000000000000000000000000000000000002019122120191223126860500700008MATRICULA SJL         *
D081777997014  00361178701       2017/161412    DURUAY RUPAY  PAULA 00000000484500000000000000000000000000000000000000000000002019122120191223126860500700009MATRICULA SJL         *
D081777997014  00372410597       2017/161403    MANRIQUE CARAVANTES 00000000484500000000000000000000000000000000000000000000002019122120191223126860500700010MATRICULA SJL         *
D081777997014  00376742767       2017/161413    SOLANO CURI  RICARDO00000000484500000000000000000000000000000000000000000000002019122120191223126860500700011MATRICULA SJL         *
D081777997014  00370770038       2017/161387    MASCCO DIAZ  MARIAFE00000000484500000000000000000000000000000000000000000000002019122120191223126860500700014MATRICULA SJL         *
D081777997014  00370532574       2017/161342    PORTILLO BLAS  FERNA00000000484500000000000000000000000000000000000000000000002019122120191223126910500700003MATRICULA SJL         *
D081777997014  00373765836       2017/161378    CARRASCO HUERTA  LEO00000000484500000000000000000000000000000000000000000000002019122120191223126910500700021MATRICULA SJL         *
D081777997014  00373841186       2017/161379    CARRASCO HUERTA  CAM00000000484500000000000000000000000000000000000000000000002019122120191223126910500700022MATRICULA SJL         *
D081777997014  00377011803       2017/161354    MASIAS ACEVEDO  ANDR00000000484500000000000000000000000000000000000000000000002019122120191223126910500700035MATRICULA SJL         *
D081777997014  00371152129       2017/161404    TORRE LINO  MISHELL 00000000484500000000000000000000000000000000000000000000002019122120191223126910500700037MATRICULA SJL         *
D081777997014  00379608530       2017/161370    TRUJILLO ZORRILLA  V00000000484500000000000000000000000000000000000000000000002019122120191223126910500700054MATRICULA SJL         *
D081777997014  00378605706       2017/161371    TRUJILLO ZORRILLA  Y00000000484500000000000000000000000000000000000000000000002019122120191223126910500700056MATRICULA SJL         *
D081777997014  00362047781       2017/161360    MINOPE MARTOS  NAYEL00000000484500000000000000000000000000000000000000000000002019122120191223126910500700059MATRICULA SJL         *
D081777997014  00377319459       2017/161359    MINOPE MARTOS  LUCIA00000000484500000000000000000000000000000000000000000000002019122120191223126910500700060MATRICULA SJL         *
D081777997014  00371012515       2017/161274    BONIFACIO LLAURY  DI00000000484500000000000000000000000000000000000000000000002019122120191223226910500700068MATRICULA SJL         *
D081777997014  00374884708       2017/161377    HUILLCA HERRERA  MAT00000000484500000000000000000000000000000000000000000000002019122120191223126910500700086MATRICULA SJL         *
D081777997014  00372869122       2017/161388    TUMIALAN AMAO  CRIST00000000484500000000000000000000000000000000000000000000002019122120191223127420500700007MATRICULA SJL         *
D081777997014  00373967045       2017/161346    GOVEA MACAVILCA  HEC00000000484500000000000000000000000000000000000000000000002019122120191223127420500700091MATRICULA SJL         *
D081777997014  00373850444       2017/161365    LAIME NIETO  OSCAR B00000000484500000000000000000000000000000000000000000000002019122120191223127420500700109MATRICULA SJL         *
D081777997014  00377882439       2017/161380    CERRON GARAY  ADRIAN00000000484500000000000000000000000000000000000000000000002019122120191223227844651010534MATRICULA SJL         *
D081777997014  00372251752       2017/161396    ESTRADA JIMENEZ  MEL00000000484500000000000000000000000000000000000000000000002019122120191223227844651011335MATRICULA SJL         *
D081777997014  00378555991       2017/161373    VILLAFRANCA MARCHAND00000000484500000000000000000000000000000000000000000000002019122120191223227844651011737MATRICULA SJL         *
D081777997014  00370955732       2017/161366    CAJAMALQUI MIRANDA  00000000484500000000000000000000000000000000000000000000002019122120191223227844651011793MATRICULA SJL         *
D081777997014  00374343042       2017/161394    ESTRADA JIMENEZ  LIN00000000484500000000000000000000000000000000000000000000002019122120191223227844651012577MATRICULA SJL         *
D081777997014  00379075790       2017/78243961  GOMEZ MONROY  THIAGO00000000484500000000000000000000000000000000000000000000002019122120191223227844651015207MATRICULA COL         *
D081777997014  00378560434       2017/80016107  MARQUEZ CASCO  FABIA00000000484500000000000000000000000000000000000000000000002019122120191223227844651015997MATRICULA CAR         *
D081777997014  00360872930       2017/78243970  ENRIQUEZ MARQUINA  D00000000569500000000000000000000000000000000000000000000002019122120191223227844651016124MATRICULA COL         *
D081777997014  00362875068       2017/78243960  RUIZ DE CASTILLA TOL00000000569500000000000000000000000000000000000000000000002019122120191223227844651016149MATRICULA COL         *
D081777997014  00377199103       2017/80016108  FLORES APONTE  ADRIA00000000476000000000000000000000000000000000000000000000002019122120191223227844651016247MATRICULA CAR         *
D081777997014  00374019395       2017/80016102  LAHURA HERRERA  VALE00000000476000000000000000000000000000000000000000000000002019122120191223227844651016450MATRICULA CAR         *
D081777997014  00372053088       2017/78244038  LARA MARROQUIN  SEBA00000000569500000000000000000000000000000000000000000000002019122120191223227844651016504MATRICULA COL         *
D081777997014  00371347859       2017/78243934  TUESTA GUABLOCHE  HE00000000569500000000000000000000000000000000000000000000002019122120191223227844651016957MATRICULA COL         *
D081777997014  00362798299       2017/78244027  HUERTA LEON  ALVARO 00000000569500000000000000000000000000000000000000000000002019122120191223227844651016971MATRICULA COL         *
D081777997014  00379570712       2017/78244026  HUERTA LEON  ARIANNA00000000484500000000000000000000000000000000000000000000002019122120191223227844651017057MATRICULA COL         *
D081777997014  00378789795       2017/80016122  IPARRAGUIRRE BARDALE00000000484500000000000000000000000000000000000000000000002019122120191223227844651017107MATRICULA CAR         *
D081777997014  00378411445       2017/80016111  CORTEZ BALTODANO  DI00000000476000000000000000000000000000000000000000000000002019122120191223227844651019533MATRICULA CAR         *
D081777997014  00373165218       2017/80016112  CORTEZ BALTODANO  MA00000000476000000000000000000000000000000000000000000000002019122120191223227844651019568MATRICULA CAR         *
D081777997014  00370732378       2017/80016113  CORTEZ BALTODANO  GA00000000467500000000000000000000000000000000000000000000002019122120191223227844651019593MATRICULA CAR         *
D081777997014  00377414809       2017/78244008  MERCADO HUAMAN  MATI00000000569500000000000000000000000000000000000000000000002019122120191223227844651021047MATRICULA COL         *
D081777997014  00373244998       2017/161416    LEON REATEGUI  DANIE00000000484500000000000000000000000000000000000000000000002019122120191223227844651022107MATRICULA SJL         *
T081777997014  00304MATRICULA                     081777997014  000000002499750                                                                                                    *
T081777997014  00305DERECHO DE INGRESO LIM 2018   081777997014  000000000035000                                                                                                    *
T081777997014  00306MATRICULA SJL - PREMATRICULA  081777997014  000000001940850                                                                                                    *
T081777997014  00308MATRICULA CAR 2019            081777997014  000000000522750                                                                                                    *
H081777997014  007000000100000000000250000000000000020191223                                                                                                                       *
D081777997014  00774868044       FF19/2352      ARTICA DE LA O  SAND00000000025000000000000000000000000000000000000000000000002019122120191223127420500700074EXCELENCIA ACAD SJL   *
T081777997014  00752EXCELENCIA ACAD SJL           081777997014  000000000002500                                                                                                    *
H081777997014  009000000600000000003600000000000000020191223                                                                                                                       *
D081777997014  00970646148       FF19/2378      BUSTAMANTE CUCIRRAMO00000000060000000000000000000000000000000000000000000000002019122120191223122160500700172CERT ESTUDIO COL DIC  *
D081777997014  00978395188       FF19/2376      BUSTAMANTE TAPULLIMA00000000060000000000000000000000000000000000000000000000002019122120191223122160500700173CERT ESTUDIO COL DIC  *
D081777997014  00975002335       FF19/2354      CANAL QUIROZ  JORGE 00000000060000000000000000000000000000000000000000000000002019122120191223222310500700085CERT ESTUDIO COL DIC  *
D081777997014  00975002336       FF19/2353      CANAL QUIROZ  JORGE 00000000060000000000000000000000000000000000000000000000002019122120191223222310500700086CERT ESTUDIO COL DIC  *
D081777997014  00979036341       FF19/2369      HIDALGO MUNOZ  BASTI00000000060000000000000000000000000000000000000000000000002019122120191223124450500700105CERT ESTUDIO COL DIC  *
D081777997014  00975033484       FF19/2367      HIDALGO MUNOZ  FERDI00000000060000000000000000000000000000000000000000000000002019122120191223124450500700107CERT ESTUDIO COL DIC  *
T081777997014  00925CERT ESTUDIO-COL              081777997014  000000000036000                                                                                                    *
H081777997014  010000000400000000001200000000000000020191223                                                                                                                       *
D081777997014  01070646148       FF19/2379      BUSTAMANTE CUCIRRAMO00000000030000000000000000000000000000000000000000000000002019122120191223122160500700172CCIA NO ADEUDO COL D  *
D081777997014  01078395188       FF19/2377      BUSTAMANTE TAPULLIMA00000000030000000000000000000000000000000000000000000000002019122120191223122160500700173CCIA NO ADEUDO COL D  *
D081777997014  01079036341       FF19/2370      HIDALGO MUNOZ  BASTI00000000030000000000000000000000000000000000000000000000002019122120191223124450500700105CCIA NO ADEUDO COL D  *
D081777997014  01075033484       FF19/2368      HIDALGO MUNOZ  FERDI00000000030000000000000000000000000000000000000000000000002019122120191223124450500700107CCIA NO ADEUDO COL D  *
T081777997014  01026CCIA NO ADEUDO COL            081777997014  000000000012000                                                                                                    *
H081777997014  012000000200000000000600000000000000020191223                                                                                                                       *
D081777997014  01277483423       FF19/2374      DAVILA VALVERDE  SEB00000000030000000000000000000000000000000000000000000000002019122120191223126910500700033PRA ACAD SJL DIC 201  *
D081777997014  01277483423       FF19/2375      DAVILA VALVERDE  SEB00000000030000000000000000000000000000000000000000000000002019122120191223126910500700034PRA ACAD SJL DIC 201  *
T081777997014  01257PRA ACAD SJL                  081777997014  000000000006000                                                                                                    *
H081777997014  016000000100000000003250000000000000020191223                                                                                                                       *
D081777997014  01620535828939    FF19/2344      B & C  COPY SERVICE 00000000325000000000000000000000000000000000000000000000002019122120191223120210500700030CONCESIONARIO DIC 20  *
T081777997014  01661ARRENDAMIENTO DE ESPACIO PARA 081777997014  000000000032500                                                                                                    *
