H081777997014  001000009700000000543301800000000000020191213                                                                                                                       *
D081777997014  00175491003       2017/78242126  GARCIA SAUSA  RENZO 00000000640000000000000000000000000000000000000000000000002019122120191213120100500700029PENSION DIC 2019 COL  *
D081777997014  00177517834       2017/78243200  PASTOR PINTO  PEYTON00000000560000000000000000000000000000000000000000000006222019093020191213120130500700066PENSION SEP 2019 COL  *
D081777997014  00177517834       2017/78243206  PASTOR PINTO  PEYTON00000000560000000000000000000000000000000000000000000003612019103120191213120130500700067PENSION OCT 2019 COL  *
D081777997014  00172068564       2017/78241374  ROBLES JARA  JANELU 00000000640000000000000000000000000000000000000000000001252019113020191213120140500700050PENSION NOV 2019 COL  *
D081777997014  00174136779       2017/78243091  PEREZ TENORIO  LEAND00000000640000000000000000000000000000000000000000000007102019093020191213120140500700121PENSION SEP 2019 COL  *
D081777997014  00160983365       2017/80015171  MONZON MATOS  VALERI00000000550000000000000000000000000000000000000000000000002019122120191213120210500700004PENSION DIC 2019 CAR  *
D081777997014  00161261087       2017/80015141  UYPAN RAMIREZ  DAVID00000000550000000000000000000000000000000000000000000000002019122120191213120210500700093PENSION DIC 2019 CAR  *
D081777997014  00170720798       2017/78241185  ALCARRAZ MUNAYCO  MA00000000640000000000000000000000000000000000000000000001252019113020191213220250500700130PENSION NOV 2019 COL  *
D081777997014  00172595136       2017/80015450  CAMPOMANES PAREDES  00000000385000000000000000000000000000000000000000000000752019113020191213220340500700001PENSION NOV 2019 CAR  *
D081777997014  00172595136       2017/80015451  CAMPOMANES PAREDES  00000000385000000000000000000000000000000000000000000000002019122120191213220340500700001PENSION DIC 2019 CAR  *
D081777997014  00175425434       2017/78242283  ARIAS MEDINA  NICOLA00000000640000000000000000000000000000000000000000000000002019122120191213220700500700128PENSION DIC 2019 COL  *
D081777997014  00172785945       2017/78240787  VERGARA SURICHAQUI  00000000640000000000000000000000000000000000000000000001252019113020191213220700500700145PENSION NOV 2019 COL  *
D081777997014  001566208428      2017/78240870  FUENTES TAPIA  JUAN 00000000640000000000000000000000000000000000000000000001252019113020191213220700500700156PENSION NOV 2019 COL  *
D081777997014  001566208428      2017/78241831  FUENTES TAPIA  JUAN 00000000640000000000000000000000000000000000000000000000002019122120191213220700500700156PENSION DIC 2019 COL  *
D081777997014  00177878345       2017/78242944  CALDERON ANTAURCO  S00000000560000000000000000000000000000000000000000000000002019122120191213120910500700113PENSION DIC 2019 COL  *
D081777997014  00177267625       2017/159113    CHOQUE ORE  FERNANDA00000000550000000000000000000000000000000000000000000001072019113020191213121540500700004PENSION NOV 2019 SJL  *
D081777997014  00177267625       2017/159975    CHOQUE ORE  FERNANDA00000000550000000000000000000000000000000000000000000000002019122120191213121540500700004PENSION DIC 2019 SJL  *
D081777997014  00174761231       2017/80014375  SALAZAR QUIJANO  MEL00000000540000000000000000000000000000000000000000000001052019113020191213121910500700016PENSION NOV 2019 CAR  *
D081777997014  00178145643       2017/78237043  MERINO ALTUNA  MARCE00000000560000000000000000000000000000000000000000000008742019083120191213222040500700008PENSION AGO 2019 COL  *
D081777997014  00178145643       2017/78238094  MERINO ALTUNA  MARCE00000000560000000000000000000000000000000000000000000006222019093020191213222040500700008PENSION SEP 2019 COL  *
D081777997014  00178145643       2017/78240059  MERINO ALTUNA  MARCE00000000560000000000000000000000000000000000000000000003612019103120191213222040500700008PENSION OCT 2019 COL  *
D081777997014  00178145643       2017/78240613  MERINO ALTUNA  MARCE00000000560000000000000000000000000000000000000000000001092019113020191213222040500700008PENSION NOV 2019 COL  *
D081777997014  00178145643       2017/78241961  MERINO ALTUNA  MARCE00000000560000000000000000000000000000000000000000000000002019122120191213222040500700008PENSION DIC 2019 COL  *
D081777997014  00178065537       2017/78239231  SEMINARIO RAMIREZ  S00000000560000000000000000000000000000000000000000000006222019093020191213122160500700040PENSION SEP 2019 COL  *
D081777997014  00178065537       2017/78239856  SEMINARIO RAMIREZ  S00000000560000000000000000000000000000000000000000000003612019103120191213122160500700040PENSION OCT 2019 COL  *
D081777997014  00174101636       2017/78240882  ROJAS RIVAS  LUIS FE00000000640000000000000000000000000000000000000000000001252019113020191213122160500700134PENSION NOV 2019 COL  *
D081777997014  00178666089       2017/78240519  NOVOA JIMENEZ  GEORG00000000560000000000000000000000000000000000000000000001092019113020191213122160500700165PENSION NOV 2019 COL  *
D081777997014  00173833606       2017/78231838  SARANGO ALDANA  FABR00000000640000000000000000000000000000000000000000000024672019033120191213122240500700087PENSION MAR 2019 COL  *
D081777997014  00173833606       2017/78233053  SARANGO ALDANA  FABR00000000640000000000000000000000000000000000000000000021792019043020191213122240500700087PENSION ABR 2019 COL  *
D081777997014  00173833606       2017/78234406  SARANGO ALDANA  FABR00000000640000000000000000000000000000000000000000000018822019053120191213122240500700087PENSION MAY 2019 COL  *
D081777997014  00173833606       2017/78235161  SARANGO ALDANA  FABR00000000640000000000000000000000000000000000000000000015942019063020191213122240500700087PENSION JUN 2019 COL  *
D081777997014  00173833606       2017/78236698  SARANGO ALDANA  FABR00000000640000000000000000000000000000000000000000000012962019073120191213122240500700087PENSION JUL 2019 COL  *
D081777997014  00173833606       2017/78238000  SARANGO ALDANA  FABR00000000640000000000000000000000000000000000000000000009982019083120191213122240500700087PENSION AGO 2019 COL  *
D081777997014  00173833606       2017/78239128  SARANGO ALDANA  FABR00000000640000000000000000000000000000000000000000000007102019093020191213122240500700087PENSION SEP 2019 COL  *
D081777997014  00173833606       2017/78239773  SARANGO ALDANA  FABR00000000640000000000000000000000000000000000000000000004132019103120191213122240500700087PENSION OCT 2019 COL  *
D081777997014  00173833606       2017/78241558  SARANGO ALDANA  FABR00000000640000000000000000000000000000000000000000000001252019113020191213122240500700087PENSION NOV 2019 COL  *
D081777997014  00174670535       2017/78238893  HERRERA DIAZ  YAITZA00000000640000000000000000000000000000000000000000000007102019093020191213122290500700048PENSION SEP 2019 COL  *
D081777997014  00174670535       2017/78239538  HERRERA DIAZ  YAITZA00000000640000000000000000000000000000000000000000000004132019103120191213122290500700048PENSION OCT 2019 COL  *
D081777997014  00174670535       2017/78241334  HERRERA DIAZ  YAITZA00000000640000000000000000000000000000000000000000000001252019113020191213122290500700048PENSION NOV 2019 COL  *
D081777997014  00171362087       2017/154513    AQUINO LLAMOCA  PIER00000000550000000000000000000000000000000000000000000011142019073120191213122470500700001PENSION JUL 2019 SJL  *
D081777997014  00176760893       2017/154693    AQUINO LLAMOCA  VALE00000000486000000000000000000000000000000000000000000009842019073120191213122470500700002PENSION JUL 2019 SJL  *
D081777997014  00173701761       2017/160302    CANDELA MACA  KEVIN 00000000486000000000000000000000000000000000000000000000002019122120191213122500500700065PENSION DIC 2019 SJL  *
D081777997014  00173962605       2017/158544    CANDELA MACA  PIERRE00000000540000000000000000000000000000000000000000000001052019113020191213122500500700066PENSION NOV 2019 SJL  *
D081777997014  00173962605       2017/160441    CANDELA MACA  PIERRE00000000540000000000000000000000000000000000000000000000002019122120191213122500500700066PENSION DIC 2019 SJL  *
D081777997014  00170588717       2017/78238136  VASQUEZ ANGELES  ARI00000000640000000000000000000000000000000000000000000007102019093020191213122540500700031PENSION SEP 2019 COL  *
D081777997014  00171167361       2017/78239454  PALOMINO ALVARADO  J00000000448000000000000000000000000000000000000000000002892019103120191213122540500700042PENSION OCT 2019 COL  *
D081777997014  00171167361       2017/78241239  PALOMINO ALVARADO  J00000000448000000000000000000000000000000000000000000000872019113020191213122540500700042PENSION NOV 2019 COL  *
D081777997014  00171670149       2017/78241235  SEBASTIANI PORTILLO 00000000640000000000000000000000000000000000000000000001252019113020191213122540500700136PENSION NOV 2019 COL  *
D081777997014  00171670149       2017/78242450  SEBASTIANI PORTILLO 00000000640000000000000000000000000000000000000000000000002019122120191213122540500700136PENSION DIC 2019 COL  *
D081777997014  00173323132       2017/78240970  SEBASTIANI PORTILLO 00000000576000000000000000000000000000000000000000000001122019113020191213122540500700137PENSION NOV 2019 COL  *
D081777997014  00173323132       2017/78242152  SEBASTIANI PORTILLO 00000000576000000000000000000000000000000000000000000000002019122120191213122540500700137PENSION DIC 2019 COL  *
D081777997014  00170717456       2017/78234777  AVILA CHIROQUE  VIAN00000000576000000000000000000000000000000000000000000014342019063020191213122540500700140PENSION JUN 2019 COL  *
D081777997014  00170717456       2017/78236314  AVILA CHIROQUE  VIAN00000000576000000000000000000000000000000000000000000011662019073120191213122540500700140PENSION JUL 2019 COL  *
D081777997014  00170717456       2017/78237602  AVILA CHIROQUE  VIAN00000000576000000000000000000000000000000000000000000008992019083120191213122540500700140PENSION AGO 2019 COL  *
D081777997014  00177963570       2017/78235299  AVILA CHIROQUE  YEIR00000000560000000000000000000000000000000000000000000013942019063020191213122540500700142PENSION JUN 2019 COL  *
D081777997014  00177963570       2017/78236836  AVILA CHIROQUE  YEIR00000000560000000000000000000000000000000000000000000011342019073120191213122540500700142PENSION JUL 2019 COL  *
D081777997014  00177963570       2017/78236909  AVILA CHIROQUE  YEIR00000000560000000000000000000000000000000000000000000008742019083120191213122540500700142PENSION AGO 2019 COL  *
D081777997014  00173152703       2017/78238964  RETAMAL CANDELA  DAN00000000640000000000000000000000000000000000000000000007102019093020191213122540500700145PENSION SEP 2019 COL  *
D081777997014  00160872846       2017/160773    REYNALTE GAYTAN  ANG00000000540000000000000000000000000000000000000000000000002019122120191213122660500700145PENSION DIC 2019 SJL  *
D081777997014  00161293671       2017/78241011  IPARRAGUIRRE BALAREZ00000000640000000000000000000000000000000000000000000001252019113020191213126610500700086PENSION NOV 2019 COL  *
D081777997014  00176501993       2017/78243003  SISNIEGAS SEMINARIO 00000000576000000000000000000000000000000000000000000001122019113020191213126610500700105PENSION NOV 2019 COL  *
D081777997014  00160753692       2017/159412    MASLUCAN PALACIOS  F00000000378000000000000000000000000000000000000000000000742019113020191213126860500700009PENSION NOV 2019 SJL  *
D081777997014  00160753692       2017/160274    MASLUCAN PALACIOS  F00000000378000000000000000000000000000000000000000000000002019122120191213126860500700009PENSION DIC 2019 SJL  *
D081777997014  00176313661       2017/157216    KOJIRA LOJA  MIGUEL 00000000540000000000000000000000000000000000000000000005992019093020191213126910500700060PENSION SEP 2019 SJL  *
D081777997014  00177403005       2017/157810    DIAZ RIVERO  ALEJAND00000000550000000000000000000000000000000000000000000003552019103120191213126910500700097PENSION OCT 2019 SJL  *
D081777997014  00172983687       2017/159103    ALVITES FLORES  ANDR00000000550000000000000000000000000000000000000000000001072019113020191213126910500700098PENSION NOV 2019 SJL  *
D081777997014  00172983687       2017/159965    ALVITES FLORES  ANDR00000000550000000000000000000000000000000000000000000000002019122120191213126910500700098PENSION DIC 2019 SJL  *
D081777997014  00174119903       2017/78240795  CHAVEZ AREVALO  NICO00000000640000000000000000000000000000000000000000000001252019113020191213127020500700036PENSION NOV 2019 COL  *
D081777997014  00174119903       2017/78242100  CHAVEZ AREVALO  NICO00000000640000000000000000000000000000000000000000000000002019122120191213127020500700037PENSION DIC 2019 COL  *
D081777997014  00177743992       2017/157827    ANDRADE AREVALO  XIM00000000550000000000000000000000000000000000000000000003552019103120191213127420500700011PENSION OCT 2019 SJL  *
D081777997014  00177743992       2017/158905    ANDRADE AREVALO  XIM00000000550000000000000000000000000000000000000000000001072019113020191213127420500700011PENSION NOV 2019 SJL  *
D081777997014  00177743992       2017/159857    ANDRADE AREVALO  XIM00000000550000000000000000000000000000000000000000000000002019122120191213127420500700011PENSION DIC 2019 SJL  *
D081777997014  00160980463       2017/157910    ANDRADE AREVALO  JAN00000000495000000000000000000000000000000000000000000003192019103120191213127420500700012PENSION OCT 2019 SJL  *
D081777997014  00160980463       2017/159092    ANDRADE AREVALO  JAN00000000495000000000000000000000000000000000000000000000972019113020191213127420500700012PENSION NOV 2019 SJL  *
D081777997014  00175300175       2017/159224    REYES LIZA  ANGELINA00000000385000000000000000000000000000000000000000000000752019113020191213227844651001367PENSION NOV 2019 SJL  *
D081777997014  00178002979       2017/80015509  ZORRILLA VILLALVA  B00000000385000000000000000000000000000000000000000000002482019103120191213227844651002770PENSION OCT 2019 CAR  *
D081777997014  00179219696       2017/80015499  ZORRILLA VILLALVA  R00000000392000000000000000000000000000000000000000000002532019103120191213227844651002777PENSION OCT 2019 CAR  *
D081777997014  00177444431       2017/78242718  GARCIA PUERTAS  ENRI00000000392000000000000000000000000000000000000000000000002019122120191213227844651003072PENSION DIC 2019 COL  *
D081777997014  00176482092       2017/78242500  ASTONITAS DENEGRI  E00000000640000000000000000000000000000000000000000000000002019122120191213227844651007329PENSION DIC 2019 COL  *
D081777997014  00173049209       2017/80015431  ROSAS MONTALBAN  RAI00000000378000000000000000000000000000000000000000000000002019122120191213227844651008257PENSION DIC 2019 CAR  *
D081777997014  00161771434       2017/80015411  ROSAS MONTALBAN  BRU00000000385000000000000000000000000000000000000000000000002019122120191213227844651008285PENSION DIC 2019 CAR  *
D081777997014  00177006357       2017/78242695  GIL CULQUI  ALYSSE M00000000504000000000000000000000000000000000000000000000002019122120191213227844651008897PENSION DIC 2019 COL  *
D081777997014  00178784265       2017/78241945  GIL CULQUI  XIMENA V00000000560000000000000000000000000000000000000000000000002019122120191213227844651008976PENSION DIC 2019 COL  *
D081777997014  00177744287       2017/78241681  CASTILLO MUNOZ  ATIK00000000392000000000000000000000000000000000000000000000762019113020191213227844651009231PENSION NOV 2019 COL  *
D081777997014  00177744287       2017/78242896  CASTILLO MUNOZ  ATIK00000000392000000000000000000000000000000000000000000000002019122120191213227844651009309PENSION DIC 2019 COL  *
D081777997014  00177401783       2017/80014575  MIRANDA ORTIZ  ISKAY00000000385000000000000000000000000000000000000000000000752019113020191213227844651010146PENSION NOV 2019 CAR  *
D081777997014  00178183180       2017/80014814  MORALES BOLIVAR  BEN00000000560000000000000000000000000000000000000000000000002019122120191213227844651014207PENSION DIC 2019 CAR  *
D081777997014  00173093575       2017/78242080  FLORES CASAS  CHRIST00000000640000000000000000000000000000000000000000000000002019122120191213227844671000098PENSION DIC 2019 COL  *
D081777997014  00177774645       2017/78236847  SAYAN BENAVENTE  SAN00000000560000000000000000000000000000000000000000000011262019073120191213227844671000478PENSION JUL 2019 COL  *
D081777997014  00177774645       2017/78236920  SAYAN BENAVENTE  SAN00000000560000000000000000000000000000000000000000000008652019083120191213227844671000479PENSION AGO 2019 COL  *
D081777997014  00177774645       2017/78239277  SAYAN BENAVENTE  SAN00000000560000000000000000000000000000000000000000000006132019093020191213227844671000480PENSION SEP 2019 COL  *
D081777997014  00177774645       2017/78239922  SAYAN BENAVENTE  SAN00000000560000000000000000000000000000000000000000000003532019103120191213227844671000481PENSION OCT 2019 COL  *
D081777997014  00174330524       2017/78241338  ROJAS TALAVERA  RAFA00000000576000000000000000000000000000000000000000000001042019113020191213227844671000811PENSION NOV 2019 COL  *
D081777997014  00179251764       2017/78240609  ROJAS TALAVERA  LEON00000000560000000000000000000000000000000000000000000001012019113020191213227844671000819PENSION NOV 2019 COL  *
D081777997014  00172423922       2017/78240786  PASTOR VERA  LEONARD00000000640000000000000000000000000000000000000000000001152019113020191213227844671000865PENSION NOV 2019 COL  *
D081777997014  00174343042       2017/152623    ESTRADA JIMENEZ  LIN00000000550000000000000000000000000000000000000000000016172019053120191213227844671001283PENSION MAY 2019 SJL  *
D081777997014  00172655524       2017/78238613  SOSA ALVARADO  LUIS 00000000640000000000000000000000000000000000000000000007102019093020191213129470500700007PENSION SEP 2019 COL  *
T081777997014  00101PENSION                       081777997014  000000003860447                                                                                                    *
T081777997014  00102PENSION SAN JUAN              081777997014  000000001082315                                                                                                    *
T081777997014  00103PENSION                       081777997014  000000000490256                                                                                                    *
H081777997014  003000001600000000076620000000000000020191213                                                                                                                       *
D081777997014  00373689303       2017/161102    PEREZ SEVILLANO  ERI00000000484500000000000000000000000000000000000000000000002019122120191213120100500700109MATRICULA SJL         *
D081777997014  00372932748       2017/161099    ZAPATA CRUZ  NIRIEL 00000000484500000000000000000000000000000000000000000000002019122120191213120160500700083MATRICULA SJL         *
D081777997014  00379706268       2017/161069    MORALES TANANTA  JUL00000000570000000000000000000000000000000000000000000000002019122120191213220580500700022MATRICULA SJL         *
D081777997014  00379706268       2017/161070    MORALES TANANTA  JUL00000000350000000000000000000000000000000000000000000000002019122120191213220580500700022INSCRIPCION SJL       *
D081777997014  00381690315       2017/160961    GAMARRA BARCENA  LUC00000000350000000000000000000000000000000000000000000000002019113020191213122240500700068INSCRIPCION SJL       *
D081777997014  00381474605       2017/161105    REYES PAYAJO  FARID 00000000484500000000000000000000000000000000000000000000002019122120191213122470500700004MATRICULA SJL         *
D081777997014  00361250668       2017/161104    MARQUEZ REQUENA  CAR00000000484500000000000000000000000000000000000000000000002019122120191213222500500700093MATRICULA SJL         *
D081777997014  00373131715       2017/161103    MARQUEZ REQUENA  ERI00000000484500000000000000000000000000000000000000000000002019122120191213222500500700094MATRICULA SJL         *
D081777997014  00379282192       2017/161112    HUARANGA LAZARO  SOF00000000484500000000000000000000000000000000000000000000002019122120191213226800500700059MATRICULA SJL         *
D081777997014  00378241953       2017/161113    HUARANGA LAZARO  TAT00000000484500000000000000000000000000000000000000000000002019122120191213226800500700061MATRICULA SJL         *
D081777997014  00370413541       2017/161116    DUENAS MEDRANO  SAMA00000000484500000000000000000000000000000000000000000000002019122120191213126910500700038MATRICULA SJL         *
D081777997014  00362644320       2017/161130    HUAYHUA SUELDO  IAN 00000000484500000000000000000000000000000000000000000000002019122120191213126910500700115MATRICULA SJL         *
D081777997014  00378895617       2017/161129    HUAYHUA SUELDO  KEIR00000000484500000000000000000000000000000000000000000000002019122120191213126910500700116MATRICULA SJL         *
D081777997014  00377960454       2017/78243750  LOPEZ CHAVARRIA  DAR00000000493000000000000000000000000000000000000000000000002019122120191213227844651003256MATRICULA COL         *
D081777997014  00360914997       2017/78243743  CLEMENTE SULCA  JOSE00000000569500000000000000000000000000000000000000000000002019122120191213227844651005999MATRICULA COL         *
D081777997014  00379620551       2017/78243770  CHAVEZ APOLO  ASHLEY00000000484500000000000000000000000000000000000000000000002019122120191213227844651011166MATRICULA COL         *
T081777997014  00304MATRICULA                     081777997014  000000000154700                                                                                                    *
T081777997014  00306MATRICULA SJL - PREMATRICULA  081777997014  000000000541500                                                                                                    *
T081777997014  00307DERECHO DE INGRESO SJL 2019   081777997014  000000000070000                                                                                                    *
H081777997014  009000000300000000001800000000000000020191213                                                                                                                       *
D081777997014  00973132060       FF19/2308      VARGAS PULACHE  BRAY00000000060000000000000000000000000000000000000000000000002019122120191213120130500700124CERT ESTUDIO COL DIC  *
D081777997014  00972040542       FF19/2310      PAJUELO PAREDES  ALE00000000060000000000000000000000000000000000000000000000002019122120191213222540500700030CERT ESTUDIO COL DIC  *
D081777997014  00973030024       FF19/2305      RIVERA  JAVIER  CHRI00000000060000000000000000000000000000000000000000000000002019122120191213126910500700083CERT ESTUDIOS SJL DI  *
T081777997014  00925CERT ESTUDIO-COL              081777997014  000000000012000                                                                                                    *
T081777997014  00954CERT ESTUDIOS SJL             081777997014  000000000006000                                                                                                    *
