H081777997014  001000003100000000176943500000000000020191121                                                                                                                       *
D081777997014  00176895288       2017/78241453  CANO CASTILLO  LUCIA00000000560000000000000000000000000000000000000000000000002019113020191121120140500700036PENSION NOV 2019 COL  *
D081777997014  00174067560       2017/80013956  ZARATE GUTIERREZ  WI00000000459000000000000000000000000000000000000000000001452019103120191121220190500700088PENSION OCT 2019 CAR  *
D081777997014  00179088636       2017/157645    OSORIO OSORIO  VICTO00000000560000000000000000000000000000000000000000000001762019103120191121120360500700063PENSION OCT 2019 SJL  *
D081777997014  00171178133       2017/158684    BAQUERIZO SILVA  OSW00000000550000000000000000000000000000000000000000000000002019113020191121120530500700004PENSION NOV 2019 SJL  *
D081777997014  00174342868       2017/159063    RAMOS MONTENEGRO  JO00000000550000000000000000000000000000000000000000000000002019113020191121121350500700028PENSION NOV 2019 SJL  *
D081777997014  00176894459       2017/78243231  CAHUANA DE LA CRUZ  00000000560000000000000000000000000000000000000000000000002019113020191121122240500700040PENSION NOV 2019 COL  *
D081777997014  00172014082       2017/78235914  GALVEZ RODRIGUEZ  CH00000000640000000000000000000000000000000000000000000010852019073120191121122240500700041PENSION JUL 2019 COL  *
D081777997014  00160309379       2017/157988    SANCHEZ MONDRAGON  V00000000550000000000000000000000000000000000000000000001732019103120191121122470500700004PENSION OCT 2019 SJL  *
D081777997014  00170628554       2017/158583    GARCIA MORA  MARIANO00000000486000000000000000000000000000000000000000000000002019113020191121222480500700127PENSION NOV 2019 SJL  *
D081777997014  00177824035       2017/158983    GARCIA MORA  CAMILA 00000000550000000000000000000000000000000000000000000000002019113020191121222480500700129PENSION NOV 2019 SJL  *
D081777997014  00178625883       2017/78240235  POICON RAMIREZ  TANI00000000504000000000000000000000000000000000000000000001592019103120191121122540500700005PENSION OCT 2019 COL  *
D081777997014  00178625870       2017/78240027  POICON RAMIREZ  PATR00000000560000000000000000000000000000000000000000000001762019103120191121122540500700006PENSION OCT 2019 COL  *
D081777997014  00173729735       2017/78235975  RAMIREZ MALCA  AXEL 00000000640000000000000000000000000000000000000000000010852019073120191121122540500700080PENSION JUL 2019 COL  *
D081777997014  00173729735       2017/78237263  RAMIREZ MALCA  AXEL 00000000640000000000000000000000000000000000000000000007872019083120191121122540500700080PENSION AGO 2019 COL  *
D081777997014  00175540746       2017/159283    CANTORAL PAREDES  DI00000000540000000000000000000000000000000000000000000000002019113020191121222730500700010PENSION NOV 2019 SJL  *
D081777997014  00178065537       2017/78235244  SEMINARIO RAMIREZ  S00000000560000000000000000000000000000000000000000000012102019063020191121222730500700011PENSION JUN 2019 COL  *
D081777997014  00178088511       2017/78239933  CHURA MOSTACERO  GIA00000000560000000000000000000000000000000000000000000001762019103120191121123720500700081PENSION OCT 2019 COL  *
D081777997014  00161179385       2017/156730    ARMAS HUAMAN  RICARD00000000495000000000000000000000000000000000000000000003862019093020191121126860500700001PENSION SEP 2019 SJL  *
D081777997014  00162433488       2017/156923    ARMAS HUAMAN  YAMILE00000000550000000000000000000000000000000000000000000004292019093020191121126860500700002PENSION SEP 2019 SJL  *
D081777997014  00174344848       2017/157818    HUERTA SOLIS  FABIOL00000000550000000000000000000000000000000000000000000001732019103120191121126910500700076PENSION OCT 2019 SJL  *
D081777997014  00174344848       2017/158896    HUERTA SOLIS  FABIOL00000000550000000000000000000000000000000000000000000000002019113020191121126910500700076PENSION NOV 2019 SJL  *
D081777997014  00173092076       2017/78241087  SANCHEZ QUISPE  JOSE00000000640000000000000000000000000000000000000000000000002019113020191121227844651000346PENSION NOV 2019 COL  *
D081777997014  00172594969       2017/159167    MALDONADO OQUENDO  A00000000550000000000000000000000000000000000000000000000002019113020191121227844651001510PENSION NOV 2019 SJL  *
D081777997014  00172594969       2017/160020    MALDONADO OQUENDO  A00000000550000000000000000000000000000000000000000000000002019122120191121227844651001512PENSION DIC 2019 SJL  *
D081777997014  00177206691       2017/78235906  MARTINEZ MAMANI  FRA00000000640000000000000000000000000000000000000000000010852019073120191121227844651002836PENSION JUL 2019 COL  *
D081777997014  00175083679       2017/78243383  BEGAZO VEGA  GUILLER00000000640000000000000000000000000000000000000000000007872019083120191121227844651005932PENSION AGO 2019 COL  *
D081777997014  00175083679       2017/78243384  BEGAZO VEGA  GUILLER00000000640000000000000000000000000000000000000000000004992019093020191121227844651005933PENSION SEP 2019 COL  *
D081777997014  00175083679       2017/78243385  BEGAZO VEGA  GUILLER00000000640000000000000000000000000000000000000000000002022019103120191121227844651005935PENSION OCT 2019 COL  *
D081777997014  00178557068       2017/80013063  QUISPE GALINDO  CAMI00000000560000000000000000000000000000000000000000000006892019083120191121227844651008398PENSION AGO 2019 CAR  *
D081777997014  00178557068       2017/80013468  QUISPE GALINDO  CAMI00000000560000000000000000000000000000000000000000000004372019093020191121227844651008399PENSION SEP 2019 CAR  *
D081777997014  00178557068       2017/80014030  QUISPE GALINDO  CAMI00000000560000000000000000000000000000000000000000000001762019103120191121227844651008400PENSION OCT 2019 CAR  *
T081777997014  00101PENSION                       081777997014  000000000849651                                                                                                    *
T081777997014  00102PENSION SAN JUAN              081777997014  000000000704437                                                                                                    *
T081777997014  00103PENSION                       081777997014  000000000215347                                                                                                    *
H081777997014  003000000100000000003500000000000000020191121                                                                                                                       *
D081777997014  00379700714       2017/161000    HUAMANI ROSALES  AND00000000350000000000000000000000000000000000000000000000002019113020191121122300500700124INSCRIPCION SJL       *
T081777997014  00307DERECHO DE INGRESO SJL 2018   081777997014  000000000035000                                                                                                    *
H081777997014  009000000300000000001800000000000000020191121                                                                                                                       *
D081777997014  00970995262       FF19/2255      NAVARRO LLANOS  DANA00000000060000000000000000000000000000000000000000000000002019113020191121121440500700002CERT ESTUDIOS SJL NO  *
D081777997014  00971407045       FF19/2260      RIVAS VASQUEZ  CHRIS00000000060000000000000000000000000000000000000000000000002019113020191121122540500700028CERT ESTUDIO COL NOV  *
D081777997014  00972418515       FF19/2262      CUADROS CASTILLO  GR00000000060000000000000000000000000000000000000000000000002019113020191121124280500700055CERT ESTUDIO COL NOV  *
T081777997014  00925CERT ESTUDIO-COL              081777997014  000000000012000                                                                                                    *
T081777997014  00954CERT ESTUDIOS SJL             081777997014  000000000006000                                                                                                    *
H081777997014  010000000200000000000600000000000000020191121                                                                                                                       *
D081777997014  01061215129       FF19/2248      MARTINEZ SILVA  MATI00000000030000000000000000000000000000000000000000000000002019113020191121120190500700089CCIA NO ADEUDO COL N  *
D081777997014  01062946427       FF19/2240      QUINONES ALARCON  RO00000000030000000000000000000000000000000000000000000000002019113020191121122640500700131CCIA NO ADEUDO CAR N  *
T081777997014  01026CCIA NO ADEUDO COL            081777997014  000000000003000                                                                                                    *
T081777997014  01086CCIA NO ADEUDO CAR            081777997014  000000000003000                                                                                                    *
H081777997014  017000000100000000010000000000000000020191121                                                                                                                       *
D081777997014  01720604408122    FF19/2238      DE ALIMENTOS  A & Z 00000001000000000000000000000000000000000000000000000000002019113020191121126910500700047CONCESIONARIO NOV 20  *
T081777997014  01762ARRENDAMIENTO DE ESPACIO PARA 081777997014  000000000100000                                                                                                    *
