H081777997014  001000010500000000563454300000000000020191129                                                                                                                       *
D081777997014  00175857700       2017/158580    CHAVEZ SANCHEZ  DIAN00000000486000000000000000000000000000000000000000000000002019113020191129120100500700236PENSION NOV 2019 SJL  *
D081777997014  00170629460       2017/158473    CHAVEZ SANCHEZ  GABR00000000540000000000000000000000000000000000000000000000002019113020191129120100500700237PENSION NOV 2019 SJL  *
D081777997014  00170458108       2017/159275    MANRIQUE CARAVANTES 00000000486000000000000000000000000000000000000000000000002019113020191129120100500700238PENSION NOV 2019 SJL  *
D081777997014  00172410597       2017/158489    MANRIQUE CARAVANTES 00000000540000000000000000000000000000000000000000000000002019113020191129120100500700239PENSION NOV 2019 SJL  *
D081777997014  00174789816       2017/80014198  BELLIDO MARIN  GONZA00000000550000000000000000000000000000000000000000000002392019103120191129120100500700314PENSION OCT 2019 CAR  *
D081777997014  00178847381       2017/78238175  CERON SAENZ  ALEJAND00000000560000000000000000000000000000000000000000000005042019093020191129120140500700072PENSION SEP 2019 COL  *
D081777997014  00170452134       2017/78240813  BELLIDO CORDOVA  PAU00000000448000000000000000000000000000000000000000000000002019113020191129220190500700174PENSION NOV 2019 COL  *
D081777997014  00172588736       2017/78241425  BELLIDO CORDOVA  ALE00000000448000000000000000000000000000000000000000000000002019113020191129220190500700175PENSION NOV 2019 COL  *
D081777997014  00177369899       2017/80015150  SILVA BARREDA  ADRIA00000000495000000000000000000000000000000000000000000000002019122120191129120210500700031PENSION DIC 2019 CAR  *
D081777997014  00171154383       2017/80014893  SILVA BARREDA  GENAR00000000495000000000000000000000000000000000000000000000002019122120191129120210500700032PENSION DIC 2019 CAR  *
D081777997014  00161423716       2017/80015330  CRISOSTOMO ALBORNOZ 00000000385000000000000000000000000000000000000000000000002019113020191129120210500700118PENSION NOV 2019 CAR  *
D081777997014  00172925579       2017/160513    TAMAYO NAUCA  LEONAR00000000486000000000000000000000000000000000000000000000002019113020191129120580500700106PENSION NOV 2019 SJL  *
D081777997014  00178749316       2017/158629    ALVA GARRIDO  LUANA 00000000560000000000000000000000000000000000000000000000002019113020191129120590500700067PENSION NOV 2019 SJL  *
D081777997014  00173257018       2017/78240740  GUEVARA SOTO  PIERO 00000000640000000000000000000000000000000000000000000000002019113020191129120600500700109PENSION NOV 2019 COL  *
D081777997014  00176979609       2017/157237    LOPEZ JAUREGUI  ROBE00000000540000000000000000000000000000000000000000000004862019093020191129120790500700074PENSION SEP 2019 SJL  *
D081777997014  00177878345       2017/78241729  CALDERON ANTAURCO  S00000000560000000000000000000000000000000000000000000000002019113020191129120910500700058PENSION NOV 2019 COL  *
D081777997014  00178517115       2017/157623    CASTRO FARRO  ARIADN00000000560000000000000000000000000000000000000000000002442019103120191129120920500700104PENSION OCT 2019 SJL  *
D081777997014  00178517115       2017/158845    CASTRO FARRO  ARIADN00000000560000000000000000000000000000000000000000000000002019113020191129120920500700104PENSION NOV 2019 SJL  *
D081777997014  00176886621       2017/158941    TOBALINO DAVALOS  LE00000000550000000000000000000000000000000000000000000000002019113020191129121110500700056PENSION NOV 2019 SJL  *
D081777997014  00177431310       2017/159318    VILCAPOMA QUISPE  RE00000000486000000000000000000000000000000000000000000000002019113020191129121110500700058PENSION NOV 2019 SJL  *
D081777997014  00177431310       2017/160180    VILCAPOMA QUISPE  RE00000000486000000000000000000000000000000000000000000000002019122120191129121110500700061PENSION DIC 2019 SJL  *
D081777997014  00170730395       2017/158960    VILCAPOMA QUISPE  AM00000000550000000000000000000000000000000000000000000000002019113020191129121110500700062PENSION NOV 2019 SJL  *
D081777997014  00170730395       2017/159753    VILCAPOMA QUISPE  AM00000000550000000000000000000000000000000000000000000000002019122120191129121110500700063PENSION DIC 2019 SJL  *
D081777997014  00160983365       2017/80014690  MONZON MATOS  VALERI00000000550000000000000000000000000000000000000000000000002019113020191129121350500700173PENSION NOV 2019 CAR  *
D081777997014  00178447823       2017/78240545  CORDOVA PEREZ  ANAHI00000000560000000000000000000000000000000000000000000000002019113020191129121770500700012PENSION NOV 2019 COL  *
D081777997014  00177347612       2017/78241008  CORDOVA PEREZ  JUAN 00000000576000000000000000000000000000000000000000000000002019113020191129121770500700013PENSION NOV 2019 COL  *
D081777997014  00177265377       2017/80014743  GODOY ROJAS  FABIANA00000000550000000000000000000000000000000000000000000000002019113020191129121770500700035PENSION NOV 2019 CAR  *
D081777997014  00177265377       2017/80015156  GODOY ROJAS  FABIANA00000000550000000000000000000000000000000000000000000000002019122120191129121770500700035PENSION DIC 2019 CAR  *
D081777997014  00161295038       2017/80013376  SANCA RAMOS  MAYUMI 00000000495000000000000000000000000000000000000000000004462019093020191129121910500700006PENSION SEP 2019 CAR  *
D081777997014  00161295038       2017/80013968  SANCA RAMOS  MAYUMI 00000000495000000000000000000000000000000000000000000002152019103120191129121910500700007PENSION OCT 2019 CAR  *
D081777997014  00161295037       2017/80013401  SANCA RAMOS  BRIANA 00000000550000000000000000000000000000000000000000000004952019093020191129121910500700008PENSION SEP 2019 CAR  *
D081777997014  00161295037       2017/80013982  SANCA RAMOS  BRIANA 00000000550000000000000000000000000000000000000000000002392019103120191129121910500700008PENSION OCT 2019 CAR  *
D081777997014  00175395228       2017/78240967  CHECA SANTIVANEZ  LU00000000640000000000000000000000000000000000000000000000002019113020191129122030500700009PENSION NOV 2019 COL  *
D081777997014  00172251752       2017/152010    ESTRADA JIMENEZ  MEL00000000486000000000000000000000000000000000000000000015532019043020191129122140500700130PENSION ABR 2019 SJL  *
D081777997014  00178050459       2017/78241638  QUISPE CASTILLO  LUC00000000392000000000000000000000000000000000000000000000002019113020191129122160500700002PENSION NOV 2019 COL  *
D081777997014  00170617512       2017/78240954  GARCIA GUTIERREZ  JO00000000640000000000000000000000000000000000000000000000002019113020191129122160500700070PENSION NOV 2019 COL  *
D081777997014  00170617512       2017/78242136  GARCIA GUTIERREZ  JO00000000640000000000000000000000000000000000000000000000002019122120191129122160500700070PENSION DIC 2019 COL  *
D081777997014  00172614369       2017/78241010  PRADA SANCHEZ  RICAR00000000640000000000000000000000000000000000000000000000002019113020191129122210500700055PENSION NOV 2019 COL  *
D081777997014  00170724298       2017/80014414  HIDALGO ROJAS  CARLO00000000540000000000000000000000000000000000000000000000002019113020191129122230500700039PENSION NOV 2019 CAR  *
D081777997014  00173920991       2017/80014569  AGUILAR VASQUEZ  EDU00000000550000000000000000000000000000000000000000000000002019113020191129222540500700024PENSION NOV 2019 CAR  *
D081777997014  00170966885       2017/78241200  CHAVEZ TAMANI  EMMA 00000000640000000000000000000000000000000000000000000000002019113020191129122540500700051PENSION NOV 2019 COL  *
D081777997014  00176491388       2017/78239557  ROJAS MILLAN  PABLO 00000000640000000000000000000000000000000000000000000002782019103120191129122540500700064PENSION OCT 2019 COL  *
D081777997014  00174330377       2017/78241314  ALVINO VILCHEZ  CAMI00000000640000000000000000000000000000000000000000000000002019113020191129122540500700069PENSION NOV 2019 COL  *
D081777997014  00171002510       2017/78240656  ALVINO VILCHEZ  JHON00000000576000000000000000000000000000000000000000000000002019113020191129122540500700070PENSION NOV 2019 COL  *
D081777997014  00171160581       2017/78241243  PASTOR LESCANO  ADRI00000000640000000000000000000000000000000000000000000000002019113020191129122540500700097PENSION NOV 2019 COL  *
D081777997014  00175083767       2017/78240943  CONDOR MEZA  MELANY 00000000640000000000000000000000000000000000000000000000002019113020191129122540500700111PENSION NOV 2019 COL  *
D081777997014  00175083767       2017/78242125  CONDOR MEZA  MELANY 00000000640000000000000000000000000000000000000000000000002019122120191129122540500700111PENSION DIC 2019 COL  *
D081777997014  00170736627       2017/78241258  ALBAN TANTALEAN  JUA00000000640000000000000000000000000000000000000000000000002019113020191129122660500700071PENSION NOV 2019 COL  *
D081777997014  00161178134       2017/78238811  CABALLERO REAP  MATH00000000640000000000000000000000000000000000000000000005762019093020191129223880500700005PENSION SEP 2019 COL  *
D081777997014  00172152390       2017/78240879  LEON MARTINEZ  NORAH00000000640000000000000000000000000000000000000000000000002019113020191129126610500700104PENSION NOV 2019 COL  *
D081777997014  00160917742       2017/78240771  MALPICA AGUILAR  ANT00000000576000000000000000000000000000000000000000000000002019113020191129126610500700140PENSION NOV 2019 COL  *
D081777997014  00172834813       2017/78241428  MALPICA AGUILAR  MAD00000000640000000000000000000000000000000000000000000000002019113020191129126610500700141PENSION NOV 2019 COL  *
D081777997014  00172831922       2017/78241363  ROMERO RICALDI  MANU00000000576000000000000000000000000000000000000000000000002019113020191129126610500700153PENSION NOV 2019 COL  *
D081777997014  00177313511       2017/78241446  ROMERO RICALDI  SERG00000000560000000000000000000000000000000000000000000000002019113020191129126610500700154PENSION NOV 2019 COL  *
D081777997014  00170857264       2017/78237525  VALDIVIESO FERNANDEZ00000000640000000000000000000000000000000000000000000008642019083120191129126610500700178PENSION AGO 2019 COL  *
D081777997014  00174250884       2017/158484    ARIAS RAMOS  ANGHI C00000000540000000000000000000000000000000000000000000000002019113020191129126860500700001PENSION NOV 2019 SJL  *
D081777997014  00162047364       2017/157774    SOLARI TINEO  FAIRUS00000000550000000000000000000000000000000000000000000002392019103120191129126860500700002PENSION OCT 2019 SJL  *
D081777997014  00173840798       2017/157860    VILLAFUERTE CAMACHO 00000000550000000000000000000000000000000000000000000002392019103120191129126860500700003PENSION OCT 2019 SJL  *
D081777997014  00170532574       2017/160167    PORTILLO BLAS  FERNA00000000540000000000000000000000000000000000000000000000002019122120191129126910500700023PENSION DIC 2019 SJL  *
D081777997014  00177011803       2017/158696    MASIAS ACEVEDO  ANDR00000000550000000000000000000000000000000000000000000000002019113020191129126910500700032PENSION NOV 2019 SJL  *
D081777997014  00174877962       2017/159455    GUILLERMO PAZ  FRESI00000000540000000000000000000000000000000000000000000000002019113020191129126910500700057PENSION NOV 2019 SJL  *
D081777997014  00170703770       2017/158961    PALACIOS YANGALI  VE00000000550000000000000000000000000000000000000000000000002019113020191129126910500700065PENSION NOV 2019 SJL  *
D081777997014  00173442668       2017/159411    PALOMINO DE LA CRUZ 00000000540000000000000000000000000000000000000000000000002019113020191129127420500700067PENSION NOV 2019 SJL  *
D081777997014  00172867293       2017/78240978  ROQUE FLORES  GABRIE00000000480000000000000000000000000000000000000000000000002019113020191129227844651002124PENSION NOV 2019 COL  *
D081777997014  00172867293       2017/78242193  ROQUE FLORES  GABRIE00000000480000000000000000000000000000000000000000000000002019122120191129227844651002141PENSION DIC 2019 COL  *
D081777997014  00177763184       2017/78241645  SANCHEZ TAPIA  JUAN 00000000560000000000000000000000000000000000000000000000002019113020191129227844651002632PENSION NOV 2019 COL  *
D081777997014  00172831324       2017/159196    FERNANDEZ TAPARA  JU00000000550000000000000000000000000000000000000000000000002019113020191129227844651003199PENSION NOV 2019 SJL  *
D081777997014  00163083705       2017/78241501  RUEDA HUANCA  ADRIAN00000000560000000000000000000000000000000000000000000000002019113020191129227844651004609PENSION NOV 2019 COL  *
D081777997014  00176056105       2017/78241012  ALZAMORA GUPIOC  KEL00000000448000000000000000000000000000000000000000000000002019113020191129227844651005014PENSION NOV 2019 COL  *
D081777997014  00176056105       2017/78242254  ALZAMORA GUPIOC  KEL00000000448000000000000000000000000000000000000000000000002019122120191129227844651005081PENSION DIC 2019 COL  *
D081777997014  00170625079       2017/78240942  MEDINA DONAYRE  DIAN00000000576000000000000000000000000000000000000000000000002019113020191129227844651007488PENSION NOV 2019 COL  *
D081777997014  00170625067       2017/78240888  MEDINA DONAYRE  ALAN00000000640000000000000000000000000000000000000000000000002019113020191129227844651007489PENSION NOV 2019 COL  *
D081777997014  00163083705       2017/78242716  RUEDA HUANCA  ADRIAN00000000560000000000000000000000000000000000000000000000002019122120191129227844651008179PENSION DIC 2019 COL  *
D081777997014  00172696318       2017/159446    ROLDAN SALAZAR  NICO00000000540000000000000000000000000000000000000000000000002019113020191129227844651010696PENSION NOV 2019 SJL  *
D081777997014  00161007969       2017/78240915  CORDERO MIRANDA  ANT00000000640000000000000000000000000000000000000000000000002019113020191129227844651010947PENSION NOV 2019 COL  *
D081777997014  00170724319       2017/158891    ECHEVERRIA VILLAR  L00000000550000000000000000000000000000000000000000000000002019113020191129227844651011555PENSION NOV 2019 SJL  *
D081777997014  00179214201       2017/158731    ORTEGA TOROBEO  RAYS00000000560000000000000000000000000000000000000000000000002019113020191129227844651012475PENSION NOV 2019 SJL  *
D081777997014  00161176910       2017/158681    RAMIREZ GUTIERREZ  V00000000385000000000000000000000000000000000000000000000002019113020191129227844651013115PENSION NOV 2019 SJL  *
D081777997014  00172699032       2017/158486    RAMIREZ GUTIERREZ  N00000000378000000000000000000000000000000000000000000000002019113020191129227844651013182PENSION NOV 2019 SJL  *
D081777997014  00160419902       2017/78240841  VELASQUEZ VILLARREAL00000000640000000000000000000000000000000000000000000000002019113020191129227844651013420PENSION NOV 2019 COL  *
D081777997014  00172218930       2017/78240869  VELASQUEZ VILLARREAL00000000576000000000000000000000000000000000000000000000002019113020191129227844651013440PENSION NOV 2019 COL  *
D081777997014  00177633769       2017/78242862  HERRERA CANO  MARIA 00000000560000000000000000000000000000000000000000000000002019122120191129227844651013466PENSION DIC 2019 COL  *
D081777997014  00178904219       2017/80014346  NICHO GARAY  AMY ALI00000000560000000000000000000000000000000000000000000000002019113020191129227844651013751PENSION NOV 2019 CAR  *
D081777997014  00178002979       2017/80015507  ZORRILLA VILLALVA  B00000000385000000000000000000000000000000000000000000005202019083120191129227844651014849PENSION AGO 2019 CAR  *
D081777997014  00179219696       2017/80015497  ZORRILLA VILLALVA  R00000000392000000000000000000000000000000000000000000005292019083120191129227844651014870PENSION AGO 2019 CAR  *
D081777997014  00175640894       2017/159068    MEDINA MALDONADO  MI00000000550000000000000000000000000000000000000000000000002019113020191129227844651015096PENSION NOV 2019 SJL  *
D081777997014  00175984698       2017/158512    MEDINA MALDONADO  CA00000000486000000000000000000000000000000000000000000000002019113020191129227844651015097PENSION NOV 2019 SJL  *
D081777997014  00178066153       2017/158636    RUIZ CHAVEZ  RODRIGO00000000560000000000000000000000000000000000000000000000002019113020191129227844651015131PENSION NOV 2019 SJL  *
D081777997014  00177744287       2017/78236894  CASTILLO MUNOZ  ATIK00000000392000000000000000000000000000000000000000000005292019083120191129227844651015514PENSION AGO 2019 COL  *
D081777997014  00177744287       2017/78239251  CASTILLO MUNOZ  ATIK00000000392000000000000000000000000000000000000000000003532019093020191129227844651015659PENSION SEP 2019 COL  *
D081777997014  00173044562       2017/80015269  ALVARADO ASENJO  GUS00000000378000000000000000000000000000000000000000000000002019113020191129227844651015795PENSION NOV 2019 CAR  *
D081777997014  00177744287       2017/78239896  CASTILLO MUNOZ  ATIK00000000392000000000000000000000000000000000000000000001712019103120191129227844651015804PENSION OCT 2019 COL  *
D081777997014  00176494808       2017/80015280  ALVARADO ASENJO  REN00000000385000000000000000000000000000000000000000000000002019113020191129227844651015812PENSION NOV 2019 CAR  *
D081777997014  00170528500       2017/157329    MONTORO CONDORI  JUL00000000540000000000000000000000000000000000000000000004862019093020191129227844651016838PENSION SEP 2019 SJL  *
D081777997014  00170528500       2017/158317    MONTORO CONDORI  JUL00000000540000000000000000000000000000000000000000000002352019103120191129227844651016841PENSION OCT 2019 SJL  *
D081777997014  00178183180       2017/80013811  MORALES BOLIVAR  BEN00000000560000000000000000000000000000000000000000000002442019103120191129227844651017069PENSION OCT 2019 CAR  *
D081777997014  00178183180       2017/80014288  MORALES BOLIVAR  BEN00000000560000000000000000000000000000000000000000000000002019113020191129227844651017081PENSION NOV 2019 CAR  *
D081777997014  00177249539       2017/156543    ROJAS VIVAS  EMMY VA00000000550000000000000000000000000000000000000000000004952019093020191129227844651017934PENSION SEP 2019 SJL  *
D081777997014  00173054504       2017/158444    ACERO GONZALEZ  MAXI00000000378000000000000000000000000000000000000000000001642019103120191129227844651021722PENSION OCT 2019 SJL  *
D081777997014  00173054504       2017/158596    ACERO GONZALEZ  MAXI00000000378000000000000000000000000000000000000000000000002019113020191129227844651021823PENSION NOV 2019 SJL  *
D081777997014  00174679045       2017/78242505  ANTON PINEDA  THIAGO00000000448000000000000000000000000000000000000000000000002019122120191129227844651022443PENSION DIC 2019 COL  *
D081777997014  00178597994       2017/80014325  ENERO YUCRA  RIHANNA00000000392000000000000000000000000000000000000000000000002019113020191129227844671001709PENSION NOV 2019 CAR  *
D081777997014  00179243091       2017/80014331  ORIHUELA LLANQUI  JO00000000560000000000000000000000000000000000000000000000002019113020191129227844671001731PENSION NOV 2019 CAR  *
D081777997014  00172188857       2017/78240700  AQUIJE REYES  JOSE M00000000640000000000000000000000000000000000000000000000002019113020191129129470500700093PENSION NOV 2019 COL  *
D081777997014  00161261229       2017/78241179  GONZALES PENA  HANS 00000000640000000000000000000000000000000000000000000000002019113020191129129470500700099PENSION NOV 2019 COL  *
T081777997014  00101PENSION                       081777997014  000000002617675                                                                                                    *
T081777997014  00102PENSION SAN JUAN              081777997014  000000001921241                                                                                                    *
T081777997014  00103PENSION                       081777997014  000000001095627                                                                                                    *
H081777997014  005000000100000000001400000000000000020191129                                                                                                                       *
D081777997014  00577971009       FF19/2250      LOPEZ CARDENAS  ADRI00000000140000000000000000000000000000000000000000000000002019113020191129122420500700096TALLERES NOV 2019 SJ  *
T081777997014  00510TALLERES                      081777997014  000000000014000                                                                                                    *
H081777997014  007000000100000000000250000000000000020191129                                                                                                                       *
D081777997014  00774898644       FF19/2270      OBREGON MIRANDA  YAZ00000000025000000000000000000000000000000000000000000000002019113020191129227844651012109EXCELENCIA ACAD SJL   *
T081777997014  00752EXCELENCIA ACAD SJL           081777997014  000000000002500                                                                                                    *
