H081777997014  001000010900000000595062800000000000020191210                                                                                                                       *
D081777997014  00178143604       2017/78240577  ARANDA PUCHURI  ALEJ00000000560000000000000000000000000000000000000000000000842019113020191210120100500700079PENSION NOV 2019 COL  *
D081777997014  00174789816       2017/80014620  BELLIDO MARIN  GONZA00000000550000000000000000000000000000000000000000000000832019113020191210120100500700147PENSION NOV 2019 CAR  *
D081777997014  00173877086       2017/159326    BENITES SILVA  ALEJA00000000540000000000000000000000000000000000000000000000812019113020191210120110500700025PENSION NOV 2019 SJL  *
D081777997014  00173877086       2017/160204    BENITES SILVA  ALEJA00000000540000000000000000000000000000000000000000000000002019122120191210120110500700025PENSION DIC 2019 SJL  *
D081777997014  00171282249       2017/80014402  ORTIZ ENRIQUEZ  FRED00000000540000000000000000000000000000000000000000000000812019113020191210120210500700031PENSION NOV 2019 CAR  *
D081777997014  00160890657       2017/78240326  CAMPOS TOVAR  ARIANA00000000576000000000000000000000000000000000000000000003462019103120191210120250500700091PENSION OCT 2019 COL  *
D081777997014  00173558056       2017/78239756  CAMPOS TOVAR  BIANCA00000000640000000000000000000000000000000000000000000003842019103120191210120250500700092PENSION OCT 2019 COL  *
D081777997014  00172154232       2017/158314    JACINTO PAJUELO  SEB00000000540000000000000000000000000000000000000000000003242019103120191210120580500700078PENSION OCT 2019 SJL  *
D081777997014  00174527627       2017/78238539  CONDESO CARRIZALES  00000000640000000000000000000000000000000000000000000006822019093020191210220600500700014PENSION SEP 2019 COL  *
D081777997014  00177440922       2017/78241496  HERRERA CAMERO  ANA 00000000560000000000000000000000000000000000000000000000842019113020191210120700500700034PENSION NOV 2019 COL  *
D081777997014  00177440922       2017/78242711  HERRERA CAMERO  ANA 00000000560000000000000000000000000000000000000000000000002019122120191210120700500700034PENSION DIC 2019 COL  *
D081777997014  00172330349       2017/159051    SANCHEZ SANTILLAN  L00000000495000000000000000000000000000000000000000000000742019113020191210120790500700066PENSION NOV 2019 SJL  *
D081777997014  00172065423       2017/159266    POMACHAGUA ROJAS  LU00000000550000000000000000000000000000000000000000000000832019113020191210121440500700002PENSION NOV 2019 SJL  *
D081777997014  00172065423       2017/160128    POMACHAGUA ROJAS  LU00000000550000000000000000000000000000000000000000000000002019122120191210121440500700002PENSION DIC 2019 SJL  *
D081777997014  00177169321       2017/159424    CASTILLO SOLANO  ABE00000000486000000000000000000000000000000000000000000000732019113020191210121440500700004PENSION NOV 2019 SJL  *
D081777997014  00177169321       2017/160286    CASTILLO SOLANO  ABE00000000486000000000000000000000000000000000000000000000002019122120191210121440500700004PENSION DIC 2019 SJL  *
D081777997014  00161291874       2017/159023    CASTILLO SOLANO  SEB00000000550000000000000000000000000000000000000000000000832019113020191210121440500700005PENSION NOV 2019 SJL  *
D081777997014  00161291874       2017/159876    CASTILLO SOLANO  SEB00000000550000000000000000000000000000000000000000000000002019122120191210121440500700005PENSION DIC 2019 SJL  *
D081777997014  00177408063       2017/78239015  TISOC CABANILLAS  SA00000000560000000000000000000000000000000000000000000005962019093020191210122030500700106PENSION SEP 2019 COL  *
D081777997014  00177381617       2017/78241110  ZEVALLOS SILVA  GABR00000000640000000000000000000000000000000000000000000000962019113020191210222040500700045PENSION NOV 2019 COL  *
D081777997014  00171354270       2017/80012663  LEON SILVA  MATIAS A00000000550000000000000000000000000000000000000000000010892019073120191210122290500700047PENSION JUL 2019 CAR  *
D081777997014  00171354270       2017/80013080  LEON SILVA  MATIAS A00000000550000000000000000000000000000000000000000000008332019083120191210122290500700047PENSION AGO 2019 CAR  *
D081777997014  00160575096       2017/78241209  BUSTILLOS QUISPE  AL00000000640000000000000000000000000000000000000000000000962019113020191210122310500700081PENSION NOV 2019 COL  *
D081777997014  00176568335       2017/160758    QUILLAS LEON  LIZ AN00000000540000000000000000000000000000000000000000000015632019053120191210122470500700092PENSION MAY 2019 SJL  *
D081777997014  00176568335       2017/160759    QUILLAS LEON  LIZ AN00000000540000000000000000000000000000000000000000000013202019063020191210122470500700092PENSION JUN 2019 SJL  *
D081777997014  00176568335       2017/160760    QUILLAS LEON  LIZ AN00000000540000000000000000000000000000000000000000000010692019073120191210122470500700092PENSION JUL 2019 SJL  *
D081777997014  00173163998       2017/159126    ESPINOZA TORRES  SEB00000000495000000000000000000000000000000000000000000000742019113020191210122470500700104PENSION NOV 2019 SJL  *
D081777997014  00173163998       2017/159988    ESPINOZA TORRES  SEB00000000495000000000000000000000000000000000000000000000002019122120191210122470500700104PENSION DIC 2019 SJL  *
D081777997014  00177978075       2017/78239935  HUALLPA FIESTAS  NAH00000000560000000000000000000000000000000000000000000003362019103120191210222480500700104PENSION OCT 2019 COL  *
D081777997014  00177978075       2017/78241720  HUALLPA FIESTAS  NAH00000000560000000000000000000000000000000000000000000000842019113020191210222480500700104PENSION NOV 2019 COL  *
D081777997014  00177978075       2017/78242935  HUALLPA FIESTAS  NAH00000000560000000000000000000000000000000000000000000000002019122120191210222480500700104PENSION DIC 2019 COL  *
D081777997014  00173840892       2017/78241567  HUALLPA FIESTAS  ILL00000000576000000000000000000000000000000000000000000000862019113020191210222480500700106PENSION NOV 2019 COL  *
D081777997014  00173840892       2017/78242785  HUALLPA FIESTAS  ILL00000000576000000000000000000000000000000000000000000000002019122120191210222480500700106PENSION DIC 2019 COL  *
D081777997014  00161250668       2017/158063    MARQUEZ REQUENA  CAR00000000550000000000000000000000000000000000000000000003302019103120191210222500500700022PENSION OCT 2019 SJL  *
D081777997014  00161250668       2017/159216    MARQUEZ REQUENA  CAR00000000550000000000000000000000000000000000000000000000832019113020191210222500500700022PENSION NOV 2019 SJL  *
D081777997014  00161250668       2017/160081    MARQUEZ REQUENA  CAR00000000550000000000000000000000000000000000000000000000002019122120191210222500500700022PENSION DIC 2019 SJL  *
D081777997014  00173131715       2017/158148    MARQUEZ REQUENA  ERI00000000486000000000000000000000000000000000000000000002922019103120191210222500500700023PENSION OCT 2019 SJL  *
D081777997014  00173131715       2017/159330    MARQUEZ REQUENA  ERI00000000486000000000000000000000000000000000000000000000732019113020191210222500500700023PENSION NOV 2019 SJL  *
D081777997014  00173131715       2017/160208    MARQUEZ REQUENA  ERI00000000486000000000000000000000000000000000000000000000002019122120191210222500500700023PENSION DIC 2019 SJL  *
D081777997014  00174935652       2017/78238477  FONSECA SALAZAR  MAR00000000640000000000000000000000000000000000000000000006822019093020191210122540500700012PENSION SEP 2019 COL  *
D081777997014  00174935652       2017/78240337  FONSECA SALAZAR  MAR00000000640000000000000000000000000000000000000000000003842019103120191210122540500700012PENSION OCT 2019 COL  *
D081777997014  00179279294       2017/78238236  SERNA BRAVO  DASHA S00000000560000000000000000000000000000000000000000000005962019093020191210122540500700063PENSION SEP 2019 COL  *
D081777997014  00161151897       2017/78239482  FERNANDEZ CORNEJO  F00000000640000000000000000000000000000000000000000000003842019103120191210122540500700072PENSION OCT 2019 COL  *
D081777997014  00161151897       2017/78241267  FERNANDEZ CORNEJO  F00000000640000000000000000000000000000000000000000000000962019113020191210122540500700073PENSION NOV 2019 COL  *
D081777997014  00161151897       2017/78242479  FERNANDEZ CORNEJO  F00000000640000000000000000000000000000000000000000000000002019122120191210122540500700074PENSION DIC 2019 COL  *
D081777997014  00177878980       2017/78242897  VASQUEZ LOPEZ  PIERO00000000560000000000000000000000000000000000000000000000002019122120191210222540500700076PENSION DIC 2019 COL  *
D081777997014  00172932748       2017/160405    ZAPATA CRUZ  NIRIEL 00000000540000000000000000000000000000000000000000000000002019122120191210122540500700104PENSION DIC 2019 SJL  *
D081777997014  00161362885       2017/160120    SANCHEZ CRISOSTOMO  00000000495000000000000000000000000000000000000000000000002019122120191210122660500700121PENSION DIC 2019 SJL  *
D081777997014  00177579557       2017/159664    SANCHEZ CRISOSTOMO  00000000550000000000000000000000000000000000000000000000002019122120191210122660500700122PENSION DIC 2019 SJL  *
D081777997014  00173294931       2017/78242633  ZORRILLA RUIZ  GONZA00000000576000000000000000000000000000000000000000000000002019122120191210124280500700059PENSION DIC 2019 COL  *
D081777997014  00177718365       2017/78242909  ZORRILLA RUIZ  RAUL 00000000560000000000000000000000000000000000000000000000002019122120191210124280500700060PENSION DIC 2019 COL  *
D081777997014  00179167256       2017/78236957  DELGADO JIMENEZ  ABI00000000560000000000000000000000000000000000000000000008482019083120191210124450500700056PENSION AGO 2019 COL  *
D081777997014  00179167256       2017/78238163  DELGADO JIMENEZ  ABI00000000560000000000000000000000000000000000000000000005962019093020191210124450500700056PENSION SEP 2019 COL  *
D081777997014  00179167256       2017/78239965  DELGADO JIMENEZ  ABI00000000560000000000000000000000000000000000000000000003362019103120191210124450500700056PENSION OCT 2019 COL  *
D081777997014  00179167256       2017/78240527  DELGADO JIMENEZ  ABI00000000560000000000000000000000000000000000000000000000842019113020191210124450500700056PENSION NOV 2019 COL  *
D081777997014  00179167256       2017/78241857  DELGADO JIMENEZ  ABI00000000560000000000000000000000000000000000000000000000002019122120191210124450500700056PENSION DIC 2019 COL  *
D081777997014  00176998229       2017/78241475  VASQUEZ CODARLUPO  G00000000560000000000000000000000000000000000000000000000842019113020191210226610500700066PENSION NOV 2019 COL  *
D081777997014  00176998222       2017/78241466  VASQUEZ CODARLUPO  M00000000504000000000000000000000000000000000000000000000762019113020191210226610500700068PENSION NOV 2019 COL  *
D081777997014  00161876929       2017/78239806  CAM BACA  GABRIEL CR00000000640000000000000000000000000000000000000000000003842019103120191210126610500700078PENSION OCT 2019 COL  *
D081777997014  00161876929       2017/78241583  CAM BACA  GABRIEL CR00000000640000000000000000000000000000000000000000000000962019113020191210126610500700078PENSION NOV 2019 COL  *
D081777997014  00174719643       2017/78231245  HUAMANQUISPE ALVAREZ00000000640000000000000000000000000000000000000000000024382019033120191210126610500700100PENSION MAR 2019 COL  *
D081777997014  00174719643       2017/78232503  HUAMANQUISPE ALVAREZ00000000640000000000000000000000000000000000000000000021502019043020191210126610500700100PENSION ABR 2019 COL  *
D081777997014  00174719643       2017/78233727  HUAMANQUISPE ALVAREZ00000000640000000000000000000000000000000000000000000018532019053120191210126610500700100PENSION MAY 2019 COL  *
D081777997014  00174719643       2017/78234556  HUAMANQUISPE ALVAREZ00000000640000000000000000000000000000000000000000000015652019063020191210126610500700100PENSION JUN 2019 COL  *
D081777997014  00174719643       2017/78236060  HUAMANQUISPE ALVAREZ00000000640000000000000000000000000000000000000000000012672019073120191210126610500700100PENSION JUL 2019 COL  *
D081777997014  00174719643       2017/78237358  HUAMANQUISPE ALVAREZ00000000640000000000000000000000000000000000000000000009702019083120191210126610500700100PENSION AGO 2019 COL  *
D081777997014  00174719643       2017/78238523  HUAMANQUISPE ALVAREZ00000000640000000000000000000000000000000000000000000006822019093020191210126610500700100PENSION SEP 2019 COL  *
D081777997014  00174884708       2017/156318    HUILLCA HERRERA  MAT00000000270000000000000000000000000000000000000000000004092019083120191210126860500700005PENSION AGO 2019 SJL  *
D081777997014  00174884708       2017/157340    HUILLCA HERRERA  MAT00000000270000000000000000000000000000000000000000000002882019093020191210126860500700005PENSION SEP 2019 SJL  *
D081777997014  00174884708       2017/158362    HUILLCA HERRERA  MAT00000000270000000000000000000000000000000000000000000001622019103120191210126860500700005PENSION OCT 2019 SJL  *
D081777997014  00174884708       2017/158522    HUILLCA HERRERA  MAT00000000270000000000000000000000000000000000000000000000412019113020191210126860500700005PENSION NOV 2019 SJL  *
D081777997014  00173155612       2017/157920    MECINAS POLO  NICOLE00000000550000000000000000000000000000000000000000000003302019103120191210126860500700009PENSION OCT 2019 SJL  *
D081777997014  00173155612       2017/159102    MECINAS POLO  NICOLE00000000550000000000000000000000000000000000000000000000832019113020191210126860500700009PENSION NOV 2019 SJL  *
D081777997014  00173155612       2017/159964    MECINAS POLO  NICOLE00000000550000000000000000000000000000000000000000000000002019122120191210126860500700010PENSION DIC 2019 SJL  *
D081777997014  00171179605       2017/158693    PELAYO CANCINO  DANI00000000495000000000000000000000000000000000000000000000742019113020191210126860500700014PENSION NOV 2019 SJL  *
D081777997014  00171179605       2017/159658    PELAYO CANCINO  DANI00000000495000000000000000000000000000000000000000000000002019122120191210126860500700014PENSION DIC 2019 SJL  *
D081777997014  00178757921       2017/158702    PELAYO CANCINO  DANI00000000550000000000000000000000000000000000000000000000832019113020191210126860500700015PENSION NOV 2019 SJL  *
D081777997014  00178757921       2017/159667    PELAYO CANCINO  DANI00000000550000000000000000000000000000000000000000000000002019122120191210126860500700015PENSION DIC 2019 SJL  *
D081777997014  00162023885       2017/157870    HUAMAN PACHECO  ANGH00000000550000000000000000000000000000000000000000000003302019103120191210126860500700018PENSION OCT 2019 SJL  *
D081777997014  00161912561       2017/159213    TEODOR TASARA  GAEL 00000000550000000000000000000000000000000000000000000000832019113020191210126860500700020PENSION NOV 2019 SJL  *
D081777997014  00178520613       2017/159559    WANG ANTARA  EVAN KE00000000560000000000000000000000000000000000000000000000002019122120191210126910500700001PENSION DIC 2019 SJL  *
D081777997014  00161528679       2017/160062    HUARCA SOTO  DAMARIS00000000495000000000000000000000000000000000000000000000002019122120191210226910500700026PENSION DIC 2019 SJL  *
D081777997014  00177713373       2017/159918    HUARCA SOTO  KAORI B00000000550000000000000000000000000000000000000000000000002019122120191210226910500700028PENSION DIC 2019 SJL  *
D081777997014  00176282296       2017/160699    ASIPALI PIZANGO  JUN00000000540000000000000000000000000000000000000000000015632019053120191210126910500700032PENSION MAY 2019 SJL  *
D081777997014  00176282296       2017/160700    ASIPALI PIZANGO  JUN00000000540000000000000000000000000000000000000000000013202019063020191210126910500700033PENSION JUN 2019 SJL  *
D081777997014  00177882210       2017/157892    TISZA ALFARO  ASHELY00000000495000000000000000000000000000000000000000000002972019103120191210126910500700081PENSION OCT 2019 SJL  *
D081777997014  00177882210       2017/159074    TISZA ALFARO  ASHELY00000000495000000000000000000000000000000000000000000000742019113020191210126910500700081PENSION NOV 2019 SJL  *
D081777997014  00177882210       2017/159936    TISZA ALFARO  ASHELY00000000495000000000000000000000000000000000000000000000002019122120191210126910500700081PENSION DIC 2019 SJL  *
D081777997014  00176993216       2017/157777    TISZA ALFARO  STEPHA00000000495000000000000000000000000000000000000000000002972019103120191210126910500700084PENSION OCT 2019 SJL  *
D081777997014  00176993216       2017/158992    TISZA ALFARO  STEPHA00000000495000000000000000000000000000000000000000000000742019113020191210126910500700084PENSION NOV 2019 SJL  *
D081777997014  00176993216       2017/159807    TISZA ALFARO  STEPHA00000000495000000000000000000000000000000000000000000000002019122120191210126910500700084PENSION DIC 2019 SJL  *
D081777997014  00161497403       2017/159699    NAPURI PALACIOS  MAR00000000550000000000000000000000000000000000000000000000002019122120191210127420500700013PENSION DIC 2019 SJL  *
D081777997014  00179307943       2017/158825    VILLANUEVA HUAMAN  C00000000560000000000000000000000000000000000000000000000842019113020191210127420500700074PENSION NOV 2019 SJL  *
D081777997014  00174102896       2017/78241530  CERRILLO DE LOS SANT00000000640000000000000000000000000000000000000000000000962019113020191210227844651001376PENSION NOV 2019 COL  *
D081777997014  00179222682       2017/78240581  CONTRERAS MANRIQUE  00000000560000000000000000000000000000000000000000000000842019113020191210227844651003749PENSION NOV 2019 COL  *
D081777997014  00178066153       2017/159601    RUIZ CHAVEZ  RODRIGO00000000560000000000000000000000000000000000000000000000002019122120191210227844651003766PENSION DIC 2019 SJL  *
D081777997014  00179222682       2017/78241929  CONTRERAS MANRIQUE  00000000560000000000000000000000000000000000000000000000002019122120191210227844651003789PENSION DIC 2019 COL  *
D081777997014  00174182467       2017/80015568  ALBINO ORTEGA  ALYSA00000000385000000000000000000000000000000000000000000000582019113020191210227844651007866PENSION NOV 2019 CAR  *
D081777997014  00178520894       2017/157460    CUCHO PAYAJO  ISAAC 00000000560000000000000000000000000000000000000000000003362019103120191210227844651008763PENSION OCT 2019 SJL  *
D081777997014  00178520894       2017/158710    CUCHO PAYAJO  ISAAC 00000000560000000000000000000000000000000000000000000000842019113020191210227844651008779PENSION NOV 2019 SJL  *
D081777997014  00178520894       2017/159485    CUCHO PAYAJO  ISAAC 00000000560000000000000000000000000000000000000000000000002019122120191210227844651008810PENSION DIC 2019 SJL  *
D081777997014  00178536118       2017/78240709  APONTE CHACON  PIERI00000000560000000000000000000000000000000000000000000000842019113020191210227844651010007PENSION NOV 2019 COL  *
D081777997014  00178536118       2017/78241827  APONTE CHACON  PIERI00000000560000000000000000000000000000000000000000000000002019122120191210227844651010008PENSION DIC 2019 COL  *
D081777997014  00177313549       2017/78241504  APONTE CHACON  ADRIA00000000504000000000000000000000000000000000000000000000762019113020191210227844651010025PENSION NOV 2019 COL  *
D081777997014  00177313549       2017/78242719  APONTE CHACON  ADRIA00000000504000000000000000000000000000000000000000000000002019122120191210227844651010027PENSION DIC 2019 COL  *
D081777997014  00170725751       2017/78239489  SILVA JULCA  MIGUEL 00000000576000000000000000000000000000000000000000000003462019103120191210227844651011611PENSION OCT 2019 COL  *
D081777997014  00177409988       2017/78239724  SILVA JULCA  VALENTI00000000560000000000000000000000000000000000000000000003362019103120191210227844651011637PENSION OCT 2019 COL  *
D081777997014  00177401783       2017/80014112  MIRANDA ORTIZ  ISKAY00000000385000000000000000000000000000000000000000000002312019103120191210227844651012349PENSION OCT 2019 CAR  *
D081777997014  00161771434       2017/80015410  ROSAS MONTALBAN  BRU00000000385000000000000000000000000000000000000000000000522019113020191210227844671000005PENSION NOV 2019 CAR  *
T081777997014  00101PENSION                       081777997014  000000002850667                                                                                                    *
T081777997014  00102PENSION SAN JUAN              081777997014  000000002763034                                                                                                    *
T081777997014  00103PENSION                       081777997014  000000000336927                                                                                                    *
H081777997014  003000002300000000119000000000000000020191210                                                                                                                       *
D081777997014  00377930612       2017/161079    BUSTINZA HUAMANI  EV00000000484500000000000000000000000000000000000000000000002019122120191210220130500700040MATRICULA SJL         *
D081777997014  00375951461       2017/78243710  FIGUEROA LOLI  VIVIA00000000670000000000000000000000000000000000000000000000002019122120191210120250500700049MATRICULA COL         *
D081777997014  00377931666       2017/78243727  AVALOS APARCANA  JUA00000000493000000000000000000000000000000000000000000000002019122120191210120630500700078MATRICULA COL         *
D081777997014  00360828764       2017/78243726  SALDANA VICTORIO  HI00000000569500000000000000000000000000000000000000000000002019122120191210220810500700058MATRICULA COL         *
D081777997014  00379418406       2017/78243722  OLIVA APONTE  JULIO 00000000570000000000000000000000000000000000000000000000002019122120191210120810500700076MATRICULA COL         *
D081777997014  00374681934       2017/161084    CCAHUANA SANCHEZ  SE00000000484500000000000000000000000000000000000000000000002019122120191210120920500700157MATRICULA SJL         *
D081777997014  00375650414       2017/161068    QUISPE ROSADO  MASIE00000000484500000000000000000000000000000000000000000000002019122120191210122470500700078MATRICULA SJL         *
D081777997014  00373992853       2017/78243712  DELGADO ARRARTE  VAL00000000670000000000000000000000000000000000000000000000002019122120191210122540500700050MATRICULA COL         *
D081777997014  00361423579       2017/78243714  PENA COSI  ALBERTO A00000000670000000000000000000000000000000000000000000000002019122120191210222540500700081MATRICULA COL         *
D081777997014  00361423579       2017/78243715  PENA COSI  ALBERTO A00000000350000000000000000000000000000000000000000000000002019122120191210222540500700081INSCRIPCION COL       *
D081777997014  00376996414       2017/78243719  HURTADO CARRILLO  SA00000000350000000000000000000000000000000000000000000000002019122120191210122540500700114INSCRIPCION COL       *
D081777997014  00376996414       2017/78243720  HURTADO CARRILLO  SA00000000670000000000000000000000000000000000000000000000002019122120191210122540500700114MATRICULA COL         *
D081777997014  00360767759       2017/161078    RIOS YUPANQUI  RODRI00000000484500000000000000000000000000000000000000000000002019122120191210122660500700082MATRICULA SJL         *
D081777997014  00361754850       2017/160951    SEVILLANO HUARINGA  00000000570000000000000000000000000000000000000000000000002019113020191210126250500700003MATRICULA SJL         *
D081777997014  00370528170       2017/161076    BRANES BELTRAN  ALVA00000000484500000000000000000000000000000000000000000000002019122120191210126860500700012MATRICULA SJL         *
D081777997014  00373409074       2017/161075    BRANES BELTRAN  YARU00000000484500000000000000000000000000000000000000000000002019122120191210126860500700013MATRICULA SJL         *
D081777997014  00378264550       2017/161073    ESPIRITU DIESTRA  SO00000000484500000000000000000000000000000000000000000000002019122120191210126910500700002MATRICULA SJL         *
D081777997014  00374338135       2017/161052    BENDEZU NAPURI  LYNN00000000484500000000000000000000000000000000000000000000002019122120191210127420500700066MATRICULA SJL         *
D081777997014  00378578450       2017/161058    MEDRANO TORREJON  AL00000000570000000000000000000000000000000000000000000000002019122120191210227844651007131MATRICULA SJL         *
D081777997014  00378578450       2017/161059    MEDRANO TORREJON  AL00000000350000000000000000000000000000000000000000000000002019122120191210227844651007264INSCRIPCION SJL       *
D081777997014  00371695677       2017/80015993  CAMPOMANES PRUDENCIO00000000467500000000000000000000000000000000000000000000002019122120191210227844651008089MATRICULA CAR         *
D081777997014  00361526991       2017/78243678  VASQUEZ GALLARDO  DI00000000569500000000000000000000000000000000000000000000002019122120191210227844651013266MATRICULA COL         *
D081777997014  00379115889       2017/161081    ESCOBAR ROMERO  ALVA00000000484500000000000000000000000000000000000000000000002019122120191210227844651013310MATRICULA SJL         *
T081777997014  00304MATRICULA                     081777997014  000000000488200                                                                                                    *
T081777997014  00305DERECHO DE INGRESO LIM 2018   081777997014  000000000070000                                                                                                    *
T081777997014  00306MATRICULA SJL - PREMATRICULA  081777997014  000000000550050                                                                                                    *
T081777997014  00307DERECHO DE INGRESO SJL 2019   081777997014  000000000035000                                                                                                    *
T081777997014  00308MATRICULA CAR 2019            081777997014  000000000046750                                                                                                    *
H081777997014  007000000100000000000250000000000000020191210                                                                                                                       *
D081777997014  00773185751       FF19/2297      GAMBOA CABANILLAS  C00000000025000000000000000000000000000000000000000000000002019122120191210120700500700094EXCELENCIA ACAD COL   *
T081777997014  00723EXCELENCIA ACAD COL           081777997014  000000000002500                                                                                                    *
H081777997014  009000000200000000001200000000000000020191210                                                                                                                       *
D081777997014  00974956480       FF19/2301      RODRIGUEZ BRAVO  HES00000000060000000000000000000000000000000000000000000000002019122120191210122140500700127CERT ESTUDIO COL DIC  *
D081777997014  00972899163       FF19/2302      ARMAS BLAS  DAITZA I00000000060000000000000000000000000000000000000000000000002019122120191210122470500700109CERT ESTUDIOS SJL DI  *
T081777997014  00925CERT ESTUDIO-COL              081777997014  000000000006000                                                                                                    *
T081777997014  00954CERT ESTUDIOS SJL             081777997014  000000000006000                                                                                                    *
H081777997014  016000000200000000009000000000000000020191210                                                                                                                       *
D081777997014  01610208864071    FF19/2149        GLADYS ELADIA ESPI00000000450000000000000000000000000000000000000000000000002019103120191210122540500700062CONCESIONARIO OCT 20  *
D081777997014  01610208864071    FF19/2234        GLADYS ELADIA ESPI00000000450000000000000000000000000000000000000000000000002019113020191210122540500700062CONCESIONARIO NOV 20  *
T081777997014  01632ARRENDAMIENTO DE ESPACIO PARA 081777997014  000000000090000                                                                                                    *
H081777997014  017000000100000000020000100000000000020191210                                                                                                                       *
D081777997014  01720510628501    FF19/2232      ALIMENTOS  S R L   M00000002000010000000000000000000000000000000000000000000002019113020191210122540500700115CONCESIONARIO NOV 20  *
T081777997014  01733ARRENDAMIENTO DE ESPACIO PARA 081777997014  000000000200001                                                                                                    *
