H081777997014  001000008100000000447801500000000000020191227                                                                                                                       *
D081777997014  00178599234       2017/158842    GUEVARA CABREJOS  AI00000000504000000000000000000000000000000000000000000002042019113020191227120110500700034PENSION NOV 2019 SJL  *
D081777997014  00171271582       2017/158509    GUEVARA CABREJOS  LU00000000540000000000000000000000000000000000000000000002192019113020191227120110500700035PENSION NOV 2019 SJL  *
D081777997014  00174848616       2017/78242241  LLANOS ROMERO  DAVID00000000640000000000000000000000000000000000000000000000582019122120191227120190500700142PENSION DIC 2019 COL  *
D081777997014  00174682321       2017/80015053  TARAZONA CARLOS  RUB00000000550000000000000000000000000000000000000000000000502019122120191227120200500700018PENSION DIC 2019 CAR  *
D081777997014  00172529036       2017/80013496  PURIZACA HUARACA  MI00000000540000000000000000000000000000000000000000000007132019093020191227120210500700071PENSION SEP 2019 CAR  *
D081777997014  00172529036       2017/80014056  PURIZACA HUARACA  MI00000000540000000000000000000000000000000000000000000004622019103120191227120210500700071PENSION OCT 2019 CAR  *
D081777997014  00174840278       2017/154224    BLANCO VICTORIO  JOA00000000540000000000000000000000000000000000000000000014582019063020191227220340500700018PENSION JUN 2019 SJL  *
D081777997014  00174840278       2017/154889    BLANCO VICTORIO  JOA00000000540000000000000000000000000000000000000000000012072019073120191227220340500700018PENSION JUL 2019 SJL  *
D081777997014  00174840278       2017/156281    BLANCO VICTORIO  JOA00000000540000000000000000000000000000000000000000000009562019083120191227220340500700018PENSION AGO 2019 SJL  *
D081777997014  00174840278       2017/157324    BLANCO VICTORIO  JOA00000000540000000000000000000000000000000000000000000007132019093020191227220340500700018PENSION SEP 2019 SJL  *
D081777997014  00177181119       2017/159698    VARILLAS CORALES  AL00000000550000000000000000000000000000000000000000000000502019122120191227120550500700004PENSION DIC 2019 SJL  *
D081777997014  00171357645       2017/160221    VARILLAS CORALES  AR00000000486000000000000000000000000000000000000000000000442019122120191227120550500700005PENSION DIC 2019 SJL  *
D081777997014  00177751712       2017/155688    CALIZAYA LOPEZ  AARO00000000550000000000000000000000000000000000000000000009742019083120191227120700500700044PENSION AGO 2019 SJL  *
D081777997014  00177751712       2017/156721    CALIZAYA LOPEZ  AARO00000000550000000000000000000000000000000000000000000007262019093020191227120700500700044PENSION SEP 2019 SJL  *
D081777997014  00177751712       2017/157748    CALIZAYA LOPEZ  AARO00000000550000000000000000000000000000000000000000000004702019103120191227120700500700044PENSION OCT 2019 SJL  *
D081777997014  00177751712       2017/158963    CALIZAYA LOPEZ  AARO00000000550000000000000000000000000000000000000000000002232019113020191227120700500700044PENSION NOV 2019 SJL  *
D081777997014  00177751712       2017/159760    CALIZAYA LOPEZ  AARO00000000550000000000000000000000000000000000000000000000502019122120191227120700500700044PENSION DIC 2019 SJL  *
D081777997014  00174918221       2017/156078    CALIZAYA LOPEZ  DIEG00000000486000000000000000000000000000000000000000000008602019083120191227120700500700047PENSION AGO 2019 SJL  *
D081777997014  00174918221       2017/157145    CALIZAYA LOPEZ  DIEG00000000486000000000000000000000000000000000000000000006422019093020191227120700500700047PENSION SEP 2019 SJL  *
D081777997014  00174918221       2017/158122    CALIZAYA LOPEZ  DIEG00000000486000000000000000000000000000000000000000000004162019103120191227120700500700047PENSION OCT 2019 SJL  *
D081777997014  00174918221       2017/159304    CALIZAYA LOPEZ  DIEG00000000486000000000000000000000000000000000000000000001972019113020191227120700500700047PENSION NOV 2019 SJL  *
D081777997014  00174918221       2017/160166    CALIZAYA LOPEZ  DIEG00000000486000000000000000000000000000000000000000000000442019122120191227120700500700047PENSION DIC 2019 SJL  *
D081777997014  00162433488       2017/159127    ARMAS HUAMAN  YAMILE00000000550000000000000000000000000000000000000000000002232019113020191227121440500700004PENSION NOV 2019 SJL  *
D081777997014  00162433488       2017/159989    ARMAS HUAMAN  YAMILE00000000550000000000000000000000000000000000000000000000502019122120191227121440500700004PENSION DIC 2019 SJL  *
D081777997014  00161179385       2017/158972    ARMAS HUAMAN  RICARD00000000495000000000000000000000000000000000000000000002002019113020191227121440500700005PENSION NOV 2019 SJL  *
D081777997014  00161179385       2017/159778    ARMAS HUAMAN  RICARD00000000495000000000000000000000000000000000000000000000452019122120191227121440500700005PENSION DIC 2019 SJL  *
D081777997014  00160916325       2017/78240876  SANCHEZ GOMEZ  DAPHN00000000640000000000000000000000000000000000000000000002592019113020191227121770500700053PENSION NOV 2019 COL  *
D081777997014  00161105376       2017/78242205  HUAYRA TRUJILLO  SAL00000000640000000000000000000000000000000000000000000000582019122120191227122030500700062PENSION DIC 2019 COL  *
D081777997014  00175720203       2017/78241785  SANCHEZ DIONISIO  TA00000000640000000000000000000000000000000000000000000000582019122120191227122290500700133PENSION DIC 2019 COL  *
D081777997014  00177882747       2017/160060    PONCE PARIONA  STEFA00000000550000000000000000000000000000000000000000000000502019122120191227122390500700012PENSION DIC 2019 SJL  *
D081777997014  00172998547       2017/154632    CUTIPA DELGADO  BETH00000000550000000000000000000000000000000000000000000000002020073120191227122470500700027PENSION JUL 2019 SJL  *
D081777997014  00172998547       2017/156011    CUTIPA DELGADO  BETH00000000550000000000000000000000000000000000000000000000002020083120191227122470500700028PENSION AGO 2019 SJL  *
D081777997014  00172526553       2017/126662    RIVERA GUTIERREZ  ES00000000510000000000000000000000000000000000000000000048652018033120191227122470500700119PENSION MAR 2018 SJL  *
D081777997014  00172526553       2017/127596    RIVERA GUTIERREZ  ES00000000510000000000000000000000000000000000000000000046362018043020191227122470500700119PENSION ABR 2018 SJL  *
D081777997014  00172526553       2017/129209    RIVERA GUTIERREZ  ES00000000510000000000000000000000000000000000000000000043992018053120191227122470500700119PENSION MAY 2018 SJL  *
D081777997014  00172526553       2017/129640    RIVERA GUTIERREZ  ES00000000510000000000000000000000000000000000000000000041692018063020191227122470500700119PENSION JUN 2018 SJL  *
D081777997014  00172526553       2017/130917    RIVERA GUTIERREZ  ES00000000510000000000000000000000000000000000000000000039322018073120191227122470500700119PENSION JUL 2018 SJL  *
D081777997014  00172526553       2017/131849    RIVERA GUTIERREZ  ES00000000510000000000000000000000000000000000000000000036952018083120191227122470500700119PENSION AGO 2018 SJL  *
D081777997014  00172526553       2017/133042    RIVERA GUTIERREZ  ES00000000510000000000000000000000000000000000000000000034652018093020191227122470500700119PENSION SEP 2018 SJL  *
D081777997014  00172526553       2017/134209    RIVERA GUTIERREZ  ES00000000510000000000000000000000000000000000000000000032282018103120191227122470500700119PENSION OCT 2018 SJL  *
D081777997014  00172526553       2017/135513    RIVERA GUTIERREZ  ES00000000510000000000000000000000000000000000000000000029992018113020191227122470500700119PENSION NOV 2018 SJL  *
D081777997014  00172526553       2017/137833    RIVERA GUTIERREZ  ES00000000510000000000000000000000000000000000000000000028382018122120191227122470500700119PENSION DIC 2018 SJL  *
D081777997014  00178625883       2017/78241909  POICON RAMIREZ  TANI00000000504000000000000000000000000000000000000000000000452019122120191227122540500700093PENSION DIC 2019 COL  *
D081777997014  00178625870       2017/78241941  POICON RAMIREZ  PATR00000000560000000000000000000000000000000000000000000000502019122120191227122540500700094PENSION DIC 2019 COL  *
D081777997014  00161359792       2017/78242582  MORON LOPEZ  KIARA M00000000640000000000000000000000000000000000000000000000582019122120191227122660500700074PENSION DIC 2019 COL  *
D081777997014  00170736627       2017/78242470  ALBAN TANTALEAN  JUA00000000640000000000000000000000000000000000000000000000582019122120191227122660500700104PENSION DIC 2019 COL  *
D081777997014  00173442668       2017/160273    PALOMINO DE LA CRUZ 00000000540000000000000000000000000000000000000000000000492019122120191227123690500700070PENSION DIC 2019 SJL  *
D081777997014  00175104313       2017/80012560  SALCEDO PARIAN  JULI00000000540000000000000000000000000000000000000000000012072019073120191227226570500700021PENSION JUL 2019 CAR  *
D081777997014  00175104313       2017/80012850  SALCEDO PARIAN  JULI00000000540000000000000000000000000000000000000000000009562019083120191227226570500700021PENSION AGO 2019 CAR  *
D081777997014  00175104313       2017/80013494  SALCEDO PARIAN  JULI00000000540000000000000000000000000000000000000000000007132019093020191227226570500700021PENSION SEP 2019 CAR  *
D081777997014  00175104313       2017/80014054  SALCEDO PARIAN  JULI00000000540000000000000000000000000000000000000000000004622019103120191227226570500700021PENSION OCT 2019 CAR  *
D081777997014  00175104313       2017/80014380  SALCEDO PARIAN  JULI00000000540000000000000000000000000000000000000000000002192019113020191227226570500700021PENSION NOV 2019 CAR  *
D081777997014  00175104313       2017/80014775  SALCEDO PARIAN  JULI00000000540000000000000000000000000000000000000000000000492019122120191227226570500700021PENSION DIC 2019 CAR  *
D081777997014  00170813669       2017/78242219  ALEJOS CORONADO  ALE00000000640000000000000000000000000000000000000000000000582019122120191227126610500700075PENSION DIC 2019 COL  *
D081777997014  00177856766       2017/78241620  ORE FLORES  RODRIGO 00000000560000000000000000000000000000000000000000000002272019113020191227126610500700130PENSION NOV 2019 COL  *
D081777997014  00177856766       2017/78242835  ORE FLORES  RODRIGO 00000000560000000000000000000000000000000000000000000000502019122120191227126610500700130PENSION DIC 2019 COL  *
D081777997014  00179406304       2017/159509    GALVEZ QUISPE  LUIS 00000000560000000000000000000000000000000000000000000000502019122120191227126910500700059PENSION DIC 2019 SJL  *
D081777997014  00160904788       2017/151166    TICACALA ARROYO  MAR00000000540000000000000000000000000000000000000000000021952019033120191227126910500700069PENSION MAR 2019 SJL  *
D081777997014  00160904788       2017/152188    TICACALA ARROYO  MAR00000000540000000000000000000000000000000000000000000019522019043020191227126910500700069PENSION ABR 2019 SJL  *
D081777997014  00160904788       2017/153210    TICACALA ARROYO  MAR00000000540000000000000000000000000000000000000000000017012019053120191227126910500700069PENSION MAY 2019 SJL  *
D081777997014  00160904788       2017/154232    TICACALA ARROYO  MAR00000000540000000000000000000000000000000000000000000014582019063020191227126910500700069PENSION JUN 2019 SJL  *
D081777997014  00161214445       2017/156850    ORTIZ CASTANEDA  JOS00000000550000000000000000000000000000000000000000000007262019093020191227127420500700066PENSION SEP 2019 SJL  *
D081777997014  00161214445       2017/157720    ORTIZ CASTANEDA  JOS00000000550000000000000000000000000000000000000000000004702019103120191227127420500700069PENSION OCT 2019 SJL  *
D081777997014  00161214445       2017/159037    ORTIZ CASTANEDA  JOS00000000550000000000000000000000000000000000000000000002232019113020191227127420500700070PENSION NOV 2019 SJL  *
D081777997014  00175341271       2017/160218    PEREZ MEDINA  ANA CA00000000540000000000000000000000000000000000000000000000492019122120191227127420500700072PENSION DIC 2019 SJL  *
D081777997014  00161214445       2017/159890    ORTIZ CASTANEDA  JOS00000000550000000000000000000000000000000000000000000000502019122120191227127420500700074PENSION DIC 2019 SJL  *
D081777997014  00172209303       2017/78242330  RODRIGUEZ BALDWIN  S00000000576000000000000000000000000000000000000000000000522019122120191227227844651001779PENSION DIC 2019 COL  *
D081777997014  00172209294       2017/78241869  RODRIGUEZ BALDWIN  T00000000576000000000000000000000000000000000000000000000522019122120191227227844651001806PENSION DIC 2019 COL  *
D081777997014  00160419902       2017/78242011  VELASQUEZ VILLARREAL00000000640000000000000000000000000000000000000000000000582019122120191227227844651002717PENSION DIC 2019 COL  *
D081777997014  00172218930       2017/78241828  VELASQUEZ VILLARREAL00000000576000000000000000000000000000000000000000000000522019122120191227227844651002735PENSION DIC 2019 COL  *
D081777997014  00178045287       2017/78239899  FLORES DE LA CRUZ  A00000000560000000000000000000000000000000000000000000004792019103120191227227844651005186PENSION OCT 2019 COL  *
D081777997014  00178045287       2017/78241684  FLORES DE LA CRUZ  A00000000560000000000000000000000000000000000000000000002272019113020191227227844651005244PENSION NOV 2019 COL  *
D081777997014  00178045287       2017/78242899  FLORES DE LA CRUZ  A00000000560000000000000000000000000000000000000000000000502019122120191227227844651005306PENSION DIC 2019 COL  *
D081777997014  00177260129       2017/159957    MONTEAGUDO GRAUS  BI00000000550000000000000000000000000000000000000000000000502019122120191227227844651005408PENSION DIC 2019 SJL  *
D081777997014  00176992073       2017/78242045  ANCCO VASQUEZ  JOSSY00000000640000000000000000000000000000000000000000000000582019122120191227227844651010874PENSION DIC 2019 COL  *
D081777997014  00178595877       2017/80013457  ROJAS DIAZ  ADRIANA 00000000560000000000000000000000000000000000000000000007392019093020191227227844651012061PENSION SEP 2019 CAR  *
D081777997014  00178595877       2017/80014024  ROJAS DIAZ  ADRIANA 00000000560000000000000000000000000000000000000000000004792019103120191227227844651012078PENSION OCT 2019 CAR  *
D081777997014  00178595877       2017/80014350  ROJAS DIAZ  ADRIANA 00000000560000000000000000000000000000000000000000000002272019113020191227227844651012111PENSION NOV 2019 CAR  *
D081777997014  00172773515       2017/80014761  CARLOS REYES  JORDAN00000000378000000000000000000000000000000000000000000000342019122120191227227844651013489PENSION DIC 2019 CAR  *
D081777997014  00172215224       2017/158185    CORTEZ URRUTIA  ALEJ00000000486000000000000000000000000000000000000000000004162019103120191227227844651016897PENSION OCT 2019 SJL  *
D081777997014  00172215232       2017/158143    CORTEZ URRUTIA  AIDA00000000540000000000000000000000000000000000000000000004622019103120191227227844651016926PENSION OCT 2019 SJL  *
T081777997014  00101PENSION                       081777997014  000000001137207                                                                                                    *
T081777997014  00102PENSION SAN JUAN              081777997014  000000002641698                                                                                                    *
T081777997014  00103PENSION                       081777997014  000000000699110                                                                                                    *
H081777997014  003000001300000000070745000000000000020191227                                                                                                                       *
D081777997014  00361251199       2017/78244062  CARREON MOLINA  VALE00000000603000000000000000000000000000000000000000000000002019122120191227120140500700068MATRICULA COL         *
D081777997014  00377720965       2017/78244063  CARREON MOLINA  MAIL00000000522000000000000000000000000000000000000000000000002019122120191227120140500700070MATRICULA COL         *
D081777997014  00361096050       2017/80016124  CENTENO YANAC  DIEGO00000000495000000000000000000000000000000000000000000000002019122120191227120200500700050MATRICULA CAR         *
D081777997014  00372347572       2017/161423    VENTO MONDRAGON  ALE00000000513000000000000000000000000000000000000000000000002019122120191227220230500700012MATRICULA SJL         *
D081777997014  00372525329       2017/78244056  PORTUGAL SOLDEVILLA 00000000603000000000000000000000000000000000000000000000002019122120191227122540500700039MATRICULA COL         *
D081777997014  00372525339       2017/78244057  PORTUGAL SOLDEVILLA 00000000603000000000000000000000000000000000000000000000002019122120191227122540500700040MATRICULA COL         *
D081777997014  00372066517       2017/78244084  ARAUJO VERAMENDI  MA00000000603000000000000000000000000000000000000000000000002019122120191227122540500700151MATRICULA COL         *
D081777997014  00361033919       2017/78244073  ROJAS HUAMAN  ALEJAN00000000569500000000000000000000000000000000000000000000002019122120191227226610500700087MATRICULA COL         *
D081777997014  00362433648       2017/161340    JIMENEZ ESPINOZA  JH00000000570000000000000000000000000000000000000000000000002019122120191227126910500700087MATRICULA SJL         *
D081777997014  00362433648       2017/161341    JIMENEZ ESPINOZA  JH00000000350000000000000000000000000000000000000000000000002019122120191227126910500700087INSCRIPCION SJL       *
D081777997014  00370937305       2017/78243996  ANDONAIRE BRANDAN  A00000000569500000000000000000000000000000000000000000000002019122120191227227844651008866MATRICULA COL         *
D081777997014  00378254735       2017/80016129  TRUJILLO DELZO  CAMI00000000504000000000000000000000000000000000000000000000002019122120191227227844651009231MATRICULA CAR         *
D081777997014  00377521123       2017/78243849  AVILA ALVAREZ  LUANA00000000569500000000000000000000000000000000000000000000002019122120191227228600500700045MATRICULA COL         *
T081777997014  00304MATRICULA                     081777997014  000000000464250                                                                                                    *
T081777997014  00306MATRICULA SJL - PREMATRICULA  081777997014  000000000108300                                                                                                    *
T081777997014  00307DERECHO DE INGRESO SJL 2019   081777997014  000000000035000                                                                                                    *
T081777997014  00308MATRICULA CAR 2019            081777997014  000000000099900                                                                                                    *
H081777997014  009000000200000000001200000000000000020191227                                                                                                                       *
D081777997014  00972526553       FF19/2394      RIVERA GUTIERREZ  ES00000000060000000000000000000000000000000000000000000000002019122120191227122470500700119CERT ESTUDIOS SJL DI  *
D081777997014  00973440939       FF19/2392      PAZ DIAZ  FLAVIA MAC00000000060000000000000000000000000000000000000000000000002019122120191227126610500700110CERT ESTUDIO COL DIC  *
T081777997014  00925CERT ESTUDIO-COL              081777997014  000000000006000                                                                                                    *
T081777997014  00954CERT ESTUDIOS SJL             081777997014  000000000006000                                                                                                    *
H081777997014  010000000100000000000300000000000000020191227                                                                                                                       *
D081777997014  01073440939       FF19/2393      PAZ DIAZ  FLAVIA MAC00000000030000000000000000000000000000000000000000000000002019122120191227126610500700110CCIA NO ADEUDO COL D  *
T081777997014  01026CCIA NO ADEUDO COL            081777997014  000000000003000                                                                                                    *
H081777997014  012000000100000000000300000000000000020191227                                                                                                                       *
D081777997014  01270737654       FF19/2406      OCAMPO FABIAN  JEAN 00000000030000000000000000000000000000000000000000000000002019122120191227122470500700116PRA ACAD SJL DIC 201  *
T081777997014  01257PRA ACAD SJL                  081777997014  000000000003000                                                                                                    *
