H081777997014  001000007500000000417237600000000000020191128                                                                                                                       *
D081777997014  00161361343       2017/159021    LUNA MASIAS  ABIGAIL00000000550000000000000000000000000000000000000000000000002019113020191128120100500700128PENSION NOV 2019 SJL  *
D081777997014  00171220462       2017/78240691  ESPEJO ANEZ  MARIANA00000000640000000000000000000000000000000000000000000000002019113020191128120160500700027PENSION NOV 2019 COL  *
D081777997014  00171220462       2017/78241787  ESPEJO ANEZ  MARIANA00000000640000000000000000000000000000000000000000000000002019122120191128120160500700027PENSION DIC 2019 COL  *
D081777997014  00174784775       2017/78241405  NUNEZ SANCHEZ  BRAUL00000000640000000000000000000000000000000000000000000000002019113020191128120590500700055PENSION NOV 2019 COL  *
D081777997014  00171183123       2017/78241192  ORBEGOSO GUTIERREZ  00000000640000000000000000000000000000000000000000000000002019113020191128120590500700077PENSION NOV 2019 COL  *
D081777997014  00173265406       2017/78241062  ORBEGOSO GUTIERREZ  00000000576000000000000000000000000000000000000000000000002019113020191128120590500700078PENSION NOV 2019 COL  *
D081777997014  00179508826       2017/78240598  AVILA JARA  DAVID NI00000000560000000000000000000000000000000000000000000000002019113020191128120630500700012PENSION NOV 2019 COL  *
D081777997014  00178003005       2017/78241617  AVILA JARA  LUCIA BE00000000504000000000000000000000000000000000000000000000002019113020191128120630500700013PENSION NOV 2019 COL  *
D081777997014  00161714679       2017/159268    ANGLAS VALERIO  ALVI00000000550000000000000000000000000000000000000000000000002019113020191128121860500700005PENSION NOV 2019 SJL  *
D081777997014  00170869964       2017/158599    GUILLEN CERNA  RAPHA00000000540000000000000000000000000000000000000000000000002019113020191128122130500700019PENSION NOV 2019 SJL  *
D081777997014  00173291380       2017/78238018  LOPEZ MERINO  BRENDA00000000640000000000000000000000000000000000000000000008542019083120191128122240500700060PENSION AGO 2019 COL  *
D081777997014  00173291380       2017/78239160  LOPEZ MERINO  BRENDA00000000640000000000000000000000000000000000000000000005662019093020191128122240500700060PENSION SEP 2019 COL  *
D081777997014  00173291380       2017/78239810  LOPEZ MERINO  BRENDA00000000640000000000000000000000000000000000000000000002692019103120191128122240500700060PENSION OCT 2019 COL  *
D081777997014  00173294931       2017/78241418  ZORRILLA RUIZ  GONZA00000000576000000000000000000000000000000000000000000000002019113020191128122310500700039PENSION NOV 2019 COL  *
D081777997014  00177718365       2017/78241694  ZORRILLA RUIZ  RAUL 00000000560000000000000000000000000000000000000000000000002019113020191128122310500700041PENSION NOV 2019 COL  *
D081777997014  00175361010       2017/78241009  BENAVIDES VIVANCO  M00000000640000000000000000000000000000000000000000000000002019113020191128122310500700045PENSION NOV 2019 COL  *
D081777997014  00161483732       2017/158690    ACUNA ARTEAGA  VALER00000000550000000000000000000000000000000000000000000000002019113020191128122390500700037PENSION NOV 2019 SJL  *
D081777997014  00161253420       2017/158966    YACTAYO RUIZ  YADHIR00000000550000000000000000000000000000000000000000000000002019113020191128122470500700004PENSION NOV 2019 SJL  *
D081777997014  00177744533       2017/159179    CHAVEZ VALVERDE  SOF00000000550000000000000000000000000000000000000000000000002019113020191128122470500700030PENSION NOV 2019 SJL  *
D081777997014  00171282292       2017/158471    GUTIERREZ FLOREZ  GI00000000540000000000000000000000000000000000000000000000002019113020191128122470500700032PENSION NOV 2019 SJL  *
D081777997014  00173847095       2017/78242803  PRIMO GRADOS  FERNAN00000000640000000000000000000000000000000000000000000000002019122120191128122540500700002PENSION DIC 2019 COL  *
D081777997014  00177312028       2017/78239056  HERRERA CERNA  LUCIA00000000560000000000000000000000000000000000000000000004962019093020191128122540500700021PENSION SEP 2019 COL  *
D081777997014  00177401205       2017/78241471  ALOR RUIZ  LUHANA FR00000000392000000000000000000000000000000000000000000000002019113020191128122540500700081PENSION NOV 2019 COL  *
D081777997014  00173210458       2017/78240698  PENA MUNSIBAY  FRANC00000000640000000000000000000000000000000000000000000000002019113020191128126310500700044PENSION NOV 2019 COL  *
D081777997014  00175111074       2017/152159    ORMENO BLAS  ARLEX A00000000486000000000000000000000000000000000000000000015452019043020191128126800500700065PENSION ABR 2019 SJL  *
D081777997014  00175085450       2017/152327    ORMENO BLAS  AYSEL D00000000540000000000000000000000000000000000000000000017172019043020191128126800500700066PENSION ABR 2019 SJL  *
D081777997014  00179121454       2017/158846    RIVADENEYRA VALQUI  00000000560000000000000000000000000000000000000000000000002019113020191128126860500700002PENSION NOV 2019 SJL  *
D081777997014  00161912561       2017/158060    TEODOR TASARA  GAEL 00000000550000000000000000000000000000000000000000000002312019103120191128126910500700002PENSION OCT 2019 SJL  *
D081777997014  00172896320       2017/158280    TEODOR TASARA  YADHI00000000486000000000000000000000000000000000000000000002042019103120191128126910500700003PENSION OCT 2019 SJL  *
D081777997014  00173925288       2017/159348    DELGADO FERNANDEZ  B00000000540000000000000000000000000000000000000000000000002019113020191128126910500700033PENSION NOV 2019 SJL  *
D081777997014  00173925288       2017/160226    DELGADO FERNANDEZ  B00000000540000000000000000000000000000000000000000000000002019122120191128126910500700033PENSION DIC 2019 SJL  *
D081777997014  00172817092       2017/158943    BENEL VILCA  DOMINIC00000000550000000000000000000000000000000000000000000000002019113020191128126910500700046PENSION NOV 2019 SJL  *
D081777997014  00172817092       2017/159734    BENEL VILCA  DOMINIC00000000550000000000000000000000000000000000000000000000002019122120191128126910500700046PENSION DIC 2019 SJL  *
D081777997014  00161932673       2017/156940    BRAVO COTERA  TONY G00000000385000000000000000000000000000000000000000000003412019093020191128126910500700047PENSION SEP 2019 SJL  *
D081777997014  00177887841       2017/156869    BRAVO COTERA  RODRIG00000000385000000000000000000000000000000000000000000003412019093020191128126910500700048PENSION SEP 2019 SJL  *
D081777997014  00172889917       2017/154189    TERRONES DOMINGUEZ  00000000540000000000000000000000000000000000000000000012232019063020191128126910500700050PENSION JUN 2019 SJL  *
D081777997014  00178170198       2017/157575    TELLO TOCON  SOFIA V00000000560000000000000000000000000000000000000000000002352019103120191128126910500700060PENSION OCT 2019 SJL  *
D081777997014  00176470498       2017/154322    MORI CASTILLO  GADIE00000000540000000000000000000000000000000000000000000012232019063020191128126910500700076PENSION JUN 2019 SJL  *
D081777997014  00176470498       2017/154987    MORI CASTILLO  GADIE00000000540000000000000000000000000000000000000000000009722019073120191128126910500700076PENSION JUL 2019 SJL  *
D081777997014  00174676631       2017/80013725  CASTANEDA BARZOLA  A00000000550000000000000000000000000000000000000000000004872019093020191128227844651002707PENSION SEP 2019 CAR  *
D081777997014  00175038004       2017/78241281  URBINA NOLASCO  DANA00000000640000000000000000000000000000000000000000000000002019113020191128227844651003462PENSION NOV 2019 COL  *
D081777997014  00178254735       2017/80014294  TRUJILLO DELZO  CAMI00000000560000000000000000000000000000000000000000000000002019113020191128227844651003961PENSION NOV 2019 CAR  *
D081777997014  00160972215       2017/78240947  SEGOVIA MENDOZA  SOP00000000448000000000000000000000000000000000000000000000002019113020191128227844651004048PENSION NOV 2019 COL  *
D081777997014  00181497371       2017/78240559  SEGOVIA MENDOZA  FAC00000000392000000000000000000000000000000000000000000000002019113020191128227844651004086PENSION NOV 2019 COL  *
D081777997014  00174873103       2017/78237076  ELESCANO CAMPOS  JAR00000000640000000000000000000000000000000000000000000008542019083120191128227844651004217PENSION AGO 2019 COL  *
D081777997014  00178758525       2017/78240524  TEJADA HUARANGA  VAS00000000504000000000000000000000000000000000000000000000002019113020191128227844651006606PENSION NOV 2019 COL  *
D081777997014  00179558191       2017/78240638  TEJADA HUARANGA  BRU00000000560000000000000000000000000000000000000000000000002019113020191128227844651006607PENSION NOV 2019 COL  *
D081777997014  00175083679       2017/78243386  BEGAZO VEGA  GUILLER00000000640000000000000000000000000000000000000000000000002019113020191128227844651009414PENSION NOV 2019 COL  *
D081777997014  00173152462       2017/78231696  BERMEO ZAVALETA  MAT00000000640000000000000000000000000000000000000000000023232019033120191128227844651009562PENSION MAR 2019 COL  *
D081777997014  00173152462       2017/78232911  BERMEO ZAVALETA  MAT00000000640000000000000000000000000000000000000000000020352019043020191128227844651009606PENSION ABR 2019 COL  *
D081777997014  00177365589       2017/78241523  BEGAZO VEGA  GABRIEL00000000560000000000000000000000000000000000000000000000002019113020191128227844651009615PENSION NOV 2019 COL  *
D081777997014  00177964603       2017/159135    SILVERIO QUISPE  STE00000000550000000000000000000000000000000000000000000000002019113020191128227844651009678PENSION NOV 2019 SJL  *
D081777997014  00172209294       2017/78240730  RODRIGUEZ BALDWIN  T00000000576000000000000000000000000000000000000000000000002019113020191128227844651009843PENSION NOV 2019 COL  *
D081777997014  00172209303       2017/78241143  RODRIGUEZ BALDWIN  S00000000576000000000000000000000000000000000000000000000002019113020191128227844651010008PENSION NOV 2019 COL  *
D081777997014  00179219778       2017/80014324  PAREDES BRITO  LILIA00000000560000000000000000000000000000000000000000000000002019113020191128227844651010485PENSION NOV 2019 CAR  *
D081777997014  00170725751       2017/78237702  SILVA JULCA  MIGUEL 00000000576000000000000000000000000000000000000000000007692019083120191128227844651011739PENSION AGO 2019 COL  *
D081777997014  00160422890       2017/159316    SANCHEZ RAMOS  ANDRE00000000378000000000000000000000000000000000000000000000002019113020191128227844651011809PENSION NOV 2019 SJL  *
D081777997014  00176835032       2017/159336    SEGURA MUNAYLLA  NAT00000000540000000000000000000000000000000000000000000000002019113020191128227844651013546PENSION NOV 2019 SJL  *
D081777997014  00177453719       2017/78241481  GONZALES PELILEO  JO00000000504000000000000000000000000000000000000000000000002019113020191128227844651015215PENSION NOV 2019 COL  *
D081777997014  00178426783       2017/78240640  GONZALES PELILEO  SE00000000560000000000000000000000000000000000000000000000002019113020191128227844651015263PENSION NOV 2019 COL  *
D081777997014  00177453719       2017/78242696  GONZALES PELILEO  JO00000000504000000000000000000000000000000000000000000000002019122120191128227844651015307PENSION DIC 2019 COL  *
D081777997014  00162375839       2017/157771    CORDOVA OLAZA  ALESS00000000550000000000000000000000000000000000000000000002312019103120191128227844651015332PENSION OCT 2019 SJL  *
D081777997014  00178426783       2017/78241736  GONZALES PELILEO  SE00000000560000000000000000000000000000000000000000000000002019122120191128227844651015341PENSION DIC 2019 COL  *
D081777997014  00177627532       2017/80014114  ASHTU LOPEZ  ADRIAN 00000000550000000000000000000000000000000000000000000002312019103120191128227844651015830PENSION OCT 2019 CAR  *
D081777997014  00173152462       2017/78234246  BERMEO ZAVALETA  MAT00000000640000000000000000000000000000000000000000000017382019053120191128227844651016118PENSION MAY 2019 COL  *
D081777997014  00173152462       2017/78235019  BERMEO ZAVALETA  MAT00000000640000000000000000000000000000000000000000000014502019063020191128227844651016143PENSION JUN 2019 COL  *
D081777997014  00173152462       2017/78236556  BERMEO ZAVALETA  MAT00000000640000000000000000000000000000000000000000000011522019073120191128227844651016167PENSION JUL 2019 COL  *
D081777997014  00173152462       2017/78237844  BERMEO ZAVALETA  MAT00000000640000000000000000000000000000000000000000000008542019083120191128227844651016187PENSION AGO 2019 COL  *
D081777997014  00173152462       2017/78238986  BERMEO ZAVALETA  MAT00000000640000000000000000000000000000000000000000000005662019093020191128227844651016223PENSION SEP 2019 COL  *
D081777997014  00173152462       2017/78239621  BERMEO ZAVALETA  MAT00000000640000000000000000000000000000000000000000000002692019103120191128227844651016257PENSION OCT 2019 COL  *
D081777997014  00176629036       2017/80014541  GONZALEZ BULLON  MIA00000000378000000000000000000000000000000000000000000000002019113020191128227844671001183PENSION NOV 2019 CAR  *
D081777997014  00177410761       2017/159210    LLULLUY ACUNA  NOEMI00000000385000000000000000000000000000000000000000000000002019113020191128227844671001479PENSION NOV 2019 SJL  *
D081777997014  00177410761       2017/160066    LLULLUY ACUNA  NOEMI00000000385000000000000000000000000000000000000000000000002019122120191128227844671001485PENSION DIC 2019 SJL  *
D081777997014  00174785013       2017/159040    LAGO SABRERA  GABRIE00000000550000000000000000000000000000000000000000000000002019113020191128129470500700200PENSION NOV 2019 SJL  *
D081777997014  00174884707       2017/158542    LAGO SABRERA  LUCERO00000000486000000000000000000000000000000000000000000000002019113020191128129470500700201PENSION NOV 2019 SJL  *
T081777997014  00101PENSION                       081777997014  000000002362995                                                                                                    *
T081777997014  00102PENSION SAN JUAN              081777997014  000000001548863                                                                                                    *
T081777997014  00103PENSION                       081777997014  000000000260518                                                                                                    *
H081777997014  003000000100000000005700000000000000020191128                                                                                                                       *
D081777997014  00378596843       2017/80015965  ANASTACIO CAMANA  LU00000000570000000000000000000000000000000000000000000000002019113020191128122190500700169MATRICULA CAR         *
T081777997014  00308MATRICULA CAR 2019            081777997014  000000000057000                                                                                                    *
H081777997014  005000000100000000001000000000000000020191128                                                                                                                       *
D081777997014  00578636542       2017/80015830  ZAPATA VIDAL  RODRIG00000000100000000000000000000000000000000000000000000000002019083120191128126570500700041TALLERES AGO 2019 CA  *
T081777997014  00596TALLERES                      081777997014  000000000010000                                                                                                    *
