H081777997014  001000009400000000505996100000000000020191205                                                                                                                       *
D081777997014  00178456247       2017/156462    CONDORI NINA  GABRIE00000000560000000000000000000000000000000000000000000005542019093020191205120110500700086PENSION SEP 2019 SJL  *
D081777997014  00178456247       2017/157616    CONDORI NINA  GABRIE00000000560000000000000000000000000000000000000000000002942019103120191205120110500700087PENSION OCT 2019 SJL  *
D081777997014  00178456247       2017/158838    CONDORI NINA  GABRIE00000000560000000000000000000000000000000000000000000000422019113020191205120110500700088PENSION NOV 2019 SJL  *
D081777997014  00178456247       2017/159790    CONDORI NINA  GABRIE00000000560000000000000000000000000000000000000000000000002019122120191205120110500700089PENSION DIC 2019 SJL  *
D081777997014  00177165930       2017/157312    CONDORI NINA  DARIO 00000000486000000000000000000000000000000000000000000004812019093020191205120110500700090PENSION SEP 2019 SJL  *
D081777997014  00177165930       2017/158300    CONDORI NINA  DARIO 00000000486000000000000000000000000000000000000000000002552019103120191205120110500700091PENSION OCT 2019 SJL  *
D081777997014  00177165930       2017/159482    CONDORI NINA  DARIO 00000000486000000000000000000000000000000000000000000000362019113020191205120110500700092PENSION NOV 2019 SJL  *
D081777997014  00177165930       2017/160344    CONDORI NINA  DARIO 00000000486000000000000000000000000000000000000000000000002019122120191205120110500700093PENSION DIC 2019 SJL  *
D081777997014  00161264929       2017/78238778  LOBO OLGUIN  DHARMA 00000000640000000000000000000000000000000000000000000006342019093020191205120130500700005PENSION SEP 2019 COL  *
D081777997014  00175425434       2017/78241041  ARIAS MEDINA  NICOLA00000000640000000000000000000000000000000000000000000000482019113020191205120140500700089PENSION NOV 2019 COL  *
D081777997014  00161096050       2017/80014248  CENTENO YANAC  DIEGO00000000550000000000000000000000000000000000000000000002892019103120191205120200500700001PENSION OCT 2019 CAR  *
D081777997014  00161096050       2017/80014725  CENTENO YANAC  DIEGO00000000550000000000000000000000000000000000000000000000412019113020191205120200500700001PENSION NOV 2019 CAR  *
D081777997014  00170741915       2017/78241214  ALACHE ROEDER  ALEJA00000000640000000000000000000000000000000000000000000000482019113020191205220630500700104PENSION NOV 2019 COL  *
D081777997014  00173174401       2017/78240754  RODRIGUEZ BROWN ACOS00000000576000000000000000000000000000000000000000000000432019113020191205120630500700134PENSION NOV 2019 COL  *
D081777997014  00177720111       2017/78241621  RODRIGUEZ BROWN ACOS00000000560000000000000000000000000000000000000000000000422019113020191205120630500700135PENSION NOV 2019 COL  *
D081777997014  00173093156       2017/80014434  VASQUEZ PEREZ  LUIS 00000000540000000000000000000000000000000000000000000000412019113020191205120700500700137PENSION NOV 2019 CAR  *
D081777997014  00161009459       2017/78240857  LEVIS CUYUBAMBA  MAU00000000640000000000000000000000000000000000000000000000482019113020191205121000500700193PENSION NOV 2019 COL  *
D081777997014  00160697967       2017/158495    POZO GARCIA  ANGIE C00000000540000000000000000000000000000000000000000000000412019113020191205121350500700084PENSION NOV 2019 SJL  *
D081777997014  00170997726       2017/80013357  BARROS BLAS  NICOLE 00000000540000000000000000000000000000000000000000000005352019093020191205121350500700146PENSION SEP 2019 CAR  *
D081777997014  00170997726       2017/80013949  BARROS BLAS  NICOLE 00000000540000000000000000000000000000000000000000000002842019103120191205121350500700146PENSION OCT 2019 CAR  *
D081777997014  00170997726       2017/80014451  BARROS BLAS  NICOLE 00000000540000000000000000000000000000000000000000000000412019113020191205121350500700146PENSION NOV 2019 CAR  *
D081777997014  00177169321       2017/157220    CASTILLO SOLANO  ABE00000000486000000000000000000000000000000000000000000004812019093020191205121440500700004PENSION SEP 2019 SJL  *
D081777997014  00177169321       2017/158263    CASTILLO SOLANO  ABE00000000486000000000000000000000000000000000000000000002552019103120191205121440500700004PENSION OCT 2019 SJL  *
D081777997014  00161291874       2017/156819    CASTILLO SOLANO  SEB00000000550000000000000000000000000000000000000000000005452019093020191205121440500700005PENSION SEP 2019 SJL  *
D081777997014  00161291874       2017/157846    CASTILLO SOLANO  SEB00000000550000000000000000000000000000000000000000000002892019103120191205121440500700005PENSION OCT 2019 SJL  *
D081777997014  00174332418       2017/159746    CABANACONZA HERRERA 00000000550000000000000000000000000000000000000000000000002019122120191205121440500700007PENSION DIC 2019 SJL  *
D081777997014  00160892887       2017/160168    CABANACONZA HERRERA 00000000486000000000000000000000000000000000000000000000002019122120191205121440500700008PENSION DIC 2019 SJL  *
D081777997014  00177240365       2017/153281    VILCAPUMA GARCIA  AN00000000486000000000000000000000000000000000000000000013712019053120191205121490500700004PENSION MAY 2019 SJL  *
D081777997014  00177240365       2017/154303    VILCAPUMA GARCIA  AN00000000486000000000000000000000000000000000000000000011522019063020191205121490500700004PENSION JUN 2019 SJL  *
D081777997014  00177586354       2017/78241464  ANASTACIO YANEZ  MAR00000000560000000000000000000000000000000000000000000000422019113020191205121770500700001PENSION NOV 2019 COL  *
D081777997014  00170952229       2017/158728    PALACIOS YOVERA  PAM00000000550000000000000000000000000000000000000000000000412019113020191205121770500700025PENSION NOV 2019 SJL  *
D081777997014  00173406448       2017/78241574  CHATE ROJAS  ARIANA 00000000640000000000000000000000000000000000000000000000482019113020191205121770500700074PENSION NOV 2019 COL  *
D081777997014  00175610396       2017/78240988  CHATE ROJAS  GIANELA00000000576000000000000000000000000000000000000000000000432019113020191205121770500700075PENSION NOV 2019 COL  *
D081777997014  00172754161       2017/78240669  GARCIA GARCIA  BRYAN00000000448000000000000000000000000000000000000000000000342019113020191205122030500700088PENSION NOV 2019 COL  *
D081777997014  00172754161       2017/78241765  GARCIA GARCIA  BRYAN00000000448000000000000000000000000000000000000000000000002019122120191205122030500700089PENSION DIC 2019 COL  *
D081777997014  00171367812       2017/78241373  BUSTIOS JUAREZ  JOSH00000000640000000000000000000000000000000000000000000000482019113020191205122130500700221PENSION NOV 2019 COL  *
D081777997014  00171367812       2017/78242588  BUSTIOS JUAREZ  JOSH00000000640000000000000000000000000000000000000000000000002019122120191205122130500700221PENSION DIC 2019 COL  *
D081777997014  00179608530       2017/157518    TRUJILLO ZORRILLA  V00000000560000000000000000000000000000000000000000000002942019103120191205122410500700024PENSION OCT 2019 SJL  *
D081777997014  00179608530       2017/158766    TRUJILLO ZORRILLA  V00000000560000000000000000000000000000000000000000000000422019113020191205122410500700024PENSION NOV 2019 SJL  *
D081777997014  00178605706       2017/157650    TRUJILLO ZORRILLA  Y00000000504000000000000000000000000000000000000000000002652019103120191205122410500700026PENSION OCT 2019 SJL  *
D081777997014  00178605706       2017/158622    TRUJILLO ZORRILLA  Y00000000504000000000000000000000000000000000000000000000382019113020191205122410500700026PENSION NOV 2019 SJL  *
D081777997014  00177756812       2017/159017    MUNOZ ALMERCO  LUCIA00000000550000000000000000000000000000000000000000000000412019113020191205122470500700008PENSION NOV 2019 SJL  *
D081777997014  00160851565       2017/160250    ARRIAGA PEREZ  RICAR00000000540000000000000000000000000000000000000000000000002019122120191205122470500700029PENSION DIC 2019 SJL  *
D081777997014  00162579717       2017/154461    RODRIGUEZ CHALLCO  J00000000550000000000000000000000000000000000000000000010482019073120191205122470500700064PENSION JUL 2019 SJL  *
D081777997014  00174878073       2017/154943    RODRIGUEZ CHALLCO  A00000000486000000000000000000000000000000000000000000009262019073120191205122470500700065PENSION JUL 2019 SJL  *
D081777997014  00172572935       2017/158507    ROMERO PEREZ  ADRIAN00000000540000000000000000000000000000000000000000000000412019113020191205122470500700113PENSION NOV 2019 SJL  *
D081777997014  00161852181       2017/159195    SILVA FLORES  YESIL 00000000550000000000000000000000000000000000000000000000412019113020191205122470500700125PENSION NOV 2019 SJL  *
D081777997014  00161052039       2017/78238575  ALVARADO VASQUEZ  KE00000000576000000000000000000000000000000000000000000005702019093020191205122540500700029PENSION SEP 2019 COL  *
D081777997014  00161842178       2017/78239175  ALVARADO VASQUEZ  AN00000000640000000000000000000000000000000000000000000006342019093020191205122540500700030PENSION SEP 2019 COL  *
D081777997014  00174794160       2017/78239497  HERNANDEZ CHACALTANA00000000640000000000000000000000000000000000000000000003362019103120191205122540500700086PENSION OCT 2019 COL  *
D081777997014  00163792374       2017/156620    PAUCAR OYOLA  GABRIE00000000550000000000000000000000000000000000000000000005452019093020191205122630500700038PENSION SEP 2019 SJL  *
D081777997014  00163792374       2017/157496    PAUCAR OYOLA  GABRIE00000000550000000000000000000000000000000000000000000002892019103120191205122630500700038PENSION OCT 2019 SJL  *
D081777997014  00172783600       2017/160642    PAUCAR MONTELLANOS  00000000486000000000000000000000000000000000000000000007002019083120191205122630500700040PENSION AGO 2019 SJL  *
D081777997014  00172783600       2017/160643    PAUCAR MONTELLANOS  00000000486000000000000000000000000000000000000000000004812019093020191205122630500700040PENSION SEP 2019 SJL  *
D081777997014  00163716063       2017/153933    ESTRADA BAUTISTA  NI00000000550000000000000000000000000000000000000000000013042019063020191205122630500700068PENSION JUN 2019 SJL  *
D081777997014  00163716063       2017/154598    ESTRADA BAUTISTA  NI00000000550000000000000000000000000000000000000000000010482019073120191205122630500700068PENSION JUL 2019 SJL  *
D081777997014  00163716063       2017/155977    ESTRADA BAUTISTA  NI00000000550000000000000000000000000000000000000000000007922019083120191205122630500700068PENSION AGO 2019 SJL  *
D081777997014  00163716063       2017/156999    ESTRADA BAUTISTA  NI00000000550000000000000000000000000000000000000000000005452019093020191205122630500700068PENSION SEP 2019 SJL  *
D081777997014  00163716063       2017/158047    ESTRADA BAUTISTA  NI00000000550000000000000000000000000000000000000000000002892019103120191205122630500700068PENSION OCT 2019 SJL  *
D081777997014  00163716063       2017/159200    ESTRADA BAUTISTA  NI00000000550000000000000000000000000000000000000000000000412019113020191205122630500700068PENSION NOV 2019 SJL  *
D081777997014  00176608337       2017/159436    CHAQUICONDORI MERCAD00000000540000000000000000000000000000000000000000000000412019113020191205122640500700022PENSION NOV 2019 SJL  *
D081777997014  00161980830       2017/158915    AMAYA BAUTISTA  SOFI00000000550000000000000000000000000000000000000000000000412019113020191205123910500700066PENSION NOV 2019 SJL  *
D081777997014  00161980830       2017/159706    AMAYA BAUTISTA  SOFI00000000550000000000000000000000000000000000000000000000002019122120191205123910500700067PENSION DIC 2019 SJL  *
D081777997014  00173644840       2015/22090     PARRA DE LA PUENTE S00000000350000000000000000000000000000000000000000000080172015093020191205226570500700012PENSION SEP 2015 CAR  *
D081777997014  00173644840       2015/90920     PARRA DE LA PUENTE S00000000350000000000000000000000000000000000000000000078542015103120191205226570500700012PENSION OCT 2015 CAR  *
D081777997014  00173644840       2015/60901     PARRA DE LA PUENTE S00000000350000000000000000000000000000000000000000000076972015113020191205226570500700012PENSION NOV 2015 CAR  *
D081777997014  00173644840       2015/14971     PARRA DE LA PUENTE S00000000350000000000000000000000000000000000000000000076022015121820191205226570500700012PENSION DIC 2015 CAR  *
D081777997014  00171407987       2017/78242014  TALAVERA VIZCARRA  C00000000640000000000000000000000000000000000000000000000002019122120191205126570500700074PENSION DIC 2019 COL  *
D081777997014  00179282192       2017/158858    HUARANGA LAZARO  SOF00000000560000000000000000000000000000000000000000000000422019113020191205126800500700041PENSION NOV 2019 SJL  *
D081777997014  00178241953       2017/158791    HUARANGA LAZARO  TAT00000000504000000000000000000000000000000000000000000000382019113020191205126800500700042PENSION NOV 2019 SJL  *
D081777997014  00178076637       2017/157550    LLACUACHAQUI NAVARRE00000000392000000000000000000000000000000000000000000002062019103120191205126860500700010PENSION OCT 2019 SJL  *
D081777997014  00163012144       2017/159060    SABRERA CABEZAS  CAR00000000550000000000000000000000000000000000000000000000412019113020191205126860500700013PENSION NOV 2019 SJL  *
D081777997014  00170527355       2017/157355    LLANOS ALARCON  AXEL00000000378000000000000000000000000000000000000000000003742019093020191205126860500700017PENSION SEP 2019 SJL  *
D081777997014  00174342868       2017/159916    RAMOS MONTENEGRO  JO00000000550000000000000000000000000000000000000000000000002019122120191205126860500700018PENSION DIC 2019 SJL  *
D081777997014  00173840798       2017/159042    VILLAFUERTE CAMACHO 00000000550000000000000000000000000000000000000000000000412019113020191205126910500700037PENSION NOV 2019 SJL  *
D081777997014  00176987677       2017/157204    CHAVEZ VILLAVICENCIO00000000540000000000000000000000000000000000000000000005352019093020191205126910500700040PENSION SEP 2019 SJL  *
D081777997014  00176987677       2017/158247    CHAVEZ VILLAVICENCIO00000000540000000000000000000000000000000000000000000002842019103120191205126910500700040PENSION OCT 2019 SJL  *
D081777997014  00178520613       2017/158811    WANG ANTARA  EVAN KE00000000560000000000000000000000000000000000000000000000422019113020191205126910500700044PENSION NOV 2019 SJL  *
D081777997014  00177747726       2017/80015400  REYES ALVARADO  DAYR00000000385000000000000000000000000000000000000000000000292019113020191205127020500700065PENSION NOV 2019 CAR  *
D081777997014  00175635175       2017/159105    HUAMAN PAJAR  YAMILA00000000550000000000000000000000000000000000000000000000412019113020191205127420500700028PENSION NOV 2019 SJL  *
D081777997014  00175635175       2017/159967    HUAMAN PAJAR  YAMILA00000000550000000000000000000000000000000000000000000000002019122120191205127420500700029PENSION DIC 2019 SJL  *
D081777997014  00171184947       2017/80015516  CASTANEDA RODRIGUEZ 00000000385000000000000000000000000000000000000000000007332019073120191205227844651003488PENSION JUL 2019 CAR  *
D081777997014  00177721227       2017/80015526  CASTANEDA RODRIGUEZ 00000000385000000000000000000000000000000000000000000007332019073120191205227844651003574PENSION JUL 2019 CAR  *
D081777997014  00178891665       2017/80015486  CASTANEDA RODRIGUEZ 00000000392000000000000000000000000000000000000000000007472019073120191205227844651003700PENSION JUL 2019 CAR  *
D081777997014  00173572071       2017/160249    LOZADA BORJAS  JOSE 00000000540000000000000000000000000000000000000000000000002019122120191205227844651005879PENSION DIC 2019 SJL  *
D081777997014  00171353168       2017/78241182  VILLEGAS ESCOBAR  JH00000000640000000000000000000000000000000000000000000000482019113020191205227844651007264PENSION NOV 2019 COL  *
D081777997014  00170736077       2017/80014635  CHACON QUIROZ  DAYAN00000000550000000000000000000000000000000000000000000000412019113020191205227844651009064PENSION NOV 2019 CAR  *
D081777997014  00177249539       2017/158669    ROJAS VIVAS  EMMY VA00000000550000000000000000000000000000000000000000000000412019113020191205227844651010021PENSION NOV 2019 SJL  *
D081777997014  00170740694       2017/80013273  BERROCAL CASTRO  ALE00000000550000000000000000000000000000000000000000000007922019083120191205227844651011468PENSION AGO 2019 CAR  *
D081777997014  00173900818       2017/154827    CARHUAMACA FLORES  S00000000540000000000000000000000000000000000000000000010292019073120191205227844651012611PENSION JUL 2019 SJL  *
D081777997014  00173900818       2017/156206    CARHUAMACA FLORES  S00000000540000000000000000000000000000000000000000000007782019083120191205227844651012667PENSION AGO 2019 SJL  *
D081777997014  00173152462       2017/78241416  BERMEO ZAVALETA  MAT00000000640000000000000000000000000000000000000000000000482019113020191205227844651014956PENSION NOV 2019 COL  *
D081777997014  00161927215       2017/78241611  CALDERON MEDINA  RAM00000000640000000000000000000000000000000000000000000000482019113020191205229340500700003PENSION NOV 2019 COL  *
D081777997014  00178065908       2017/80014301  VILLACORTA LOZADA  C00000000560000000000000000000000000000000000000000000000422019113020191205129470500700171PENSION NOV 2019 CAR  *
T081777997014  00101PENSION                       081777997014  000000001209162                                                                                                    *
T081777997014  00102PENSION SAN JUAN              081777997014  000000003028581                                                                                                    *
T081777997014  00103PENSION                       081777997014  000000000822218                                                                                                    *
H081777997014  003000001400000000066680000000000000020191205                                                                                                                       *
D081777997014  00377265377       2017/80015974  GODOY ROJAS  FABIANA00000000476000000000000000000000000000000000000000000000002019122120191205121770500700006MATRICULA CAR         *
D081777997014  00378101251       2017/78243691  BARBOZA VALLADARES  00000000484500000000000000000000000000000000000000000000002019122120191205122240500700120MATRICULA COL         *
D081777997014  00379461056       2017/161012    CORDOVA OLAZA  VALLO00000000570000000000000000000000000000000000000000000000002019113020191205222470500700050MATRICULA SJL         *
D081777997014  00379461056       2017/161013    CORDOVA OLAZA  VALLO00000000350000000000000000000000000000000000000000000000002019113020191205222470500700050INSCRIPCION SJL       *
D081777997014  00379474375       2017/78243692  GAMBOA SAAVEDRA  NIC00000000570000000000000000000000000000000000000000000000002019122120191205226610500700013MATRICULA COL         *
D081777997014  00379474375       2017/78243693  GAMBOA SAAVEDRA  NIC00000000350000000000000000000000000000000000000000000000002019122120191205226610500700013INSCRIPCION COL       *
D081777997014  00378592430       2017/80015979  RODRIGUEZ VELASQUEZ 00000000484500000000000000000000000000000000000000000000002019122120191205227844651002625MATRICULA CAR         *
D081777997014  00378783760       2017/161042    COLLAVINO PIZARRO  S00000000484500000000000000000000000000000000000000000000002019122120191205227844651004275MATRICULA SJL         *
D081777997014  00370963036       2017/80015983  ZAMORA LUCANA  CIELO00000000467500000000000000000000000000000000000000000000002019122120191205227844651004679MATRICULA CAR         *
D081777997014  00373161034       2017/80015984  ZAMORA LUCANA  EITAN00000000476000000000000000000000000000000000000000000000002019122120191205227844651004721MATRICULA CAR         *
D081777997014  00378617600       2017/80015978  YACTAYO TIPISMANA  C00000000484500000000000000000000000000000000000000000000002019122120191205227844651005390MATRICULA CAR         *
D081777997014  00377633769       2017/78243686  HERRERA CANO  MARIA 00000000493000000000000000000000000000000000000000000000002019122120191205227844651009601MATRICULA COL         *
D081777997014  00379308399       2017/161040    ZAMORA MAMANI  ABBY 00000000484500000000000000000000000000000000000000000000002019122120191205227844651010648MATRICULA SJL         *
D081777997014  00377607967       2017/78243680  VASQUEZ GALLARDO  AN00000000493000000000000000000000000000000000000000000000002019122120191205227844651010854MATRICULA COL         *
T081777997014  00304MATRICULA                     081777997014  000000000204050                                                                                                    *
T081777997014  00305DERECHO DE INGRESO LIM 2018   081777997014  000000000035000                                                                                                    *
T081777997014  00306MATRICULA SJL - PREMATRICULA  081777997014  000000000153900                                                                                                    *
T081777997014  00307DERECHO DE INGRESO SJL 2019   081777997014  000000000035000                                                                                                    *
T081777997014  00308MATRICULA CAR 2019            081777997014  000000000238850                                                                                                    *
H081777997014  006000000100000000000200000000000000020191205                                                                                                                       *
D081777997014  00672785901       FF19/2280      VILLAR MACIZO  FLAVI00000000020000000000000000000000000000000000000000000000002019122120191205227844651002171CCIA ESTUDIOS SJL DI  *
T081777997014  00651CCIA ESTUDIOS SJL             081777997014  000000000002000                                                                                                    *
H081777997014  009000000200000000001200000000000000020191205                                                                                                                       *
D081777997014  00975506697       FF19/2290      MANZANO EGOAVIL  JHO00000000060000000000000000000000000000000000000000000000002019122120191205124450500700104CERT ESTUDIO COL DIC  *
D081777997014  00960976810       FF19/2288      CHUP SAMANIEGO  GIAN00000000060000000000000000000000000000000000000000000000002019122120191205126910500700010CERT ESTUDIOS SJL DI  *
T081777997014  00925CERT ESTUDIO-COL              081777997014  000000000006000                                                                                                    *
T081777997014  00954CERT ESTUDIOS SJL             081777997014  000000000006000                                                                                                    *
H081777997014  016000000200000000006600000000000000020191205                                                                                                                       *
D081777997014  01610424592779    FF19/2114      MIRANDA DE HORNA MAY00000000330000000000000000000000000000000000000000000000002019093020191205120200500700082CONCESIONARIO SEP 20  *
D081777997014  01610424592779    FF19/2150      MIRANDA DE HORNA MAY00000000330000000000000000000000000000000000000000000000002019103120191205120200500700083CONCESIONARIO OCT 20  *
T081777997014  01692ARRENDAMIENTO DE ESPACIO PARA 081777997014  000000000066000                                                                                                    *
