H081777997014  001000006500000000365509100000000000020191206                                                                                                                       *
D081777997014  00178143604       2017/78238213  ARANDA PUCHURI  ALEJ00000000560000000000000000000000000000000000000000000005632019093020191206120100500700004PENSION SEP 2019 COL  *
D081777997014  00178143604       2017/78239997  ARANDA PUCHURI  ALEJ00000000560000000000000000000000000000000000000000000003022019103120191206120100500700004PENSION OCT 2019 COL  *
D081777997014  00160976204       2017/78241084  TREJO SERRANO  ROBER00000000640000000000000000000000000000000000000000000000582019113020191206120100500700252PENSION NOV 2019 COL  *
D081777997014  00174667650       2017/80014695  MENDIETA MONRROY  VA00000000550000000000000000000000000000000000000000000000502019113020191206120140500700075PENSION NOV 2019 CAR  *
D081777997014  00178026912       2017/78242878  PAJILLA FIGUEROA  RO00000000560000000000000000000000000000000000000000000000002019122120191206120140500700103PENSION DIC 2019 COL  *
D081777997014  00163792374       2017/158746    PAUCAR OYOLA  GABRIE00000000550000000000000000000000000000000000000000000000502019113020191206120230500700081PENSION NOV 2019 SJL  *
D081777997014  00179088636       2017/158867    OSORIO OSORIO  VICTO00000000560000000000000000000000000000000000000000000000502019113020191206120360500700122PENSION NOV 2019 SJL  *
D081777997014  00160892799       2017/152124    PORTUGAL DE LA  CRUZ00000000540000000000000000000000000000000000000000000017822019043020191206120520500700017PENSION ABR 2019 SJL  *
D081777997014  00177931666       2017/78242859  AVALOS APARCANA  JUA00000000560000000000000000000000000000000000000000000000002019122120191206120630500700060PENSION DIC 2019 COL  *
D081777997014  00171352295       2017/78241197  SANDOVAL SANDOVAL  L00000000640000000000000000000000000000000000000000000000582019113020191206120690500700030PENSION NOV 2019 COL  *
D081777997014  00171257747       2017/80014448  PAJUELO HUASHUAYO  C00000000540000000000000000000000000000000000000000000000492019113020191206121000500700154PENSION NOV 2019 CAR  *
D081777997014  00171257747       2017/80014989  PAJUELO HUASHUAYO  C00000000540000000000000000000000000000000000000000000000002019122120191206121000500700154PENSION DIC 2019 CAR  *
D081777997014  00161362553       2017/78241268  CHUPAN YANCE  MARIAN00000000640000000000000000000000000000000000000000000000582019113020191206121770500700087PENSION NOV 2019 COL  *
D081777997014  00171737362       2017/78240910  CHAVEZ DEZA  NICOLE 00000000640000000000000000000000000000000000000000000000582019113020191206122160500700159PENSION NOV 2019 COL  *
D081777997014  00177882445       2017/78241668  ALVARADO GAMARRA  NI00000000560000000000000000000000000000000000000000000000502019113020191206122160500700280PENSION NOV 2019 COL  *
D081777997014  00172336383       2017/78239617  QUISIYUPANQUI SANCHE00000000640000000000000000000000000000000000000000000003462019103120191206122240500700095PENSION OCT 2019 COL  *
D081777997014  00172336383       2017/78241412  QUISIYUPANQUI SANCHE00000000640000000000000000000000000000000000000000000000582019113020191206122240500700095PENSION NOV 2019 COL  *
D081777997014  00170578902       2017/78240729  HUARACA LAPA  FRANCO00000000640000000000000000000000000000000000000000000000582019113020191206122290500700148PENSION NOV 2019 COL  *
D081777997014  00161483732       2017/159655    ACUNA ARTEAGA  VALER00000000550000000000000000000000000000000000000000000000002019122120191206122390500700061PENSION DIC 2019 SJL  *
D081777997014  00177882747       2017/159204    PONCE PARIONA  STEFA00000000550000000000000000000000000000000000000000000000502019113020191206122390500700167PENSION NOV 2019 SJL  *
D081777997014  00173840351       2017/78241568  CHINCHAY AGUIRRE  AR00000000448000000000000000000000000000000000000000000000402019113020191206122480500700129PENSION NOV 2019 COL  *
D081777997014  00173404481       2017/78241594  LERTORA BENAVIDES  W00000000640000000000000000000000000000000000000000000000582019113020191206122540500700090PENSION NOV 2019 COL  *
D081777997014  00175297614       2017/78239533  MONTES VASQUEZ  LUCA00000000640000000000000000000000000000000000000000000003462019103120191206122540500700100PENSION OCT 2019 COL  *
D081777997014  00173154704       2017/78238962  BEDRINANA TORRES  RO00000000640000000000000000000000000000000000000000000006432019093020191206122540500700112PENSION SEP 2019 COL  *
D081777997014  00170597584       2017/78238349  SUNCION PRADO  EMILY00000000576000000000000000000000000000000000000000000005792019093020191206122540500700144PENSION SEP 2019 COL  *
D081777997014  00173409198       2017/78239144  SUNCION PRADO  MATHI00000000640000000000000000000000000000000000000000000006432019093020191206122540500700146PENSION SEP 2019 COL  *
D081777997014  00178966436       2017/78239707  VIGNOLO MUNOZ  CLAUD00000000560000000000000000000000000000000000000000000003022019103120191206122540500700158PENSION OCT 2019 COL  *
D081777997014  00171996355       2017/78243414  FLORES FLORES  KATEL00000000640000000000000000000000000000000000000000000000582019113020191206222540500700194PENSION NOV 2019 COL  *
D081777997014  00172869314       2017/78238700  VALLE CAMPOS  ANDRE 00000000640000000000000000000000000000000000000000000006432019093020191206122540500700222PENSION SEP 2019 COL  *
D081777997014  00173073543       2017/78242134  CASTILLO VICENTE  PE00000000640000000000000000000000000000000000000000000000002019122120191206122660500700092PENSION DIC 2019 COL  *
D081777997014  00171143575       2017/78241246  ZAGACETA POQUIOMA  M00000000640000000000000000000000000000000000000000000000582019113020191206124450500700003PENSION NOV 2019 COL  *
D081777997014  00171192479       2017/78241218  ISIDRO OLAECHEA  ALE00000000640000000000000000000000000000000000000000000000582019113020191206225350500700001PENSION NOV 2019 COL  *
D081777997014  00171192479       2017/78242433  ISIDRO OLAECHEA  ALE00000000640000000000000000000000000000000000000000000000002019122120191206225350500700001PENSION DIC 2019 COL  *
D081777997014  00178721702       2017/78240525  CUTIPA MIRANDA  RICA00000000560000000000000000000000000000000000000000000000502019113020191206126610500700027PENSION NOV 2019 COL  *
D081777997014  00162025300       2017/157899    QUEZADA PAREDES  CLA00000000385000000000000000000000000000000000000000000002082019103120191206126720500700062PENSION OCT 2019 SJL  *
D081777997014  00162025300       2017/159081    QUEZADA PAREDES  CLA00000000385000000000000000000000000000000000000000000000352019113020191206126720500700062PENSION NOV 2019 SJL  *
D081777997014  00177994120       2017/159239    ESPINOZA PINEDO  JOR00000000495000000000000000000000000000000000000000000000452019113020191206126910500700019PENSION NOV 2019 SJL  *
D081777997014  00178731801       2017/158770    ESPINOZA PINEDO  MIA00000000560000000000000000000000000000000000000000000000502019113020191206126910500700020PENSION NOV 2019 SJL  *
D081777997014  00177887841       2017/157874    BRAVO COTERA  RODRIG00000000385000000000000000000000000000000000000000000002082019103120191206126910500700029PENSION OCT 2019 SJL  *
D081777997014  00161932673       2017/157962    BRAVO COTERA  TONY G00000000385000000000000000000000000000000000000000000002082019103120191206126910500700030PENSION OCT 2019 SJL  *
D081777997014  00160957908       2017/160578    RAMOS SANCHEZ  MARIA00000000486000000000000000000000000000000000000000000000442019113020191206126910500700081PENSION NOV 2019 SJL  *
D081777997014  00160957908       2017/160648    RAMOS SANCHEZ  MARIA00000000486000000000000000000000000000000000000000000000002019122120191206126910500700082PENSION DIC 2019 SJL  *
D081777997014  00177483423       2017/159295    DAVILA VALVERDE  SEB00000000486000000000000000000000000000000000000000000000442019113020191206126910500700094PENSION NOV 2019 SJL  *
D081777997014  00173967045       2017/158606    GOVEA MACAVILCA  HEC00000000378000000000000000000000000000000000000000000000342019113020191206227420500700016PENSION NOV 2019 SJL  *
D081777997014  00162798299       2017/78241306  HUERTA LEON  ALVARO 00000000576000000000000000000000000000000000000000000000522019113020191206227844651000303PENSION NOV 2019 COL  *
D081777997014  00179570712       2017/78240520  HUERTA LEON  ARIANNA00000000560000000000000000000000000000000000000000000000502019113020191206227844651000306PENSION NOV 2019 COL  *
D081777997014  00173684564       2017/78240699  VARILLAS MARRUJO  LU00000000640000000000000000000000000000000000000000000000582019113020191206227844651002735PENSION NOV 2019 COL  *
D081777997014  00177875388       2017/157671    VELIZ GUERRA  MATIAS00000000550000000000000000000000000000000000000000000002972019103120191206227844651003036PENSION OCT 2019 SJL  *
D081777997014  00175640894       2017/159930    MEDINA MALDONADO  MI00000000550000000000000000000000000000000000000000000000002019122120191206227844651004800PENSION DIC 2019 SJL  *
D081777997014  00175984698       2017/160396    MEDINA MALDONADO  CA00000000486000000000000000000000000000000000000000000000002019122120191206227844651004801PENSION DIC 2019 SJL  *
D081777997014  00172529036       2017/80012852  PURIZACA HUARACA  MI00000000540000000000000000000000000000000000000000000007862019083120191206227844651007305PENSION AGO 2019 CAR  *
D081777997014  00177748316       2017/78241678  MARCHENA QUIN  ANGEL00000000504000000000000000000000000000000000000000000000452019113020191206227844651009072PENSION NOV 2019 COL  *
D081777997014  00177748316       2017/78242893  MARCHENA QUIN  ANGEL00000000504000000000000000000000000000000000000000000000002019122120191206227844651009073PENSION DIC 2019 COL  *
D081777997014  00178156756       2017/78240549  MARCHENA QUIN  PABLO00000000560000000000000000000000000000000000000000000000502019113020191206227844651009094PENSION NOV 2019 COL  *
D081777997014  00177409988       2017/78237937  SILVA JULCA  VALENTI00000000560000000000000000000000000000000000000000000008152019083120191206227844651011343PENSION AGO 2019 COL  *
D081777997014  00177409988       2017/78239079  SILVA JULCA  VALENTI00000000560000000000000000000000000000000000000000000005632019093020191206227844651011548PENSION SEP 2019 COL  *
D081777997014  00171731824       2017/78240757  DEL PINO MIRANDA  LE00000000640000000000000000000000000000000000000000000000582019113020191206227844651011720PENSION NOV 2019 COL  *
D081777997014  00171731823       2017/78240749  DEL PINO MIRANDA  DA00000000576000000000000000000000000000000000000000000000522019113020191206227844651011744PENSION NOV 2019 COL  *
D081777997014  00175301231       2017/78239520  PUICON VILLALOBOS  M00000000576000000000000000000000000000000000000000000003112019103120191206227844651012492PENSION OCT 2019 COL  *
D081777997014  00177739998       2017/78239877  PUICON VILLALOBOS  D00000000560000000000000000000000000000000000000000000003022019103120191206227844651012493PENSION OCT 2019 COL  *
D081777997014  00177260129       2017/156908    MONTEAGUDO GRAUS  BI00000000550000000000000000000000000000000000000000000005532019093020191206227844651012843PENSION SEP 2019 SJL  *
D081777997014  00177260129       2017/157913    MONTEAGUDO GRAUS  BI00000000550000000000000000000000000000000000000000000002972019103120191206227844651015424PENSION OCT 2019 SJL  *
D081777997014  00177260129       2017/159095    MONTEAGUDO GRAUS  BI00000000550000000000000000000000000000000000000000000000502019113020191206227844651015425PENSION NOV 2019 SJL  *
D081777997014  00179620551       2017/78241938  CHAVEZ APOLO  ASHLEY00000000560000000000000000000000000000000000000000000000002019122120191206227844651015968PENSION DIC 2019 COL  *
D081777997014  00173222200       2017/78240837  JOHNSON AVALOS  LILI00000000640000000000000000000000000000000000000000000000582019113020191206128600500700114PENSION NOV 2019 COL  *
T081777997014  00101PENSION                       081777997014  000000002391501                                                                                                    *
T081777997014  00102PENSION SAN JUAN              081777997014  000000001045705                                                                                                    *
T081777997014  00103PENSION                       081777997014  000000000217885                                                                                                    *
H081777997014  003000000800000000041670000000000000020191206                                                                                                                       *
D081777997014  00373152866       2017/78243695  CASTILLEJOS RODRIGUE00000000569500000000000000000000000000000000000000000000002019122120191206120400500700002MATRICULA COL         *
D081777997014  00373117147       2017/161050    BENAVIDES DE LA CRUZ00000000484500000000000000000000000000000000000000000000002019122120191206220430500700023MATRICULA SJL         *
D081777997014  00375204051       2017/78243690  CORDOVA RUBIANES  LO00000000569500000000000000000000000000000000000000000000002019122120191206220600500700062MATRICULA COL         *
D081777997014  00376353869       2017/78243694  ALVARADO HUAYAQUISPE00000000569500000000000000000000000000000000000000000000002019122120191206122540500700220MATRICULA COL         *
D081777997014  00378246339       2017/161038    DE LA CRUZ QUIJANO  00000000570000000000000000000000000000000000000000000000002019122120191206126910500700012MATRICULA SJL         *
D081777997014  00378246339       2017/161039    DE LA CRUZ QUIJANO  00000000350000000000000000000000000000000000000000000000002019122120191206126910500700012INSCRIPCION SJL       *
D081777997014  00375166625       2017/161049    ARANIBAR GAMARRA  LU00000000484500000000000000000000000000000000000000000000002019122120191206126910500700079MATRICULA SJL         *
D081777997014  00363083705       2017/78243701  RUEDA HUANCA  ADRIAN00000000569500000000000000000000000000000000000000000000002019122120191206227844651002282MATRICULA COL         *
T081777997014  00304MATRICULA                     081777997014  000000000227800                                                                                                    *
T081777997014  00306MATRICULA SJL - PREMATRICULA  081777997014  000000000153900                                                                                                    *
T081777997014  00307DERECHO DE INGRESO SJL 2019   081777997014  000000000035000                                                                                                    *
H081777997014  009000000100000000000600000000000000020191206                                                                                                                       *
D081777997014  00945231189       FF19/2293      COLLAZOS ECHEGARAY  00000000060000000000000000000000000000000000000000000000002019122120191206129470500700227CERT ESTUDIOS SJL DI  *
T081777997014  00954CERT ESTUDIOS SJL             081777997014  000000000006000                                                                                                    *
