CC19107865515C202009200000000140000000004795006787T36M02                                                                                                                                                        
DD1910786551500000078496455PENSIONOCTUBRE2020COL         2020092020201031000000000035143000000000000000000000000035522111023599318EFECTIVO00000078496455BMSY  0009599318180727            0000000000    97300251
DD1910786551500000071681428PENSIONAGOSTO2020CAR          2020092020200831000000000035000000000000000000000000000035000111023710471EFECTIVO00000071681428BMXR  0002710471194158            0000000000    98475482
DD1910786551500000071335916PENSIONABRIL2020COL           2020091920200720000000000035000000000000000000000000000035000111023539038EFECTIVO00000071335916BMKJ  0006539038100428            0000000000    73568636
DD1910786551500000075534391PENSIONMAYO2020SJL            2020091920200531000000000031500000000000000000000000000031500111023646721EFECTIVO00000075534391BMSS  0006646721103345            0000000000    74265768
DD1910786551500000075534391PENSIONJUNIO2020SJL           2020091920200630000000000031500000000000000000000000000031500111023646721EFECTIVO00000075534391BMSS  0006646721103345            0000000000    74265768
DD1910786551500000075534391PENSIONABRIL2020SJL           2020091920200720000000000031500000000000000000000000000031500111023646721EFECTIVO00000075534391BMSS  0006646721103345            0000000000    74265768
DD1910786551500000073555155PENSIONMAYO2020SJL            2020091920200531000000000035000000000000000000000000000035000111023651764EFECTIVO00000073555155BME3  0006651764103502            0000000000    74298205
DD1910786551500000073555155PENSIONJUNIO2020SJL           2020091920200630000000000035000000000000000000000000000035000111023651764EFECTIVO00000073555155BME3  0006651764103502            0000000000    74298205
DD1910786551500000073555155PENSIONABRIL2020SJL           2020091920200720000000000035000000000000000000000000000035000111023651764EFECTIVO00000073555155BME3  0006651764103502            0000000000    74298205
DD1910786551500000061454243PENSIONJUNIO2020SJL           2020091920200630000000000035000000000000000000000000000035000111023755441EFECTIVO00000061454243TB77  0006755441110112            0000000000    00051364
DD1910786551500000077965898PENSIONMAYO2020SJL            2020091920200531000000000035000000000000000000000000000035000111017010009EFECTIVO00000077965898PZBC  0007010009120325            0000000000    00747013
DD1910786551500000077965898PENSIONJUNIO2020SJL           2020091920200630000000000035000000000000000000000000000035000111017013742EFECTIVO00000077965898PZBD  0007013742120419            0000000000    00748736
DD1910786551500000077965898PENSIONABRIL2020SJL           2020091920200720000000000035000000000000000000000000000035000111017055734EFECTIVO00000077965898PZBA  0007055734121435            0000000000    00767935
DD1910786551500000077965898PENSIONJULIO2020SJL           2020091920200731000000000035000000000000000000000000000035000111017064167EFECTIVO00000077965898PZBA  0007064167121638            0000000000    00771749
