0100025539940100PEN20190707001103620200004301                                                                                                           
02MORANTE SAYAS ALEXIA DAYHANA  70627136  PENSION JUN 2019 CAR     2017-8001203400000000004860000000000004865100000000000005104379682882019070702046950 
02MORANTE SAYAS THIAGO DANIEL   79285581  PENSION JUN 2019 CAR     2017-8001211300000000005600000000000005605900000000000005904379683822019070702047087 
02NEYRA CARBONELL DANNA TATIANA 77733013  PENSION JUN 2019 COL     2017-7823531900000000005600000000000005605900000000000005904379759602019070702044517 
02FLORES LUNA FIORELLA BLANCA L 77110846  PENSION JUN 2019 COL     2017-7823512100000000005600000000000005605900000000000005904379953042019070702047055 
03000000004000000000216600000000000216828000000000000228                                                                                                
