0100025539940100PEN20200924001103620200004301                                                                                                           
02SANTA CRUZ CRUZ OLIVER        71058170  PENSION OCTUBRE 2020 SJL 2017-180304  0000000000175000000000000175000000000000000000437877967202009230204WNET 
02SANTA CRUZ CRUZ SAM           78196138  PENSION SEPTIEMBRE 2020 S2017-178635  0000000000315000000000000315000000000000000000437877968202009230204WNET 
02SANTA CRUZ CRUZ VALESKA       78992553  PENSION SEPTIEMBRE 2020 S2017-179049  0000000000315000000000000315000000000000000000437877970202009230204WNET 
02HUARCAYA VEAIZAN SANTIAGO JES 77254892  PENSION AGOSTO 2020 CAR  2017-8002721000000000003500000000000003500000000000000000008174110782020092401068J%K 
02SANCHEZ GARCIA DIEGO ORLANDO  61140124  PENSION SEPTIEMBRE 2020 C2017-782703470000000000350000000000000350000000000000000007799415701202009240204WNET 
02MERMA BUSTAMANTE FERNANDO STE 78083979  PENSION JULIO 2020 CAR   2017-8002680600000000003500000000000003500000000000000000004372094382020092402040121 
02TOMASTO CRESPO MARIA DE LOS A 72840952  PENSION AGOSTO 2020 COL  2017-7826919500000000003500000000000003500000000000000000001272264672020092401013J34 
02TOMASTO CRESPO MARIA DE LOS A 72840952  PENSION JULIO 2020 COL   2017-7826996200000000002100000000000002100000000000000000001272262762020092401013J34 
02OKUMURA CHICLAYO MAYUMI NAOMI 71012867  PENSION SEPTIEMBRE 2020 S2017-179193  0000000000315000000000000315000000000000000007799929746202009240204WNET 
02OKUMURA CHICLAYO SATORU SEIYA 61345091  PENSION SEPTIEMBRE 2020 S2017-178677  0000000000350000000000000350000000000000000007799930345202009240204WNET 
02MEZA CUITO JUAN FRANCISCO     78434901  PENSION SEPTIEMBRE 2020 S2017-178975  00000000003150000000000003150000000000000000008179426262020092401069O%W 
02MEZA CUITO DAVID SALOMON      74809808  PENSION SEPTIEMBRE 2020 S2017-179411  00000000003150000000000003150000000000000000008179430342020092401068Z%A 
02MEZA CUITO MIRIAM SUSANA      70634745  PENSION SEPTIEMBRE 2020 S2017-179399  00000000003150000000000003150000000000000000008179437192020092401068V%D 
02CURAY VASCONES MAEDY SAMIRA   77974124  PENSION SEPTIEMBRE 2020 S2017-178991  00000000003500000000000003500000000000000000004379618852020092407041776 
02PINEDA SAMPEN LUCIA ALEJANDR  71148398  PENSION SEPTIEMBRE 2020 S2017-178901  00000000003500000000000003500000000000000000004372353042020092402045159 
02MAMANI AUQUES LEANDRO MANUEL  73000443  PENSION SEPTIEMBRE 2020 S2017-178958  0000000000350000000000000350000000000000000000564058941202009240101FO11 
02CHAVEZ CANO ROMINA FRANCESCA  74007221  PENSION ABRIL 2020 COL   2017-782651350000000000350000000000000350000000000000000007799056229202009240204WNET 
02MAMANI AUQUES LEANDRO MANUEL  73000443  PENSION AGOSTO 2020 SJL  2017-178034  0000000000350000000000000350000000000000000000564058940202009240101FO11 
02VILCAPOMA RUIZ PIERO ANDRE    77304369  PENSION SEPTIEMBRE 2020 C2017-782709510000000000350000000000000350000000000000000007799188259202009240204WNET 
02ASMAT WONG FABIANA ANGELICA   71342893  PENSION OCTUBRE 2020 COL 2017-7827198600000000003500000000000003500000000000000000001271859512020092401013J35 
02ASMAT WONG FABIANA ANGELICA   71342893  PENSION NOVIEMBRE 2020 CO2017-7827243700000000003500000000000003500000000000000000001271859522020092401013J35 
02CHURA DOCUMET LOGAN ABEL      78156990  PENSION SEPTIEMBRE 2020 S2017-178704  00000000003500000000000003500000000000000000004371693582020092407044725 
02PANTOJA SORIA VALENTIN MATIAS 79964599  PENSION SEPTIEMBRE 2020 C2017-8002722900000000003500000000000003500000000000000000008171776252020092401068T%A 
02SOTO ESTRADA ANYELI NATIVIDAD 74799902  PENSION JULIO 2020 CAR   2017-8002650000000000003500000000000003500000000000000000002533108602020092401017113 
02SOTO ESTRADA ANYELI NATIVIDAD 74799902  PENSION AGOSTO 2020 CAR  2017-8002720900000000003500000000000003500000000000000000002533108612020092401017113 
02FIGUEROA SOTELO SOFIA         74514568  PENSION AGOSTO 2020 COL  2017-7826958000000000003500000000000003500000000000000000004373109662020092402046516 
02FIGUEROA SOTELO MATHIAS HENRY 72597286  PENSION AGOSTO 2020 COL  2017-7826992600000000003150000000000003150000000000000000004373119532020092402046086 
02LEON GARCES CINTHYA CAMILA    73246625  PENSION SEPTIEMBRE 2020 C2017-782703320000000000315000000000000315000000000000000007799890361202009240704WNET 
02LEON GARCES DANA SHARICK      60854017  PENSION SEPTIEMBRE 2020 C2017-782701280000000000350000000000000350000000000000000007799890385202009240704WNET 
02CAMARGO MANRIQUE LETICIA NOEM 70695818  PENSION SEPTIEMBRE 2020 S2017-179215  00000000003500000000000003500000000000000000004379208002020092402047063 
02CHAVEZ CARRASCO CHRISTIAN EDD 70588388  PENSION SEPTIEMBRE 2020 C2017-7827044000000000003500000000000003500000000000000000008179214642020092401068R%V 
02CAMARGO MANRIQUE NELLY NATALI 71598800  PENSION SEPTIEMBRE 2020 S2017-179276  00000000003150000000000003150000000000000000004379215262020092402047936 
02CHAVEZ CARRASCO ROMINA NICOLE 76476778  PENSION SEPTIEMBRE 2020 C2017-7827046600000000003150000000000003150000000000000000008179219672020092401069I%T 
02VEGA CLAROS LUCIANA STEPHANIA 72868871  PENSION SEPTIEMBRE 2020 C2017-782700620000000000350000000000000350000000000000000007799121780202009240204WNET 
02VEGA CLAROS LUCIANA STEPHANIA 72868871  PENSION AGOSTO 2020 COL  2017-782691370000000000350000000000000350000000000000000007799121779202009240204WNET 
03000000035000000001158500000000001158500000000000000000                                                                                                
