0100025539940100PEN20190715001103620200004301                                                                                                           
02HUAPAYA ARRAMBIDE GIANFRANCO  77718049  PENSION JUL 2019 CAR     2017-8001266900000000005500000000000005500000000000000000004370244032019071307040412 
02LOAYZA LLOCCLLA NICOLLE MILAG 76718761  PENSION JUN 2019 COL     2017-782350720000000000560000000000000561180000000000001180437031601201907140204WNET 
02ALANIA GOMEZ MARIA FERNANDA   77595720  PENSION JUN 2019 SJL     2017-153748  00000000005500000000000005512400000000000012401821797952019071501015223 
02CAMARENA BUENDIA AARON ALEXAN 73917582  PENSION ABR 2019 COL     2017-7823304700000000006400000000000006472000000000000072004370363822019071407044381 
02CAMARENA BUENDIA AARON ALEXAN 73917582  PENSION MAY 2019 COL     2017-7823440000000000006400000000000006442200000000000042204370363832019071407044381 
02ALIAGA EGUSQUIZA LORENA FABIA 74275460  PENSION JUN 2019 SJL     2017-153831  00000000005500000000000005511600000000000011604370625462019071402041548 
02SUSANIBAR FLOR ARIANNA XIOMAR 70596810  PENSION JUN 2019 CAR     2017-800120220000000000540000000000000541130000000000001130437122277201907140204WNET 
02LOAYZA LLOCCLLA NICOLLE MILAG 76718761  PENSION JUL 2019 COL     2017-782366150000000000560000000000000560000000000000000000437032014201907140204WNET 
02LOAYZA LLOCCLLA NICOLLE MILAG 76718761  PENSION AGO 2019 COL     2017-782379020000000000560000000000000560000000000000000000437032585201907140204WNET 
02COLLAO GALLARDO MIGUEL ALONS  76109913  PENSION ABR 2019 COL     2017-782328080000000000640000000000000647300000000000007300437275876201907150204WNET 
02ARANGO MELENDEZ MARCELA REGIN 74063290  PENSION JUN 2019 SJL     2017-153981  00000000005500000000000005512400000000000012408172718072019071501069O%B 
02ARANGO MELENDEZ MARCELA REGIN 74063290  PENSION JUL 2019 SJL     2017-154646  00000000005500000000000005500000000000000000008172723132019071501069G%I 
02COLLAO GALLARDO MIGUEL ALONS  76109913  PENSION MAR 2019 COL     2017-782315930000000000640000000000000650180000000000010180437274537201907150204WNET 
02CRUZATE PAUCAR EVANNIE CLAUDE 61064200  PENSION JUL 2019 CAR     2017-800125680000000000540000000000000540000000000000000000437290092201907150204WNET 
02CHILET GUIZADO SOPHIA FERNAND 78189492  PENSION JUL 2019 SJL     2017-155145  00000000005600000000000005600000000000000000004373028332019071502041388 
02CHAVEZ CANO RONY              72246534  PENSION ABR 2019 COL     2017-7823234700000000005760000000000005823900000000000063904378037112019071302045671 
02CHAVEZ CANO ROMINA FRANCESCA  74007221  PENSION ABR 2019 COL     2017-7823304500000000006400000000000006471000000000000071004378012302019071302040363 
02CHAVEZ CANO ROMINA FRANCESCA  74007221  PENSION MAY 2019 COL     2017-7823439800000000006400000000000006441300000000000041304378012312019071302040363 
02CHAVEZ CANO RONY              72246534  PENSION MAY 2019 COL     2017-7823366700000000005760000000000005797200000000000037204378037122019071302045671 
02VELAZCO JAVIER FIORELLA ALEXA 71769647  PENSION JUN 2019 SJL     2017-154074  00000000005400000000000005412200000000000012208173260882019071501069S%H 
02BERMUDEZ ROSALES YSABEL SAYAN 60871643  PENSION JUN 2019 SJL     2017-154334  00000000005400000000000005412200000000000012208173288892019071501069S%T 
02BRAVO TERRONES SAMI CELINE    73835572  PENSION ABR 2019 CAR     2017-800113640000000000550000000000000556270000000000006270437363479201907150204WNET 
02VALDIVIA LUNA DARIO DAVID     71370494  PENSION MAY 2019 COL     2017-7823402000000000005760000000000005798900000000000038902523297922019071501017019 
02VALDIVIA LUNA IVANNA DEL MILA 76483270  PENSION MAY 2019 COL     2017-7823417400000000006400000000000006443200000000000043202523300992019071501017019 
02BRAVO TERRONES SAMI CELINE    73835572  PENSION MAY 2019 CAR     2017-800118410000000000550000000000000553710000000000003710437368994201907150204WNET 
02SALAZAR ARANIBAR DARIANA ITZE 72223388  PENSION JUN 2019 COL     2017-7823555100000000006400000000000006414400000000000014401193396382019071501013B13 
02SALAZAR ARANIBAR DARIANA ITZE 72223388  PENSION JUL 2019 COL     2017-7823587600000000006400000000000006400000000000000000001193396392019071501013B13 
02MOTTA AGUILAR THIAGO LUCAS    77360323  PENSION MAR 2019 COL     2017-7823174700000000005600000000000005689000000000000089001513613792019071502014722 
02DIAZ ACCO BEATRIZ FIORELA     78793729  PENSION JUL 2019 CAR     2017-8001240500000000005600000000000005600000000000000000008173677452019071501069U%E 
02DIAZ ACCO SEBASTIAN MATHIAS   77608452  PENSION JUL 2019 CAR     2017-8001252400000000004950000000000004950000000000000000008173683092019071501069Q%L 
02DIAZ QUIROZ LUANA FERNANDA    72826278  PENSION JUN 2019 CAR     2017-8001231700000000005500000000000005512400000000000012408174382272019071501069R%B 
02RAMIREZ GARAY MATEO JESUS     62712752  PENSION JUL 2019 CAR     2017-8001251200000000005500000000000005500000000000000000003284385932019071507019413 
02ESPINOZA RAMOS DANA ELOISA    72208718  PENSION MAY 2019 COL     2017-7823366000000000006400000000000006443200000000000043201664510892019071507014M21 
02PALMA HUARCAYA SANTIAGO ALONS 71356930  PENSION ABR 2019 COL     2017-782328530000000000640000000000000647300000000000007300437472488201907150204WNET 
02PALMA HUARCAYA SANTIAGO ALONS 71356930  PENSION MAY 2019 COL     2017-782341880000000000640000000000000644320000000000004320437472495201907150204WNET 
02GARCIA GARAY MARIA PIA        72983551  PENSION JUN 2019 CAR     2017-8001221200000000005500000000000005509900000000000009904377714432019071202045821 
02BENITES YANAGUI GINA KODASHI  76836570  PENSION MAY 2019 COL     2017-782337890000000000640000000000000644130000000000004130437873450201907130204WNET 
02AGUIRRE FERNANDEZ GENESIS TAM 71681428  PENSION JUN 2019 CAR     2017-8001235200000000004950000000000004959600000000000009608178643482019071301069U%V 
02AGUIRRE FERNANDEZ GAELA SAYUM 79554343  PENSION JUN 2019 CAR     2017-8001191400000000005040000000000005049800000000000009808178654072019071301069M%T 
02SANCHEZ SANTIANI JOSUE BENJAM 73640160  PENSION JUN 2019 COL     2017-7823450900000000004800000000000004810800000000000010801272433002019071502013J33 
02ORTIZ ROJAS CAMILA FERNY      62601468  PENSION JUN 2019 SJL     2017-153722  0000000000550000000000000551240000000000001240437219910201907150704WNET 
02BENITES PACAYA CAMILA FERNAND 71104507  PENSION JUN 2019 COL     2017-7823460800000000006400000000000006412500000000000012501928746282019071301015C23 
02MENDOZA LLUNCOR NICOLE BRIGIT 73270416  PENSION JUN 2019 SJL     2017-154262  00000000005400000000000005410500000000000010504379264082019071307045946 
03000000043000000002477200000000002488802000000000011602                                                                                                
