0100025539940100PEN20190702001103620200004301                                                                                                           
02RODRIGUEZ ROMERO BRISSA YIDDA 73840192  PENSION JUN 2019 COL     2017-7823513700000000006400000000000006401900000000000001904371093912019070202044781 
02MANRIQUE GARCIA ADRIANA MICAE 75632758  PENSION JUN 2019 CAR     2017-8001225500000000005500000000000005501700000000000001708171103752019070201069T%S 
02RODRIGUEZ ROMERO CCIELO YIDDA 77569293  PENSION JUN 2019 COL     2017-7823471900000000005760000000000005761700000000000001704371106772019070202041107 
02DIAZ BENITES KIARA ABIGAIL    63574294  PENSION JUN 2019 CAR     2017-8001221100000000005500000000000005501700000000000001708171120122019070201068Q%A 
02DIAZ BENITES GIANELLA SAORI   62488547  PENSION JUN 2019 CAR     2017-8001208800000000004950000000000004951500000000000001508171127982019070201068V%W 
02PAREDES AGUILAR ADRIAN OLIVER 74032888  PENSION JUN 2019 COL     2017-7823463600000000006400000000000006401900000000000001908171169962019070201068L%L 
02BLAS VARGAS ANDRE ALESSANDRO  61876753  PENSION JUN 2019 CAR     2017-8001227500000000005500000000000005501700000000000001708171455542019070201069F%G 
02DIAZ SANCHEZ ADRIAN JOSE      0336636000PENSION JUN 2019 COL     2017-7823477500000000006400000000000006401900000000000001901071477002019070201012Z21 
02CELIS TITO DANNA ANGELINA     79179978  PENSION JUN 2019 SJL     2017-153563  00000000005600000000000005601700000000000001704371508482019070202042939 
02CARRERA TORRES DENIS JORGE LU 78520142  PENSION JUN 2019 SJL     2017-153489  00000000005600000000000005601700000000000001701972690822019070201015H21 
02MEZA PACHECO JOHANA FABIANA   77601693  PENSION JUN 2019 COL     2017-7823508100000000005600000000000005601700000000000001708172704272019070201069Q%G 
02CORTEZ PINEDA GONZALO EMIR    70729092  PENSION JUN 2019 SJL     2017-153834  0000000000385000000000000385120000000000000120418271122201907020101BM11 
02HUAPAYA LIMAS VALENTINA LUANA 75636222  PENSION ABR 2019 COL     2017-7823283000000000006400000000000006460500000000000060504372848562019070202044154 
02MELENDEZ PEDRAZA CAMILA YARET 77859930  PENSION JUN 2019 COL     2017-7823530700000000005600000000000005601700000000000001701273300192019070201013J34 
02RUJEL ARROYO JOAQUIN ALONSO   77624016  PENSION JUN 2019 COL     2017-7823525000000000005600000000000005601700000000000001704370095202019070202042028 
02RUJEL ARROYO DENNIS LILIANA   75456553  PENSION JUN 2019 COL     2017-7823547700000000005760000000000005761700000000000001704370096392019070202040986 
02ALEJANDRO MANAY KAYLA SABRINA 79196108  PENSION MAY 2019 SJL     2017-152422  00000000005600000000000005626900000000000026904370180632019070207045734 
02ORE VASQUEZ DHAYANNA GERALDIN 60772445  PENSION JUN 2019 COL     2017-7823549700000000006400000000000006401900000000000001901670325582019070201014N23 
02CASTANEDA POMA CARLOS FABRICI 74523333  PENSION MAY 2019 SJL     2017-152380  00000000005500000000000005526400000000000026408170540782019070201069O%S 
02VILLACORTA LOZADA CESAR HADRI 78065908  PENSION JUN 2019 CAR     2017-8001191600000000005600000000000005601700000000000001708170552542019070201068R%P 
02GONZALES VALVERDE CARLOS MATT 76088355  PENSION MAY 2019 SJL     2017-153079  00000000004860000000000004883300000000000023308170741372019070201069M%D 
02GONZALES VALVERDE ETHAN ALONS 78096935  PENSION MAY 2019 SJL     2017-152332  00000000005600000000000005626900000000000026908170750332019070201068K%I 
02GRANDEZ VILLALTA MARCO ALEJAN 72447862  PENSION JUN 2019 SJL     2017-154116  00000000005400000000000005401600000000000001608170832002019070201068K%M 
02PADILLA CRUZ FABRIZIO ALESSAN 76102222  PENSION JUN 2019 COL     2017-7823490400000000006400000000000006401900000000000001908170935372019070201069E%J 
02CANALES MAZA FABIANA GABRIELA 76883165  PENSION JUN 2019 SJL     2017-153741  00000000005500000000000005501700000000000001708171007802019070201068K%Z 
02SEA MELGAREJO DYLAN EMIR EDGA 79481096  PENSION JUN 2019 CAR     2017-8001209700000000005600000000000005601700000000000001708171022922019070201068N%W 
02GAMARRA ESCRIBA LUANA IARA    60188980  PENSION JUN 2019 SJL     2017-154216  00000000005400000000000005401600000000000001603401249472019070201019G22 
02SALDIVAR LOPEZ YAMILA ISABEL  74110528  PENSION JUN 2019 COL     2017-782351850000000000640000000000000640190000000000000190437126557201907020204WNET 
02MACHUCA SALGADO LUANA KRISTHE 73548595  PENSION MAY 2019 CAR     2017-8001184900000000005500000000000005526400000000000026408171315902019070201069J%M 
02MASSEY FERNANDEZ DENISSE RIGE 80900890  PENSION JUN 2019 CAR     2017-8001234900000000004950000000000004951500000000000001508171372632019070201069M%O 
02MASSEY FERNANDEZ MITCHELL LEO 78213580  PENSION JUN 2019 CAR     2017-8001213700000000005600000000000005601700000000000001708171385092019070201069H%N 
02DELGADO VILLEGAS SEBASTIAN AL 72998712  PENSION JUN 2019 SJL     2017-153456  00000000005500000000000005501700000000000001701281399212019070201013K22 
02CORNELIO CASTRO LIAM SALVADOR 78985993  PENSION JUN 2019 CAR     2017-8001190000000000005600000000000005601700000000000001708171596952019070201069S%G 
02VILLAVICENCIO AGUEDO DIEGO SE 72802463  PENSION MAY 2019 COL     2017-7823373000000000006400000000000006430700000000000030708171933992019070201069C%G 
02CABEZAS MEDINA IVAN JESUS     70367581  PENSION MAY 2019 COL     2017-7823366800000000006400000000000006430700000000000030708172128212019070201069T%A 
02SOSA PAJA DANIELA STEPHANY    72704169  PENSION JUN 2019 COL     2017-7823475400000000006400000000000006401900000000000001908172207852019070201069S%K 
02ALAGON LOAIZA NICOLAS MAURICI 77399028  PENSION MAY 2019 CAR     2017-8001177300000000005500000000000005526400000000000026404372333402019070202048358 
02BAUTISTA CARRASCO GIAN IMANOL 78739335  PENSION JUN 2019 CAR     2017-8001191000000000005600000000000005601700000000000001702022340732019070201015M21 
02MORALES RAMOS JOANNE MARYLIN  62374538  PENSION JUN 2019 SJL     2017-153406  0000000000550000000000000550170000000000000170437243759201907020204WNET 
02BRAVO MENDOZA EDUARDO SEBASTI 77411417  PENSION JUN 2019 CAR     2017-800121330000000000550000000000000550170000000000000170361257674201907020101A121 
02GARCIA MENDOZA LUCIANA XIMENA 78044882  PENSION JUN 2019 SJL     2017-153420  00000000005500000000000005501700000000000001708172833582019070201068J%Z 
02ORELLANA JUSTINIANO JOSE PAOL 61332603  PENSION MAY 2019 SJL     2017-152673  00000000005500000000000005526400000000000026408173048542019070201068P%C 
02VIDAL CORDOVA RAFAELA ILLARI  78250253  PENSION JUN 2019 CAR     2017-8001193700000000005600000000000005601700000000000001708173076692019070201068P%J 
02VIDAL CORDOVA GABRIEL ALEJAND 72981604  PENSION JUN 2019 CAR     2017-8001225200000000004950000000000004951500000000000001508173085002019070201069C%M 
02SANCHEZ ROJAS BRENDA ELUNEY   74346513  PENSION JUN 2019 SJL     2017-153604  00000000005500000000000005501700000000000001708173125502019070201069N%Q 
02SANCHEZ ROJAS DAVID SEBASTIAN 77073828  PENSION JUN 2019 SJL     2017-154140  00000000004860000000000004861500000000000001508173136342019070201068Y%S 
02HUERTAS CALZADA VALERIA KATE  70714738  PENSION MAY 2019 CAR     2017-8001159700000000004860000000000004883300000000000023304373165322019070202044838 
02PORTILLA LIZARRAGA YAHIZA YOL 72592380  PENSION JUN 2019 SJL     2017-153634  00000000005500000000000005501700000000000001704373288112019070202043701 
02SULCA CABEZA HILARY           70864784  PENSION JUN 2019 COL     2017-782356260000000000640000000000000640190000000000000190566348645201907020101FQ12 
02ALBAN TANTALEAN JUAN PABLO    70736627  PENSION JUN 2019 COL     2017-782348600000000000640000000000000640190000000000000190597368661201907020101GL11 
02CARRION MEDINA DANUSHKA LISSE 70732327  PENSION MAY 2019 CAR     2017-8001152400000000005500000000000005526400000000000026404373876952019070202046911 
02ORE ZAVALETA ADRIANO ALEJANDR 62022235  PENSION MAY 2019 SJL     2017-152634  00000000004950000000000004973700000000000023708174124022019070201068Q%G 
02ORE ZAVALETA ADRIANO ALEJANDR 62022235  PENSION JUN 2019 SJL     2017-153672  00000000004950000000000004951500000000000001508174133282019070201069B%I 
03000000053000000002976000000000002980461000000000004461                                                                                                
