0100025539940100PEN20190710001103620200004301                                                                                                           
02CHICOMA VELASQUEZ BRUNO FABRI 72598751  PENSION JUN 2019 CAR     2017-8001208100000000005500000000000005508300000000000008308170215222019071001068N%D 
02NARCISO HUAMAN KIARA BELEN    77856090  PENSION MAY 2019 CAR     2017-8001174400000000005500000000000005533000000000000033008170216852019071001068V%D 
02NARCISO HUAMAN DANTE DAVID    61527661  PENSION MAY 2019 CAR     2017-8001177000000000004950000000000004979700000000000029708170235732019071001068V%R 
02PAREJA AVILA LEONARDO MARTIN  75631934  PENSION MAY 2019 COL     2017-7823416100000000006400000000000006438400000000000038404370440822019071002042198 
02PAREJA AVILA LEONARDO MARTIN  75631934  PENSION JUN 2019 COL     2017-7823493400000000006400000000000006409600000000000009604370440842019071002042198 
02PAREJA AVILA LEONARDO MARTIN  75631934  PENSION JUL 2019 COL     2017-7823647100000000006400000000000006400000000000000000004370440852019071002042198 
02VALENZUELA MENDOZA JOSE MANUE 77230001  PENSION ABR 2019 SJL     2017-152111  00000000005400000000000005457500000000000057508178229732019071001068Z%Z 
02VALENZUELA MENDOZA JOSE MANUE 77230001  PENSION MAY 2019 SJL     2017-153099  00000000005400000000000005432400000000000032408178235592019071001068P%T 
02VALENZUELA MENDOZA JOSE MANUE 77230001  PENSION JUN 2019 SJL     2017-154121  00000000005400000000000005408100000000000008108178239932019071001069M%T 
02ESPINOZA GOMEZ LEONARDO JAVIE 61550540  PENSION JUN 2019 CAR     2017-8001233000000000004950000000000004956700000000000006704377598302019070902043815 
02DAMIAN GUILLEN ROSE ANGELY    75031880  PENSION JUN 2019 SJL     2017-153421  00000000005500000000000005508300000000000008304377661242019071002040192 
02MERMA BUSTAMANTE FERNANDO STE 78083979  PENSION ABR 2019 CAR     2017-8001560100000000005600000000000005659600000000000059604377748052019071002049300 
02NUNEZ ROMERO MATEO EMILIO     79358100  PENSION MAY 2019 CAR     2017-8001143300000000005600000000000005633600000000000033604377755272019071002049049 
02OLORTEGUI ALEJO JOAQUIN ISAIA 74346203  PENSION JUN 2019 SJL     2017-153812  00000000005500000000000005508300000000000008308177971562019071001069A%M 
02FUNDES YECKLE SILVANA SOFIA   77934254  PENSION ABR 2019 SJL     2017-151315  00000000005500000000000005558600000000000058601398058512019071001013V28 
02FUNDES YECKLE SILVANA SOFIA   77934254  PENSION MAY 2019 SJL     2017-152375  00000000005500000000000005533000000000000033001398058522019071001013V28 
02MARTINEZ NATIVIDAD ANALAURA S 77893971  PENSION JUN 2019 CAR     2017-8001233900000000005500000000000005508300000000000008308178147682019071001069K%P 
02MARTINEZ NATIVIDAD GONZALO AN 62051514  PENSION JUN 2019 CAR     2017-8001219400000000004950000000000004957400000000000007408178154292019071001069E%U 
02RUPAY GABRIEL VALERIA BELEN   78242908  PENSION JUN 2019 CAR     2017-800119270000000000560000000000000560840000000000000840437820705201907100204WNET 
02ROMERO ZUNIGA GIANELLA ALMEND 61093043  PENSION JUN 2019 SJL     2017-153625  00000000005500000000000005508300000000000008308178699262019071001069C%W 
02AVILA ALVAREZ LUANA BELEN     77521123  PENSION JUN 2019 COL     2017-7823512800000000005600000000000005608400000000000008403548911172019071001019U23 
02QUENAYA HINOSTROZA ADRIANA S  60980626  PENSION JUN 2019 SJL     2017-153778  00000000005500000000000005508300000000000008308178724942019071001069C%K 
02ROSALES YAUCE CRISTOPHER GEAN 77717779  PENSION MAY 2019 COL     2017-7823334500000000005600000000000005633600000000000033601088786342019071001013021 
02MORENO ROMERO LUCIA INES      72224290  PENSION JUL 2019 CAR     FF19-1806    00000000001100000000000001100000000000000000008179754922019071001068U%O 
02BORJA ORELLANA ALONDRA NOELIA 74112137  PENSION JUN 2019 SJL     2017-153962  00000000004950000000000004957400000000000007408179964552019071001068Y%S 
02SANTOS RODRIGUEZ LUCERO MIRAN 78281174  PENSION ABR 2019 COL     2017-7823214600000000005600000000000005659600000000000059604379582722019071002040529 
02MEZA ANAYA NAYELI PRISCILA    74875930  PENSION ABR 2019 COL     2017-7823252500000000006400000000000006468200000000000068204379586302019071002046683 
02LOPEZ CHAVARRIA DARYL BRIAN B 77960454  PENSION JUN 2019 COL     2017-7823525400000000005600000000000005608400000000000008408179696262019071001069V%K 
02MORENO ROMERO LUCIA INES      72224290  PENSION OCT 2018 CAR     2017-8000954500000000005100000000000005292800000000000192808179731432019071001068V%V 
02BORJA ORELLANA DAYSHA BRYANNA 78309410  PENSION JUN 2019 SJL     2017-153503  00000000005600000000000005608400000000000008408179956982019071001068Y%R 
02MEZA ANAYA NAYELI PRISCILA    74875930  PENSION MAY 2019 COL     2017-7823386000000000006400000000000006438400000000000038404379586312019071002046683 
02ORDONEZ CASTILLO IAN ALEXANDE 79462095  PENSION JUN 2019 SJL     2017-153498  00000000005600000000000005608400000000000008404379363892019071002049834 
02MORENO ROMERO LUCIA INES      72224290  PENSION NOV 2018 CAR     2017-8000954600000000005100000000000005269800000000000169808179744362019071001069T%I 
02MATAMOROS RIVERA JOSE MANUEL  73112996  PENSION JUN 2019 COL     2017-7823551300000000006400000000000006409600000000000009608179093752019071001069J%C 
02MATAMOROS RIVERA JOSE MANUEL  73112996  PENSION JUL 2019 COL     2017-7823583800000000006400000000000006400000000000000000008179097142019071001068T%I 
02MATAMOROS RIVERA KARLOS EDUAR 73112998  PENSION JUN 2019 COL     2017-7823447700000000005760000000000005768600000000000008608179103772019071001068V%R 
02ORDONEZ CASTILLO ANLY ALEXAND 62576652  PENSION JUN 2019 SJL     2017-153915  00000000004950000000000004957400000000000007404379361252019071002043121 
02MATAMOROS RIVERA KARLOS EDUAR 73112998  PENSION JUL 2019 COL     2017-7823609600000000005760000000000005760000000000000000008179108032019071001069R%U 
02MELGAR CONDOR ALEJANDRO JAVIE 73675403  PENSION JUN 2019 COL     2017-782346830000000000640000000000000640960000000000000960437923293201907100204WNET 
03000000039000000002148700000000002159744000000000011044                                                                                                
