0100025539940100PEN20190705001103620200004301                                                                                                           
02ATAUJE LEIVA RICARDO JOSUE DA 73959551  PENSION MAR 2019 CAR     2017-8001060400000000004860000000000004930000000000000070004372591112019070502040998 
02ATAUJE LEIVA RODRIGO          78062196  PENSION MAR 2019 CAR     2017-8001081900000000005500000000000005579200000000000079204372617832019070502048502 
02ROJAS AGUILAR FABIANA XIMENA  77408857  PENSION JUN 2019 COL     2017-7823504600000000005600000000000005604200000000000004208172869692019070501068Q%V 
02ZUNIGA BAHAMONDI NICOLAS GUST 71171796  PENSION JUN 2019 COL     2017-7823486500000000006400000000000006404800000000000004804373084202019070502045843 
02VELASQUEZ AGUIRRE YUMI MICAEL 79396031  PENSION JUN 2019 COL     2017-782353640000000000504000000000000504380000000000000380437343248201907050204WNET 
02GARCIA SAHUANAY RAPHAEL FERNA 77735635  PENSION JUN 2019 SJL     2017-153692  0000000000550000000000000550330000000000000330437213617201907040204WNET 
02GOMEZ FLORES RENZO ANDREE     72564572  PENSION JUN 2019 COL     2017-782356120000000000640000000000000640380000000000000380437216245201907040204WNET 
02HONORIO FLORES ANGELINA MAGDY 62663969  PENSION JUN 2019 COL     2017-7823494800000000006400000000000006404800000000000004804372395162019070502041544 
02FONSECA NAVARRO FABRIZIO ALEX 72985305  PENSION JUL 2019 COL     2017-782365620000000000576000000000000576000000000000000000190247334201907050101T2R3 
02FONSECA NAVARRO LUANA VENEZIA 77924923  PENSION JUL 2019 COL     2017-782367690000000000560000000000000560000000000000000000190247686201907050101T2R3 
02MEDINA CUSIHUAMAN AARON MIJAE 77877003  PENSION JUN 2019 SJL     2017-153677  00000000005500000000000005504100000000000004104372516262019070502048495 
02ALVAREZ LOPEZ SAMANTHA PIERIN 78285244  PENSION MAY 2019 CAR     2017-800114660000000000504000000000000506650000000000002650437412241201907050204WNET 
02ALVAREZ LOPEZ FABRIZZIO VALEN 73911572  PENSION MAY 2019 CAR     2017-800115190000000000495000000000000497600000000000002600437412245201907050204WNET 
02ALVAREZ LOPEZ SHANTALL ALEXAN 77197616  PENSION MAY 2019 CAR     2017-800117290000000000495000000000000497600000000000002600437412248201907050204WNET 
02SEGURA RAMIREZ RICARDO ALBERT 72522739  PENSION JUN 2019 SJL     2017-154099  00000000005400000000000005404100000000000004108173511212019070501069Q%Z 
02MANTILLA CHUMAN CRISTINA      72571595  PENSION ABR 2019 COL     2017-7823262200000000006400000000000006463400000000000063401073693632019070501012Z21 
02AGUILAR MACAZANA MAYVETH CAMI 71030845  PENSION JUN 2019 SJL     2017-154370  00000000005400000000000005404100000000000004103223725882019070501018Y22 
02PERALES CASTRO ALVARO DAVID   72299534  PENSION JUN 2019 COL     2017-7823558700000000006400000000000006404800000000000004808173730792019070501069D%Q 
02CORDERO SAAVEDRA EDGAR MATEO  77318807  PENSION JUN 2019 COL     2017-7823510900000000005600000000000005604200000000000004201084092172019070501013022 
02CORDERO SAAVEDRA REGINA GABRI 71535645  PENSION JUL 2019 COL     2017-7823631100000000005760000000000005760000000000000000001084094972019070501013022 
02FERNANDEZ MOROCHO JEFFERSON M 74906225  PENSION MAY 2019 SJL     2017-153323  00000000005400000000000005428400000000000028404374279532019070502044421 
02HILARIO CHAMBERGO CHRISTIAN C 45939844  CERT EST JUL 2019 COL    FF19-1800    00000000000600000000000000600000000000000000008174349612019070501069I%E 
02SANTOS SILVA FABRIZZIO AARON  77898292  PENSION JUN 2019 SJL     2017-153631  00000000005500000000000005504100000000000004108174580702019070501069U%F 
02MUNOZ PARDO KATHERINE JIMENA  70742904  PENSION MAY 2019 COL     2017-782340510000000000448000000000000450350000000000002350437468035201907050204WNET 
02MUNOZ PARDO KATHERINE JIMENA  70742904  PENSION JUN 2019 COL     2017-782348240000000000448000000000000448340000000000000340437468042201907050204WNET 
02VALQUI CASTRO SHANDE          76775099  PENSION JUN 2019 CAR     2017-8001199800000000005400000000000005404100000000000004108174771582019070501069K%D 
02HERNANDEZ PINO JAVIER RAFAEL  72173621  PENSION JUN 2019 SJL     2017-154044  00000000005400000000000005404100000000000004104376037022019070502049686 
03000000027000000001437200000000001441247000000000004047                                                                                                
