0100025539940100PEN20190713001103620200004301                                                                                                           
02CHAVEZ CANO RONY              72246534  PENSION ABR 2019 COL     2017-7823234700000000005760000000000005823900000000000063904378037112019071302045671 
02CHAVEZ CANO ROMINA FRANCESCA  74007221  PENSION ABR 2019 COL     2017-7823304500000000006400000000000006471000000000000071004378012302019071302040363 
02CHAVEZ CANO ROMINA FRANCESCA  74007221  PENSION MAY 2019 COL     2017-7823439800000000006400000000000006441300000000000041304378012312019071302040363 
02CHAVEZ CANO RONY              72246534  PENSION MAY 2019 COL     2017-7823366700000000005760000000000005797200000000000037204378037122019071302045671 
02AGUIRRE FERNANDEZ GENESIS TAM 71681428  PENSION JUN 2019 CAR     2017-8001235200000000004950000000000004959600000000000009608178643482019071301069U%V 
02AGUIRRE FERNANDEZ GAELA SAYUM 79554343  PENSION JUN 2019 CAR     2017-8001191400000000005040000000000005049800000000000009808178654072019071301069M%T 
02BENITES YANAGUI GINA KODASHI  76836570  PENSION MAY 2019 COL     2017-782337890000000000640000000000000644130000000000004130437873450201907130204WNET 
02BENITES PACAYA CAMILA FERNAND 71104507  PENSION JUN 2019 COL     2017-7823460800000000006400000000000006412500000000000012501928746282019071301015C23 
02MENDOZA LLUNCOR NICOLE BRIGIT 73270416  PENSION JUN 2019 SJL     2017-154262  00000000005400000000000005410500000000000010504379264082019071307045946 
03000000009000000000525100000000000528071000000000002971                                                                                                
