0100025539940100PEN20190708001103620200004301                                                                                                           
02SALAZAR SANTILLAN ANTOINE CRI 73914427  PENSION JUN 2019 CAR     2017-8001217100000000005500000000000005506600000000000006608170226832019070802069F%I 
02LEON MENACHO VALERIA INES     72344463  PENSION JUN 2019 CAR     2017-8001229900000000005500000000000005506600000000000006608170245002019070801068K%Z 
02DELESMA MENDOZA KAMILA VALENT 74783428  PENSION JUN 2019 SJL     2017-153913  00000000005500000000000005506600000000000006608170369202019070801068U%F 
02REANO AGUILAR ALMENDRA MICHEI 78609144  PENSION JUN 2019 COL     2017-7823542000000000005600000000000005606700000000000006708170572972019070801069J%L 
02CARDENAS RODRIGUEZ ALESSANDRO 70533927  PENSION ABR 2019 SJL     2017-152093  00000000005400000000000005455900000000000055908171039252019070801068P%A 
02LUYO RUMAY MIGUEL ENRIQUE     61139234  PENSION ABR 2019 SJL     2017-151712  00000000004950000000000005001200000000000051201391305492019070801013V24 
02LUYO RUMAY MIGUEL ENRIQUE     61139234  PENSION MAY 2019 SJL     2017-152741  00000000004950000000000004978200000000000028201391308512019070801013V24 
02LUYO RUMAY MIGUEL ENRIQUE     61139234  PENSION JUN 2019 SJL     2017-153763  00000000004950000000000004955900000000000005901391311522019070801013V24 
02PRADO RUMAY LUANA ZARELY      78325055  PENSION MAY 2019 SJL     2017-152457  00000000005600000000000005631900000000000031901391329752019070801013V24 
02PRADO RUMAY LUANA ZARELY      78325055  PENSION JUN 2019 SJL     2017-153497  00000000005600000000000005606700000000000006701391332482019070801013V24 
02ABELE VARGAS GUSTAVO EUGENIO  61022386  PENSION JUN 2019 COL     2017-7823477000000000006400000000000006407700000000000007708171360522019070801069S%C 
02GUTIERREZ BERROCAL VALERIA D  76016732  PENSION MAY 2019 SJL     2017-153135  00000000005400000000000005430800000000000030803041696512019070801018G23 
02MONTOYA SOTO KEYSI SOFIA      73148935  PENSION MAR 2019 SJL     2017-150950  00000000005400000000000005480200000000000080208171821102019070801069R%D 
02QUISPE CASTILLO LUCIANA CHRIS 78050459  PENSION JUN 2019 COL     2017-782352410000000000392000000000000392470000000000000470437182180201907080704WNET 
02TREBEJO SALAZAR ALEXANDRA RUT 75180895  PENSION JUN 2019 COL     2017-7823475000000000006400000000000006407700000000000007708172353862019070801068Z%Y 
02CORTEZ BALTODANO DIEGO FABRIZ 78411445  PENSION JUN 2019 CAR     2017-8001192400000000005040000000000005046000000000000006008172458972019070801068O%Z 
02CORTEZ BALTODANO MARIA FERNAN 73165218  PENSION JUN 2019 CAR     2017-8001219000000000004950000000000004955900000000000005908172464042019070801069N%J 
02CORTEZ BALTODANO GABRIEL ANGE 70732378  PENSION JUN 2019 CAR     2017-8001225000000000004950000000000004955900000000000005908172470132019070801069Q%R 
02GUTIERREZ ORELLANO DAYANA NIC 75016883  PENSION JUN 2019 CAR     2017-8001578700000000005400000000000005406500000000000006508172536352019070801069E%S 
02SAMANIEGO TRUJILLO ANGELO FAB 78540386  PENSION JUN 2019 COL     2017-7823539900000000005040000000000005046000000000000006003442572162019070801019K21 
02MENDOZA RAMIREZ VICTOR        77744753  PENSION MAY 2019 CAR     2017-8001185500000000005500000000000005531400000000000031408172626772019070801069N%P 
02MENDOZA RAMIREZ VICTOR        77744753  PENSION JUN 2019 CAR     2017-8001233200000000005500000000000005506600000000000006608172634172019070801069K%V 
02MONCADA MOLINA MAYUMI GABRIEL 74186154  PENSION MAY 2019 SJL     2017-152971  00000000005500000000000005531400000000000031404373991662019070802047100 
02VALDERRAMA CHUPILLON VALENTIN 79592042  PENSION JUN 2019 COL     2017-7823536000000000005600000000000005604200000000000004204376116362019070502042296 
02PELAEZ JARA MARLON MACARINI G 63094132  PENSION JUN 2019 CAR     2017-8001570400000000005500000000000005505000000000000005004376398362019070602041196 
02CORTEZ DE LA CRUZ MANUEL ELIU 71365592  PENSION JUN 2019 COL     2017-7823487100000000003200000000000003202900000000000002908176490762019070601069P%E 
02CORTEZ DE LA CRUZ ANGIE CRIST 71740676  PENSION JUN 2019 COL     2017-7823551000000000003200000000000003202900000000000002908176495602019070601068X%O 
02CARDENAS TAFUR CARLOS DANILO  78033018  PENSION MAR 2019 COL     2017-7823192800000000005600000000000005681500000000000081501696564112019070601014P24 
02NARBASTA TREJO GLADYS GERALIN 73783236  PENSION MAY 2019 CAR     2017-8001166400000000004860000000000004886200000000000026208177087752019070601069T%U 
02NARBASTA TREJO RAQUEL ABIGAIL 73719935  PENSION JUN 2019 CAR     2017-8001206800000000005500000000000005505000000000000005008177093662019070601069T%O 
02CACERES AGUIRRE FABIANA VALER 79185136  PENSION JUN 2019 SJL     2017-153361  00000000005600000000000005605000000000000005008177254312019070601068N%S 
02HUARCAYA ALFARO MARIA JOSE    74033041  PENSION JUN 2019 COL     2017-7823555200000000006400000000000006405800000000000005801927465662019070601015C22 
02DE LOS SANTOS PEQUENO IMANOL  75507544  PENSION JUN 2019 COL     2017-7823452400000000006400000000000006405800000000000005804377758422019070602043198 
02ALCALA PONCE JADIR RODRIGO    78026359  PENSION JUN 2019 SJL     2017-153985  00000000005500000000000005505000000000000005004378931182019070607042939 
02ALCALA PONCE THAIS VALERIA    78026380  PENSION JUN 2019 SJL     2017-153731  00000000004950000000000004954500000000000004504378931782019070607041440 
02MORANTE SAYAS ALEXIA DAYHANA  70627136  PENSION JUN 2019 CAR     2017-8001203400000000004860000000000004865100000000000005104379682882019070702046950 
02MORANTE SAYAS THIAGO DANIEL   79285581  PENSION JUN 2019 CAR     2017-8001211300000000005600000000000005605900000000000005904379683822019070702047087 
02NEYRA CARBONELL DANNA TATIANA 77733013  PENSION JUN 2019 COL     2017-7823531900000000005600000000000005605900000000000005904379759602019070702044517 
02FLORES LUNA FIORELLA BLANCA L 77110846  PENSION JUN 2019 COL     2017-7823512100000000005600000000000005605900000000000005904379953042019070702047055 
02SAMANIEGO TRUJILLO ANTHONY GI 77301652  PENSION JUN 2019 COL     2017-7823509500000000005040000000000005046000000000000006003442579812019070801019K21 
02SAMANIEGO TRUJILLO PIERO ALEX 74183453  PENSION JUN 2019 COL     2017-7823492300000000005760000000000005766900000000000006903442583892019070801019K21 
02PRADO RUMAY LUANA ZARELY      78325055  PENSION ABR 2019 SJL     2017-151373  00000000005600000000000005658000000000000058001391323002019070801013V24 
03000000042000000002233200000000002240046000000000006846                                                                                                
