0100025539940100PEN20191214001103620200004301                                                                                                           
02VILCAPOMA RUIZ PIERO ANDRE    77304369  PENSION NOV 2019 COL     2017-7824148700000000005600000000000005611800000000000011804375085262019121402049254 
02LOPEZ NEYRA AXEL JUNIOR       73524177  PENSION NOV 2019 SJL     2017-158587  00000000005400000000000005411300000000000011308175077242019121401069A%X 
02SOTO FARFAN DARIO MURIEL      77889200  PENSION DIC 2019 SJL     2017-159885  0000000000550000000000000550000000000000000000437261717201912140204WNET 
02BALVIN RIVERA YURAC ELI       72441519  PENSION DIC 2019 SJL     2017-160650  0000000000486000000000000486000000000000000000437416258201912140204WNET 
02VELEZ MELCHOR CARLOS ARIAN    70703812  PENSION DIC 2019 SJL     2017-159633  00000000004950000000000004950000000000000000004372295322019121402048096 
02VELEZ MELCHOR KARLA AYLIN     77984712  PENSION DIC 2019 SJL     2017-160083  00000000005500000000000005500000000000000000004372315192019121402043875 
02ORTEGA ECHEVARRIA KATHERINE V 78246555  MATRICUL COL             2017-7824376800000000004930000000000004930000000000000000004372423782019121402043467 
02ESPINOZA GOMEZ LEONARDO JAVIE 61550540  PENSION DIC 2019 CAR     2017-8001519600000000004950000000000004950000000000000000004372424472019121402043930 
02ESPINOZA GOMEZ DIEGO DAVID AR 77645610  PENSION DIC 2019 CAR     2017-8001490300000000005500000000000005500000000000000000004372428942019121402047626 
02ROEL JIMENEZ JUAN MANUEL      77735735  PENSION DIC 2019 COL     2017-7824290100000000005600000000000005600000000000000000001072631542019121401012Z23 
02GAMARRA NIQUEN LEONARDO ANGEL 72058129  PENSION JUL 2019 COL     2017-7823656600000000006400000000000006530600000000000130604372651902019121402040677 
02GAMARRA NIQUEN LEONARDO ANGEL 72058129  PENSION AGO 2019 COL     2017-7823785400000000006400000000000006500800000000000100804372651912019121402040677 
02GAMARRA NIQUEN LEONARDO ANGEL 72058129  PENSION SEP 2019 COL     2017-7823903500000000006400000000000006472000000000000072004372651922019121402040677 
02GAMARRA NIQUEN LEONARDO ANGEL 72058129  PENSION OCT 2019 COL     2017-7823963100000000006400000000000006442200000000000042204372651932019121402040677 
02MEDINA GARCIA LUCIA MICAELA   78387436  CCIA NO  DIC 2019 COL    FF19-2316    0000000000030000000000000030000000000000000000609273689201912140101GX14 
02MEDINA GARCIA LUCIA MICAELA   78387436  CERT EST DIC 2019 COL    FF19-2315    0000000000060000000000000060000000000000000000609273690201912140101GX14 
02MIRANDA INGA SILVANA DANIELA  74676204  PENSION DIC 2019 CAR     2017-8001506500000000005500000000000005500000000000000000008172749352019121401069B%L 
02HERRERA RIVERA MICKYEL ANGEL  77515519  PENSION NOV 2019 COL     2017-7824151700000000005600000000000005611800000000000011808172885872019121401068W%E 
02ROMERO IBARRA EMILY STEPHANIE 61494947  PENSION JUN 2019 COL     2017-782349840000000000576000000000000590430000000000014430190297755201912140201T2R5 
02ROMERO IBARRA EMILY STEPHANIE 61494947  PENSION JUL 2019 COL     2017-782365210000000000576000000000000587750000000000011750190297756201912140201T2R5 
02ROMERO IBARRA EMILY STEPHANIE 61494947  PENSION AGO 2019 COL     2017-782378090000000000576000000000000585070000000000009070190297757201912140201T2R5 
02ROMERO IBARRA EMILY STEPHANIE 61494947  PENSION SEP 2019 COL     2017-782389510000000000576000000000000582480000000000006480190297758201912140201T2R5 
02ROMERO IBARRA EMILY STEPHANIE 61494947  PENSION OCT 2019 COL     2017-782395960000000000576000000000000579800000000000003800190297759201912140201T2R5 
02ROMERO IBARRA EMILY STEPHANIE 61494947  PENSION NOV 2019 COL     2017-782413810000000000576000000000000577210000000000001210190297760201912140201T2R5 
02ROMERO IBARRA EMILY STEPHANIE 61494947  PENSION DIC 2019 COL     2017-782425960000000000576000000000000576000000000000000000190297761201912140201T2R5 
02MOLINA RUIZ GAELA             78003705  MATRICUL COL             2017-7824376200000000004930000000000004930000000000000000008173035902019121401068K%S 
02MOLINA RUIZ YAMIR ADRIAN      73253392  MATRICUL COL             2017-7824376300000000005695000000000005695000000000000000008173061372019121401068Z%B 
02SANCHEZ BARRIA ANA PAULA      72545912  PENSION MAR 2019 COL     2017-7823128700000000006400000000000006647700000000000247701673076642019121402014N23 
02SANCHEZ BARRIA ANA PAULA      72545912  PENSION ABR 2019 COL     2017-7823247200000000006400000000000006618900000000000218901673076652019121402014N23 
02SANCHEZ BARRIA ANA PAULA      72545912  PENSION MAY 2019 COL     2017-7823383600000000006400000000000006589100000000000189101673076662019121402014N23 
02SANCHEZ BARRIA ANA PAULA      72545912  PENSION JUN 2019 COL     2017-7823460900000000006400000000000006560300000000000160301673076672019121402014N23 
02SANCHEZ BARRIA ANA PAULA      72545912  PENSION JUL 2019 COL     2017-7823614600000000006400000000000006530600000000000130601673085332019121402014N23 
02SANCHEZ BARRIA ANA PAULA      72545912  PENSION AGO 2019 COL     2017-7823743400000000006400000000000006500800000000000100801673085352019121402014N23 
02SANCHEZ BARRIA ANA PAULA      72545912  PENSION SEP 2019 COL     2017-7823864400000000006400000000000006472000000000000072001673085362019121402014N23 
02SANCHEZ BARRIA ANA PAULA      72545912  PENSION OCT 2019 COL     2017-7824038900000000006400000000000006442200000000000042201673085372019121402014N23 
02SANCHEZ BARRIA ANA PAULA      72545912  PENSION NOV 2019 COL     2017-7824100600000000006400000000000006413400000000000013401673093372019121402014N23 
02SANCHEZ BARRIA ANA PAULA      72545912  PENSION DIC 2019 COL     2017-7824224800000000006400000000000006400000000000000000001673093392019121402014N23 
02SANCHEZ BARRIA RAUL ANTONIO   72545908  PENSION MAR 2019 COL     2017-7823098000000000005760000000000005982900000000000222901673109812019121402014N23 
02SANCHEZ BARRIA RAUL ANTONIO   72545908  PENSION ABR 2019 COL     2017-7823216500000000005760000000000005957000000000000197001673109822019121402014N23 
02SANCHEZ BARRIA RAUL ANTONIO   72545908  PENSION MAY 2019 COL     2017-7823348800000000005760000000000005930200000000000170201673109832019121402014N23 
02SANCHEZ BARRIA RAUL ANTONIO   72545908  PENSION JUN 2019 COL     FF19-1727    00000000006400000000000006560300000000000160301673109842019121402014N23 
02SANCHEZ BARRIA RAUL ANTONIO   72545908  PENSION JUL 2019 COL     FF19-1728    00000000006400000000000006530600000000000130601673109852019121402014N23 
02SANCHEZ BARRIA RAUL ANTONIO   72545908  PENSION AGO 2019 COL     FF19-1729    00000000006400000000000006500800000000000100801673119832019121402014N23 
02SANCHEZ BARRIA RAUL ANTONIO   72545908  PENSION SEP 2019 COL     FF19-1730    00000000006400000000000006472000000000000072001673119842019121402014N23 
02SANCHEZ BARRIA RAUL ANTONIO   72545908  PENSION OCT 2019 COL     FF19-1731    00000000006400000000000006442200000000000042201673119852019121402014N23 
02SANCHEZ BARRIA RAUL ANTONIO   72545908  PENSION NOV 2019 COL     FF19-1732    00000000006400000000000006413400000000000013401673119862019121402014N23 
02SANCHEZ BARRIA RAUL ANTONIO   72545908  PENSION DIC 2019 COL     FF19-1733    00000000006400000000000006400000000000000000001673119872019121402014N23 
02HUAMAN CARHUARICRA ESTEBAN JE 73211257  PENSION MAR 2019 SJL     2017-151079  0000000000540000000000000560900000000000020900437321796201912140204WNET 
02CARDENAS ESCUDERO GABRIEL FER 72030309  PENSION NOV 2019 COL     2017-7824089200000000006400000000000006413400000000000013401183226222019121401013A21 
02LUNA SANCHEZ JOSE FERNANDO    72169134  PENSION DIC 2019 CAR     2017-8001498100000000005400000000000005400000000000000000004373340852019121407048806 
02VENTURA VILLEGAS CLAUDIA SOFI 78080865  PENSION AGO 2019 CAR     2017-800130890000000000550000000000000558660000000000008660437339032201912140204WNET 
02VENTURA VILLEGAS CLAUDIA SOFI 78080865  PENSION SEP 2019 CAR     2017-800136190000000000550000000000000556190000000000006190437340545201912140204WNET 
02VENTURA VILLEGAS CARLOS CESAR 77397463  PENSION AGO 2019 CAR     2017-800132370000000000495000000000000502790000000000007790437342307201912140204WNET 
02VENTURA VILLEGAS CARLOS CESAR 77397463  PENSION SEP 2019 CAR     2017-800137140000000000495000000000000500570000000000005570437343898201912140204WNET 
02RAMIREZ ZARATE MATIAS JULIAN  79529943  PENSION JUL 2019 SJL     2017-155190  00000000003920000000000004000000000000000080004373704132019121402046690 
02RAMIREZ ZARATE MATIAS JULIAN  79529943  PENSION AGO 2019 SJL     2017-155405  00000000003920000000000003981700000000000061704373704152019121402046690 
02RAMIREZ ZARATE MATIAS JULIAN  79529943  PENSION SEP 2019 SJL     2017-156448  00000000003920000000000003964100000000000044104373704162019121402046690 
02RAMIREZ ZARATE MATIAS JULIAN  79529943  PENSION OCT 2019 SJL     2017-157602  00000000003920000000000003945900000000000025904373704172019121402046690 
02MATAMOROS RIVERA KARLOS EDUAR 73112998  PENSION OCT 2019 COL     2017-7824031300000000005760000000000005798000000000000038008173717942019121401069T%K 
02MATAMOROS RIVERA KARLOS EDUAR 73112998  PENSION NOV 2019 COL     2017-7824091600000000005760000000000005772100000000000012108173722652019121401068N%Y 
02MATAMOROS RIVERA KARLOS EDUAR 73112998  PENSION DIC 2019 COL     2017-7824202500000000005760000000000005760000000000000000008173743902019121401069K%H 
02JIMENEZ GIL HECTOR RAFAEL     77642563  PENSION OCT 2019 CAR     2017-8001409400000000005500000000000005536300000000000036308173744322019121401069J%P 
02MATAMOROS RIVERA JOSE MANUEL  73112996  PENSION OCT 2019 COL     2017-7824013600000000006400000000000006442200000000000042208173758342019121401069R%Q 
02MATAMOROS RIVERA JOSE MANUEL  73112996  PENSION NOV 2019 COL     2017-7824069000000000006400000000000006413400000000000013408173762532019121401069P%I 
02VERTIZ ZEGARRA FABIAN ENRIQUE 73395114  PENSION DIC 2019 SJL     2017-159946  00000000005500000000000005500000000000000000008173842162019121401069E%K 
02PEREZ VALLEJO JOSE FRANK      77634921  MATRICUL SJL             2017-161115  00000000004845000000000004845000000000000000004373953202019121402042810 
02VEJARANO VILLARREAL VALENTINA 77741906  PENSION DIC 2019 SJL     2017-160040  00000000003850000000000003850000000000000000004374095982019121402047409 
02DIAZ SANCHEZ ADRIAN JOSE      0336636000PENSION DIC 2019 COL     2017-7824238700000000006400000000000006400000000000000000004374117322019121402043071 
02FUENTES TIRADO SEBASTHIAN AND 81500803  PENSION DIC 2019 COL     2017-7824194700000000005600000000000005600000000000000000004374354852019121402044767 
02MUCHA PORRAS CAMILA NAIR      78986976  MATRICUL COL             2017-7824375500000000004845000000000004845000000000000000004374430482019121407040018 
02ESPINOZA LIMAS ALESSANDRA FAT 71996580  PENSION DIC 2019 COL     2017-7824178200000000006400000000000006400000000000000000004374881932019121407046984 
02ESPINOZA LIMAS FLAVIO ANDREE  71996582  PENSION DIC 2019 COL     2017-7824204100000000005760000000000005760000000000000000004374886122019121407042313 
03000000072000000003999750000000004039655000000000039905                                                                                                
