0100025539940100PEN20190714001103620200004301                                                                                                           
02SUSANIBAR FLOR ARIANNA XIOMAR 70596810  PENSION JUN 2019 CAR     2017-800120220000000000540000000000000541130000000000001130437122277201907140204WNET 
02ALIAGA EGUSQUIZA LORENA FABIA 74275460  PENSION JUN 2019 SJL     2017-153831  00000000005500000000000005511600000000000011604370625462019071402041548 
02CAMARENA BUENDIA AARON ALEXAN 73917582  PENSION MAY 2019 COL     2017-7823440000000000006400000000000006442200000000000042204370363832019071407044381 
02CAMARENA BUENDIA AARON ALEXAN 73917582  PENSION ABR 2019 COL     2017-7823304700000000006400000000000006472000000000000072004370363822019071407044381 
02LOAYZA LLOCCLLA NICOLLE MILAG 76718761  PENSION JUN 2019 COL     2017-782350720000000000560000000000000561180000000000001180437031601201907140204WNET 
02LOAYZA LLOCCLLA NICOLLE MILAG 76718761  PENSION AGO 2019 COL     2017-782379020000000000560000000000000560000000000000000000437032585201907140204WNET 
02LOAYZA LLOCCLLA NICOLLE MILAG 76718761  PENSION JUL 2019 COL     2017-782366150000000000560000000000000560000000000000000000437032014201907140204WNET 
03000000007000000000405000000000000406489000000000001489                                                                                                
