0100025539940100PEN20190704001103620200004301                                                                                                           
02GUERRERO BLAS CAMILA ISABEL   72638318  PENSION MAY 2019 COL     2017-7823388300000000006400000000000006432600000000000032604370206512019070402043701 
02HUANEY LANDAURO JIA LUCIANA   77634051  PENSION JUN 2019 CAR     2017-8001216900000000005500000000000005503300000000000003304370272242019070402045544 
02LLERENA CORDANO ROBINSON SAMU 75510582  PENSION MAY 2019 CAR     2017-8001165000000000004860000000000004884800000000000024804370304322019070402041202 
02VELASQUEZ TORRES ALYSSA VALEN 77580762  PENSION JUL 2019 COL     2017-7823662600000000005040000000000005040000000000000000004370390202019070402041169 
02VELASQUEZ TORRES LIESSEL BRUN 78598891  PENSION JUL 2019 COL     2017-7823571500000000005600000000000005600000000000000000004370400872019070402046895 
02RUIZ VILCHEZ SANTIAGO JOAQUIN 78059420  PENSION JUN 2019 COL     2017-7823530600000000005600000000000005603400000000000003404370595322019070402040648 
02SILVA FLORES YESIL SAYD       61852181  PENSION JUN 2019 SJL     2017-153928  0000000000550000000000000550330000000000000330361065780201907040101A122 
02GARCIA VILLANUEVA ALBA SOFIA  79513964  PENSION JUN 2019 SJL     2017-153483  00000000005600000000000005603400000000000003404370662522019070402044825 
02LLERENA CORDANO RAFAEL SANTIA 75510584  PENSION MAY 2019 CAR     2017-8001167900000000005400000000000005427500000000000027504370310202019070402042462 
02MESTANZA NUNEZ KIARA          77135858  PENSION JUN 2019 COL     2017-7823565400000000005760000000000005763500000000000003502020514862019070401015M21 
02MESTANZA NUNEZ SHAIRA         72593094  PENSION JUN 2019 COL     2017-7823482800000000006400000000000006403800000000000003802020524732019070401015M21 
02YEPES ENRIQUEZ ARHOM AUGUSTO  77897054  PENSION JUN 2019 COL     2017-7823527700000000005600000000000005603400000000000003404371106662019070402046717 
02MOREYRA ILDEFONSO ISABELLA PA 62607097  PENSION JUN 2019 COL     2017-782348810000000000640000000000000640380000000000000380437129168201907040204WNET 
02GALVEZ QUISPE LUIS MIGUEL JAF 79406304  PENSION JUN 2019 SJL     2017-153487  00000000005600000000000005603400000000000003408171327262019070401068S%G 
02FERNANDEZ SAMAME LYSANDER AND 72596316  PENSION MAR 2019 CAR     2017-8001070200000000005500000000000005578400000000000078404371417142019070402043967 
02FERNANDEZ SAMAME LYSANDER AND 72596316  PENSION ABR 2019 CAR     2017-8001120200000000005500000000000005553600000000000053604371417152019070402043967 
02FERNANDEZ SAMAME LYSANDER AND 72596316  PENSION MAY 2019 CAR     2017-8001155100000000005500000000000005528100000000000028104371417162019070402043967 
02ASCARZA TIRADO DAHIANA ALESSA 75976406  PENSION MAR 2019 COL     2017-7823145600000000006400000000000006491200000000000091204379428942019070402043795 
02OLIVARES REYES RICARDO MATHIA 79403603  PENSION JUN 2019 SJL     2017-153371  00000000005600000000000005603400000000000003408179017562019070401069M%F 
02SALDANA ORTEGA ALEHANDRA DAFN 77897047  PENSION JUN 2019 COL     2017-7823525300000000005600000000000005603400000000000003404379406082019070402049759 
02BENDEZU PIE MIKEYLA THAIS     76497301  PENSION JUN 2019 SJL     2017-153687  00000000005500000000000005503300000000000003304379456902019070402046596 
02NINAHUANCA DELGADO MARKUS ART 72983747  PENSION MAY 2019 SJL     2017-152586  00000000005500000000000005528100000000000028101399475112019070401013V28 
02VEGA CRUZ CHARLENNE SOFFIA    73849685  PENSION JUN 2019 CAR     2017-8001217300000000005500000000000005503300000000000003303329627742019070401019824 
02NAVARRO CANELA DYLAN          79073277  PENSION JUN 2019 CAR     2017-8001212500000000005600000000000005603400000000000003404379808902019070402042147 
02NAVARRO CANELA THIAGO         79073286  PENSION JUN 2019 CAR     2017-8001193500000000005040000000000005043000000000000003004379816472019070402046993 
02ALVAREZ LOPEZ SHANTALL ALEXAN 77197616  PENSION ABR 2019 CAR     2017-800112280000000000495000000000000499820000000000004820437985120201907040204WNET 
02ALVAREZ LOPEZ FABRIZZIO VALEN 73911572  PENSION ABR 2019 CAR     2017-800111750000000000495000000000000499820000000000004820437985121201907040204WNET 
02ALVAREZ LOPEZ SAMANTHA PIERIN 78285244  PENSION ABR 2019 CAR     2017-800109930000000000504000000000000508910000000000004910437985125201907040204WNET 
02DE LA CRUZ AMORES IULIANA ALE 62342132  PENSION JUN 2019 COL     2017-7823517600000000006400000000000006403800000000000003808179950002019070401068W%V 
02CALLE PACHECO AVRIL LUANA     61260964  PENSION ABR 2019 COL     2017-7823272300000000006400000000000006462400000000000062404379549392019070402045151 
02ROMANI CORNEJO MARIO ALESSAND 76165829  PENSION JUN 2019 COL     2017-782344810000000000640000000000000640380000000000000380383959137201907040101AN21 
02CACHA DAVILA JHARED STEPHANO  81177073  PENSION JUN 2019 CAR     2017-8001192500000000005600000000000005603400000000000003408179595372019070401068J%J 
03000000032000000001802400000000001808743000000000006343                                                                                                
