0100025539940100PEN20190703001103620200004301                                                                                                           
02CASTILLO RAMOS ASHTON DYLAN   77820102  PENSION JUL 2019 COL     2017-7823651000000000006400000000000006400000000000000000004374733492019070302047660 
02VELARDE MUNOZ KATTY YESSMI    77074452  PENSION JUL 2019 SJL     2017-154696  00000000005400000000000005400000000000000000008175443482019070301069F%E 
02GUZMAN RODRIGUEZ SAMUEL       77108181  PENSION JUL 2019 COL     2017-7823663900000000005600000000000005600000000000000000004374689512019070202041941 
02CASTILLO RAMOS TIFFANY GRACE  77916613  PENSION JUL 2019 COL     2017-7823651200000000005760000000000005760000000000000000004374733422019070302045042 
02COLCHADO OLIVERA ESTEBAN JULI 77858207  PENSION JUN 2019 COL     2017-7823530300000000005600000000000005602500000000000002504374750302019070302048157 
02GALLARDO CRUZ ESTEBAN JOSE    74676023  PENSION ABR 2019 CAR     2017-8001130400000000005500000000000005552800000000000052808175609242019070301069R%F 
02SOLORZANO MORENO LUCIANA ESME 79286026  PENSION JUN 2019 SJL     2017-153462  00000000005600000000000005602500000000000002508175667302019070301068J%X 
02TELLO LOPEZ RICARTE DAVID     77897750  PENSION JUN 2019 COL     2017-7823528000000000005040000000000005042300000000000002308175671162019070301069D%M 
02TELLO LOPEZ MICAELA FERNANDA  79565226  PENSION JUN 2019 COL     2017-7823535800000000005600000000000005602500000000000002508175680262019070301069K%U 
02VIDAURRE ESPINOZA JORDAN KALE 77729031  PENSION ABR 2019 COL     2017-7823315200000000005600000000000005653800000000000053804376425812019070302043438 
02GAYTAN PORRAS FERNANDO ANTONI 79099848  PENSION JUN 2019 SJL     2017-153486  00000000005600000000000005602500000000000002508175073262019070301069F%Q 
02VIDAURRE ESPINOZA JORDAN KALE 77729031  PENSION MAY 2019 COL     2017-7823327200000000005600000000000005627700000000000027704376425822019070302043438 
02SALAS BERROSPI IAN SEBASTIAN  70864394  PENSION JUL 2019 COL     2017-7823615500000000006400000000000006400000000000000000002016610642019070301015L23 
02SALAS BERROSPI IAN SEBASTIAN  70864394  PENSION AGO 2019 COL     2017-7823744300000000006400000000000006400000000000000000002016610652019070301015L23 
02ZEVALLOS CAPCHA CAMILA DANNAE 74004425  PENSION JUN 2019 CAR     2017-8001218900000000005500000000000005502500000000000002508175482322019070301068J%Q 
02GUTIERREZ TORRES ALEJANDRO JO 75036673  PENSION JUN 2019 COL     2017-7823490500000000006400000000000006402900000000000002904375645212019070307045155 
02SOLORZANO MORENO LETIZIA ESME 74181971  PENSION JUN 2019 SJL     2017-153696  00000000004950000000000004952200000000000002208175656412019070301068W%R 
02SALAS BERROSPI IAN SEBASTIAN  70864394  PENSION SEP 2019 COL     2017-7823865300000000006400000000000006400000000000000000002016610662019070301015L23 
02SALAS BERROSPI IAN SEBASTIAN  70864394  PENSION OCT 2019 COL     2017-7824039800000000006400000000000006400000000000000000002016610672019070301015L23 
02ORTIZ VEGA EMMANUEL ALESSANDR 61168004  PENSION JUN 2019 COL     2017-7823480700000000006400000000000006402900000000000002904376645082019070302043873 
02PADILLA MORON PATRICIA XIMENA 74064792  PENSION JUN 2019 COL     2017-7823561100000000006400000000000006402900000000000002908176656332019070301069R%X 
02CHIARA RIOS LUIS ANGEL        77108113  PENSION JUN 2019 CAR     2017-8001220200000000005500000000000005502500000000000002508176026862019070301069M%Q 
02FERNANDEZ FERNANDEZ CARLA LUA 77892128  PENSION JUN 2019 SJL     2017-153930  00000000005500000000000005502500000000000002501806955142019070301015022 
02CAMAC APAZA BRIGIT NICOLE     72986484  PENSION JUN 2019 CAR     2017-8001232000000000005500000000000005502500000000000002508176977722019070301069T%A 
02SUAREZ ALBARRACIN ADRIANA LIZ 72704451  PENSION JUL 2019 COL     2017-7823625800000000006400000000000006400000000000000000004376272512019070302049457 
02BALVIN RIVERA YURAC ELI       72441519  PENSION MAY 2019 SJL     2017-160544  00000000004860000000000004884100000000000024108177499672019070301069E%Y 
02LUGO JARA ESTRELLA LEONELA    61123037  PENSION MAY 2019 CAR     2017-8001167800000000005400000000000005426700000000000026708177546332019070301068S%V 
02NINAHUANCA VALENCIA BERENICE  74333399  PENSION JUN 2019 SJL     2017-153839  00000000005500000000000005502500000000000002508177613552019070301069U%U 
02MARTINEZ LEZAMA JACCO SANIN   77886625  PENSION ABR 2019 SJL     2017-151659  00000000005500000000000005552800000000000052808176480592019070301069M%S 
02MARTINEZ LEZAMA JACCO SANIN   77886625  PENSION MAY 2019 SJL     2017-152558  00000000005500000000000005527200000000000027208176487062019070301069M%B 
02CAPILLO JIMENEZ JEFFERSON SNA 77351179  PENSION JUN 2019 COL     2017-7823560500000000006400000000000006402900000000000002904376597892019070302048666 
02IPARRAGUIRRE BALAREZO ANGHELO 61293671  PENSION JUN 2019 COL     2017-7823461400000000006400000000000006402900000000000002901276759852019070301013J31 
02CACHAY ECHEVARRIA ANNIE LUCIA 77842015  PENSION JUN 2019 COL     2017-782352890000000000560000000000000560250000000000000250437676664201907030204WNET 
02ABRIGO HUAMAN THIAGO IMANOL   78542989  PENSION MAY 2019 COL     2017-7823335700000000005600000000000005627700000000000027708177904192019070301069U%B 
02PALOMINO ROQUE PARIS YARITZA  78787207  PENSION JUN 2019 CAR     2017-8001191300000000005600000000000005602500000000000002508177930002019070301068N%Y 
02SOTO MARINES JOSE LUIS        72529235  PENSION JUL 2019 COL     2017-782358710000000000640000000000000640000000000000000000383746670201907030101AN22 
02FABIAN CORNELIO DAFNE         75299297  PENSION MAY 2019 CAR     2017-800118680000000000550000000000000552720000000000002720418772498201907030101BM11 
02PEREZ PAREDES ARYAN NICOLAS   79466372  PENSION JUN 2019 SJL     2017-153515  00000000005600000000000005602500000000000002508177847042019070301069O%F 
02SANCHEZ MEJIA CRISTOPHER EDUA 72145412  PENSION JUN 2019 COL     2017-7823469900000000006400000000000006402900000000000002904378243802019070302040080 
03000000039000000002257100000000002260819000000000003719                                                                                                
