0100025539940100PEN20190706001103620200004301                                                                                                           
02PELAEZ JARA MARLON MACARINI G 63094132  PENSION JUN 2019 CAR     2017-8001570400000000005500000000000005505000000000000005004376398362019070602041196 
02CORTEZ DE LA CRUZ MANUEL ELIU 71365592  PENSION JUN 2019 COL     2017-7823487100000000003200000000000003202900000000000002908176490762019070601069P%E 
02CORTEZ DE LA CRUZ ANGIE CRIST 71740676  PENSION JUN 2019 COL     2017-7823551000000000003200000000000003202900000000000002908176495602019070601068X%O 
02CARDENAS TAFUR CARLOS DANILO  78033018  PENSION MAR 2019 COL     2017-7823192800000000005600000000000005681500000000000081501696564112019070601014P24 
02NARBASTA TREJO GLADYS GERALIN 73783236  PENSION MAY 2019 CAR     2017-8001166400000000004860000000000004886200000000000026208177087752019070601069T%U 
02NARBASTA TREJO RAQUEL ABIGAIL 73719935  PENSION JUN 2019 CAR     2017-8001206800000000005500000000000005505000000000000005008177093662019070601069T%O 
02CACERES AGUIRRE FABIANA VALER 79185136  PENSION JUN 2019 SJL     2017-153361  00000000005600000000000005605000000000000005008177254312019070601068N%S 
02HUARCAYA ALFARO MARIA JOSE    74033041  PENSION JUN 2019 COL     2017-7823555200000000006400000000000006405800000000000005801927465662019070601015C22 
02DE LOS SANTOS PEQUENO IMANOL  75507544  PENSION JUN 2019 COL     2017-7823452400000000006400000000000006405800000000000005804377758422019070602043198 
03000000009000000000462600000000000464001000000000001401                                                                                                
