0100025539940100PEN20190712001103620200004301                                                                                                           
02CHACON CASTILLO NICOLE VALENT 70743268  PENSION JUN 2019 COL     2017-7823562200000000006400000000000006411500000000000011508175607862019071201068V%O 
02HUAYHUA MARTINEZ ALESSANDRO S 73836299  PENSION MAR 2019 CAR     2017-8001068300000000005500000000000005585000000000000085008175935652019071201069D%G 
02HUAYHUA MARTINEZ ALESSANDRO S 73836299  PENSION ABR 2019 CAR     2017-8001118300000000005500000000000005560200000000000060208175938622019071201069M%X 
02HUAYHUA MARTINEZ ALESSANDRO S 73836299  PENSION MAY 2019 CAR     2017-8001152700000000005500000000000005534700000000000034708175944322019071201069I%L 
02SALCEDO VILA SAMIR ANDRE      62374726  PENSION ABR 2019 SJL     2017-151910  00000000004950000000000005004200000000000054208176001352019071201068R%G 
02PEREZ MARTINEZ MARILYN ARIADN 61967833  PENSION MAY 2019 SJL     2017-152408  00000000005500000000000005534700000000000034704376011352019071207049572 
02PEREZ MARTINEZ MARILYN ARIADN 61967833  PENSION JUN 2019 SJL     2017-153438  00000000005500000000000005509900000000000009904376011362019071207049572 
02PEREZ MARTINEZ MARILYN ARIADN 61967833  PENSION JUL 2019 SJL     2017-155278  00000000005500000000000005500000000000000000004376011372019071207049572 
02PEREZ MARTINEZ MARILYN ARIADN 61967833  PENSION AGO 2019 SJL     2017-155526  00000000005500000000000005500000000000000000004376011382019071207049572 
02PEREZ MARTINEZ MARILYN ARIADN 61967833  PENSION SEP 2019 SJL     2017-156569  00000000005500000000000005500000000000000000004376011392019071207049572 
02PEREZ MARTINEZ MARILYN ARIADN 61967833  PENSION OCT 2019 SJL     2017-157445  00000000005500000000000005500000000000000000004376011402019071207049572 
02PEREZ MARTINEZ MARILYN ARIADN 61967833  PENSION NOV 2019 SJL     2017-158695  00000000005500000000000005500000000000000000004376011422019071207049572 
02PEREZ MARTINEZ MARILYN ARIADN 61967833  PENSION DIC 2019 SJL     2017-159660  00000000005500000000000005500000000000000000004376011432019071207049572 
02ESPINOZA BOBBIO MELINA SAYURI 71364075  PENSION JUN 2019 COL     2017-782349580000000000640000000000000641150000000000001150443601281201907120101CB11 
02ESPINOZA BOBBIO ANGEL GABRIEL 76569707  PENSION JUN 2019 COL     2017-782347380000000000576000000000000577040000000000001040443601672201907120101CB11 
02LUJAN RIVAS DIEGO JOAQUIN     74897972  PENSION JUL 2019 SJL     2017-154752  0000000000540000000000000540000000000000000000437486789201907120204WNET 
02BRAVO RUIZ GABRIELA ABIGAIL   60853606  PENSION ABR 2019 CAR     2017-8001115900000000005400000000000005459100000000000059103164931212019071202018S23 
02BRAVO RUIZ GABRIELA ABIGAIL   60853606  PENSION MAY 2019 CAR     2017-8001150300000000005400000000000005434000000000000034003164931242019071202018S23 
02LASTRA MUNOZ JEAN PIERRE ANDR 76648925  PENSION JUN 2019 COL     2017-782345890000000000640000000000000641150000000000001150482568405201907120101DE12 
02AVILA GALVEZ LUCIANA DEL CARM 77727234  PENSION JUN 2019 COL     2017-7823530000000000005600000000000005610100000000000010104375933942019071207044706 
02AVILA GALVEZ LUCIANA DEL CARM 77727234  PENSION JUL 2019 COL     2017-7823683700000000005600000000000005600000000000000000004375933952019071207044706 
02CARBAJAL CESPEDES ADRIAN ALEX 73402097  PENSION JUN 2019 CAR     2017-800122210000000000550000000000000550990000000000000990383597072201907120101AN21 
02SALCEDO VILA CHRIS ALESSANDRO 77623007  PENSION ABR 2019 SJL     2017-151915  00000000005500000000000005560200000000000060208175998182019071201069F%R 
02PEREZ MARTINEZ MARILYN ARIADN 61967833  PENSION ABR 2019 SJL     2017-151517  00000000005500000000000005560200000000000060204376011342019071207049572 
02VARGAS GONZALES SERGIO MAURIC 76775472  PENSION JUN 2019 SJL     2017-154327  00000000005400000000000005409700000000000009708176102162019071201069E%S 
02DEL PINO TRUJILLO VICTOR DARI 77551639  PENSION MAY 2019 CAR     2017-8001187100000000005500000000000005534700000000000034701406278372019071201013W24 
02GARAY PALACIOS FABRIZIO MATIA 61797782  PENSION JUN 2019 COL     2017-7823516500000000006400000000000006411500000000000011508176749982019071201069S%H 
02MONTANEZ LICERAS MATHIAS PAVE 74111621  PENSION MAR 2019 COL     2017-7823135200000000006400000000000006498900000000000098908176853502019071201069R%G 
02CARDENAS AROSTEGUI ABIGAIL CO 73674262  PENSION JUL 2019 SJL     2017-154736  0000000000540000000000000540000000000000000000437702439201907120204WNET 
02LOPEZ NEYRA AXEL JUNIOR       73524177  PENSION JUN 2019 SJL     2017-154339  00000000005400000000000005409700000000000009708177076752019071201068P%V 
02ALCALA PONCE BALDEON DIEGO FE 71168771  PENSION JUN 2019 SJL     2017-153435  0000000000550000000000000550990000000000000990437726852201907120204WNET 
03000000031000000001743100000000001750415000000000007315                                                                                                
