0100025539940100PEN20190716001103620200004301                                                                                                           
02SUAREZ ALBARRACIN ADRIANA LIZ 72704451  PENSION AGO 2019 COL     2017-7823755200000000006400000000000006400000000000000000004375876202019071602041450 
02SANCHEZ CHAVEZ DANIELA ODETH  71187930  PENSION MAY 2019 COL     2017-7823402800000000005760000000000005799700000000000039704375995262019071602040036 
02GARCIA DIAZ ARIANA KARYME     74870959  PENSION JUL 2019 COL     2017-7823611200000000006400000000000006400000000000000000004375997382019071607040683 
02SANCHEZ CHAVEZ ERIC PATRICK G 73836300  PENSION MAY 2019 COL     2017-7823438300000000006400000000000006444200000000000044204376001372019071602042115 
02COLLAZOS PUENTE DE LA VEGA LE 73288071  PENSION MAY 2019 CAR     2017-8001173200000000005500000000000005538000000000000038008176009562019071601069I%G 
02COLLAZOS PUENTE DE LA VEGA LE 73288071  PENSION JUN 2019 CAR     2017-8001217900000000005500000000000005513200000000000013208176017482019071601069I%P 
02COLLAZOS PUENTE DE LA VEGA ED 72967837  PENSION MAY 2019 CAR     2017-8001162500000000004860000000000004893500000000000033508176024752019071601069O%B 
02COLLAZOS PUENTE DE LA VEGA ED 72967837  PENSION JUN 2019 CAR     2017-8001196200000000004860000000000004871700000000000011708176031682019071601069M%H 
02CARRILLO RAZURI ALVARO        77506889  PENSION ABR 2019 COL     2017-7823242000000000006400000000000006473900000000000073908176300942019071601069J%K 
02GUERRERO VARGAS ALVARO GABRIE 73091176  PENSION JUN 2019 SJL     2017-154043  00000000005400000000000005413000000000000013008176917782019071601069P%V 
02GUERRERO VARGAS ALVARO GABRIE 73091176  PENSION JUL 2019 SJL     2017-154708  00000000005400000000000005400000000000000000008176921372019071601069F%H 
02BAUTISTA VELASQUEZ MIKEILA LU 76713820  PENSION MAY 2019 SJL     2017-152801  00000000005500000000000005538000000000000038004377193642019071602042061 
02BAUTISTA VELASQUEZ MIKEILA LU 76713820  PENSION JUN 2019 SJL     2017-153823  00000000005500000000000005513200000000000013204377193652019071602042061 
02BAUTISTA VELASQUEZ MIKEILA LU 76713820  PENSION JUL 2019 SJL     2017-154499  00000000005500000000000005500000000000000000004377193662019071602042061 
02CORONEL PEREZ ADRIANA NICOLLE 72907866  PENSION MAY 2019 COL     2017-7823367200000000006400000000000006444200000000000044208177200312019071601069T%A 
02BAUTISTA VELASQUEZ AARON LEON 60917405  PENSION MAY 2019 SJL     2017-153085  00000000004860000000000004893500000000000033504377211332019071602047485 
02BAUTISTA VELASQUEZ AARON LEON 60917405  PENSION JUN 2019 SJL     2017-154091  00000000004860000000000004871700000000000011704377211342019071602047485 
02BAUTISTA VELASQUEZ AARON LEON 60917405  PENSION AGO 2019 SJL     2017-156151  00000000004860000000000004860000000000000000004377211352019071602047485 
02BUENO NIZAMA ADRIANO NICOLAS  72052966  PENSION JUN 2019 CAR     2017-8001225900000000005500000000000005513200000000000013208176293722019071601069N%U 
02BUENO NIZAMA ADRIANO NICOLAS  72052966  PENSION JUL 2019 CAR     2017-8001265300000000005500000000000005500000000000000000008176300462019071601069T%D 
02CARRILLO RAZURI ALVARO        77506889  PENSION MAY 2019 COL     2017-7823378800000000006400000000000006444200000000000044208176307832019071601069Q%P 
02TOLENTINO GODOY MATTHEW SAMUE 77398901  PENSION JUN 2019 COL     2017-7823507400000000005600000000000005613400000000000013408176703602019071601069I%D 
02GUERRERO VARGAS ALVARO GABRIE 73091176  PENSION ABR 2019 SJL     2017-151999  00000000005400000000000005462400000000000062408176904832019071601069Q%V 
02GUERRERO VARGAS ALVARO GABRIE 73091176  PENSION MAY 2019 SJL     2017-153021  00000000005400000000000005437300000000000037308176913502019071601068S%O 
02ORELLANA HILARIO ANGELA FABIA 77776748  PENSION JUN 2019 COL     2017-7823531800000000005600000000000005613400000000000013408176985342019071601069E%C 
02ORELLANA HILARIO ANGELA FABIA 77776748  PENSION JUL 2019 COL     2017-7823687000000000005600000000000005600000000000000000008176991442019071601069J%D 
02ZEA CABRERA SHEYLA VALERIA    74301514  PENSION JUN 2019 COL     2017-7823471600000000006400000000000006415400000000000015408177095012019071601068M%U 
02CAMARGO MANRIQUE LETICIA NOEM 70695818  PENSION JUL 2019 SJL     2017-154795  00000000005400000000000005400000000000000000008177171202019071602069P%J 
02CAMARGO MANRIQUE NELLY NATALI 71598800  PENSION JUL 2019 SJL     2017-154865  00000000004860000000000004860000000000000000008177178522019071602068K%S 
02RODRIGUEZ GUTIERREZ NAHUELT S 71314283  PENSION JUN 2019 SJL     2017-154037  00000000005400000000000005413000000000000013008177360882019071601069N%V 
02MEZA CASTELLON GIANCARLOS DAN 78365319  PENSION MAR 2019 CAR     2017-8001051800000000005600000000000005689900000000000089908177382272019071601068J%V 
02VILLAVICENCIO AGUEDO DIEGO SE 72802463  PENSION JUN 2019 COL     2017-7823455900000000006400000000000006415400000000000015408177479182019071601069L%P 
02LARICO RINZA CRISTIAN SANTIAG 78781179  PENSION JUN 2019 SJL     2017-153468  00000000005600000000000005613400000000000013403517661682019071601019R21 
02BERETTA COZ THIAGO VLADIMIR   61932690  PENSION JUN 2019 COL     2017-7823514600000000006400000000000006415400000000000015401187789022019071601013A24 
02CARBAJAL YAGUI SAORI ANDREA   61188591  PENSION JUN 2019 COL     2017-7823461900000000006400000000000006415400000000000015404377871002019071602048819 
02ZAVALETA BETETA MARIA FERNAND 61529966  PENSION JUN 2019 SJL     2017-153973  00000000005500000000000005513200000000000013208178075282019071601069J%Y 
02GARCIA GARAY MARIA PIA        72983551  PENSION JUL 2019 CAR     2017-8001271700000000005500000000000005500000000000000000004378078972019071602048904 
02BAZALAR RAMOS JOAQUIN MARCELO 63059742  PENSION ABR 2019 SJL     2017-151626  00000000005500000000000005563500000000000063508178615722019071601069K%V 
02BAZALAR RAMOS JOAQUIN MARCELO 63059742  PENSION MAY 2019 SJL     2017-152680  00000000005500000000000005538000000000000038008178623392019071601069S%W 
02CRUZADO MUNOZ ADRIANA ALESSIA 79137096  PENSION JUN 2019 COL     2017-7823537000000000005600000000000005613400000000000013404378726032019071602049482 
02CHINO CALONGE VICTORIA MARIAN 60768262  PENSION MAY 2019 COL     2017-7823371200000000006400000000000006444200000000000044201018768752019071601012T24 
02SOTO FARFAN DARIO MURIEL      77889200  PENSION JUL 2019 SJL     2017-154427  0000000000550000000000000550000000000000000000437853360201907160204WNET 
02SOTO FARFAN DARIO MURIEL      77889200  PENSION AGO 2019 SJL     2017-155795  0000000000550000000000000550000000000000000000437854394201907160204WNET 
02HUERTA BERNA MARIA FERNANDA   77869223  PENSION JUN 2019 COL     2017-7823529100000000005600000000000005613400000000000013408178581072019071601068V%D 
02RODRIGUEZ YLLESCAS LEONIDAS V 61046105  PENSION MAY 2019 COL     2017-7823388900000000006400000000000006444200000000000044204378978002019071602049840 
02RODRIGUEZ YLLESCAS LEONIDAS V 61046105  PENSION JUN 2019 COL     2017-7823464300000000006400000000000006415400000000000015404378978022019071602049840 
03000000046000000002612200000000002622349000000000010149                                                                                                
