0100025539940100PEN20190701001103620200004301                                                                                                           
02RODRIGUEZ LARA FABRIZZIO ALES 70646841  PENSION JUN 2019 COL     2017-7823446800000000005760000000000005760000000000000000004373378442019063002046416 
02RODRIGUEZ LARA ALONZO KALED   74101663  PENSION JUN 2019 COL     2017-7823515600000000006400000000000006400000000000000000004373381432019063002048668 
02GAMBOA HUERTA MISHELL ROMINA  70731825  PENSION JUN 2019 CAR     2017-8001218300000000004950000000000004950000000000000000004370521732019062802042074 
02GAMBOA HUERTA LUHANA PALOMA   78247902  PENSION JUN 2019 CAR     2017-8001189000000000005040000000000005040000000000000000004370523112019062802048967 
02GAMBOA HUERTA THIAGO DYLAN    78247888  PENSION JUN 2019 CAR     2017-8001211100000000005040000000000005040000000000000000004370523662019062802041777 
02PONCE ZAROMO MEREDITH LUANA   76703086  PENSION JUN 2019 SJL     2017-153614  00000000005500000000000005500000000000000000004370677512019062902047735 
02CARRION QUIROZ GONZALO ALONSO 80998632  PENSION JUN 2019 COL     2017-7823529700000000005600000000000005600000000000000000004370691892019062902043735 
02BACA UTRILLA MATIAS ANTONIO   77886955  PENSION JUN 2019 CAR     2017-8001212700000000005500000000000005500000000000000000004370695122019062902047333 
02LOPEZ CARDENAS ADRIANO ALEJAN 77971009  PENSION JUN 2019 SJL     2017-153906  00000000005500000000000005500000000000000000004370783592019062902040295 
02CHAVEZ SUAREZ ADRIAN IVAN     74680008  PENSION JUN 2019 SJL     2017-153820  0000000000550000000000000550000000000000000000437082567201906290204WNET 
02ASTOCURI ASTO RUBEN SEBASTIAN 70626956  PENSION JUN 2019 COL     2017-7823451600000000006400000000000006400000000000000000004370871862019062902042248 
02PEREZ VALDIVIA JOAN ADRIANO   77656250  PENSION JUN 2019 COL     2017-7823527000000000005600000000000005600000000000000000004371026792019062902047689 
02PEREZ VALDIVIA JAYKO SEBASTIA 61877681  PENSION JUN 2019 COL     2017-7823514800000000005760000000000005760000000000000000004371030622019062902048999 
02ALEGRIA MEJIA LUIS ALEJANDRO  81627584  PENSION JUN 2019 SJL     2017-153460  00000000005600000000000005600000000000000000004371163092019062902048786 
02GIRAO VALENCIA XIMENA ALESSAN 77452229  PENSION JUN 2019 SJL     2017-153809  00000000005500000000000005500000000000000000008171186552019062901068L%Z 
02NINAHUANCA VALENCIA SEBASTIAN 73664885  PENSION JUN 2019 SJL     2017-154071  00000000004860000000000004860000000000000000008171195792019062901069V%N 
02CHAVEZ DAVILA ANDRE NICOLAS   63148483  PENSION JUN 2019 SJL     2017-153765  00000000005500000000000005500000000000000000004371305272019062907046923 
02RECINES TELLEZ LUCIANA NICOLL 78264430  PENSION JUN 2019 SJL     2017-153516  00000000005600000000000005600000000000000000008171446452019062901069C%O 
02PAREDES ARCE DANA LOREN       79317050  PENSION JUN 2019 CAR     2017-8001188700000000005600000000000005600000000000000000008171495512019062901068T%J 
02MC CUBBIN ACOSTA ESTEFANO MAT 75302875  PENSION JUN 2019 COL     2017-7823491000000000006400000000000006400000000000000000004371539142019062902044727 
02MC CUBBIN ACOSTA EDUARDO MATH 70591812  PENSION JUN 2019 COL     2017-7823476000000000005760000000000005760000000000000000004371540562019062902041168 
02NUNEZ VERASTEGUI ADRIANO MATE 63234524  PENSION JUN 2019 COL     2017-7823523700000000005600000000000005600000000000000000004371587532019062902048963 
02CERVANTES MEZA GENESIS ELIZAB 61771369  PENSION JUN 2019 SJL     2017-153989  00000000004950000000000004950000000000000000008171738032019062901069C%T 
02CERVANTES MEZA ALICE MARCELA  77716794  PENSION JUN 2019 SJL     2017-153895  00000000005500000000000005500000000000000000008171752162019062901068L%Q 
02MIJA YAGUANA JESHUA SAYYID    74102171  PENSION JUN 2019 CAR     2017-8001235400000000005500000000000005500000000000000000008171766202019062901068Q%T 
02VALDEZ MELO ANGEL ANDRES      74095214  PENSION MAY 2019 SJL     2017-153038  00000000005400000000000005423500000000000023504371895462019062902040896 
02ESTRADA RISCO JOSE GUSTAVO AN 71962712  PENSION JUN 2019 COL     2017-7823554800000000005760000000000005760000000000000000004371941262019062902042827 
02CALDERON LAURA ADRIANO STEPHA 77612540  PENSION JUN 2019 CAR     2017-8001231300000000005500000000000005500000000000000000008172052122019062901068M%N 
02PRADINETT REYES CARMEN LEAH   77188281  PENSION JUN 2019 COL     2017-7823512500000000003920000000000003920000000000000000004372359102019062902047902 
02CUBAS BACA ADRIANA VALERIA    72819606  PENSION JUN 2019 COL     2017-7823503700000000006400000000000006400000000000000000004372584832019062902044488 
02TORERO AGUIRRE BELEN FERNANDA 73167264  PENSION JUN 2019 SJL     2017-153585  00000000005500000000000005500000000000000000004372698192019062902048648 
02MEDINA DONAYRE DIANA GISSELA  70625079  PENSION JUN 2019 COL     2017-782345030000000000576000000000000576000000000000000000437271115201906290704WNET 
02MEDINA DONAYRE ALAN RAFAEL    70625067  PENSION JUN 2019 COL     2017-782345540000000000640000000000000640000000000000000000437271122201906290704WNET 
02PAREJA AVILA LEONARDO MARTIN  75631934  PENSION ABR 2019 COL     2017-7823282600000000006400000000000006458600000000000058604372829952019063002043496 
02CARTAGENA CAHUAS ALESSANDRO P 76391717  PENSION JUN 2019 COL     2017-7823475300000000006400000000000006400000000000000000004372865032019063002046187 
02ESTRADA RISCO GREZZIA LUCERO  60799157  PENSION JUN 2019 COL     2017-7823463900000000006400000000000006400000000000000000004372889322019063002045227 
02MENDEZ LAU SAMUEL             77829126  PENSION JUN 2019 COL     2017-7823531700000000005600000000000005600000000000000000004372986172019063002046807 
02VARILLAS YNGA ALICE LUANA     77967338  PENSION JUN 2019 CAR     2017-8001218400000000005500000000000005500000000000000000004373222582019063002047362 
02PEREZ VALLEJO JOSE FRANK      77634921  PENSION JUN 2019 SJL     2017-153659  00000000005500000000000005500000000000000000004373305432019063002045637 
02PEREZ VALLEJO JULIO NESTOR    61981183  PENSION JUN 2019 SJL     2017-153402  00000000004950000000000004950000000000000000004373307412019063002048298 
02ZAPATA EPQUIN SHANTAL ABIGAIL 81546920  PENSION JUN 2019 COL     2017-7823479400000000005760000000000005760000000000000000004373327772019063002041228 
02MASLUCAN TORRES JOSE CARLOS   73419652  PENSION JUN 2019 CAR     2017-8001203100000000003780000000000003780000000000000000004373333572019063002047188 
02MASLUCAN TORRES JOSE CARLOS   73419652  PENSION JUL 2019 CAR     2017-8001265000000000003780000000000003780000000000000000004373333582019063002047188 
02NUNEZ VERA XIOMARA PIERINA    72270892  PENSION JUN 2019 CAR     2017-8001200200000000005400000000000005400000000000000000008173435742019063001068R%B 
02DAVILA MAURICIO NAYDA LUCIANA 72350867  PENSION JUN 2019 COL     2017-7823461600000000005760000000000005760900000000000000901084727512019070101013022 
02SALCEDO ACHUYA ROSSELL AARON  76117631  PENSION JUN 2019 CAR     2017-8001223000000000005500000000000005500000000000000000004373495712019063007044058 
02ROJAS VEGA LEON               81586756  PENSION JUL 2019 SJL     2017-155179  0000000000560000000000000560000000000000000000437350804201906300204WNET 
02HUARCA APAZA FLAVIA ESTEFANIA 72050723  PENSION JUN 2019 COL     2017-7823474200000000006400000000000006400000000000000000004373513502019063002045950 
02HUAMAN CUYUBAMBA DANIELA LUCI 77559775  PENSION JUN 2019 CAR     2017-8001221600000000005500000000000005500000000000000000004373582702019063002045699 
02MONTERO PORTELLA NATANIEL ALE 74344220  PENSION JUN 2019 SJL     2017-153697  00000000005500000000000005500800000000000000804375118712019070102046903 
02MONTERO PORTELLA NATANIEL ALE 74344220  PENSION JUL 2019 SJL     2017-155366  00000000005500000000000005500000000000000000004375118722019070102046903 
02ZAPATA EPQUIN ARIANA BELEN    81546921  PENSION JUN 2019 COL     2017-7823509200000000005600000000000005600000000000000000004373647672019063002041757 
02BACA QUISPE RANIA NADINE      75330044  PENSION JUN 2019 CAR     2017-8001196700000000004860000000000004860700000000000000708175284062019070101069Q%B 
02FONSECA NAVARRO FABRIZIO ALEX 72985305  PENSION ABR 2019 COL     2017-7823291700000000005760000000000005813600000000000053604375570032019070107042420 
02OKUMURA CHICLAYO SATORU SEIYA 61345091  PENSION JUN 2019 SJL     2017-153646  00000000005500000000000005500000000000000000004373746602019063002049090 
02OKUMURA CHICLAYO MAYUMI NAOMI 71012867  PENSION JUN 2019 SJL     2017-154088  00000000004860000000000004860000000000000000004373749932019063002042867 
02FONSECA NAVARRO FABRIZIO ALEX 72985305  PENSION MAY 2019 COL     2017-7823425200000000005760000000000005786800000000000026804375570052019070107042420 
02VELAZCO JAVIER FIORELLA ALEXA 71769647  PENSION MAY 2019 SJL     2017-153074  00000000005400000000000005424300000000000024304373825242019063002040384 
02FONSECA NAVARRO FABRIZIO ALEX 72985305  PENSION JUN 2019 COL     2017-7823502500000000005760000000000005760900000000000000904375570092019070107042420 
02IGLESIAS LLERENA LUCIANA ANDR 77119882  PENSION MAY 2019 COL     2017-782341830000000000576000000000000578680000000000002680437698293201907010204WNET 
02CRUZADO MUNOZ ADRIANA ALESSIA 79137096  PENSION MAY 2019 COL     2017-7823337200000000005600000000000005626000000000000026008175624832019070101069C%V 
02SEGURA SOTOMAYOR GENESIS SOFI 77550137  PENSION JUN 2019 COL     2017-7823505100000000005600000000000005600800000000000000804376477932019070102049952 
02GUIULFO CHAVEZ CESAR ANTONIO  72084899  PENSION JUN 2019 COL     2017-7823553300000000006400000000000006401000000000000001002146839512019070101015Y12 
02VASQUEZ GERONIMO LUCIANA ANDR 78163020  PENSION JUN 2019 SJL     2017-153476  00000000005600000000000005600000000000000000004374015192019063002042762 
02MELENDEZ VILCHEZ CAMILA SILVA 79574272  PENSION JUN 2019 CAR     2017-8001555700000000003920000000000003920000000000000000004374052812019063002042544 
02QUISPE DAVALOS JORGE MANUEL   71146954  PENSION JUL 2019 SJL     2017-155095  00000000005500000000000005500000000000000000004374062042019063002045089 
02CACERES ARANCIBIA JUAN DIEGO  79365095  PENSION MAY 2019 COL     2017-782333780000000000560000000000000562520000000000002520437412530201906300204WNET 
02FERNANDEZ SUAREZ JUAN DIEGO   78187167  PENSION JUN 2019 SJL     2017-153574  00000000005600000000000005600000000000000000004374128342019063002042905 
02FERNANDEZ SUAREZ ANDRE ALONSO 61843317  PENSION JUN 2019 SJL     2017-153810  00000000004950000000000004950000000000000000004374130002019063002048267 
02CACERES ARANCIBIA ANDRE ALEXA 73847394  PENSION MAY 2019 COL     2017-782344420000000000576000000000000578590000000000002590437413062201906300204WNET 
02HUAMAN AROTOMA MICAELA MAKENA 78883668  PENSION JUN 2019 SJL     2017-153533  00000000005600000000000005600000000000000000004374175952019063002040559 
02AMBROCIO GUZMAN EMMA LUCIA    72215104  PENSION JUN 2019 COL     2017-7823561900000000005760000000000005760900000000000000908176858782019070101068M%L 
02AMBROCIO GUZMAN VALERIA ALESS 70595689  PENSION JUN 2019 COL     2017-7823453400000000005760000000000005760900000000000000908176864772019070101068J%Z 
02COLCHADO OLIVERA ZOE GERALDIN 71359581  PENSION JUN 2019 COL     2017-7823502400000000005760000000000005760900000000000000904374260442019070102042280 
02AMBROCIO GUZMAN ANDREA SOPHIA 71192263  PENSION JUN 2019 COL     2017-7823480500000000005760000000000005760900000000000000908176871762019070101068N%C 
02PORTILLO GUIVIN CAROLA MELINA 77762983  PENSION JUN 2019 COL     2017-7823532700000000005600000000000005600800000000000000803228570412019070101018Y22 
02LIMO VARGAS JUAN DIEGO FRANCI 79546317  PENSION JUN 2019 COL     2017-7823536100000000005600000000000005600800000000000000801894595852019070101015923 
02DAVILA MAURICIO GRACE MARITZA 77546406  PENSION JUN 2019 COL     2017-7823510200000000005600000000000005600800000000000000801084729992019070101013022 
02REYES CARDENAS SAUL BENJAMIN  72484196  PENSION JUN 2019 SJL     2017-154009  0000000000540000000000000540080000000000000080437495427201907010204WNET 
02ORTIZ NINO MARY CEIDA         642594104 PENSION JUN 2019 COL     2017-7823448200000000006400000000000006401000000000000001008174961542019070101069S%A 
02GONZALES VASQUEZ ENMANUEL     74695541  PENSION JUN 2019 CAR     2017-8001203000000000005400000000000005400800000000000000808175018532019070101068V%A 
02PEREYRA GAVILANO VALERIA CRIS 74224284  PENSION JUN 2019 COL     2017-7823468500000000006400000000000006401000000000000001008175068312019070102069B%H 
02PERCCA ESCOBAR IAN MATHIAS    79224278  PENSION JUN 2019 COL     2017-7824327400000000005600000000000005600800000000000000808175072712019070101068N%O 
02CONEJO CARRASCO MIGUEL ANGEL  70952322  PENSION JUN 2019 CAR     2017-8001227300000000004950000000000004950700000000000000708175241012019070101069C%S 
02CONEJO CARRASCO BRYAN DANIEL  70952327  PENSION JUN 2019 CAR     2017-8001226700000000004950000000000004950700000000000000708175250082019070101069K%Y 
02CONEJO CARRASCO ALEXANDER EMA 76894965  PENSION JUN 2019 CAR     2017-8001209300000000004950000000000004950700000000000000708175259862019070101069Q%I 
02BACA QUISPE FLAVIO LIONEL     74681196  PENSION JUN 2019 CAR     2017-8001207000000000005500000000000005500800000000000000808175273892019070101069L%N 
02PASTRANA PISCOYA MIGUEL SEBAS 60905038  PENSION JUN 2019 COL     2017-7823476800000000006400000000000006401000000000000001008175282942019070101069T%N 
02ARIAS MORA LEONARDO DAVID     61139781  PENSION MAY 2019 SJL     2017-152937  00000000004950000000000004973000000000000023008175360272019070101068W%A 
02GARCIA PAUCARCAJA CAMILA THAI 77108021  PENSION MAY 2019 COL     2017-7823431800000000005600000000000005626000000000000026008175430552019070101069S%Y 
02GARCIA PAUCARCAJA CAMILA THAI 77108021  PENSION JUN 2019 COL     2017-7823508600000000005600000000000005600800000000000000808175439942019070101068R%K 
02MONTALVO TORRES REYZINHO FABR 70642948  PENSION MAR 2019 COL     2017-7823122700000000006400000000000006488300000000000088308175496352019070101069H%M 
02MONTALVO TORRES REYZINHO FABR 70642948  PENSION ABR 2019 COL     2017-7823243000000000006400000000000006459500000000000059508175504302019070101069K%J 
02FONSECA NAVARRO LUANA VENEZIA 77924923  PENSION ABR 2019 COL     2017-7823312400000000005600000000000005652100000000000052104375539112019070107042335 
02FONSECA NAVARRO LUANA VENEZIA 77924923  PENSION MAY 2019 COL     2017-7823324400000000005600000000000005626000000000000026004375539122019070107042335 
02FONSECA NAVARRO LUANA VENEZIA 77924923  PENSION JUN 2019 COL     2017-7823523200000000005600000000000005600800000000000000804375560632019070107041351 
02FEBRES ASCENCIO MATIAS ALEJAN 78537203  PENSION JUN 2019 COL     2017-782353890000000000560000000000000560080000000000000080437569097201907010204WNET 
02CHAVEZ VALVERDE SOFIA NAOMI   77744533  PENSION JUN 2019 SJL     2017-153912  00000000005500000000000005500800000000000000808175866682019070101068P%G 
02MARTINEZ MELENDEZ ELIZABETH G 79107799  PENSION JUN 2019 COL     2017-7823539700000000005600000000000005600800000000000000808175901142019070101068Y%C 
02SILVA CHOY MEREDITH KATHERINE 62024254  PENSION JUN 2019 SJL     2017-153828  00000000004950000000000004950700000000000000704375981542019070102041183 
02SILVA CHOY JUAN MANUEL DANIEL 79439292  PENSION JUN 2019 SJL     2017-153553  00000000005600000000000005600800000000000000804376001802019070102042398 
02DIAZ QUIROZ LUANA FERNANDA    72826278  PENSION MAY 2019 CAR     2017-8001184000000000005500000000000005525600000000000025608176094482019070101069V%G 
02CONTRERAS VIRU RAFAEL ELIAS H 78989172  PENSION JUN 2019 COL     2017-7823534000000000005600000000000005600800000000000000804376243242019070107049048 
02MACHUCA SALGADO ARIANA ZUGESL 70572518  PENSION MAY 2019 CAR     2017-8001167000000000004860000000000004882600000000000022608176420602019070101069E%M 
02SEVILLANO GAMARRA YHERIK ADHI 78560290  PENSION JUN 2019 CAR     2017-8001191500000000005600000000000005600800000000000000808176427732019070101068Y%W 
02MARTINEZ FLORES LUCIANA       79403568  PENSION AGO 2019 SJL     2017-155673  00000000005600000000000005600000000000000000004376447032019070102045826 
02VELEZ MELCHOR CARLOS ARIAN    70703812  PENSION JUN 2019 SJL     2017-153411  00000000004950000000000004950700000000000000704376713762019070102041404 
02PAJILLA FIGUEROA RODRIGO ESTE 78026912  PENSION JUN 2019 COL     2017-782352610000000000560000000000000560080000000000000080609673351201907010101GX13 
02VELEZ MELCHOR KARLA AYLIN     77984712  PENSION JUN 2019 SJL     2017-153951  00000000005500000000000005500800000000000000804376734602019070102044075 
02ABAL HUAROTE DIEGO FERNANDO   78033168  PENSION JUN 2019 SJL     2017-153690  00000000005500000000000005500800000000000000808176796312019070101069A%D 
02GONZALEZ ARANA RAUL           79985878  PENSION JUN 2019 CAR     2017-8001198200000000005400000000000005400800000000000000804376828542019070102047679 
02GUIULFO CHAVEZ CESAR ANTONIO  72084899  PENSION ABR 2019 COL     2017-7823221500000000006400000000000006459500000000000059502146839492019070101015Y12 
02GUIULFO CHAVEZ CESAR ANTONIO  72084899  PENSION MAY 2019 COL     2017-7823353800000000006400000000000006429800000000000029802146839502019070101015Y12 
02IGLESIAS LLERENA FABIANA DEL  73734592  PENSION MAR 2019 COL     2017-782318940000000000576000000000000583950000000000007950437694750201907010204WNET 
02IGLESIAS LLERENA FABRIZIO AND 73173372  PENSION MAY 2019 COL     2017-782336020000000000576000000000000578680000000000002680437696265201907010204WNET 
02PERALTA LUDENA LUIS ALEJANDRO 78919297  PENSION JUL 2019 COL     2017-7823567400000000005600000000000005600000000000000000003286967582019070101019412 
02MALDONADO AMAO CESAR ANDRE    73369326  PENSION JUN 2019 SJL     2017-154136  00000000005400000000000005400800000000000000804377150652019070102040638 
02SANCHEZ GARCIA DIEGO ORLANDO  61140124  PENSION JUN 2019 COL     2017-7823451800000000006400000000000006401000000000000001004377354382019070102040269 
02QUINONES ALARCON RODRIGO MATI 62946427  PENSION JUN 2019 CAR     2017-8001225600000000005500000000000005500800000000000000804377418282019070102047638 
02GRANADOS IBANEZ CESAR AUGUSTO 70504858  PENSION JUN 2019 CAR     2017-800120100000000000540000000000000540080000000000000080508751943201907010101E413 
02PASTOR LESCANO ADRIANA        71160581  PENSION JUN 2019 COL     2017-7823484600000000006400000000000006401000000000000001008177528102019070101068J%X 
02GUERRERO CARBAJAL FATIMA SALO 78118894  PENSION JUN 2019 SJL     2017-153549  00000000005600000000000005600800000000000000808177567882019070101069I%W 
02SANTA CRUZ CRUZ SAM           78196138  PENSION JUN 2019 SJL     2017-153478  0000000000504000000000000504080000000000000080437765940201907010204WNET 
02SANTA CRUZ CRUZ OLIVER        71058170  PENSION JUL 2019 SJL     2017-155014  0000000000270000000000000270000000000000000000437765945201907010204WNET 
02SANTA CRUZ CRUZ VALESKA       78992553  PENSION JUN 2019 SJL     2017-153501  0000000000504000000000000504080000000000000080437770037201907010204WNET 
02CONDORI ACOSTA ARIANA MICHELL 73559213  PENSION JUN 2019 COL     2017-7823520700000000006400000000000006401000000000000001004377728262019070107044471 
02COLLAZO TOLEDO REGINALDO ARRI 72215532  PENSION JUN 2019 COL     2017-7823556200000000005760000000000005760900000000000000902527804302019070101017019 
02COLLAZO TOLEDO ELSA           72215525  PENSION JUN 2019 COL     2017-7823556800000000006400000000000006401000000000000001002527820562019070101017019 
02REANO CCOSCCO CRISTHIAN       77049043  PENSION JUN 2019 SJL     2017-154288  00000000005400000000000005400800000000000000808177895922019070101069I%V 
02QUISPE POLINARIO GERSON ADRIE 77599084  PENSION JUN 2019 CAR     2017-8001207400000000005500000000000005500800000000000000808177899682019070101068T%T 
02MANSILLA ALVA DAYRA MASSIEL   71184455  PENSION JUN 2019 SJL     2017-153868  00000000002750000000000002750400000000000000408177963672019070101069C%X 
02CCAHUANA BENAVENTE MATEO      79010735  PENSION JUN 2019 CAR     2017-8001209900000000005600000000000005600800000000000000808178005212019070101069E%N 
02TARAZONA REYES JAMYR DAVID    73145948  PENSION ABR 2019 COL     2017-7823254100000000006400000000000006459500000000000059508178038372019070101069T%X 
02COLLAHUA CARBAJAL ALEJANDRO M 78173519  PENSION JUN 2019 COL     2017-7823534400000000005600000000000005600800000000000000804378055502019070102048828 
02CARDENAS BALVIN DIOGO DAVID   71693460  PENSION JUN 2019 SJL     2017-154182  00000000005400000000000005400800000000000000808178139282019070101069F%B 
02VILA RAMOS CHRISTIAN PABLO    74747391  PENSION JUN 2019 SJL     2017-154213  0000000000486000000000000486070000000000000070360852725201907010101A028 
02AGREDA CARRILLO JOAQUIN VALEN 62050139  PENSION ABR 2019 CAR     2017-8001125700000000005500000000000005551200000000000051208178375102019070102068V%E 
02VILA RAMOS VALERIA ALEXANDRA  62644613  PENSION JUN 2019 SJL     2017-153964  0000000000550000000000000550080000000000000080360853485201907010101A028 
02GALVEZ ESPINOZA GIANELLA VICT 61933417  PENSION JUN 2019 COL     2017-7823514900000000006400000000000006401000000000000001008178568102019070101069P%H 
02SANGAMA TANG LUIS ALEJANDRO   74950230  PENSION JUN 2019 COL     2017-7823446700000000006400000000000006401000000000000001004378643872019070107042897 
02VILCAPOMA RUIZ PIERO ANDRE    77304369  PENSION JUN 2019 COL     2017-7823508500000000005600000000000005600800000000000000804379035472019070102044814 
02CORREA MONDRAGON DANIELA LUC  76110774  PENSION JUN 2019 SJL     2017-153463  00000000005500000000000005500800000000000000804379348422019070102047150 
02RUDECINDO BEDOYA RICARDO ALON 77620490  PENSION JUN 2019 SJL     2017-153749  00000000005500000000000005500800000000000000804379514262019070107047662 
02TORRES MARCILLA LEAH DASHA    77413690  PENSION MAY 2019 COL     2017-7823427200000000005600000000000005626000000000000026008179755912019070101069I%Q 
03000000144000000007985500000000007995465000000000009965                                                                                                
